{
  "_format": "hh-sol-artifact-1",
  "contractName": "WorldCup2022",
  "sourceName": "contracts/upgradeables/WorldCup2022.sol",
  "abi": [
    {
      "inputs": [],
      "stateMutability": "nonpayable",
      "type": "constructor"
    },
    {
      "anonymous": false,
      "inputs": [
        {
          "indexed": false,
          "internalType": "address",
          "name": "previousAdmin",
          "type": "address"
        },
        {
          "indexed": false,
          "internalType": "address",
          "name": "newAdmin",
          "type": "address"
        }
      ],
      "name": "AdminChanged",
      "type": "event"
    },
    {
      "anonymous": false,
      "inputs": [
        {
          "indexed": true,
          "internalType": "address",
          "name": "beacon",
          "type": "address"
        }
      ],
      "name": "BeaconUpgraded",
      "type": "event"
    },
    {
      "anonymous": false,
      "inputs": [
        {
          "indexed": false,
          "internalType": "uint8",
          "name": "version",
          "type": "uint8"
        }
      ],
      "name": "Initialized",
      "type": "event"
    },
    {
      "anonymous": false,
      "inputs": [
        {
          "indexed": false,
          "internalType": "uint256",
          "name": "id",
          "type": "uint256"
        },
        {
          "indexed": false,
          "internalType": "address",
          "name": "owner",
          "type": "address"
        },
        {
          "indexed": false,
          "internalType": "uint16",
          "name": "clanId",
          "type": "uint16"
        },
        {
          "indexed": false,
          "internalType": "uint256",
          "name": "balance",
          "type": "uint256"
        },
        {
          "indexed": false,
          "internalType": "uint256",
          "name": "blockTime",
          "type": "uint256"
        }
      ],
      "name": "NewTransition",
      "type": "event"
    },
    {
      "anonymous": false,
      "inputs": [
        {
          "indexed": true,
          "internalType": "address",
          "name": "previousOwner",
          "type": "address"
        },
        {
          "indexed": true,
          "internalType": "address",
          "name": "newOwner",
          "type": "address"
        }
      ],
      "name": "OwnershipTransferred",
      "type": "event"
    },
    {
      "anonymous": false,
      "inputs": [
        {
          "indexed": false,
          "internalType": "uint256",
          "name": "clanId",
          "type": "uint256"
        },
        {
          "indexed": false,
          "internalType": "uint256",
          "name": "balance",
          "type": "uint256"
        },
        {
          "indexed": false,
          "internalType": "uint256",
          "name": "poolSize",
          "type": "uint256"
        }
      ],
      "name": "UpdateClanBalance",
      "type": "event"
    },
    {
      "anonymous": false,
      "inputs": [
        {
          "indexed": false,
          "internalType": "uint256",
          "name": "betTimeLock",
          "type": "uint256"
        }
      ],
      "name": "UpdateLockBattleTime",
      "type": "event"
    },
    {
      "anonymous": false,
      "inputs": [
        {
          "indexed": true,
          "internalType": "address",
          "name": "implementation",
          "type": "address"
        }
      ],
      "name": "Upgraded",
      "type": "event"
    },
    {
      "anonymous": false,
      "inputs": [
        {
          "indexed": false,
          "internalType": "address",
          "name": "userId",
          "type": "address"
        },
        {
          "indexed": false,
          "internalType": "uint256",
          "name": "balance",
          "type": "uint256"
        }
      ],
      "name": "UserClaim",
      "type": "event"
    },
    {
      "inputs": [],
      "name": "GAME_STATUS_ERROR",
      "outputs": [
        {
          "internalType": "uint256",
          "name": "",
          "type": "uint256"
        }
      ],
      "stateMutability": "view",
      "type": "function"
    },
    {
      "inputs": [],
      "name": "GAME_STATUS_FINISHED",
      "outputs": [
        {
          "internalType": "uint256",
          "name": "",
          "type": "uint256"
        }
      ],
      "stateMutability": "view",
      "type": "function"
    },
    {
      "inputs": [],
      "name": "GAME_STATUS_RUNNING",
      "outputs": [
        {
          "internalType": "uint256",
          "name": "",
          "type": "uint256"
        }
      ],
      "stateMutability": "view",
      "type": "function"
    },
    {
      "inputs": [],
      "name": "GAME_STATUS_STARTED",
      "outputs": [
        {
          "internalType": "uint256",
          "name": "",
          "type": "uint256"
        }
      ],
      "stateMutability": "view",
      "type": "function"
    },
    {
      "inputs": [],
      "name": "GAME_STATUS_STOP_PREDICTION",
      "outputs": [
        {
          "internalType": "uint256",
          "name": "",
          "type": "uint256"
        }
      ],
      "stateMutability": "view",
      "type": "function"
    },
    {
      "inputs": [],
      "name": "GAME_STATUS_WITHDRAW_REWARD",
      "outputs": [
        {
          "internalType": "uint256",
          "name": "",
          "type": "uint256"
        }
      ],
      "stateMutability": "view",
      "type": "function"
    },
    {
      "inputs": [],
      "name": "NUMBER_OF_DECIMALS",
      "outputs": [
        {
          "internalType": "uint256",
          "name": "",
          "type": "uint256"
        }
      ],
      "stateMutability": "view",
      "type": "function"
    },
    {
      "inputs": [],
      "name": "TREASURY_FEE",
      "outputs": [
        {
          "internalType": "uint256",
          "name": "",
          "type": "uint256"
        }
      ],
      "stateMutability": "view",
      "type": "function"
    },
    {
      "inputs": [
        {
          "internalType": "uint16",
          "name": "clanId",
          "type": "uint16"
        }
      ],
      "name": "bet",
      "outputs": [],
      "stateMutability": "payable",
      "type": "function"
    },
    {
      "inputs": [
        {
          "internalType": "uint256",
          "name": "amount",
          "type": "uint256"
        },
        {
          "internalType": "uint256",
          "name": "poolSize",
          "type": "uint256"
        }
      ],
      "name": "calculatePercentageOwnership",
      "outputs": [
        {
          "internalType": "uint256",
          "name": "",
          "type": "uint256"
        },
        {
          "internalType": "uint256",
          "name": "",
          "type": "uint256"
        }
      ],
      "stateMutability": "pure",
      "type": "function"
    },
    {
      "inputs": [
        {
          "internalType": "address",
          "name": "userId",
          "type": "address"
        }
      ],
      "name": "calculateReward",
      "outputs": [
        {
          "internalType": "uint256",
          "name": "",
          "type": "uint256"
        }
      ],
      "stateMutability": "view",
      "type": "function"
    },
    {
      "inputs": [
        {
          "internalType": "uint16",
          "name": "clanId",
          "type": "uint16"
        },
        {
          "internalType": "string",
          "name": "clanName",
          "type": "string"
        }
      ],
      "name": "changeClanName",
      "outputs": [],
      "stateMutability": "nonpayable",
      "type": "function"
    },
    {
      "inputs": [],
      "name": "claimReward",
      "outputs": [],
      "stateMutability": "payable",
      "type": "function"
    },
    {
      "inputs": [],
      "name": "countTransactions",
      "outputs": [
        {
          "internalType": "uint256",
          "name": "",
          "type": "uint256"
        }
      ],
      "stateMutability": "view",
      "type": "function"
    },
    {
      "inputs": [],
      "name": "countUsers",
      "outputs": [
        {
          "internalType": "uint256",
          "name": "",
          "type": "uint256"
        }
      ],
      "stateMutability": "view",
      "type": "function"
    },
    {
      "inputs": [],
      "name": "developReward",
      "outputs": [
        {
          "internalType": "uint256",
          "name": "",
          "type": "uint256"
        }
      ],
      "stateMutability": "view",
      "type": "function"
    },
    {
      "inputs": [
        {
          "internalType": "uint16",
          "name": "clanId",
          "type": "uint16"
        },
        {
          "internalType": "uint256",
          "name": "amount",
          "type": "uint256"
        },
        {
          "internalType": "bool",
          "name": "deposited",
          "type": "bool"
        }
      ],
      "name": "estimateReward",
      "outputs": [
        {
          "internalType": "uint256",
          "name": "",
          "type": "uint256"
        }
      ],
      "stateMutability": "view",
      "type": "function"
    },
    {
      "inputs": [],
      "name": "getAllowDeposits",
      "outputs": [
        {
          "internalType": "uint256[]",
          "name": "",
          "type": "uint256[]"
        }
      ],
      "stateMutability": "view",
      "type": "function"
    },
    {
      "inputs": [],
      "name": "getBetTimeLock",
      "outputs": [
        {
          "internalType": "uint256",
          "name": "",
          "type": "uint256"
        }
      ],
      "stateMutability": "view",
      "type": "function"
    },
    {
      "inputs": [],
      "name": "getClans",
      "outputs": [
        {
          "components": [
            {
              "internalType": "uint16",
              "name": "id",
              "type": "uint16"
            },
            {
              "internalType": "string",
              "name": "name",
              "type": "string"
            },
            {
              "internalType": "uint256",
              "name": "balance",
              "type": "uint256"
            }
          ],
          "internalType": "struct Clan[]",
          "name": "",
          "type": "tuple[]"
        }
      ],
      "stateMutability": "view",
      "type": "function"
    },
    {
      "inputs": [],
      "name": "getContractBalance",
      "outputs": [
        {
          "internalType": "uint256",
          "name": "",
          "type": "uint256"
        }
      ],
      "stateMutability": "view",
      "type": "function"
    },
    {
      "inputs": [],
      "name": "getGameStatus",
      "outputs": [
        {
          "internalType": "uint256",
          "name": "",
          "type": "uint256"
        }
      ],
      "stateMutability": "view",
      "type": "function"
    },
    {
      "inputs": [
        {
          "internalType": "uint16",
          "name": "size",
          "type": "uint16"
        }
      ],
      "name": "getLastTransactions",
      "outputs": [
        {
          "components": [
            {
              "internalType": "uint256",
              "name": "id",
              "type": "uint256"
            },
            {
              "internalType": "address",
              "name": "owner",
              "type": "address"
            },
            {
              "internalType": "uint16",
              "name": "clanId",
              "type": "uint16"
            },
            {
              "internalType": "uint256",
              "name": "balance",
              "type": "uint256"
            },
            {
              "internalType": "uint256",
              "name": "blockTime",
              "type": "uint256"
            }
          ],
          "internalType": "struct Transaction[]",
          "name": "",
          "type": "tuple[]"
        }
      ],
      "stateMutability": "view",
      "type": "function"
    },
    {
      "inputs": [
        {
          "internalType": "address",
          "name": "userId",
          "type": "address"
        },
        {
          "internalType": "uint16",
          "name": "size",
          "type": "uint16"
        }
      ],
      "name": "getLastTransactionsByUser",
      "outputs": [
        {
          "components": [
            {
              "internalType": "uint256",
              "name": "id",
              "type": "uint256"
            },
            {
              "internalType": "address",
              "name": "owner",
              "type": "address"
            },
            {
              "internalType": "uint16",
              "name": "clanId",
              "type": "uint16"
            },
            {
              "internalType": "uint256",
              "name": "balance",
              "type": "uint256"
            },
            {
              "internalType": "uint256",
              "name": "blockTime",
              "type": "uint256"
            }
          ],
          "internalType": "struct Transaction[]",
          "name": "",
          "type": "tuple[]"
        },
        {
          "internalType": "uint256",
          "name": "",
          "type": "uint256"
        }
      ],
      "stateMutability": "view",
      "type": "function"
    },
    {
      "inputs": [
        {
          "internalType": "uint256",
          "name": "startCursor",
          "type": "uint256"
        },
        {
          "internalType": "uint256",
          "name": "endCursor",
          "type": "uint256"
        }
      ],
      "name": "getTransactions",
      "outputs": [
        {
          "components": [
            {
              "internalType": "uint256",
              "name": "id",
              "type": "uint256"
            },
            {
              "internalType": "address",
              "name": "owner",
              "type": "address"
            },
            {
              "internalType": "uint16",
              "name": "clanId",
              "type": "uint16"
            },
            {
              "internalType": "uint256",
              "name": "balance",
              "type": "uint256"
            },
            {
              "internalType": "uint256",
              "name": "blockTime",
              "type": "uint256"
            }
          ],
          "internalType": "struct Transaction[]",
          "name": "",
          "type": "tuple[]"
        }
      ],
      "stateMutability": "view",
      "type": "function"
    },
    {
      "inputs": [
        {
          "internalType": "address",
          "name": "userId",
          "type": "address"
        },
        {
          "internalType": "uint256",
          "name": "startCursor",
          "type": "uint256"
        },
        {
          "internalType": "uint256",
          "name": "endCursor",
          "type": "uint256"
        }
      ],
      "name": "getTransactionsByUser",
      "outputs": [
        {
          "components": [
            {
              "internalType": "uint256",
              "name": "id",
              "type": "uint256"
            },
            {
              "internalType": "address",
              "name": "owner",
              "type": "address"
            },
            {
              "internalType": "uint16",
              "name": "clanId",
              "type": "uint16"
            },
            {
              "internalType": "uint256",
              "name": "balance",
              "type": "uint256"
            },
            {
              "internalType": "uint256",
              "name": "blockTime",
              "type": "uint256"
            }
          ],
          "internalType": "struct Transaction[]",
          "name": "",
          "type": "tuple[]"
        },
        {
          "internalType": "uint256",
          "name": "",
          "type": "uint256"
        }
      ],
      "stateMutability": "view",
      "type": "function"
    },
    {
      "inputs": [
        {
          "internalType": "address",
          "name": "userId",
          "type": "address"
        }
      ],
      "name": "getUser",
      "outputs": [
        {
          "components": [
            {
              "internalType": "address",
              "name": "owner",
              "type": "address"
            },
            {
              "internalType": "uint256",
              "name": "deposit",
              "type": "uint256"
            },
            {
              "internalType": "uint256",
              "name": "withdraw",
              "type": "uint256"
            },
            {
              "internalType": "uint256",
              "name": "transactions",
              "type": "uint256"
            }
          ],
          "internalType": "struct UserInfo",
          "name": "",
          "type": "tuple"
        }
      ],
      "stateMutability": "view",
      "type": "function"
    },
    {
      "inputs": [
        {
          "internalType": "uint256",
          "name": "startCursor",
          "type": "uint256"
        },
        {
          "internalType": "uint256",
          "name": "endCursor",
          "type": "uint256"
        }
      ],
      "name": "getUsers",
      "outputs": [
        {
          "components": [
            {
              "internalType": "address",
              "name": "owner",
              "type": "address"
            },
            {
              "internalType": "uint256",
              "name": "deposit",
              "type": "uint256"
            },
            {
              "internalType": "uint256",
              "name": "withdraw",
              "type": "uint256"
            },
            {
              "internalType": "uint256",
              "name": "transactions",
              "type": "uint256"
            }
          ],
          "internalType": "struct UserInfo[]",
          "name": "",
          "type": "tuple[]"
        }
      ],
      "stateMutability": "view",
      "type": "function"
    },
    {
      "inputs": [],
      "name": "getWithdrawReward",
      "outputs": [
        {
          "internalType": "uint256",
          "name": "",
          "type": "uint256"
        }
      ],
      "stateMutability": "view",
      "type": "function"
    },
    {
      "inputs": [
        {
          "internalType": "string",
          "name": "contractName",
          "type": "string"
        },
        {
          "components": [
            {
              "internalType": "uint16",
              "name": "id",
              "type": "uint16"
            },
            {
              "internalType": "string",
              "name": "name",
              "type": "string"
            },
            {
              "internalType": "uint256",
              "name": "balance",
              "type": "uint256"
            }
          ],
          "internalType": "struct Clan[]",
          "name": "clans",
          "type": "tuple[]"
        },
        {
          "internalType": "uint256[]",
          "name": "allow_deposits",
          "type": "uint256[]"
        },
        {
          "internalType": "address",
          "name": "wallet",
          "type": "address"
        },
        {
          "internalType": "uint256",
          "name": "_betTimeLock",
          "type": "uint256"
        }
      ],
      "name": "initialize",
      "outputs": [],
      "stateMutability": "nonpayable",
      "type": "function"
    },
    {
      "inputs": [],
      "name": "name",
      "outputs": [
        {
          "internalType": "string",
          "name": "",
          "type": "string"
        }
      ],
      "stateMutability": "view",
      "type": "function"
    },
    {
      "inputs": [],
      "name": "owner",
      "outputs": [
        {
          "internalType": "address",
          "name": "",
          "type": "address"
        }
      ],
      "stateMutability": "view",
      "type": "function"
    },
    {
      "inputs": [],
      "name": "proxiableUUID",
      "outputs": [
        {
          "internalType": "bytes32",
          "name": "",
          "type": "bytes32"
        }
      ],
      "stateMutability": "view",
      "type": "function"
    },
    {
      "inputs": [],
      "name": "renounceOwnership",
      "outputs": [],
      "stateMutability": "nonpayable",
      "type": "function"
    },
    {
      "inputs": [
        {
          "internalType": "uint256",
          "name": "number",
          "type": "uint256"
        }
      ],
      "name": "roundReward",
      "outputs": [
        {
          "internalType": "uint256",
          "name": "",
          "type": "uint256"
        }
      ],
      "stateMutability": "pure",
      "type": "function"
    },
    {
      "inputs": [
        {
          "internalType": "address",
          "name": "userId",
          "type": "address"
        }
      ],
      "name": "sendReward",
      "outputs": [],
      "stateMutability": "nonpayable",
      "type": "function"
    },
    {
      "inputs": [
        {
          "internalType": "uint256",
          "name": "blockTime",
          "type": "uint256"
        }
      ],
      "name": "setBetTimeLock",
      "outputs": [],
      "stateMutability": "nonpayable",
      "type": "function"
    },
    {
      "inputs": [
        {
          "internalType": "uint256",
          "name": "status",
          "type": "uint256"
        }
      ],
      "name": "setGameStatus",
      "outputs": [],
      "stateMutability": "nonpayable",
      "type": "function"
    },
    {
      "inputs": [
        {
          "internalType": "uint16",
          "name": "clanId",
          "type": "uint16"
        }
      ],
      "name": "setVictoryClanId",
      "outputs": [],
      "stateMutability": "nonpayable",
      "type": "function"
    },
    {
      "inputs": [
        {
          "internalType": "address",
          "name": "newOwner",
          "type": "address"
        }
      ],
      "name": "transferOwnership",
      "outputs": [],
      "stateMutability": "nonpayable",
      "type": "function"
    },
    {
      "inputs": [
        {
          "internalType": "address",
          "name": "newImplementation",
          "type": "address"
        }
      ],
      "name": "upgradeTo",
      "outputs": [],
      "stateMutability": "nonpayable",
      "type": "function"
    },
    {
      "inputs": [
        {
          "internalType": "address",
          "name": "newImplementation",
          "type": "address"
        },
        {
          "internalType": "bytes",
          "name": "data",
          "type": "bytes"
        }
      ],
      "name": "upgradeToAndCall",
      "outputs": [],
      "stateMutability": "payable",
      "type": "function"
    },
    {
      "inputs": [],
      "name": "withdrawForDevelopTeamByOwner",
      "outputs": [],
      "stateMutability": "nonpayable",
      "type": "function"
    },
    {
      "inputs": [],
      "name": "withdrawTokenByOwner",
      "outputs": [],
      "stateMutability": "nonpayable",
      "type": "function"
    }
  ],
  "bytecode": "0x60a06040523073ffffffffffffffffffffffffffffffffffffffff1660809073ffffffffffffffffffffffffffffffffffffffff1660601b8152503480156200004757600080fd5b50620000586200005e60201b60201c565b62000209565b600060019054906101000a900460ff1615620000b1576040517f08c379a0000000000000000000000000000000000000000000000000000000008152600401620000a8906200015d565b60405180910390fd5b60ff801660008054906101000a900460ff1660ff161015620001235760ff6000806101000a81548160ff021916908360ff1602179055507f7f26b83ff96e1f2b6a682f133852f6798a09c465da95921460cefb384740249860ff6040516200011a91906200017f565b60405180910390a15b565b6000620001346027836200019c565b91506200014182620001ba565b604082019050919050565b6200015781620001ad565b82525050565b60006020820190508181036000830152620001788162000125565b9050919050565b60006020820190506200019660008301846200014c565b92915050565b600082825260208201905092915050565b600060ff82169050919050565b7f496e697469616c697a61626c653a20636f6e747261637420697320696e69746960008201527f616c697a696e6700000000000000000000000000000000000000000000000000602082015250565b60805160601c615e0162000244600039600081816111f701528181611286015281816117f70152818161188601526119360152615e016000f3fe6080604052600436106102675760003560e01c80637f11629111610144578063b737e899116100b6578063d82e39621161007a578063d82e3962146108d8578063e710e0a114610915578063f2fde38b14610940578063f623853214610969578063f81fc230146109a6578063f8fb1d0f146109d157610267565b8063b737e89914610833578063b88a802f1461085e578063bebcf6eb14610868578063c1dc499114610884578063d4dccb2f146108ad57610267565b80638898971a116101085780638898971a146107215780638ce1a4831461075e5780638da5cb5b146107895780639336640f146107b45780639dabff25146107df578063b4983a7e1461080857610267565b80637f1162911461062557806380553a2714610663578063844e92d21461068e57806384d47d0a146106cb57806385d5ace9146106f657610267565b8063382396ee116101dd57806352d1902d116101a157806352d1902d1461052657806358e9116a1461055157806367039b681461058f5780636f77926b146105a65780636f9fb98a146105e3578063715018a61461060e57610267565b8063382396ee1461043a578063398656e4146104655780634571c6821461049057806345982a66146104cd5780634f1ef2861461050a57610267565b8063248e96c31161022f578063248e96c3146103425780632546e7e01461036b57806328f6ccdf14610394578063325388ca146103bd57806335d13b59146103e65780633659cfe61461041157610267565b80630522cca81461026c57806306fdde031461029757806312c0aeb9146102c257806318b11ac1146102d957806318e2cb7614610304575b600080fd5b34801561027857600080fd5b506102816109fc565b60405161028e9190614f98565b60405180910390f35b3480156102a357600080fd5b506102ac610a01565b6040516102b99190614c24565b60405180910390f35b3480156102ce57600080fd5b506102d7610a93565b005b3480156102e557600080fd5b506102ee610b90565b6040516102fb9190614f98565b60405180910390f35b34801561031057600080fd5b5061032b6004803603810190610326919061406d565b610b95565b604051610339929190614b7a565b60405180910390f35b34801561034e57600080fd5b50610369600480360381019061036491906142d8565b610d5c565b005b34801561037757600080fd5b50610392600480360381019061038d9190614229565b610da9565b005b3480156103a057600080fd5b506103bb60048036038101906103b6919061412d565b610df1565b005b3480156103c957600080fd5b506103e460048036038101906103df91906141fc565b6111b9565b005b3480156103f257600080fd5b506103fb6111ea565b6040516104089190614f98565b60405180910390f35b34801561041d57600080fd5b5061043860048036038101906104339190613fe4565b6111f5565b005b34801561044657600080fd5b5061044f61137e565b60405161045c9190614f98565b60405180910390f35b34801561047157600080fd5b5061047a611389565b6040516104879190614bcc565b60405180910390f35b34801561049c57600080fd5b506104b760048036038101906104b291906141fc565b6113e2565b6040516104c49190614b58565b60405180910390f35b3480156104d957600080fd5b506104f460048036038101906104ef9190614305565b61141d565b6040516105019190614baa565b60405180910390f35b610524600480360381019061051f9190614011565b6117f5565b005b34801561053257600080fd5b5061053b611932565b6040516105489190614bee565b60405180910390f35b34801561055d57600080fd5b5061057860048036038101906105739190614305565b6119eb565b604051610586929190615006565b60405180910390f35b34801561059b57600080fd5b506105a4611a6b565b005b3480156105b257600080fd5b506105cd60048036038101906105c89190613fe4565b611bc8565b6040516105da9190614f46565b60405180910390f35b3480156105ef57600080fd5b506105f8611d39565b6040516106059190614f98565b60405180910390f35b34801561061a57600080fd5b50610623611d41565b005b34801561063157600080fd5b5061064c600480360381019061064791906140ad565b611d55565b60405161065a929190614b7a565b60405180910390f35b34801561066f57600080fd5b5061067861212d565b6040516106859190614f98565b60405180910390f35b34801561069a57600080fd5b506106b560048036038101906106b09190614285565b612132565b6040516106c29190614f98565b60405180910390f35b3480156106d757600080fd5b506106e06121da565b6040516106ed9190614f98565b60405180910390f35b34801561070257600080fd5b5061070b6121df565b6040516107189190614f98565b60405180910390f35b34801561072d57600080fd5b5061074860048036038101906107439190614305565b6121f2565b6040516107559190614b58565b60405180910390f35b34801561076a57600080fd5b5061077361242d565b6040516107809190614f98565b60405180910390f35b34801561079557600080fd5b5061079e612432565b6040516107ab9190614b1b565b60405180910390f35b3480156107c057600080fd5b506107c961245c565b6040516107d69190614f98565b60405180910390f35b3480156107eb57600080fd5b5061080660048036038101906108019190613fe4565b612461565b005b34801561081457600080fd5b5061081d61252b565b60405161082a9190614f98565b60405180910390f35b34801561083f57600080fd5b50610848612536565b6040516108559190614b36565b60405180910390f35b610866612706565b005b610882600480360381019061087d91906141fc565b612822565b005b34801561089057600080fd5b506108ab60048036038101906108a691906142d8565b612c0b565b005b3480156108b957600080fd5b506108c2612c1e565b6040516108cf9190614f98565b60405180910390f35b3480156108e457600080fd5b506108ff60048036038101906108fa9190613fe4565b612c23565b60405161090c9190614f98565b60405180910390f35b34801561092157600080fd5b5061092a612cbc565b6040516109379190614f98565b60405180910390f35b34801561094c57600080fd5b5061096760048036038101906109629190613fe4565b612cc1565b005b34801561097557600080fd5b50610990600480360381019061098b91906142d8565b612d45565b60405161099d9190614f98565b60405180910390f35b3480156109b257600080fd5b506109bb612d83565b6040516109c89190614f98565b60405180910390f35b3480156109dd57600080fd5b506109e6612d90565b6040516109f39190614f98565b60405180910390f35b600281565b606060fb8054610a109061558e565b80601f0160208091040260200160405190810160405280929190818152602001828054610a3c9061558e565b8015610a895780601f10610a5e57610100808354040283529160200191610a89565b820191906000526020600020905b815481529060010190602001808311610a6c57829003601f168201915b5050505050905090565b610a9b612d9e565b60004711610ade576040517f08c379a0000000000000000000000000000000000000000000000000000000008152600401610ad590614ea6565b60405180910390fd5b60056101005414610b24576040517f08c379a0000000000000000000000000000000000000000000000000000000008152600401610b1b90614c66565b60405180910390fd5b61010860009054906101000a900473ffffffffffffffffffffffffffffffffffffffff1673ffffffffffffffffffffffffffffffffffffffff166108fc479081150290604051600060405180830381858888f19350505050158015610b8d573d6000803e3d6000fd5b50565b600181565b606060008073ffffffffffffffffffffffffffffffffffffffff1660fd60008673ffffffffffffffffffffffffffffffffffffffff1673ffffffffffffffffffffffffffffffffffffffff16815260200190815260200160002060000160009054906101000a900473ffffffffffffffffffffffffffffffffffffffff1673ffffffffffffffffffffffffffffffffffffffff161480610c7a5750600060fd60008673ffffffffffffffffffffffffffffffffffffffff1673ffffffffffffffffffffffffffffffffffffffff16815260200190815260200160002060040180549050145b15610cdf57600067ffffffffffffffff811115610c9a57610c99615721565b5b604051908082528060200260200182016040528015610cd357816020015b610cc0613b25565b815260200190600190039081610cb85790505b50600091509150610d55565b600060fd60008673ffffffffffffffffffffffffffffffffffffffff1673ffffffffffffffffffffffffffffffffffffffff168152602001908152602001600020600401805490509050600080610d3a838761ffff16612e1c565b8092508193505050610d4d878285611d55565b945094505050505b9250929050565b610d64612d9e565b80610101819055507f6ba51831536f6b7c648d17a6229549388a106c30c0eb07db38f37da037e96fcc61010154604051610d9e9190614f98565b60405180910390a150565b610db1612d9e565b610dba82612e44565b8060fc60008461ffff1661ffff1681526020019081526020016000206001019080519060200190610dec929190613b6e565b505050565b60008060019054906101000a900460ff16159050808015610e225750600160008054906101000a900460ff1660ff16105b80610e4f5750610e3130612eba565b158015610e4e5750600160008054906101000a900460ff1660ff16145b5b610e8e576040517f08c379a0000000000000000000000000000000000000000000000000000000008152600401610e8590614da6565b60405180910390fd5b60016000806101000a81548160ff021916908360ff1602179055508015610ecb576001600060016101000a81548160ff0219169083151502179055505b600073ffffffffffffffffffffffffffffffffffffffff168373ffffffffffffffffffffffffffffffffffffffff161415610f3b576040517f08c379a0000000000000000000000000000000000000000000000000000000008152600401610f3290614f06565b60405180910390fd5b610f43612edd565b610f4b612f36565b610f53612f8f565b8560fb9080519060200190610f69929190613b6e565b50600080600090505b86518161ffff1610156110f457868161ffff1681518110610f9657610f956156f2565b5b602002602001015160000151915060008261ffff1611610feb576040517f08c379a0000000000000000000000000000000000000000000000000000000008152600401610fe290614d46565b60405180910390fd5b6101038290806001815401808255809150506001900390600052602060002090601091828204019190066002029091909190916101000a81548161ffff021916908361ffff160217905550868161ffff168151811061104d5761104c6156f2565b5b602002602001015160fc60008461ffff1661ffff16815260200190815260200160002060008201518160000160006101000a81548161ffff021916908361ffff16021790555060208201518160010190805190602001906110af929190613b6e565b5060408201518160020155905050600060fc60008461ffff1661ffff1681526020019081526020016000206002018190555080806110ec906155f1565b915050610f72565b5084610105908051906020019061110c929190613bf4565b508361010860006101000a81548173ffffffffffffffffffffffffffffffffffffffff021916908373ffffffffffffffffffffffffffffffffffffffff16021790555082610101819055505080156111b15760008060016101000a81548160ff0219169083151502179055507f7f26b83ff96e1f2b6a682f133852f6798a09c465da95921460cefb384740249860016040516111a89190614c09565b60405180910390a15b505050505050565b6111c1612d9e565b8060ff60006101000a81548161ffff021916908361ffff16021790555060046101008190555050565b600061010754905090565b7f000000000000000000000000000000000000000000000000000000000000000073ffffffffffffffffffffffffffffffffffffffff163073ffffffffffffffffffffffffffffffffffffffff161415611284576040517f08c379a000000000000000000000000000000000000000000000000000000000815260040161127b90614c86565b60405180910390fd5b7f000000000000000000000000000000000000000000000000000000000000000073ffffffffffffffffffffffffffffffffffffffff166112c3612fe0565b73ffffffffffffffffffffffffffffffffffffffff1614611319576040517f08c379a000000000000000000000000000000000000000000000000000000000815260040161131090614cc6565b60405180910390fd5b61132281613037565b61137b81600067ffffffffffffffff81111561134157611340615721565b5b6040519080825280601f01601f1916602001820160405280156113735781602001600182028036833780820191505090505b506000613042565b50565b600061010054905090565b60606101058054806020026020016040519081016040528092919081815260200182805480156113d857602002820191906000526020600020905b8154815260200190600101908083116113c4575b5050505050905090565b606060006113ee612d83565b9050600080611401838661ffff16612e1c565b809250819350505061141381846121f2565b9350505050919050565b60606000611429612d90565b905060008060008060009050611440856001612e1c565b809350819550505081871115611454578196505b868811806114625750600085145b156114c857600067ffffffffffffffff81111561148257611481615721565b5b6040519080825280602002602001820160405280156114bb57816020015b6114a8613c41565b8152602001906001900390816114a05790505b50955050505050506117ef565b600188886114d69190615487565b6114e09190615235565b925060008367ffffffffffffffff8111156114fe576114fd615721565b5b60405190808252806020026020018201604052801561153757816020015b611524613c41565b81526020019060019003908161151c5790505b50905060008990505b8881116117e457604051806080016040528060fd6000610104858154811061156b5761156a6156f2565b5b9060005260206000200160009054906101000a900473ffffffffffffffffffffffffffffffffffffffff1673ffffffffffffffffffffffffffffffffffffffff1673ffffffffffffffffffffffffffffffffffffffff16815260200190815260200160002060000160009054906101000a900473ffffffffffffffffffffffffffffffffffffffff1673ffffffffffffffffffffffffffffffffffffffff16815260200160fd60006101048581548110611628576116276156f2565b5b9060005260206000200160009054906101000a900473ffffffffffffffffffffffffffffffffffffffff1673ffffffffffffffffffffffffffffffffffffffff1673ffffffffffffffffffffffffffffffffffffffff16815260200190815260200160002060020154815260200160fd600061010485815481106116af576116ae6156f2565b5b9060005260206000200160009054906101000a900473ffffffffffffffffffffffffffffffffffffffff1673ffffffffffffffffffffffffffffffffffffffff1673ffffffffffffffffffffffffffffffffffffffff16815260200190815260200160002060030154815260200160fd60006101048581548110611736576117356156f2565b5b9060005260206000200160009054906101000a900473ffffffffffffffffffffffffffffffffffffffff1673ffffffffffffffffffffffffffffffffffffffff1673ffffffffffffffffffffffffffffffffffffffff168152602001908152602001600020600401805490508152508284815181106117b8576117b76156f2565b5b602002602001018190525082806117ce9061561c565b93505080806117dc9061561c565b915050611540565b508096505050505050505b92915050565b7f000000000000000000000000000000000000000000000000000000000000000073ffffffffffffffffffffffffffffffffffffffff163073ffffffffffffffffffffffffffffffffffffffff161415611884576040517f08c379a000000000000000000000000000000000000000000000000000000000815260040161187b90614c86565b60405180910390fd5b7f000000000000000000000000000000000000000000000000000000000000000073ffffffffffffffffffffffffffffffffffffffff166118c3612fe0565b73ffffffffffffffffffffffffffffffffffffffff1614611919576040517f08c379a000000000000000000000000000000000000000000000000000000000815260040161191090614cc6565b60405180910390fd5b61192282613037565b61192e82826001613042565b5050565b60007f000000000000000000000000000000000000000000000000000000000000000073ffffffffffffffffffffffffffffffffffffffff163073ffffffffffffffffffffffffffffffffffffffff16146119c2576040517f08c379a00000000000000000000000000000000000000000000000000000000081526004016119b990614d06565b60405180910390fd5b7f360894a13ba1a3210667c828492db98dca3e2076cc3735a920a3ca505d382bbc60001b905090565b6000806000600560126119fe9190615487565b600a611a0a919061530f565b905060008186611a1a919061528b565b905060008286611a2a919061528b565b905060006005600a611a3c919061530f565b90506000828483611a4d919061542d565b611a57919061528b565b905080829650965050505050509250929050565b611a73612d9e565b611a7b6131bf565b6000611a8961010654613215565b905060008111611ace576040517f08c379a0000000000000000000000000000000000000000000000000000000008152600401611ac590614ce6565b60405180910390fd5b6000151561010260009054906101000a900460ff16151514611b25576040517f08c379a0000000000000000000000000000000000000000000000000000000008152600401611b1c90614d26565b60405180910390fd5b600161010260006101000a81548160ff021916908315150217905550806101076000828254611b549190615235565b9250508190555061010860009054906101000a900473ffffffffffffffffffffffffffffffffffffffff1673ffffffffffffffffffffffffffffffffffffffff166108fc829081150290604051600060405180830381858888f19350505050158015611bc4573d6000803e3d6000fd5b5050565b611bd0613c41565b604051806080016040528060fd60008573ffffffffffffffffffffffffffffffffffffffff1673ffffffffffffffffffffffffffffffffffffffff16815260200190815260200160002060000160009054906101000a900473ffffffffffffffffffffffffffffffffffffffff1673ffffffffffffffffffffffffffffffffffffffff16815260200160fd60008573ffffffffffffffffffffffffffffffffffffffff1673ffffffffffffffffffffffffffffffffffffffff16815260200190815260200160002060020154815260200160fd60008573ffffffffffffffffffffffffffffffffffffffff1673ffffffffffffffffffffffffffffffffffffffff16815260200190815260200160002060030154815260200160fd60008573ffffffffffffffffffffffffffffffffffffffff1673ffffffffffffffffffffffffffffffffffffffff168152602001908152602001600020600401805490508152509050919050565b600047905090565b611d49612d9e565b611d536000613237565b565b606060008073ffffffffffffffffffffffffffffffffffffffff1660fd60008773ffffffffffffffffffffffffffffffffffffffff1673ffffffffffffffffffffffffffffffffffffffff16815260200190815260200160002060000160009054906101000a900473ffffffffffffffffffffffffffffffffffffffff1673ffffffffffffffffffffffffffffffffffffffff161415611e4f57600067ffffffffffffffff811115611e0a57611e09615721565b5b604051908082528060200260200182016040528015611e4357816020015b611e30613b25565b815260200190600190039081611e285790505b50600091509150612125565b60008060008060009050600060fd60008b73ffffffffffffffffffffffffffffffffffffffff1673ffffffffffffffffffffffffffffffffffffffff168152602001908152602001600020600401805490509050611eae816001612e1c565b809450819650505082881115611ec2578297505b87891180611ed05750600081145b15611f3a57600067ffffffffffffffff811115611ef057611eef615721565b5b604051908082528060200260200182016040528015611f2957816020015b611f16613b25565b815260200190600190039081611f0e5790505b506000965096505050505050612125565b60018989611f489190615487565b611f529190615235565b935060008467ffffffffffffffff811115611f7057611f6f615721565b5b604051908082528060200260200182016040528015611fa957816020015b611f96613b25565b815260200190600190039081611f8e5790505b50905060008a90505b8981116121175760fe60fd60008e73ffffffffffffffffffffffffffffffffffffffff1673ffffffffffffffffffffffffffffffffffffffff168152602001908152602001600020600401828154811061200f5761200e6156f2565b5b90600052602060002001548154811061202b5761202a6156f2565b5b90600052602060002090600402016040518060a0016040529081600082015481526020016001820160009054906101000a900473ffffffffffffffffffffffffffffffffffffffff1673ffffffffffffffffffffffffffffffffffffffff1673ffffffffffffffffffffffffffffffffffffffff1681526020016001820160149054906101000a900461ffff1661ffff1661ffff168152602001600282015481526020016003820154815250508285815181106120eb576120ea6156f2565b5b602002602001018190525083806121019061561c565b945050808061210f9061561c565b915050611fb2565b508082975097505050505050505b935093915050565b600381565b600061213d84612e44565b600061214b610106546132fd565b9050600060fc60008761ffff1661ffff1681526020019081526020016000206002015490508361219d5761218c85610106546121879190615235565b6132fd565b9150848161219a9190615235565b90505b6000806121aa87846119eb565b915091506121cd8183866121be919061542d565b6121c8919061528b565b612d45565b9450505050509392505050565b600081565b60006121ed61010654613215565b905090565b606060006121fe612d83565b905060008060008060009050612215856001612e1c565b809350819550505081871115612229578196505b868811806122375750600085145b1561229d57600067ffffffffffffffff81111561225757612256615721565b5b60405190808252806020026020018201604052801561229057816020015b61227d613b25565b8152602001906001900390816122755790505b5095505050505050612427565b600188886122ab9190615487565b6122b59190615235565b925060008367ffffffffffffffff8111156122d3576122d2615721565b5b60405190808252806020026020018201604052801561230c57816020015b6122f9613b25565b8152602001906001900390816122f15790505b50905060008990505b88811161241c5760fe81815481106123305761232f6156f2565b5b90600052602060002090600402016040518060a0016040529081600082015481526020016001820160009054906101000a900473ffffffffffffffffffffffffffffffffffffffff1673ffffffffffffffffffffffffffffffffffffffff1673ffffffffffffffffffffffffffffffffffffffff1681526020016001820160149054906101000a900461ffff1661ffff1661ffff168152602001600282015481526020016003820154815250508284815181106123f0576123ef6156f2565b5b602002602001018190525082806124069061561c565b93505080806124149061561c565b915050612315565b508096505050505050505b92915050565b600581565b6000606560009054906101000a900473ffffffffffffffffffffffffffffffffffffffff16905090565b600581565b612469612d9e565b6124728161331a565b600061247d82612c23565b90508060fd60008473ffffffffffffffffffffffffffffffffffffffff1673ffffffffffffffffffffffffffffffffffffffff168152602001908152602001600020600301819055508061010760008282546124d99190615235565b925050819055508173ffffffffffffffffffffffffffffffffffffffff166108fc829081150290604051600060405180830381858888f19350505050158015612526573d6000803e3d6000fd5b505050565b600061010154905090565b606060006101038054905067ffffffffffffffff81111561255a57612559615721565b5b60405190808252806020026020018201604052801561259357816020015b612580613c7f565b8152602001906001900390816125785790505b50905060005b610103805490508161ffff1610156126fe5760fc60006101038361ffff16815481106125c8576125c76156f2565b5b90600052602060002090601091828204019190066002029054906101000a900461ffff1661ffff1661ffff1681526020019081526020016000206040518060600160405290816000820160009054906101000a900461ffff1661ffff1661ffff16815260200160018201805461263d9061558e565b80601f01602080910402602001604051908101604052809291908181526020018280546126699061558e565b80156126b65780601f1061268b576101008083540402835291602001916126b6565b820191906000526020600020905b81548152906001019060200180831161269957829003601f168201915b50505050508152602001600282015481525050828261ffff16815181106126e0576126df6156f2565b5b602002602001018190525080806126f6906155f1565b915050612599565b508091505090565b6002600154141561274c576040517f08c379a000000000000000000000000000000000000000000000000000000000815260040161274390614f26565b60405180910390fd5b600260018190555060003390506127628161331a565b600061276d82612c23565b90508060fd60008473ffffffffffffffffffffffffffffffffffffffff1673ffffffffffffffffffffffffffffffffffffffff168152602001908152602001600020600301819055508061010760008282546127c99190615235565b925050819055508173ffffffffffffffffffffffffffffffffffffffff166108fc829081150290604051600060405180830381858888f19350505050158015612816573d6000803e3d6000fd5b50505060018081905550565b60026001541415612868576040517f08c379a000000000000000000000000000000000000000000000000000000000815260040161285f90614f26565b60405180910390fd5b60026001819055506000339050600034905061288261340b565b61288b83612e44565b6128948161351b565b60006128a18483856135b1565b9050600073ffffffffffffffffffffffffffffffffffffffff1660fd60008573ffffffffffffffffffffffffffffffffffffffff1673ffffffffffffffffffffffffffffffffffffffff16815260200190815260200160002060000160009054906101000a900473ffffffffffffffffffffffffffffffffffffffff1673ffffffffffffffffffffffffffffffffffffffff161461299e57610104839080600181540180825580915050600190039060005260206000200160009091909190916101000a81548173ffffffffffffffffffffffffffffffffffffffff021916908373ffffffffffffffffffffffffffffffffffffffff1602179055505b8260fd60008573ffffffffffffffffffffffffffffffffffffffff1673ffffffffffffffffffffffffffffffffffffffff16815260200190815260200160002060000160006101000a81548173ffffffffffffffffffffffffffffffffffffffff021916908373ffffffffffffffffffffffffffffffffffffffff16021790555060fd60008473ffffffffffffffffffffffffffffffffffffffff1673ffffffffffffffffffffffffffffffffffffffff1681526020019081526020016000206004018190806001815401808255809150506001900390600052602060002001600090919091909150558160fd60008573ffffffffffffffffffffffffffffffffffffffff1673ffffffffffffffffffffffffffffffffffffffff16815260200190815260200160002060010160008661ffff1661ffff1681526020019081526020016000206000828254612af39190615235565b925050819055508160fd60008573ffffffffffffffffffffffffffffffffffffffff1673ffffffffffffffffffffffffffffffffffffffff1681526020019081526020016000206002016000828254612b4c9190615235565b92505081905550816101066000828254612b669190615235565b925050819055508160fc60008661ffff1661ffff1681526020019081526020016000206002016000828254612b9b9190615235565b925050819055507fb2cbafad0e7f7a64b3692ca68d991891a74046e9b2cad3c49969d629f122ae2f8460fc60008761ffff1661ffff1681526020019081526020016000206002015461010654604051612bf693929190614f61565b60405180910390a15050506001808190555050565b612c13612d9e565b806101008190555050565b600481565b6000612c2e8261331a565b612cb560ff60009054906101000a900461ffff1660fd60008573ffffffffffffffffffffffffffffffffffffffff1673ffffffffffffffffffffffffffffffffffffffff168152602001908152602001600020600101600060ff60009054906101000a900461ffff1661ffff1661ffff168152602001908152602001600020546001612132565b9050919050565b600581565b612cc9612d9e565b600073ffffffffffffffffffffffffffffffffffffffff168173ffffffffffffffffffffffffffffffffffffffff161415612d39576040517f08c379a0000000000000000000000000000000000000000000000000000000008152600401612d3090614c46565b60405180910390fd5b612d4281613237565b50565b60008060056012612d569190615487565b600a612d62919061530f565b9050808184612d71919061528b565b612d7b919061542d565b915050919050565b600060fe80549050905090565b600061010480549050905090565b612da66136fc565b73ffffffffffffffffffffffffffffffffffffffff16612dc4612432565b73ffffffffffffffffffffffffffffffffffffffff1614612e1a576040517f08c379a0000000000000000000000000000000000000000000000000000000008152600401612e1190614e66565b60405180910390fd5b565b60008083831115612e335760008091509150612e3d565b6001838503915091505b9250929050565b600060fc60008361ffff1661ffff16815260200190815260200160002060000160009054906101000a900461ffff1661ffff1611612eb7576040517f08c379a0000000000000000000000000000000000000000000000000000000008152600401612eae90614e26565b60405180910390fd5b50565b6000808273ffffffffffffffffffffffffffffffffffffffff163b119050919050565b600060019054906101000a900460ff16612f2c576040517f08c379a0000000000000000000000000000000000000000000000000000000008152600401612f2390614ee6565b60405180910390fd5b612f34613704565b565b600060019054906101000a900460ff16612f85576040517f08c379a0000000000000000000000000000000000000000000000000000000008152600401612f7c90614ee6565b60405180910390fd5b612f8d61375c565b565b600060019054906101000a900460ff16612fde576040517f08c379a0000000000000000000000000000000000000000000000000000000008152600401612fd590614ee6565b60405180910390fd5b565b600061300e7f360894a13ba1a3210667c828492db98dca3e2076cc3735a920a3ca505d382bbc60001b6137bd565b60000160009054906101000a900473ffffffffffffffffffffffffffffffffffffffff16905090565b61303f612d9e565b50565b61306e7f4910fdfa16fed3260ed0e7147f7cc6da11a60208b5b9406d12a635614ffd914360001b6137c7565b60000160009054906101000a900460ff16156130925761308d836137d1565b6131ba565b8273ffffffffffffffffffffffffffffffffffffffff166352d1902d6040518163ffffffff1660e01b815260040160206040518083038186803b1580156130d857600080fd5b505afa92505050801561310957506040513d601f19601f820116820180604052508101906131069190614100565b60015b613148576040517f08c379a000000000000000000000000000000000000000000000000000000000815260040161313f90614e06565b60405180910390fd5b7f360894a13ba1a3210667c828492db98dca3e2076cc3735a920a3ca505d382bbc60001b81146131ad576040517f08c379a00000000000000000000000000000000000000000000000000000000081526004016131a490614d86565b60405180910390fd5b506131b983838361388a565b5b505050565b60036101005414806131d45750600461010054145b613213576040517f08c379a000000000000000000000000000000000000000000000000000000000815260040161320a90614e86565b60405180910390fd5b565b60006064600583613226919061542d565b613230919061528b565b9050919050565b6000606560009054906101000a900473ffffffffffffffffffffffffffffffffffffffff16905081606560006101000a81548173ffffffffffffffffffffffffffffffffffffffff021916908373ffffffffffffffffffffffffffffffffffffffff1602179055508173ffffffffffffffffffffffffffffffffffffffff168173ffffffffffffffffffffffffffffffffffffffff167f8be0079c531659141344cd1fd0a4f28419497f9722a3daafe3b4186f6b6457e060405160405180910390a35050565b600061330882613215565b826133139190615487565b9050919050565b613323816138b6565b61332b6131bf565b600060ff60009054906101000a900461ffff1661ffff161415613383576040517f08c379a000000000000000000000000000000000000000000000000000000000815260040161337a90614d66565b60405180910390fd5b600060fd60008373ffffffffffffffffffffffffffffffffffffffff1673ffffffffffffffffffffffffffffffffffffffff1681526020019081526020016000206003015414613408576040517f08c379a00000000000000000000000000000000000000000000000000000000081526004016133ff90614ca6565b60405180910390fd5b50565b60006040518060400160405280601781526020017f5468652067616d65206861736e277420737461727465640000000000000000008152509050600361010054141561348a576040518060400160405280601081526020017f5468652067616d65206973206f7665720000000000000000000000000000000081525090505b610101544211156134ce576040518060400160405280600f81526020017f47616d65206c6f636b656420626574000000000000000000000000000000000081525090505b600161010054148190613517576040517f08c379a000000000000000000000000000000000000000000000000000000000815260040161350e9190614c24565b60405180910390fd5b5050565b6000805b6101058054905081101561356c57826101058281548110613543576135426156f2565b5b9060005260206000200154141561355957600191505b80806135649061561c565b91505061351f565b50806135ad576040517f08c379a00000000000000000000000000000000000000000000000000000000081526004016135a490614de6565b60405180910390fd5b5050565b60008060fe80549050905060fe6040518060a001604052808381526020018573ffffffffffffffffffffffffffffffffffffffff1681526020018761ffff1681526020018681526020014281525090806001815401808255809150506001900390600052602060002090600402016000909190919091506000820151816000015560208201518160010160006101000a81548173ffffffffffffffffffffffffffffffffffffffff021916908373ffffffffffffffffffffffffffffffffffffffff16021790555060408201518160010160146101000a81548161ffff021916908361ffff160217905550606082015181600201556080820151816003015550507f873df577f24fe491bbe0da083d0be846b9c2e9a80b002c0c62703d93119e064b81848787426040516136e9959493929190614fb3565b60405180910390a1809150509392505050565b600033905090565b600060019054906101000a900460ff16613753576040517f08c379a000000000000000000000000000000000000000000000000000000000815260040161374a90614ee6565b60405180910390fd5b60018081905550565b600060019054906101000a900460ff166137ab576040517f08c379a00000000000000000000000000000000000000000000000000000000081526004016137a290614ee6565b60405180910390fd5b6137bb6137b66136fc565b613237565b565b6000819050919050565b6000819050919050565b6137da81612eba565b613819576040517f08c379a000000000000000000000000000000000000000000000000000000000815260040161381090614e46565b60405180910390fd5b806138467f360894a13ba1a3210667c828492db98dca3e2076cc3735a920a3ca505d382bbc60001b6137bd565b60000160006101000a81548173ffffffffffffffffffffffffffffffffffffffff021916908373ffffffffffffffffffffffffffffffffffffffff16021790555050565b6138938361398b565b6000825111806138a05750805b156138b1576138af83836139da565b505b505050565b600073ffffffffffffffffffffffffffffffffffffffff1660fd60008373ffffffffffffffffffffffffffffffffffffffff1673ffffffffffffffffffffffffffffffffffffffff16815260200190815260200160002060000160009054906101000a900473ffffffffffffffffffffffffffffffffffffffff1673ffffffffffffffffffffffffffffffffffffffff161415613988576040517f08c379a000000000000000000000000000000000000000000000000000000000815260040161397f90614dc6565b60405180910390fd5b50565b613994816137d1565b8073ffffffffffffffffffffffffffffffffffffffff167fbc7cd75a20ee27fd9adebab32041f755214dbc6bffa90cc0225b39da2e5c2d3b60405160405180910390a250565b60606139e583612eba565b613a24576040517f08c379a0000000000000000000000000000000000000000000000000000000008152600401613a1b90614ec6565b60405180910390fd5b6000808473ffffffffffffffffffffffffffffffffffffffff1684604051613a4c9190614b04565b600060405180830381855af49150503d8060008114613a87576040519150601f19603f3d011682016040523d82523d6000602084013e613a8c565b606091505b5091509150613ab48282604051806060016040528060278152602001615da560279139613abe565b9250505092915050565b60608315613ace57829050613b1e565b600083511115613ae15782518084602001fd5b816040517f08c379a0000000000000000000000000000000000000000000000000000000008152600401613b159190614c24565b60405180910390fd5b9392505050565b6040518060a0016040528060008152602001600073ffffffffffffffffffffffffffffffffffffffff168152602001600061ffff16815260200160008152602001600081525090565b828054613b7a9061558e565b90600052602060002090601f016020900481019282613b9c5760008555613be3565b82601f10613bb557805160ff1916838001178555613be3565b82800160010185558215613be3579182015b82811115613be2578251825591602001919060010190613bc7565b5b509050613bf09190613ca4565b5090565b828054828255906000526020600020908101928215613c30579160200282015b82811115613c2f578251825591602001919060010190613c14565b5b509050613c3d9190613ca4565b5090565b6040518060800160405280600073ffffffffffffffffffffffffffffffffffffffff1681526020016000815260200160008152602001600081525090565b6040518060600160405280600061ffff16815260200160608152602001600081525090565b5b80821115613cbd576000816000905550600101613ca5565b5090565b6000613cd4613ccf84615054565b61502f565b90508083825260208201905082856020860282011115613cf757613cf661575f565b5b60005b85811015613d4557813567ffffffffffffffff811115613d1d57613d1c615750565b5b808601613d2a8982613f3a565b85526020850194506020840193505050600181019050613cfa565b5050509392505050565b6000613d62613d5d84615080565b61502f565b90508083825260208201905082856020860282011115613d8557613d8461575f565b5b60005b85811015613db55781613d9b8882613fcf565b845260208401935060208301925050600181019050613d88565b5050509392505050565b6000613dd2613dcd846150ac565b61502f565b905082815260208101848484011115613dee57613ded615764565b5b613df984828561554c565b509392505050565b6000613e14613e0f846150dd565b61502f565b905082815260208101848484011115613e3057613e2f615764565b5b613e3b84828561554c565b509392505050565b600081359050613e5281615d31565b92915050565b600082601f830112613e6d57613e6c615750565b5b8135613e7d848260208601613cc1565b91505092915050565b600082601f830112613e9b57613e9a615750565b5b8135613eab848260208601613d4f565b91505092915050565b600081359050613ec381615d48565b92915050565b600081519050613ed881615d5f565b92915050565b600082601f830112613ef357613ef2615750565b5b8135613f03848260208601613dbf565b91505092915050565b600082601f830112613f2157613f20615750565b5b8135613f31848260208601613e01565b91505092915050565b600060608284031215613f5057613f4f615755565b5b613f5a606061502f565b90506000613f6a84828501613fba565b600083015250602082013567ffffffffffffffff811115613f8e57613f8d61575a565b5b613f9a84828501613f0c565b6020830152506040613fae84828501613fcf565b60408301525092915050565b600081359050613fc981615d76565b92915050565b600081359050613fde81615d8d565b92915050565b600060208284031215613ffa57613ff961576e565b5b600061400884828501613e43565b91505092915050565b600080604083850312156140285761402761576e565b5b600061403685828601613e43565b925050602083013567ffffffffffffffff81111561405757614056615769565b5b61406385828601613ede565b9150509250929050565b600080604083850312156140845761408361576e565b5b600061409285828601613e43565b92505060206140a385828601613fba565b9150509250929050565b6000806000606084860312156140c6576140c561576e565b5b60006140d486828701613e43565b93505060206140e586828701613fcf565b92505060406140f686828701613fcf565b9150509250925092565b6000602082840312156141165761411561576e565b5b600061412484828501613ec9565b91505092915050565b600080600080600060a086880312156141495761414861576e565b5b600086013567ffffffffffffffff81111561416757614166615769565b5b61417388828901613f0c565b955050602086013567ffffffffffffffff81111561419457614193615769565b5b6141a088828901613e58565b945050604086013567ffffffffffffffff8111156141c1576141c0615769565b5b6141cd88828901613e86565b93505060606141de88828901613e43565b92505060806141ef88828901613fcf565b9150509295509295909350565b6000602082840312156142125761421161576e565b5b600061422084828501613fba565b91505092915050565b600080604083850312156142405761423f61576e565b5b600061424e85828601613fba565b925050602083013567ffffffffffffffff81111561426f5761426e615769565b5b61427b85828601613f0c565b9150509250929050565b60008060006060848603121561429e5761429d61576e565b5b60006142ac86828701613fba565b93505060206142bd86828701613fcf565b92505060406142ce86828701613eb4565b9150509250925092565b6000602082840312156142ee576142ed61576e565b5b60006142fc84828501613fcf565b91505092915050565b6000806040838503121561431c5761431b61576e565b5b600061432a85828601613fcf565b925050602061433b85828601613fcf565b9150509250929050565b60006143518383614957565b905092915050565b600061436583836149a7565b60a08301905092915050565b600061437d8383614a0f565b60808301905092915050565b60006143958383614ae6565b60208301905092915050565b6143aa816154bb565b82525050565b6143b9816154bb565b82525050565b60006143ca8261514e565b6143d481856151c4565b9350836020820285016143e68561510e565b8060005b8581101561442257848403895281516144038582614345565b945061440e83615190565b925060208a019950506001810190506143ea565b50829750879550505050505092915050565b600061443f82615159565b61444981856151d5565b93506144548361511e565b8060005b8381101561448557815161446c8882614359565b97506144778361519d565b925050600181019050614458565b5085935050505092915050565b600061449d82615164565b6144a781856151e6565b93506144b28361512e565b8060005b838110156144e35781516144ca8882614371565b97506144d5836151aa565b9250506001810190506144b6565b5085935050505092915050565b60006144fb8261516f565b61450581856151f7565b93506145108361513e565b8060005b838110156145415781516145288882614389565b9750614533836151b7565b925050600181019050614514565b5085935050505092915050565b614557816154d9565b82525050565b60006145688261517a565b6145728185615208565b935061458281856020860161555b565b80840191505092915050565b61459781615528565b82525050565b60006145a882615185565b6145b28185615213565b93506145c281856020860161555b565b6145cb81615773565b840191505092915050565b60006145e182615185565b6145eb8185615224565b93506145fb81856020860161555b565b61460481615773565b840191505092915050565b600061461c602683615224565b915061462782615791565b604082019050919050565b600061463f601b83615224565b915061464a826157e0565b602082019050919050565b6000614662602c83615224565b915061466d82615809565b604082019050919050565b6000614685601883615224565b915061469082615858565b602082019050919050565b60006146a8602c83615224565b91506146b382615881565b604082019050919050565b60006146cb601c83615224565b91506146d6826158d0565b602082019050919050565b60006146ee603883615224565b91506146f9826158f9565b604082019050919050565b6000614711602283615224565b915061471c82615948565b604082019050919050565b6000614734601d83615224565b915061473f82615997565b602082019050919050565b6000614757602c83615224565b9150614762826159c0565b604082019050919050565b600061477a602983615224565b915061478582615a0f565b604082019050919050565b600061479d602e83615224565b91506147a882615a5e565b604082019050919050565b60006147c0600e83615224565b91506147cb82615aad565b602082019050919050565b60006147e3601a83615224565b91506147ee82615ad6565b602082019050919050565b6000614806602e83615224565b915061481182615aff565b604082019050919050565b6000614829601883615224565b915061483482615b4e565b602082019050919050565b600061484c602d83615224565b915061485782615b77565b604082019050919050565b600061486f602083615224565b915061487a82615bc6565b602082019050919050565b6000614892601483615224565b915061489d82615bef565b602082019050919050565b60006148b5601a83615224565b91506148c082615c18565b602082019050919050565b60006148d8602683615224565b91506148e382615c41565b604082019050919050565b60006148fb602b83615224565b915061490682615c90565b604082019050919050565b600061491e601a83615224565b915061492982615cdf565b602082019050919050565b6000614941601f83615224565b915061494c82615d08565b602082019050919050565b600060608301600083015161496f6000860182614ab9565b5060208301518482036020860152614987828261459d565b915050604083015161499c6040860182614ae6565b508091505092915050565b60a0820160008201516149bd6000850182614ae6565b5060208201516149d060208501826143a1565b5060408201516149e36040850182614ab9565b5060608201516149f66060850182614ae6565b506080820151614a096080850182614ae6565b50505050565b608082016000820151614a2560008501826143a1565b506020820151614a386020850182614ae6565b506040820151614a4b6040850182614ae6565b506060820151614a5e6060850182614ae6565b50505050565b608082016000820151614a7a60008501826143a1565b506020820151614a8d6020850182614ae6565b506040820151614aa06040850182614ae6565b506060820151614ab36060850182614ae6565b50505050565b614ac2816154e3565b82525050565b614ad1816154e3565b82525050565b614ae08161553a565b82525050565b614aef81615511565b82525050565b614afe81615511565b82525050565b6000614b10828461455d565b915081905092915050565b6000602082019050614b3060008301846143b0565b92915050565b60006020820190508181036000830152614b5081846143bf565b905092915050565b60006020820190508181036000830152614b728184614434565b905092915050565b60006040820190508181036000830152614b948185614434565b9050614ba36020830184614af5565b9392505050565b60006020820190508181036000830152614bc48184614492565b905092915050565b60006020820190508181036000830152614be681846144f0565b905092915050565b6000602082019050614c03600083018461454e565b92915050565b6000602082019050614c1e600083018461458e565b92915050565b60006020820190508181036000830152614c3e81846145d6565b905092915050565b60006020820190508181036000830152614c5f8161460f565b9050919050565b60006020820190508181036000830152614c7f81614632565b9050919050565b60006020820190508181036000830152614c9f81614655565b9050919050565b60006020820190508181036000830152614cbf81614678565b9050919050565b60006020820190508181036000830152614cdf8161469b565b9050919050565b60006020820190508181036000830152614cff816146be565b9050919050565b60006020820190508181036000830152614d1f816146e1565b9050919050565b60006020820190508181036000830152614d3f81614704565b9050919050565b60006020820190508181036000830152614d5f81614727565b9050919050565b60006020820190508181036000830152614d7f8161474a565b9050919050565b60006020820190508181036000830152614d9f8161476d565b9050919050565b60006020820190508181036000830152614dbf81614790565b9050919050565b60006020820190508181036000830152614ddf816147b3565b9050919050565b60006020820190508181036000830152614dff816147d6565b9050919050565b60006020820190508181036000830152614e1f816147f9565b9050919050565b60006020820190508181036000830152614e3f8161481c565b9050919050565b60006020820190508181036000830152614e5f8161483f565b9050919050565b60006020820190508181036000830152614e7f81614862565b9050919050565b60006020820190508181036000830152614e9f81614885565b9050919050565b60006020820190508181036000830152614ebf816148a8565b9050919050565b60006020820190508181036000830152614edf816148cb565b9050919050565b60006020820190508181036000830152614eff816148ee565b9050919050565b60006020820190508181036000830152614f1f81614911565b9050919050565b60006020820190508181036000830152614f3f81614934565b9050919050565b6000608082019050614f5b6000830184614a64565b92915050565b6000606082019050614f766000830186614ad7565b614f836020830185614af5565b614f906040830184614af5565b949350505050565b6000602082019050614fad6000830184614af5565b92915050565b600060a082019050614fc86000830188614af5565b614fd560208301876143b0565b614fe26040830186614ac8565b614fef6060830185614af5565b614ffc6080830184614af5565b9695505050505050565b600060408201905061501b6000830185614af5565b6150286020830184614af5565b9392505050565b600061503961504a565b905061504582826155c0565b919050565b6000604051905090565b600067ffffffffffffffff82111561506f5761506e615721565b5b602082029050602081019050919050565b600067ffffffffffffffff82111561509b5761509a615721565b5b602082029050602081019050919050565b600067ffffffffffffffff8211156150c7576150c6615721565b5b6150d082615773565b9050602081019050919050565b600067ffffffffffffffff8211156150f8576150f7615721565b5b61510182615773565b9050602081019050919050565b6000819050602082019050919050565b6000819050602082019050919050565b6000819050602082019050919050565b6000819050602082019050919050565b600081519050919050565b600081519050919050565b600081519050919050565b600081519050919050565b600081519050919050565b600081519050919050565b6000602082019050919050565b6000602082019050919050565b6000602082019050919050565b6000602082019050919050565b600082825260208201905092915050565b600082825260208201905092915050565b600082825260208201905092915050565b600082825260208201905092915050565b600081905092915050565b600082825260208201905092915050565b600082825260208201905092915050565b600061524082615511565b915061524b83615511565b9250827fffffffffffffffffffffffffffffffffffffffffffffffffffffffffffffffff038211156152805761527f615665565b5b828201905092915050565b600061529682615511565b91506152a183615511565b9250826152b1576152b0615694565b5b828204905092915050565b6000808291508390505b6001851115615306578086048111156152e2576152e1615665565b5b60018516156152f15780820291505b80810290506152ff85615784565b94506152c6565b94509492505050565b600061531a82615511565b915061532583615511565b92506153527fffffffffffffffffffffffffffffffffffffffffffffffffffffffffffffffff848461535a565b905092915050565b60008261536a5760019050615426565b816153785760009050615426565b816001811461538e5760028114615398576153c7565b6001915050615426565b60ff8411156153aa576153a9615665565b5b8360020a9150848211156153c1576153c0615665565b5b50615426565b5060208310610133831016604e8410600b84101617156153fc5782820a9050838111156153f7576153f6615665565b5b615426565b61540984848460016152bc565b925090508184048111156154205761541f615665565b5b81810290505b9392505050565b600061543882615511565b915061544383615511565b9250817fffffffffffffffffffffffffffffffffffffffffffffffffffffffffffffffff048311821515161561547c5761547b615665565b5b828202905092915050565b600061549282615511565b915061549d83615511565b9250828210156154b0576154af615665565b5b828203905092915050565b60006154c6826154f1565b9050919050565b60008115159050919050565b6000819050919050565b600061ffff82169050919050565b600073ffffffffffffffffffffffffffffffffffffffff82169050919050565b6000819050919050565b600060ff82169050919050565b60006155338261551b565b9050919050565b6000615545826154e3565b9050919050565b82818337600083830152505050565b60005b8381101561557957808201518184015260208101905061555e565b83811115615588576000848401525b50505050565b600060028204905060018216806155a657607f821691505b602082108114156155ba576155b96156c3565b5b50919050565b6155c982615773565b810181811067ffffffffffffffff821117156155e8576155e7615721565b5b80604052505050565b60006155fc826154e3565b915061ffff82141561561157615610615665565b5b600182019050919050565b600061562782615511565b91507fffffffffffffffffffffffffffffffffffffffffffffffffffffffffffffffff82141561565a57615659615665565b5b600182019050919050565b7f4e487b7100000000000000000000000000000000000000000000000000000000600052601160045260246000fd5b7f4e487b7100000000000000000000000000000000000000000000000000000000600052601260045260246000fd5b7f4e487b7100000000000000000000000000000000000000000000000000000000600052602260045260246000fd5b7f4e487b7100000000000000000000000000000000000000000000000000000000600052603260045260246000fd5b7f4e487b7100000000000000000000000000000000000000000000000000000000600052604160045260246000fd5b600080fd5b600080fd5b600080fd5b600080fd5b600080fd5b600080fd5b600080fd5b6000601f19601f8301169050919050565b60008160011c9050919050565b7f4f776e61626c653a206e6577206f776e657220697320746865207a65726f206160008201527f6464726573730000000000000000000000000000000000000000000000000000602082015250565b7f5769746864726177616c7320617265206e6f7420616c6c6f7765640000000000600082015250565b7f46756e6374696f6e206d7573742062652063616c6c6564207468726f7567682060008201527f64656c656761746563616c6c0000000000000000000000000000000000000000602082015250565b7f5573657220726563656976656420746865207265776172640000000000000000600082015250565b7f46756e6374696f6e206d7573742062652063616c6c6564207468726f7567682060008201527f6163746976652070726f78790000000000000000000000000000000000000000602082015250565b7f446576656c6f706d656e7420726577617264206973203020474c4d5200000000600082015250565b7f555550535570677261646561626c653a206d757374206e6f742062652063616c60008201527f6c6564207468726f7567682064656c656761746563616c6c0000000000000000602082015250565b7f54686520646576656c6f706d656e74207465616d20686173207769746864726160008201527f776e000000000000000000000000000000000000000000000000000000000000602082015250565b7f436c616e4964206d7573742062652067726561746572207468616e2030000000600082015250565b7f486176656e277420736574207468652077696e6e696e6720636c616e20696e2060008201527f74686520636f6e74726163740000000000000000000000000000000000000000602082015250565b7f45524331393637557067726164653a20756e737570706f727465642070726f7860008201527f6961626c65555549440000000000000000000000000000000000000000000000602082015250565b7f496e697469616c697a61626c653a20636f6e747261637420697320616c72656160008201527f647920696e697469616c697a6564000000000000000000000000000000000000602082015250565b7f55736572206e6f7420666f756e64000000000000000000000000000000000000600082015250565b7f4465706f736974732076616c756520697320696e76616c69642e000000000000600082015250565b7f45524331393637557067726164653a206e657720696d706c656d656e7461746960008201527f6f6e206973206e6f742055555053000000000000000000000000000000000000602082015250565b7f54686520636c616e20646f6573206e6f742065786973742e0000000000000000600082015250565b7f455243313936373a206e657720696d706c656d656e746174696f6e206973206e60008201527f6f74206120636f6e747261637400000000000000000000000000000000000000602082015250565b7f4f776e61626c653a2063616c6c6572206973206e6f7420746865206f776e6572600082015250565b7f5468652067616d65206973206e6f74206f766572000000000000000000000000600082015250565b7f436f6e74726163742062616c616e6365206973203020474c4d52000000000000600082015250565b7f416464726573733a2064656c65676174652063616c6c20746f206e6f6e2d636f60008201527f6e74726163740000000000000000000000000000000000000000000000000000602082015250565b7f496e697469616c697a61626c653a20636f6e7472616374206973206e6f74206960008201527f6e697469616c697a696e67000000000000000000000000000000000000000000602082015250565b7f77616c6c657420697320746865207a65726f2061646472657373000000000000600082015250565b7f5265656e7472616e637947756172643a207265656e7472616e742063616c6c00600082015250565b615d3a816154bb565b8114615d4557600080fd5b50565b615d51816154cd565b8114615d5c57600080fd5b50565b615d68816154d9565b8114615d7357600080fd5b50565b615d7f816154e3565b8114615d8a57600080fd5b50565b615d9681615511565b8114615da157600080fd5b5056fe416464726573733a206c6f772d6c6576656c2064656c65676174652063616c6c206661696c6564a264697066735822122086e8a48c3e6c78dae1a0fe99e2e1d454bc0523870215fa78351edca8ca5ffcd464736f6c63430008070033",
  "linkReferences": {},
  "deployedLinkReferences": {}
}