{
  "_format": "hh-sol-artifact-1",
  "contractName": "UMoonFitNFTPublicSale",
  "sourceName": "contracts/upgradeables/UMoonFitNFTPublicSale.sol",
  "abi": [
    {
      "inputs": [],
      "stateMutability": "nonpayable",
      "type": "constructor"
    },
    {
      "anonymous": false,
      "inputs": [
        {
          "indexed": false,
          "internalType": "address",
          "name": "previousAdmin",
          "type": "address"
        },
        {
          "indexed": false,
          "internalType": "address",
          "name": "newAdmin",
          "type": "address"
        }
      ],
      "name": "AdminChanged",
      "type": "event"
    },
    {
      "anonymous": false,
      "inputs": [
        {
          "indexed": true,
          "internalType": "address",
          "name": "beacon",
          "type": "address"
        }
      ],
      "name": "BeaconUpgraded",
      "type": "event"
    },
    {
      "anonymous": false,
      "inputs": [
        {
          "indexed": false,
          "internalType": "uint8",
          "name": "version",
          "type": "uint8"
        }
      ],
      "name": "Initialized",
      "type": "event"
    },
    {
      "anonymous": false,
      "inputs": [
        {
          "indexed": false,
          "internalType": "address",
          "name": "beneficiary",
          "type": "address"
        }
      ],
      "name": "NFTPurchased",
      "type": "event"
    },
    {
      "anonymous": false,
      "inputs": [
        {
          "indexed": true,
          "internalType": "address",
          "name": "previousOwner",
          "type": "address"
        },
        {
          "indexed": true,
          "internalType": "address",
          "name": "newOwner",
          "type": "address"
        }
      ],
      "name": "OwnershipTransferred",
      "type": "event"
    },
    {
      "anonymous": false,
      "inputs": [
        {
          "indexed": false,
          "internalType": "uint256",
          "name": "soldAmount",
          "type": "uint256"
        },
        {
          "indexed": false,
          "internalType": "uint256",
          "name": "availableSlot",
          "type": "uint256"
        },
        {
          "indexed": false,
          "internalType": "uint256",
          "name": "maxSaleAmount",
          "type": "uint256"
        }
      ],
      "name": "UpdateSaleAmount",
      "type": "event"
    },
    {
      "anonymous": false,
      "inputs": [
        {
          "indexed": true,
          "internalType": "address",
          "name": "implementation",
          "type": "address"
        }
      ],
      "name": "Upgraded",
      "type": "event"
    },
    {
      "inputs": [],
      "name": "_maxSaleAmount",
      "outputs": [
        {
          "internalType": "uint256",
          "name": "",
          "type": "uint256"
        }
      ],
      "stateMutability": "view",
      "type": "function"
    },
    {
      "inputs": [],
      "name": "_moonBeastNFT",
      "outputs": [
        {
          "internalType": "contract MoonBeast",
          "name": "",
          "type": "address"
        }
      ],
      "stateMutability": "view",
      "type": "function"
    },
    {
      "inputs": [],
      "name": "_price",
      "outputs": [
        {
          "internalType": "uint256",
          "name": "",
          "type": "uint256"
        }
      ],
      "stateMutability": "view",
      "type": "function"
    },
    {
      "inputs": [],
      "name": "_wallet",
      "outputs": [
        {
          "internalType": "address payable",
          "name": "",
          "type": "address"
        }
      ],
      "stateMutability": "view",
      "type": "function"
    },
    {
      "inputs": [
        {
          "internalType": "uint16",
          "name": "amount",
          "type": "uint16"
        }
      ],
      "name": "buyNFT",
      "outputs": [],
      "stateMutability": "payable",
      "type": "function"
    },
    {
      "inputs": [
        {
          "internalType": "uint256",
          "name": "tokenId",
          "type": "uint256"
        }
      ],
      "name": "checkMintByContract",
      "outputs": [
        {
          "internalType": "bool",
          "name": "",
          "type": "bool"
        }
      ],
      "stateMutability": "view",
      "type": "function"
    },
    {
      "inputs": [
        {
          "internalType": "address",
          "name": "owner",
          "type": "address"
        },
        {
          "internalType": "uint256",
          "name": "tokenId",
          "type": "uint256"
        }
      ],
      "name": "checkOwnerMinted",
      "outputs": [
        {
          "internalType": "bool",
          "name": "",
          "type": "bool"
        }
      ],
      "stateMutability": "view",
      "type": "function"
    },
    {
      "inputs": [],
      "name": "getAvailableSlots",
      "outputs": [
        {
          "internalType": "uint256",
          "name": "",
          "type": "uint256"
        }
      ],
      "stateMutability": "view",
      "type": "function"
    },
    {
      "inputs": [],
      "name": "getContractBalance",
      "outputs": [
        {
          "internalType": "uint256",
          "name": "",
          "type": "uint256"
        }
      ],
      "stateMutability": "view",
      "type": "function"
    },
    {
      "inputs": [
        {
          "internalType": "address",
          "name": "owner",
          "type": "address"
        },
        {
          "internalType": "uint256[]",
          "name": "arrIndex",
          "type": "uint256[]"
        }
      ],
      "name": "getMoonBeast",
      "outputs": [
        {
          "components": [
            {
              "internalType": "uint256",
              "name": "tokenId",
              "type": "uint256"
            },
            {
              "internalType": "string",
              "name": "uri",
              "type": "string"
            },
            {
              "internalType": "bool",
              "name": "mintByContract",
              "type": "bool"
            },
            {
              "internalType": "bool",
              "name": "isOwnerMinted",
              "type": "bool"
            }
          ],
          "internalType": "struct MoonBeastNFTSale[]",
          "name": "",
          "type": "tuple[]"
        }
      ],
      "stateMutability": "view",
      "type": "function"
    },
    {
      "inputs": [],
      "name": "getReadySale",
      "outputs": [
        {
          "internalType": "bool",
          "name": "",
          "type": "bool"
        }
      ],
      "stateMutability": "view",
      "type": "function"
    },
    {
      "inputs": [
        {
          "internalType": "uint256",
          "name": "maxSaleAmount",
          "type": "uint256"
        },
        {
          "internalType": "uint256",
          "name": "price",
          "type": "uint256"
        },
        {
          "internalType": "address",
          "name": "moonBeastNFT",
          "type": "address"
        },
        {
          "internalType": "address",
          "name": "wallet",
          "type": "address"
        }
      ],
      "name": "initialize",
      "outputs": [],
      "stateMutability": "nonpayable",
      "type": "function"
    },
    {
      "inputs": [],
      "name": "owner",
      "outputs": [
        {
          "internalType": "address",
          "name": "",
          "type": "address"
        }
      ],
      "stateMutability": "view",
      "type": "function"
    },
    {
      "inputs": [],
      "name": "proxiableUUID",
      "outputs": [
        {
          "internalType": "bytes32",
          "name": "",
          "type": "bytes32"
        }
      ],
      "stateMutability": "view",
      "type": "function"
    },
    {
      "inputs": [],
      "name": "renounceOwnership",
      "outputs": [],
      "stateMutability": "nonpayable",
      "type": "function"
    },
    {
      "inputs": [
        {
          "internalType": "uint256",
          "name": "maxSaleAmount",
          "type": "uint256"
        }
      ],
      "name": "setMaxSaleAmount",
      "outputs": [],
      "stateMutability": "nonpayable",
      "type": "function"
    },
    {
      "inputs": [
        {
          "internalType": "address",
          "name": "moonBeast",
          "type": "address"
        }
      ],
      "name": "setMoonBeastNFT",
      "outputs": [],
      "stateMutability": "nonpayable",
      "type": "function"
    },
    {
      "inputs": [
        {
          "internalType": "uint256",
          "name": "price",
          "type": "uint256"
        }
      ],
      "name": "setPrice",
      "outputs": [],
      "stateMutability": "nonpayable",
      "type": "function"
    },
    {
      "inputs": [
        {
          "internalType": "bool",
          "name": "value",
          "type": "bool"
        }
      ],
      "name": "setReadySale",
      "outputs": [],
      "stateMutability": "nonpayable",
      "type": "function"
    },
    {
      "inputs": [
        {
          "internalType": "address payable",
          "name": "wallet",
          "type": "address"
        }
      ],
      "name": "setWallet",
      "outputs": [],
      "stateMutability": "nonpayable",
      "type": "function"
    },
    {
      "inputs": [
        {
          "internalType": "address",
          "name": "newOwner",
          "type": "address"
        }
      ],
      "name": "transferOwnership",
      "outputs": [],
      "stateMutability": "nonpayable",
      "type": "function"
    },
    {
      "inputs": [
        {
          "internalType": "address",
          "name": "newImplementation",
          "type": "address"
        }
      ],
      "name": "upgradeTo",
      "outputs": [],
      "stateMutability": "nonpayable",
      "type": "function"
    },
    {
      "inputs": [
        {
          "internalType": "address",
          "name": "newImplementation",
          "type": "address"
        },
        {
          "internalType": "bytes",
          "name": "data",
          "type": "bytes"
        }
      ],
      "name": "upgradeToAndCall",
      "outputs": [],
      "stateMutability": "payable",
      "type": "function"
    },
    {
      "inputs": [],
      "name": "withdrawTokenByOwner",
      "outputs": [],
      "stateMutability": "nonpayable",
      "type": "function"
    }
  ],
  "bytecode": "0x60a06040523073ffffffffffffffffffffffffffffffffffffffff1660809073ffffffffffffffffffffffffffffffffffffffff1660601b8152503480156200004757600080fd5b50620000586200005e60201b60201c565b62000209565b600060019054906101000a900460ff1615620000b1576040517f08c379a0000000000000000000000000000000000000000000000000000000008152600401620000a8906200015d565b60405180910390fd5b60ff801660008054906101000a900460ff1660ff161015620001235760ff6000806101000a81548160ff021916908360ff1602179055507f7f26b83ff96e1f2b6a682f133852f6798a09c465da95921460cefb384740249860ff6040516200011a91906200017f565b60405180910390a15b565b6000620001346027836200019c565b91506200014182620001ba565b604082019050919050565b6200015781620001ad565b82525050565b60006020820190508181036000830152620001788162000125565b9050919050565b60006020820190506200019660008301846200014c565b92915050565b600082825260208201905092915050565b600060ff82169050919050565b7f496e697469616c697a61626c653a20636f6e747261637420697320696e69746960008201527f616c697a696e6700000000000000000000000000000000000000000000000000602082015250565b60805160601c613e836200024460003960008181610b1501528181610ba401528181610c9e01528181610d2d0152610e020152613e836000f3fe60806040526004361061014b5760003560e01c8063610757e4116100b657806391b7f5ed1161006f57806391b7f5ed1461044b578063a00a21ff14610474578063b9d18eae14610490578063deaa59df146104bb578063deed00f6146104e4578063f2fde38b1461050f5761014b565b8063610757e41461034b5780636f9fb98a14610376578063715018a6146103a15780637428edea146103b857806375b01d94146103e35780638da5cb5b146104205761014b565b80633659cfe6116101085780633659cfe61461024c5780634f1ef28614610275578063514c1ba61461029157806352d1902d146102ba5780635afa1a76146102e55780635d0a8f6d146103225761014b565b8063019e27291461015057806312c0aeb914610179578063228443d81461019057806322bc5a3f146101b9578063235b6ea1146101f65780632725368f14610221575b600080fd5b34801561015c57600080fd5b506101776004803603810190610172919061268a565b610538565b005b34801561018557600080fd5b5061018e610895565b005b34801561019c57600080fd5b506101b760048036038101906101b2919061240a565b61094c565b005b3480156101c557600080fd5b506101e060048036038101906101db9190612520565b610a08565b6040516101ed9190612dde565b60405180910390f35b34801561020257600080fd5b5061020b610ae6565b60405161021891906131ac565b60405180910390f35b34801561022d57600080fd5b50610236610aed565b6040516102439190612e14565b60405180910390f35b34801561025857600080fd5b50610273600480360381019061026e919061240a565b610b13565b005b61028f600480360381019061028a91906124c4565b610c9c565b005b34801561029d57600080fd5b506102b860048036038101906102b39190612560565b610dd9565b005b3480156102c657600080fd5b506102cf610dfe565b6040516102dc9190612df9565b60405180910390f35b3480156102f157600080fd5b5061030c60048036038101906103079190612464565b610eb7565b6040516103199190612dbc565b60405180910390f35b34801561032e57600080fd5b5061034960048036038101906103449190612630565b61112c565b005b34801561035757600080fd5b506103606111cc565b60405161036d9190612d78565b60405180910390f35b34801561038257600080fd5b5061038b6111f3565b60405161039891906131ac565b60405180910390f35b3480156103ad57600080fd5b506103b6611200565b005b3480156103c457600080fd5b506103cd611214565b6040516103da91906131ac565b60405180910390f35b3480156103ef57600080fd5b5061040a60048036038101906104059190612630565b61121a565b6040516104179190612dde565b60405180910390f35b34801561042c57600080fd5b50610435611244565b6040516104429190612d5d565b60405180910390f35b34801561045757600080fd5b50610472600480360381019061046d9190612630565b61126e565b005b61048e60048036038101906104899190612603565b6112c4565b005b34801561049c57600080fd5b506104a5611726565b6040516104b291906131ac565b60405180910390f35b3480156104c757600080fd5b506104e260048036038101906104dd9190612437565b611744565b005b3480156104f057600080fd5b506104f9611801565b6040516105069190612dde565b60405180910390f35b34801561051b57600080fd5b506105366004803603810190610531919061240a565b611818565b005b60008060019054906101000a900460ff161590508080156105695750600160008054906101000a900460ff1660ff16105b8061059657506105783061189c565b1580156105955750600160008054906101000a900460ff1660ff16145b5b6105d5576040517f08c379a00000000000000000000000000000000000000000000000000000000081526004016105cc90612fac565b60405180910390fd5b60016000806101000a81548160ff021916908360ff1602179055508015610612576001600060016101000a81548160ff0219169083151502179055505b60008511610655576040517f08c379a000000000000000000000000000000000000000000000000000000000815260040161064c90612e6c565b60405180910390fd5b60008411610698576040517f08c379a000000000000000000000000000000000000000000000000000000000815260040161068f90612e6c565b60405180910390fd5b600073ffffffffffffffffffffffffffffffffffffffff168373ffffffffffffffffffffffffffffffffffffffff161415610708576040517f08c379a00000000000000000000000000000000000000000000000000000000081526004016106ff90612f6c565b60405180910390fd5b600073ffffffffffffffffffffffffffffffffffffffff168273ffffffffffffffffffffffffffffffffffffffff161415610778576040517f08c379a000000000000000000000000000000000000000000000000000000000815260040161076f9061312c565b60405180910390fd5b6107806118bf565b610788611918565b8460fc8190555083610100819055508260fb60006101000a81548173ffffffffffffffffffffffffffffffffffffffff021916908373ffffffffffffffffffffffffffffffffffffffff1602179055508161010160006101000a81548173ffffffffffffffffffffffffffffffffffffffff021916908373ffffffffffffffffffffffffffffffffffffffff160217905550600060fb60146101000a81548160ff021916908315150217905550801561088e5760008060016101000a81548160ff0219169083151502179055507f7f26b83ff96e1f2b6a682f133852f6798a09c465da95921460cefb384740249860016040516108859190612e2f565b60405180910390a15b5050505050565b61089d611969565b600047116108e0576040517f08c379a00000000000000000000000000000000000000000000000000000000081526004016108d79061308c565b60405180910390fd5b61010160009054906101000a900473ffffffffffffffffffffffffffffffffffffffff1673ffffffffffffffffffffffffffffffffffffffff166108fc479081150290604051600060405180830381858888f19350505050158015610949573d6000803e3d6000fd5b50565b610954611969565b600073ffffffffffffffffffffffffffffffffffffffff168173ffffffffffffffffffffffffffffffffffffffff1614156109c4576040517f08c379a00000000000000000000000000000000000000000000000000000000081526004016109bb90612fec565b60405180910390fd5b8060fb60006101000a81548173ffffffffffffffffffffffffffffffffffffffff021916908373ffffffffffffffffffffffffffffffffffffffff16021790555050565b600080600090505b60ff60008573ffffffffffffffffffffffffffffffffffffffff1673ffffffffffffffffffffffffffffffffffffffff16815260200190815260200160002080549050811015610ada578260ff60008673ffffffffffffffffffffffffffffffffffffffff1673ffffffffffffffffffffffffffffffffffffffff1681526020019081526020016000208281548110610aac57610aab613633565b5b90600052602060002001541415610ac7576001915050610ae0565b8080610ad29061355b565b915050610a10565b50600090505b92915050565b6101005481565b60fb60009054906101000a900473ffffffffffffffffffffffffffffffffffffffff1681565b7f000000000000000000000000000000000000000000000000000000000000000073ffffffffffffffffffffffffffffffffffffffff163073ffffffffffffffffffffffffffffffffffffffff161415610ba2576040517f08c379a0000000000000000000000000000000000000000000000000000000008152600401610b9990612f0c565b60405180910390fd5b7f000000000000000000000000000000000000000000000000000000000000000073ffffffffffffffffffffffffffffffffffffffff16610be16119e7565b73ffffffffffffffffffffffffffffffffffffffff1614610c37576040517f08c379a0000000000000000000000000000000000000000000000000000000008152600401610c2e90612f2c565b60405180910390fd5b610c4081611a3e565b610c9981600067ffffffffffffffff811115610c5f57610c5e613662565b5b6040519080825280601f01601f191660200182016040528015610c915781602001600182028036833780820191505090505b506000611a49565b50565b7f000000000000000000000000000000000000000000000000000000000000000073ffffffffffffffffffffffffffffffffffffffff163073ffffffffffffffffffffffffffffffffffffffff161415610d2b576040517f08c379a0000000000000000000000000000000000000000000000000000000008152600401610d2290612f0c565b60405180910390fd5b7f000000000000000000000000000000000000000000000000000000000000000073ffffffffffffffffffffffffffffffffffffffff16610d6a6119e7565b73ffffffffffffffffffffffffffffffffffffffff1614610dc0576040517f08c379a0000000000000000000000000000000000000000000000000000000008152600401610db790612f2c565b60405180910390fd5b610dc982611a3e565b610dd582826001611a49565b5050565b610de1611969565b8060fb60146101000a81548160ff02191690831515021790555050565b60007f000000000000000000000000000000000000000000000000000000000000000073ffffffffffffffffffffffffffffffffffffffff163073ffffffffffffffffffffffffffffffffffffffff1614610e8e576040517f08c379a0000000000000000000000000000000000000000000000000000000008152600401610e8590612f4c565b60405180910390fd5b7f360894a13ba1a3210667c828492db98dca3e2076cc3735a920a3ca505d382bbc60001b905090565b606060008383905067ffffffffffffffff811115610ed857610ed7613662565b5b604051908082528060200260200182016040528015610f1157816020015b610efe612215565b815260200190600190039081610ef65790505b50905060008060005b8686905081101561111e57868682818110610f3857610f37613633565b5b90506020020135915060fb60009054906101000a900473ffffffffffffffffffffffffffffffffffffffff1673ffffffffffffffffffffffffffffffffffffffff16632f745c5989846040518363ffffffff1660e01b8152600401610f9e929190612d93565b60206040518083038186803b158015610fb657600080fd5b505afa158015610fca573d6000803e3d6000fd5b505050506040513d601f19601f82011682018060405250810190610fee919061265d565b9250604051806080016040528084815260200160fb60009054906101000a900473ffffffffffffffffffffffffffffffffffffffff1673ffffffffffffffffffffffffffffffffffffffff1663c87b56dd866040518263ffffffff1660e01b815260040161105c91906131ac565b60006040518083038186803b15801561107457600080fd5b505afa158015611088573d6000803e3d6000fd5b505050506040513d6000823e3d601f19601f820116820180604052508101906110b191906125ba565b815260200160fd600086815260200190815260200160002060009054906101000a900460ff16151581526020016110e88a86610a08565b1515815250848281518110611100576110ff613633565b5b602002602001018190525080806111169061355b565b915050610f1a565b508293505050509392505050565b611134611969565b60008111611177576040517f08c379a000000000000000000000000000000000000000000000000000000000815260040161116e90612eac565b60405180910390fd5b61118160fe611bc6565b81116111c2576040517f08c379a00000000000000000000000000000000000000000000000000000000081526004016111b990612ecc565b60405180910390fd5b8060fc8190555050565b61010160009054906101000a900473ffffffffffffffffffffffffffffffffffffffff1681565b6000804790508091505090565b611208611969565b6112126000611bd4565b565b60fc5481565b600060fd600083815260200190815260200160002060009054906101000a900460ff169050919050565b6000606560009054906101000a900473ffffffffffffffffffffffffffffffffffffffff16905090565b611276611969565b600081116112b9576040517f08c379a00000000000000000000000000000000000000000000000000000000081526004016112b09061318c565b60405180910390fd5b806101008190555050565b6002600154141561130a576040517f08c379a00000000000000000000000000000000000000000000000000000000081526004016113019061316c565b60405180910390fd5b600260018190555060fb60149054906101000a900460ff16611361576040517f08c379a0000000000000000000000000000000000000000000000000000000008152600401611358906130ec565b60405180910390fd5b60008161ffff16116113a8576040517f08c379a000000000000000000000000000000000000000000000000000000000815260040161139f90612e6c565b60405180910390fd5b60006113b460fe611bc6565b60fc546113c191906133ed565b90508161ffff168110156113d482611c9a565b60018311611417576040518060400160405280600481526020017f204e46540000000000000000000000000000000000000000000000000000000081525061144e565b6040518060400160405280600581526020017f204e4654730000000000000000000000000000000000000000000000000000008152505b60405160200161145f929190612d23565b604051602081830303815290604052906114af576040517f08c379a00000000000000000000000000000000000000000000000000000000081526004016114a69190612e4a565b60405180910390fd5b5060006114ba611dfb565b90506114cb8361ffff168234611e03565b60005b8361ffff168110156116c05760fc546114e760fe611bc6565b1115611528576040517f08c379a000000000000000000000000000000000000000000000000000000000815260040161151f9061306c565b60405180910390fd5b600060fb60009054906101000a900473ffffffffffffffffffffffffffffffffffffffff1673ffffffffffffffffffffffffffffffffffffffff166354ba0f27846040518263ffffffff1660e01b81526004016115859190612d5d565b602060405180830381600087803b15801561159f57600080fd5b505af11580156115b3573d6000803e3d6000fd5b505050506040513d601f19601f820116820180604052508101906115d7919061265d565b905060ff60008473ffffffffffffffffffffffffffffffffffffffff1673ffffffffffffffffffffffffffffffffffffffff168152602001908152602001600020819080600181540180825580915050600190039060005260206000200160009091909190915055600160fd600083815260200190815260200160002060006101000a81548160ff02191690831515021790555061167560fe611f0b565b7ff403523e17bf2d1fe8af1a00ba36bc463a7d846dbadf11d117400f7694ba3e6c836040516116a49190612d5d565b60405180910390a15080806116b89061355b565b9150506114ce565b5060006116cd60fe611bc6565b90507f69031b1a7e7913762e884dd55b4b42c47d8a362a2715200304a1e1a0f63ec309818260fc546116ff91906133ed565b60fc54604051611711939291906131c7565b60405180910390a15050506001808190555050565b600061173260fe611bc6565b60fc5461173f91906133ed565b905090565b61174c611969565b600073ffffffffffffffffffffffffffffffffffffffff168173ffffffffffffffffffffffffffffffffffffffff1614156117bc576040517f08c379a00000000000000000000000000000000000000000000000000000000081526004016117b390612e8c565b60405180910390fd5b8061010160006101000a81548173ffffffffffffffffffffffffffffffffffffffff021916908373ffffffffffffffffffffffffffffffffffffffff16021790555050565b600060fb60149054906101000a900460ff16905090565b611820611969565b600073ffffffffffffffffffffffffffffffffffffffff168173ffffffffffffffffffffffffffffffffffffffff161415611890576040517f08c379a000000000000000000000000000000000000000000000000000000000815260040161188790612eec565b60405180910390fd5b61189981611bd4565b50565b6000808273ffffffffffffffffffffffffffffffffffffffff163b119050919050565b600060019054906101000a900460ff1661190e576040517f08c379a00000000000000000000000000000000000000000000000000000000081526004016119059061310c565b60405180910390fd5b611916611f21565b565b600060019054906101000a900460ff16611967576040517f08c379a000000000000000000000000000000000000000000000000000000000815260040161195e9061310c565b60405180910390fd5b565b611971611dfb565b73ffffffffffffffffffffffffffffffffffffffff1661198f611244565b73ffffffffffffffffffffffffffffffffffffffff16146119e5576040517f08c379a00000000000000000000000000000000000000000000000000000000081526004016119dc9061304c565b60405180910390fd5b565b6000611a157f360894a13ba1a3210667c828492db98dca3e2076cc3735a920a3ca505d382bbc60001b611f82565b60000160009054906101000a900473ffffffffffffffffffffffffffffffffffffffff16905090565b611a46611969565b50565b611a757f4910fdfa16fed3260ed0e7147f7cc6da11a60208b5b9406d12a635614ffd914360001b611f8c565b60000160009054906101000a900460ff1615611a9957611a9483611f96565b611bc1565b8273ffffffffffffffffffffffffffffffffffffffff166352d1902d6040518163ffffffff1660e01b815260040160206040518083038186803b158015611adf57600080fd5b505afa925050508015611b1057506040513d601f19601f82011682018060405250810190611b0d919061258d565b60015b611b4f576040517f08c379a0000000000000000000000000000000000000000000000000000000008152600401611b469061300c565b60405180910390fd5b7f360894a13ba1a3210667c828492db98dca3e2076cc3735a920a3ca505d382bbc60001b8114611bb4576040517f08c379a0000000000000000000000000000000000000000000000000000000008152600401611bab90612f8c565b60405180910390fd5b50611bc083838361204f565b5b505050565b600081600001549050919050565b6000606560009054906101000a900473ffffffffffffffffffffffffffffffffffffffff16905081606560006101000a81548173ffffffffffffffffffffffffffffffffffffffff021916908373ffffffffffffffffffffffffffffffffffffffff1602179055508173ffffffffffffffffffffffffffffffffffffffff168173ffffffffffffffffffffffffffffffffffffffff167f8be0079c531659141344cd1fd0a4f28419497f9722a3daafe3b4186f6b6457e060405160405180910390a35050565b60606000821415611ce2576040518060400160405280600181526020017f30000000000000000000000000000000000000000000000000000000000000008152509050611df6565b600082905060005b60008214611d14578080611cfd9061355b565b915050600a82611d0d9190613362565b9150611cea565b60008167ffffffffffffffff811115611d3057611d2f613662565b5b6040519080825280601f01601f191660200182016040528015611d625781602001600182028036833780820191505090505b5090505b60008514611def57600182611d7b91906133ed565b9150600a85611d8a91906135a4565b6030611d96919061330c565b60f81b818381518110611dac57611dab613633565b5b60200101907effffffffffffffffffffffffffffffffffffffffffffffffffffffffffffff1916908160001a905350600a85611de89190613362565b9450611d66565b8093505050505b919050565b600033905090565b60008311611e46576040517f08c379a0000000000000000000000000000000000000000000000000000000008152600401611e3d906130cc565b60405180910390fd5b600073ffffffffffffffffffffffffffffffffffffffff168273ffffffffffffffffffffffffffffffffffffffff161415611eb6576040517f08c379a0000000000000000000000000000000000000000000000000000000008152600401611ead9061314c565b60405180910390fd5b808361010054611ec69190613393565b14611f06576040517f08c379a0000000000000000000000000000000000000000000000000000000008152600401611efd90612fcc565b60405180910390fd5b505050565b6001816000016000828254019250508190555050565b600060019054906101000a900460ff16611f70576040517f08c379a0000000000000000000000000000000000000000000000000000000008152600401611f679061310c565b60405180910390fd5b611f80611f7b611dfb565b611bd4565b565b6000819050919050565b6000819050919050565b611f9f8161189c565b611fde576040517f08c379a0000000000000000000000000000000000000000000000000000000008152600401611fd59061302c565b60405180910390fd5b8061200b7f360894a13ba1a3210667c828492db98dca3e2076cc3735a920a3ca505d382bbc60001b611f82565b60000160006101000a81548173ffffffffffffffffffffffffffffffffffffffff021916908373ffffffffffffffffffffffffffffffffffffffff16021790555050565b6120588361207b565b6000825111806120655750805b156120765761207483836120ca565b505b505050565b61208481611f96565b8073ffffffffffffffffffffffffffffffffffffffff167fbc7cd75a20ee27fd9adebab32041f755214dbc6bffa90cc0225b39da2e5c2d3b60405160405180910390a250565b60606120d58361189c565b612114576040517f08c379a000000000000000000000000000000000000000000000000000000000815260040161210b906130ac565b60405180910390fd5b6000808473ffffffffffffffffffffffffffffffffffffffff168460405161213c9190612d0c565b600060405180830381855af49150503d8060008114612177576040519150601f19603f3d011682016040523d82523d6000602084013e61217c565b606091505b50915091506121a48282604051806060016040528060278152602001613e27602791396121ae565b9250505092915050565b606083156121be5782905061220e565b6000835111156121d15782518084602001fd5b816040517f08c379a00000000000000000000000000000000000000000000000000000000081526004016122059190612e4a565b60405180910390fd5b9392505050565b604051806080016040528060008152602001606081526020016000151581526020016000151581525090565b600061225461224f84613223565b6131fe565b9050828152602081018484840111156122705761226f6136a0565b5b61227b8482856134e8565b509392505050565b600061229661229184613254565b6131fe565b9050828152602081018484840111156122b2576122b16136a0565b5b6122bd8482856134f7565b509392505050565b6000813590506122d481613d9c565b92915050565b6000813590506122e981613db3565b92915050565b60008083601f84011261230557612304613696565b5b8235905067ffffffffffffffff81111561232257612321613691565b5b60208301915083602082028301111561233e5761233d61369b565b5b9250929050565b60008135905061235481613dca565b92915050565b60008151905061236981613de1565b92915050565b600082601f83011261238457612383613696565b5b8135612394848260208601612241565b91505092915050565b600082601f8301126123b2576123b1613696565b5b81516123c2848260208601612283565b91505092915050565b6000813590506123da81613df8565b92915050565b6000813590506123ef81613e0f565b92915050565b60008151905061240481613e0f565b92915050565b6000602082840312156124205761241f6136aa565b5b600061242e848285016122c5565b91505092915050565b60006020828403121561244d5761244c6136aa565b5b600061245b848285016122da565b91505092915050565b60008060006040848603121561247d5761247c6136aa565b5b600061248b868287016122c5565b935050602084013567ffffffffffffffff8111156124ac576124ab6136a5565b5b6124b8868287016122ef565b92509250509250925092565b600080604083850312156124db576124da6136aa565b5b60006124e9858286016122c5565b925050602083013567ffffffffffffffff81111561250a576125096136a5565b5b6125168582860161236f565b9150509250929050565b60008060408385031215612537576125366136aa565b5b6000612545858286016122c5565b9250506020612556858286016123e0565b9150509250929050565b600060208284031215612576576125756136aa565b5b600061258484828501612345565b91505092915050565b6000602082840312156125a3576125a26136aa565b5b60006125b18482850161235a565b91505092915050565b6000602082840312156125d0576125cf6136aa565b5b600082015167ffffffffffffffff8111156125ee576125ed6136a5565b5b6125fa8482850161239d565b91505092915050565b600060208284031215612619576126186136aa565b5b6000612627848285016123cb565b91505092915050565b600060208284031215612646576126456136aa565b5b6000612654848285016123e0565b91505092915050565b600060208284031215612673576126726136aa565b5b6000612681848285016123f5565b91505092915050565b600080600080608085870312156126a4576126a36136aa565b5b60006126b2878288016123e0565b94505060206126c3878288016123e0565b93505060406126d4878288016122c5565b92505060606126e5878288016122c5565b91505092959194509250565b60006126fd8383612c8b565b905092915050565b61270e81613433565b82525050565b61271d81613421565b82525050565b600061272e82613295565b61273881856132c3565b93508360208202850161274a85613285565b8060005b85811015612786578484038952815161276785826126f1565b9450612772836132b6565b925060208a0199505060018101905061274e565b50829750879550505050505092915050565b6127a181613445565b82525050565b6127b081613445565b82525050565b6127bf81613451565b82525050565b60006127d0826132a0565b6127da81856132d4565b93506127ea8185602086016134f7565b80840191505092915050565b6127ff816134a0565b82525050565b61280e816134b2565b82525050565b600061281f826132ab565b61282981856132df565b93506128398185602086016134f7565b612842816136af565b840191505092915050565b6000612858826132ab565b61286281856132f0565b93506128728185602086016134f7565b61287b816136af565b840191505092915050565b6000612891826132ab565b61289b8185613301565b93506128ab8185602086016134f7565b80840191505092915050565b60006128c46024836132f0565b91506128cf826136c0565b604082019050919050565b60006128e7601a836132f0565b91506128f28261370f565b602082019050919050565b600061290a6024836132f0565b915061291582613738565b604082019050919050565b600061292d6035836132f0565b915061293882613787565b604082019050919050565b60006129506026836132f0565b915061295b826137d6565b604082019050919050565b6000612973602c836132f0565b915061297e82613825565b604082019050919050565b6000612996603083613301565b91506129a182613874565b603082019050919050565b60006129b9602c836132f0565b91506129c4826138c3565b604082019050919050565b60006129dc6038836132f0565b91506129e782613912565b604082019050919050565b60006129ff6020836132f0565b9150612a0a82613961565b602082019050919050565b6000612a226029836132f0565b9150612a2d8261398a565b604082019050919050565b6000612a45602e836132f0565b9150612a50826139d9565b604082019050919050565b6000612a68601d836132f0565b9150612a7382613a28565b602082019050919050565b6000612a8b6020836132f0565b9150612a9682613a51565b602082019050919050565b6000612aae602e836132f0565b9150612ab982613a7a565b604082019050919050565b6000612ad1602d836132f0565b9150612adc82613ac9565b604082019050919050565b6000612af46020836132f0565b9150612aff82613b18565b602082019050919050565b6000612b17602f836132f0565b9150612b2282613b41565b604082019050919050565b6000612b3a601a836132f0565b9150612b4582613b90565b602082019050919050565b6000612b5d6026836132f0565b9150612b6882613bb9565b604082019050919050565b6000612b80602b836132f0565b9150612b8b82613c08565b604082019050919050565b6000612ba36019836132f0565b9150612bae82613c57565b602082019050919050565b6000612bc6602b836132f0565b9150612bd182613c80565b604082019050919050565b6000612be9601a836132f0565b9150612bf482613ccf565b602082019050919050565b6000612c0c601f836132f0565b9150612c1782613cf8565b602082019050919050565b6000612c2f601f836132f0565b9150612c3a82613d21565b602082019050919050565b6000612c52600583613301565b9150612c5d82613d4a565b600582019050919050565b6000612c75601c836132f0565b9150612c8082613d73565b602082019050919050565b6000608083016000830151612ca36000860182612cee565b5060208301518482036020860152612cbb8282612814565b9150506040830151612cd06040860182612798565b506060830151612ce36060860182612798565b508091505092915050565b612cf781613489565b82525050565b612d0681613489565b82525050565b6000612d1882846127c5565b915081905092915050565b6000612d2e82612989565b9150612d3a8285612886565b9150612d468284612886565b9150612d5182612c45565b91508190509392505050565b6000602082019050612d726000830184612714565b92915050565b6000602082019050612d8d6000830184612705565b92915050565b6000604082019050612da86000830185612714565b612db56020830184612cfd565b9392505050565b60006020820190508181036000830152612dd68184612723565b905092915050565b6000602082019050612df360008301846127a7565b92915050565b6000602082019050612e0e60008301846127b6565b92915050565b6000602082019050612e2960008301846127f6565b92915050565b6000602082019050612e446000830184612805565b92915050565b60006020820190508181036000830152612e64818461284d565b905092915050565b60006020820190508181036000830152612e85816128b7565b9050919050565b60006020820190508181036000830152612ea5816128da565b9050919050565b60006020820190508181036000830152612ec5816128fd565b9050919050565b60006020820190508181036000830152612ee581612920565b9050919050565b60006020820190508181036000830152612f0581612943565b9050919050565b60006020820190508181036000830152612f2581612966565b9050919050565b60006020820190508181036000830152612f45816129ac565b9050919050565b60006020820190508181036000830152612f65816129cf565b9050919050565b60006020820190508181036000830152612f85816129f2565b9050919050565b60006020820190508181036000830152612fa581612a15565b9050919050565b60006020820190508181036000830152612fc581612a38565b9050919050565b60006020820190508181036000830152612fe581612a5b565b9050919050565b6000602082019050818103600083015261300581612a7e565b9050919050565b6000602082019050818103600083015261302581612aa1565b9050919050565b6000602082019050818103600083015261304581612ac4565b9050919050565b6000602082019050818103600083015261306581612ae7565b9050919050565b6000602082019050818103600083015261308581612b0a565b9050919050565b600060208201905081810360008301526130a581612b2d565b9050919050565b600060208201905081810360008301526130c581612b50565b9050919050565b600060208201905081810360008301526130e581612b73565b9050919050565b6000602082019050818103600083015261310581612b96565b9050919050565b6000602082019050818103600083015261312581612bb9565b9050919050565b6000602082019050818103600083015261314581612bdc565b9050919050565b6000602082019050818103600083015261316581612bff565b9050919050565b6000602082019050818103600083015261318581612c22565b9050919050565b600060208201905081810360008301526131a581612c68565b9050919050565b60006020820190506131c16000830184612cfd565b92915050565b60006060820190506131dc6000830186612cfd565b6131e96020830185612cfd565b6131f66040830184612cfd565b949350505050565b6000613208613219565b9050613214828261352a565b919050565b6000604051905090565b600067ffffffffffffffff82111561323e5761323d613662565b5b613247826136af565b9050602081019050919050565b600067ffffffffffffffff82111561326f5761326e613662565b5b613278826136af565b9050602081019050919050565b6000819050602082019050919050565b600081519050919050565b600081519050919050565b600081519050919050565b6000602082019050919050565b600082825260208201905092915050565b600081905092915050565b600082825260208201905092915050565b600082825260208201905092915050565b600081905092915050565b600061331782613489565b915061332283613489565b9250827fffffffffffffffffffffffffffffffffffffffffffffffffffffffffffffffff03821115613357576133566135d5565b5b828201905092915050565b600061336d82613489565b915061337883613489565b92508261338857613387613604565b5b828204905092915050565b600061339e82613489565b91506133a983613489565b9250817fffffffffffffffffffffffffffffffffffffffffffffffffffffffffffffffff04831182151516156133e2576133e16135d5565b5b828202905092915050565b60006133f882613489565b915061340383613489565b925082821015613416576134156135d5565b5b828203905092915050565b600061342c82613469565b9050919050565b600061343e82613469565b9050919050565b60008115159050919050565b6000819050919050565b600061ffff82169050919050565b600073ffffffffffffffffffffffffffffffffffffffff82169050919050565b6000819050919050565b600060ff82169050919050565b60006134ab826134c4565b9050919050565b60006134bd82613493565b9050919050565b60006134cf826134d6565b9050919050565b60006134e182613469565b9050919050565b82818337600083830152505050565b60005b838110156135155780820151818401526020810190506134fa565b83811115613524576000848401525b50505050565b613533826136af565b810181811067ffffffffffffffff8211171561355257613551613662565b5b80604052505050565b600061356682613489565b91507fffffffffffffffffffffffffffffffffffffffffffffffffffffffffffffffff821415613599576135986135d5565b5b600182019050919050565b60006135af82613489565b91506135ba83613489565b9250826135ca576135c9613604565b5b828206905092915050565b7f4e487b7100000000000000000000000000000000000000000000000000000000600052601160045260246000fd5b7f4e487b7100000000000000000000000000000000000000000000000000000000600052601260045260246000fd5b7f4e487b7100000000000000000000000000000000000000000000000000000000600052603260045260246000fd5b7f4e487b7100000000000000000000000000000000000000000000000000000000600052604160045260246000fd5b600080fd5b600080fd5b600080fd5b600080fd5b600080fd5b600080fd5b6000601f19601f8301169050919050565b7f6d617853616c65416d6f756e74206d757374206265206772656174657220746860008201527f616e203000000000000000000000000000000000000000000000000000000000602082015250565b7f57616c6c657420697320746865207a65726f2061646472657373000000000000600082015250565b7f4d617853616c65416d6f756e74206d757374206265206772656174657220746860008201527f616e203000000000000000000000000000000000000000000000000000000000602082015250565b7f4d617853616c65416d6f756e74206d757374206265206772656174657220746860008201527f616e205f63757272656e7453616c65416d6f756e740000000000000000000000602082015250565b7f4f776e61626c653a206e6577206f776e657220697320746865207a65726f206160008201527f6464726573730000000000000000000000000000000000000000000000000000602082015250565b7f46756e6374696f6e206d7573742062652063616c6c6564207468726f7567682060008201527f64656c656761746563616c6c0000000000000000000000000000000000000000602082015250565b7f457863656564656420746865206e756d626572206f66204e46547320666f722060008201527f746869732073616c6520726f756e642e00000000000000000000000000000000602082015250565b7f46756e6374696f6e206d7573742062652063616c6c6564207468726f7567682060008201527f6163746976652070726f78790000000000000000000000000000000000000000602082015250565b7f555550535570677261646561626c653a206d757374206e6f742062652063616c60008201527f6c6564207468726f7567682064656c656761746563616c6c0000000000000000602082015250565b7f6d6f6f6e42656173744e465420697320746865207a65726f2061646472657373600082015250565b7f45524331393637557067726164653a20756e737570706f727465642070726f7860008201527f6961626c65555549440000000000000000000000000000000000000000000000602082015250565b7f496e697469616c697a61626c653a20636f6e747261637420697320616c72656160008201527f647920696e697469616c697a6564000000000000000000000000000000000000602082015250565b7f5468652076616c756520796f752073656e7420697320696e76616c6964000000600082015250565b7f4d6f6f6e42656173744e465420697320746865207a65726f2061646472657373600082015250565b7f45524331393637557067726164653a206e657720696d706c656d656e7461746960008201527f6f6e206973206e6f742055555053000000000000000000000000000000000000602082015250565b7f455243313936373a206e657720696d706c656d656e746174696f6e206973206e60008201527f6f74206120636f6e747261637400000000000000000000000000000000000000602082015250565b7f4f776e61626c653a2063616c6c6572206973206e6f7420746865206f776e6572600082015250565b7f457863656564656420746865206e756d626572206f66204e46547320666f722060008201527f746869732073616c6520726f756e640000000000000000000000000000000000602082015250565b7f436f6e74726163742062616c616e6365206973203020474c4d52000000000000600082015250565b7f416464726573733a2064656c65676174652063616c6c20746f206e6f6e2d636f60008201527f6e74726163740000000000000000000000000000000000000000000000000000602082015250565b7f596f75206e656564206174206c65617374206f6e65206d696e7420706173732060008201527f746f206d696e74204e4654000000000000000000000000000000000000000000602082015250565b7f57686974656c69737420726f756e64206e6f7420726561647900000000000000600082015250565b7f496e697469616c697a61626c653a20636f6e7472616374206973206e6f74206960008201527f6e697469616c697a696e67000000000000000000000000000000000000000000602082015250565b7f77616c6c657420697320746865207a65726f2061646472657373000000000000600082015250565b7f42656e656669636961727920697320746865207a65726f206164647265737300600082015250565b7f5265656e7472616e637947756172643a207265656e7472616e742063616c6c00600082015250565b7f206c656674000000000000000000000000000000000000000000000000000000600082015250565b7f5072696365206d7573742062652067726561746572207468616e203000000000600082015250565b613da581613421565b8114613db057600080fd5b50565b613dbc81613433565b8114613dc757600080fd5b50565b613dd381613445565b8114613dde57600080fd5b50565b613dea81613451565b8114613df557600080fd5b50565b613e018161345b565b8114613e0c57600080fd5b50565b613e1881613489565b8114613e2357600080fd5b5056fe416464726573733a206c6f772d6c6576656c2064656c65676174652063616c6c206661696c6564a2646970667358221220e41dce52d04cfd0cd665e378643b774b625e66e4a44e9fb424015b9b266a5ccb64736f6c63430008070033",
  "linkReferences": {},
  "deployedLinkReferences": {}
}