{
  "_format": "hh-sol-artifact-1",
  "contractName": "MFGPrivateSale",
  "sourceName": "contracts/MFGPrivateSale.sol",
  "abi": [
    {
      "inputs": [
        {
          "internalType": "address payable",
          "name": "wallet",
          "type": "address"
        },
        {
          "internalType": "uint256",
          "name": "totalSlot",
          "type": "uint256"
        },
        {
          "internalType": "uint256",
          "name": "rate",
          "type": "uint256"
        }
      ],
      "stateMutability": "nonpayable",
      "type": "constructor"
    },
    {
      "anonymous": false,
      "inputs": [
        {
          "indexed": true,
          "internalType": "address",
          "name": "previousOwner",
          "type": "address"
        },
        {
          "indexed": true,
          "internalType": "address",
          "name": "newOwner",
          "type": "address"
        }
      ],
      "name": "OwnershipTransferred",
      "type": "event"
    },
    {
      "anonymous": false,
      "inputs": [
        {
          "indexed": false,
          "internalType": "address",
          "name": "recipient",
          "type": "address"
        },
        {
          "indexed": false,
          "internalType": "uint256",
          "name": "amount",
          "type": "uint256"
        }
      ],
      "name": "Refund",
      "type": "event"
    },
    {
      "anonymous": false,
      "inputs": [
        {
          "indexed": false,
          "internalType": "address",
          "name": "purchaser",
          "type": "address"
        },
        {
          "indexed": false,
          "internalType": "address",
          "name": "beneficiary",
          "type": "address"
        },
        {
          "indexed": false,
          "internalType": "uint256",
          "name": "value",
          "type": "uint256"
        },
        {
          "indexed": false,
          "internalType": "uint256",
          "name": "amount",
          "type": "uint256"
        }
      ],
      "name": "TokensPurchased",
      "type": "event"
    },
    {
      "inputs": [],
      "name": "END_TIME",
      "outputs": [
        {
          "internalType": "uint256",
          "name": "",
          "type": "uint256"
        }
      ],
      "stateMutability": "view",
      "type": "function"
    },
    {
      "inputs": [],
      "name": "PAY_THRESHOLD",
      "outputs": [
        {
          "internalType": "uint256",
          "name": "",
          "type": "uint256"
        }
      ],
      "stateMutability": "view",
      "type": "function"
    },
    {
      "inputs": [],
      "name": "SOFT_CAP",
      "outputs": [
        {
          "internalType": "uint256",
          "name": "",
          "type": "uint256"
        }
      ],
      "stateMutability": "view",
      "type": "function"
    },
    {
      "inputs": [],
      "name": "START_TIME",
      "outputs": [
        {
          "internalType": "uint256",
          "name": "",
          "type": "uint256"
        }
      ],
      "stateMutability": "view",
      "type": "function"
    },
    {
      "inputs": [],
      "name": "TOKEN_DECIMAL",
      "outputs": [
        {
          "internalType": "uint256",
          "name": "",
          "type": "uint256"
        }
      ],
      "stateMutability": "view",
      "type": "function"
    },
    {
      "inputs": [
        {
          "internalType": "address",
          "name": "",
          "type": "address"
        }
      ],
      "name": "_buyers",
      "outputs": [
        {
          "internalType": "uint256",
          "name": "totalToken",
          "type": "uint256"
        },
        {
          "internalType": "uint256",
          "name": "balance",
          "type": "uint256"
        },
        {
          "internalType": "uint256",
          "name": "lastClaim",
          "type": "uint256"
        }
      ],
      "stateMutability": "view",
      "type": "function"
    },
    {
      "inputs": [],
      "name": "_claimedToken",
      "outputs": [
        {
          "internalType": "uint256",
          "name": "",
          "type": "uint256"
        }
      ],
      "stateMutability": "view",
      "type": "function"
    },
    {
      "inputs": [],
      "name": "_endTime",
      "outputs": [
        {
          "internalType": "uint256",
          "name": "",
          "type": "uint256"
        }
      ],
      "stateMutability": "view",
      "type": "function"
    },
    {
      "inputs": [],
      "name": "_rate",
      "outputs": [
        {
          "internalType": "uint256",
          "name": "",
          "type": "uint256"
        }
      ],
      "stateMutability": "view",
      "type": "function"
    },
    {
      "inputs": [],
      "name": "_rootHash",
      "outputs": [
        {
          "internalType": "bytes32",
          "name": "",
          "type": "bytes32"
        }
      ],
      "stateMutability": "view",
      "type": "function"
    },
    {
      "inputs": [],
      "name": "_startRefund",
      "outputs": [
        {
          "internalType": "bool",
          "name": "",
          "type": "bool"
        }
      ],
      "stateMutability": "view",
      "type": "function"
    },
    {
      "inputs": [],
      "name": "_startTime",
      "outputs": [
        {
          "internalType": "uint256",
          "name": "",
          "type": "uint256"
        }
      ],
      "stateMutability": "view",
      "type": "function"
    },
    {
      "inputs": [],
      "name": "_token",
      "outputs": [
        {
          "internalType": "contract IERC20",
          "name": "",
          "type": "address"
        }
      ],
      "stateMutability": "view",
      "type": "function"
    },
    {
      "inputs": [],
      "name": "_totalSlot",
      "outputs": [
        {
          "internalType": "uint256",
          "name": "",
          "type": "uint256"
        }
      ],
      "stateMutability": "view",
      "type": "function"
    },
    {
      "inputs": [],
      "name": "_wallet",
      "outputs": [
        {
          "internalType": "address payable",
          "name": "",
          "type": "address"
        }
      ],
      "stateMutability": "view",
      "type": "function"
    },
    {
      "inputs": [],
      "name": "_weiRaised",
      "outputs": [
        {
          "internalType": "uint256",
          "name": "",
          "type": "uint256"
        }
      ],
      "stateMutability": "view",
      "type": "function"
    },
    {
      "inputs": [
        {
          "internalType": "bytes32[]",
          "name": "path",
          "type": "bytes32[]"
        }
      ],
      "name": "buyTokens",
      "outputs": [],
      "stateMutability": "payable",
      "type": "function"
    },
    {
      "inputs": [],
      "name": "claimTokens",
      "outputs": [],
      "stateMutability": "nonpayable",
      "type": "function"
    },
    {
      "inputs": [
        {
          "internalType": "address",
          "name": "walletAddress",
          "type": "address"
        }
      ],
      "name": "getBalance",
      "outputs": [
        {
          "internalType": "uint256",
          "name": "",
          "type": "uint256"
        }
      ],
      "stateMutability": "view",
      "type": "function"
    },
    {
      "inputs": [],
      "name": "getContractBalance",
      "outputs": [
        {
          "internalType": "uint256",
          "name": "",
          "type": "uint256"
        },
        {
          "internalType": "uint256",
          "name": "",
          "type": "uint256"
        },
        {
          "internalType": "uint256",
          "name": "",
          "type": "uint256"
        }
      ],
      "stateMutability": "view",
      "type": "function"
    },
    {
      "inputs": [
        {
          "internalType": "address",
          "name": "walletAddress",
          "type": "address"
        }
      ],
      "name": "getLastClaimTime",
      "outputs": [
        {
          "internalType": "uint256",
          "name": "",
          "type": "uint256"
        }
      ],
      "stateMutability": "view",
      "type": "function"
    },
    {
      "inputs": [],
      "name": "getRemainingSlot",
      "outputs": [
        {
          "internalType": "uint256",
          "name": "",
          "type": "uint256"
        }
      ],
      "stateMutability": "view",
      "type": "function"
    },
    {
      "inputs": [],
      "name": "owner",
      "outputs": [
        {
          "internalType": "address",
          "name": "",
          "type": "address"
        }
      ],
      "stateMutability": "view",
      "type": "function"
    },
    {
      "inputs": [],
      "name": "refundMe",
      "outputs": [],
      "stateMutability": "nonpayable",
      "type": "function"
    },
    {
      "inputs": [
        {
          "internalType": "bytes32",
          "name": "rootHash",
          "type": "bytes32"
        }
      ],
      "name": "setMerkleRoot",
      "outputs": [],
      "stateMutability": "nonpayable",
      "type": "function"
    },
    {
      "inputs": [
        {
          "internalType": "contract IERC20",
          "name": "token",
          "type": "address"
        }
      ],
      "name": "setToken",
      "outputs": [],
      "stateMutability": "nonpayable",
      "type": "function"
    },
    {
      "inputs": [
        {
          "internalType": "uint256",
          "name": "totalSlot",
          "type": "uint256"
        }
      ],
      "name": "setTotalSlot",
      "outputs": [],
      "stateMutability": "nonpayable",
      "type": "function"
    },
    {
      "inputs": [
        {
          "internalType": "address payable",
          "name": "newWallet",
          "type": "address"
        }
      ],
      "name": "setWalletReceiver",
      "outputs": [],
      "stateMutability": "nonpayable",
      "type": "function"
    },
    {
      "inputs": [],
      "name": "startICO",
      "outputs": [],
      "stateMutability": "nonpayable",
      "type": "function"
    },
    {
      "inputs": [],
      "name": "stopICO",
      "outputs": [],
      "stateMutability": "nonpayable",
      "type": "function"
    },
    {
      "inputs": [],
      "name": "takeBackFreeTokens",
      "outputs": [],
      "stateMutability": "nonpayable",
      "type": "function"
    },
    {
      "inputs": [
        {
          "internalType": "address",
          "name": "newOwner",
          "type": "address"
        }
      ],
      "name": "transferOwnership",
      "outputs": [],
      "stateMutability": "nonpayable",
      "type": "function"
    },
    {
      "inputs": [],
      "name": "weiRaised",
      "outputs": [
        {
          "internalType": "uint256",
          "name": "",
          "type": "uint256"
        }
      ],
      "stateMutability": "view",
      "type": "function"
    },
    {
      "inputs": [],
      "name": "withdraw",
      "outputs": [],
      "stateMutability": "nonpayable",
      "type": "function"
    }
  ],
  "bytecode": "0x60806040527feb66f47ed8137c4e133867bd38032b772649aa20ff31ee35a0f9d16808c040d860001b60025560006004556000600c60006101000a81548160ff0219169083151502179055503480156200005857600080fd5b50604051620048713803806200487183398181016040528101906200007e9190620002cd565b60016000819055506000620000986200029760201b60201c565b905080600160006101000a81548173ffffffffffffffffffffffffffffffffffffffff021916908373ffffffffffffffffffffffffffffffffffffffff1602179055508073ffffffffffffffffffffffffffffffffffffffff16600073ffffffffffffffffffffffffffffffffffffffff167f8be0079c531659141344cd1fd0a4f28419497f9722a3daafe3b4186f6b6457e060405160405180910390a350600073ffffffffffffffffffffffffffffffffffffffff168373ffffffffffffffffffffffffffffffffffffffff161415620001aa576040517f08c379a0000000000000000000000000000000000000000000000000000000008152600401620001a190620003e2565b60405180910390fd5b60008111620001f0576040517f08c379a0000000000000000000000000000000000000000000000000000000008152600401620001e7906200039e565b60405180910390fd5b600082141562000237576040517f08c379a00000000000000000000000000000000000000000000000000000000081526004016200022e90620003c0565b60405180910390fd5b82600660006101000a81548173ffffffffffffffffffffffffffffffffffffffff021916908373ffffffffffffffffffffffffffffffffffffffff1602179055508060078190555060006009819055508160088190555050505062000553565b600033905090565b600081519050620002b0816200051f565b92915050565b600081519050620002c78162000539565b92915050565b600080600060608486031215620002e957620002e862000453565b5b6000620002f9868287016200029f565b93505060206200030c86828701620002b6565b92505060406200031f86828701620002b6565b9150509250925092565b600062000338601a8362000404565b9150620003458262000458565b602082019050919050565b60006200035f602f8362000404565b91506200036c8262000481565b604082019050919050565b60006200038660288362000404565b91506200039382620004d0565b604082019050919050565b60006020820190508181036000830152620003b98162000329565b9050919050565b60006020820190508181036000830152620003db8162000350565b9050919050565b60006020820190508181036000830152620003fd8162000377565b9050919050565b600082825260208201905092915050565b6000620004228262000429565b9050919050565b600073ffffffffffffffffffffffffffffffffffffffff82169050919050565b6000819050919050565b600080fd5b7f507269766174652053616c653a2072617465206973207a65726f000000000000600082015250565b7f507269766174652053616c653a20746f74616c20736c6f74206d75737420626560008201527f2067726561746572207468616e20300000000000000000000000000000000000602082015250565b7f507269766174652053616c653a2077616c6c657420697320746865207a65726f60008201527f2061646472657373000000000000000000000000000000000000000000000000602082015250565b6200052a8162000415565b81146200053657600080fd5b50565b620005448162000449565b81146200055057600080fd5b50565b61430e80620005636000396000f3fe6080604052600436106101f95760003560e01c806383bebced1161010d578063c1fcd9d3116100a0578063ecd0c0c31161006f578063ecd0c0c314610676578063f2fde38b146106a1578063f3ca40b6146106ca578063f8b2cb4f146106f5578063fa1acb5c14610732576101f9565b8063c1fcd9d3146105f4578063c8e569a81461060b578063d572d5f714610622578063ddaa26ad1461064b576101f9565b8063a680e0bc116100dc578063a680e0bc14610545578063ab26947414610582578063ab98089f146105ad578063b652dc2f146105c9576101f9565b806383bebced1461049b5780638da5cb5b146104c65780638fd9bf37146104f157806394a5aa8d1461051a576101f9565b806348c54b9d116101905780636570f4651161015f5780636570f465146103c45780636f9fb98a146103ef5780637cb647591461041c5780637fa8c1581461044557806382b7de281461045c576101f9565b806348c54b9d146103405780635a9e426b14610357578063610757e41461036e5780636283188c14610399576101f9565b80633ccfd60b116101cc5780633ccfd60b146102a85780634042b66f146102bf57806340b17fbd146102ea57806340d4895814610315576101f9565b80630cb6b577146101fe5780630d26349714610229578063144fa6d71461025457806337ba682d1461027d575b600080fd5b34801561020a57600080fd5b5061021361075d565b60405161022091906134d9565b60405180910390f35b34801561023557600080fd5b5061023e610762565b60405161024b91906134d9565b60405180910390f35b34801561026057600080fd5b5061027b60048036038101906102769190612b70565b610768565b005b34801561028957600080fd5b506102926108f7565b60405161029f91906134d9565b60405180910390f35b3480156102b457600080fd5b506102bd6108ff565b005b3480156102cb57600080fd5b506102d4610b70565b6040516102e191906134d9565b60405180910390f35b3480156102f657600080fd5b506102ff610b7a565b60405161030c91906134d9565b60405180910390f35b34801561032157600080fd5b5061032a610b80565b60405161033791906134d9565b60405180910390f35b34801561034c57600080fd5b50610355610b86565b005b34801561036357600080fd5b5061036c610fb4565b005b34801561037a57600080fd5b50610383611140565b6040516103909190613074565b60405180910390f35b3480156103a557600080fd5b506103ae611166565b6040516103bb9190613141565b60405180910390f35b3480156103d057600080fd5b506103d961116c565b6040516103e691906134d9565b60405180910390f35b3480156103fb57600080fd5b50610404611171565b604051610413939291906134f4565b60405180910390f35b34801561042857600080fd5b50610443600480360381019061043e9190612b43565b6113df565b005b34801561045157600080fd5b5061045a6114c6565b005b34801561046857600080fd5b50610483600480360381019061047e9190612a6f565b611622565b604051610492939291906134f4565b60405180910390f35b3480156104a757600080fd5b506104b061164c565b6040516104bd91906134d9565b60405180910390f35b3480156104d257600080fd5b506104db611652565b6040516104e89190613059565b60405180910390f35b3480156104fd57600080fd5b5061051860048036038101906105139190612b9d565b61167c565b005b34801561052657600080fd5b5061052f611763565b60405161053c91906134d9565b60405180910390f35b34801561055157600080fd5b5061056c60048036038101906105679190612a6f565b611769565b60405161057991906134d9565b60405180910390f35b34801561058e57600080fd5b506105976117b5565b6040516105a491906134d9565b60405180910390f35b6105c760048036038101906105c29190612ac9565b61180b565b005b3480156105d557600080fd5b506105de6119ec565b6040516105eb91906134d9565b60405180910390f35b34801561060057600080fd5b506106096119f8565b005b34801561061757600080fd5b50610620611daf565b005b34801561062e57600080fd5b5061064960048036038101906106449190612a9c565b611ef7565b005b34801561065757600080fd5b50610660611fd2565b60405161066d91906134d9565b60405180910390f35b34801561068257600080fd5b5061068b611fda565b604051610698919061315c565b60405180910390f35b3480156106ad57600080fd5b506106c860048036038101906106c39190612a6f565b612000565b005b3480156106d657600080fd5b506106df6121c7565b6040516106ec9190613126565b60405180910390f35b34801561070157600080fd5b5061071c60048036038101906107179190612a6f565b6121da565b60405161072991906134d9565b60405180910390f35b34801561073e57600080fd5b50610747612226565b60405161075491906134d9565b60405180910390f35b601281565b60085481565b61077061222c565b73ffffffffffffffffffffffffffffffffffffffff16600160009054906101000a900473ffffffffffffffffffffffffffffffffffffffff1673ffffffffffffffffffffffffffffffffffffffff16146107ff576040517f08c379a00000000000000000000000000000000000000000000000000000000081526004016107f6906133b9565b60405180910390fd5b42600a5410610843576040517f08c379a000000000000000000000000000000000000000000000000000000000815260040161083a90613419565b60405180910390fd5b600073ffffffffffffffffffffffffffffffffffffffff168173ffffffffffffffffffffffffffffffffffffffff1614156108b3576040517f08c379a00000000000000000000000000000000000000000000000000000000081526004016108aa90613299565b60405180910390fd5b80600560006101000a81548173ffffffffffffffffffffffffffffffffffffffff021916908373ffffffffffffffffffffffffffffffffffffffff16021790555050565b6362ca377d81565b61090761222c565b73ffffffffffffffffffffffffffffffffffffffff16600160009054906101000a900473ffffffffffffffffffffffffffffffffffffffff1673ffffffffffffffffffffffffffffffffffffffff1614610996576040517f08c379a000000000000000000000000000000000000000000000000000000000815260040161098d906133b9565b60405180910390fd5b42600a54106109da576040517f08c379a00000000000000000000000000000000000000000000000000000000081526004016109d190613419565b60405180910390fd5b600073ffffffffffffffffffffffffffffffffffffffff16600560009054906101000a900473ffffffffffffffffffffffffffffffffffffffff1673ffffffffffffffffffffffffffffffffffffffff161415610a6c576040517f08c379a0000000000000000000000000000000000000000000000000000000008152600401610a6390613339565b60405180910390fd5b60001515600c60009054906101000a900460ff16151514610ac2576040517f08c379a0000000000000000000000000000000000000000000000000000000008152600401610ab9906131d9565b60405180910390fd5b60004711610b05576040517f08c379a0000000000000000000000000000000000000000000000000000000008152600401610afc90613459565b60405180910390fd5b600660009054906101000a900473ffffffffffffffffffffffffffffffffffffffff1673ffffffffffffffffffffffffffffffffffffffff166108fc479081150290604051600060405180830381858888f19350505050158015610b6d573d6000803e3d6000fd5b50565b6000600954905090565b60045481565b600a5481565b42600a5410610bca576040517f08c379a0000000000000000000000000000000000000000000000000000000008152600401610bc190613419565b60405180910390fd5b600073ffffffffffffffffffffffffffffffffffffffff16600560009054906101000a900473ffffffffffffffffffffffffffffffffffffffff1673ffffffffffffffffffffffffffffffffffffffff161415610c5c576040517f08c379a0000000000000000000000000000000000000000000000000000000008152600401610c5390613339565b60405180910390fd5b6000600360003373ffffffffffffffffffffffffffffffffffffffff1673ffffffffffffffffffffffffffffffffffffffff1681526020019081526020016000206000015411610ce1576040517f08c379a0000000000000000000000000000000000000000000000000000000008152600401610cd890613359565b60405180910390fd5b6000600360003373ffffffffffffffffffffffffffffffffffffffff1673ffffffffffffffffffffffffffffffffffffffff1681526020019081526020016000206001015411610d66576040517f08c379a0000000000000000000000000000000000000000000000000000000008152600401610d5d90613239565b60405180910390fd5b60001515600c60009054906101000a900460ff16151514610dbc576040517f08c379a0000000000000000000000000000000000000000000000000000000008152600401610db390613319565b60405180910390fd5b6000610dc733612234565b90506000811415610e0d576040517f08c379a0000000000000000000000000000000000000000000000000000000008152600401610e0490613199565b60405180910390fd5b80600360003373ffffffffffffffffffffffffffffffffffffffff1673ffffffffffffffffffffffffffffffffffffffff16815260200190815260200160002060010154610e5b9190613799565b600360003373ffffffffffffffffffffffffffffffffffffffff1673ffffffffffffffffffffffffffffffffffffffff1681526020019081526020016000206001018190555042600360003373ffffffffffffffffffffffffffffffffffffffff1673ffffffffffffffffffffffffffffffffffffffff168152602001908152602001600020600201819055508060046000828254610efa9190613547565b92505081905550600560009054906101000a900473ffffffffffffffffffffffffffffffffffffffff1673ffffffffffffffffffffffffffffffffffffffff1663a9059cbb33836040518363ffffffff1660e01b8152600401610f5e9291906130fd565b602060405180830381600087803b158015610f7857600080fd5b505af1158015610f8c573d6000803e3d6000fd5b505050506040513d601f19601f82011682018060405250810190610fb09190612b16565b5050565b42600a5410610ff8576040517f08c379a0000000000000000000000000000000000000000000000000000000008152600401610fef90613419565b60405180910390fd5b60011515600c60009054906101000a900460ff1615151461104e576040517f08c379a000000000000000000000000000000000000000000000000000000000815260040161104590613479565b60405180910390fd5b6000670de0b6b3a76400006001611065919061373f565b905080471061113d576000600360003373ffffffffffffffffffffffffffffffffffffffff1673ffffffffffffffffffffffffffffffffffffffff1681526020019081526020016000206001018190555060003390508073ffffffffffffffffffffffffffffffffffffffff166108fc839081150290604051600060405180830381858888f19350505050158015611101573d6000803e3d6000fd5b507fbb28353e4598c3b9199101a66e0989549b659a59a54d2c27fbb183f1932c8e6d33836040516111339291906130fd565b60405180910390a1505b50565b600660009054906101000a900473ffffffffffffffffffffffffffffffffffffffff1681565b60025481565b600181565b60008060008047905060008073ffffffffffffffffffffffffffffffffffffffff16600560009054906101000a900473ffffffffffffffffffffffffffffffffffffffff1673ffffffffffffffffffffffffffffffffffffffff1614156111d9576000611285565b600560009054906101000a900473ffffffffffffffffffffffffffffffffffffffff1673ffffffffffffffffffffffffffffffffffffffff166370a08231306040518263ffffffff1660e01b81526004016112349190613059565b60206040518083038186803b15801561124c57600080fd5b505afa158015611260573d6000803e3d6000fd5b505050506040513d601f19601f820116820180604052508101906112849190612bca565b5b90506000801515600c60009054906101000a900460ff161515146112aa5760006112b3565b6112b2612384565b5b905060008073ffffffffffffffffffffffffffffffffffffffff16600560009054906101000a900473ffffffffffffffffffffffffffffffffffffffff1673ffffffffffffffffffffffffffffffffffffffff1614156113145760006113cb565b81600560009054906101000a900473ffffffffffffffffffffffffffffffffffffffff1673ffffffffffffffffffffffffffffffffffffffff166370a08231306040518263ffffffff1660e01b81526004016113709190613059565b60206040518083038186803b15801561138857600080fd5b505afa15801561139c573d6000803e3d6000fd5b505050506040513d601f19601f820116820180604052508101906113c09190612bca565b6113ca9190613799565b5b905083838296509650965050505050909192565b6113e761222c565b73ffffffffffffffffffffffffffffffffffffffff16600160009054906101000a900473ffffffffffffffffffffffffffffffffffffffff1673ffffffffffffffffffffffffffffffffffffffff1614611476576040517f08c379a000000000000000000000000000000000000000000000000000000000815260040161146d906133b9565b60405180910390fd5b6000801b8114156114bc576040517f08c379a00000000000000000000000000000000000000000000000000000000081526004016114b390613259565b60405180910390fd5b8060028190555050565b6114ce61222c565b73ffffffffffffffffffffffffffffffffffffffff16600160009054906101000a900473ffffffffffffffffffffffffffffffffffffffff1673ffffffffffffffffffffffffffffffffffffffff161461155d576040517f08c379a0000000000000000000000000000000000000000000000000000000008152600401611554906133b9565b60405180910390fd5b42600a54106115a1576040517f08c379a000000000000000000000000000000000000000000000000000000000815260040161159890613419565b60405180910390fd5b426362ca377d116115e7576040517f08c379a00000000000000000000000000000000000000000000000000000000081526004016115de906132b9565b60405180910390fd5b6362ca377d600a819055506362bdd68f600b8190555060006009819055506000600c60006101000a81548160ff021916908315150217905550565b60036020528060005260406000206000915090508060000154908060010154908060020154905083565b60075481565b6000600160009054906101000a900473ffffffffffffffffffffffffffffffffffffffff16905090565b61168461222c565b73ffffffffffffffffffffffffffffffffffffffff16600160009054906101000a900473ffffffffffffffffffffffffffffffffffffffff1673ffffffffffffffffffffffffffffffffffffffff1614611713576040517f08c379a000000000000000000000000000000000000000000000000000000000815260040161170a906133b9565b60405180910390fd5b60006008541415611759576040517f08c379a000000000000000000000000000000000000000000000000000000000815260040161175090613379565b60405180910390fd5b8060088190555050565b60095481565b6000600360008373ffffffffffffffffffffffffffffffffffffffff1673ffffffffffffffffffffffffffffffffffffffff168152602001908152602001600020600201549050919050565b6000806117e8670de0b6b3a76400006117da60016009546123a890919063ffffffff16565b6123a890919063ffffffff16565b90506000611801826008546123f290919063ffffffff16565b9050809250505090565b60026000541415611851576040517f08c379a000000000000000000000000000000000000000000000000000000000815260040161184890613499565b60405180910390fd5b60026000819055506000600a5411801561186c5750600a5442105b8015611879575042600b54105b801561188757506000600854115b6118c6576040517f08c379a00000000000000000000000000000000000000000000000000000000081526004016118bd906134b9565b60405180910390fd5b60006118d061222c565b905060003490506118e38285858461243c565b60006118ee82612690565b9050611905826009546126d890919063ffffffff16565b60098190555080600360008573ffffffffffffffffffffffffffffffffffffffff1673ffffffffffffffffffffffffffffffffffffffff1681526020019081526020016000206001018190555080600360008573ffffffffffffffffffffffffffffffffffffffff1673ffffffffffffffffffffffffffffffffffffffff168152602001908152602001600020600001819055507f6faf93231a456e552dbc9961f58d9713ee4f2e69d15f1975b050ef0911053a7b6119c261222c565b8484846040516119d5949392919061308f565b60405180910390a150505060016000819055505050565b670de0b6b3a764000081565b611a0061222c565b73ffffffffffffffffffffffffffffffffffffffff16600160009054906101000a900473ffffffffffffffffffffffffffffffffffffffff1673ffffffffffffffffffffffffffffffffffffffff1614611a8f576040517f08c379a0000000000000000000000000000000000000000000000000000000008152600401611a86906133b9565b60405180910390fd5b42600a5410611ad3576040517f08c379a0000000000000000000000000000000000000000000000000000000008152600401611aca90613419565b60405180910390fd5b600073ffffffffffffffffffffffffffffffffffffffff16600560009054906101000a900473ffffffffffffffffffffffffffffffffffffffff1673ffffffffffffffffffffffffffffffffffffffff161415611b65576040517f08c379a0000000000000000000000000000000000000000000000000000000008152600401611b5c90613299565b60405180910390fd5b6000801515600c60009054906101000a900460ff16151514611b88576000611b91565b611b90612384565b5b90506000600560009054906101000a900473ffffffffffffffffffffffffffffffffffffffff1673ffffffffffffffffffffffffffffffffffffffff166370a08231306040518263ffffffff1660e01b8152600401611bf09190613059565b60206040518083038186803b158015611c0857600080fd5b505afa158015611c1c573d6000803e3d6000fd5b505050506040513d601f19601f82011682018060405250810190611c409190612bca565b905060008111611c85576040517f08c379a0000000000000000000000000000000000000000000000000000000008152600401611c7c906132d9565b60405180910390fd5b60008282611c939190613799565b905060008111611cd8576040517f08c379a0000000000000000000000000000000000000000000000000000000008152600401611ccf906132f9565b60405180910390fd5b600560009054906101000a900473ffffffffffffffffffffffffffffffffffffffff1673ffffffffffffffffffffffffffffffffffffffff1663a9059cbb600660009054906101000a900473ffffffffffffffffffffffffffffffffffffffff16836040518363ffffffff1660e01b8152600401611d579291906130d4565b602060405180830381600087803b158015611d7157600080fd5b505af1158015611d85573d6000803e3d6000fd5b505050506040513d601f19601f82011682018060405250810190611da99190612b16565b50505050565b611db761222c565b73ffffffffffffffffffffffffffffffffffffffff16600160009054906101000a900473ffffffffffffffffffffffffffffffffffffffff1673ffffffffffffffffffffffffffffffffffffffff1614611e46576040517f08c379a0000000000000000000000000000000000000000000000000000000008152600401611e3d906133b9565b60405180910390fd5b6000600a54118015611e595750600a5442105b8015611e66575042600b54105b8015611e7457506000600854115b611eb3576040517f08c379a0000000000000000000000000000000000000000000000000000000008152600401611eaa906134b9565b60405180910390fd5b6000600a81905550670de0b6b3a764000060095410611ed957611ed4612736565b611ef5565b6001600c60006101000a81548160ff0219169083151502179055505b565b611eff61222c565b73ffffffffffffffffffffffffffffffffffffffff16600160009054906101000a900473ffffffffffffffffffffffffffffffffffffffff1673ffffffffffffffffffffffffffffffffffffffff1614611f8e576040517f08c379a0000000000000000000000000000000000000000000000000000000008152600401611f85906133b9565b60405180910390fd5b80600660006101000a81548173ffffffffffffffffffffffffffffffffffffffff021916908373ffffffffffffffffffffffffffffffffffffffff16021790555050565b6362bdd68f81565b600560009054906101000a900473ffffffffffffffffffffffffffffffffffffffff1681565b61200861222c565b73ffffffffffffffffffffffffffffffffffffffff16600160009054906101000a900473ffffffffffffffffffffffffffffffffffffffff1673ffffffffffffffffffffffffffffffffffffffff1614612097576040517f08c379a000000000000000000000000000000000000000000000000000000000815260040161208e906133b9565b60405180910390fd5b600073ffffffffffffffffffffffffffffffffffffffff168173ffffffffffffffffffffffffffffffffffffffff161415612107576040517f08c379a00000000000000000000000000000000000000000000000000000000081526004016120fe906131f9565b60405180910390fd5b8073ffffffffffffffffffffffffffffffffffffffff16600160009054906101000a900473ffffffffffffffffffffffffffffffffffffffff1673ffffffffffffffffffffffffffffffffffffffff167f8be0079c531659141344cd1fd0a4f28419497f9722a3daafe3b4186f6b6457e060405160405180910390a380600160006101000a81548173ffffffffffffffffffffffffffffffffffffffff021916908373ffffffffffffffffffffffffffffffffffffffff16021790555050565b600c60009054906101000a900460ff1681565b6000600360008373ffffffffffffffffffffffffffffffffffffffff1673ffffffffffffffffffffffffffffffffffffffff168152602001908152602001600020600101549050919050565b600b5481565b600033905090565b6000804290506000600360003373ffffffffffffffffffffffffffffffffffffffff1673ffffffffffffffffffffffffffffffffffffffff16815260200190815260200160002060020154905060006018603c8084866122949190613799565b61229e919061359d565b6122a8919061359d565b6122b2919061359d565b9050600082141561231657600a600360003373ffffffffffffffffffffffffffffffffffffffff1673ffffffffffffffffffffffffffffffffffffffff1681526020019081526020016000206000015461230c919061359d565b935050505061237f565b601e8110612377576014600360003373ffffffffffffffffffffffffffffffffffffffff1673ffffffffffffffffffffffffffffffffffffffff1681526020019081526020016000206000015461236d919061359d565b935050505061237f565b600093505050505b919050565b600080612392600954612690565b9050600454816123a29190613799565b91505090565b60006123ea83836040518060400160405280601a81526020017f536166654d6174683a206469766973696f6e206279207a65726f0000000000008152506127a1565b905092915050565b600061243483836040518060400160405280601e81526020017f536166654d6174683a207375627472616374696f6e206f766572666c6f770000815250612804565b905092915050565b600073ffffffffffffffffffffffffffffffffffffffff168473ffffffffffffffffffffffffffffffffffffffff1614156124ac576040517f08c379a00000000000000000000000000000000000000000000000000000000081526004016124a390613439565b60405180910390fd5b6000336040516020016124bf919061303e565b604051602081830303815290604052805190602001209050612525848480806020026020016040519081016040528093929190818152602001838360200280828437600081840152601f19601f8201169050808301925050505050505060025483612868565b612564576040517f08c379a000000000000000000000000000000000000000000000000000000000815260040161255b906133f9565b60405180910390fd5b6000600360003373ffffffffffffffffffffffffffffffffffffffff1673ffffffffffffffffffffffffffffffffffffffff16815260200190815260200160002060010154146125e9576040517f08c379a00000000000000000000000000000000000000000000000000000000081526004016125e0906131b9565b60405180910390fd5b670de0b6b3a764000060016125fe919061373f565b821461263f576040517f08c379a0000000000000000000000000000000000000000000000000000000008152600401612636906133d9565b60405180910390fd5b60006126496117b5565b11612689576040517f08c379a000000000000000000000000000000000000000000000000000000000815260040161268090613279565b60405180910390fd5b5050505050565b60006126d16012806126a29190613799565b600a6126ae9190613621565b6126c36007548561287f90919063ffffffff16565b6123a890919063ffffffff16565b9050919050565b60008082846126e79190613547565b90508381101561272c576040517f08c379a000000000000000000000000000000000000000000000000000000000815260040161272390613219565b60405180910390fd5b8091505092915050565b600660009054906101000a900473ffffffffffffffffffffffffffffffffffffffff1673ffffffffffffffffffffffffffffffffffffffff166108fc349081150290604051600060405180830381858888f1935050505015801561279e573d6000803e3d6000fd5b50565b600080831182906127e8576040517f08c379a00000000000000000000000000000000000000000000000000000000081526004016127df9190613177565b60405180910390fd5b50600083856127f7919061359d565b9050809150509392505050565b600083831115829061284c576040517f08c379a00000000000000000000000000000000000000000000000000000000081526004016128439190613177565b60405180910390fd5b506000838561285b9190613799565b9050809150509392505050565b60008261287585846128fa565b1490509392505050565b60008083141561289257600090506128f4565b600082846128a0919061373f565b90508284826128af919061359d565b146128ef576040517f08c379a00000000000000000000000000000000000000000000000000000000081526004016128e690613399565b60405180910390fd5b809150505b92915050565b60008082905060005b845181101561296457600085828151811061292157612920613989565b5b602002602001015190508083116129435761293c838261296f565b9250612950565b61294d818461296f565b92505b50808061295c906138be565b915050612903565b508091505092915050565b600082600052816020526040600020905092915050565b6000813590506129958161424e565b92915050565b6000813590506129aa81614265565b92915050565b60008083601f8401126129c6576129c56139bd565b5b8235905067ffffffffffffffff8111156129e3576129e26139b8565b5b6020830191508360208202830111156129ff576129fe6139c2565b5b9250929050565b600081519050612a158161427c565b92915050565b600081359050612a2a81614293565b92915050565b600081359050612a3f816142aa565b92915050565b600081359050612a54816142c1565b92915050565b600081519050612a69816142c1565b92915050565b600060208284031215612a8557612a846139cc565b5b6000612a9384828501612986565b91505092915050565b600060208284031215612ab257612ab16139cc565b5b6000612ac08482850161299b565b91505092915050565b60008060208385031215612ae057612adf6139cc565b5b600083013567ffffffffffffffff811115612afe57612afd6139c7565b5b612b0a858286016129b0565b92509250509250929050565b600060208284031215612b2c57612b2b6139cc565b5b6000612b3a84828501612a06565b91505092915050565b600060208284031215612b5957612b586139cc565b5b6000612b6784828501612a1b565b91505092915050565b600060208284031215612b8657612b856139cc565b5b6000612b9484828501612a30565b91505092915050565b600060208284031215612bb357612bb26139cc565b5b6000612bc184828501612a45565b91505092915050565b600060208284031215612be057612bdf6139cc565b5b6000612bee84828501612a5a565b91505092915050565b612c0081613843565b82525050565b612c0f816137df565b82525050565b612c1e816137cd565b82525050565b612c35612c30826137cd565b613907565b82525050565b612c44816137f1565b82525050565b612c53816137fd565b82525050565b612c6281613855565b82525050565b6000612c738261352b565b612c7d8185613536565b9350612c8d81856020860161388b565b612c96816139d1565b840191505092915050565b6000612cae603a83613536565b9150612cb9826139fc565b604082019050919050565b6000612cd1602c83613536565b9150612cdc82613a4b565b604082019050919050565b6000612cf4604783613536565b9150612cff82613a9a565b606082019050919050565b6000612d17602683613536565b9150612d2282613b0f565b604082019050919050565b6000612d3a601b83613536565b9150612d4582613b5e565b602082019050919050565b6000612d5d602983613536565b9150612d6882613b87565b604082019050919050565b6000612d80602b83613536565b9150612d8b82613bd6565b604082019050919050565b6000612da3602783613536565b9150612dae82613c25565b604082019050919050565b6000612dc6602783613536565b9150612dd182613c74565b604082019050919050565b6000612de9602183613536565b9150612df482613cc3565b604082019050919050565b6000612e0c601e83613536565b9150612e1782613d12565b602082019050919050565b6000612e2f602883613536565b9150612e3a82613d3b565b604082019050919050565b6000612e52604d83613536565b9150612e5d82613d8a565b606082019050919050565b6000612e75602783613536565b9150612e8082613dff565b604082019050919050565b6000612e98604483613536565b9150612ea382613e4e565b606082019050919050565b6000612ebb602f83613536565b9150612ec682613ec3565b604082019050919050565b6000612ede602183613536565b9150612ee982613f12565b604082019050919050565b6000612f01602083613536565b9150612f0c82613f61565b602082019050919050565b6000612f24604283613536565b9150612f2f82613f8a565b606082019050919050565b6000612f47602d83613536565b9150612f5282613fff565b604082019050919050565b6000612f6a604583613536565b9150612f758261404e565b606082019050919050565b6000612f8d602d83613536565b9150612f98826140c3565b604082019050919050565b6000612fb0602883613536565b9150612fbb82614112565b604082019050919050565b6000612fd3602583613536565b9150612fde82614161565b604082019050919050565b6000612ff6601f83613536565b9150613001826141b0565b602082019050919050565b6000613019604783613536565b9150613024826141d9565b606082019050919050565b61303881613839565b82525050565b600061304a8284612c24565b60148201915081905092915050565b600060208201905061306e6000830184612c15565b92915050565b60006020820190506130896000830184612c06565b92915050565b60006080820190506130a46000830187612bf7565b6130b16020830186612c15565b6130be604083018561302f565b6130cb606083018461302f565b95945050505050565b60006040820190506130e96000830185612bf7565b6130f6602083018461302f565b9392505050565b60006040820190506131126000830185612c15565b61311f602083018461302f565b9392505050565b600060208201905061313b6000830184612c3b565b92915050565b60006020820190506131566000830184612c4a565b92915050565b60006020820190506131716000830184612c59565b92915050565b600060208201905081810360008301526131918184612c68565b905092915050565b600060208201905081810360008301526131b281612ca1565b9050919050565b600060208201905081810360008301526131d281612cc4565b9050919050565b600060208201905081810360008301526131f281612ce7565b9050919050565b6000602082019050818103600083015261321281612d0a565b9050919050565b6000602082019050818103600083015261323281612d2d565b9050919050565b6000602082019050818103600083015261325281612d50565b9050919050565b6000602082019050818103600083015261327281612d73565b9050919050565b6000602082019050818103600083015261329281612d96565b9050919050565b600060208201905081810360008301526132b281612db9565b9050919050565b600060208201905081810360008301526132d281612ddc565b9050919050565b600060208201905081810360008301526132f281612dff565b9050919050565b6000602082019050818103600083015261331281612e22565b9050919050565b6000602082019050818103600083015261333281612e45565b9050919050565b6000602082019050818103600083015261335281612e68565b9050919050565b6000602082019050818103600083015261337281612e8b565b9050919050565b6000602082019050818103600083015261339281612eae565b9050919050565b600060208201905081810360008301526133b281612ed1565b9050919050565b600060208201905081810360008301526133d281612ef4565b9050919050565b600060208201905081810360008301526133f281612f17565b9050919050565b6000602082019050818103600083015261341281612f3a565b9050919050565b6000602082019050818103600083015261343281612f5d565b9050919050565b6000602082019050818103600083015261345281612f80565b9050919050565b6000602082019050818103600083015261347281612fa3565b9050919050565b6000602082019050818103600083015261349281612fc6565b9050919050565b600060208201905081810360008301526134b281612fe9565b9050919050565b600060208201905081810360008301526134d28161300c565b9050919050565b60006020820190506134ee600083018461302f565b92915050565b6000606082019050613509600083018661302f565b613516602083018561302f565b613523604083018461302f565b949350505050565b600081519050919050565b600082825260208201905092915050565b600061355282613839565b915061355d83613839565b9250827fffffffffffffffffffffffffffffffffffffffffffffffffffffffffffffffff038211156135925761359161392b565b5b828201905092915050565b60006135a882613839565b91506135b383613839565b9250826135c3576135c261395a565b5b828204905092915050565b6000808291508390505b6001851115613618578086048111156135f4576135f361392b565b5b60018516156136035780820291505b8081029050613611856139ef565b94506135d8565b94509492505050565b600061362c82613839565b915061363783613839565b92506136647fffffffffffffffffffffffffffffffffffffffffffffffffffffffffffffffff848461366c565b905092915050565b60008261367c5760019050613738565b8161368a5760009050613738565b81600181146136a057600281146136aa576136d9565b6001915050613738565b60ff8411156136bc576136bb61392b565b5b8360020a9150848211156136d3576136d261392b565b5b50613738565b5060208310610133831016604e8410600b841016171561370e5782820a9050838111156137095761370861392b565b5b613738565b61371b84848460016135ce565b925090508184048111156137325761373161392b565b5b81810290505b9392505050565b600061374a82613839565b915061375583613839565b9250817fffffffffffffffffffffffffffffffffffffffffffffffffffffffffffffffff048311821515161561378e5761378d61392b565b5b828202905092915050565b60006137a482613839565b91506137af83613839565b9250828210156137c2576137c161392b565b5b828203905092915050565b60006137d882613819565b9050919050565b60006137ea82613819565b9050919050565b60008115159050919050565b6000819050919050565b6000613812826137cd565b9050919050565b600073ffffffffffffffffffffffffffffffffffffffff82169050919050565b6000819050919050565b600061384e82613867565b9050919050565b600061386082613867565b9050919050565b600061387282613879565b9050919050565b600061388482613819565b9050919050565b60005b838110156138a957808201518184015260208101905061388e565b838111156138b8576000848401525b50505050565b60006138c982613839565b91507fffffffffffffffffffffffffffffffffffffffffffffffffffffffffffffffff8214156138fc576138fb61392b565b5b600182019050919050565b600061391282613919565b9050919050565b6000613924826139e2565b9050919050565b7f4e487b7100000000000000000000000000000000000000000000000000000000600052601160045260246000fd5b7f4e487b7100000000000000000000000000000000000000000000000000000000600052601260045260246000fd5b7f4e487b7100000000000000000000000000000000000000000000000000000000600052603260045260246000fd5b600080fd5b600080fd5b600080fd5b600080fd5b600080fd5b6000601f19601f8301169050919050565b60008160601b9050919050565b60008160011c9050919050565b7f546f6b656e20636c61696d207472616e73616374696f6e7320617265206c696d60008201527f6974656420746f206f6e63652065766572792033302064617973000000000000602082015250565b7f507269766174652053616c653a2043616e206e6f7420627579206d6f7265207460008201527f68616e206f6e652074696d650000000000000000000000000000000000000000602082015250565b7f507269766174652053616c653a2043616e206e6f742077697468647261772c2060008201527f736f667420636170206e6f7420726561636865642c20726566756e642069732060208201527f7374617274656400000000000000000000000000000000000000000000000000604082015250565b7f4f776e61626c653a206e6577206f776e657220697320746865207a65726f206160008201527f6464726573730000000000000000000000000000000000000000000000000000602082015250565b7f536166654d6174683a206164646974696f6e206f766572666c6f770000000000600082015250565b7f507269766174652053616c653a20796f752068617665206e6f20746f6b656e7360008201527f20746f20636c61696d0000000000000000000000000000000000000000000000602082015250565b7f507269766174652053616c653a20526f6f74206861736820697320746865207a60008201527f65726f2062797465733332000000000000000000000000000000000000000000602082015250565b7f507269766174652053616c653a204e6f2073616c6520736c6f7420697320617660008201527f61696c61626c6500000000000000000000000000000000000000000000000000602082015250565b7f507269766174652053616c653a20546f6b656e20697320746865207a65726f2060008201527f6164647265737300000000000000000000000000000000000000000000000000602082015250565b7f4475726174696f6e2073686f756c642062652067726561746572207468616e2060008201527f3000000000000000000000000000000000000000000000000000000000000000602082015250565b7f507269766174652053616c653a204d46472062616c616e636520697320300000600082015250565b7f507269766174652053616c653a204e6f206672656520746f6b656e206973206160008201527f7661696c61626c65000000000000000000000000000000000000000000000000602082015250565b7f507269766174652053616c653a2063616e206e6f7420636c61696d2c20736f6660008201527f7420636170206e6f7420726561636865642c20796f752063616e20726571756560208201527f737420726566756e64206e6f7700000000000000000000000000000000000000604082015250565b7f507269766174652053616c653a20746f6b656e20697320746865207a65726f2060008201527f6164647265737300000000000000000000000000000000000000000000000000602082015250565b7f507269766174652053616c653a20796f752068617665206e6f7420706172746960008201527f6369706174656420696e2074686973207072697661746520707572636861736560208201527f2079657400000000000000000000000000000000000000000000000000000000604082015250565b7f507269766174652053616c653a20546f74616c20736c6f74206d75737420626560008201527f2067726561746572207468616e20300000000000000000000000000000000000602082015250565b7f536166654d6174683a206d756c7469706c69636174696f6e206f766572666c6f60008201527f7700000000000000000000000000000000000000000000000000000000000000602082015250565b7f4f776e61626c653a2063616c6c6572206973206e6f7420746865206f776e6572600082015250565b7f507269766174652053616c653a20507269766174652073616c6520726f756e6460008201527f20726571756972652031353020474c4d5220666f72206f6e652070757263686160208201527f7365000000000000000000000000000000000000000000000000000000000000604082015250565b7f507269766174652053616c653a2042656e6566696369617279206973206e6f7460008201527f20696e2077686974656c69737400000000000000000000000000000000000000602082015250565b7f507269766174652053616c652069732063757272656e746c792041435449564560008201527f2c2063616e277420706572666f726d207468697320616374696f6e207269676860208201527f74206e6f77000000000000000000000000000000000000000000000000000000604082015250565b7f507269766174652053616c653a2042656e65666963696172792069732074686560008201527f207a65726f206164647265737300000000000000000000000000000000000000602082015250565b7f507269766174652053616c653a2043616e206e6f742077697468647261772c2060008201527f6e6f2066756e6473000000000000000000000000000000000000000000000000602082015250565b7f507269766174652053616c653a20526566756e64206973206e6f74206176616960008201527f6c61626c65000000000000000000000000000000000000000000000000000000602082015250565b7f5265656e7472616e637947756172643a207265656e7472616e742063616c6c00600082015250565b7f507269766174652053616c652069732063757272656e746c7920494e4143544960008201527f56452c2063616e277420706572666f726d207468697320616374696f6e20726960208201527f676874206e6f7700000000000000000000000000000000000000000000000000604082015250565b614257816137cd565b811461426257600080fd5b50565b61426e816137df565b811461427957600080fd5b50565b614285816137f1565b811461429057600080fd5b50565b61429c816137fd565b81146142a757600080fd5b50565b6142b381613807565b81146142be57600080fd5b50565b6142ca81613839565b81146142d557600080fd5b5056fea26469706673582212201d363fe0e6129398ccadd843de757d9fb39245649db9e044ccd91d123fe2079764736f6c63430008070033",
  "linkReferences": {},
  "deployedLinkReferences": {}
}