{
  "_format": "hh-sol-artifact-1",
  "contractName": "MFGPrivateSale",
  "sourceName": "contracts/MFGPrivateSale.sol",
  "abi": [
    {
      "inputs": [
        {
          "internalType": "address payable",
          "name": "wallet",
          "type": "address"
        },
        {
          "internalType": "address[]",
          "name": "whiteList",
          "type": "address[]"
        },
        {
          "internalType": "uint256",
          "name": "totalSlot",
          "type": "uint256"
        }
      ],
      "stateMutability": "nonpayable",
      "type": "constructor"
    },
    {
      "anonymous": false,
      "inputs": [
        {
          "indexed": true,
          "internalType": "address",
          "name": "previousOwner",
          "type": "address"
        },
        {
          "indexed": true,
          "internalType": "address",
          "name": "newOwner",
          "type": "address"
        }
      ],
      "name": "OwnershipTransferred",
      "type": "event"
    },
    {
      "anonymous": false,
      "inputs": [
        {
          "indexed": false,
          "internalType": "address",
          "name": "recipient",
          "type": "address"
        },
        {
          "indexed": false,
          "internalType": "uint256",
          "name": "amount",
          "type": "uint256"
        }
      ],
      "name": "Refund",
      "type": "event"
    },
    {
      "anonymous": false,
      "inputs": [
        {
          "indexed": false,
          "internalType": "address",
          "name": "purchaser",
          "type": "address"
        },
        {
          "indexed": false,
          "internalType": "address",
          "name": "beneficiary",
          "type": "address"
        },
        {
          "indexed": false,
          "internalType": "uint256",
          "name": "value",
          "type": "uint256"
        },
        {
          "indexed": false,
          "internalType": "uint256",
          "name": "amount",
          "type": "uint256"
        }
      ],
      "name": "TokensPurchased",
      "type": "event"
    },
    {
      "inputs": [],
      "name": "END_TIME",
      "outputs": [
        {
          "internalType": "uint256",
          "name": "",
          "type": "uint256"
        }
      ],
      "stateMutability": "view",
      "type": "function"
    },
    {
      "inputs": [],
      "name": "PAY_THRESHOLD",
      "outputs": [
        {
          "internalType": "uint256",
          "name": "",
          "type": "uint256"
        }
      ],
      "stateMutability": "view",
      "type": "function"
    },
    {
      "inputs": [],
      "name": "RATE",
      "outputs": [
        {
          "internalType": "uint256",
          "name": "",
          "type": "uint256"
        }
      ],
      "stateMutability": "view",
      "type": "function"
    },
    {
      "inputs": [],
      "name": "SOFT_CAP",
      "outputs": [
        {
          "internalType": "uint256",
          "name": "",
          "type": "uint256"
        }
      ],
      "stateMutability": "view",
      "type": "function"
    },
    {
      "inputs": [],
      "name": "START_TIME",
      "outputs": [
        {
          "internalType": "uint256",
          "name": "",
          "type": "uint256"
        }
      ],
      "stateMutability": "view",
      "type": "function"
    },
    {
      "inputs": [],
      "name": "TOKEN_DECIMAL",
      "outputs": [
        {
          "internalType": "uint256",
          "name": "",
          "type": "uint256"
        }
      ],
      "stateMutability": "view",
      "type": "function"
    },
    {
      "inputs": [
        {
          "internalType": "uint256",
          "name": "",
          "type": "uint256"
        }
      ],
      "name": "_addressList",
      "outputs": [
        {
          "internalType": "address",
          "name": "",
          "type": "address"
        }
      ],
      "stateMutability": "view",
      "type": "function"
    },
    {
      "inputs": [
        {
          "internalType": "address",
          "name": "",
          "type": "address"
        }
      ],
      "name": "_buyers",
      "outputs": [
        {
          "internalType": "uint256",
          "name": "totalToken",
          "type": "uint256"
        },
        {
          "internalType": "uint256",
          "name": "balance",
          "type": "uint256"
        },
        {
          "internalType": "uint256",
          "name": "lastClaim",
          "type": "uint256"
        }
      ],
      "stateMutability": "view",
      "type": "function"
    },
    {
      "inputs": [],
      "name": "_endTime",
      "outputs": [
        {
          "internalType": "uint256",
          "name": "",
          "type": "uint256"
        }
      ],
      "stateMutability": "view",
      "type": "function"
    },
    {
      "inputs": [],
      "name": "_startTime",
      "outputs": [
        {
          "internalType": "uint256",
          "name": "",
          "type": "uint256"
        }
      ],
      "stateMutability": "view",
      "type": "function"
    },
    {
      "inputs": [],
      "name": "_token",
      "outputs": [
        {
          "internalType": "contract IERC20",
          "name": "",
          "type": "address"
        }
      ],
      "stateMutability": "view",
      "type": "function"
    },
    {
      "inputs": [],
      "name": "_totalSlot",
      "outputs": [
        {
          "internalType": "uint256",
          "name": "",
          "type": "uint256"
        }
      ],
      "stateMutability": "view",
      "type": "function"
    },
    {
      "inputs": [],
      "name": "_wallet",
      "outputs": [
        {
          "internalType": "address payable",
          "name": "",
          "type": "address"
        }
      ],
      "stateMutability": "view",
      "type": "function"
    },
    {
      "inputs": [],
      "name": "_weiRaised",
      "outputs": [
        {
          "internalType": "uint256",
          "name": "",
          "type": "uint256"
        }
      ],
      "stateMutability": "view",
      "type": "function"
    },
    {
      "inputs": [
        {
          "internalType": "address",
          "name": "",
          "type": "address"
        }
      ],
      "name": "_whiteList",
      "outputs": [
        {
          "internalType": "uint8",
          "name": "",
          "type": "uint8"
        }
      ],
      "stateMutability": "view",
      "type": "function"
    },
    {
      "inputs": [
        {
          "internalType": "address",
          "name": "beneficiary",
          "type": "address"
        }
      ],
      "name": "buyTokens",
      "outputs": [],
      "stateMutability": "payable",
      "type": "function"
    },
    {
      "inputs": [],
      "name": "claimTokens",
      "outputs": [],
      "stateMutability": "nonpayable",
      "type": "function"
    },
    {
      "inputs": [
        {
          "internalType": "address",
          "name": "walletAddress",
          "type": "address"
        }
      ],
      "name": "getBalance",
      "outputs": [
        {
          "internalType": "uint256",
          "name": "",
          "type": "uint256"
        }
      ],
      "stateMutability": "view",
      "type": "function"
    },
    {
      "inputs": [
        {
          "internalType": "address",
          "name": "walletAddress",
          "type": "address"
        }
      ],
      "name": "getLastClaimTime",
      "outputs": [
        {
          "internalType": "uint256",
          "name": "",
          "type": "uint256"
        }
      ],
      "stateMutability": "view",
      "type": "function"
    },
    {
      "inputs": [],
      "name": "getRemainingSlot",
      "outputs": [
        {
          "internalType": "uint256",
          "name": "",
          "type": "uint256"
        }
      ],
      "stateMutability": "view",
      "type": "function"
    },
    {
      "inputs": [],
      "name": "owner",
      "outputs": [
        {
          "internalType": "address",
          "name": "",
          "type": "address"
        }
      ],
      "stateMutability": "view",
      "type": "function"
    },
    {
      "inputs": [],
      "name": "refundMe",
      "outputs": [],
      "stateMutability": "nonpayable",
      "type": "function"
    },
    {
      "inputs": [],
      "name": "refundStartDate",
      "outputs": [
        {
          "internalType": "uint256",
          "name": "",
          "type": "uint256"
        }
      ],
      "stateMutability": "view",
      "type": "function"
    },
    {
      "inputs": [
        {
          "internalType": "contract IERC20",
          "name": "token",
          "type": "address"
        }
      ],
      "name": "setToken",
      "outputs": [],
      "stateMutability": "nonpayable",
      "type": "function"
    },
    {
      "inputs": [
        {
          "internalType": "uint256",
          "name": "totalSlot",
          "type": "uint256"
        }
      ],
      "name": "setTotalSlot",
      "outputs": [],
      "stateMutability": "nonpayable",
      "type": "function"
    },
    {
      "inputs": [
        {
          "internalType": "address payable",
          "name": "newWallet",
          "type": "address"
        }
      ],
      "name": "setWalletReceiver",
      "outputs": [],
      "stateMutability": "nonpayable",
      "type": "function"
    },
    {
      "inputs": [],
      "name": "startICO",
      "outputs": [],
      "stateMutability": "nonpayable",
      "type": "function"
    },
    {
      "inputs": [],
      "name": "startRefund",
      "outputs": [
        {
          "internalType": "bool",
          "name": "",
          "type": "bool"
        }
      ],
      "stateMutability": "view",
      "type": "function"
    },
    {
      "inputs": [],
      "name": "stopICO",
      "outputs": [],
      "stateMutability": "nonpayable",
      "type": "function"
    },
    {
      "inputs": [],
      "name": "takeBackFreeTokens",
      "outputs": [],
      "stateMutability": "nonpayable",
      "type": "function"
    },
    {
      "inputs": [
        {
          "internalType": "address",
          "name": "newOwner",
          "type": "address"
        }
      ],
      "name": "transferOwnership",
      "outputs": [],
      "stateMutability": "nonpayable",
      "type": "function"
    },
    {
      "inputs": [],
      "name": "weiRaised",
      "outputs": [
        {
          "internalType": "uint256",
          "name": "",
          "type": "uint256"
        }
      ],
      "stateMutability": "view",
      "type": "function"
    },
    {
      "inputs": [],
      "name": "withdraw",
      "outputs": [],
      "stateMutability": "nonpayable",
      "type": "function"
    },
    {
      "stateMutability": "payable",
      "type": "receive"
    }
  ],
  "bytecode": "0x60806040526000600b60006101000a81548160ff0219169083151502179055503480156200002c57600080fd5b50604051620042533803806200425383398181016040528101906200005291906200047a565b600160008190555060006200006c620002d160201b60201c565b905080600160006101000a81548173ffffffffffffffffffffffffffffffffffffffff021916908373ffffffffffffffffffffffffffffffffffffffff1602179055508073ffffffffffffffffffffffffffffffffffffffff16600073ffffffffffffffffffffffffffffffffffffffff167f8be0079c531659141344cd1fd0a4f28419497f9722a3daafe3b4186f6b6457e060405160405180910390a350600073ffffffffffffffffffffffffffffffffffffffff168373ffffffffffffffffffffffffffffffffffffffff1614156200017e576040517f08c379a0000000000000000000000000000000000000000000000000000000008152600401620001759062000565565b60405180910390fd5b6000811415620001c5576040517f08c379a0000000000000000000000000000000000000000000000000000000008152600401620001bc9062000543565b60405180910390fd5b82600660006101000a81548173ffffffffffffffffffffffffffffffffffffffff021916908373ffffffffffffffffffffffffffffffffffffffff16021790555060006008819055508060078190555081600490805190602001906200022d929190620002d9565b5060005b8251811015620002c757600160026000858481518110620002575762000256620006f5565b5b602002602001015173ffffffffffffffffffffffffffffffffffffffff1673ffffffffffffffffffffffffffffffffffffffff16815260200190815260200160002060006101000a81548160ff021916908360ff1602179055508080620002be9062000678565b91505062000231565b5050505062000864565b600033905090565b82805482825590600052602060002090810192821562000355579160200282015b82811115620003545782518260006101000a81548173ffffffffffffffffffffffffffffffffffffffff021916908373ffffffffffffffffffffffffffffffffffffffff16021790555091602001919060010190620002fa565b5b50905062000364919062000368565b5090565b5b808211156200038357600081600090555060010162000369565b5090565b60006200039e6200039884620005b0565b62000587565b90508083825260208201905082856020860282011115620003c457620003c362000758565b5b60005b85811015620003f85781620003dd888262000402565b845260208401935060208301925050600181019050620003c7565b5050509392505050565b600081519050620004138162000816565b92915050565b6000815190506200042a8162000830565b92915050565b600082601f83011262000448576200044762000753565b5b81516200045a84826020860162000387565b91505092915050565b60008151905062000474816200084a565b92915050565b60008060006060848603121562000496576200049562000762565b5b6000620004a68682870162000419565b935050602084015167ffffffffffffffff811115620004ca57620004c96200075d565b5b620004d88682870162000430565b9250506040620004eb8682870162000463565b9150509250925092565b600062000504602f83620005df565b9150620005118262000778565b604082019050919050565b60006200052b602883620005df565b91506200053882620007c7565b604082019050919050565b600060208201905081810360008301526200055e81620004f5565b9050919050565b6000602082019050818103600083015262000580816200051c565b9050919050565b600062000593620005a6565b9050620005a1828262000642565b919050565b6000604051905090565b600067ffffffffffffffff821115620005ce57620005cd62000724565b5b602082029050602081019050919050565b600082825260208201905092915050565b6000620005fd8262000618565b9050919050565b6000620006118262000618565b9050919050565b600073ffffffffffffffffffffffffffffffffffffffff82169050919050565b6000819050919050565b6200064d8262000767565b810181811067ffffffffffffffff821117156200066f576200066e62000724565b5b80604052505050565b6000620006858262000638565b91507fffffffffffffffffffffffffffffffffffffffffffffffffffffffffffffffff821415620006bb57620006ba620006c6565b5b600182019050919050565b7f4e487b7100000000000000000000000000000000000000000000000000000000600052601160045260246000fd5b7f4e487b7100000000000000000000000000000000000000000000000000000000600052603260045260246000fd5b7f4e487b7100000000000000000000000000000000000000000000000000000000600052604160045260246000fd5b600080fd5b600080fd5b600080fd5b600080fd5b6000601f19601f8301169050919050565b7f507269766174652053616c653a20746f74616c20736c6f74206d75737420626560008201527f2067726561746572207468616e20300000000000000000000000000000000000602082015250565b7f507269766174652053616c653a2077616c6c657420697320746865207a65726f60008201527f2061646472657373000000000000000000000000000000000000000000000000602082015250565b6200082181620005f0565b81146200082d57600080fd5b50565b6200083b8162000604565b81146200084757600080fd5b50565b620008558162000638565b81146200086157600080fd5b50565b6139df80620008746000396000f3fe6080604052600436106101f25760003560e01c80638da5cb5b1161010d578063c8e569a8116100a0578063ec8ac4d81161006f578063ec8ac4d8146106ee578063ecd0c0c31461070a578063f2fde38b14610735578063f8b2cb4f1461075e578063fa1acb5c1461079b57610269565b8063c8e569a814610658578063d572d5f71461066f578063ddaa26ad14610698578063e9fdfd9f146106c357610269565b8063ab269474116100dc578063ab269474146105c0578063adf4a144146105eb578063b652dc2f14610616578063c1fcd9d31461064157610269565b80638da5cb5b146105045780638fd9bf371461052f57806394a5aa8d14610558578063a680e0bc1461058357610269565b806348c54b9d11610185578063664e970411610154578063664e9704146104465780637fa8c1581461047157806382b7de281461048857806384862e84146104c757610269565b806348c54b9d146103c25780635a9e426b146103d9578063610757e4146103f05780636570f4651461041b57610269565b806337ba682d116101c157806337ba682d1461032a5780633ccfd60b146103555780634042b66f1461036c57806340d489581461039757610269565b806305d60ffb1461026e5780630cb6b577146102ab5780630d263497146102d6578063144fa6d71461030157610269565b3661026957600060095411801561020a575060095442105b156102245761021f61021a6107c6565b6107ce565b610267565b60006009819055506040517f08c379a000000000000000000000000000000000000000000000000000000000815260040161025e90612c3d565b60405180910390fd5b005b600080fd5b34801561027a57600080fd5b5061029560048036038101906102909190612629565b61099f565b6040516102a29190612ecf565b60405180910390f35b3480156102b757600080fd5b506102c06109bf565b6040516102cd9190612e7d565b60405180910390f35b3480156102e257600080fd5b506102eb6109c4565b6040516102f89190612e7d565b60405180910390f35b34801561030d57600080fd5b50610328600480360381019061032391906126b0565b6109ca565b005b34801561033657600080fd5b5061033f610b59565b60405161034c9190612e7d565b60405180910390f35b34801561036157600080fd5b5061036a610b61565b005b34801561037857600080fd5b50610381610db6565b60405161038e9190612e7d565b60405180910390f35b3480156103a357600080fd5b506103ac610dc0565b6040516103b99190612e7d565b60405180910390f35b3480156103ce57600080fd5b506103d7610dc6565b005b3480156103e557600080fd5b506103ee61109b565b005b3480156103fc57600080fd5b50610405611231565b6040516104129190612ad3565b60405180910390f35b34801561042757600080fd5b50610430611257565b60405161043d9190612e7d565b60405180910390f35b34801561045257600080fd5b5061045b61125c565b6040516104689190612e7d565b60405180910390f35b34801561047d57600080fd5b50610486611261565b005b34801561049457600080fd5b506104af60048036038101906104aa9190612629565b6113c5565b6040516104be93929190612e98565b60405180910390f35b3480156104d357600080fd5b506104ee60048036038101906104e991906126dd565b6113ef565b6040516104fb9190612ab8565b60405180910390f35b34801561051057600080fd5b5061051961142e565b6040516105269190612ab8565b60405180910390f35b34801561053b57600080fd5b50610556600480360381019061055191906126dd565b611458565b005b34801561056457600080fd5b5061056d61153f565b60405161057a9190612e7d565b60405180910390f35b34801561058f57600080fd5b506105aa60048036038101906105a59190612629565b611545565b6040516105b79190612e7d565b60405180910390f35b3480156105cc57600080fd5b506105d5611591565b6040516105e29190612e7d565b60405180910390f35b3480156105f757600080fd5b506106006115e7565b60405161060d9190612b85565b60405180910390f35b34801561062257600080fd5b5061062b6115fa565b6040516106389190612e7d565b60405180910390f35b34801561064d57600080fd5b50610656611606565b005b34801561066457600080fd5b5061066d61199b565b005b34801561067b57600080fd5b5061069660048036038101906106919190612656565b611aea565b005b3480156106a457600080fd5b506106ad611bc5565b6040516106ba9190612e7d565b60405180910390f35b3480156106cf57600080fd5b506106d8611bcd565b6040516106e59190612e7d565b60405180910390f35b61070860048036038101906107039190612629565b6107ce565b005b34801561071657600080fd5b5061071f611bd3565b60405161072c9190612ba0565b60405180910390f35b34801561074157600080fd5b5061075c60048036038101906107579190612629565b611bf9565b005b34801561076a57600080fd5b5061078560048036038101906107809190612629565b611dc0565b6040516107929190612e7d565b60405180910390f35b3480156107a757600080fd5b506107b0611e0c565b6040516107bd9190612e7d565b60405180910390f35b600033905090565b60026000541415610814576040517f08c379a000000000000000000000000000000000000000000000000000000000815260040161080b90612e1d565b60405180910390fd5b6002600081905550600060095411801561082f575060095442105b801561083c575042600a54105b801561084a57506000600754115b610889576040517f08c379a000000000000000000000000000000000000000000000000000000000815260040161088090612e3d565b60405180910390fd5b60003490506108988282611e12565b60006108a382612037565b90506108ba8260085461207390919063ffffffff16565b60088190555080600360008573ffffffffffffffffffffffffffffffffffffffff1673ffffffffffffffffffffffffffffffffffffffff1681526020019081526020016000206001018190555080600360008573ffffffffffffffffffffffffffffffffffffffff1673ffffffffffffffffffffffffffffffffffffffff168152602001908152602001600020600001819055507f6faf93231a456e552dbc9961f58d9713ee4f2e69d15f1975b050ef0911053a7b6109776107c6565b84848460405161098a9493929190612aee565b60405180910390a15050600160008190555050565b60026020528060005260406000206000915054906101000a900460ff1681565b600081565b60075481565b6109d26107c6565b73ffffffffffffffffffffffffffffffffffffffff16600160009054906101000a900473ffffffffffffffffffffffffffffffffffffffff1673ffffffffffffffffffffffffffffffffffffffff1614610a61576040517f08c379a0000000000000000000000000000000000000000000000000000000008152600401610a5890612d7d565b60405180910390fd5b4260095410610aa5576040517f08c379a0000000000000000000000000000000000000000000000000000000008152600401610a9c90612ddd565b60405180910390fd5b600073ffffffffffffffffffffffffffffffffffffffff168173ffffffffffffffffffffffffffffffffffffffff161415610b15576040517f08c379a0000000000000000000000000000000000000000000000000000000008152600401610b0c90612d1d565b60405180910390fd5b80600560006101000a81548173ffffffffffffffffffffffffffffffffffffffff021916908373ffffffffffffffffffffffffffffffffffffffff16021790555050565b6362d7b60081565b610b696107c6565b73ffffffffffffffffffffffffffffffffffffffff16600160009054906101000a900473ffffffffffffffffffffffffffffffffffffffff1673ffffffffffffffffffffffffffffffffffffffff1614610bf8576040517f08c379a0000000000000000000000000000000000000000000000000000000008152600401610bef90612d7d565b60405180910390fd5b4260095410610c3c576040517f08c379a0000000000000000000000000000000000000000000000000000000008152600401610c3390612ddd565b60405180910390fd5b600073ffffffffffffffffffffffffffffffffffffffff16600560009054906101000a900473ffffffffffffffffffffffffffffffffffffffff1673ffffffffffffffffffffffffffffffffffffffff161415610cce576040517f08c379a0000000000000000000000000000000000000000000000000000000008152600401610cc590612d1d565b60405180910390fd5b60001515600b60009054906101000a900460ff1615151480610cff5750426203f480600c54610cfd9190612f06565b105b610d0857600080fd5b60004711610d4b576040517f08c379a0000000000000000000000000000000000000000000000000000000008152600401610d4290612e5d565b60405180910390fd5b600660009054906101000a900473ffffffffffffffffffffffffffffffffffffffff1673ffffffffffffffffffffffffffffffffffffffff166108fc479081150290604051600060405180830381858888f19350505050158015610db3573d6000803e3d6000fd5b50565b6000600854905090565b60095481565b4260095410610e0a576040517f08c379a0000000000000000000000000000000000000000000000000000000008152600401610e0190612ddd565b60405180910390fd5b600073ffffffffffffffffffffffffffffffffffffffff16600560009054906101000a900473ffffffffffffffffffffffffffffffffffffffff1673ffffffffffffffffffffffffffffffffffffffff161415610e9c576040517f08c379a0000000000000000000000000000000000000000000000000000000008152600401610e9390612d1d565b60405180910390fd5b60001515600b60009054906101000a900460ff16151514610ebc57600080fd5b6000610ec7336120d1565b90506000811415610f0d576040517f08c379a0000000000000000000000000000000000000000000000000000000008152600401610f0490612c1d565b60405180910390fd5b80600360003373ffffffffffffffffffffffffffffffffffffffff1673ffffffffffffffffffffffffffffffffffffffff16815260200190815260200160002060010154610f5b9190613158565b600360003373ffffffffffffffffffffffffffffffffffffffff1673ffffffffffffffffffffffffffffffffffffffff1681526020019081526020016000206001018190555042600360003373ffffffffffffffffffffffffffffffffffffffff1673ffffffffffffffffffffffffffffffffffffffff16815260200190815260200160002060020181905550600560009054906101000a900473ffffffffffffffffffffffffffffffffffffffff1673ffffffffffffffffffffffffffffffffffffffff1663a9059cbb33836040518363ffffffff1660e01b8152600401611045929190612b5c565b602060405180830381600087803b15801561105f57600080fd5b505af1158015611073573d6000803e3d6000fd5b505050506040513d601f19601f820116820180604052508101906110979190612683565b5050565b42600954106110df576040517f08c379a00000000000000000000000000000000000000000000000000000000081526004016110d690612ddd565b60405180910390fd5b60011515600b60009054906101000a900460ff16151514611135576040517f08c379a000000000000000000000000000000000000000000000000000000000815260040161112c90612dfd565b60405180910390fd5b6000670de0b6b3a7640000600161114c91906130fe565b905080471061122e576000600360003373ffffffffffffffffffffffffffffffffffffffff1673ffffffffffffffffffffffffffffffffffffffff16815260200190815260200160002060010181905550600081111561122d5760003390508073ffffffffffffffffffffffffffffffffffffffff166108fc839081150290604051600060405180830381858888f193505050501580156111f1573d6000803e3d6000fd5b507fbb28353e4598c3b9199101a66e0989549b659a59a54d2c27fbb183f1932c8e6d3383604051611223929190612b5c565b60405180910390a1505b5b50565b600660009054906101000a900473ffffffffffffffffffffffffffffffffffffffff1681565b600181565b60c881565b6112696107c6565b73ffffffffffffffffffffffffffffffffffffffff16600160009054906101000a900473ffffffffffffffffffffffffffffffffffffffff1673ffffffffffffffffffffffffffffffffffffffff16146112f8576040517f08c379a00000000000000000000000000000000000000000000000000000000081526004016112ef90612d7d565b60405180910390fd5b426009541061133c576040517f08c379a000000000000000000000000000000000000000000000000000000000815260040161133390612ddd565b60405180910390fd5b426362d7b60011611382576040517f08c379a000000000000000000000000000000000000000000000000000000000815260040161137990612c9d565b60405180910390fd5b6362d7b60060098190555063629f2c03600a8190555060006008819055506000600b60006101000a81548160ff0219169083151502179055506000600c81905550565b60036020528060005260406000206000915090508060000154908060010154908060020154905083565b600481815481106113ff57600080fd5b906000526020600020016000915054906101000a900473ffffffffffffffffffffffffffffffffffffffff1681565b6000600160009054906101000a900473ffffffffffffffffffffffffffffffffffffffff16905090565b6114606107c6565b73ffffffffffffffffffffffffffffffffffffffff16600160009054906101000a900473ffffffffffffffffffffffffffffffffffffffff1673ffffffffffffffffffffffffffffffffffffffff16146114ef576040517f08c379a00000000000000000000000000000000000000000000000000000000081526004016114e690612d7d565b60405180910390fd5b60006007541415611535576040517f08c379a000000000000000000000000000000000000000000000000000000000815260040161152c90612d9d565b60405180910390fd5b8060078190555050565b60085481565b6000600360008373ffffffffffffffffffffffffffffffffffffffff1673ffffffffffffffffffffffffffffffffffffffff168152602001908152602001600020600201549050919050565b6000806115c4670de0b6b3a76400006115b6600160085461222190919063ffffffff16565b61222190919063ffffffff16565b905060006115dd8260075461226b90919063ffffffff16565b9050809250505090565b600b60009054906101000a900460ff1681565b670de0b6b3a764000081565b61160e6107c6565b73ffffffffffffffffffffffffffffffffffffffff16600160009054906101000a900473ffffffffffffffffffffffffffffffffffffffff1673ffffffffffffffffffffffffffffffffffffffff161461169d576040517f08c379a000000000000000000000000000000000000000000000000000000000815260040161169490612d7d565b60405180910390fd5b42600954106116e1576040517f08c379a00000000000000000000000000000000000000000000000000000000081526004016116d890612ddd565b60405180910390fd5b600073ffffffffffffffffffffffffffffffffffffffff16600560009054906101000a900473ffffffffffffffffffffffffffffffffffffffff1673ffffffffffffffffffffffffffffffffffffffff161415611773576040517f08c379a000000000000000000000000000000000000000000000000000000000815260040161176a90612d1d565b60405180910390fd5b600061177d6122b5565b90506000600560009054906101000a900473ffffffffffffffffffffffffffffffffffffffff1673ffffffffffffffffffffffffffffffffffffffff166370a08231306040518263ffffffff1660e01b81526004016117dc9190612ab8565b60206040518083038186803b1580156117f457600080fd5b505afa158015611808573d6000803e3d6000fd5b505050506040513d601f19601f8201168201806040525081019061182c919061270a565b905060008111611871576040517f08c379a000000000000000000000000000000000000000000000000000000000815260040161186890612cbd565b60405180910390fd5b6000828261187f9190613158565b9050600081116118c4576040517f08c379a00000000000000000000000000000000000000000000000000000000081526004016118bb90612cfd565b60405180910390fd5b600560009054906101000a900473ffffffffffffffffffffffffffffffffffffffff1673ffffffffffffffffffffffffffffffffffffffff1663a9059cbb600660009054906101000a900473ffffffffffffffffffffffffffffffffffffffff16836040518363ffffffff1660e01b8152600401611943929190612b33565b602060405180830381600087803b15801561195d57600080fd5b505af1158015611971573d6000803e3d6000fd5b505050506040513d601f19601f820116820180604052508101906119959190612683565b50505050565b6119a36107c6565b73ffffffffffffffffffffffffffffffffffffffff16600160009054906101000a900473ffffffffffffffffffffffffffffffffffffffff1673ffffffffffffffffffffffffffffffffffffffff1614611a32576040517f08c379a0000000000000000000000000000000000000000000000000000000008152600401611a2990612d7d565b60405180910390fd5b6000600954118015611a45575060095442105b8015611a52575042600a54105b8015611a6057506000600754115b611a9f576040517f08c379a0000000000000000000000000000000000000000000000000000000008152600401611a9690612e3d565b60405180910390fd5b6000600981905550670de0b6b3a764000060085410611ac557611ac06123fe565b611ae8565b6001600b60006101000a81548160ff02191690831515021790555042600c819055505b565b611af26107c6565b73ffffffffffffffffffffffffffffffffffffffff16600160009054906101000a900473ffffffffffffffffffffffffffffffffffffffff1673ffffffffffffffffffffffffffffffffffffffff1614611b81576040517f08c379a0000000000000000000000000000000000000000000000000000000008152600401611b7890612d7d565b60405180910390fd5b80600660006101000a81548173ffffffffffffffffffffffffffffffffffffffff021916908373ffffffffffffffffffffffffffffffffffffffff16021790555050565b63629f2c0381565b600c5481565b600560009054906101000a900473ffffffffffffffffffffffffffffffffffffffff1681565b611c016107c6565b73ffffffffffffffffffffffffffffffffffffffff16600160009054906101000a900473ffffffffffffffffffffffffffffffffffffffff1673ffffffffffffffffffffffffffffffffffffffff1614611c90576040517f08c379a0000000000000000000000000000000000000000000000000000000008152600401611c8790612d7d565b60405180910390fd5b600073ffffffffffffffffffffffffffffffffffffffff168173ffffffffffffffffffffffffffffffffffffffff161415611d00576040517f08c379a0000000000000000000000000000000000000000000000000000000008152600401611cf790612c5d565b60405180910390fd5b8073ffffffffffffffffffffffffffffffffffffffff16600160009054906101000a900473ffffffffffffffffffffffffffffffffffffffff1673ffffffffffffffffffffffffffffffffffffffff167f8be0079c531659141344cd1fd0a4f28419497f9722a3daafe3b4186f6b6457e060405160405180910390a380600160006101000a81548173ffffffffffffffffffffffffffffffffffffffff021916908373ffffffffffffffffffffffffffffffffffffffff16021790555050565b6000600360008373ffffffffffffffffffffffffffffffffffffffff1673ffffffffffffffffffffffffffffffffffffffff168152602001908152602001600020600101549050919050565b600a5481565b600073ffffffffffffffffffffffffffffffffffffffff168273ffffffffffffffffffffffffffffffffffffffff161415611e82576040517f08c379a0000000000000000000000000000000000000000000000000000000008152600401611e7990612d3d565b60405180910390fd5b6001600260008473ffffffffffffffffffffffffffffffffffffffff1673ffffffffffffffffffffffffffffffffffffffff16815260200190815260200160002060009054906101000a900460ff1660ff1614611f14576040517f08c379a0000000000000000000000000000000000000000000000000000000008152600401611f0b90612bdd565b60405180910390fd5b6000600360008473ffffffffffffffffffffffffffffffffffffffff1673ffffffffffffffffffffffffffffffffffffffff1681526020019081526020016000206001015414611f99576040517f08c379a0000000000000000000000000000000000000000000000000000000008152600401611f9090612dbd565b60405180910390fd5b670de0b6b3a76400006001611fae91906130fe565b8114611fef576040517f08c379a0000000000000000000000000000000000000000000000000000000008152600401611fe690612bfd565b60405180910390fd5b6000811415612033576040517f08c379a000000000000000000000000000000000000000000000000000000000815260040161202a90612cdd565b60405180910390fd5b5050565b600061206c6000600a61204a9190612fe0565b61205e60c88561246990919063ffffffff16565b61222190919063ffffffff16565b9050919050565b60008082846120829190612f06565b9050838110156120c7576040517f08c379a00000000000000000000000000000000000000000000000000000000081526004016120be90612c7d565b60405180910390fd5b8091505092915050565b6000804290506000600360003373ffffffffffffffffffffffffffffffffffffffff1673ffffffffffffffffffffffffffffffffffffffff16815260200190815260200160002060020154905060006018603c8084866121319190613158565b61213b9190612f5c565b6121459190612f5c565b61214f9190612f5c565b905060008214156121b357600a600360003373ffffffffffffffffffffffffffffffffffffffff1673ffffffffffffffffffffffffffffffffffffffff168152602001908152602001600020600001546121a99190612f5c565b935050505061221c565b601e8110612214576014600360003373ffffffffffffffffffffffffffffffffffffffff1673ffffffffffffffffffffffffffffffffffffffff1681526020019081526020016000206000015461220a9190612f5c565b935050505061221c565b600093505050505b919050565b600061226383836040518060400160405280601a81526020017f536166654d6174683a206469766973696f6e206279207a65726f0000000000008152506124e4565b905092915050565b60006122ad83836040518060400160405280601e81526020017f536166654d6174683a207375627472616374696f6e206f766572666c6f770000815250612547565b905092915050565b6000806000905060005b6004805490508110156123f657600060036000600484815481106122e6576122e5613327565b5b9060005260206000200160009054906101000a900473ffffffffffffffffffffffffffffffffffffffff1673ffffffffffffffffffffffffffffffffffffffff1673ffffffffffffffffffffffffffffffffffffffff16815260200190815260200160002060010154146123e357600360006004838154811061236c5761236b613327565b5b9060005260206000200160009054906101000a900473ffffffffffffffffffffffffffffffffffffffff1673ffffffffffffffffffffffffffffffffffffffff1673ffffffffffffffffffffffffffffffffffffffff16815260200190815260200160002060010154826123e09190612f06565b91505b80806123ee90613280565b9150506122bf565b508091505090565b600660009054906101000a900473ffffffffffffffffffffffffffffffffffffffff1673ffffffffffffffffffffffffffffffffffffffff166108fc349081150290604051600060405180830381858888f19350505050158015612466573d6000803e3d6000fd5b50565b60008083141561247c57600090506124de565b6000828461248a91906130fe565b90508284826124999190612f5c565b146124d9576040517f08c379a00000000000000000000000000000000000000000000000000000000081526004016124d090612d5d565b60405180910390fd5b809150505b92915050565b6000808311829061252b576040517f08c379a00000000000000000000000000000000000000000000000000000000081526004016125229190612bbb565b60405180910390fd5b506000838561253a9190612f5c565b9050809150509392505050565b600083831115829061258f576040517f08c379a00000000000000000000000000000000000000000000000000000000081526004016125869190612bbb565b60405180910390fd5b506000838561259e9190613158565b9050809150509392505050565b6000813590506125ba81613936565b92915050565b6000813590506125cf8161394d565b92915050565b6000815190506125e481613964565b92915050565b6000813590506125f98161397b565b92915050565b60008135905061260e81613992565b92915050565b60008151905061262381613992565b92915050565b60006020828403121561263f5761263e613356565b5b600061264d848285016125ab565b91505092915050565b60006020828403121561266c5761266b613356565b5b600061267a848285016125c0565b91505092915050565b60006020828403121561269957612698613356565b5b60006126a7848285016125d5565b91505092915050565b6000602082840312156126c6576126c5613356565b5b60006126d4848285016125ea565b91505092915050565b6000602082840312156126f3576126f2613356565b5b6000612701848285016125ff565b91505092915050565b6000602082840312156127205761271f613356565b5b600061272e84828501612614565b91505092915050565b61274081613205565b82525050565b61274f8161319e565b82525050565b61275e8161318c565b82525050565b61276d816131b0565b82525050565b61277c81613217565b82525050565b600061278d82612eea565b6127978185612ef5565b93506127a781856020860161324d565b6127b08161335b565b840191505092915050565b60006127c8602d83612ef5565b91506127d382613379565b604082019050919050565b60006127eb603483612ef5565b91506127f6826133c8565b604082019050919050565b600061280e603a83612ef5565b915061281982613417565b604082019050919050565b6000612831601683612ef5565b915061283c82613466565b602082019050919050565b6000612854602683612ef5565b915061285f8261348f565b604082019050919050565b6000612877601b83612ef5565b9150612882826134de565b602082019050919050565b600061289a602183612ef5565b91506128a582613507565b604082019050919050565b60006128bd601e83612ef5565b91506128c882613556565b602082019050919050565b60006128e0601c83612ef5565b91506128eb8261357f565b602082019050919050565b6000612903602883612ef5565b915061290e826135a8565b604082019050919050565b6000612926602783612ef5565b9150612931826135f7565b604082019050919050565b6000612949602d83612ef5565b915061295482613646565b604082019050919050565b600061296c602183612ef5565b915061297782613695565b604082019050919050565b600061298f602083612ef5565b915061299a826136e4565b602082019050919050565b60006129b2602f83612ef5565b91506129bd8261370d565b604082019050919050565b60006129d5602c83612ef5565b91506129e08261375c565b604082019050919050565b60006129f8604583612ef5565b9150612a03826137ab565b606082019050919050565b6000612a1b602183612ef5565b9150612a2682613820565b604082019050919050565b6000612a3e601f83612ef5565b9150612a498261386f565b602082019050919050565b6000612a61604783612ef5565b9150612a6c82613898565b606082019050919050565b6000612a84601583612ef5565b9150612a8f8261390d565b602082019050919050565b612aa3816131ee565b82525050565b612ab2816131f8565b82525050565b6000602082019050612acd6000830184612755565b92915050565b6000602082019050612ae86000830184612746565b92915050565b6000608082019050612b036000830187612737565b612b106020830186612755565b612b1d6040830185612a9a565b612b2a6060830184612a9a565b95945050505050565b6000604082019050612b486000830185612737565b612b556020830184612a9a565b9392505050565b6000604082019050612b716000830185612755565b612b7e6020830184612a9a565b9392505050565b6000602082019050612b9a6000830184612764565b92915050565b6000602082019050612bb56000830184612773565b92915050565b60006020820190508181036000830152612bd58184612782565b905092915050565b60006020820190508181036000830152612bf6816127bb565b9050919050565b60006020820190508181036000830152612c16816127de565b9050919050565b60006020820190508181036000830152612c3681612801565b9050919050565b60006020820190508181036000830152612c5681612824565b9050919050565b60006020820190508181036000830152612c7681612847565b9050919050565b60006020820190508181036000830152612c968161286a565b9050919050565b60006020820190508181036000830152612cb68161288d565b9050919050565b60006020820190508181036000830152612cd6816128b0565b9050919050565b60006020820190508181036000830152612cf6816128d3565b9050919050565b60006020820190508181036000830152612d16816128f6565b9050919050565b60006020820190508181036000830152612d3681612919565b9050919050565b60006020820190508181036000830152612d568161293c565b9050919050565b60006020820190508181036000830152612d768161295f565b9050919050565b60006020820190508181036000830152612d9681612982565b9050919050565b60006020820190508181036000830152612db6816129a5565b9050919050565b60006020820190508181036000830152612dd6816129c8565b9050919050565b60006020820190508181036000830152612df6816129eb565b9050919050565b60006020820190508181036000830152612e1681612a0e565b9050919050565b60006020820190508181036000830152612e3681612a31565b9050919050565b60006020820190508181036000830152612e5681612a54565b9050919050565b60006020820190508181036000830152612e7681612a77565b9050919050565b6000602082019050612e926000830184612a9a565b92915050565b6000606082019050612ead6000830186612a9a565b612eba6020830185612a9a565b612ec76040830184612a9a565b949350505050565b6000602082019050612ee46000830184612aa9565b92915050565b600081519050919050565b600082825260208201905092915050565b6000612f11826131ee565b9150612f1c836131ee565b9250827fffffffffffffffffffffffffffffffffffffffffffffffffffffffffffffffff03821115612f5157612f506132c9565b5b828201905092915050565b6000612f67826131ee565b9150612f72836131ee565b925082612f8257612f816132f8565b5b828204905092915050565b6000808291508390505b6001851115612fd757808604811115612fb357612fb26132c9565b5b6001851615612fc25780820291505b8081029050612fd08561336c565b9450612f97565b94509492505050565b6000612feb826131ee565b9150612ff6836131ee565b92506130237fffffffffffffffffffffffffffffffffffffffffffffffffffffffffffffffff848461302b565b905092915050565b60008261303b57600190506130f7565b8161304957600090506130f7565b816001811461305f576002811461306957613098565b60019150506130f7565b60ff84111561307b5761307a6132c9565b5b8360020a915084821115613092576130916132c9565b5b506130f7565b5060208310610133831016604e8410600b84101617156130cd5782820a9050838111156130c8576130c76132c9565b5b6130f7565b6130da8484846001612f8d565b925090508184048111156130f1576130f06132c9565b5b81810290505b9392505050565b6000613109826131ee565b9150613114836131ee565b9250817fffffffffffffffffffffffffffffffffffffffffffffffffffffffffffffffff048311821515161561314d5761314c6132c9565b5b828202905092915050565b6000613163826131ee565b915061316e836131ee565b925082821015613181576131806132c9565b5b828203905092915050565b6000613197826131ce565b9050919050565b60006131a9826131ce565b9050919050565b60008115159050919050565b60006131c78261318c565b9050919050565b600073ffffffffffffffffffffffffffffffffffffffff82169050919050565b6000819050919050565b600060ff82169050919050565b600061321082613229565b9050919050565b600061322282613229565b9050919050565b60006132348261323b565b9050919050565b6000613246826131ce565b9050919050565b60005b8381101561326b578082015181840152602081019050613250565b8381111561327a576000848401525b50505050565b600061328b826131ee565b91507fffffffffffffffffffffffffffffffffffffffffffffffffffffffffffffffff8214156132be576132bd6132c9565b5b600182019050919050565b7f4e487b7100000000000000000000000000000000000000000000000000000000600052601160045260246000fd5b7f4e487b7100000000000000000000000000000000000000000000000000000000600052601260045260246000fd5b7f4e487b7100000000000000000000000000000000000000000000000000000000600052603260045260246000fd5b600080fd5b6000601f19601f8301169050919050565b60008160011c9050919050565b7f507269766174652053616c653a2062656e6566696369617279206973206e6f7460008201527f20696e2077686974656c69737400000000000000000000000000000000000000602082015250565b7f507269766174652073616c6520726f756e64207265717569726520313530204760008201527f4c4d5220666f72206f6e65207075726368617365000000000000000000000000602082015250565b7f546f6b656e20636c61696d207472616e73616374696f6e7320617265206c696d60008201527f6974656420746f206f6e63652065766572792033302064617973000000000000602082015250565b7f507269766174652053616c6520697320636c6f73656400000000000000000000600082015250565b7f4f776e61626c653a206e6577206f776e657220697320746865207a65726f206160008201527f6464726573730000000000000000000000000000000000000000000000000000602082015250565b7f536166654d6174683a206164646974696f6e206f766572666c6f770000000000600082015250565b7f4475726174696f6e2073686f756c642062652067726561746572207468616e2060008201527f3000000000000000000000000000000000000000000000000000000000000000602082015250565b7f507269766174652053616c653a204d46472062616c616e636520697320300000600082015250565b7f507269766174652053616c653a20776569416d6f756e74206973203000000000600082015250565b7f507269766174652053616c653a204e6f206672656520746f6b656e206973206160008201527f7661696c61626c65000000000000000000000000000000000000000000000000602082015250565b7f507269766174652053616c653a20746f6b656e20697320746865207a65726f2060008201527f6164647265737300000000000000000000000000000000000000000000000000602082015250565b7f507269766174652053616c653a2062656e65666963696172792069732074686560008201527f207a65726f206164647265737300000000000000000000000000000000000000602082015250565b7f536166654d6174683a206d756c7469706c69636174696f6e206f766572666c6f60008201527f7700000000000000000000000000000000000000000000000000000000000000602082015250565b7f4f776e61626c653a2063616c6c6572206973206e6f7420746865206f776e6572600082015250565b7f507269766174652053616c653a20746f74616c20736c6f74206d75737420626560008201527f2067726561746572207468616e20300000000000000000000000000000000000602082015250565b7f507269766174652053616c653a2063616e206e6f7420627579206d6f7265207460008201527f68616e206f6e652074696d650000000000000000000000000000000000000000602082015250565b7f507269766174652053616c652069732063757272656e746c792041435449564560008201527f2c2063616e277420706572666f726d207468697320616374696f6e207269676860208201527f74206e6f77000000000000000000000000000000000000000000000000000000604082015250565b7f507269766174652053616c653a204e6f20726566756e6420617661696c61626c60008201527f6500000000000000000000000000000000000000000000000000000000000000602082015250565b7f5265656e7472616e637947756172643a207265656e7472616e742063616c6c00600082015250565b7f507269766174652053616c652069732063757272656e746c7920494e4143544960008201527f56452c2063616e277420706572666f726d207468697320616374696f6e20726960208201527f676874206e6f7700000000000000000000000000000000000000000000000000604082015250565b7f436f6e747261637420686173206e6f206d6f6e65790000000000000000000000600082015250565b61393f8161318c565b811461394a57600080fd5b50565b6139568161319e565b811461396157600080fd5b50565b61396d816131b0565b811461397857600080fd5b50565b613984816131bc565b811461398f57600080fd5b50565b61399b816131ee565b81146139a657600080fd5b5056fea2646970667358221220f674bb8cc15df3c5b60ce1afa95c1db4cebb51368904cf14bfb293acaaeb434264736f6c63430008070033",
  "linkReferences": {},
  "deployedLinkReferences": {}
}