{
  "_format": "hh-sol-artifact-1",
  "contractName": "UMoonFitNFTSale",
  "sourceName": "contracts/upgradeables/UMoonFitNFTSale.sol",
  "abi": [
    {
      "inputs": [],
      "stateMutability": "nonpayable",
      "type": "constructor"
    },
    {
      "anonymous": false,
      "inputs": [
        {
          "indexed": false,
          "internalType": "address",
          "name": "previousAdmin",
          "type": "address"
        },
        {
          "indexed": false,
          "internalType": "address",
          "name": "newAdmin",
          "type": "address"
        }
      ],
      "name": "AdminChanged",
      "type": "event"
    },
    {
      "anonymous": false,
      "inputs": [
        {
          "indexed": true,
          "internalType": "address",
          "name": "beacon",
          "type": "address"
        }
      ],
      "name": "BeaconUpgraded",
      "type": "event"
    },
    {
      "anonymous": false,
      "inputs": [
        {
          "indexed": false,
          "internalType": "uint8",
          "name": "version",
          "type": "uint8"
        }
      ],
      "name": "Initialized",
      "type": "event"
    },
    {
      "anonymous": false,
      "inputs": [
        {
          "indexed": false,
          "internalType": "address",
          "name": "beneficiary",
          "type": "address"
        },
        {
          "indexed": false,
          "internalType": "uint256",
          "name": "mintPassId",
          "type": "uint256"
        }
      ],
      "name": "NFTPurchased",
      "type": "event"
    },
    {
      "anonymous": false,
      "inputs": [
        {
          "indexed": true,
          "internalType": "address",
          "name": "previousOwner",
          "type": "address"
        },
        {
          "indexed": true,
          "internalType": "address",
          "name": "newOwner",
          "type": "address"
        }
      ],
      "name": "OwnershipTransferred",
      "type": "event"
    },
    {
      "anonymous": false,
      "inputs": [
        {
          "indexed": false,
          "internalType": "uint256",
          "name": "currentSaleAmount",
          "type": "uint256"
        },
        {
          "indexed": false,
          "internalType": "uint256",
          "name": "maxSaleAmount",
          "type": "uint256"
        }
      ],
      "name": "UpdateSaleAmount",
      "type": "event"
    },
    {
      "anonymous": false,
      "inputs": [
        {
          "indexed": true,
          "internalType": "address",
          "name": "implementation",
          "type": "address"
        }
      ],
      "name": "Upgraded",
      "type": "event"
    },
    {
      "inputs": [],
      "name": "_maxSaleAmount",
      "outputs": [
        {
          "internalType": "uint256",
          "name": "",
          "type": "uint256"
        }
      ],
      "stateMutability": "view",
      "type": "function"
    },
    {
      "inputs": [],
      "name": "_mintPassNFT",
      "outputs": [
        {
          "internalType": "contract IERC721Enumerable",
          "name": "",
          "type": "address"
        }
      ],
      "stateMutability": "view",
      "type": "function"
    },
    {
      "inputs": [],
      "name": "_moonBeastNFT",
      "outputs": [
        {
          "internalType": "contract MoonBeast",
          "name": "",
          "type": "address"
        }
      ],
      "stateMutability": "view",
      "type": "function"
    },
    {
      "inputs": [],
      "name": "_nftPerPass",
      "outputs": [
        {
          "internalType": "uint16",
          "name": "",
          "type": "uint16"
        }
      ],
      "stateMutability": "view",
      "type": "function"
    },
    {
      "inputs": [],
      "name": "_price",
      "outputs": [
        {
          "internalType": "uint256",
          "name": "",
          "type": "uint256"
        }
      ],
      "stateMutability": "view",
      "type": "function"
    },
    {
      "inputs": [],
      "name": "_wallet",
      "outputs": [
        {
          "internalType": "address payable",
          "name": "",
          "type": "address"
        }
      ],
      "stateMutability": "view",
      "type": "function"
    },
    {
      "inputs": [
        {
          "internalType": "uint256[]",
          "name": "mintPassIds",
          "type": "uint256[]"
        },
        {
          "internalType": "uint16",
          "name": "amount",
          "type": "uint16"
        }
      ],
      "name": "buyNFT",
      "outputs": [],
      "stateMutability": "payable",
      "type": "function"
    },
    {
      "inputs": [
        {
          "internalType": "uint256",
          "name": "tokenId",
          "type": "uint256"
        }
      ],
      "name": "checkMintByContract",
      "outputs": [
        {
          "internalType": "bool",
          "name": "",
          "type": "bool"
        }
      ],
      "stateMutability": "view",
      "type": "function"
    },
    {
      "inputs": [
        {
          "internalType": "uint256",
          "name": "passId",
          "type": "uint256"
        }
      ],
      "name": "checkMintPass",
      "outputs": [
        {
          "internalType": "bool",
          "name": "",
          "type": "bool"
        }
      ],
      "stateMutability": "view",
      "type": "function"
    },
    {
      "inputs": [
        {
          "internalType": "address",
          "name": "owner",
          "type": "address"
        },
        {
          "internalType": "uint256",
          "name": "tokenId",
          "type": "uint256"
        }
      ],
      "name": "checkOwnerMinted",
      "outputs": [
        {
          "internalType": "bool",
          "name": "",
          "type": "bool"
        }
      ],
      "stateMutability": "view",
      "type": "function"
    },
    {
      "inputs": [],
      "name": "getAvailableSlots",
      "outputs": [
        {
          "internalType": "uint256",
          "name": "",
          "type": "uint256"
        }
      ],
      "stateMutability": "view",
      "type": "function"
    },
    {
      "inputs": [],
      "name": "getContractBalance",
      "outputs": [
        {
          "internalType": "uint256",
          "name": "",
          "type": "uint256"
        }
      ],
      "stateMutability": "view",
      "type": "function"
    },
    {
      "inputs": [
        {
          "internalType": "address",
          "name": "owner",
          "type": "address"
        }
      ],
      "name": "getMintPass",
      "outputs": [
        {
          "components": [
            {
              "internalType": "uint256",
              "name": "tokenId",
              "type": "uint256"
            },
            {
              "internalType": "uint16",
              "name": "bought",
              "type": "uint16"
            },
            {
              "internalType": "uint16",
              "name": "maxAmount",
              "type": "uint16"
            }
          ],
          "internalType": "struct MintPassNFTSale[]",
          "name": "",
          "type": "tuple[]"
        }
      ],
      "stateMutability": "view",
      "type": "function"
    },
    {
      "inputs": [
        {
          "internalType": "uint256",
          "name": "mintPassId",
          "type": "uint256"
        }
      ],
      "name": "getMintPassAvailableSlots",
      "outputs": [
        {
          "internalType": "uint16",
          "name": "",
          "type": "uint16"
        }
      ],
      "stateMutability": "view",
      "type": "function"
    },
    {
      "inputs": [
        {
          "internalType": "uint256",
          "name": "tokenId",
          "type": "uint256"
        }
      ],
      "name": "getMintPassInfo",
      "outputs": [
        {
          "components": [
            {
              "internalType": "uint256",
              "name": "tokenId",
              "type": "uint256"
            },
            {
              "internalType": "uint16",
              "name": "bought",
              "type": "uint16"
            },
            {
              "internalType": "uint16",
              "name": "maxAmount",
              "type": "uint16"
            }
          ],
          "internalType": "struct MintPassNFTSale",
          "name": "",
          "type": "tuple"
        }
      ],
      "stateMutability": "view",
      "type": "function"
    },
    {
      "inputs": [
        {
          "internalType": "uint256",
          "name": "mintPassId",
          "type": "uint256"
        },
        {
          "internalType": "uint8",
          "name": "index",
          "type": "uint8"
        }
      ],
      "name": "getMintPassUsage",
      "outputs": [
        {
          "internalType": "uint256",
          "name": "",
          "type": "uint256"
        }
      ],
      "stateMutability": "view",
      "type": "function"
    },
    {
      "inputs": [
        {
          "internalType": "address",
          "name": "owner",
          "type": "address"
        },
        {
          "internalType": "uint256[]",
          "name": "arrIndex",
          "type": "uint256[]"
        }
      ],
      "name": "getMoonBeast",
      "outputs": [
        {
          "components": [
            {
              "internalType": "uint256",
              "name": "tokenId",
              "type": "uint256"
            },
            {
              "internalType": "string",
              "name": "uri",
              "type": "string"
            },
            {
              "internalType": "bool",
              "name": "mintByContract",
              "type": "bool"
            },
            {
              "internalType": "bool",
              "name": "isOwnerMinted",
              "type": "bool"
            }
          ],
          "internalType": "struct MoonBeastNFTSale[]",
          "name": "",
          "type": "tuple[]"
        }
      ],
      "stateMutability": "view",
      "type": "function"
    },
    {
      "inputs": [],
      "name": "getReadySale",
      "outputs": [
        {
          "internalType": "bool",
          "name": "",
          "type": "bool"
        }
      ],
      "stateMutability": "view",
      "type": "function"
    },
    {
      "inputs": [
        {
          "internalType": "uint256",
          "name": "maxSaleAmount",
          "type": "uint256"
        },
        {
          "internalType": "uint256",
          "name": "price",
          "type": "uint256"
        },
        {
          "internalType": "uint16",
          "name": "nftPerPass",
          "type": "uint16"
        },
        {
          "internalType": "address",
          "name": "mintPassNFT",
          "type": "address"
        },
        {
          "internalType": "address",
          "name": "moonBeastNFT",
          "type": "address"
        },
        {
          "internalType": "address",
          "name": "wallet",
          "type": "address"
        }
      ],
      "name": "initialize",
      "outputs": [],
      "stateMutability": "nonpayable",
      "type": "function"
    },
    {
      "inputs": [],
      "name": "owner",
      "outputs": [
        {
          "internalType": "address",
          "name": "",
          "type": "address"
        }
      ],
      "stateMutability": "view",
      "type": "function"
    },
    {
      "inputs": [],
      "name": "proxiableUUID",
      "outputs": [
        {
          "internalType": "bytes32",
          "name": "",
          "type": "bytes32"
        }
      ],
      "stateMutability": "view",
      "type": "function"
    },
    {
      "inputs": [],
      "name": "renounceOwnership",
      "outputs": [],
      "stateMutability": "nonpayable",
      "type": "function"
    },
    {
      "inputs": [
        {
          "internalType": "uint256",
          "name": "maxSaleAmount",
          "type": "uint256"
        }
      ],
      "name": "setMaxSaleAmount",
      "outputs": [],
      "stateMutability": "nonpayable",
      "type": "function"
    },
    {
      "inputs": [
        {
          "internalType": "address",
          "name": "mintPass",
          "type": "address"
        }
      ],
      "name": "setMintPassNFT",
      "outputs": [],
      "stateMutability": "nonpayable",
      "type": "function"
    },
    {
      "inputs": [
        {
          "internalType": "address",
          "name": "moonBeast",
          "type": "address"
        }
      ],
      "name": "setMoonBeastNFT",
      "outputs": [],
      "stateMutability": "nonpayable",
      "type": "function"
    },
    {
      "inputs": [
        {
          "internalType": "uint16",
          "name": "value",
          "type": "uint16"
        }
      ],
      "name": "setNftPerPass",
      "outputs": [],
      "stateMutability": "nonpayable",
      "type": "function"
    },
    {
      "inputs": [
        {
          "internalType": "uint256",
          "name": "price",
          "type": "uint256"
        }
      ],
      "name": "setPrice",
      "outputs": [],
      "stateMutability": "nonpayable",
      "type": "function"
    },
    {
      "inputs": [
        {
          "internalType": "bool",
          "name": "value",
          "type": "bool"
        }
      ],
      "name": "setReadySale",
      "outputs": [],
      "stateMutability": "nonpayable",
      "type": "function"
    },
    {
      "inputs": [
        {
          "internalType": "address payable",
          "name": "wallet",
          "type": "address"
        }
      ],
      "name": "setWallet",
      "outputs": [],
      "stateMutability": "nonpayable",
      "type": "function"
    },
    {
      "inputs": [
        {
          "internalType": "address",
          "name": "newOwner",
          "type": "address"
        }
      ],
      "name": "transferOwnership",
      "outputs": [],
      "stateMutability": "nonpayable",
      "type": "function"
    },
    {
      "inputs": [
        {
          "internalType": "address",
          "name": "newImplementation",
          "type": "address"
        }
      ],
      "name": "upgradeTo",
      "outputs": [],
      "stateMutability": "nonpayable",
      "type": "function"
    },
    {
      "inputs": [
        {
          "internalType": "address",
          "name": "newImplementation",
          "type": "address"
        },
        {
          "internalType": "bytes",
          "name": "data",
          "type": "bytes"
        }
      ],
      "name": "upgradeToAndCall",
      "outputs": [],
      "stateMutability": "payable",
      "type": "function"
    },
    {
      "inputs": [],
      "name": "withdrawTokenByOwner",
      "outputs": [],
      "stateMutability": "nonpayable",
      "type": "function"
    }
  ],
  "bytecode": "0x60a06040523073ffffffffffffffffffffffffffffffffffffffff1660809073ffffffffffffffffffffffffffffffffffffffff1660601b8152503480156200004757600080fd5b50620000586200005e60201b60201c565b62000209565b600060019054906101000a900460ff1615620000b1576040517f08c379a0000000000000000000000000000000000000000000000000000000008152600401620000a8906200015d565b60405180910390fd5b60ff801660008054906101000a900460ff1660ff161015620001235760ff6000806101000a81548160ff021916908360ff1602179055507f7f26b83ff96e1f2b6a682f133852f6798a09c465da95921460cefb384740249860ff6040516200011a91906200017f565b60405180910390a15b565b6000620001346027836200019c565b91506200014182620001ba565b604082019050919050565b6200015781620001ad565b82525050565b60006020820190508181036000830152620001788162000125565b9050919050565b60006020820190506200019660008301846200014c565b92915050565b600082825260208201905092915050565b600060ff82169050919050565b7f496e697469616c697a61626c653a20636f6e747261637420697320696e69746960008201527f616c697a696e6700000000000000000000000000000000000000000000000000602082015250565b60805160601c61526c62000244600039600081816110c00152818161114f0152818161125e015281816112ed01526113c2015261526c6000f3fe6080604052600436106101ee5760003560e01c80636f9fb98a1161010d578063b9d18eae116100a0578063deaa59df1161006f578063deaa59df146106bd578063deed00f6146106e6578063e22027de14610711578063f2fde38b1461074e578063f89595b514610777576101ee565b8063b9d18eae146105ef578063d5d753a41461061a578063d84e575b14610643578063dd1f3f6914610680576101ee565b80638810d276116100dc5780638810d276146105355780638c971cd01461055e5780638da5cb5b1461059b57806391b7f5ed146105c6576101ee565b80636f9fb98a1461048b578063715018a6146104b65780637428edea146104cd57806375b01d94146104f8576101ee565b80633659cfe61161018557806352d1902d1161015457806352d1902d146103cf5780635afa1a76146103fa5780635d0a8f6d14610437578063610757e414610460576101ee565b80633659cfe6146103365780633e823eed1461035f5780634f1ef2861461038a578063514c1ba6146103a6576101ee565b806322bc5a3f116101c157806322bc5a3f1461027a578063235b6ea1146102b75780632725368f146102e25780632bfccd3c1461030d576101ee565b80630b154c47146101f357806312c0aeb91461021e57806322298b9c14610235578063228443d814610251575b600080fd5b3480156101ff57600080fd5b506102086107b4565b6040516102159190613e6d565b60405180910390f35b34801561022a57600080fd5b506102336107da565b005b61024f600480360381019061024a9190613265565b610891565b005b34801561025d57600080fd5b50610278600480360381019061027391906130e2565b610e39565b005b34801561028657600080fd5b506102a1600480360381019061029c9190613225565b610ef5565b6040516102ae9190613e37565b60405180910390f35b3480156102c357600080fd5b506102cc610fd5565b6040516102d99190614316565b60405180910390f35b3480156102ee57600080fd5b506102f7610fdc565b6040516103049190613e88565b60405180910390f35b34801561031957600080fd5b50610334600480360381019061032f91906130e2565b611002565b005b34801561034257600080fd5b5061035d600480360381019061035891906130e2565b6110be565b005b34801561036b57600080fd5b50610374611247565b60405161038191906142fb565b60405180910390f35b6103a4600480360381019061039f91906131c9565b61125c565b005b3480156103b257600080fd5b506103cd60048036038101906103c891906132c5565b611399565b005b3480156103db57600080fd5b506103e46113be565b6040516103f19190613e52565b60405180910390f35b34801561040657600080fd5b50610421600480360381019061041c9190613169565b611477565b60405161042e9190613e15565b60405180910390f35b34801561044357600080fd5b5061045e60048036038101906104599190613395565b6116ec565b005b34801561046c57600080fd5b5061047561178e565b6040516104829190613daf565b60405180910390f35b34801561049757600080fd5b506104a06117b5565b6040516104ad9190614316565b60405180910390f35b3480156104c257600080fd5b506104cb6117c2565b005b3480156104d957600080fd5b506104e26117d6565b6040516104ef9190614316565b60405180910390f35b34801561050457600080fd5b5061051f600480360381019061051a9190613395565b6117dd565b60405161052c9190613e37565b60405180910390f35b34801561054157600080fd5b5061055c60048036038101906105579190613368565b611807565b005b34801561056a57600080fd5b506105856004803603810190610580919061347c565b611877565b6040516105929190614316565b60405180910390f35b3480156105a757600080fd5b506105b0611910565b6040516105bd9190613d94565b60405180910390f35b3480156105d257600080fd5b506105ed60048036038101906105e89190613395565b61193a565b005b3480156105fb57600080fd5b50610604611990565b6040516106119190614316565b60405180910390f35b34801561062657600080fd5b50610641600480360381019061063c91906133ef565b6119b0565b005b34801561064f57600080fd5b5061066a600480360381019061066591906130e2565b611e26565b6040516106779190613df3565b60405180910390f35b34801561068c57600080fd5b506106a760048036038101906106a29190613395565b61202b565b6040516106b491906142e0565b60405180910390f35b3480156106c957600080fd5b506106e460048036038101906106df919061313c565b61208f565b005b3480156106f257600080fd5b506106fb61214c565b6040516107089190613e37565b60405180910390f35b34801561071d57600080fd5b5061073860048036038101906107339190613395565b612163565b60405161074591906142fb565b60405180910390f35b34801561075a57600080fd5b50610775600480360381019061077091906130e2565b6121aa565b005b34801561078357600080fd5b5061079e60048036038101906107999190613395565b61222e565b6040516107ab9190613e37565b60405180910390f35b60fb60009054906101000a900473ffffffffffffffffffffffffffffffffffffffff1681565b6107e2612275565b60004711610825576040517f08c379a000000000000000000000000000000000000000000000000000000000815260040161081c906141a0565b60405180910390fd5b61010460029054906101000a900473ffffffffffffffffffffffffffffffffffffffff1673ffffffffffffffffffffffffffffffffffffffff166108fc479081150290604051600060405180830381858888f1935050505015801561088e573d6000803e3d6000fd5b50565b600260015414156108d7576040517f08c379a00000000000000000000000000000000000000000000000000000000081526004016108ce906142a0565b60405180910390fd5b600260018190555060fc60149054906101000a900460ff1661092e576040517f08c379a000000000000000000000000000000000000000000000000000000000815260040161092590614200565b60405180910390fd5b60008161ffff1611610975576040517f08c379a000000000000000000000000000000000000000000000000000000000815260040161096c90613f00565b60405180910390fd5b60006109826101026122f3565b6101015461099091906145ee565b90508161ffff168110156109a382612301565b600183116109e6576040518060400160405280600481526020017f204e465400000000000000000000000000000000000000000000000000000000815250610a1d565b6040518060400160405280600581526020017f204e4654730000000000000000000000000000000000000000000000000000008152505b604051602001610a2e929190613d5a565b60405160208183030381529060405290610a7e576040517f08c379a0000000000000000000000000000000000000000000000000000000008152600401610a759190613ebe565b60405180910390fd5b506000610a89612462565b90506000610a998287878761246a565b610aa88461ffff168334612553565b60005b86869050811015610de3576000878783818110610acb57610aca614871565b5b90506020020135905060005b61010460009054906101000a900461ffff1661ffff168161ffff161015610d955761010154610b076101026122f3565b1115610b48576040517f08c379a0000000000000000000000000000000000000000000000000000000008152600401610b3f90614180565b60405180910390fd5b8661ffff168461ffff16108015610b98575061010460009054906101000a900461ffff1661ffff1660fd600084815260200190815260200160002060009054906101000a900461ffff1661ffff16105b15610d8257600060fc60009054906101000a900473ffffffffffffffffffffffffffffffffffffffff1673ffffffffffffffffffffffffffffffffffffffff166354ba0f27876040518263ffffffff1660e01b8152600401610bfa9190613d94565b602060405180830381600087803b158015610c1457600080fd5b505af1158015610c28573d6000803e3d6000fd5b505050506040513d601f19601f82011682018060405250810190610c4c91906133c2565b9050610c5961010261265b565b600185610c6691906144a1565b9450600160fd600085815260200190815260200160002060008282829054906101000a900461ffff16610c9991906144a1565b92506101000a81548161ffff021916908361ffff16021790555060fe600084815260200190815260200160002081908060018154018082558091505060019003906000526020600020016000909190919091505561010060008773ffffffffffffffffffffffffffffffffffffffff1673ffffffffffffffffffffffffffffffffffffffff168152602001908152602001600020819080600181540180825580915050600190039060005260206000200160009091909190915055600160ff600083815260200190815260200160002060006101000a81548160ff021916908315150217905550505b8080610d8d9061476e565b915050610ad7565b507f7f8aed29394d49180b299699236f142fbd3a78f6d1464929dd17e87b73ebc8d28482604051610dc7929190613dca565b60405180910390a1508080610ddb90614799565b915050610aab565b507f97bf454f192532251dbd9fbe53f38ecdffa89b2d4f9eb0a6a3ffcd656b4cb329610e106101026122f3565b61010154604051610e22929190614331565b60405180910390a150505060018081905550505050565b610e41612275565b600073ffffffffffffffffffffffffffffffffffffffff168173ffffffffffffffffffffffffffffffffffffffff161415610eb1576040517f08c379a0000000000000000000000000000000000000000000000000000000008152600401610ea890614100565b60405180910390fd5b8060fc60006101000a81548173ffffffffffffffffffffffffffffffffffffffff021916908373ffffffffffffffffffffffffffffffffffffffff16021790555050565b600080600090505b61010060008573ffffffffffffffffffffffffffffffffffffffff1673ffffffffffffffffffffffffffffffffffffffff16815260200190815260200160002080549050811015610fc9578261010060008673ffffffffffffffffffffffffffffffffffffffff1673ffffffffffffffffffffffffffffffffffffffff1681526020019081526020016000208281548110610f9b57610f9a614871565b5b90600052602060002001541415610fb6576001915050610fcf565b8080610fc190614799565b915050610efd565b50600090505b92915050565b6101035481565b60fc60009054906101000a900473ffffffffffffffffffffffffffffffffffffffff1681565b61100a612275565b600073ffffffffffffffffffffffffffffffffffffffff168173ffffffffffffffffffffffffffffffffffffffff16141561107a576040517f08c379a000000000000000000000000000000000000000000000000000000000815260040161107190613f60565b60405180910390fd5b8060fb60006101000a81548173ffffffffffffffffffffffffffffffffffffffff021916908373ffffffffffffffffffffffffffffffffffffffff16021790555050565b7f000000000000000000000000000000000000000000000000000000000000000073ffffffffffffffffffffffffffffffffffffffff163073ffffffffffffffffffffffffffffffffffffffff16141561114d576040517f08c379a000000000000000000000000000000000000000000000000000000000815260040161114490613fe0565b60405180910390fd5b7f000000000000000000000000000000000000000000000000000000000000000073ffffffffffffffffffffffffffffffffffffffff1661118c612671565b73ffffffffffffffffffffffffffffffffffffffff16146111e2576040517f08c379a00000000000000000000000000000000000000000000000000000000081526004016111d990614000565b60405180910390fd5b6111eb816126c8565b61124481600067ffffffffffffffff81111561120a576112096148a0565b5b6040519080825280601f01601f19166020018201604052801561123c5781602001600182028036833780820191505090505b5060006126d3565b50565b61010460009054906101000a900461ffff1681565b7f000000000000000000000000000000000000000000000000000000000000000073ffffffffffffffffffffffffffffffffffffffff163073ffffffffffffffffffffffffffffffffffffffff1614156112eb576040517f08c379a00000000000000000000000000000000000000000000000000000000081526004016112e290613fe0565b60405180910390fd5b7f000000000000000000000000000000000000000000000000000000000000000073ffffffffffffffffffffffffffffffffffffffff1661132a612671565b73ffffffffffffffffffffffffffffffffffffffff1614611380576040517f08c379a000000000000000000000000000000000000000000000000000000000815260040161137790614000565b60405180910390fd5b611389826126c8565b611395828260016126d3565b5050565b6113a1612275565b8060fc60146101000a81548160ff02191690831515021790555050565b60007f000000000000000000000000000000000000000000000000000000000000000073ffffffffffffffffffffffffffffffffffffffff163073ffffffffffffffffffffffffffffffffffffffff161461144e576040517f08c379a000000000000000000000000000000000000000000000000000000000815260040161144590614020565b60405180910390fd5b7f360894a13ba1a3210667c828492db98dca3e2076cc3735a920a3ca505d382bbc60001b905090565b606060008383905067ffffffffffffffff811115611498576114976148a0565b5b6040519080825280602002602001820160405280156114d157816020015b6114be612e9a565b8152602001906001900390816114b65790505b50905060008060005b868690508110156116de578686828181106114f8576114f7614871565b5b90506020020135915060fc60009054906101000a900473ffffffffffffffffffffffffffffffffffffffff1673ffffffffffffffffffffffffffffffffffffffff16632f745c5989846040518363ffffffff1660e01b815260040161155e929190613dca565b60206040518083038186803b15801561157657600080fd5b505afa15801561158a573d6000803e3d6000fd5b505050506040513d601f19601f820116820180604052508101906115ae91906133c2565b9250604051806080016040528084815260200160fc60009054906101000a900473ffffffffffffffffffffffffffffffffffffffff1673ffffffffffffffffffffffffffffffffffffffff1663c87b56dd866040518263ffffffff1660e01b815260040161161c9190614316565b60006040518083038186803b15801561163457600080fd5b505afa158015611648573d6000803e3d6000fd5b505050506040513d6000823e3d601f19601f82011682018060405250810190611671919061331f565b815260200160ff600086815260200190815260200160002060009054906101000a900460ff16151581526020016116a88a86610ef5565b15158152508482815181106116c0576116bf614871565b5b602002602001018190525080806116d690614799565b9150506114da565b508293505050509392505050565b6116f4612275565b60008111611737576040517f08c379a000000000000000000000000000000000000000000000000000000000815260040161172e90613f80565b60405180910390fd5b6117426101026122f3565b8111611783576040517f08c379a000000000000000000000000000000000000000000000000000000000815260040161177a90613fa0565b60405180910390fd5b806101018190555050565b61010460029054906101000a900473ffffffffffffffffffffffffffffffffffffffff1681565b6000804790508091505090565b6117ca612275565b6117d46000612850565b565b6101015481565b600060ff600083815260200190815260200160002060009054906101000a900460ff169050919050565b61180f612275565b60008161ffff1611611856576040517f08c379a000000000000000000000000000000000000000000000000000000000815260040161184d90614280565b60405180910390fd5b8061010460006101000a81548161ffff021916908361ffff16021790555050565b600060fe6000848152602001908152602001600020805490508260ff1611156118d5576040517f08c379a00000000000000000000000000000000000000000000000000000000081526004016118cc906140e0565b60405180910390fd5b60fe60008481526020019081526020016000208260ff16815481106118fd576118fc614871565b5b9060005260206000200154905092915050565b6000606560009054906101000a900473ffffffffffffffffffffffffffffffffffffffff16905090565b611942612275565b60008111611985576040517f08c379a000000000000000000000000000000000000000000000000000000000815260040161197c906142c0565b60405180910390fd5b806101038190555050565b600061199d6101026122f3565b610101546119ab91906145ee565b905090565b60008060019054906101000a900460ff161590508080156119e15750600160008054906101000a900460ff1660ff16105b80611a0e57506119f030612916565b158015611a0d5750600160008054906101000a900460ff1660ff16145b5b611a4d576040517f08c379a0000000000000000000000000000000000000000000000000000000008152600401611a44906140a0565b60405180910390fd5b60016000806101000a81548160ff021916908360ff1602179055508015611a8a576001600060016101000a81548160ff0219169083151502179055505b60008711611acd576040517f08c379a0000000000000000000000000000000000000000000000000000000008152600401611ac490613f00565b60405180910390fd5b60008611611b10576040517f08c379a0000000000000000000000000000000000000000000000000000000008152600401611b0790613f00565b60405180910390fd5b60008561ffff1611611b57576040517f08c379a0000000000000000000000000000000000000000000000000000000008152600401611b4e90613f00565b60405180910390fd5b600073ffffffffffffffffffffffffffffffffffffffff168473ffffffffffffffffffffffffffffffffffffffff161415611bc7576040517f08c379a0000000000000000000000000000000000000000000000000000000008152600401611bbe90613f20565b60405180910390fd5b600073ffffffffffffffffffffffffffffffffffffffff168373ffffffffffffffffffffffffffffffffffffffff161415611c37576040517f08c379a0000000000000000000000000000000000000000000000000000000008152600401611c2e90614060565b60405180910390fd5b600073ffffffffffffffffffffffffffffffffffffffff168273ffffffffffffffffffffffffffffffffffffffff161415611ca7576040517f08c379a0000000000000000000000000000000000000000000000000000000008152600401611c9e90614240565b60405180910390fd5b611caf612939565b611cb7612992565b866101018190555085610103819055508461010460006101000a81548161ffff021916908361ffff1602179055508360fb60006101000a81548173ffffffffffffffffffffffffffffffffffffffff021916908373ffffffffffffffffffffffffffffffffffffffff1602179055508260fc60006101000a81548173ffffffffffffffffffffffffffffffffffffffff021916908373ffffffffffffffffffffffffffffffffffffffff1602179055508161010460026101000a81548173ffffffffffffffffffffffffffffffffffffffff021916908373ffffffffffffffffffffffffffffffffffffffff160217905550600060fc60146101000a81548160ff0219169083151502179055508015611e1d5760008060016101000a81548160ff0219169083151502179055507f7f26b83ff96e1f2b6a682f133852f6798a09c465da95921460cefb38474024986001604051611e149190613ea3565b60405180910390a15b50505050505050565b6060600060fb60009054906101000a900473ffffffffffffffffffffffffffffffffffffffff1673ffffffffffffffffffffffffffffffffffffffff166370a08231846040518263ffffffff1660e01b8152600401611e859190613d94565b60206040518083038186803b158015611e9d57600080fd5b505afa158015611eb1573d6000803e3d6000fd5b505050506040513d601f19601f82011682018060405250810190611ed591906133c2565b905060008167ffffffffffffffff811115611ef357611ef26148a0565b5b604051908082528060200260200182016040528015611f2c57816020015b611f19612ec6565b815260200190600190039081611f115790505b50905060005b8281101561202057611fef60fb60009054906101000a900473ffffffffffffffffffffffffffffffffffffffff1673ffffffffffffffffffffffffffffffffffffffff16632f745c5987846040518363ffffffff1660e01b8152600401611f9a929190613dca565b60206040518083038186803b158015611fb257600080fd5b505afa158015611fc6573d6000803e3d6000fd5b505050506040513d601f19601f82011682018060405250810190611fea91906133c2565b61202b565b82828151811061200257612001614871565b5b6020026020010181905250808061201890614799565b915050611f32565b508092505050919050565b612033612ec6565b604051806060016040528083815260200160fd600085815260200190815260200160002060009054906101000a900461ffff1661ffff16815260200161010460009054906101000a900461ffff1661ffff168152509050919050565b612097612275565b600073ffffffffffffffffffffffffffffffffffffffff168173ffffffffffffffffffffffffffffffffffffffff161415612107576040517f08c379a00000000000000000000000000000000000000000000000000000000081526004016120fe90613f40565b60405180910390fd5b8061010460026101000a81548173ffffffffffffffffffffffffffffffffffffffff021916908373ffffffffffffffffffffffffffffffffffffffff16021790555050565b600060fc60149054906101000a900460ff16905090565b600060fd600083815260200190815260200160002060009054906101000a900461ffff1661010460009054906101000a900461ffff166121a391906145ba565b9050919050565b6121b2612275565b600073ffffffffffffffffffffffffffffffffffffffff168173ffffffffffffffffffffffffffffffffffffffff161415612222576040517f08c379a000000000000000000000000000000000000000000000000000000000815260040161221990613fc0565b60405180910390fd5b61222b81612850565b50565b600061010460009054906101000a900461ffff1661ffff1660fd600084815260200190815260200160002060009054906101000a900461ffff1661ffff1610159050919050565b61227d612462565b73ffffffffffffffffffffffffffffffffffffffff1661229b611910565b73ffffffffffffffffffffffffffffffffffffffff16146122f1576040517f08c379a00000000000000000000000000000000000000000000000000000000081526004016122e890614160565b60405180910390fd5b565b600081600001549050919050565b60606000821415612349576040518060400160405280600181526020017f3000000000000000000000000000000000000000000000000000000000000000815250905061245d565b600082905060005b6000821461237b57808061236490614799565b915050600a82612374919061452f565b9150612351565b60008167ffffffffffffffff811115612397576123966148a0565b5b6040519080825280601f01601f1916602001820160405280156123c95781602001600182028036833780820191505090505b5090505b60008514612456576001826123e291906145ee565b9150600a856123f191906147e2565b60306123fd91906144d9565b60f81b81838151811061241357612412614871565b5b60200101907effffffffffffffffffffffffffffffffffffffffffffffffffffffffffffff1916908160001a905350600a8561244f919061452f565b94506123cd565b8093505050505b919050565b600033905090565b6000805b8484905081101561250057600085858381811061248e5761248d614871565b5b9050602002013590506124a181886129e3565b60fd600082815260200190815260200160002060009054906101000a900461ffff1661010460009054906101000a900461ffff166124df91906145ba565b836124ea91906144a1565b92505080806124f890614799565b91505061246e565b508161ffff168161ffff16101561254c576040517f08c379a000000000000000000000000000000000000000000000000000000000815260040161254390614040565b60405180910390fd5b5050505050565b60008311612596576040517f08c379a000000000000000000000000000000000000000000000000000000000815260040161258d906141e0565b60405180910390fd5b600073ffffffffffffffffffffffffffffffffffffffff168273ffffffffffffffffffffffffffffffffffffffff161415612606576040517f08c379a00000000000000000000000000000000000000000000000000000000081526004016125fd90614260565b60405180910390fd5b8083610103546126169190614560565b14612656576040517f08c379a000000000000000000000000000000000000000000000000000000000815260040161264d906140c0565b60405180910390fd5b505050565b6001816000016000828254019250508190555050565b600061269f7f360894a13ba1a3210667c828492db98dca3e2076cc3735a920a3ca505d382bbc60001b612ba6565b60000160009054906101000a900473ffffffffffffffffffffffffffffffffffffffff16905090565b6126d0612275565b50565b6126ff7f4910fdfa16fed3260ed0e7147f7cc6da11a60208b5b9406d12a635614ffd914360001b612bb0565b60000160009054906101000a900460ff16156127235761271e83612bba565b61284b565b8273ffffffffffffffffffffffffffffffffffffffff166352d1902d6040518163ffffffff1660e01b815260040160206040518083038186803b15801561276957600080fd5b505afa92505050801561279a57506040513d601f19601f8201168201806040525081019061279791906132f2565b60015b6127d9576040517f08c379a00000000000000000000000000000000000000000000000000000000081526004016127d090614120565b60405180910390fd5b7f360894a13ba1a3210667c828492db98dca3e2076cc3735a920a3ca505d382bbc60001b811461283e576040517f08c379a000000000000000000000000000000000000000000000000000000000815260040161283590614080565b60405180910390fd5b5061284a838383612c73565b5b505050565b6000606560009054906101000a900473ffffffffffffffffffffffffffffffffffffffff16905081606560006101000a81548173ffffffffffffffffffffffffffffffffffffffff021916908373ffffffffffffffffffffffffffffffffffffffff1602179055508173ffffffffffffffffffffffffffffffffffffffff168173ffffffffffffffffffffffffffffffffffffffff167f8be0079c531659141344cd1fd0a4f28419497f9722a3daafe3b4186f6b6457e060405160405180910390a35050565b6000808273ffffffffffffffffffffffffffffffffffffffff163b119050919050565b600060019054906101000a900460ff16612988576040517f08c379a000000000000000000000000000000000000000000000000000000000815260040161297f90614220565b60405180910390fd5b612990612c9f565b565b600060019054906101000a900460ff166129e1576040517f08c379a00000000000000000000000000000000000000000000000000000000081526004016129d890614220565b60405180910390fd5b565b8073ffffffffffffffffffffffffffffffffffffffff1660fb60009054906101000a900473ffffffffffffffffffffffffffffffffffffffff1673ffffffffffffffffffffffffffffffffffffffff16636352211e846040518263ffffffff1660e01b8152600401612a559190614316565b60206040518083038186803b158015612a6d57600080fd5b505afa158015612a81573d6000803e3d6000fd5b505050506040513d601f19601f82011682018060405250810190612aa5919061310f565b73ffffffffffffffffffffffffffffffffffffffff1614612afb576040517f08c379a0000000000000000000000000000000000000000000000000000000008152600401612af290613ee0565b60405180910390fd5b61010460009054906101000a900461ffff1661ffff1660fd600084815260200190815260200160002060009054906101000a900461ffff1661ffff1610612b4183612301565b604051602001612b519190613d2d565b60405160208183030381529060405290612ba1576040517f08c379a0000000000000000000000000000000000000000000000000000000008152600401612b989190613ebe565b60405180910390fd5b505050565b6000819050919050565b6000819050919050565b612bc381612916565b612c02576040517f08c379a0000000000000000000000000000000000000000000000000000000008152600401612bf990614140565b60405180910390fd5b80612c2f7f360894a13ba1a3210667c828492db98dca3e2076cc3735a920a3ca505d382bbc60001b612ba6565b60000160006101000a81548173ffffffffffffffffffffffffffffffffffffffff021916908373ffffffffffffffffffffffffffffffffffffffff16021790555050565b612c7c83612d00565b600082511180612c895750805b15612c9a57612c988383612d4f565b505b505050565b600060019054906101000a900460ff16612cee576040517f08c379a0000000000000000000000000000000000000000000000000000000008152600401612ce590614220565b60405180910390fd5b612cfe612cf9612462565b612850565b565b612d0981612bba565b8073ffffffffffffffffffffffffffffffffffffffff167fbc7cd75a20ee27fd9adebab32041f755214dbc6bffa90cc0225b39da2e5c2d3b60405160405180910390a250565b6060612d5a83612916565b612d99576040517f08c379a0000000000000000000000000000000000000000000000000000000008152600401612d90906141c0565b60405180910390fd5b6000808473ffffffffffffffffffffffffffffffffffffffff1684604051612dc19190613d16565b600060405180830381855af49150503d8060008114612dfc576040519150601f19603f3d011682016040523d82523d6000602084013e612e01565b606091505b5091509150612e29828260405180606001604052806027815260200161521060279139612e33565b9250505092915050565b60608315612e4357829050612e93565b600083511115612e565782518084602001fd5b816040517f08c379a0000000000000000000000000000000000000000000000000000000008152600401612e8a9190613ebe565b60405180910390fd5b9392505050565b604051806080016040528060008152602001606081526020016000151581526020016000151581525090565b604051806060016040528060008152602001600061ffff168152602001600061ffff1681525090565b6000612f02612efd8461437f565b61435a565b905082815260208101848484011115612f1e57612f1d6148de565b5b612f298482856146fb565b509392505050565b6000612f44612f3f846143b0565b61435a565b905082815260208101848484011115612f6057612f5f6148de565b5b612f6b84828561470a565b509392505050565b600081359050612f828161516e565b92915050565b600081519050612f978161516e565b92915050565b600081359050612fac81615185565b92915050565b60008083601f840112612fc857612fc76148d4565b5b8235905067ffffffffffffffff811115612fe557612fe46148cf565b5b602083019150836020820283011115613001576130006148d9565b5b9250929050565b6000813590506130178161519c565b92915050565b60008151905061302c816151b3565b92915050565b600082601f830112613047576130466148d4565b5b8135613057848260208601612eef565b91505092915050565b600082601f830112613075576130746148d4565b5b8151613085848260208601612f31565b91505092915050565b60008135905061309d816151ca565b92915050565b6000813590506130b2816151e1565b92915050565b6000815190506130c7816151e1565b92915050565b6000813590506130dc816151f8565b92915050565b6000602082840312156130f8576130f76148e8565b5b600061310684828501612f73565b91505092915050565b600060208284031215613125576131246148e8565b5b600061313384828501612f88565b91505092915050565b600060208284031215613152576131516148e8565b5b600061316084828501612f9d565b91505092915050565b600080600060408486031215613182576131816148e8565b5b600061319086828701612f73565b935050602084013567ffffffffffffffff8111156131b1576131b06148e3565b5b6131bd86828701612fb2565b92509250509250925092565b600080604083850312156131e0576131df6148e8565b5b60006131ee85828601612f73565b925050602083013567ffffffffffffffff81111561320f5761320e6148e3565b5b61321b85828601613032565b9150509250929050565b6000806040838503121561323c5761323b6148e8565b5b600061324a85828601612f73565b925050602061325b858286016130a3565b9150509250929050565b60008060006040848603121561327e5761327d6148e8565b5b600084013567ffffffffffffffff81111561329c5761329b6148e3565b5b6132a886828701612fb2565b935093505060206132bb8682870161308e565b9150509250925092565b6000602082840312156132db576132da6148e8565b5b60006132e984828501613008565b91505092915050565b600060208284031215613308576133076148e8565b5b60006133168482850161301d565b91505092915050565b600060208284031215613335576133346148e8565b5b600082015167ffffffffffffffff811115613353576133526148e3565b5b61335f84828501613060565b91505092915050565b60006020828403121561337e5761337d6148e8565b5b600061338c8482850161308e565b91505092915050565b6000602082840312156133ab576133aa6148e8565b5b60006133b9848285016130a3565b91505092915050565b6000602082840312156133d8576133d76148e8565b5b60006133e6848285016130b8565b91505092915050565b60008060008060008060c0878903121561340c5761340b6148e8565b5b600061341a89828a016130a3565b965050602061342b89828a016130a3565b955050604061343c89828a0161308e565b945050606061344d89828a01612f73565b935050608061345e89828a01612f73565b92505060a061346f89828a01612f73565b9150509295509295509295565b60008060408385031215613493576134926148e8565b5b60006134a1858286016130a3565b92505060206134b2858286016130cd565b9150509250929050565b60006134c88383613bf3565b60608301905092915050565b60006134e08383613c77565b905092915050565b6134f181614634565b82525050565b61350081614622565b82525050565b600061351182614401565b61351b8185614447565b9350613526836143e1565b8060005b8381101561355757815161353e88826134bc565b97506135498361442d565b92505060018101905061352a565b5085935050505092915050565b600061356f8261440c565b6135798185614458565b93508360208202850161358b856143f1565b8060005b858110156135c757848403895281516135a885826134d4565b94506135b38361443a565b925060208a0199505060018101905061358f565b50829750879550505050505092915050565b6135e281614646565b82525050565b6135f181614646565b82525050565b61360081614652565b82525050565b600061361182614417565b61361b8185614469565b935061362b81856020860161470a565b80840191505092915050565b613640816146a1565b82525050565b61364f816146b3565b82525050565b61365e816146c5565b82525050565b600061366f82614422565b6136798185614474565b935061368981856020860161470a565b613692816148ed565b840191505092915050565b60006136a882614422565b6136b28185614485565b93506136c281856020860161470a565b6136cb816148ed565b840191505092915050565b60006136e182614422565b6136eb8185614496565b93506136fb81856020860161470a565b80840191505092915050565b6000613714602383614485565b915061371f826148fe565b604082019050919050565b6000613737602483614485565b91506137428261494d565b604082019050919050565b600061375a601f83614485565b91506137658261499c565b602082019050919050565b600061377d601a83614485565b9150613788826149c5565b602082019050919050565b60006137a0601f83614485565b91506137ab826149ee565b602082019050919050565b60006137c3602483614485565b91506137ce82614a17565b604082019050919050565b60006137e6603583614485565b91506137f182614a66565b604082019050919050565b6000613809602683614485565b915061381482614ab5565b604082019050919050565b600061382c602c83614485565b915061383782614b04565b604082019050919050565b600061384f602c83614485565b915061385a82614b53565b604082019050919050565b6000613872603883614485565b915061387d82614ba2565b604082019050919050565b6000613895601683614485565b91506138a082614bf1565b602082019050919050565b60006138b8602083614485565b91506138c382614c1a565b602082019050919050565b60006138db602983614485565b91506138e682614c43565b604082019050919050565b60006138fe602e83614485565b915061390982614c92565b604082019050919050565b6000613921601d83614485565b915061392c82614ce1565b602082019050919050565b6000613944601283614485565b915061394f82614d0a565b602082019050919050565b6000613967602083614485565b915061397282614d33565b602082019050919050565b600061398a600d83614496565b915061399582614d5c565b600d82019050919050565b60006139ad602e83614485565b91506139b882614d85565b604082019050919050565b60006139d0602d83614485565b91506139db82614dd4565b604082019050919050565b60006139f3602083614485565b91506139fe82614e23565b602082019050919050565b6000613a16602f83614485565b9150613a2182614e4c565b604082019050919050565b6000613a39601a83614485565b9150613a4482614e9b565b602082019050919050565b6000613a5c602683614485565b9150613a6782614ec4565b604082019050919050565b6000613a7f602b83614485565b9150613a8a82614f13565b604082019050919050565b6000613aa2601983614485565b9150613aad82614f62565b602082019050919050565b6000613ac5603183614496565b9150613ad082614f8b565b603182019050919050565b6000613ae8602b83614485565b9150613af382614fda565b604082019050919050565b6000613b0b601683614496565b9150613b1682615029565b601682019050919050565b6000613b2e601a83614485565b9150613b3982615052565b602082019050919050565b6000613b51601f83614485565b9150613b5c8261507b565b602082019050919050565b6000613b74602183614485565b9150613b7f826150a4565b604082019050919050565b6000613b97601f83614485565b9150613ba2826150f3565b602082019050919050565b6000613bba600583614496565b9150613bc58261511c565b600582019050919050565b6000613bdd601c83614485565b9150613be882615145565b602082019050919050565b606082016000820151613c096000850182613cf8565b506020820151613c1c6020850182613cda565b506040820151613c2f6040850182613cda565b50505050565b606082016000820151613c4b6000850182613cf8565b506020820151613c5e6020850182613cda565b506040820151613c716040850182613cda565b50505050565b6000608083016000830151613c8f6000860182613cf8565b5060208301518482036020860152613ca78282613664565b9150506040830151613cbc60408601826135d9565b506060830151613ccf60608601826135d9565b508091505092915050565b613ce38161465c565b82525050565b613cf28161465c565b82525050565b613d018161468a565b82525050565b613d108161468a565b82525050565b6000613d228284613606565b915081905092915050565b6000613d388261397d565b9150613d4482846136d6565b9150613d4f82613afe565b915081905092915050565b6000613d6582613ab8565b9150613d7182856136d6565b9150613d7d82846136d6565b9150613d8882613bad565b91508190509392505050565b6000602082019050613da960008301846134f7565b92915050565b6000602082019050613dc460008301846134e8565b92915050565b6000604082019050613ddf60008301856134f7565b613dec6020830184613d07565b9392505050565b60006020820190508181036000830152613e0d8184613506565b905092915050565b60006020820190508181036000830152613e2f8184613564565b905092915050565b6000602082019050613e4c60008301846135e8565b92915050565b6000602082019050613e6760008301846135f7565b92915050565b6000602082019050613e826000830184613637565b92915050565b6000602082019050613e9d6000830184613646565b92915050565b6000602082019050613eb86000830184613655565b92915050565b60006020820190508181036000830152613ed8818461369d565b905092915050565b60006020820190508181036000830152613ef981613707565b9050919050565b60006020820190508181036000830152613f198161372a565b9050919050565b60006020820190508181036000830152613f398161374d565b9050919050565b60006020820190508181036000830152613f5981613770565b9050919050565b60006020820190508181036000830152613f7981613793565b9050919050565b60006020820190508181036000830152613f99816137b6565b9050919050565b60006020820190508181036000830152613fb9816137d9565b9050919050565b60006020820190508181036000830152613fd9816137fc565b9050919050565b60006020820190508181036000830152613ff98161381f565b9050919050565b6000602082019050818103600083015261401981613842565b9050919050565b6000602082019050818103600083015261403981613865565b9050919050565b6000602082019050818103600083015261405981613888565b9050919050565b60006020820190508181036000830152614079816138ab565b9050919050565b60006020820190508181036000830152614099816138ce565b9050919050565b600060208201905081810360008301526140b9816138f1565b9050919050565b600060208201905081810360008301526140d981613914565b9050919050565b600060208201905081810360008301526140f981613937565b9050919050565b600060208201905081810360008301526141198161395a565b9050919050565b60006020820190508181036000830152614139816139a0565b9050919050565b60006020820190508181036000830152614159816139c3565b9050919050565b60006020820190508181036000830152614179816139e6565b9050919050565b6000602082019050818103600083015261419981613a09565b9050919050565b600060208201905081810360008301526141b981613a2c565b9050919050565b600060208201905081810360008301526141d981613a4f565b9050919050565b600060208201905081810360008301526141f981613a72565b9050919050565b6000602082019050818103600083015261421981613a95565b9050919050565b6000602082019050818103600083015261423981613adb565b9050919050565b6000602082019050818103600083015261425981613b21565b9050919050565b6000602082019050818103600083015261427981613b44565b9050919050565b6000602082019050818103600083015261429981613b67565b9050919050565b600060208201905081810360008301526142b981613b8a565b9050919050565b600060208201905081810360008301526142d981613bd0565b9050919050565b60006060820190506142f56000830184613c35565b92915050565b60006020820190506143106000830184613ce9565b92915050565b600060208201905061432b6000830184613d07565b92915050565b60006040820190506143466000830185613d07565b6143536020830184613d07565b9392505050565b6000614364614375565b9050614370828261473d565b919050565b6000604051905090565b600067ffffffffffffffff82111561439a576143996148a0565b5b6143a3826148ed565b9050602081019050919050565b600067ffffffffffffffff8211156143cb576143ca6148a0565b5b6143d4826148ed565b9050602081019050919050565b6000819050602082019050919050565b6000819050602082019050919050565b600081519050919050565b600081519050919050565b600081519050919050565b600081519050919050565b6000602082019050919050565b6000602082019050919050565b600082825260208201905092915050565b600082825260208201905092915050565b600081905092915050565b600082825260208201905092915050565b600082825260208201905092915050565b600081905092915050565b60006144ac8261465c565b91506144b78361465c565b92508261ffff038211156144ce576144cd614813565b5b828201905092915050565b60006144e48261468a565b91506144ef8361468a565b9250827fffffffffffffffffffffffffffffffffffffffffffffffffffffffffffffffff0382111561452457614523614813565b5b828201905092915050565b600061453a8261468a565b91506145458361468a565b92508261455557614554614842565b5b828204905092915050565b600061456b8261468a565b91506145768361468a565b9250817fffffffffffffffffffffffffffffffffffffffffffffffffffffffffffffffff04831182151516156145af576145ae614813565b5b828202905092915050565b60006145c58261465c565b91506145d08361465c565b9250828210156145e3576145e2614813565b5b828203905092915050565b60006145f98261468a565b91506146048361468a565b92508282101561461757614616614813565b5b828203905092915050565b600061462d8261466a565b9050919050565b600061463f8261466a565b9050919050565b60008115159050919050565b6000819050919050565b600061ffff82169050919050565b600073ffffffffffffffffffffffffffffffffffffffff82169050919050565b6000819050919050565b600060ff82169050919050565b60006146ac826146d7565b9050919050565b60006146be826146d7565b9050919050565b60006146d082614694565b9050919050565b60006146e2826146e9565b9050919050565b60006146f48261466a565b9050919050565b82818337600083830152505050565b60005b8381101561472857808201518184015260208101905061470d565b83811115614737576000848401525b50505050565b614746826148ed565b810181811067ffffffffffffffff82111715614765576147646148a0565b5b80604052505050565b60006147798261465c565b915061ffff82141561478e5761478d614813565b5b600182019050919050565b60006147a48261468a565b91507fffffffffffffffffffffffffffffffffffffffffffffffffffffffffffffffff8214156147d7576147d6614813565b5b600182019050919050565b60006147ed8261468a565b91506147f88361468a565b92508261480857614807614842565b5b828206905092915050565b7f4e487b7100000000000000000000000000000000000000000000000000000000600052601160045260246000fd5b7f4e487b7100000000000000000000000000000000000000000000000000000000600052601260045260246000fd5b7f4e487b7100000000000000000000000000000000000000000000000000000000600052603260045260246000fd5b7f4e487b7100000000000000000000000000000000000000000000000000000000600052604160045260246000fd5b600080fd5b600080fd5b600080fd5b600080fd5b600080fd5b600080fd5b6000601f19601f8301169050919050565b7f596f7520646f6e2774206f776e20616c6c207468657365206d696e742070617360008201527f7365730000000000000000000000000000000000000000000000000000000000602082015250565b7f6d617853616c65416d6f756e74206d757374206265206772656174657220746860008201527f616e203000000000000000000000000000000000000000000000000000000000602082015250565b7f6d696e74506173734e465420697320746865207a65726f206164647265737300600082015250565b7f57616c6c657420697320746865207a65726f2061646472657373000000000000600082015250565b7f4d696e74506173734e465420697320746865207a65726f206164647265737300600082015250565b7f4d617853616c65416d6f756e74206d757374206265206772656174657220746860008201527f616e203000000000000000000000000000000000000000000000000000000000602082015250565b7f4d617853616c65416d6f756e74206d757374206265206772656174657220746860008201527f616e205f63757272656e7453616c65416d6f756e740000000000000000000000602082015250565b7f4f776e61626c653a206e6577206f776e657220697320746865207a65726f206160008201527f6464726573730000000000000000000000000000000000000000000000000000602082015250565b7f46756e6374696f6e206d7573742062652063616c6c6564207468726f7567682060008201527f64656c656761746563616c6c0000000000000000000000000000000000000000602082015250565b7f46756e6374696f6e206d7573742062652063616c6c6564207468726f7567682060008201527f6163746976652070726f78790000000000000000000000000000000000000000602082015250565b7f555550535570677261646561626c653a206d757374206e6f742062652063616c60008201527f6c6564207468726f7567682064656c656761746563616c6c0000000000000000602082015250565b7f496e73756666696369656e74204d696e74205061737300000000000000000000600082015250565b7f6d6f6f6e42656173744e465420697320746865207a65726f2061646472657373600082015250565b7f45524331393637557067726164653a20756e737570706f727465642070726f7860008201527f6961626c65555549440000000000000000000000000000000000000000000000602082015250565b7f496e697469616c697a61626c653a20636f6e747261637420697320616c72656160008201527f647920696e697469616c697a6564000000000000000000000000000000000000602082015250565b7f5468652076616c756520796f752073656e7420697320696e76616c6964000000600082015250565b7f4f7574206f662061727261792072616e67650000000000000000000000000000600082015250565b7f4d6f6f6e42656173744e465420697320746865207a65726f2061646472657373600082015250565b7f4d696e74506173734e4654202300000000000000000000000000000000000000600082015250565b7f45524331393637557067726164653a206e657720696d706c656d656e7461746960008201527f6f6e206973206e6f742055555053000000000000000000000000000000000000602082015250565b7f455243313936373a206e657720696d706c656d656e746174696f6e206973206e60008201527f6f74206120636f6e747261637400000000000000000000000000000000000000602082015250565b7f4f776e61626c653a2063616c6c6572206973206e6f7420746865206f776e6572600082015250565b7f457863656564656420746865206e756d626572206f66204e46547320666f722060008201527f746869732073616c6520726f756e640000000000000000000000000000000000602082015250565b7f436f6e74726163742062616c616e6365206973203020474c4d52000000000000600082015250565b7f416464726573733a2064656c65676174652063616c6c20746f206e6f6e2d636f60008201527f6e74726163740000000000000000000000000000000000000000000000000000602082015250565b7f596f75206e656564206174206c65617374206f6e65206d696e7420706173732060008201527f746f206d696e74204e4654000000000000000000000000000000000000000000602082015250565b7f57686974656c69737420726f756e64206e6f7420726561647900000000000000600082015250565b7f457863656564656420746865206e756d626572206f66204e46547320666f722060008201527f746869732073616c6520726f756e642e20000000000000000000000000000000602082015250565b7f496e697469616c697a61626c653a20636f6e7472616374206973206e6f74206960008201527f6e697469616c697a696e67000000000000000000000000000000000000000000602082015250565b7f207573656420322f32207475726e206f66204d696e7400000000000000000000600082015250565b7f77616c6c657420697320746865207a65726f2061646472657373000000000000600082015250565b7f42656e656669636961727920697320746865207a65726f206164647265737300600082015250565b7f4e667450657250617373206d7573742062652067726561746572207468616e2060008201527f3000000000000000000000000000000000000000000000000000000000000000602082015250565b7f5265656e7472616e637947756172643a207265656e7472616e742063616c6c00600082015250565b7f206c656674000000000000000000000000000000000000000000000000000000600082015250565b7f5072696365206d7573742062652067726561746572207468616e203000000000600082015250565b61517781614622565b811461518257600080fd5b50565b61518e81614634565b811461519957600080fd5b50565b6151a581614646565b81146151b057600080fd5b50565b6151bc81614652565b81146151c757600080fd5b50565b6151d38161465c565b81146151de57600080fd5b50565b6151ea8161468a565b81146151f557600080fd5b50565b61520181614694565b811461520c57600080fd5b5056fe416464726573733a206c6f772d6c6576656c2064656c65676174652063616c6c206661696c6564a26469706673582212207118c0e98e7ba4057e62025a7c27d88799ae71aafe0ecc56a0ea3bc319d43fce64736f6c63430008070033",
  "linkReferences": {},
  "deployedLinkReferences": {}
}