{
  "_format": "hh-sol-artifact-1",
  "contractName": "UMoonFitNFTSale",
  "sourceName": "contracts/upgradeables/UMoonFitNFTSale.sol",
  "abi": [
    {
      "inputs": [],
      "stateMutability": "nonpayable",
      "type": "constructor"
    },
    {
      "anonymous": false,
      "inputs": [
        {
          "indexed": false,
          "internalType": "address",
          "name": "previousAdmin",
          "type": "address"
        },
        {
          "indexed": false,
          "internalType": "address",
          "name": "newAdmin",
          "type": "address"
        }
      ],
      "name": "AdminChanged",
      "type": "event"
    },
    {
      "anonymous": false,
      "inputs": [
        {
          "indexed": true,
          "internalType": "address",
          "name": "beacon",
          "type": "address"
        }
      ],
      "name": "BeaconUpgraded",
      "type": "event"
    },
    {
      "anonymous": false,
      "inputs": [
        {
          "indexed": false,
          "internalType": "uint8",
          "name": "version",
          "type": "uint8"
        }
      ],
      "name": "Initialized",
      "type": "event"
    },
    {
      "anonymous": false,
      "inputs": [
        {
          "indexed": false,
          "internalType": "address",
          "name": "beneficiary",
          "type": "address"
        },
        {
          "indexed": false,
          "internalType": "uint256",
          "name": "mintPassId",
          "type": "uint256"
        }
      ],
      "name": "NFTPurchased",
      "type": "event"
    },
    {
      "anonymous": false,
      "inputs": [
        {
          "indexed": true,
          "internalType": "address",
          "name": "previousOwner",
          "type": "address"
        },
        {
          "indexed": true,
          "internalType": "address",
          "name": "newOwner",
          "type": "address"
        }
      ],
      "name": "OwnershipTransferred",
      "type": "event"
    },
    {
      "anonymous": false,
      "inputs": [
        {
          "indexed": true,
          "internalType": "address",
          "name": "implementation",
          "type": "address"
        }
      ],
      "name": "Upgraded",
      "type": "event"
    },
    {
      "inputs": [
        {
          "internalType": "address",
          "name": "",
          "type": "address"
        }
      ],
      "name": "_buyers",
      "outputs": [
        {
          "internalType": "uint16",
          "name": "",
          "type": "uint16"
        }
      ],
      "stateMutability": "view",
      "type": "function"
    },
    {
      "inputs": [],
      "name": "_maxSaleAmount",
      "outputs": [
        {
          "internalType": "uint256",
          "name": "",
          "type": "uint256"
        }
      ],
      "stateMutability": "view",
      "type": "function"
    },
    {
      "inputs": [],
      "name": "_mintPassNFT",
      "outputs": [
        {
          "internalType": "contract IERC721",
          "name": "",
          "type": "address"
        }
      ],
      "stateMutability": "view",
      "type": "function"
    },
    {
      "inputs": [],
      "name": "_moonBeastNFT",
      "outputs": [
        {
          "internalType": "contract MoonBeast",
          "name": "",
          "type": "address"
        }
      ],
      "stateMutability": "view",
      "type": "function"
    },
    {
      "inputs": [],
      "name": "_nftPerPass",
      "outputs": [
        {
          "internalType": "uint16",
          "name": "",
          "type": "uint16"
        }
      ],
      "stateMutability": "view",
      "type": "function"
    },
    {
      "inputs": [],
      "name": "_price",
      "outputs": [
        {
          "internalType": "uint256",
          "name": "",
          "type": "uint256"
        }
      ],
      "stateMutability": "view",
      "type": "function"
    },
    {
      "inputs": [],
      "name": "_wallet",
      "outputs": [
        {
          "internalType": "address payable",
          "name": "",
          "type": "address"
        }
      ],
      "stateMutability": "view",
      "type": "function"
    },
    {
      "inputs": [
        {
          "internalType": "uint256[]",
          "name": "mintPassIds",
          "type": "uint256[]"
        },
        {
          "internalType": "uint16",
          "name": "amount",
          "type": "uint16"
        }
      ],
      "name": "buyNFT",
      "outputs": [],
      "stateMutability": "payable",
      "type": "function"
    },
    {
      "inputs": [
        {
          "internalType": "uint256",
          "name": "passId",
          "type": "uint256"
        }
      ],
      "name": "checkMintPass",
      "outputs": [
        {
          "internalType": "bool",
          "name": "",
          "type": "bool"
        }
      ],
      "stateMutability": "view",
      "type": "function"
    },
    {
      "inputs": [],
      "name": "getAvailableSlots",
      "outputs": [
        {
          "internalType": "uint256",
          "name": "",
          "type": "uint256"
        }
      ],
      "stateMutability": "view",
      "type": "function"
    },
    {
      "inputs": [
        {
          "internalType": "address",
          "name": "buyer",
          "type": "address"
        }
      ],
      "name": "getBuyerBalance",
      "outputs": [
        {
          "internalType": "uint256",
          "name": "",
          "type": "uint256"
        }
      ],
      "stateMutability": "view",
      "type": "function"
    },
    {
      "inputs": [],
      "name": "getContractBalance",
      "outputs": [
        {
          "internalType": "uint256",
          "name": "",
          "type": "uint256"
        }
      ],
      "stateMutability": "view",
      "type": "function"
    },
    {
      "inputs": [
        {
          "internalType": "uint256",
          "name": "mintPassId",
          "type": "uint256"
        }
      ],
      "name": "getMintPassAvailableSlots",
      "outputs": [
        {
          "internalType": "uint16",
          "name": "",
          "type": "uint16"
        }
      ],
      "stateMutability": "view",
      "type": "function"
    },
    {
      "inputs": [
        {
          "internalType": "uint256",
          "name": "mintPassId",
          "type": "uint256"
        },
        {
          "internalType": "uint8",
          "name": "index",
          "type": "uint8"
        }
      ],
      "name": "getMintPassUsage",
      "outputs": [
        {
          "internalType": "uint256",
          "name": "",
          "type": "uint256"
        }
      ],
      "stateMutability": "view",
      "type": "function"
    },
    {
      "inputs": [],
      "name": "getReadySale",
      "outputs": [
        {
          "internalType": "bool",
          "name": "",
          "type": "bool"
        }
      ],
      "stateMutability": "view",
      "type": "function"
    },
    {
      "inputs": [
        {
          "internalType": "uint256",
          "name": "maxSaleAmount",
          "type": "uint256"
        },
        {
          "internalType": "uint256",
          "name": "price",
          "type": "uint256"
        },
        {
          "internalType": "uint16",
          "name": "nftPerPass",
          "type": "uint16"
        },
        {
          "internalType": "address",
          "name": "mintPassNFT",
          "type": "address"
        },
        {
          "internalType": "address",
          "name": "moonBeastNFT",
          "type": "address"
        },
        {
          "internalType": "address",
          "name": "wallet",
          "type": "address"
        }
      ],
      "name": "initialize",
      "outputs": [],
      "stateMutability": "nonpayable",
      "type": "function"
    },
    {
      "inputs": [],
      "name": "owner",
      "outputs": [
        {
          "internalType": "address",
          "name": "",
          "type": "address"
        }
      ],
      "stateMutability": "view",
      "type": "function"
    },
    {
      "inputs": [],
      "name": "proxiableUUID",
      "outputs": [
        {
          "internalType": "bytes32",
          "name": "",
          "type": "bytes32"
        }
      ],
      "stateMutability": "view",
      "type": "function"
    },
    {
      "inputs": [],
      "name": "renounceOwnership",
      "outputs": [],
      "stateMutability": "nonpayable",
      "type": "function"
    },
    {
      "inputs": [
        {
          "internalType": "uint256",
          "name": "maxSaleAmount",
          "type": "uint256"
        }
      ],
      "name": "setMaxSaleAmount",
      "outputs": [],
      "stateMutability": "nonpayable",
      "type": "function"
    },
    {
      "inputs": [
        {
          "internalType": "address",
          "name": "mintPass",
          "type": "address"
        }
      ],
      "name": "setMintPassNFT",
      "outputs": [],
      "stateMutability": "nonpayable",
      "type": "function"
    },
    {
      "inputs": [
        {
          "internalType": "address",
          "name": "moonBeast",
          "type": "address"
        }
      ],
      "name": "setMoonBeastNFT",
      "outputs": [],
      "stateMutability": "nonpayable",
      "type": "function"
    },
    {
      "inputs": [
        {
          "internalType": "uint16",
          "name": "value",
          "type": "uint16"
        }
      ],
      "name": "setNftPerPass",
      "outputs": [],
      "stateMutability": "nonpayable",
      "type": "function"
    },
    {
      "inputs": [
        {
          "internalType": "uint256",
          "name": "price",
          "type": "uint256"
        }
      ],
      "name": "setPrice",
      "outputs": [],
      "stateMutability": "nonpayable",
      "type": "function"
    },
    {
      "inputs": [
        {
          "internalType": "bool",
          "name": "value",
          "type": "bool"
        }
      ],
      "name": "setReadySale",
      "outputs": [],
      "stateMutability": "nonpayable",
      "type": "function"
    },
    {
      "inputs": [
        {
          "internalType": "address payable",
          "name": "wallet",
          "type": "address"
        }
      ],
      "name": "setWallet",
      "outputs": [],
      "stateMutability": "nonpayable",
      "type": "function"
    },
    {
      "inputs": [
        {
          "internalType": "address",
          "name": "newOwner",
          "type": "address"
        }
      ],
      "name": "transferOwnership",
      "outputs": [],
      "stateMutability": "nonpayable",
      "type": "function"
    },
    {
      "inputs": [
        {
          "internalType": "address",
          "name": "newImplementation",
          "type": "address"
        }
      ],
      "name": "upgradeTo",
      "outputs": [],
      "stateMutability": "nonpayable",
      "type": "function"
    },
    {
      "inputs": [
        {
          "internalType": "address",
          "name": "newImplementation",
          "type": "address"
        },
        {
          "internalType": "bytes",
          "name": "data",
          "type": "bytes"
        }
      ],
      "name": "upgradeToAndCall",
      "outputs": [],
      "stateMutability": "payable",
      "type": "function"
    },
    {
      "inputs": [],
      "name": "withdrawTokenByOwner",
      "outputs": [],
      "stateMutability": "nonpayable",
      "type": "function"
    }
  ],
  "bytecode": "0x60a06040523073ffffffffffffffffffffffffffffffffffffffff1660809073ffffffffffffffffffffffffffffffffffffffff1660601b8152503480156200004757600080fd5b50620000586200005e60201b60201c565b62000209565b600060019054906101000a900460ff1615620000b1576040517f08c379a0000000000000000000000000000000000000000000000000000000008152600401620000a8906200015d565b60405180910390fd5b60ff801660008054906101000a900460ff1660ff161015620001235760ff6000806101000a81548160ff021916908360ff1602179055507f7f26b83ff96e1f2b6a682f133852f6798a09c465da95921460cefb384740249860ff6040516200011a91906200017f565b60405180910390a15b565b6000620001346027836200019c565b91506200014182620001ba565b604082019050919050565b6200015781620001ad565b82525050565b60006020820190508181036000830152620001788162000125565b9050919050565b60006020820190506200019660008301846200014c565b92915050565b600082825260208201905092915050565b600060ff82169050919050565b7f496e697469616c697a61626c653a20636f6e747261637420697320696e69746960008201527f616c697a696e6700000000000000000000000000000000000000000000000000602082015250565b60805160601c61435a6200024460003960008181610d7501528181610e0401528181610f6e01528181610ffd01526110d2015261435a6000f3fe6080604052600436106101cd5760003560e01c80636f9fb98a116100f757806391b7f5ed11610095578063deed00f611610064578063deed00f61461060e578063e22027de14610639578063f2fde38b14610676578063f89595b51461069f576101cd565b806391b7f5ed14610568578063b9d18eae14610591578063d5d753a4146105bc578063deaa59df146105e5576101cd565b806382b7de28116100d157806382b7de281461049a5780638810d276146104d75780638c971cd0146105005780638da5cb5b1461053d576101cd565b80636f9fb98a1461042d578063715018a6146104585780637428edea1461046f576101cd565b80633659cfe61161016f578063514c1ba61161013e578063514c1ba61461038557806352d1902d146103ae5780635d0a8f6d146103d9578063610757e414610402576101cd565b80633659cfe6146102d85780633e823eed146103015780634949c90f1461032c5780634f1ef28614610369576101cd565b8063228443d8116101ab578063228443d814610230578063235b6ea1146102595780632725368f146102845780632bfccd3c146102af576101cd565b80630b154c47146101d257806312c0aeb9146101fd57806322298b9c14610214575b600080fd5b3480156101de57600080fd5b506101e76106dc565b6040516101f49190613131565b60405180910390f35b34801561020957600080fd5b50610212610702565b005b61022e600480360381019061022991906128e0565b6107b9565b005b34801561023c57600080fd5b50610257600480360381019061025291906127fd565b610bce565b005b34801561026557600080fd5b5061026e610c8a565b60405161027b91906135ff565b60405180910390f35b34801561029057600080fd5b50610299610c91565b6040516102a6919061314c565b60405180910390f35b3480156102bb57600080fd5b506102d660048036038101906102d191906127fd565b610cb7565b005b3480156102e457600080fd5b506102ff60048036038101906102fa91906127fd565b610d73565b005b34801561030d57600080fd5b50610316610efc565b60405161032391906135e4565b60405180910390f35b34801561033857600080fd5b50610353600480360381019061034e91906127fd565b610f11565b60405161036091906135ff565b60405180910390f35b610383600480360381019061037e9190612884565b610f6c565b005b34801561039157600080fd5b506103ac60048036038101906103a79190612940565b6110a9565b005b3480156103ba57600080fd5b506103c36110ce565b6040516103d09190613116565b60405180910390f35b3480156103e557600080fd5b5061040060048036038101906103fb91906129c7565b611187565b005b34801561040e57600080fd5b50610417611229565b60405161042491906130b7565b60405180910390f35b34801561043957600080fd5b50610442611250565b60405161044f91906135ff565b60405180910390f35b34801561046457600080fd5b5061046d61125d565b005b34801561047b57600080fd5b50610484611271565b60405161049191906135ff565b60405180910390f35b3480156104a657600080fd5b506104c160048036038101906104bc91906127fd565b611278565b6040516104ce91906135e4565b60405180910390f35b3480156104e357600080fd5b506104fe60048036038101906104f9919061299a565b611299565b005b34801561050c57600080fd5b5061052760048036038101906105229190612aae565b611309565b60405161053491906135ff565b60405180910390f35b34801561054957600080fd5b506105526113a2565b60405161055f919061309c565b60405180910390f35b34801561057457600080fd5b5061058f600480360381019061058a91906129c7565b6113cc565b005b34801561059d57600080fd5b506105a6611422565b6040516105b391906135ff565b60405180910390f35b3480156105c857600080fd5b506105e360048036038101906105de9190612a21565b611442565b005b3480156105f157600080fd5b5061060c60048036038101906106079190612857565b6118b8565b005b34801561061a57600080fd5b50610623611975565b60405161063091906130fb565b60405180910390f35b34801561064557600080fd5b50610660600480360381019061065b91906129c7565b61198c565b60405161066d91906135e4565b60405180910390f35b34801561068257600080fd5b5061069d600480360381019061069891906127fd565b6119d3565b005b3480156106ab57600080fd5b506106c660048036038101906106c191906129c7565b611a57565b6040516106d391906130fb565b60405180910390f35b60fb60009054906101000a900473ffffffffffffffffffffffffffffffffffffffff1681565b61070a611a9e565b6000471161074d576040517f08c379a000000000000000000000000000000000000000000000000000000000815260040161074490613484565b60405180910390fd5b61010360029054906101000a900473ffffffffffffffffffffffffffffffffffffffff1673ffffffffffffffffffffffffffffffffffffffff166108fc479081150290604051600060405180830381858888f193505050501580156107b6573d6000803e3d6000fd5b50565b600260015414156107ff576040517f08c379a00000000000000000000000000000000000000000000000000000000081526004016107f6906135a4565b60405180910390fd5b600260018190555060fc60149054906101000a900460ff16610856576040517f08c379a000000000000000000000000000000000000000000000000000000000815260040161084d906134e4565b60405180910390fd5b60008161ffff161161089d576040517f08c379a0000000000000000000000000000000000000000000000000000000008152600401610894906131c4565b60405180910390fd5b60006108a7611b1c565b90506108b581858585611b24565b6108c48261ffff168234611c0d565b60005b84849050811015610bc05760008585838181106108e7576108e661398b565b5b90506020020135905060005b61010360009054906101000a900461ffff1661ffff168161ffff161015610b725761010054610923610101611e58565b10610963576040517f08c379a000000000000000000000000000000000000000000000000000000000815260040161095a90613464565b60405180910390fd5b61010360009054906101000a900461ffff1661ffff1660fe600084815260200190815260200160002060009054906101000a900461ffff1661ffff161015610b5f57600060fc60009054906101000a900473ffffffffffffffffffffffffffffffffffffffff1673ffffffffffffffffffffffffffffffffffffffff166354ba0f27866040518263ffffffff1660e01b8152600401610a02919061309c565b602060405180830381600087803b158015610a1c57600080fd5b505af1158015610a30573d6000803e3d6000fd5b505050506040513d601f19601f82011682018060405250810190610a5491906129f4565b9050610a61610101611e66565b600160fd60008773ffffffffffffffffffffffffffffffffffffffff1673ffffffffffffffffffffffffffffffffffffffff16815260200190815260200160002060008282829054906101000a900461ffff16610abe91906136a2565b92506101000a81548161ffff021916908361ffff160217905550600160fe600085815260200190815260200160002060008282829054906101000a900461ffff16610b0991906136a2565b92506101000a81548161ffff021916908361ffff16021790555060ff6000848152602001908152602001600020819080600181540180825580915050600190039060005260206000200160009091909190915055505b8080610b6a906138e8565b9150506108f3565b507f7f8aed29394d49180b299699236f142fbd3a78f6d1464929dd17e87b73ebc8d28382604051610ba49291906130d2565b60405180910390a1508080610bb890613913565b9150506108c7565b505060018081905550505050565b610bd6611a9e565b600073ffffffffffffffffffffffffffffffffffffffff168173ffffffffffffffffffffffffffffffffffffffff161415610c46576040517f08c379a0000000000000000000000000000000000000000000000000000000008152600401610c3d906133e4565b60405180910390fd5b8060fc60006101000a81548173ffffffffffffffffffffffffffffffffffffffff021916908373ffffffffffffffffffffffffffffffffffffffff16021790555050565b6101025481565b60fc60009054906101000a900473ffffffffffffffffffffffffffffffffffffffff1681565b610cbf611a9e565b600073ffffffffffffffffffffffffffffffffffffffff168173ffffffffffffffffffffffffffffffffffffffff161415610d2f576040517f08c379a0000000000000000000000000000000000000000000000000000000008152600401610d2690613244565b60405180910390fd5b8060fb60006101000a81548173ffffffffffffffffffffffffffffffffffffffff021916908373ffffffffffffffffffffffffffffffffffffffff16021790555050565b7f000000000000000000000000000000000000000000000000000000000000000073ffffffffffffffffffffffffffffffffffffffff163073ffffffffffffffffffffffffffffffffffffffff161415610e02576040517f08c379a0000000000000000000000000000000000000000000000000000000008152600401610df9906132c4565b60405180910390fd5b7f000000000000000000000000000000000000000000000000000000000000000073ffffffffffffffffffffffffffffffffffffffff16610e41611e7c565b73ffffffffffffffffffffffffffffffffffffffff1614610e97576040517f08c379a0000000000000000000000000000000000000000000000000000000008152600401610e8e906132e4565b60405180910390fd5b610ea081611ed3565b610ef981600067ffffffffffffffff811115610ebf57610ebe6139ba565b5b6040519080825280601f01601f191660200182016040528015610ef15781602001600182028036833780820191505090505b506000611ede565b50565b61010360009054906101000a900461ffff1681565b600060fd60008373ffffffffffffffffffffffffffffffffffffffff1673ffffffffffffffffffffffffffffffffffffffff16815260200190815260200160002060009054906101000a900461ffff1661ffff169050919050565b7f000000000000000000000000000000000000000000000000000000000000000073ffffffffffffffffffffffffffffffffffffffff163073ffffffffffffffffffffffffffffffffffffffff161415610ffb576040517f08c379a0000000000000000000000000000000000000000000000000000000008152600401610ff2906132c4565b60405180910390fd5b7f000000000000000000000000000000000000000000000000000000000000000073ffffffffffffffffffffffffffffffffffffffff1661103a611e7c565b73ffffffffffffffffffffffffffffffffffffffff1614611090576040517f08c379a0000000000000000000000000000000000000000000000000000000008152600401611087906132e4565b60405180910390fd5b61109982611ed3565b6110a582826001611ede565b5050565b6110b1611a9e565b8060fc60146101000a81548160ff02191690831515021790555050565b60007f000000000000000000000000000000000000000000000000000000000000000073ffffffffffffffffffffffffffffffffffffffff163073ffffffffffffffffffffffffffffffffffffffff161461115e576040517f08c379a000000000000000000000000000000000000000000000000000000000815260040161115590613304565b60405180910390fd5b7f360894a13ba1a3210667c828492db98dca3e2076cc3735a920a3ca505d382bbc60001b905090565b61118f611a9e565b600081116111d2576040517f08c379a00000000000000000000000000000000000000000000000000000000081526004016111c990613264565b60405180910390fd5b6111dd610101611e58565b811161121e576040517f08c379a000000000000000000000000000000000000000000000000000000000815260040161121590613284565b60405180910390fd5b806101008190555050565b61010360029054906101000a900473ffffffffffffffffffffffffffffffffffffffff1681565b6000804790508091505090565b611265611a9e565b61126f600061205b565b565b6101005481565b60fd6020528060005260406000206000915054906101000a900461ffff1681565b6112a1611a9e565b60008161ffff16116112e8576040517f08c379a00000000000000000000000000000000000000000000000000000000081526004016112df90613564565b60405180910390fd5b8061010360006101000a81548161ffff021916908361ffff16021790555050565b600060ff6000848152602001908152602001600020805490508260ff161115611367576040517f08c379a000000000000000000000000000000000000000000000000000000000815260040161135e906133c4565b60405180910390fd5b60ff60008481526020019081526020016000208260ff168154811061138f5761138e61398b565b5b9060005260206000200154905092915050565b6000606560009054906101000a900473ffffffffffffffffffffffffffffffffffffffff16905090565b6113d4611a9e565b60008111611417576040517f08c379a000000000000000000000000000000000000000000000000000000000815260040161140e906135c4565b60405180910390fd5b806101028190555050565b600061142f610101611e58565b6101005461143d9190613768565b905090565b60008060019054906101000a900460ff161590508080156114735750600160008054906101000a900460ff1660ff16105b806114a0575061148230612121565b15801561149f5750600160008054906101000a900460ff1660ff16145b5b6114df576040517f08c379a00000000000000000000000000000000000000000000000000000000081526004016114d690613384565b60405180910390fd5b60016000806101000a81548160ff021916908360ff160217905550801561151c576001600060016101000a81548160ff0219169083151502179055505b6000871161155f576040517f08c379a0000000000000000000000000000000000000000000000000000000008152600401611556906131c4565b60405180910390fd5b600086116115a2576040517f08c379a0000000000000000000000000000000000000000000000000000000008152600401611599906131c4565b60405180910390fd5b60008561ffff16116115e9576040517f08c379a00000000000000000000000000000000000000000000000000000000081526004016115e0906131c4565b60405180910390fd5b600073ffffffffffffffffffffffffffffffffffffffff168473ffffffffffffffffffffffffffffffffffffffff161415611659576040517f08c379a0000000000000000000000000000000000000000000000000000000008152600401611650906131e4565b60405180910390fd5b600073ffffffffffffffffffffffffffffffffffffffff168373ffffffffffffffffffffffffffffffffffffffff1614156116c9576040517f08c379a00000000000000000000000000000000000000000000000000000000081526004016116c090613344565b60405180910390fd5b600073ffffffffffffffffffffffffffffffffffffffff168273ffffffffffffffffffffffffffffffffffffffff161415611739576040517f08c379a000000000000000000000000000000000000000000000000000000000815260040161173090613524565b60405180910390fd5b611741612144565b61174961219d565b866101008190555085610102819055508461010360006101000a81548161ffff021916908361ffff1602179055508360fb60006101000a81548173ffffffffffffffffffffffffffffffffffffffff021916908373ffffffffffffffffffffffffffffffffffffffff1602179055508260fc60006101000a81548173ffffffffffffffffffffffffffffffffffffffff021916908373ffffffffffffffffffffffffffffffffffffffff1602179055508161010360026101000a81548173ffffffffffffffffffffffffffffffffffffffff021916908373ffffffffffffffffffffffffffffffffffffffff160217905550600060fc60146101000a81548160ff02191690831515021790555080156118af5760008060016101000a81548160ff0219169083151502179055507f7f26b83ff96e1f2b6a682f133852f6798a09c465da95921460cefb384740249860016040516118a69190613167565b60405180910390a15b50505050505050565b6118c0611a9e565b600073ffffffffffffffffffffffffffffffffffffffff168173ffffffffffffffffffffffffffffffffffffffff161415611930576040517f08c379a000000000000000000000000000000000000000000000000000000000815260040161192790613204565b60405180910390fd5b8061010360026101000a81548173ffffffffffffffffffffffffffffffffffffffff021916908373ffffffffffffffffffffffffffffffffffffffff16021790555050565b600060fc60149054906101000a900460ff16905090565b600060fe600083815260200190815260200160002060009054906101000a900461ffff1661010360009054906101000a900461ffff166119cc9190613734565b9050919050565b6119db611a9e565b600073ffffffffffffffffffffffffffffffffffffffff168173ffffffffffffffffffffffffffffffffffffffff161415611a4b576040517f08c379a0000000000000000000000000000000000000000000000000000000008152600401611a42906132a4565b60405180910390fd5b611a548161205b565b50565b600061010360009054906101000a900461ffff1661ffff1660fe600084815260200190815260200160002060009054906101000a900461ffff1661ffff1610159050919050565b611aa6611b1c565b73ffffffffffffffffffffffffffffffffffffffff16611ac46113a2565b73ffffffffffffffffffffffffffffffffffffffff1614611b1a576040517f08c379a0000000000000000000000000000000000000000000000000000000008152600401611b1190613444565b60405180910390fd5b565b600033905090565b6000805b84849050811015611bba576000858583818110611b4857611b4761398b565b5b905060200201359050611b5b81886121ee565b60fe600082815260200190815260200160002060009054906101000a900461ffff1661010360009054906101000a900461ffff16611b999190613734565b83611ba491906136a2565b9250508080611bb290613913565b915050611b28565b508161ffff168161ffff161015611c06576040517f08c379a0000000000000000000000000000000000000000000000000000000008152600401611bfd90613324565b60405180910390fd5b5050505050565b60008311611c50576040517f08c379a0000000000000000000000000000000000000000000000000000000008152600401611c47906134c4565b60405180910390fd5b600073ffffffffffffffffffffffffffffffffffffffff168273ffffffffffffffffffffffffffffffffffffffff161415611cc0576040517f08c379a0000000000000000000000000000000000000000000000000000000008152600401611cb790613544565b60405180910390fd5b600060fb60009054906101000a900473ffffffffffffffffffffffffffffffffffffffff1673ffffffffffffffffffffffffffffffffffffffff166370a08231846040518263ffffffff1660e01b8152600401611d1d919061309c565b60206040518083038186803b158015611d3557600080fd5b505afa158015611d49573d6000803e3d6000fd5b505050506040513d601f19601f82011682018060405250810190611d6d91906129f4565b90508060fd60008573ffffffffffffffffffffffffffffffffffffffff1673ffffffffffffffffffffffffffffffffffffffff16815260200190815260200160002060009054906101000a900461ffff1661ffff1610611e02576040517f08c379a0000000000000000000000000000000000000000000000000000000008152600401611df990613224565b60405180910390fd5b818461010254611e1291906136da565b14611e52576040517f08c379a0000000000000000000000000000000000000000000000000000000008152600401611e49906133a4565b60405180910390fd5b50505050565b600081600001549050919050565b6001816000016000828254019250508190555050565b6000611eaa7f360894a13ba1a3210667c828492db98dca3e2076cc3735a920a3ca505d382bbc60001b612386565b60000160009054906101000a900473ffffffffffffffffffffffffffffffffffffffff16905090565b611edb611a9e565b50565b611f0a7f4910fdfa16fed3260ed0e7147f7cc6da11a60208b5b9406d12a635614ffd914360001b612390565b60000160009054906101000a900460ff1615611f2e57611f298361239a565b612056565b8273ffffffffffffffffffffffffffffffffffffffff166352d1902d6040518163ffffffff1660e01b815260040160206040518083038186803b158015611f7457600080fd5b505afa925050508015611fa557506040513d601f19601f82011682018060405250810190611fa2919061296d565b60015b611fe4576040517f08c379a0000000000000000000000000000000000000000000000000000000008152600401611fdb90613404565b60405180910390fd5b7f360894a13ba1a3210667c828492db98dca3e2076cc3735a920a3ca505d382bbc60001b8114612049576040517f08c379a000000000000000000000000000000000000000000000000000000000815260040161204090613364565b60405180910390fd5b50612055838383612453565b5b505050565b6000606560009054906101000a900473ffffffffffffffffffffffffffffffffffffffff16905081606560006101000a81548173ffffffffffffffffffffffffffffffffffffffff021916908373ffffffffffffffffffffffffffffffffffffffff1602179055508173ffffffffffffffffffffffffffffffffffffffff168173ffffffffffffffffffffffffffffffffffffffff167f8be0079c531659141344cd1fd0a4f28419497f9722a3daafe3b4186f6b6457e060405160405180910390a35050565b6000808273ffffffffffffffffffffffffffffffffffffffff163b119050919050565b600060019054906101000a900460ff16612193576040517f08c379a000000000000000000000000000000000000000000000000000000000815260040161218a90613504565b60405180910390fd5b61219b61247f565b565b600060019054906101000a900460ff166121ec576040517f08c379a00000000000000000000000000000000000000000000000000000000081526004016121e390613504565b60405180910390fd5b565b8073ffffffffffffffffffffffffffffffffffffffff1660fb60009054906101000a900473ffffffffffffffffffffffffffffffffffffffff1673ffffffffffffffffffffffffffffffffffffffff16636352211e846040518263ffffffff1660e01b815260040161226091906135ff565b60206040518083038186803b15801561227857600080fd5b505afa15801561228c573d6000803e3d6000fd5b505050506040513d601f19601f820116820180604052508101906122b0919061282a565b73ffffffffffffffffffffffffffffffffffffffff1614612306576040517f08c379a00000000000000000000000000000000000000000000000000000000081526004016122fd906131a4565b60405180910390fd5b61010360009054906101000a900461ffff1661ffff1660fe600084815260200190815260200160002060009054906101000a900461ffff1661ffff1610612382576040517f08c379a000000000000000000000000000000000000000000000000000000000815260040161237990613584565b60405180910390fd5b5050565b6000819050919050565b6000819050919050565b6123a381612121565b6123e2576040517f08c379a00000000000000000000000000000000000000000000000000000000081526004016123d990613424565b60405180910390fd5b8061240f7f360894a13ba1a3210667c828492db98dca3e2076cc3735a920a3ca505d382bbc60001b612386565b60000160006101000a81548173ffffffffffffffffffffffffffffffffffffffff021916908373ffffffffffffffffffffffffffffffffffffffff16021790555050565b61245c836124e0565b6000825111806124695750805b1561247a57612478838361252f565b505b505050565b600060019054906101000a900460ff166124ce576040517f08c379a00000000000000000000000000000000000000000000000000000000081526004016124c590613504565b60405180910390fd5b6124de6124d9611b1c565b61205b565b565b6124e98161239a565b8073ffffffffffffffffffffffffffffffffffffffff167fbc7cd75a20ee27fd9adebab32041f755214dbc6bffa90cc0225b39da2e5c2d3b60405160405180910390a250565b606061253a83612121565b612579576040517f08c379a0000000000000000000000000000000000000000000000000000000008152600401612570906134a4565b60405180910390fd5b6000808473ffffffffffffffffffffffffffffffffffffffff16846040516125a19190613085565b600060405180830381855af49150503d80600081146125dc576040519150601f19603f3d011682016040523d82523d6000602084013e6125e1565b606091505b509150915061260982826040518060600160405280602781526020016142fe60279139612613565b9250505092915050565b6060831561262357829050612673565b6000835111156126365782518084602001fd5b816040517f08c379a000000000000000000000000000000000000000000000000000000000815260040161266a9190613182565b60405180910390fd5b9392505050565b600061268d6126888461363f565b61361a565b9050828152602081018484840111156126a9576126a86139f8565b5b6126b4848285613875565b509392505050565b6000813590506126cb8161425c565b92915050565b6000815190506126e08161425c565b92915050565b6000813590506126f581614273565b92915050565b60008083601f840112612711576127106139ee565b5b8235905067ffffffffffffffff81111561272e5761272d6139e9565b5b60208301915083602082028301111561274a576127496139f3565b5b9250929050565b6000813590506127608161428a565b92915050565b600081519050612775816142a1565b92915050565b600082601f8301126127905761278f6139ee565b5b81356127a084826020860161267a565b91505092915050565b6000813590506127b8816142b8565b92915050565b6000813590506127cd816142cf565b92915050565b6000815190506127e2816142cf565b92915050565b6000813590506127f7816142e6565b92915050565b60006020828403121561281357612812613a02565b5b6000612821848285016126bc565b91505092915050565b6000602082840312156128405761283f613a02565b5b600061284e848285016126d1565b91505092915050565b60006020828403121561286d5761286c613a02565b5b600061287b848285016126e6565b91505092915050565b6000806040838503121561289b5761289a613a02565b5b60006128a9858286016126bc565b925050602083013567ffffffffffffffff8111156128ca576128c96139fd565b5b6128d68582860161277b565b9150509250929050565b6000806000604084860312156128f9576128f8613a02565b5b600084013567ffffffffffffffff811115612917576129166139fd565b5b612923868287016126fb565b93509350506020612936868287016127a9565b9150509250925092565b60006020828403121561295657612955613a02565b5b600061296484828501612751565b91505092915050565b60006020828403121561298357612982613a02565b5b600061299184828501612766565b91505092915050565b6000602082840312156129b0576129af613a02565b5b60006129be848285016127a9565b91505092915050565b6000602082840312156129dd576129dc613a02565b5b60006129eb848285016127be565b91505092915050565b600060208284031215612a0a57612a09613a02565b5b6000612a18848285016127d3565b91505092915050565b60008060008060008060c08789031215612a3e57612a3d613a02565b5b6000612a4c89828a016127be565b9650506020612a5d89828a016127be565b9550506040612a6e89828a016127a9565b9450506060612a7f89828a016126bc565b9350506080612a9089828a016126bc565b92505060a0612aa189828a016126bc565b9150509295509295509295565b60008060408385031215612ac557612ac4613a02565b5b6000612ad3858286016127be565b9250506020612ae4858286016127e8565b9150509250929050565b612af7816137ae565b82525050565b612b068161379c565b82525050565b612b15816137c0565b82525050565b612b24816137cc565b82525050565b6000612b3582613670565b612b3f8185613686565b9350612b4f818560208601613884565b80840191505092915050565b612b648161381b565b82525050565b612b738161382d565b82525050565b612b828161383f565b82525050565b6000612b938261367b565b612b9d8185613691565b9350612bad818560208601613884565b612bb681613a07565b840191505092915050565b6000612bce602383613691565b9150612bd982613a18565b604082019050919050565b6000612bf1602483613691565b9150612bfc82613a67565b604082019050919050565b6000612c14601f83613691565b9150612c1f82613ab6565b602082019050919050565b6000612c37601a83613691565b9150612c4282613adf565b602082019050919050565b6000612c5a602d83613691565b9150612c6582613b08565b604082019050919050565b6000612c7d601f83613691565b9150612c8882613b57565b602082019050919050565b6000612ca0602483613691565b9150612cab82613b80565b604082019050919050565b6000612cc3603583613691565b9150612cce82613bcf565b604082019050919050565b6000612ce6602683613691565b9150612cf182613c1e565b604082019050919050565b6000612d09602c83613691565b9150612d1482613c6d565b604082019050919050565b6000612d2c602c83613691565b9150612d3782613cbc565b604082019050919050565b6000612d4f603883613691565b9150612d5a82613d0b565b604082019050919050565b6000612d72601683613691565b9150612d7d82613d5a565b602082019050919050565b6000612d95602083613691565b9150612da082613d83565b602082019050919050565b6000612db8602983613691565b9150612dc382613dac565b604082019050919050565b6000612ddb602e83613691565b9150612de682613dfb565b604082019050919050565b6000612dfe601d83613691565b9150612e0982613e4a565b602082019050919050565b6000612e21601283613691565b9150612e2c82613e73565b602082019050919050565b6000612e44602083613691565b9150612e4f82613e9c565b602082019050919050565b6000612e67602e83613691565b9150612e7282613ec5565b604082019050919050565b6000612e8a602d83613691565b9150612e9582613f14565b604082019050919050565b6000612ead602083613691565b9150612eb882613f63565b602082019050919050565b6000612ed0602e83613691565b9150612edb82613f8c565b604082019050919050565b6000612ef3601a83613691565b9150612efe82613fdb565b602082019050919050565b6000612f16602683613691565b9150612f2182614004565b604082019050919050565b6000612f39602b83613691565b9150612f4482614053565b604082019050919050565b6000612f5c601983613691565b9150612f67826140a2565b602082019050919050565b6000612f7f602b83613691565b9150612f8a826140cb565b604082019050919050565b6000612fa2601a83613691565b9150612fad8261411a565b602082019050919050565b6000612fc5601f83613691565b9150612fd082614143565b602082019050919050565b6000612fe8602183613691565b9150612ff38261416c565b604082019050919050565b600061300b602183613691565b9150613016826141bb565b604082019050919050565b600061302e601f83613691565b91506130398261420a565b602082019050919050565b6000613051601c83613691565b915061305c82614233565b602082019050919050565b613070816137d6565b82525050565b61307f81613804565b82525050565b60006130918284612b2a565b915081905092915050565b60006020820190506130b16000830184612afd565b92915050565b60006020820190506130cc6000830184612aee565b92915050565b60006040820190506130e76000830185612afd565b6130f46020830184613076565b9392505050565b60006020820190506131106000830184612b0c565b92915050565b600060208201905061312b6000830184612b1b565b92915050565b60006020820190506131466000830184612b5b565b92915050565b60006020820190506131616000830184612b6a565b92915050565b600060208201905061317c6000830184612b79565b92915050565b6000602082019050818103600083015261319c8184612b88565b905092915050565b600060208201905081810360008301526131bd81612bc1565b9050919050565b600060208201905081810360008301526131dd81612be4565b9050919050565b600060208201905081810360008301526131fd81612c07565b9050919050565b6000602082019050818103600083015261321d81612c2a565b9050919050565b6000602082019050818103600083015261323d81612c4d565b9050919050565b6000602082019050818103600083015261325d81612c70565b9050919050565b6000602082019050818103600083015261327d81612c93565b9050919050565b6000602082019050818103600083015261329d81612cb6565b9050919050565b600060208201905081810360008301526132bd81612cd9565b9050919050565b600060208201905081810360008301526132dd81612cfc565b9050919050565b600060208201905081810360008301526132fd81612d1f565b9050919050565b6000602082019050818103600083015261331d81612d42565b9050919050565b6000602082019050818103600083015261333d81612d65565b9050919050565b6000602082019050818103600083015261335d81612d88565b9050919050565b6000602082019050818103600083015261337d81612dab565b9050919050565b6000602082019050818103600083015261339d81612dce565b9050919050565b600060208201905081810360008301526133bd81612df1565b9050919050565b600060208201905081810360008301526133dd81612e14565b9050919050565b600060208201905081810360008301526133fd81612e37565b9050919050565b6000602082019050818103600083015261341d81612e5a565b9050919050565b6000602082019050818103600083015261343d81612e7d565b9050919050565b6000602082019050818103600083015261345d81612ea0565b9050919050565b6000602082019050818103600083015261347d81612ec3565b9050919050565b6000602082019050818103600083015261349d81612ee6565b9050919050565b600060208201905081810360008301526134bd81612f09565b9050919050565b600060208201905081810360008301526134dd81612f2c565b9050919050565b600060208201905081810360008301526134fd81612f4f565b9050919050565b6000602082019050818103600083015261351d81612f72565b9050919050565b6000602082019050818103600083015261353d81612f95565b9050919050565b6000602082019050818103600083015261355d81612fb8565b9050919050565b6000602082019050818103600083015261357d81612fdb565b9050919050565b6000602082019050818103600083015261359d81612ffe565b9050919050565b600060208201905081810360008301526135bd81613021565b9050919050565b600060208201905081810360008301526135dd81613044565b9050919050565b60006020820190506135f96000830184613067565b92915050565b60006020820190506136146000830184613076565b92915050565b6000613624613635565b905061363082826138b7565b919050565b6000604051905090565b600067ffffffffffffffff82111561365a576136596139ba565b5b61366382613a07565b9050602081019050919050565b600081519050919050565b600081519050919050565b600081905092915050565b600082825260208201905092915050565b60006136ad826137d6565b91506136b8836137d6565b92508261ffff038211156136cf576136ce61395c565b5b828201905092915050565b60006136e582613804565b91506136f083613804565b9250817fffffffffffffffffffffffffffffffffffffffffffffffffffffffffffffffff04831182151516156137295761372861395c565b5b828202905092915050565b600061373f826137d6565b915061374a836137d6565b92508282101561375d5761375c61395c565b5b828203905092915050565b600061377382613804565b915061377e83613804565b9250828210156137915761379061395c565b5b828203905092915050565b60006137a7826137e4565b9050919050565b60006137b9826137e4565b9050919050565b60008115159050919050565b6000819050919050565b600061ffff82169050919050565b600073ffffffffffffffffffffffffffffffffffffffff82169050919050565b6000819050919050565b600060ff82169050919050565b600061382682613851565b9050919050565b600061383882613851565b9050919050565b600061384a8261380e565b9050919050565b600061385c82613863565b9050919050565b600061386e826137e4565b9050919050565b82818337600083830152505050565b60005b838110156138a2578082015181840152602081019050613887565b838111156138b1576000848401525b50505050565b6138c082613a07565b810181811067ffffffffffffffff821117156138df576138de6139ba565b5b80604052505050565b60006138f3826137d6565b915061ffff8214156139085761390761395c565b5b600182019050919050565b600061391e82613804565b91507fffffffffffffffffffffffffffffffffffffffffffffffffffffffffffffffff8214156139515761395061395c565b5b600182019050919050565b7f4e487b7100000000000000000000000000000000000000000000000000000000600052601160045260246000fd5b7f4e487b7100000000000000000000000000000000000000000000000000000000600052603260045260246000fd5b7f4e487b7100000000000000000000000000000000000000000000000000000000600052604160045260246000fd5b600080fd5b600080fd5b600080fd5b600080fd5b600080fd5b600080fd5b6000601f19601f8301169050919050565b7f596f7520646f6e2774206f776e20616c6c207468657365206d696e742070617360008201527f7365730000000000000000000000000000000000000000000000000000000000602082015250565b7f6d617853616c65416d6f756e74206d757374206265206772656174657220746860008201527f616e203000000000000000000000000000000000000000000000000000000000602082015250565b7f6d696e74506173734e465420697320746865207a65726f206164647265737300600082015250565b7f57616c6c657420697320746865207a65726f2061646472657373000000000000600082015250565b7f596f752068617665207573656420757020616c6c20746865206d696e7420706160008201527f7373657320796f75206861766500000000000000000000000000000000000000602082015250565b7f4d696e74506173734e465420697320746865207a65726f206164647265737300600082015250565b7f4d617853616c65416d6f756e74206d757374206265206772656174657220746860008201527f616e203000000000000000000000000000000000000000000000000000000000602082015250565b7f4d617853616c65416d6f756e74206d757374206265206772656174657220746860008201527f616e205f63757272656e7453616c65416d6f756e740000000000000000000000602082015250565b7f4f776e61626c653a206e6577206f776e657220697320746865207a65726f206160008201527f6464726573730000000000000000000000000000000000000000000000000000602082015250565b7f46756e6374696f6e206d7573742062652063616c6c6564207468726f7567682060008201527f64656c656761746563616c6c0000000000000000000000000000000000000000602082015250565b7f46756e6374696f6e206d7573742062652063616c6c6564207468726f7567682060008201527f6163746976652070726f78790000000000000000000000000000000000000000602082015250565b7f555550535570677261646561626c653a206d757374206e6f742062652063616c60008201527f6c6564207468726f7567682064656c656761746563616c6c0000000000000000602082015250565b7f496e73756666696369656e74204d696e74205061737300000000000000000000600082015250565b7f6d6f6f6e42656173744e465420697320746865207a65726f2061646472657373600082015250565b7f45524331393637557067726164653a20756e737570706f727465642070726f7860008201527f6961626c65555549440000000000000000000000000000000000000000000000602082015250565b7f496e697469616c697a61626c653a20636f6e747261637420697320616c72656160008201527f647920696e697469616c697a6564000000000000000000000000000000000000602082015250565b7f5468652076616c756520796f752073656e7420697320696e76616c6964000000600082015250565b7f4f7574206f662061727261792072616e67650000000000000000000000000000600082015250565b7f4d6f6f6e42656173744e465420697320746865207a65726f2061646472657373600082015250565b7f45524331393637557067726164653a206e657720696d706c656d656e7461746960008201527f6f6e206973206e6f742055555053000000000000000000000000000000000000602082015250565b7f455243313936373a206e657720696d706c656d656e746174696f6e206973206e60008201527f6f74206120636f6e747261637400000000000000000000000000000000000000602082015250565b7f4f776e61626c653a2063616c6c6572206973206e6f7420746865206f776e6572600082015250565b7f457863656564656420746865206e756d626572206f66204e465473206f66207460008201527f6869732073616c6520726f756e64000000000000000000000000000000000000602082015250565b7f436f6e74726163742062616c616e6365206973203020474c4d52000000000000600082015250565b7f416464726573733a2064656c65676174652063616c6c20746f206e6f6e2d636f60008201527f6e74726163740000000000000000000000000000000000000000000000000000602082015250565b7f596f75206e656564206174206c65617374206f6e65206d696e7420706173732060008201527f746f206d696e74204e4654000000000000000000000000000000000000000000602082015250565b7f57686974656c69737420726f756e64206e6f7420726561647900000000000000600082015250565b7f496e697469616c697a61626c653a20636f6e7472616374206973206e6f74206960008201527f6e697469616c697a696e67000000000000000000000000000000000000000000602082015250565b7f77616c6c657420697320746865207a65726f2061646472657373000000000000600082015250565b7f42656e656669636961727920697320746865207a65726f206164647265737300600082015250565b7f4e667450657250617373206d7573742062652067726561746572207468616e2060008201527f3000000000000000000000000000000000000000000000000000000000000000602082015250565b7f4d696e74506173734e4654207573656420312f32207475726e206f66204d696e60008201527f7400000000000000000000000000000000000000000000000000000000000000602082015250565b7f5265656e7472616e637947756172643a207265656e7472616e742063616c6c00600082015250565b7f5072696365206d7573742062652067726561746572207468616e203000000000600082015250565b6142658161379c565b811461427057600080fd5b50565b61427c816137ae565b811461428757600080fd5b50565b614293816137c0565b811461429e57600080fd5b50565b6142aa816137cc565b81146142b557600080fd5b50565b6142c1816137d6565b81146142cc57600080fd5b50565b6142d881613804565b81146142e357600080fd5b50565b6142ef8161380e565b81146142fa57600080fd5b5056fe416464726573733a206c6f772d6c6576656c2064656c65676174652063616c6c206661696c6564a264697066735822122062dd8b293989787fb62f2e7621375e2e57c06d222e72fcddd60b2883671fb35364736f6c63430008070033",
  "linkReferences": {},
  "deployedLinkReferences": {}
}