{
  "_format": "hh-sol-artifact-1",
  "contractName": "UMoonFitNFTSale",
  "sourceName": "contracts/upgradeables/UMoonFitNFTSale.sol",
  "abi": [
    {
      "inputs": [],
      "stateMutability": "nonpayable",
      "type": "constructor"
    },
    {
      "anonymous": false,
      "inputs": [
        {
          "indexed": false,
          "internalType": "address",
          "name": "previousAdmin",
          "type": "address"
        },
        {
          "indexed": false,
          "internalType": "address",
          "name": "newAdmin",
          "type": "address"
        }
      ],
      "name": "AdminChanged",
      "type": "event"
    },
    {
      "anonymous": false,
      "inputs": [
        {
          "indexed": true,
          "internalType": "address",
          "name": "beacon",
          "type": "address"
        }
      ],
      "name": "BeaconUpgraded",
      "type": "event"
    },
    {
      "anonymous": false,
      "inputs": [
        {
          "indexed": false,
          "internalType": "uint8",
          "name": "version",
          "type": "uint8"
        }
      ],
      "name": "Initialized",
      "type": "event"
    },
    {
      "anonymous": false,
      "inputs": [
        {
          "indexed": false,
          "internalType": "address",
          "name": "beneficiary",
          "type": "address"
        },
        {
          "indexed": false,
          "internalType": "uint256",
          "name": "mintPassId",
          "type": "uint256"
        }
      ],
      "name": "NFTPurchased",
      "type": "event"
    },
    {
      "anonymous": false,
      "inputs": [
        {
          "indexed": true,
          "internalType": "address",
          "name": "previousOwner",
          "type": "address"
        },
        {
          "indexed": true,
          "internalType": "address",
          "name": "newOwner",
          "type": "address"
        }
      ],
      "name": "OwnershipTransferred",
      "type": "event"
    },
    {
      "anonymous": false,
      "inputs": [
        {
          "indexed": true,
          "internalType": "address",
          "name": "implementation",
          "type": "address"
        }
      ],
      "name": "Upgraded",
      "type": "event"
    },
    {
      "inputs": [],
      "name": "_maxSaleAmount",
      "outputs": [
        {
          "internalType": "uint256",
          "name": "",
          "type": "uint256"
        }
      ],
      "stateMutability": "view",
      "type": "function"
    },
    {
      "inputs": [],
      "name": "_mintPassNFT",
      "outputs": [
        {
          "internalType": "contract IERC721Enumerable",
          "name": "",
          "type": "address"
        }
      ],
      "stateMutability": "view",
      "type": "function"
    },
    {
      "inputs": [],
      "name": "_moonBeastNFT",
      "outputs": [
        {
          "internalType": "contract MoonBeast",
          "name": "",
          "type": "address"
        }
      ],
      "stateMutability": "view",
      "type": "function"
    },
    {
      "inputs": [],
      "name": "_nftPerPass",
      "outputs": [
        {
          "internalType": "uint16",
          "name": "",
          "type": "uint16"
        }
      ],
      "stateMutability": "view",
      "type": "function"
    },
    {
      "inputs": [],
      "name": "_price",
      "outputs": [
        {
          "internalType": "uint256",
          "name": "",
          "type": "uint256"
        }
      ],
      "stateMutability": "view",
      "type": "function"
    },
    {
      "inputs": [],
      "name": "_wallet",
      "outputs": [
        {
          "internalType": "address payable",
          "name": "",
          "type": "address"
        }
      ],
      "stateMutability": "view",
      "type": "function"
    },
    {
      "inputs": [
        {
          "internalType": "uint256[]",
          "name": "mintPassIds",
          "type": "uint256[]"
        },
        {
          "internalType": "uint16",
          "name": "amount",
          "type": "uint16"
        }
      ],
      "name": "buyNFT",
      "outputs": [],
      "stateMutability": "payable",
      "type": "function"
    },
    {
      "inputs": [
        {
          "internalType": "uint256",
          "name": "tokenId",
          "type": "uint256"
        }
      ],
      "name": "checkMintByContract",
      "outputs": [
        {
          "internalType": "bool",
          "name": "",
          "type": "bool"
        }
      ],
      "stateMutability": "view",
      "type": "function"
    },
    {
      "inputs": [
        {
          "internalType": "uint256",
          "name": "passId",
          "type": "uint256"
        }
      ],
      "name": "checkMintPass",
      "outputs": [
        {
          "internalType": "bool",
          "name": "",
          "type": "bool"
        }
      ],
      "stateMutability": "view",
      "type": "function"
    },
    {
      "inputs": [
        {
          "internalType": "address",
          "name": "owner",
          "type": "address"
        },
        {
          "internalType": "uint256",
          "name": "tokenId",
          "type": "uint256"
        }
      ],
      "name": "checkOwnerMinted",
      "outputs": [
        {
          "internalType": "bool",
          "name": "",
          "type": "bool"
        }
      ],
      "stateMutability": "view",
      "type": "function"
    },
    {
      "inputs": [],
      "name": "getAvailableSlots",
      "outputs": [
        {
          "internalType": "uint256",
          "name": "",
          "type": "uint256"
        }
      ],
      "stateMutability": "view",
      "type": "function"
    },
    {
      "inputs": [],
      "name": "getContractBalance",
      "outputs": [
        {
          "internalType": "uint256",
          "name": "",
          "type": "uint256"
        }
      ],
      "stateMutability": "view",
      "type": "function"
    },
    {
      "inputs": [
        {
          "internalType": "address",
          "name": "owner",
          "type": "address"
        }
      ],
      "name": "getMintPass",
      "outputs": [
        {
          "components": [
            {
              "internalType": "uint256",
              "name": "tokenId",
              "type": "uint256"
            },
            {
              "internalType": "uint16",
              "name": "bought",
              "type": "uint16"
            },
            {
              "internalType": "uint16",
              "name": "maxAmount",
              "type": "uint16"
            }
          ],
          "internalType": "struct MintPassNFTSale[]",
          "name": "",
          "type": "tuple[]"
        }
      ],
      "stateMutability": "view",
      "type": "function"
    },
    {
      "inputs": [
        {
          "internalType": "uint256",
          "name": "mintPassId",
          "type": "uint256"
        }
      ],
      "name": "getMintPassAvailableSlots",
      "outputs": [
        {
          "internalType": "uint16",
          "name": "",
          "type": "uint16"
        }
      ],
      "stateMutability": "view",
      "type": "function"
    },
    {
      "inputs": [
        {
          "internalType": "uint256",
          "name": "tokenId",
          "type": "uint256"
        }
      ],
      "name": "getMintPassInfo",
      "outputs": [
        {
          "components": [
            {
              "internalType": "uint256",
              "name": "tokenId",
              "type": "uint256"
            },
            {
              "internalType": "uint16",
              "name": "bought",
              "type": "uint16"
            },
            {
              "internalType": "uint16",
              "name": "maxAmount",
              "type": "uint16"
            }
          ],
          "internalType": "struct MintPassNFTSale",
          "name": "",
          "type": "tuple"
        }
      ],
      "stateMutability": "view",
      "type": "function"
    },
    {
      "inputs": [
        {
          "internalType": "uint256",
          "name": "mintPassId",
          "type": "uint256"
        },
        {
          "internalType": "uint8",
          "name": "index",
          "type": "uint8"
        }
      ],
      "name": "getMintPassUsage",
      "outputs": [
        {
          "internalType": "uint256",
          "name": "",
          "type": "uint256"
        }
      ],
      "stateMutability": "view",
      "type": "function"
    },
    {
      "inputs": [
        {
          "internalType": "address",
          "name": "owner",
          "type": "address"
        },
        {
          "internalType": "uint256[]",
          "name": "arrIndex",
          "type": "uint256[]"
        }
      ],
      "name": "getMoonBeast",
      "outputs": [
        {
          "components": [
            {
              "internalType": "uint256",
              "name": "tokenId",
              "type": "uint256"
            },
            {
              "internalType": "string",
              "name": "uri",
              "type": "string"
            },
            {
              "internalType": "bool",
              "name": "mintByContract",
              "type": "bool"
            },
            {
              "internalType": "bool",
              "name": "isOwnerMinted",
              "type": "bool"
            }
          ],
          "internalType": "struct MoonBeastNFTSale[]",
          "name": "",
          "type": "tuple[]"
        }
      ],
      "stateMutability": "view",
      "type": "function"
    },
    {
      "inputs": [],
      "name": "getReadySale",
      "outputs": [
        {
          "internalType": "bool",
          "name": "",
          "type": "bool"
        }
      ],
      "stateMutability": "view",
      "type": "function"
    },
    {
      "inputs": [
        {
          "internalType": "uint256",
          "name": "maxSaleAmount",
          "type": "uint256"
        },
        {
          "internalType": "uint256",
          "name": "price",
          "type": "uint256"
        },
        {
          "internalType": "uint16",
          "name": "nftPerPass",
          "type": "uint16"
        },
        {
          "internalType": "address",
          "name": "mintPassNFT",
          "type": "address"
        },
        {
          "internalType": "address",
          "name": "moonBeastNFT",
          "type": "address"
        },
        {
          "internalType": "address",
          "name": "wallet",
          "type": "address"
        }
      ],
      "name": "initialize",
      "outputs": [],
      "stateMutability": "nonpayable",
      "type": "function"
    },
    {
      "inputs": [],
      "name": "owner",
      "outputs": [
        {
          "internalType": "address",
          "name": "",
          "type": "address"
        }
      ],
      "stateMutability": "view",
      "type": "function"
    },
    {
      "inputs": [],
      "name": "proxiableUUID",
      "outputs": [
        {
          "internalType": "bytes32",
          "name": "",
          "type": "bytes32"
        }
      ],
      "stateMutability": "view",
      "type": "function"
    },
    {
      "inputs": [],
      "name": "renounceOwnership",
      "outputs": [],
      "stateMutability": "nonpayable",
      "type": "function"
    },
    {
      "inputs": [
        {
          "internalType": "uint256",
          "name": "maxSaleAmount",
          "type": "uint256"
        }
      ],
      "name": "setMaxSaleAmount",
      "outputs": [],
      "stateMutability": "nonpayable",
      "type": "function"
    },
    {
      "inputs": [
        {
          "internalType": "address",
          "name": "mintPass",
          "type": "address"
        }
      ],
      "name": "setMintPassNFT",
      "outputs": [],
      "stateMutability": "nonpayable",
      "type": "function"
    },
    {
      "inputs": [
        {
          "internalType": "address",
          "name": "moonBeast",
          "type": "address"
        }
      ],
      "name": "setMoonBeastNFT",
      "outputs": [],
      "stateMutability": "nonpayable",
      "type": "function"
    },
    {
      "inputs": [
        {
          "internalType": "uint16",
          "name": "value",
          "type": "uint16"
        }
      ],
      "name": "setNftPerPass",
      "outputs": [],
      "stateMutability": "nonpayable",
      "type": "function"
    },
    {
      "inputs": [
        {
          "internalType": "uint256",
          "name": "price",
          "type": "uint256"
        }
      ],
      "name": "setPrice",
      "outputs": [],
      "stateMutability": "nonpayable",
      "type": "function"
    },
    {
      "inputs": [
        {
          "internalType": "bool",
          "name": "value",
          "type": "bool"
        }
      ],
      "name": "setReadySale",
      "outputs": [],
      "stateMutability": "nonpayable",
      "type": "function"
    },
    {
      "inputs": [
        {
          "internalType": "address payable",
          "name": "wallet",
          "type": "address"
        }
      ],
      "name": "setWallet",
      "outputs": [],
      "stateMutability": "nonpayable",
      "type": "function"
    },
    {
      "inputs": [
        {
          "internalType": "address",
          "name": "newOwner",
          "type": "address"
        }
      ],
      "name": "transferOwnership",
      "outputs": [],
      "stateMutability": "nonpayable",
      "type": "function"
    },
    {
      "inputs": [
        {
          "internalType": "address",
          "name": "newImplementation",
          "type": "address"
        }
      ],
      "name": "upgradeTo",
      "outputs": [],
      "stateMutability": "nonpayable",
      "type": "function"
    },
    {
      "inputs": [
        {
          "internalType": "address",
          "name": "newImplementation",
          "type": "address"
        },
        {
          "internalType": "bytes",
          "name": "data",
          "type": "bytes"
        }
      ],
      "name": "upgradeToAndCall",
      "outputs": [],
      "stateMutability": "payable",
      "type": "function"
    },
    {
      "inputs": [],
      "name": "withdrawTokenByOwner",
      "outputs": [],
      "stateMutability": "nonpayable",
      "type": "function"
    }
  ],
  "bytecode": "0x60a06040523073ffffffffffffffffffffffffffffffffffffffff1660809073ffffffffffffffffffffffffffffffffffffffff1660601b8152503480156200004757600080fd5b50620000586200005e60201b60201c565b62000209565b600060019054906101000a900460ff1615620000b1576040517f08c379a0000000000000000000000000000000000000000000000000000000008152600401620000a8906200015d565b60405180910390fd5b60ff801660008054906101000a900460ff1660ff161015620001235760ff6000806101000a81548160ff021916908360ff1602179055507f7f26b83ff96e1f2b6a682f133852f6798a09c465da95921460cefb384740249860ff6040516200011a91906200017f565b60405180910390a15b565b6000620001346027836200019c565b91506200014182620001ba565b604082019050919050565b6200015781620001ad565b82525050565b60006020820190508181036000830152620001788162000125565b9050919050565b60006020820190506200019660008301846200014c565b92915050565b600082825260208201905092915050565b600060ff82169050919050565b7f496e697469616c697a61626c653a20636f6e747261637420697320696e69746960008201527f616c697a696e6700000000000000000000000000000000000000000000000000602082015250565b60805160601c6151fd620002446000396000818161107a0152818161110901528181611218015281816112a7015261137c01526151fd6000f3fe6080604052600436106101ee5760003560e01c80636f9fb98a1161010d578063b9d18eae116100a0578063deaa59df1161006f578063deaa59df146106bd578063deed00f6146106e6578063e22027de14610711578063f2fde38b1461074e578063f89595b514610777576101ee565b8063b9d18eae146105ef578063d5d753a41461061a578063d84e575b14610643578063dd1f3f6914610680576101ee565b80638810d276116100dc5780638810d276146105355780638c971cd01461055e5780638da5cb5b1461059b57806391b7f5ed146105c6576101ee565b80636f9fb98a1461048b578063715018a6146104b65780637428edea146104cd57806375b01d94146104f8576101ee565b80633659cfe61161018557806352d1902d1161015457806352d1902d146103cf5780635afa1a76146103fa5780635d0a8f6d14610437578063610757e414610460576101ee565b80633659cfe6146103365780633e823eed1461035f5780634f1ef2861461038a578063514c1ba6146103a6576101ee565b806322bc5a3f116101c157806322bc5a3f1461027a578063235b6ea1146102b75780632725368f146102e25780632bfccd3c1461030d576101ee565b80630b154c47146101f357806312c0aeb91461021e57806322298b9c14610235578063228443d814610251575b600080fd5b3480156101ff57600080fd5b506102086107b4565b6040516102159190613e27565b60405180910390f35b34801561022a57600080fd5b506102336107da565b005b61024f600480360381019061024a919061321f565b610891565b005b34801561025d57600080fd5b506102786004803603810190610273919061309c565b610df3565b005b34801561028657600080fd5b506102a1600480360381019061029c91906131df565b610eaf565b6040516102ae9190613df1565b60405180910390f35b3480156102c357600080fd5b506102cc610f8f565b6040516102d991906142d0565b60405180910390f35b3480156102ee57600080fd5b506102f7610f96565b6040516103049190613e42565b60405180910390f35b34801561031957600080fd5b50610334600480360381019061032f919061309c565b610fbc565b005b34801561034257600080fd5b5061035d6004803603810190610358919061309c565b611078565b005b34801561036b57600080fd5b50610374611201565b60405161038191906142b5565b60405180910390f35b6103a4600480360381019061039f9190613183565b611216565b005b3480156103b257600080fd5b506103cd60048036038101906103c8919061327f565b611353565b005b3480156103db57600080fd5b506103e4611378565b6040516103f19190613e0c565b60405180910390f35b34801561040657600080fd5b50610421600480360381019061041c9190613123565b611431565b60405161042e9190613dcf565b60405180910390f35b34801561044357600080fd5b5061045e6004803603810190610459919061334f565b6116a6565b005b34801561046c57600080fd5b50610475611748565b6040516104829190613d69565b60405180910390f35b34801561049757600080fd5b506104a061176f565b6040516104ad91906142d0565b60405180910390f35b3480156104c257600080fd5b506104cb61177c565b005b3480156104d957600080fd5b506104e2611790565b6040516104ef91906142d0565b60405180910390f35b34801561050457600080fd5b5061051f600480360381019061051a919061334f565b611797565b60405161052c9190613df1565b60405180910390f35b34801561054157600080fd5b5061055c60048036038101906105579190613322565b6117c1565b005b34801561056a57600080fd5b5061058560048036038101906105809190613436565b611831565b60405161059291906142d0565b60405180910390f35b3480156105a757600080fd5b506105b06118ca565b6040516105bd9190613d4e565b60405180910390f35b3480156105d257600080fd5b506105ed60048036038101906105e8919061334f565b6118f4565b005b3480156105fb57600080fd5b5061060461194a565b60405161061191906142d0565b60405180910390f35b34801561062657600080fd5b50610641600480360381019061063c91906133a9565b61196a565b005b34801561064f57600080fd5b5061066a6004803603810190610665919061309c565b611de0565b6040516106779190613dad565b60405180910390f35b34801561068c57600080fd5b506106a760048036038101906106a2919061334f565b611fe5565b6040516106b4919061429a565b60405180910390f35b3480156106c957600080fd5b506106e460048036038101906106df91906130f6565b612049565b005b3480156106f257600080fd5b506106fb612106565b6040516107089190613df1565b60405180910390f35b34801561071d57600080fd5b506107386004803603810190610733919061334f565b61211d565b60405161074591906142b5565b60405180910390f35b34801561075a57600080fd5b506107756004803603810190610770919061309c565b612164565b005b34801561078357600080fd5b5061079e6004803603810190610799919061334f565b6121e8565b6040516107ab9190613df1565b60405180910390f35b60fb60009054906101000a900473ffffffffffffffffffffffffffffffffffffffff1681565b6107e261222f565b60004711610825576040517f08c379a000000000000000000000000000000000000000000000000000000000815260040161081c9061415a565b60405180910390fd5b61010460029054906101000a900473ffffffffffffffffffffffffffffffffffffffff1673ffffffffffffffffffffffffffffffffffffffff166108fc479081150290604051600060405180830381858888f1935050505015801561088e573d6000803e3d6000fd5b50565b600260015414156108d7576040517f08c379a00000000000000000000000000000000000000000000000000000000081526004016108ce9061425a565b60405180910390fd5b600260018190555060fc60149054906101000a900460ff1661092e576040517f08c379a0000000000000000000000000000000000000000000000000000000008152600401610925906141ba565b60405180910390fd5b60008161ffff1611610975576040517f08c379a000000000000000000000000000000000000000000000000000000000815260040161096c90613eba565b60405180910390fd5b60006109826101026122ad565b61010154610990919061457f565b90508161ffff168110156109a3826122bb565b600183116109e6576040518060400160405280600481526020017f204e465400000000000000000000000000000000000000000000000000000000815250610a1d565b6040518060400160405280600581526020017f204e4654730000000000000000000000000000000000000000000000000000008152505b604051602001610a2e929190613d14565b60405160208183030381529060405290610a7e576040517f08c379a0000000000000000000000000000000000000000000000000000000008152600401610a759190613e78565b60405180910390fd5b506000610a8961241c565b90506000610a9982878787612424565b610aa88461ffff16833461250d565b60005b86869050811015610de3576000878783818110610acb57610aca614802565b5b90506020020135905060005b61010460009054906101000a900461ffff1661ffff168161ffff161015610d955761010154610b076101026122ad565b1115610b48576040517f08c379a0000000000000000000000000000000000000000000000000000000008152600401610b3f9061413a565b60405180910390fd5b8661ffff168461ffff16108015610b98575061010460009054906101000a900461ffff1661ffff1660fd600084815260200190815260200160002060009054906101000a900461ffff1661ffff16105b15610d8257600060fc60009054906101000a900473ffffffffffffffffffffffffffffffffffffffff1673ffffffffffffffffffffffffffffffffffffffff166354ba0f27876040518263ffffffff1660e01b8152600401610bfa9190613d4e565b602060405180830381600087803b158015610c1457600080fd5b505af1158015610c28573d6000803e3d6000fd5b505050506040513d601f19601f82011682018060405250810190610c4c919061337c565b9050610c59610102612615565b600185610c669190614432565b9450600160fd600085815260200190815260200160002060008282829054906101000a900461ffff16610c999190614432565b92506101000a81548161ffff021916908361ffff16021790555060fe600084815260200190815260200160002081908060018154018082558091505060019003906000526020600020016000909190919091505561010060008773ffffffffffffffffffffffffffffffffffffffff1673ffffffffffffffffffffffffffffffffffffffff168152602001908152602001600020819080600181540180825580915050600190039060005260206000200160009091909190915055600160ff600083815260200190815260200160002060006101000a81548160ff021916908315150217905550505b8080610d8d906146ff565b915050610ad7565b507f7f8aed29394d49180b299699236f142fbd3a78f6d1464929dd17e87b73ebc8d28482604051610dc7929190613d84565b60405180910390a1508080610ddb9061472a565b915050610aab565b5050505060018081905550505050565b610dfb61222f565b600073ffffffffffffffffffffffffffffffffffffffff168173ffffffffffffffffffffffffffffffffffffffff161415610e6b576040517f08c379a0000000000000000000000000000000000000000000000000000000008152600401610e62906140ba565b60405180910390fd5b8060fc60006101000a81548173ffffffffffffffffffffffffffffffffffffffff021916908373ffffffffffffffffffffffffffffffffffffffff16021790555050565b600080600090505b61010060008573ffffffffffffffffffffffffffffffffffffffff1673ffffffffffffffffffffffffffffffffffffffff16815260200190815260200160002080549050811015610f83578261010060008673ffffffffffffffffffffffffffffffffffffffff1673ffffffffffffffffffffffffffffffffffffffff1681526020019081526020016000208281548110610f5557610f54614802565b5b90600052602060002001541415610f70576001915050610f89565b8080610f7b9061472a565b915050610eb7565b50600090505b92915050565b6101035481565b60fc60009054906101000a900473ffffffffffffffffffffffffffffffffffffffff1681565b610fc461222f565b600073ffffffffffffffffffffffffffffffffffffffff168173ffffffffffffffffffffffffffffffffffffffff161415611034576040517f08c379a000000000000000000000000000000000000000000000000000000000815260040161102b90613f1a565b60405180910390fd5b8060fb60006101000a81548173ffffffffffffffffffffffffffffffffffffffff021916908373ffffffffffffffffffffffffffffffffffffffff16021790555050565b7f000000000000000000000000000000000000000000000000000000000000000073ffffffffffffffffffffffffffffffffffffffff163073ffffffffffffffffffffffffffffffffffffffff161415611107576040517f08c379a00000000000000000000000000000000000000000000000000000000081526004016110fe90613f9a565b60405180910390fd5b7f000000000000000000000000000000000000000000000000000000000000000073ffffffffffffffffffffffffffffffffffffffff1661114661262b565b73ffffffffffffffffffffffffffffffffffffffff161461119c576040517f08c379a000000000000000000000000000000000000000000000000000000000815260040161119390613fba565b60405180910390fd5b6111a581612682565b6111fe81600067ffffffffffffffff8111156111c4576111c3614831565b5b6040519080825280601f01601f1916602001820160405280156111f65781602001600182028036833780820191505090505b50600061268d565b50565b61010460009054906101000a900461ffff1681565b7f000000000000000000000000000000000000000000000000000000000000000073ffffffffffffffffffffffffffffffffffffffff163073ffffffffffffffffffffffffffffffffffffffff1614156112a5576040517f08c379a000000000000000000000000000000000000000000000000000000000815260040161129c90613f9a565b60405180910390fd5b7f000000000000000000000000000000000000000000000000000000000000000073ffffffffffffffffffffffffffffffffffffffff166112e461262b565b73ffffffffffffffffffffffffffffffffffffffff161461133a576040517f08c379a000000000000000000000000000000000000000000000000000000000815260040161133190613fba565b60405180910390fd5b61134382612682565b61134f8282600161268d565b5050565b61135b61222f565b8060fc60146101000a81548160ff02191690831515021790555050565b60007f000000000000000000000000000000000000000000000000000000000000000073ffffffffffffffffffffffffffffffffffffffff163073ffffffffffffffffffffffffffffffffffffffff1614611408576040517f08c379a00000000000000000000000000000000000000000000000000000000081526004016113ff90613fda565b60405180910390fd5b7f360894a13ba1a3210667c828492db98dca3e2076cc3735a920a3ca505d382bbc60001b905090565b606060008383905067ffffffffffffffff81111561145257611451614831565b5b60405190808252806020026020018201604052801561148b57816020015b611478612e54565b8152602001906001900390816114705790505b50905060008060005b86869050811015611698578686828181106114b2576114b1614802565b5b90506020020135915060fc60009054906101000a900473ffffffffffffffffffffffffffffffffffffffff1673ffffffffffffffffffffffffffffffffffffffff16632f745c5989846040518363ffffffff1660e01b8152600401611518929190613d84565b60206040518083038186803b15801561153057600080fd5b505afa158015611544573d6000803e3d6000fd5b505050506040513d601f19601f82011682018060405250810190611568919061337c565b9250604051806080016040528084815260200160fc60009054906101000a900473ffffffffffffffffffffffffffffffffffffffff1673ffffffffffffffffffffffffffffffffffffffff1663c87b56dd866040518263ffffffff1660e01b81526004016115d691906142d0565b60006040518083038186803b1580156115ee57600080fd5b505afa158015611602573d6000803e3d6000fd5b505050506040513d6000823e3d601f19601f8201168201806040525081019061162b91906132d9565b815260200160ff600086815260200190815260200160002060009054906101000a900460ff16151581526020016116628a86610eaf565b151581525084828151811061167a57611679614802565b5b602002602001018190525080806116909061472a565b915050611494565b508293505050509392505050565b6116ae61222f565b600081116116f1576040517f08c379a00000000000000000000000000000000000000000000000000000000081526004016116e890613f3a565b60405180910390fd5b6116fc6101026122ad565b811161173d576040517f08c379a000000000000000000000000000000000000000000000000000000000815260040161173490613f5a565b60405180910390fd5b806101018190555050565b61010460029054906101000a900473ffffffffffffffffffffffffffffffffffffffff1681565b6000804790508091505090565b61178461222f565b61178e600061280a565b565b6101015481565b600060ff600083815260200190815260200160002060009054906101000a900460ff169050919050565b6117c961222f565b60008161ffff1611611810576040517f08c379a00000000000000000000000000000000000000000000000000000000081526004016118079061423a565b60405180910390fd5b8061010460006101000a81548161ffff021916908361ffff16021790555050565b600060fe6000848152602001908152602001600020805490508260ff16111561188f576040517f08c379a00000000000000000000000000000000000000000000000000000000081526004016118869061409a565b60405180910390fd5b60fe60008481526020019081526020016000208260ff16815481106118b7576118b6614802565b5b9060005260206000200154905092915050565b6000606560009054906101000a900473ffffffffffffffffffffffffffffffffffffffff16905090565b6118fc61222f565b6000811161193f576040517f08c379a00000000000000000000000000000000000000000000000000000000081526004016119369061427a565b60405180910390fd5b806101038190555050565b60006119576101026122ad565b61010154611965919061457f565b905090565b60008060019054906101000a900460ff1615905080801561199b5750600160008054906101000a900460ff1660ff16105b806119c857506119aa306128d0565b1580156119c75750600160008054906101000a900460ff1660ff16145b5b611a07576040517f08c379a00000000000000000000000000000000000000000000000000000000081526004016119fe9061405a565b60405180910390fd5b60016000806101000a81548160ff021916908360ff1602179055508015611a44576001600060016101000a81548160ff0219169083151502179055505b60008711611a87576040517f08c379a0000000000000000000000000000000000000000000000000000000008152600401611a7e90613eba565b60405180910390fd5b60008611611aca576040517f08c379a0000000000000000000000000000000000000000000000000000000008152600401611ac190613eba565b60405180910390fd5b60008561ffff1611611b11576040517f08c379a0000000000000000000000000000000000000000000000000000000008152600401611b0890613eba565b60405180910390fd5b600073ffffffffffffffffffffffffffffffffffffffff168473ffffffffffffffffffffffffffffffffffffffff161415611b81576040517f08c379a0000000000000000000000000000000000000000000000000000000008152600401611b7890613eda565b60405180910390fd5b600073ffffffffffffffffffffffffffffffffffffffff168373ffffffffffffffffffffffffffffffffffffffff161415611bf1576040517f08c379a0000000000000000000000000000000000000000000000000000000008152600401611be89061401a565b60405180910390fd5b600073ffffffffffffffffffffffffffffffffffffffff168273ffffffffffffffffffffffffffffffffffffffff161415611c61576040517f08c379a0000000000000000000000000000000000000000000000000000000008152600401611c58906141fa565b60405180910390fd5b611c696128f3565b611c7161294c565b866101018190555085610103819055508461010460006101000a81548161ffff021916908361ffff1602179055508360fb60006101000a81548173ffffffffffffffffffffffffffffffffffffffff021916908373ffffffffffffffffffffffffffffffffffffffff1602179055508260fc60006101000a81548173ffffffffffffffffffffffffffffffffffffffff021916908373ffffffffffffffffffffffffffffffffffffffff1602179055508161010460026101000a81548173ffffffffffffffffffffffffffffffffffffffff021916908373ffffffffffffffffffffffffffffffffffffffff160217905550600060fc60146101000a81548160ff0219169083151502179055508015611dd75760008060016101000a81548160ff0219169083151502179055507f7f26b83ff96e1f2b6a682f133852f6798a09c465da95921460cefb38474024986001604051611dce9190613e5d565b60405180910390a15b50505050505050565b6060600060fb60009054906101000a900473ffffffffffffffffffffffffffffffffffffffff1673ffffffffffffffffffffffffffffffffffffffff166370a08231846040518263ffffffff1660e01b8152600401611e3f9190613d4e565b60206040518083038186803b158015611e5757600080fd5b505afa158015611e6b573d6000803e3d6000fd5b505050506040513d601f19601f82011682018060405250810190611e8f919061337c565b905060008167ffffffffffffffff811115611ead57611eac614831565b5b604051908082528060200260200182016040528015611ee657816020015b611ed3612e80565b815260200190600190039081611ecb5790505b50905060005b82811015611fda57611fa960fb60009054906101000a900473ffffffffffffffffffffffffffffffffffffffff1673ffffffffffffffffffffffffffffffffffffffff16632f745c5987846040518363ffffffff1660e01b8152600401611f54929190613d84565b60206040518083038186803b158015611f6c57600080fd5b505afa158015611f80573d6000803e3d6000fd5b505050506040513d601f19601f82011682018060405250810190611fa4919061337c565b611fe5565b828281518110611fbc57611fbb614802565b5b60200260200101819052508080611fd29061472a565b915050611eec565b508092505050919050565b611fed612e80565b604051806060016040528083815260200160fd600085815260200190815260200160002060009054906101000a900461ffff1661ffff16815260200161010460009054906101000a900461ffff1661ffff168152509050919050565b61205161222f565b600073ffffffffffffffffffffffffffffffffffffffff168173ffffffffffffffffffffffffffffffffffffffff1614156120c1576040517f08c379a00000000000000000000000000000000000000000000000000000000081526004016120b890613efa565b60405180910390fd5b8061010460026101000a81548173ffffffffffffffffffffffffffffffffffffffff021916908373ffffffffffffffffffffffffffffffffffffffff16021790555050565b600060fc60149054906101000a900460ff16905090565b600060fd600083815260200190815260200160002060009054906101000a900461ffff1661010460009054906101000a900461ffff1661215d919061454b565b9050919050565b61216c61222f565b600073ffffffffffffffffffffffffffffffffffffffff168173ffffffffffffffffffffffffffffffffffffffff1614156121dc576040517f08c379a00000000000000000000000000000000000000000000000000000000081526004016121d390613f7a565b60405180910390fd5b6121e58161280a565b50565b600061010460009054906101000a900461ffff1661ffff1660fd600084815260200190815260200160002060009054906101000a900461ffff1661ffff1610159050919050565b61223761241c565b73ffffffffffffffffffffffffffffffffffffffff166122556118ca565b73ffffffffffffffffffffffffffffffffffffffff16146122ab576040517f08c379a00000000000000000000000000000000000000000000000000000000081526004016122a29061411a565b60405180910390fd5b565b600081600001549050919050565b60606000821415612303576040518060400160405280600181526020017f30000000000000000000000000000000000000000000000000000000000000008152509050612417565b600082905060005b6000821461233557808061231e9061472a565b915050600a8261232e91906144c0565b915061230b565b60008167ffffffffffffffff81111561235157612350614831565b5b6040519080825280601f01601f1916602001820160405280156123835781602001600182028036833780820191505090505b5090505b600085146124105760018261239c919061457f565b9150600a856123ab9190614773565b60306123b7919061446a565b60f81b8183815181106123cd576123cc614802565b5b60200101907effffffffffffffffffffffffffffffffffffffffffffffffffffffffffffff1916908160001a905350600a8561240991906144c0565b9450612387565b8093505050505b919050565b600033905090565b6000805b848490508110156124ba57600085858381811061244857612447614802565b5b90506020020135905061245b818861299d565b60fd600082815260200190815260200160002060009054906101000a900461ffff1661010460009054906101000a900461ffff16612499919061454b565b836124a49190614432565b92505080806124b29061472a565b915050612428565b508161ffff168161ffff161015612506576040517f08c379a00000000000000000000000000000000000000000000000000000000081526004016124fd90613ffa565b60405180910390fd5b5050505050565b60008311612550576040517f08c379a00000000000000000000000000000000000000000000000000000000081526004016125479061419a565b60405180910390fd5b600073ffffffffffffffffffffffffffffffffffffffff168273ffffffffffffffffffffffffffffffffffffffff1614156125c0576040517f08c379a00000000000000000000000000000000000000000000000000000000081526004016125b79061421a565b60405180910390fd5b8083610103546125d091906144f1565b14612610576040517f08c379a00000000000000000000000000000000000000000000000000000000081526004016126079061407a565b60405180910390fd5b505050565b6001816000016000828254019250508190555050565b60006126597f360894a13ba1a3210667c828492db98dca3e2076cc3735a920a3ca505d382bbc60001b612b60565b60000160009054906101000a900473ffffffffffffffffffffffffffffffffffffffff16905090565b61268a61222f565b50565b6126b97f4910fdfa16fed3260ed0e7147f7cc6da11a60208b5b9406d12a635614ffd914360001b612b6a565b60000160009054906101000a900460ff16156126dd576126d883612b74565b612805565b8273ffffffffffffffffffffffffffffffffffffffff166352d1902d6040518163ffffffff1660e01b815260040160206040518083038186803b15801561272357600080fd5b505afa92505050801561275457506040513d601f19601f8201168201806040525081019061275191906132ac565b60015b612793576040517f08c379a000000000000000000000000000000000000000000000000000000000815260040161278a906140da565b60405180910390fd5b7f360894a13ba1a3210667c828492db98dca3e2076cc3735a920a3ca505d382bbc60001b81146127f8576040517f08c379a00000000000000000000000000000000000000000000000000000000081526004016127ef9061403a565b60405180910390fd5b50612804838383612c2d565b5b505050565b6000606560009054906101000a900473ffffffffffffffffffffffffffffffffffffffff16905081606560006101000a81548173ffffffffffffffffffffffffffffffffffffffff021916908373ffffffffffffffffffffffffffffffffffffffff1602179055508173ffffffffffffffffffffffffffffffffffffffff168173ffffffffffffffffffffffffffffffffffffffff167f8be0079c531659141344cd1fd0a4f28419497f9722a3daafe3b4186f6b6457e060405160405180910390a35050565b6000808273ffffffffffffffffffffffffffffffffffffffff163b119050919050565b600060019054906101000a900460ff16612942576040517f08c379a0000000000000000000000000000000000000000000000000000000008152600401612939906141da565b60405180910390fd5b61294a612c59565b565b600060019054906101000a900460ff1661299b576040517f08c379a0000000000000000000000000000000000000000000000000000000008152600401612992906141da565b60405180910390fd5b565b8073ffffffffffffffffffffffffffffffffffffffff1660fb60009054906101000a900473ffffffffffffffffffffffffffffffffffffffff1673ffffffffffffffffffffffffffffffffffffffff16636352211e846040518263ffffffff1660e01b8152600401612a0f91906142d0565b60206040518083038186803b158015612a2757600080fd5b505afa158015612a3b573d6000803e3d6000fd5b505050506040513d601f19601f82011682018060405250810190612a5f91906130c9565b73ffffffffffffffffffffffffffffffffffffffff1614612ab5576040517f08c379a0000000000000000000000000000000000000000000000000000000008152600401612aac90613e9a565b60405180910390fd5b61010460009054906101000a900461ffff1661ffff1660fd600084815260200190815260200160002060009054906101000a900461ffff1661ffff1610612afb836122bb565b604051602001612b0b9190613ce7565b60405160208183030381529060405290612b5b576040517f08c379a0000000000000000000000000000000000000000000000000000000008152600401612b529190613e78565b60405180910390fd5b505050565b6000819050919050565b6000819050919050565b612b7d816128d0565b612bbc576040517f08c379a0000000000000000000000000000000000000000000000000000000008152600401612bb3906140fa565b60405180910390fd5b80612be97f360894a13ba1a3210667c828492db98dca3e2076cc3735a920a3ca505d382bbc60001b612b60565b60000160006101000a81548173ffffffffffffffffffffffffffffffffffffffff021916908373ffffffffffffffffffffffffffffffffffffffff16021790555050565b612c3683612cba565b600082511180612c435750805b15612c5457612c528383612d09565b505b505050565b600060019054906101000a900460ff16612ca8576040517f08c379a0000000000000000000000000000000000000000000000000000000008152600401612c9f906141da565b60405180910390fd5b612cb8612cb361241c565b61280a565b565b612cc381612b74565b8073ffffffffffffffffffffffffffffffffffffffff167fbc7cd75a20ee27fd9adebab32041f755214dbc6bffa90cc0225b39da2e5c2d3b60405160405180910390a250565b6060612d14836128d0565b612d53576040517f08c379a0000000000000000000000000000000000000000000000000000000008152600401612d4a9061417a565b60405180910390fd5b6000808473ffffffffffffffffffffffffffffffffffffffff1684604051612d7b9190613cd0565b600060405180830381855af49150503d8060008114612db6576040519150601f19603f3d011682016040523d82523d6000602084013e612dbb565b606091505b5091509150612de382826040518060600160405280602781526020016151a160279139612ded565b9250505092915050565b60608315612dfd57829050612e4d565b600083511115612e105782518084602001fd5b816040517f08c379a0000000000000000000000000000000000000000000000000000000008152600401612e449190613e78565b60405180910390fd5b9392505050565b604051806080016040528060008152602001606081526020016000151581526020016000151581525090565b604051806060016040528060008152602001600061ffff168152602001600061ffff1681525090565b6000612ebc612eb784614310565b6142eb565b905082815260208101848484011115612ed857612ed761486f565b5b612ee384828561468c565b509392505050565b6000612efe612ef984614341565b6142eb565b905082815260208101848484011115612f1a57612f1961486f565b5b612f2584828561469b565b509392505050565b600081359050612f3c816150ff565b92915050565b600081519050612f51816150ff565b92915050565b600081359050612f6681615116565b92915050565b60008083601f840112612f8257612f81614865565b5b8235905067ffffffffffffffff811115612f9f57612f9e614860565b5b602083019150836020820283011115612fbb57612fba61486a565b5b9250929050565b600081359050612fd18161512d565b92915050565b600081519050612fe681615144565b92915050565b600082601f83011261300157613000614865565b5b8135613011848260208601612ea9565b91505092915050565b600082601f83011261302f5761302e614865565b5b815161303f848260208601612eeb565b91505092915050565b6000813590506130578161515b565b92915050565b60008135905061306c81615172565b92915050565b60008151905061308181615172565b92915050565b60008135905061309681615189565b92915050565b6000602082840312156130b2576130b1614879565b5b60006130c084828501612f2d565b91505092915050565b6000602082840312156130df576130de614879565b5b60006130ed84828501612f42565b91505092915050565b60006020828403121561310c5761310b614879565b5b600061311a84828501612f57565b91505092915050565b60008060006040848603121561313c5761313b614879565b5b600061314a86828701612f2d565b935050602084013567ffffffffffffffff81111561316b5761316a614874565b5b61317786828701612f6c565b92509250509250925092565b6000806040838503121561319a57613199614879565b5b60006131a885828601612f2d565b925050602083013567ffffffffffffffff8111156131c9576131c8614874565b5b6131d585828601612fec565b9150509250929050565b600080604083850312156131f6576131f5614879565b5b600061320485828601612f2d565b92505060206132158582860161305d565b9150509250929050565b60008060006040848603121561323857613237614879565b5b600084013567ffffffffffffffff81111561325657613255614874565b5b61326286828701612f6c565b9350935050602061327586828701613048565b9150509250925092565b60006020828403121561329557613294614879565b5b60006132a384828501612fc2565b91505092915050565b6000602082840312156132c2576132c1614879565b5b60006132d084828501612fd7565b91505092915050565b6000602082840312156132ef576132ee614879565b5b600082015167ffffffffffffffff81111561330d5761330c614874565b5b6133198482850161301a565b91505092915050565b60006020828403121561333857613337614879565b5b600061334684828501613048565b91505092915050565b60006020828403121561336557613364614879565b5b60006133738482850161305d565b91505092915050565b60006020828403121561339257613391614879565b5b60006133a084828501613072565b91505092915050565b60008060008060008060c087890312156133c6576133c5614879565b5b60006133d489828a0161305d565b96505060206133e589828a0161305d565b95505060406133f689828a01613048565b945050606061340789828a01612f2d565b935050608061341889828a01612f2d565b92505060a061342989828a01612f2d565b9150509295509295509295565b6000806040838503121561344d5761344c614879565b5b600061345b8582860161305d565b925050602061346c85828601613087565b9150509250929050565b60006134828383613bad565b60608301905092915050565b600061349a8383613c31565b905092915050565b6134ab816145c5565b82525050565b6134ba816145b3565b82525050565b60006134cb82614392565b6134d581856143d8565b93506134e083614372565b8060005b838110156135115781516134f88882613476565b9750613503836143be565b9250506001810190506134e4565b5085935050505092915050565b60006135298261439d565b61353381856143e9565b93508360208202850161354585614382565b8060005b858110156135815784840389528151613562858261348e565b945061356d836143cb565b925060208a01995050600181019050613549565b50829750879550505050505092915050565b61359c816145d7565b82525050565b6135ab816145d7565b82525050565b6135ba816145e3565b82525050565b60006135cb826143a8565b6135d581856143fa565b93506135e581856020860161469b565b80840191505092915050565b6135fa81614632565b82525050565b61360981614644565b82525050565b61361881614656565b82525050565b6000613629826143b3565b6136338185614405565b935061364381856020860161469b565b61364c8161487e565b840191505092915050565b6000613662826143b3565b61366c8185614416565b935061367c81856020860161469b565b6136858161487e565b840191505092915050565b600061369b826143b3565b6136a58185614427565b93506136b581856020860161469b565b80840191505092915050565b60006136ce602383614416565b91506136d98261488f565b604082019050919050565b60006136f1602483614416565b91506136fc826148de565b604082019050919050565b6000613714601f83614416565b915061371f8261492d565b602082019050919050565b6000613737601a83614416565b915061374282614956565b602082019050919050565b600061375a601f83614416565b91506137658261497f565b602082019050919050565b600061377d602483614416565b9150613788826149a8565b604082019050919050565b60006137a0603583614416565b91506137ab826149f7565b604082019050919050565b60006137c3602683614416565b91506137ce82614a46565b604082019050919050565b60006137e6602c83614416565b91506137f182614a95565b604082019050919050565b6000613809602c83614416565b915061381482614ae4565b604082019050919050565b600061382c603883614416565b915061383782614b33565b604082019050919050565b600061384f601683614416565b915061385a82614b82565b602082019050919050565b6000613872602083614416565b915061387d82614bab565b602082019050919050565b6000613895602983614416565b91506138a082614bd4565b604082019050919050565b60006138b8602e83614416565b91506138c382614c23565b604082019050919050565b60006138db601d83614416565b91506138e682614c72565b602082019050919050565b60006138fe601283614416565b915061390982614c9b565b602082019050919050565b6000613921602083614416565b915061392c82614cc4565b602082019050919050565b6000613944600d83614427565b915061394f82614ced565b600d82019050919050565b6000613967602e83614416565b915061397282614d16565b604082019050919050565b600061398a602d83614416565b915061399582614d65565b604082019050919050565b60006139ad602083614416565b91506139b882614db4565b602082019050919050565b60006139d0602f83614416565b91506139db82614ddd565b604082019050919050565b60006139f3601a83614416565b91506139fe82614e2c565b602082019050919050565b6000613a16602683614416565b9150613a2182614e55565b604082019050919050565b6000613a39602b83614416565b9150613a4482614ea4565b604082019050919050565b6000613a5c601983614416565b9150613a6782614ef3565b602082019050919050565b6000613a7f603183614427565b9150613a8a82614f1c565b603182019050919050565b6000613aa2602b83614416565b9150613aad82614f6b565b604082019050919050565b6000613ac5601683614427565b9150613ad082614fba565b601682019050919050565b6000613ae8601a83614416565b9150613af382614fe3565b602082019050919050565b6000613b0b601f83614416565b9150613b168261500c565b602082019050919050565b6000613b2e602183614416565b9150613b3982615035565b604082019050919050565b6000613b51601f83614416565b9150613b5c82615084565b602082019050919050565b6000613b74600583614427565b9150613b7f826150ad565b600582019050919050565b6000613b97601c83614416565b9150613ba2826150d6565b602082019050919050565b606082016000820151613bc36000850182613cb2565b506020820151613bd66020850182613c94565b506040820151613be96040850182613c94565b50505050565b606082016000820151613c056000850182613cb2565b506020820151613c186020850182613c94565b506040820151613c2b6040850182613c94565b50505050565b6000608083016000830151613c496000860182613cb2565b5060208301518482036020860152613c61828261361e565b9150506040830151613c766040860182613593565b506060830151613c896060860182613593565b508091505092915050565b613c9d816145ed565b82525050565b613cac816145ed565b82525050565b613cbb8161461b565b82525050565b613cca8161461b565b82525050565b6000613cdc82846135c0565b915081905092915050565b6000613cf282613937565b9150613cfe8284613690565b9150613d0982613ab8565b915081905092915050565b6000613d1f82613a72565b9150613d2b8285613690565b9150613d378284613690565b9150613d4282613b67565b91508190509392505050565b6000602082019050613d6360008301846134b1565b92915050565b6000602082019050613d7e60008301846134a2565b92915050565b6000604082019050613d9960008301856134b1565b613da66020830184613cc1565b9392505050565b60006020820190508181036000830152613dc781846134c0565b905092915050565b60006020820190508181036000830152613de9818461351e565b905092915050565b6000602082019050613e0660008301846135a2565b92915050565b6000602082019050613e2160008301846135b1565b92915050565b6000602082019050613e3c60008301846135f1565b92915050565b6000602082019050613e576000830184613600565b92915050565b6000602082019050613e72600083018461360f565b92915050565b60006020820190508181036000830152613e928184613657565b905092915050565b60006020820190508181036000830152613eb3816136c1565b9050919050565b60006020820190508181036000830152613ed3816136e4565b9050919050565b60006020820190508181036000830152613ef381613707565b9050919050565b60006020820190508181036000830152613f138161372a565b9050919050565b60006020820190508181036000830152613f338161374d565b9050919050565b60006020820190508181036000830152613f5381613770565b9050919050565b60006020820190508181036000830152613f7381613793565b9050919050565b60006020820190508181036000830152613f93816137b6565b9050919050565b60006020820190508181036000830152613fb3816137d9565b9050919050565b60006020820190508181036000830152613fd3816137fc565b9050919050565b60006020820190508181036000830152613ff38161381f565b9050919050565b6000602082019050818103600083015261401381613842565b9050919050565b6000602082019050818103600083015261403381613865565b9050919050565b6000602082019050818103600083015261405381613888565b9050919050565b60006020820190508181036000830152614073816138ab565b9050919050565b60006020820190508181036000830152614093816138ce565b9050919050565b600060208201905081810360008301526140b3816138f1565b9050919050565b600060208201905081810360008301526140d381613914565b9050919050565b600060208201905081810360008301526140f38161395a565b9050919050565b600060208201905081810360008301526141138161397d565b9050919050565b60006020820190508181036000830152614133816139a0565b9050919050565b60006020820190508181036000830152614153816139c3565b9050919050565b60006020820190508181036000830152614173816139e6565b9050919050565b6000602082019050818103600083015261419381613a09565b9050919050565b600060208201905081810360008301526141b381613a2c565b9050919050565b600060208201905081810360008301526141d381613a4f565b9050919050565b600060208201905081810360008301526141f381613a95565b9050919050565b6000602082019050818103600083015261421381613adb565b9050919050565b6000602082019050818103600083015261423381613afe565b9050919050565b6000602082019050818103600083015261425381613b21565b9050919050565b6000602082019050818103600083015261427381613b44565b9050919050565b6000602082019050818103600083015261429381613b8a565b9050919050565b60006060820190506142af6000830184613bef565b92915050565b60006020820190506142ca6000830184613ca3565b92915050565b60006020820190506142e56000830184613cc1565b92915050565b60006142f5614306565b905061430182826146ce565b919050565b6000604051905090565b600067ffffffffffffffff82111561432b5761432a614831565b5b6143348261487e565b9050602081019050919050565b600067ffffffffffffffff82111561435c5761435b614831565b5b6143658261487e565b9050602081019050919050565b6000819050602082019050919050565b6000819050602082019050919050565b600081519050919050565b600081519050919050565b600081519050919050565b600081519050919050565b6000602082019050919050565b6000602082019050919050565b600082825260208201905092915050565b600082825260208201905092915050565b600081905092915050565b600082825260208201905092915050565b600082825260208201905092915050565b600081905092915050565b600061443d826145ed565b9150614448836145ed565b92508261ffff0382111561445f5761445e6147a4565b5b828201905092915050565b60006144758261461b565b91506144808361461b565b9250827fffffffffffffffffffffffffffffffffffffffffffffffffffffffffffffffff038211156144b5576144b46147a4565b5b828201905092915050565b60006144cb8261461b565b91506144d68361461b565b9250826144e6576144e56147d3565b5b828204905092915050565b60006144fc8261461b565b91506145078361461b565b9250817fffffffffffffffffffffffffffffffffffffffffffffffffffffffffffffffff04831182151516156145405761453f6147a4565b5b828202905092915050565b6000614556826145ed565b9150614561836145ed565b925082821015614574576145736147a4565b5b828203905092915050565b600061458a8261461b565b91506145958361461b565b9250828210156145a8576145a76147a4565b5b828203905092915050565b60006145be826145fb565b9050919050565b60006145d0826145fb565b9050919050565b60008115159050919050565b6000819050919050565b600061ffff82169050919050565b600073ffffffffffffffffffffffffffffffffffffffff82169050919050565b6000819050919050565b600060ff82169050919050565b600061463d82614668565b9050919050565b600061464f82614668565b9050919050565b600061466182614625565b9050919050565b60006146738261467a565b9050919050565b6000614685826145fb565b9050919050565b82818337600083830152505050565b60005b838110156146b957808201518184015260208101905061469e565b838111156146c8576000848401525b50505050565b6146d78261487e565b810181811067ffffffffffffffff821117156146f6576146f5614831565b5b80604052505050565b600061470a826145ed565b915061ffff82141561471f5761471e6147a4565b5b600182019050919050565b60006147358261461b565b91507fffffffffffffffffffffffffffffffffffffffffffffffffffffffffffffffff821415614768576147676147a4565b5b600182019050919050565b600061477e8261461b565b91506147898361461b565b925082614799576147986147d3565b5b828206905092915050565b7f4e487b7100000000000000000000000000000000000000000000000000000000600052601160045260246000fd5b7f4e487b7100000000000000000000000000000000000000000000000000000000600052601260045260246000fd5b7f4e487b7100000000000000000000000000000000000000000000000000000000600052603260045260246000fd5b7f4e487b7100000000000000000000000000000000000000000000000000000000600052604160045260246000fd5b600080fd5b600080fd5b600080fd5b600080fd5b600080fd5b600080fd5b6000601f19601f8301169050919050565b7f596f7520646f6e2774206f776e20616c6c207468657365206d696e742070617360008201527f7365730000000000000000000000000000000000000000000000000000000000602082015250565b7f6d617853616c65416d6f756e74206d757374206265206772656174657220746860008201527f616e203000000000000000000000000000000000000000000000000000000000602082015250565b7f6d696e74506173734e465420697320746865207a65726f206164647265737300600082015250565b7f57616c6c657420697320746865207a65726f2061646472657373000000000000600082015250565b7f4d696e74506173734e465420697320746865207a65726f206164647265737300600082015250565b7f4d617853616c65416d6f756e74206d757374206265206772656174657220746860008201527f616e203000000000000000000000000000000000000000000000000000000000602082015250565b7f4d617853616c65416d6f756e74206d757374206265206772656174657220746860008201527f616e205f63757272656e7453616c65416d6f756e740000000000000000000000602082015250565b7f4f776e61626c653a206e6577206f776e657220697320746865207a65726f206160008201527f6464726573730000000000000000000000000000000000000000000000000000602082015250565b7f46756e6374696f6e206d7573742062652063616c6c6564207468726f7567682060008201527f64656c656761746563616c6c0000000000000000000000000000000000000000602082015250565b7f46756e6374696f6e206d7573742062652063616c6c6564207468726f7567682060008201527f6163746976652070726f78790000000000000000000000000000000000000000602082015250565b7f555550535570677261646561626c653a206d757374206e6f742062652063616c60008201527f6c6564207468726f7567682064656c656761746563616c6c0000000000000000602082015250565b7f496e73756666696369656e74204d696e74205061737300000000000000000000600082015250565b7f6d6f6f6e42656173744e465420697320746865207a65726f2061646472657373600082015250565b7f45524331393637557067726164653a20756e737570706f727465642070726f7860008201527f6961626c65555549440000000000000000000000000000000000000000000000602082015250565b7f496e697469616c697a61626c653a20636f6e747261637420697320616c72656160008201527f647920696e697469616c697a6564000000000000000000000000000000000000602082015250565b7f5468652076616c756520796f752073656e7420697320696e76616c6964000000600082015250565b7f4f7574206f662061727261792072616e67650000000000000000000000000000600082015250565b7f4d6f6f6e42656173744e465420697320746865207a65726f2061646472657373600082015250565b7f4d696e74506173734e4654202300000000000000000000000000000000000000600082015250565b7f45524331393637557067726164653a206e657720696d706c656d656e7461746960008201527f6f6e206973206e6f742055555053000000000000000000000000000000000000602082015250565b7f455243313936373a206e657720696d706c656d656e746174696f6e206973206e60008201527f6f74206120636f6e747261637400000000000000000000000000000000000000602082015250565b7f4f776e61626c653a2063616c6c6572206973206e6f7420746865206f776e6572600082015250565b7f457863656564656420746865206e756d626572206f66204e46547320666f722060008201527f746869732073616c6520726f756e640000000000000000000000000000000000602082015250565b7f436f6e74726163742062616c616e6365206973203020474c4d52000000000000600082015250565b7f416464726573733a2064656c65676174652063616c6c20746f206e6f6e2d636f60008201527f6e74726163740000000000000000000000000000000000000000000000000000602082015250565b7f596f75206e656564206174206c65617374206f6e65206d696e7420706173732060008201527f746f206d696e74204e4654000000000000000000000000000000000000000000602082015250565b7f57686974656c69737420726f756e64206e6f7420726561647900000000000000600082015250565b7f457863656564656420746865206e756d626572206f66204e46547320666f722060008201527f746869732073616c6520726f756e642e20000000000000000000000000000000602082015250565b7f496e697469616c697a61626c653a20636f6e7472616374206973206e6f74206960008201527f6e697469616c697a696e67000000000000000000000000000000000000000000602082015250565b7f207573656420322f32207475726e206f66204d696e7400000000000000000000600082015250565b7f77616c6c657420697320746865207a65726f2061646472657373000000000000600082015250565b7f42656e656669636961727920697320746865207a65726f206164647265737300600082015250565b7f4e667450657250617373206d7573742062652067726561746572207468616e2060008201527f3000000000000000000000000000000000000000000000000000000000000000602082015250565b7f5265656e7472616e637947756172643a207265656e7472616e742063616c6c00600082015250565b7f206c656674000000000000000000000000000000000000000000000000000000600082015250565b7f5072696365206d7573742062652067726561746572207468616e203000000000600082015250565b615108816145b3565b811461511357600080fd5b50565b61511f816145c5565b811461512a57600080fd5b50565b615136816145d7565b811461514157600080fd5b50565b61514d816145e3565b811461515857600080fd5b50565b615164816145ed565b811461516f57600080fd5b50565b61517b8161461b565b811461518657600080fd5b50565b61519281614625565b811461519d57600080fd5b5056fe416464726573733a206c6f772d6c6576656c2064656c65676174652063616c6c206661696c6564a26469706673582212205cd8edd32eaec618c155220d10d5debaf4f702ac5e1a0e7a535fa1bf4bc7557764736f6c63430008070033",
  "linkReferences": {},
  "deployedLinkReferences": {}
}