{
  "_format": "hh-sol-artifact-1",
  "contractName": "MFNFTSale",
  "sourceName": "contracts/MFNFTSale.sol",
  "abi": [
    {
      "inputs": [],
      "stateMutability": "nonpayable",
      "type": "constructor"
    },
    {
      "anonymous": false,
      "inputs": [
        {
          "indexed": false,
          "internalType": "address",
          "name": "beneficiary",
          "type": "address"
        },
        {
          "indexed": false,
          "internalType": "uint256",
          "name": "mintPassId",
          "type": "uint256"
        }
      ],
      "name": "NFTPurchased",
      "type": "event"
    },
    {
      "anonymous": false,
      "inputs": [
        {
          "indexed": true,
          "internalType": "address",
          "name": "previousOwner",
          "type": "address"
        },
        {
          "indexed": true,
          "internalType": "address",
          "name": "newOwner",
          "type": "address"
        }
      ],
      "name": "OwnershipTransferred",
      "type": "event"
    },
    {
      "inputs": [
        {
          "internalType": "address",
          "name": "",
          "type": "address"
        }
      ],
      "name": "_buyers",
      "outputs": [
        {
          "internalType": "uint8",
          "name": "",
          "type": "uint8"
        }
      ],
      "stateMutability": "view",
      "type": "function"
    },
    {
      "inputs": [],
      "name": "_maxSaleAmount",
      "outputs": [
        {
          "internalType": "uint256",
          "name": "",
          "type": "uint256"
        }
      ],
      "stateMutability": "view",
      "type": "function"
    },
    {
      "inputs": [],
      "name": "_mintPassNFT",
      "outputs": [
        {
          "internalType": "contract IERC721",
          "name": "",
          "type": "address"
        }
      ],
      "stateMutability": "view",
      "type": "function"
    },
    {
      "inputs": [],
      "name": "_moonBeastNFT",
      "outputs": [
        {
          "internalType": "contract MoonBeast",
          "name": "",
          "type": "address"
        }
      ],
      "stateMutability": "view",
      "type": "function"
    },
    {
      "inputs": [],
      "name": "_nftPerPass",
      "outputs": [
        {
          "internalType": "uint256",
          "name": "",
          "type": "uint256"
        }
      ],
      "stateMutability": "view",
      "type": "function"
    },
    {
      "inputs": [],
      "name": "_price",
      "outputs": [
        {
          "internalType": "uint256",
          "name": "",
          "type": "uint256"
        }
      ],
      "stateMutability": "view",
      "type": "function"
    },
    {
      "inputs": [],
      "name": "_wallet",
      "outputs": [
        {
          "internalType": "address payable",
          "name": "",
          "type": "address"
        }
      ],
      "stateMutability": "view",
      "type": "function"
    },
    {
      "inputs": [
        {
          "internalType": "uint256[]",
          "name": "mintPassIds",
          "type": "uint256[]"
        }
      ],
      "name": "buyNFT",
      "outputs": [],
      "stateMutability": "payable",
      "type": "function"
    },
    {
      "inputs": [
        {
          "internalType": "uint256",
          "name": "passId",
          "type": "uint256"
        }
      ],
      "name": "checkMintPass",
      "outputs": [
        {
          "internalType": "bool",
          "name": "",
          "type": "bool"
        }
      ],
      "stateMutability": "view",
      "type": "function"
    },
    {
      "inputs": [],
      "name": "getAvailableSlots",
      "outputs": [
        {
          "internalType": "uint256",
          "name": "",
          "type": "uint256"
        }
      ],
      "stateMutability": "view",
      "type": "function"
    },
    {
      "inputs": [
        {
          "internalType": "address",
          "name": "buyer",
          "type": "address"
        }
      ],
      "name": "getBuyerBalance",
      "outputs": [
        {
          "internalType": "uint256",
          "name": "",
          "type": "uint256"
        }
      ],
      "stateMutability": "view",
      "type": "function"
    },
    {
      "inputs": [],
      "name": "getContractBalance",
      "outputs": [
        {
          "internalType": "uint256",
          "name": "",
          "type": "uint256"
        }
      ],
      "stateMutability": "view",
      "type": "function"
    },
    {
      "inputs": [
        {
          "internalType": "uint256",
          "name": "mintPassId",
          "type": "uint256"
        },
        {
          "internalType": "uint8",
          "name": "index",
          "type": "uint8"
        }
      ],
      "name": "getMintPassUsage",
      "outputs": [
        {
          "internalType": "uint256",
          "name": "",
          "type": "uint256"
        }
      ],
      "stateMutability": "view",
      "type": "function"
    },
    {
      "inputs": [],
      "name": "owner",
      "outputs": [
        {
          "internalType": "address",
          "name": "",
          "type": "address"
        }
      ],
      "stateMutability": "view",
      "type": "function"
    },
    {
      "inputs": [],
      "name": "renounceOwnership",
      "outputs": [],
      "stateMutability": "nonpayable",
      "type": "function"
    },
    {
      "inputs": [
        {
          "internalType": "uint256",
          "name": "maxSaleAmount",
          "type": "uint256"
        }
      ],
      "name": "setMaxSaleAmount",
      "outputs": [],
      "stateMutability": "nonpayable",
      "type": "function"
    },
    {
      "inputs": [
        {
          "internalType": "address",
          "name": "mintPass",
          "type": "address"
        }
      ],
      "name": "setMintPassNFT",
      "outputs": [],
      "stateMutability": "nonpayable",
      "type": "function"
    },
    {
      "inputs": [
        {
          "internalType": "address",
          "name": "moonBeast",
          "type": "address"
        }
      ],
      "name": "setMoonBeastNFT",
      "outputs": [],
      "stateMutability": "nonpayable",
      "type": "function"
    },
    {
      "inputs": [
        {
          "internalType": "uint256",
          "name": "value",
          "type": "uint256"
        }
      ],
      "name": "setNftPerPass",
      "outputs": [],
      "stateMutability": "nonpayable",
      "type": "function"
    },
    {
      "inputs": [
        {
          "internalType": "uint256",
          "name": "price",
          "type": "uint256"
        }
      ],
      "name": "setPrice",
      "outputs": [],
      "stateMutability": "nonpayable",
      "type": "function"
    },
    {
      "inputs": [
        {
          "internalType": "address payable",
          "name": "wallet",
          "type": "address"
        }
      ],
      "name": "setWallet",
      "outputs": [],
      "stateMutability": "nonpayable",
      "type": "function"
    },
    {
      "inputs": [
        {
          "internalType": "address",
          "name": "newOwner",
          "type": "address"
        }
      ],
      "name": "transferOwnership",
      "outputs": [],
      "stateMutability": "nonpayable",
      "type": "function"
    },
    {
      "inputs": [],
      "name": "withdrawTokenByOwner",
      "outputs": [],
      "stateMutability": "nonpayable",
      "type": "function"
    }
  ],
  "bytecode": "0x60806040523480156200001157600080fd5b5060016000819055506200003a6200002e6200015e60201b60201c565b6200016660201b60201c565b6101f4600781905550662386f26fc100006009819055506001600a81905550737e7d9fee5c5994aa7fc1daeb231af015e2fdad3e600260006101000a81548173ffffffffffffffffffffffffffffffffffffffff021916908373ffffffffffffffffffffffffffffffffffffffff1602179055507321d95dac89c5665f31777e3f9af2a997dac4ecf7600360006101000a81548173ffffffffffffffffffffffffffffffffffffffff021916908373ffffffffffffffffffffffffffffffffffffffff160217905550739585fd0486c444cc2066710029d5ad61d478e663600b60006101000a81548173ffffffffffffffffffffffffffffffffffffffff021916908373ffffffffffffffffffffffffffffffffffffffff1602179055506200022c565b600033905090565b6000600160009054906101000a900473ffffffffffffffffffffffffffffffffffffffff16905081600160006101000a81548173ffffffffffffffffffffffffffffffffffffffff021916908373ffffffffffffffffffffffffffffffffffffffff1602179055508173ffffffffffffffffffffffffffffffffffffffff168173ffffffffffffffffffffffffffffffffffffffff167f8be0079c531659141344cd1fd0a4f28419497f9722a3daafe3b4186f6b6457e060405160405180910390a35050565b6126c7806200023c6000396000f3fe6080604052600436106101405760003560e01c8063715018a6116100b6578063b9d18eae1161006f578063b9d18eae14610426578063deaa59df14610451578063e2bc62501461047a578063e570cd6814610496578063f2fde38b146104bf578063f89595b5146104e857610140565b8063715018a6146103165780637428edea1461032d57806382b7de28146103585780638c971cd0146103955780638da5cb5b146103d257806391b7f5ed146103fd57610140565b80632bfccd3c116101085780632bfccd3c146102065780633e823eed1461022f5780634949c90f1461025a5780635d0a8f6d14610297578063610757e4146102c05780636f9fb98a146102eb57610140565b80630b154c471461014557806312c0aeb914610170578063228443d814610187578063235b6ea1146101b05780632725368f146101db575b600080fd5b34801561015157600080fd5b5061015a610525565b6040516101679190611d32565b60405180910390f35b34801561017c57600080fd5b5061018561054b565b005b34801561019357600080fd5b506101ae60048036038101906101a9919061186b565b610632565b005b3480156101bc57600080fd5b506101c5610762565b6040516101d29190611fa8565b60405180910390f35b3480156101e757600080fd5b506101f0610768565b6040516101fd9190611d4d565b60405180910390f35b34801561021257600080fd5b5061022d6004803603810190610228919061186b565b61078e565b005b34801561023b57600080fd5b506102446108be565b6040516102519190611fa8565b60405180910390f35b34801561026657600080fd5b50610281600480360381019061027c919061186b565b6108c4565b60405161028e9190611fa8565b60405180910390f35b3480156102a357600080fd5b506102be60048036038101906102b9919061193f565b61091d565b005b3480156102cc57600080fd5b506102d5610a31565b6040516102e29190611cd3565b60405180910390f35b3480156102f757600080fd5b50610300610a57565b60405161030d9190611fa8565b60405180910390f35b34801561032257600080fd5b5061032b610a64565b005b34801561033957600080fd5b50610342610aec565b60405161034f9190611fa8565b60405180910390f35b34801561036457600080fd5b5061037f600480360381019061037a919061186b565b610af2565b60405161038c9190611fc3565b60405180910390f35b3480156103a157600080fd5b506103bc60048036038101906103b79190611999565b610b12565b6040516103c99190611fa8565b60405180910390f35b3480156103de57600080fd5b506103e7610bab565b6040516103f49190611cb8565b60405180910390f35b34801561040957600080fd5b50610424600480360381019061041f919061193f565b610bd5565b005b34801561043257600080fd5b5061043b610c9e565b6040516104489190611fa8565b60405180910390f35b34801561045d57600080fd5b50610478600480360381019061047391906118c5565b610cbc565b005b610494600480360381019061048f91906118f2565b610dec565b005b3480156104a257600080fd5b506104bd60048036038101906104b8919061193f565b6110ef565b005b3480156104cb57600080fd5b506104e660048036038101906104e1919061186b565b6111b8565b005b3480156104f457600080fd5b5061050f600480360381019061050a919061193f565b6112b0565b60405161051c9190611d17565b60405180910390f35b600260009054906101000a900473ffffffffffffffffffffffffffffffffffffffff1681565b6105536112da565b73ffffffffffffffffffffffffffffffffffffffff16610571610bab565b73ffffffffffffffffffffffffffffffffffffffff16146105c7576040517f08c379a00000000000000000000000000000000000000000000000000000000081526004016105be90611ec8565b60405180910390fd5b600b60009054906101000a900473ffffffffffffffffffffffffffffffffffffffff1673ffffffffffffffffffffffffffffffffffffffff166108fc479081150290604051600060405180830381858888f1935050505015801561062f573d6000803e3d6000fd5b50565b61063a6112da565b73ffffffffffffffffffffffffffffffffffffffff16610658610bab565b73ffffffffffffffffffffffffffffffffffffffff16146106ae576040517f08c379a00000000000000000000000000000000000000000000000000000000081526004016106a590611ec8565b60405180910390fd5b600073ffffffffffffffffffffffffffffffffffffffff168173ffffffffffffffffffffffffffffffffffffffff16141561071e576040517f08c379a000000000000000000000000000000000000000000000000000000000815260040161071590611ea8565b60405180910390fd5b80600360006101000a81548173ffffffffffffffffffffffffffffffffffffffff021916908373ffffffffffffffffffffffffffffffffffffffff16021790555050565b60095481565b600360009054906101000a900473ffffffffffffffffffffffffffffffffffffffff1681565b6107966112da565b73ffffffffffffffffffffffffffffffffffffffff166107b4610bab565b73ffffffffffffffffffffffffffffffffffffffff161461080a576040517f08c379a000000000000000000000000000000000000000000000000000000000815260040161080190611ec8565b60405180910390fd5b600073ffffffffffffffffffffffffffffffffffffffff168173ffffffffffffffffffffffffffffffffffffffff16141561087a576040517f08c379a000000000000000000000000000000000000000000000000000000000815260040161087190611dc8565b60405180910390fd5b80600260006101000a81548173ffffffffffffffffffffffffffffffffffffffff021916908373ffffffffffffffffffffffffffffffffffffffff16021790555050565b600a5481565b6000600460008373ffffffffffffffffffffffffffffffffffffffff1673ffffffffffffffffffffffffffffffffffffffff16815260200190815260200160002060009054906101000a900460ff1660ff169050919050565b6109256112da565b73ffffffffffffffffffffffffffffffffffffffff16610943610bab565b73ffffffffffffffffffffffffffffffffffffffff1614610999576040517f08c379a000000000000000000000000000000000000000000000000000000000815260040161099090611ec8565b60405180910390fd5b600081116109dc576040517f08c379a00000000000000000000000000000000000000000000000000000000081526004016109d390611de8565b60405180910390fd5b6109e660086112e2565b8111610a27576040517f08c379a0000000000000000000000000000000000000000000000000000000008152600401610a1e90611e08565b60405180910390fd5b8060078190555050565b600b60009054906101000a900473ffffffffffffffffffffffffffffffffffffffff1681565b6000804790508091505090565b610a6c6112da565b73ffffffffffffffffffffffffffffffffffffffff16610a8a610bab565b73ffffffffffffffffffffffffffffffffffffffff1614610ae0576040517f08c379a0000000000000000000000000000000000000000000000000000000008152600401610ad790611ec8565b60405180910390fd5b610aea60006112f0565b565b60075481565b60046020528060005260406000206000915054906101000a900460ff1681565b600060066000848152602001908152602001600020805490508260ff161115610b70576040517f08c379a0000000000000000000000000000000000000000000000000000000008152600401610b6790611e88565b60405180910390fd5b600660008481526020019081526020016000208260ff1681548110610b9857610b976121db565b5b9060005260206000200154905092915050565b6000600160009054906101000a900473ffffffffffffffffffffffffffffffffffffffff16905090565b610bdd6112da565b73ffffffffffffffffffffffffffffffffffffffff16610bfb610bab565b73ffffffffffffffffffffffffffffffffffffffff1614610c51576040517f08c379a0000000000000000000000000000000000000000000000000000000008152600401610c4890611ec8565b60405180910390fd5b60008111610c94576040517f08c379a0000000000000000000000000000000000000000000000000000000008152600401610c8b90611f88565b60405180910390fd5b8060098190555050565b6000610caa60086112e2565b600754610cb79190612080565b905090565b610cc46112da565b73ffffffffffffffffffffffffffffffffffffffff16610ce2610bab565b73ffffffffffffffffffffffffffffffffffffffff1614610d38576040517f08c379a0000000000000000000000000000000000000000000000000000000008152600401610d2f90611ec8565b60405180910390fd5b600073ffffffffffffffffffffffffffffffffffffffff168173ffffffffffffffffffffffffffffffffffffffff161415610da8576040517f08c379a0000000000000000000000000000000000000000000000000000000008152600401610d9f90611d88565b60405180910390fd5b80600b60006101000a81548173ffffffffffffffffffffffffffffffffffffffff021916908373ffffffffffffffffffffffffffffffffffffffff16021790555050565b60026000541415610e32576040517f08c379a0000000000000000000000000000000000000000000000000000000008152600401610e2990611f68565b60405180910390fd5b60026000819055506000610e446112da565b90506000349050610e598484905083836113b6565b60005b848490508110156110e0576000858583818110610e7c57610e7b6121db565b5b905060200201359050610e8f81856115fe565b60005b600a5481101561109257600754610ea960086112e2565b10610ee9576040517f08c379a0000000000000000000000000000000000000000000000000000000008152600401610ee090611ee8565b60405180910390fd5b6000600360009054906101000a900473ffffffffffffffffffffffffffffffffffffffff1673ffffffffffffffffffffffffffffffffffffffff166354ba0f27876040518263ffffffff1660e01b8152600401610f469190611cb8565b602060405180830381600087803b158015610f6057600080fd5b505af1158015610f74573d6000803e3d6000fd5b505050506040513d601f19601f82011682018060405250810190610f98919061196c565b9050610fa46008611781565b6001600460008873ffffffffffffffffffffffffffffffffffffffff1673ffffffffffffffffffffffffffffffffffffffff16815260200190815260200160002060008282829054906101000a900460ff166110009190611fef565b92506101000a81548160ff021916908360ff16021790555060016005600085815260200190815260200160002060006101000a81548160ff0219169083151502179055506006600084815260200190815260200160002081908060018154018082558091505060019003906000526020600020016000909190919091505550808061108a90612163565b915050610e92565b507f7f8aed29394d49180b299699236f142fbd3a78f6d1464929dd17e87b73ebc8d284826040516110c4929190611cee565b60405180910390a15080806110d890612163565b915050610e5c565b50505060016000819055505050565b6110f76112da565b73ffffffffffffffffffffffffffffffffffffffff16611115610bab565b73ffffffffffffffffffffffffffffffffffffffff161461116b576040517f08c379a000000000000000000000000000000000000000000000000000000000815260040161116290611ec8565b60405180910390fd5b600081116111ae576040517f08c379a00000000000000000000000000000000000000000000000000000000081526004016111a590611f48565b60405180910390fd5b80600a8190555050565b6111c06112da565b73ffffffffffffffffffffffffffffffffffffffff166111de610bab565b73ffffffffffffffffffffffffffffffffffffffff1614611234576040517f08c379a000000000000000000000000000000000000000000000000000000000815260040161122b90611ec8565b60405180910390fd5b600073ffffffffffffffffffffffffffffffffffffffff168173ffffffffffffffffffffffffffffffffffffffff1614156112a4576040517f08c379a000000000000000000000000000000000000000000000000000000000815260040161129b90611e28565b60405180910390fd5b6112ad816112f0565b50565b60006005600083815260200190815260200160002060009054906101000a900460ff169050919050565b600033905090565b600081600001549050919050565b6000600160009054906101000a900473ffffffffffffffffffffffffffffffffffffffff16905081600160006101000a81548173ffffffffffffffffffffffffffffffffffffffff021916908373ffffffffffffffffffffffffffffffffffffffff1602179055508173ffffffffffffffffffffffffffffffffffffffff168173ffffffffffffffffffffffffffffffffffffffff167f8be0079c531659141344cd1fd0a4f28419497f9722a3daafe3b4186f6b6457e060405160405180910390a35050565b600083116113f9576040517f08c379a00000000000000000000000000000000000000000000000000000000081526004016113f090611f08565b60405180910390fd5b600073ffffffffffffffffffffffffffffffffffffffff168273ffffffffffffffffffffffffffffffffffffffff161415611469576040517f08c379a000000000000000000000000000000000000000000000000000000000815260040161146090611f28565b60405180910390fd5b6000600260009054906101000a900473ffffffffffffffffffffffffffffffffffffffff1673ffffffffffffffffffffffffffffffffffffffff166370a08231846040518263ffffffff1660e01b81526004016114c69190611cb8565b60206040518083038186803b1580156114de57600080fd5b505afa1580156114f2573d6000803e3d6000fd5b505050506040513d601f19601f82011682018060405250810190611516919061196c565b905080600460008573ffffffffffffffffffffffffffffffffffffffff1673ffffffffffffffffffffffffffffffffffffffff16815260200190815260200160002060009054906101000a900460ff1660ff16106115a9576040517f08c379a00000000000000000000000000000000000000000000000000000000081526004016115a090611da8565b60405180910390fd5b81846009546115b89190612026565b146115f8576040517f08c379a00000000000000000000000000000000000000000000000000000000081526004016115ef90611e68565b60405180910390fd5b50505050565b8073ffffffffffffffffffffffffffffffffffffffff16600260009054906101000a900473ffffffffffffffffffffffffffffffffffffffff1673ffffffffffffffffffffffffffffffffffffffff16636352211e846040518263ffffffff1660e01b81526004016116709190611fa8565b60206040518083038186803b15801561168857600080fd5b505afa15801561169c573d6000803e3d6000fd5b505050506040513d601f19601f820116820180604052508101906116c09190611898565b73ffffffffffffffffffffffffffffffffffffffff1614611716576040517f08c379a000000000000000000000000000000000000000000000000000000000815260040161170d90611d68565b60405180910390fd5b600015156005600084815260200190815260200160002060009054906101000a900460ff1615151461177d576040517f08c379a000000000000000000000000000000000000000000000000000000000815260040161177490611e48565b60405180910390fd5b5050565b6001816000016000828254019250508190555050565b6000813590506117a681612635565b92915050565b6000815190506117bb81612635565b92915050565b6000813590506117d08161264c565b92915050565b60008083601f8401126117ec576117eb61220f565b5b8235905067ffffffffffffffff8111156118095761180861220a565b5b60208301915083602082028301111561182557611824612214565b5b9250929050565b60008135905061183b81612663565b92915050565b60008151905061185081612663565b92915050565b6000813590506118658161267a565b92915050565b6000602082840312156118815761188061221e565b5b600061188f84828501611797565b91505092915050565b6000602082840312156118ae576118ad61221e565b5b60006118bc848285016117ac565b91505092915050565b6000602082840312156118db576118da61221e565b5b60006118e9848285016117c1565b91505092915050565b600080602083850312156119095761190861221e565b5b600083013567ffffffffffffffff81111561192757611926612219565b5b611933858286016117d6565b92509250509250929050565b6000602082840312156119555761195461221e565b5b60006119638482850161182c565b91505092915050565b6000602082840312156119825761198161221e565b5b600061199084828501611841565b91505092915050565b600080604083850312156119b0576119af61221e565b5b60006119be8582860161182c565b92505060206119cf85828601611856565b9150509250929050565b6119e2816120c6565b82525050565b6119f1816120b4565b82525050565b611a00816120d8565b82525050565b611a0f8161211b565b82525050565b611a1e8161212d565b82525050565b6000611a31602383611fde565b9150611a3c82612223565b604082019050919050565b6000611a54601a83611fde565b9150611a5f82612272565b602082019050919050565b6000611a77602d83611fde565b9150611a828261229b565b604082019050919050565b6000611a9a601f83611fde565b9150611aa5826122ea565b602082019050919050565b6000611abd602483611fde565b9150611ac882612313565b604082019050919050565b6000611ae0603583611fde565b9150611aeb82612362565b604082019050919050565b6000611b03602683611fde565b9150611b0e826123b1565b604082019050919050565b6000611b26601f83611fde565b9150611b3182612400565b602082019050919050565b6000611b49601d83611fde565b9150611b5482612429565b602082019050919050565b6000611b6c601283611fde565b9150611b7782612452565b602082019050919050565b6000611b8f602083611fde565b9150611b9a8261247b565b602082019050919050565b6000611bb2602083611fde565b9150611bbd826124a4565b602082019050919050565b6000611bd5602e83611fde565b9150611be0826124cd565b604082019050919050565b6000611bf8602b83611fde565b9150611c038261251c565b604082019050919050565b6000611c1b601f83611fde565b9150611c268261256b565b602082019050919050565b6000611c3e602183611fde565b9150611c4982612594565b604082019050919050565b6000611c61601f83611fde565b9150611c6c826125e3565b602082019050919050565b6000611c84601c83611fde565b9150611c8f8261260c565b602082019050919050565b611ca381612104565b82525050565b611cb28161210e565b82525050565b6000602082019050611ccd60008301846119e8565b92915050565b6000602082019050611ce860008301846119d9565b92915050565b6000604082019050611d0360008301856119e8565b611d106020830184611c9a565b9392505050565b6000602082019050611d2c60008301846119f7565b92915050565b6000602082019050611d476000830184611a06565b92915050565b6000602082019050611d626000830184611a15565b92915050565b60006020820190508181036000830152611d8181611a24565b9050919050565b60006020820190508181036000830152611da181611a47565b9050919050565b60006020820190508181036000830152611dc181611a6a565b9050919050565b60006020820190508181036000830152611de181611a8d565b9050919050565b60006020820190508181036000830152611e0181611ab0565b9050919050565b60006020820190508181036000830152611e2181611ad3565b9050919050565b60006020820190508181036000830152611e4181611af6565b9050919050565b60006020820190508181036000830152611e6181611b19565b9050919050565b60006020820190508181036000830152611e8181611b3c565b9050919050565b60006020820190508181036000830152611ea181611b5f565b9050919050565b60006020820190508181036000830152611ec181611b82565b9050919050565b60006020820190508181036000830152611ee181611ba5565b9050919050565b60006020820190508181036000830152611f0181611bc8565b9050919050565b60006020820190508181036000830152611f2181611beb565b9050919050565b60006020820190508181036000830152611f4181611c0e565b9050919050565b60006020820190508181036000830152611f6181611c31565b9050919050565b60006020820190508181036000830152611f8181611c54565b9050919050565b60006020820190508181036000830152611fa181611c77565b9050919050565b6000602082019050611fbd6000830184611c9a565b92915050565b6000602082019050611fd86000830184611ca9565b92915050565b600082825260208201905092915050565b6000611ffa8261210e565b91506120058361210e565b92508260ff0382111561201b5761201a6121ac565b5b828201905092915050565b600061203182612104565b915061203c83612104565b9250817fffffffffffffffffffffffffffffffffffffffffffffffffffffffffffffffff0483118215151615612075576120746121ac565b5b828202905092915050565b600061208b82612104565b915061209683612104565b9250828210156120a9576120a86121ac565b5b828203905092915050565b60006120bf826120e4565b9050919050565b60006120d1826120e4565b9050919050565b60008115159050919050565b600073ffffffffffffffffffffffffffffffffffffffff82169050919050565b6000819050919050565b600060ff82169050919050565b60006121268261213f565b9050919050565b60006121388261213f565b9050919050565b600061214a82612151565b9050919050565b600061215c826120e4565b9050919050565b600061216e82612104565b91507fffffffffffffffffffffffffffffffffffffffffffffffffffffffffffffffff8214156121a1576121a06121ac565b5b600182019050919050565b7f4e487b7100000000000000000000000000000000000000000000000000000000600052601160045260246000fd5b7f4e487b7100000000000000000000000000000000000000000000000000000000600052603260045260246000fd5b600080fd5b600080fd5b600080fd5b600080fd5b600080fd5b7f596f7520646f6e2774206f776e20616c6c207468657365206d696e742070617360008201527f7365730000000000000000000000000000000000000000000000000000000000602082015250565b7f57616c6c657420697320746865207a65726f2061646472657373000000000000600082015250565b7f596f752068617665207573656420757020616c6c20746865206d696e7420706160008201527f7373657320796f75206861766500000000000000000000000000000000000000602082015250565b7f4d696e74506173734e465420697320746865207a65726f206164647265737300600082015250565b7f4d617853616c65416d6f756e74206d757374206265206772656174657220746860008201527f616e203000000000000000000000000000000000000000000000000000000000602082015250565b7f4d617853616c65416d6f756e74206d757374206265206772656174657220746860008201527f616e205f63757272656e7453616c65416d6f756e740000000000000000000000602082015250565b7f4f776e61626c653a206e6577206f776e657220697320746865207a65726f206160008201527f6464726573730000000000000000000000000000000000000000000000000000602082015250565b7f4f6e65206f6620746865206d696e742070617373657320776173207573656400600082015250565b7f5468652076616c756520796f752073656e7420697320696e76616c6964000000600082015250565b7f4f7574206f662061727261792072616e67650000000000000000000000000000600082015250565b7f4d6f6f6e42656173744e465420697320746865207a65726f2061646472657373600082015250565b7f4f776e61626c653a2063616c6c6572206973206e6f7420746865206f776e6572600082015250565b7f457863656564656420746865206e756d626572206f66204e465473206f66207460008201527f6869732073616c6520726f756e64000000000000000000000000000000000000602082015250565b7f596f75206e656564206174206c65617374206f6e65206d696e7420706173732060008201527f746f206d696e74204e4654000000000000000000000000000000000000000000602082015250565b7f42656e656669636961727920697320746865207a65726f206164647265737300600082015250565b7f4e667450657250617373206d7573742062652067726561746572207468616e2060008201527f3000000000000000000000000000000000000000000000000000000000000000602082015250565b7f5265656e7472616e637947756172643a207265656e7472616e742063616c6c00600082015250565b7f5072696365206d7573742062652067726561746572207468616e203000000000600082015250565b61263e816120b4565b811461264957600080fd5b50565b612655816120c6565b811461266057600080fd5b50565b61266c81612104565b811461267757600080fd5b50565b6126838161210e565b811461268e57600080fd5b5056fea264697066735822122081f2326e1cc08317cc56e4c440bf68566c0621ea280b78f70440dae78645a08b64736f6c63430008070033",
  "linkReferences": {},
  "deployedLinkReferences": {}
}