{
  "_format": "hh-sol-artifact-1",
  "contractName": "UMoonFitNFTSale",
  "sourceName": "contracts/upgradeables/UMoonFitNFTSale.sol",
  "abi": [
    {
      "inputs": [],
      "stateMutability": "nonpayable",
      "type": "constructor"
    },
    {
      "anonymous": false,
      "inputs": [
        {
          "indexed": false,
          "internalType": "address",
          "name": "previousAdmin",
          "type": "address"
        },
        {
          "indexed": false,
          "internalType": "address",
          "name": "newAdmin",
          "type": "address"
        }
      ],
      "name": "AdminChanged",
      "type": "event"
    },
    {
      "anonymous": false,
      "inputs": [
        {
          "indexed": true,
          "internalType": "address",
          "name": "beacon",
          "type": "address"
        }
      ],
      "name": "BeaconUpgraded",
      "type": "event"
    },
    {
      "anonymous": false,
      "inputs": [
        {
          "indexed": false,
          "internalType": "uint8",
          "name": "version",
          "type": "uint8"
        }
      ],
      "name": "Initialized",
      "type": "event"
    },
    {
      "anonymous": false,
      "inputs": [
        {
          "indexed": false,
          "internalType": "address",
          "name": "beneficiary",
          "type": "address"
        },
        {
          "indexed": false,
          "internalType": "uint256",
          "name": "mintPassId",
          "type": "uint256"
        }
      ],
      "name": "NFTPurchased",
      "type": "event"
    },
    {
      "anonymous": false,
      "inputs": [
        {
          "indexed": true,
          "internalType": "address",
          "name": "previousOwner",
          "type": "address"
        },
        {
          "indexed": true,
          "internalType": "address",
          "name": "newOwner",
          "type": "address"
        }
      ],
      "name": "OwnershipTransferred",
      "type": "event"
    },
    {
      "anonymous": false,
      "inputs": [
        {
          "indexed": true,
          "internalType": "address",
          "name": "implementation",
          "type": "address"
        }
      ],
      "name": "Upgraded",
      "type": "event"
    },
    {
      "inputs": [],
      "name": "_maxSaleAmount",
      "outputs": [
        {
          "internalType": "uint256",
          "name": "",
          "type": "uint256"
        }
      ],
      "stateMutability": "view",
      "type": "function"
    },
    {
      "inputs": [],
      "name": "_mintPassNFT",
      "outputs": [
        {
          "internalType": "contract IERC721Enumerable",
          "name": "",
          "type": "address"
        }
      ],
      "stateMutability": "view",
      "type": "function"
    },
    {
      "inputs": [],
      "name": "_moonBeastNFT",
      "outputs": [
        {
          "internalType": "contract MoonBeast",
          "name": "",
          "type": "address"
        }
      ],
      "stateMutability": "view",
      "type": "function"
    },
    {
      "inputs": [],
      "name": "_nftPerPass",
      "outputs": [
        {
          "internalType": "uint16",
          "name": "",
          "type": "uint16"
        }
      ],
      "stateMutability": "view",
      "type": "function"
    },
    {
      "inputs": [],
      "name": "_price",
      "outputs": [
        {
          "internalType": "uint256",
          "name": "",
          "type": "uint256"
        }
      ],
      "stateMutability": "view",
      "type": "function"
    },
    {
      "inputs": [],
      "name": "_wallet",
      "outputs": [
        {
          "internalType": "address payable",
          "name": "",
          "type": "address"
        }
      ],
      "stateMutability": "view",
      "type": "function"
    },
    {
      "inputs": [
        {
          "internalType": "uint256[]",
          "name": "mintPassIds",
          "type": "uint256[]"
        },
        {
          "internalType": "uint16",
          "name": "amount",
          "type": "uint16"
        }
      ],
      "name": "buyNFT",
      "outputs": [],
      "stateMutability": "payable",
      "type": "function"
    },
    {
      "inputs": [
        {
          "internalType": "uint256",
          "name": "passId",
          "type": "uint256"
        }
      ],
      "name": "checkMintPass",
      "outputs": [
        {
          "internalType": "bool",
          "name": "",
          "type": "bool"
        }
      ],
      "stateMutability": "view",
      "type": "function"
    },
    {
      "inputs": [],
      "name": "getAvailableSlots",
      "outputs": [
        {
          "internalType": "uint256",
          "name": "",
          "type": "uint256"
        }
      ],
      "stateMutability": "view",
      "type": "function"
    },
    {
      "inputs": [],
      "name": "getContractBalance",
      "outputs": [
        {
          "internalType": "uint256",
          "name": "",
          "type": "uint256"
        }
      ],
      "stateMutability": "view",
      "type": "function"
    },
    {
      "inputs": [
        {
          "internalType": "address",
          "name": "owner",
          "type": "address"
        }
      ],
      "name": "getMintPass",
      "outputs": [
        {
          "components": [
            {
              "internalType": "uint256",
              "name": "tokenId",
              "type": "uint256"
            },
            {
              "internalType": "uint16",
              "name": "bought",
              "type": "uint16"
            },
            {
              "internalType": "uint16",
              "name": "maxAmount",
              "type": "uint16"
            }
          ],
          "internalType": "struct MintPassNFTSale[]",
          "name": "",
          "type": "tuple[]"
        }
      ],
      "stateMutability": "view",
      "type": "function"
    },
    {
      "inputs": [
        {
          "internalType": "uint256",
          "name": "mintPassId",
          "type": "uint256"
        }
      ],
      "name": "getMintPassAvailableSlots",
      "outputs": [
        {
          "internalType": "uint16",
          "name": "",
          "type": "uint16"
        }
      ],
      "stateMutability": "view",
      "type": "function"
    },
    {
      "inputs": [
        {
          "internalType": "uint256",
          "name": "tokenId",
          "type": "uint256"
        }
      ],
      "name": "getMintPassInfo",
      "outputs": [
        {
          "components": [
            {
              "internalType": "uint256",
              "name": "tokenId",
              "type": "uint256"
            },
            {
              "internalType": "uint16",
              "name": "bought",
              "type": "uint16"
            },
            {
              "internalType": "uint16",
              "name": "maxAmount",
              "type": "uint16"
            }
          ],
          "internalType": "struct MintPassNFTSale",
          "name": "",
          "type": "tuple"
        }
      ],
      "stateMutability": "view",
      "type": "function"
    },
    {
      "inputs": [
        {
          "internalType": "uint256",
          "name": "mintPassId",
          "type": "uint256"
        },
        {
          "internalType": "uint8",
          "name": "index",
          "type": "uint8"
        }
      ],
      "name": "getMintPassUsage",
      "outputs": [
        {
          "internalType": "uint256",
          "name": "",
          "type": "uint256"
        }
      ],
      "stateMutability": "view",
      "type": "function"
    },
    {
      "inputs": [
        {
          "internalType": "address",
          "name": "owner",
          "type": "address"
        }
      ],
      "name": "getMoonBeast",
      "outputs": [
        {
          "components": [
            {
              "internalType": "uint256",
              "name": "tokenId",
              "type": "uint256"
            },
            {
              "internalType": "string",
              "name": "uri",
              "type": "string"
            },
            {
              "internalType": "bool",
              "name": "ownerMinted",
              "type": "bool"
            }
          ],
          "internalType": "struct MoonBeastNFTSale[]",
          "name": "",
          "type": "tuple[]"
        }
      ],
      "stateMutability": "view",
      "type": "function"
    },
    {
      "inputs": [],
      "name": "getReadySale",
      "outputs": [
        {
          "internalType": "bool",
          "name": "",
          "type": "bool"
        }
      ],
      "stateMutability": "view",
      "type": "function"
    },
    {
      "inputs": [
        {
          "internalType": "uint256",
          "name": "maxSaleAmount",
          "type": "uint256"
        },
        {
          "internalType": "uint256",
          "name": "price",
          "type": "uint256"
        },
        {
          "internalType": "uint16",
          "name": "nftPerPass",
          "type": "uint16"
        },
        {
          "internalType": "address",
          "name": "mintPassNFT",
          "type": "address"
        },
        {
          "internalType": "address",
          "name": "moonBeastNFT",
          "type": "address"
        },
        {
          "internalType": "address",
          "name": "wallet",
          "type": "address"
        }
      ],
      "name": "initialize",
      "outputs": [],
      "stateMutability": "nonpayable",
      "type": "function"
    },
    {
      "inputs": [],
      "name": "owner",
      "outputs": [
        {
          "internalType": "address",
          "name": "",
          "type": "address"
        }
      ],
      "stateMutability": "view",
      "type": "function"
    },
    {
      "inputs": [],
      "name": "proxiableUUID",
      "outputs": [
        {
          "internalType": "bytes32",
          "name": "",
          "type": "bytes32"
        }
      ],
      "stateMutability": "view",
      "type": "function"
    },
    {
      "inputs": [],
      "name": "renounceOwnership",
      "outputs": [],
      "stateMutability": "nonpayable",
      "type": "function"
    },
    {
      "inputs": [
        {
          "internalType": "uint256",
          "name": "maxSaleAmount",
          "type": "uint256"
        }
      ],
      "name": "setMaxSaleAmount",
      "outputs": [],
      "stateMutability": "nonpayable",
      "type": "function"
    },
    {
      "inputs": [
        {
          "internalType": "address",
          "name": "mintPass",
          "type": "address"
        }
      ],
      "name": "setMintPassNFT",
      "outputs": [],
      "stateMutability": "nonpayable",
      "type": "function"
    },
    {
      "inputs": [
        {
          "internalType": "address",
          "name": "moonBeast",
          "type": "address"
        }
      ],
      "name": "setMoonBeastNFT",
      "outputs": [],
      "stateMutability": "nonpayable",
      "type": "function"
    },
    {
      "inputs": [
        {
          "internalType": "uint16",
          "name": "value",
          "type": "uint16"
        }
      ],
      "name": "setNftPerPass",
      "outputs": [],
      "stateMutability": "nonpayable",
      "type": "function"
    },
    {
      "inputs": [
        {
          "internalType": "uint256",
          "name": "price",
          "type": "uint256"
        }
      ],
      "name": "setPrice",
      "outputs": [],
      "stateMutability": "nonpayable",
      "type": "function"
    },
    {
      "inputs": [
        {
          "internalType": "bool",
          "name": "value",
          "type": "bool"
        }
      ],
      "name": "setReadySale",
      "outputs": [],
      "stateMutability": "nonpayable",
      "type": "function"
    },
    {
      "inputs": [
        {
          "internalType": "address payable",
          "name": "wallet",
          "type": "address"
        }
      ],
      "name": "setWallet",
      "outputs": [],
      "stateMutability": "nonpayable",
      "type": "function"
    },
    {
      "inputs": [
        {
          "internalType": "address",
          "name": "newOwner",
          "type": "address"
        }
      ],
      "name": "transferOwnership",
      "outputs": [],
      "stateMutability": "nonpayable",
      "type": "function"
    },
    {
      "inputs": [
        {
          "internalType": "address",
          "name": "newImplementation",
          "type": "address"
        }
      ],
      "name": "upgradeTo",
      "outputs": [],
      "stateMutability": "nonpayable",
      "type": "function"
    },
    {
      "inputs": [
        {
          "internalType": "address",
          "name": "newImplementation",
          "type": "address"
        },
        {
          "internalType": "bytes",
          "name": "data",
          "type": "bytes"
        }
      ],
      "name": "upgradeToAndCall",
      "outputs": [],
      "stateMutability": "payable",
      "type": "function"
    },
    {
      "inputs": [],
      "name": "withdrawTokenByOwner",
      "outputs": [],
      "stateMutability": "nonpayable",
      "type": "function"
    }
  ],
  "bytecode": "0x60a06040523073ffffffffffffffffffffffffffffffffffffffff1660809073ffffffffffffffffffffffffffffffffffffffff1660601b8152503480156200004757600080fd5b50620000586200005e60201b60201c565b62000209565b600060019054906101000a900460ff1615620000b1576040517f08c379a0000000000000000000000000000000000000000000000000000000008152600401620000a8906200015d565b60405180910390fd5b60ff801660008054906101000a900460ff1660ff161015620001235760ff6000806101000a81548160ff021916908360ff1602179055507f7f26b83ff96e1f2b6a682f133852f6798a09c465da95921460cefb384740249860ff6040516200011a91906200017f565b60405180910390a15b565b6000620001346027836200019c565b91506200014182620001ba565b604082019050919050565b6200015781620001ad565b82525050565b60006020820190508181036000830152620001788162000125565b9050919050565b60006020820190506200019660008301846200014c565b92915050565b600082825260208201905092915050565b600060ff82169050919050565b7f496e697469616c697a61626c653a20636f6e747261637420697320696e69746960008201527f616c697a696e6700000000000000000000000000000000000000000000000000602082015250565b60805160601c614fbc6200024460003960008181610ea301528181610f3201528181611041015281816110d001526111a50152614fbc6000f3fe6080604052600436106101d85760003560e01c8063715018a611610102578063d5d753a411610095578063deed00f611610064578063deed00f614610656578063e22027de14610681578063f2fde38b146106be578063f89595b5146106e7576101d8565b8063d5d753a41461058a578063d84e575b146105b3578063dd1f3f69146105f0578063deaa59df1461062d576101d8565b80638c971cd0116100d15780638c971cd0146104ce5780638da5cb5b1461050b57806391b7f5ed14610536578063b9d18eae1461055f576101d8565b8063715018a6146104265780637428edea1461043d57806381097e32146104685780638810d276146104a5576101d8565b80633659cfe61161017a57806352d1902d1161014957806352d1902d1461037c5780635d0a8f6d146103a7578063610757e4146103d05780636f9fb98a146103fb576101d8565b80633659cfe6146102e35780633e823eed1461030c5780634f1ef28614610337578063514c1ba614610353576101d8565b8063228443d8116101b6578063228443d81461023b578063235b6ea1146102645780632725368f1461028f5780632bfccd3c146102ba576101d8565b80630b154c47146101dd57806312c0aeb91461020857806322298b9c1461021f575b600080fd5b3480156101e957600080fd5b506101f2610724565b6040516101ff9190613be6565b60405180910390f35b34801561021457600080fd5b5061021d61074a565b005b61023960048036038101906102349190612ff1565b610801565b005b34801561024757600080fd5b50610262600480360381019061025d9190612f0e565b610cfc565b005b34801561027057600080fd5b50610279610db8565b604051610286919061408f565b60405180910390f35b34801561029b57600080fd5b506102a4610dbf565b6040516102b19190613c01565b60405180910390f35b3480156102c657600080fd5b506102e160048036038101906102dc9190612f0e565b610de5565b005b3480156102ef57600080fd5b5061030a60048036038101906103059190612f0e565b610ea1565b005b34801561031857600080fd5b5061032161102a565b60405161032e9190614074565b60405180910390f35b610351600480360381019061034c9190612f95565b61103f565b005b34801561035f57600080fd5b5061037a60048036038101906103759190613051565b61117c565b005b34801561038857600080fd5b506103916111a1565b60405161039e9190613bcb565b60405180910390f35b3480156103b357600080fd5b506103ce60048036038101906103c99190613121565b61125a565b005b3480156103dc57600080fd5b506103e56112fc565b6040516103f29190613b28565b60405180910390f35b34801561040757600080fd5b50610410611323565b60405161041d919061408f565b60405180910390f35b34801561043257600080fd5b5061043b611330565b005b34801561044957600080fd5b50610452611344565b60405161045f919061408f565b60405180910390f35b34801561047457600080fd5b5061048f600480360381019061048a9190612f0e565b61134b565b60405161049c9190613b8e565b60405180910390f35b3480156104b157600080fd5b506104cc60048036038101906104c791906130f4565b61163c565b005b3480156104da57600080fd5b506104f560048036038101906104f09190613208565b6116ac565b604051610502919061408f565b60405180910390f35b34801561051757600080fd5b50610520611745565b60405161052d9190613b0d565b60405180910390f35b34801561054257600080fd5b5061055d60048036038101906105589190613121565b61176f565b005b34801561056b57600080fd5b506105746117c5565b604051610581919061408f565b60405180910390f35b34801561059657600080fd5b506105b160048036038101906105ac919061317b565b6117e5565b005b3480156105bf57600080fd5b506105da60048036038101906105d59190612f0e565b611c5b565b6040516105e79190613b6c565b60405180910390f35b3480156105fc57600080fd5b5061061760048036038101906106129190613121565b611e60565b6040516106249190614059565b60405180910390f35b34801561063957600080fd5b50610654600480360381019061064f9190612f68565b611ec4565b005b34801561066257600080fd5b5061066b611f81565b6040516106789190613bb0565b60405180910390f35b34801561068d57600080fd5b506106a860048036038101906106a39190613121565b611f98565b6040516106b59190614074565b60405180910390f35b3480156106ca57600080fd5b506106e560048036038101906106e09190612f0e565b611fdf565b005b3480156106f357600080fd5b5061070e60048036038101906107099190613121565b612063565b60405161071b9190613bb0565b60405180910390f35b60fb60009054906101000a900473ffffffffffffffffffffffffffffffffffffffff1681565b6107526120aa565b60004711610795576040517f08c379a000000000000000000000000000000000000000000000000000000000815260040161078c90613f19565b60405180910390fd5b61010360029054906101000a900473ffffffffffffffffffffffffffffffffffffffff1673ffffffffffffffffffffffffffffffffffffffff166108fc479081150290604051600060405180830381858888f193505050501580156107fe573d6000803e3d6000fd5b50565b60026001541415610847576040517f08c379a000000000000000000000000000000000000000000000000000000000815260040161083e90614019565b60405180910390fd5b600260018190555060fc60149054906101000a900460ff1661089e576040517f08c379a000000000000000000000000000000000000000000000000000000000815260040161089590613f79565b60405180910390fd5b60008161ffff16116108e5576040517f08c379a00000000000000000000000000000000000000000000000000000000081526004016108dc90613c79565b60405180910390fd5b60006108f2610101612128565b61010054610900919061433e565b90508161ffff1681101561091382612136565b60018311610956576040518060400160405280600481526020017f204e46540000000000000000000000000000000000000000000000000000000081525061098d565b6040518060400160405280600581526020017f204e4654730000000000000000000000000000000000000000000000000000008152505b60405160200161099e929190613ad3565b604051602081830303815290604052906109ee576040517f08c379a00000000000000000000000000000000000000000000000000000000081526004016109e59190613c37565b60405180910390fd5b5060006109f9612297565b90506000610a098287878761229f565b610a188461ffff168334612388565b60005b86869050811015610cec576000878783818110610a3b57610a3a6145c1565b5b90506020020135905060005b61010360009054906101000a900461ffff1661ffff168161ffff161015610c9e5761010054610a77610101612128565b1115610ab8576040517f08c379a0000000000000000000000000000000000000000000000000000000008152600401610aaf90613ef9565b60405180910390fd5b8661ffff168461ffff16108015610b08575061010360009054906101000a900461ffff1661ffff1660fd600084815260200190815260200160002060009054906101000a900461ffff1661ffff16105b15610c8b57600060fc60009054906101000a900473ffffffffffffffffffffffffffffffffffffffff1673ffffffffffffffffffffffffffffffffffffffff166354ba0f27876040518263ffffffff1660e01b8152600401610b6a9190613b0d565b602060405180830381600087803b158015610b8457600080fd5b505af1158015610b98573d6000803e3d6000fd5b505050506040513d601f19601f82011682018060405250810190610bbc919061314e565b9050610bc9610101612490565b600185610bd691906141f1565b9450600160fd600085815260200190815260200160002060008282829054906101000a900461ffff16610c0991906141f1565b92506101000a81548161ffff021916908361ffff16021790555060fe6000848152602001908152602001600020819080600181540180825580915050600190039060005260206000200160009091909190915055600160ff600083815260200190815260200160002060006101000a81548160ff021916908315150217905550505b8080610c96906144be565b915050610a47565b507f7f8aed29394d49180b299699236f142fbd3a78f6d1464929dd17e87b73ebc8d28482604051610cd0929190613b43565b60405180910390a1508080610ce4906144e9565b915050610a1b565b5050505060018081905550505050565b610d046120aa565b600073ffffffffffffffffffffffffffffffffffffffff168173ffffffffffffffffffffffffffffffffffffffff161415610d74576040517f08c379a0000000000000000000000000000000000000000000000000000000008152600401610d6b90613e79565b60405180910390fd5b8060fc60006101000a81548173ffffffffffffffffffffffffffffffffffffffff021916908373ffffffffffffffffffffffffffffffffffffffff16021790555050565b6101025481565b60fc60009054906101000a900473ffffffffffffffffffffffffffffffffffffffff1681565b610ded6120aa565b600073ffffffffffffffffffffffffffffffffffffffff168173ffffffffffffffffffffffffffffffffffffffff161415610e5d576040517f08c379a0000000000000000000000000000000000000000000000000000000008152600401610e5490613cd9565b60405180910390fd5b8060fb60006101000a81548173ffffffffffffffffffffffffffffffffffffffff021916908373ffffffffffffffffffffffffffffffffffffffff16021790555050565b7f000000000000000000000000000000000000000000000000000000000000000073ffffffffffffffffffffffffffffffffffffffff163073ffffffffffffffffffffffffffffffffffffffff161415610f30576040517f08c379a0000000000000000000000000000000000000000000000000000000008152600401610f2790613d59565b60405180910390fd5b7f000000000000000000000000000000000000000000000000000000000000000073ffffffffffffffffffffffffffffffffffffffff16610f6f6124a6565b73ffffffffffffffffffffffffffffffffffffffff1614610fc5576040517f08c379a0000000000000000000000000000000000000000000000000000000008152600401610fbc90613d79565b60405180910390fd5b610fce816124fd565b61102781600067ffffffffffffffff811115610fed57610fec6145f0565b5b6040519080825280601f01601f19166020018201604052801561101f5781602001600182028036833780820191505090505b506000612508565b50565b61010360009054906101000a900461ffff1681565b7f000000000000000000000000000000000000000000000000000000000000000073ffffffffffffffffffffffffffffffffffffffff163073ffffffffffffffffffffffffffffffffffffffff1614156110ce576040517f08c379a00000000000000000000000000000000000000000000000000000000081526004016110c590613d59565b60405180910390fd5b7f000000000000000000000000000000000000000000000000000000000000000073ffffffffffffffffffffffffffffffffffffffff1661110d6124a6565b73ffffffffffffffffffffffffffffffffffffffff1614611163576040517f08c379a000000000000000000000000000000000000000000000000000000000815260040161115a90613d79565b60405180910390fd5b61116c826124fd565b61117882826001612508565b5050565b6111846120aa565b8060fc60146101000a81548160ff02191690831515021790555050565b60007f000000000000000000000000000000000000000000000000000000000000000073ffffffffffffffffffffffffffffffffffffffff163073ffffffffffffffffffffffffffffffffffffffff1614611231576040517f08c379a000000000000000000000000000000000000000000000000000000000815260040161122890613d99565b60405180910390fd5b7f360894a13ba1a3210667c828492db98dca3e2076cc3735a920a3ca505d382bbc60001b905090565b6112626120aa565b600081116112a5576040517f08c379a000000000000000000000000000000000000000000000000000000000815260040161129c90613cf9565b60405180910390fd5b6112b0610101612128565b81116112f1576040517f08c379a00000000000000000000000000000000000000000000000000000000081526004016112e890613d19565b60405180910390fd5b806101008190555050565b61010360029054906101000a900473ffffffffffffffffffffffffffffffffffffffff1681565b6000804790508091505090565b6113386120aa565b6113426000612685565b565b6101005481565b6060600060fc60009054906101000a900473ffffffffffffffffffffffffffffffffffffffff1673ffffffffffffffffffffffffffffffffffffffff166370a08231846040518263ffffffff1660e01b81526004016113aa9190613b0d565b60206040518083038186803b1580156113c257600080fd5b505afa1580156113d6573d6000803e3d6000fd5b505050506040513d601f19601f820116820180604052508101906113fa919061314e565b905060008167ffffffffffffffff811115611418576114176145f0565b5b60405190808252806020026020018201604052801561145157816020015b61143e612ccf565b8152602001906001900390816114365790505b509050600080600090505b838110156116305760fc60009054906101000a900473ffffffffffffffffffffffffffffffffffffffff1673ffffffffffffffffffffffffffffffffffffffff16632f745c5987836040518363ffffffff1660e01b81526004016114c1929190613b43565b60206040518083038186803b1580156114d957600080fd5b505afa1580156114ed573d6000803e3d6000fd5b505050506040513d601f19601f82011682018060405250810190611511919061314e565b9150604051806060016040528083815260200160fc60009054906101000a900473ffffffffffffffffffffffffffffffffffffffff1673ffffffffffffffffffffffffffffffffffffffff1663c87b56dd856040518263ffffffff1660e01b815260040161157f919061408f565b60006040518083038186803b15801561159757600080fd5b505afa1580156115ab573d6000803e3d6000fd5b505050506040513d6000823e3d601f19601f820116820180604052508101906115d491906130ab565b815260200160ff600085815260200190815260200160002060009054906101000a900460ff161515815250838281518110611612576116116145c1565b5b60200260200101819052508080611628906144e9565b91505061145c565b50819350505050919050565b6116446120aa565b60008161ffff161161168b576040517f08c379a000000000000000000000000000000000000000000000000000000000815260040161168290613ff9565b60405180910390fd5b8061010360006101000a81548161ffff021916908361ffff16021790555050565b600060fe6000848152602001908152602001600020805490508260ff16111561170a576040517f08c379a000000000000000000000000000000000000000000000000000000000815260040161170190613e59565b60405180910390fd5b60fe60008481526020019081526020016000208260ff1681548110611732576117316145c1565b5b9060005260206000200154905092915050565b6000606560009054906101000a900473ffffffffffffffffffffffffffffffffffffffff16905090565b6117776120aa565b600081116117ba576040517f08c379a00000000000000000000000000000000000000000000000000000000081526004016117b190614039565b60405180910390fd5b806101028190555050565b60006117d2610101612128565b610100546117e0919061433e565b905090565b60008060019054906101000a900460ff161590508080156118165750600160008054906101000a900460ff1660ff16105b8061184357506118253061274b565b1580156118425750600160008054906101000a900460ff1660ff16145b5b611882576040517f08c379a000000000000000000000000000000000000000000000000000000000815260040161187990613e19565b60405180910390fd5b60016000806101000a81548160ff021916908360ff16021790555080156118bf576001600060016101000a81548160ff0219169083151502179055505b60008711611902576040517f08c379a00000000000000000000000000000000000000000000000000000000081526004016118f990613c79565b60405180910390fd5b60008611611945576040517f08c379a000000000000000000000000000000000000000000000000000000000815260040161193c90613c79565b60405180910390fd5b60008561ffff161161198c576040517f08c379a000000000000000000000000000000000000000000000000000000000815260040161198390613c79565b60405180910390fd5b600073ffffffffffffffffffffffffffffffffffffffff168473ffffffffffffffffffffffffffffffffffffffff1614156119fc576040517f08c379a00000000000000000000000000000000000000000000000000000000081526004016119f390613c99565b60405180910390fd5b600073ffffffffffffffffffffffffffffffffffffffff168373ffffffffffffffffffffffffffffffffffffffff161415611a6c576040517f08c379a0000000000000000000000000000000000000000000000000000000008152600401611a6390613dd9565b60405180910390fd5b600073ffffffffffffffffffffffffffffffffffffffff168273ffffffffffffffffffffffffffffffffffffffff161415611adc576040517f08c379a0000000000000000000000000000000000000000000000000000000008152600401611ad390613fb9565b60405180910390fd5b611ae461276e565b611aec6127c7565b866101008190555085610102819055508461010360006101000a81548161ffff021916908361ffff1602179055508360fb60006101000a81548173ffffffffffffffffffffffffffffffffffffffff021916908373ffffffffffffffffffffffffffffffffffffffff1602179055508260fc60006101000a81548173ffffffffffffffffffffffffffffffffffffffff021916908373ffffffffffffffffffffffffffffffffffffffff1602179055508161010360026101000a81548173ffffffffffffffffffffffffffffffffffffffff021916908373ffffffffffffffffffffffffffffffffffffffff160217905550600060fc60146101000a81548160ff0219169083151502179055508015611c525760008060016101000a81548160ff0219169083151502179055507f7f26b83ff96e1f2b6a682f133852f6798a09c465da95921460cefb38474024986001604051611c499190613c1c565b60405180910390a15b50505050505050565b6060600060fb60009054906101000a900473ffffffffffffffffffffffffffffffffffffffff1673ffffffffffffffffffffffffffffffffffffffff166370a08231846040518263ffffffff1660e01b8152600401611cba9190613b0d565b60206040518083038186803b158015611cd257600080fd5b505afa158015611ce6573d6000803e3d6000fd5b505050506040513d601f19601f82011682018060405250810190611d0a919061314e565b905060008167ffffffffffffffff811115611d2857611d276145f0565b5b604051908082528060200260200182016040528015611d6157816020015b611d4e612cf2565b815260200190600190039081611d465790505b50905060005b82811015611e5557611e2460fb60009054906101000a900473ffffffffffffffffffffffffffffffffffffffff1673ffffffffffffffffffffffffffffffffffffffff16632f745c5987846040518363ffffffff1660e01b8152600401611dcf929190613b43565b60206040518083038186803b158015611de757600080fd5b505afa158015611dfb573d6000803e3d6000fd5b505050506040513d601f19601f82011682018060405250810190611e1f919061314e565b611e60565b828281518110611e3757611e366145c1565b5b60200260200101819052508080611e4d906144e9565b915050611d67565b508092505050919050565b611e68612cf2565b604051806060016040528083815260200160fd600085815260200190815260200160002060009054906101000a900461ffff1661ffff16815260200161010360009054906101000a900461ffff1661ffff168152509050919050565b611ecc6120aa565b600073ffffffffffffffffffffffffffffffffffffffff168173ffffffffffffffffffffffffffffffffffffffff161415611f3c576040517f08c379a0000000000000000000000000000000000000000000000000000000008152600401611f3390613cb9565b60405180910390fd5b8061010360026101000a81548173ffffffffffffffffffffffffffffffffffffffff021916908373ffffffffffffffffffffffffffffffffffffffff16021790555050565b600060fc60149054906101000a900460ff16905090565b600060fd600083815260200190815260200160002060009054906101000a900461ffff1661010360009054906101000a900461ffff16611fd8919061430a565b9050919050565b611fe76120aa565b600073ffffffffffffffffffffffffffffffffffffffff168173ffffffffffffffffffffffffffffffffffffffff161415612057576040517f08c379a000000000000000000000000000000000000000000000000000000000815260040161204e90613d39565b60405180910390fd5b61206081612685565b50565b600061010360009054906101000a900461ffff1661ffff1660fd600084815260200190815260200160002060009054906101000a900461ffff1661ffff1610159050919050565b6120b2612297565b73ffffffffffffffffffffffffffffffffffffffff166120d0611745565b73ffffffffffffffffffffffffffffffffffffffff1614612126576040517f08c379a000000000000000000000000000000000000000000000000000000000815260040161211d90613ed9565b60405180910390fd5b565b600081600001549050919050565b6060600082141561217e576040518060400160405280600181526020017f30000000000000000000000000000000000000000000000000000000000000008152509050612292565b600082905060005b600082146121b0578080612199906144e9565b915050600a826121a9919061427f565b9150612186565b60008167ffffffffffffffff8111156121cc576121cb6145f0565b5b6040519080825280601f01601f1916602001820160405280156121fe5781602001600182028036833780820191505090505b5090505b6000851461228b57600182612217919061433e565b9150600a856122269190614532565b60306122329190614229565b60f81b818381518110612248576122476145c1565b5b60200101907effffffffffffffffffffffffffffffffffffffffffffffffffffffffffffff1916908160001a905350600a85612284919061427f565b9450612202565b8093505050505b919050565b600033905090565b6000805b848490508110156123355760008585838181106122c3576122c26145c1565b5b9050602002013590506122d68188612818565b60fd600082815260200190815260200160002060009054906101000a900461ffff1661010360009054906101000a900461ffff16612314919061430a565b8361231f91906141f1565b925050808061232d906144e9565b9150506122a3565b508161ffff168161ffff161015612381576040517f08c379a000000000000000000000000000000000000000000000000000000000815260040161237890613db9565b60405180910390fd5b5050505050565b600083116123cb576040517f08c379a00000000000000000000000000000000000000000000000000000000081526004016123c290613f59565b60405180910390fd5b600073ffffffffffffffffffffffffffffffffffffffff168273ffffffffffffffffffffffffffffffffffffffff16141561243b576040517f08c379a000000000000000000000000000000000000000000000000000000000815260040161243290613fd9565b60405180910390fd5b80836101025461244b91906142b0565b1461248b576040517f08c379a000000000000000000000000000000000000000000000000000000000815260040161248290613e39565b60405180910390fd5b505050565b6001816000016000828254019250508190555050565b60006124d47f360894a13ba1a3210667c828492db98dca3e2076cc3735a920a3ca505d382bbc60001b6129db565b60000160009054906101000a900473ffffffffffffffffffffffffffffffffffffffff16905090565b6125056120aa565b50565b6125347f4910fdfa16fed3260ed0e7147f7cc6da11a60208b5b9406d12a635614ffd914360001b6129e5565b60000160009054906101000a900460ff161561255857612553836129ef565b612680565b8273ffffffffffffffffffffffffffffffffffffffff166352d1902d6040518163ffffffff1660e01b815260040160206040518083038186803b15801561259e57600080fd5b505afa9250505080156125cf57506040513d601f19601f820116820180604052508101906125cc919061307e565b60015b61260e576040517f08c379a000000000000000000000000000000000000000000000000000000000815260040161260590613e99565b60405180910390fd5b7f360894a13ba1a3210667c828492db98dca3e2076cc3735a920a3ca505d382bbc60001b8114612673576040517f08c379a000000000000000000000000000000000000000000000000000000000815260040161266a90613df9565b60405180910390fd5b5061267f838383612aa8565b5b505050565b6000606560009054906101000a900473ffffffffffffffffffffffffffffffffffffffff16905081606560006101000a81548173ffffffffffffffffffffffffffffffffffffffff021916908373ffffffffffffffffffffffffffffffffffffffff1602179055508173ffffffffffffffffffffffffffffffffffffffff168173ffffffffffffffffffffffffffffffffffffffff167f8be0079c531659141344cd1fd0a4f28419497f9722a3daafe3b4186f6b6457e060405160405180910390a35050565b6000808273ffffffffffffffffffffffffffffffffffffffff163b119050919050565b600060019054906101000a900460ff166127bd576040517f08c379a00000000000000000000000000000000000000000000000000000000081526004016127b490613f99565b60405180910390fd5b6127c5612ad4565b565b600060019054906101000a900460ff16612816576040517f08c379a000000000000000000000000000000000000000000000000000000000815260040161280d90613f99565b60405180910390fd5b565b8073ffffffffffffffffffffffffffffffffffffffff1660fb60009054906101000a900473ffffffffffffffffffffffffffffffffffffffff1673ffffffffffffffffffffffffffffffffffffffff16636352211e846040518263ffffffff1660e01b815260040161288a919061408f565b60206040518083038186803b1580156128a257600080fd5b505afa1580156128b6573d6000803e3d6000fd5b505050506040513d601f19601f820116820180604052508101906128da9190612f3b565b73ffffffffffffffffffffffffffffffffffffffff1614612930576040517f08c379a000000000000000000000000000000000000000000000000000000000815260040161292790613c59565b60405180910390fd5b61010360009054906101000a900461ffff1661ffff1660fd600084815260200190815260200160002060009054906101000a900461ffff1661ffff161061297683612136565b6040516020016129869190613aa6565b604051602081830303815290604052906129d6576040517f08c379a00000000000000000000000000000000000000000000000000000000081526004016129cd9190613c37565b60405180910390fd5b505050565b6000819050919050565b6000819050919050565b6129f88161274b565b612a37576040517f08c379a0000000000000000000000000000000000000000000000000000000008152600401612a2e90613eb9565b60405180910390fd5b80612a647f360894a13ba1a3210667c828492db98dca3e2076cc3735a920a3ca505d382bbc60001b6129db565b60000160006101000a81548173ffffffffffffffffffffffffffffffffffffffff021916908373ffffffffffffffffffffffffffffffffffffffff16021790555050565b612ab183612b35565b600082511180612abe5750805b15612acf57612acd8383612b84565b505b505050565b600060019054906101000a900460ff16612b23576040517f08c379a0000000000000000000000000000000000000000000000000000000008152600401612b1a90613f99565b60405180910390fd5b612b33612b2e612297565b612685565b565b612b3e816129ef565b8073ffffffffffffffffffffffffffffffffffffffff167fbc7cd75a20ee27fd9adebab32041f755214dbc6bffa90cc0225b39da2e5c2d3b60405160405180910390a250565b6060612b8f8361274b565b612bce576040517f08c379a0000000000000000000000000000000000000000000000000000000008152600401612bc590613f39565b60405180910390fd5b6000808473ffffffffffffffffffffffffffffffffffffffff1684604051612bf69190613a8f565b600060405180830381855af49150503d8060008114612c31576040519150601f19603f3d011682016040523d82523d6000602084013e612c36565b606091505b5091509150612c5e8282604051806060016040528060278152602001614f6060279139612c68565b9250505092915050565b60608315612c7857829050612cc8565b600083511115612c8b5782518084602001fd5b816040517f08c379a0000000000000000000000000000000000000000000000000000000008152600401612cbf9190613c37565b60405180910390fd5b9392505050565b604051806060016040528060008152602001606081526020016000151581525090565b604051806060016040528060008152602001600061ffff168152602001600061ffff1681525090565b6000612d2e612d29846140cf565b6140aa565b905082815260208101848484011115612d4a57612d4961462e565b5b612d5584828561444b565b509392505050565b6000612d70612d6b84614100565b6140aa565b905082815260208101848484011115612d8c57612d8b61462e565b5b612d9784828561445a565b509392505050565b600081359050612dae81614ebe565b92915050565b600081519050612dc381614ebe565b92915050565b600081359050612dd881614ed5565b92915050565b60008083601f840112612df457612df3614624565b5b8235905067ffffffffffffffff811115612e1157612e1061461f565b5b602083019150836020820283011115612e2d57612e2c614629565b5b9250929050565b600081359050612e4381614eec565b92915050565b600081519050612e5881614f03565b92915050565b600082601f830112612e7357612e72614624565b5b8135612e83848260208601612d1b565b91505092915050565b600082601f830112612ea157612ea0614624565b5b8151612eb1848260208601612d5d565b91505092915050565b600081359050612ec981614f1a565b92915050565b600081359050612ede81614f31565b92915050565b600081519050612ef381614f31565b92915050565b600081359050612f0881614f48565b92915050565b600060208284031215612f2457612f23614638565b5b6000612f3284828501612d9f565b91505092915050565b600060208284031215612f5157612f50614638565b5b6000612f5f84828501612db4565b91505092915050565b600060208284031215612f7e57612f7d614638565b5b6000612f8c84828501612dc9565b91505092915050565b60008060408385031215612fac57612fab614638565b5b6000612fba85828601612d9f565b925050602083013567ffffffffffffffff811115612fdb57612fda614633565b5b612fe785828601612e5e565b9150509250929050565b60008060006040848603121561300a57613009614638565b5b600084013567ffffffffffffffff81111561302857613027614633565b5b61303486828701612dde565b9350935050602061304786828701612eba565b9150509250925092565b60006020828403121561306757613066614638565b5b600061307584828501612e34565b91505092915050565b60006020828403121561309457613093614638565b5b60006130a284828501612e49565b91505092915050565b6000602082840312156130c1576130c0614638565b5b600082015167ffffffffffffffff8111156130df576130de614633565b5b6130eb84828501612e8c565b91505092915050565b60006020828403121561310a57613109614638565b5b600061311884828501612eba565b91505092915050565b60006020828403121561313757613136614638565b5b600061314584828501612ecf565b91505092915050565b60006020828403121561316457613163614638565b5b600061317284828501612ee4565b91505092915050565b60008060008060008060c0878903121561319857613197614638565b5b60006131a689828a01612ecf565b96505060206131b789828a01612ecf565b95505060406131c889828a01612eba565b94505060606131d989828a01612d9f565b93505060806131ea89828a01612d9f565b92505060a06131fb89828a01612d9f565b9150509295509295509295565b6000806040838503121561321f5761321e614638565b5b600061322d85828601612ecf565b925050602061323e85828601612ef9565b9150509250929050565b6000613254838361397f565b60608301905092915050565b600061326c8383613a03565b905092915050565b61327d81614384565b82525050565b61328c81614372565b82525050565b600061329d82614151565b6132a78185614197565b93506132b283614131565b8060005b838110156132e35781516132ca8882613248565b97506132d58361417d565b9250506001810190506132b6565b5085935050505092915050565b60006132fb8261415c565b61330581856141a8565b93508360208202850161331785614141565b8060005b8581101561335357848403895281516133348582613260565b945061333f8361418a565b925060208a0199505060018101905061331b565b50829750879550505050505092915050565b61336e81614396565b82525050565b61337d81614396565b82525050565b61338c816143a2565b82525050565b600061339d82614167565b6133a781856141b9565b93506133b781856020860161445a565b80840191505092915050565b6133cc816143f1565b82525050565b6133db81614403565b82525050565b6133ea81614415565b82525050565b60006133fb82614172565b61340581856141c4565b935061341581856020860161445a565b61341e8161463d565b840191505092915050565b600061343482614172565b61343e81856141d5565b935061344e81856020860161445a565b6134578161463d565b840191505092915050565b600061346d82614172565b61347781856141e6565b935061348781856020860161445a565b80840191505092915050565b60006134a06023836141d5565b91506134ab8261464e565b604082019050919050565b60006134c36024836141d5565b91506134ce8261469d565b604082019050919050565b60006134e6601f836141d5565b91506134f1826146ec565b602082019050919050565b6000613509601a836141d5565b915061351482614715565b602082019050919050565b600061352c601f836141d5565b91506135378261473e565b602082019050919050565b600061354f6024836141d5565b915061355a82614767565b604082019050919050565b60006135726035836141d5565b915061357d826147b6565b604082019050919050565b60006135956026836141d5565b91506135a082614805565b604082019050919050565b60006135b8602c836141d5565b91506135c382614854565b604082019050919050565b60006135db602c836141d5565b91506135e6826148a3565b604082019050919050565b60006135fe6038836141d5565b9150613609826148f2565b604082019050919050565b60006136216016836141d5565b915061362c82614941565b602082019050919050565b60006136446020836141d5565b915061364f8261496a565b602082019050919050565b60006136676029836141d5565b915061367282614993565b604082019050919050565b600061368a602e836141d5565b9150613695826149e2565b604082019050919050565b60006136ad601d836141d5565b91506136b882614a31565b602082019050919050565b60006136d06012836141d5565b91506136db82614a5a565b602082019050919050565b60006136f36020836141d5565b91506136fe82614a83565b602082019050919050565b6000613716600d836141e6565b915061372182614aac565b600d82019050919050565b6000613739602e836141d5565b915061374482614ad5565b604082019050919050565b600061375c602d836141d5565b915061376782614b24565b604082019050919050565b600061377f6020836141d5565b915061378a82614b73565b602082019050919050565b60006137a2602f836141d5565b91506137ad82614b9c565b604082019050919050565b60006137c5601a836141d5565b91506137d082614beb565b602082019050919050565b60006137e86026836141d5565b91506137f382614c14565b604082019050919050565b600061380b602b836141d5565b915061381682614c63565b604082019050919050565b600061382e6019836141d5565b915061383982614cb2565b602082019050919050565b60006138516031836141e6565b915061385c82614cdb565b603182019050919050565b6000613874602b836141d5565b915061387f82614d2a565b604082019050919050565b60006138976016836141e6565b91506138a282614d79565b601682019050919050565b60006138ba601a836141d5565b91506138c582614da2565b602082019050919050565b60006138dd601f836141d5565b91506138e882614dcb565b602082019050919050565b60006139006021836141d5565b915061390b82614df4565b604082019050919050565b6000613923601f836141d5565b915061392e82614e43565b602082019050919050565b60006139466005836141e6565b915061395182614e6c565b600582019050919050565b6000613969601c836141d5565b915061397482614e95565b602082019050919050565b6060820160008201516139956000850182613a71565b5060208201516139a86020850182613a53565b5060408201516139bb6040850182613a53565b50505050565b6060820160008201516139d76000850182613a71565b5060208201516139ea6020850182613a53565b5060408201516139fd6040850182613a53565b50505050565b6000606083016000830151613a1b6000860182613a71565b5060208301518482036020860152613a3382826133f0565b9150506040830151613a486040860182613365565b508091505092915050565b613a5c816143ac565b82525050565b613a6b816143ac565b82525050565b613a7a816143da565b82525050565b613a89816143da565b82525050565b6000613a9b8284613392565b915081905092915050565b6000613ab182613709565b9150613abd8284613462565b9150613ac88261388a565b915081905092915050565b6000613ade82613844565b9150613aea8285613462565b9150613af68284613462565b9150613b0182613939565b91508190509392505050565b6000602082019050613b226000830184613283565b92915050565b6000602082019050613b3d6000830184613274565b92915050565b6000604082019050613b586000830185613283565b613b656020830184613a80565b9392505050565b60006020820190508181036000830152613b868184613292565b905092915050565b60006020820190508181036000830152613ba881846132f0565b905092915050565b6000602082019050613bc56000830184613374565b92915050565b6000602082019050613be06000830184613383565b92915050565b6000602082019050613bfb60008301846133c3565b92915050565b6000602082019050613c1660008301846133d2565b92915050565b6000602082019050613c3160008301846133e1565b92915050565b60006020820190508181036000830152613c518184613429565b905092915050565b60006020820190508181036000830152613c7281613493565b9050919050565b60006020820190508181036000830152613c92816134b6565b9050919050565b60006020820190508181036000830152613cb2816134d9565b9050919050565b60006020820190508181036000830152613cd2816134fc565b9050919050565b60006020820190508181036000830152613cf28161351f565b9050919050565b60006020820190508181036000830152613d1281613542565b9050919050565b60006020820190508181036000830152613d3281613565565b9050919050565b60006020820190508181036000830152613d5281613588565b9050919050565b60006020820190508181036000830152613d72816135ab565b9050919050565b60006020820190508181036000830152613d92816135ce565b9050919050565b60006020820190508181036000830152613db2816135f1565b9050919050565b60006020820190508181036000830152613dd281613614565b9050919050565b60006020820190508181036000830152613df281613637565b9050919050565b60006020820190508181036000830152613e128161365a565b9050919050565b60006020820190508181036000830152613e328161367d565b9050919050565b60006020820190508181036000830152613e52816136a0565b9050919050565b60006020820190508181036000830152613e72816136c3565b9050919050565b60006020820190508181036000830152613e92816136e6565b9050919050565b60006020820190508181036000830152613eb28161372c565b9050919050565b60006020820190508181036000830152613ed28161374f565b9050919050565b60006020820190508181036000830152613ef281613772565b9050919050565b60006020820190508181036000830152613f1281613795565b9050919050565b60006020820190508181036000830152613f32816137b8565b9050919050565b60006020820190508181036000830152613f52816137db565b9050919050565b60006020820190508181036000830152613f72816137fe565b9050919050565b60006020820190508181036000830152613f9281613821565b9050919050565b60006020820190508181036000830152613fb281613867565b9050919050565b60006020820190508181036000830152613fd2816138ad565b9050919050565b60006020820190508181036000830152613ff2816138d0565b9050919050565b60006020820190508181036000830152614012816138f3565b9050919050565b6000602082019050818103600083015261403281613916565b9050919050565b600060208201905081810360008301526140528161395c565b9050919050565b600060608201905061406e60008301846139c1565b92915050565b60006020820190506140896000830184613a62565b92915050565b60006020820190506140a46000830184613a80565b92915050565b60006140b46140c5565b90506140c0828261448d565b919050565b6000604051905090565b600067ffffffffffffffff8211156140ea576140e96145f0565b5b6140f38261463d565b9050602081019050919050565b600067ffffffffffffffff82111561411b5761411a6145f0565b5b6141248261463d565b9050602081019050919050565b6000819050602082019050919050565b6000819050602082019050919050565b600081519050919050565b600081519050919050565b600081519050919050565b600081519050919050565b6000602082019050919050565b6000602082019050919050565b600082825260208201905092915050565b600082825260208201905092915050565b600081905092915050565b600082825260208201905092915050565b600082825260208201905092915050565b600081905092915050565b60006141fc826143ac565b9150614207836143ac565b92508261ffff0382111561421e5761421d614563565b5b828201905092915050565b6000614234826143da565b915061423f836143da565b9250827fffffffffffffffffffffffffffffffffffffffffffffffffffffffffffffffff0382111561427457614273614563565b5b828201905092915050565b600061428a826143da565b9150614295836143da565b9250826142a5576142a4614592565b5b828204905092915050565b60006142bb826143da565b91506142c6836143da565b9250817fffffffffffffffffffffffffffffffffffffffffffffffffffffffffffffffff04831182151516156142ff576142fe614563565b5b828202905092915050565b6000614315826143ac565b9150614320836143ac565b92508282101561433357614332614563565b5b828203905092915050565b6000614349826143da565b9150614354836143da565b92508282101561436757614366614563565b5b828203905092915050565b600061437d826143ba565b9050919050565b600061438f826143ba565b9050919050565b60008115159050919050565b6000819050919050565b600061ffff82169050919050565b600073ffffffffffffffffffffffffffffffffffffffff82169050919050565b6000819050919050565b600060ff82169050919050565b60006143fc82614427565b9050919050565b600061440e82614427565b9050919050565b6000614420826143e4565b9050919050565b600061443282614439565b9050919050565b6000614444826143ba565b9050919050565b82818337600083830152505050565b60005b8381101561447857808201518184015260208101905061445d565b83811115614487576000848401525b50505050565b6144968261463d565b810181811067ffffffffffffffff821117156144b5576144b46145f0565b5b80604052505050565b60006144c9826143ac565b915061ffff8214156144de576144dd614563565b5b600182019050919050565b60006144f4826143da565b91507fffffffffffffffffffffffffffffffffffffffffffffffffffffffffffffffff82141561452757614526614563565b5b600182019050919050565b600061453d826143da565b9150614548836143da565b92508261455857614557614592565b5b828206905092915050565b7f4e487b7100000000000000000000000000000000000000000000000000000000600052601160045260246000fd5b7f4e487b7100000000000000000000000000000000000000000000000000000000600052601260045260246000fd5b7f4e487b7100000000000000000000000000000000000000000000000000000000600052603260045260246000fd5b7f4e487b7100000000000000000000000000000000000000000000000000000000600052604160045260246000fd5b600080fd5b600080fd5b600080fd5b600080fd5b600080fd5b600080fd5b6000601f19601f8301169050919050565b7f596f7520646f6e2774206f776e20616c6c207468657365206d696e742070617360008201527f7365730000000000000000000000000000000000000000000000000000000000602082015250565b7f6d617853616c65416d6f756e74206d757374206265206772656174657220746860008201527f616e203000000000000000000000000000000000000000000000000000000000602082015250565b7f6d696e74506173734e465420697320746865207a65726f206164647265737300600082015250565b7f57616c6c657420697320746865207a65726f2061646472657373000000000000600082015250565b7f4d696e74506173734e465420697320746865207a65726f206164647265737300600082015250565b7f4d617853616c65416d6f756e74206d757374206265206772656174657220746860008201527f616e203000000000000000000000000000000000000000000000000000000000602082015250565b7f4d617853616c65416d6f756e74206d757374206265206772656174657220746860008201527f616e205f63757272656e7453616c65416d6f756e740000000000000000000000602082015250565b7f4f776e61626c653a206e6577206f776e657220697320746865207a65726f206160008201527f6464726573730000000000000000000000000000000000000000000000000000602082015250565b7f46756e6374696f6e206d7573742062652063616c6c6564207468726f7567682060008201527f64656c656761746563616c6c0000000000000000000000000000000000000000602082015250565b7f46756e6374696f6e206d7573742062652063616c6c6564207468726f7567682060008201527f6163746976652070726f78790000000000000000000000000000000000000000602082015250565b7f555550535570677261646561626c653a206d757374206e6f742062652063616c60008201527f6c6564207468726f7567682064656c656761746563616c6c0000000000000000602082015250565b7f496e73756666696369656e74204d696e74205061737300000000000000000000600082015250565b7f6d6f6f6e42656173744e465420697320746865207a65726f2061646472657373600082015250565b7f45524331393637557067726164653a20756e737570706f727465642070726f7860008201527f6961626c65555549440000000000000000000000000000000000000000000000602082015250565b7f496e697469616c697a61626c653a20636f6e747261637420697320616c72656160008201527f647920696e697469616c697a6564000000000000000000000000000000000000602082015250565b7f5468652076616c756520796f752073656e7420697320696e76616c6964000000600082015250565b7f4f7574206f662061727261792072616e67650000000000000000000000000000600082015250565b7f4d6f6f6e42656173744e465420697320746865207a65726f2061646472657373600082015250565b7f4d696e74506173734e4654202300000000000000000000000000000000000000600082015250565b7f45524331393637557067726164653a206e657720696d706c656d656e7461746960008201527f6f6e206973206e6f742055555053000000000000000000000000000000000000602082015250565b7f455243313936373a206e657720696d706c656d656e746174696f6e206973206e60008201527f6f74206120636f6e747261637400000000000000000000000000000000000000602082015250565b7f4f776e61626c653a2063616c6c6572206973206e6f7420746865206f776e6572600082015250565b7f457863656564656420746865206e756d626572206f66204e46547320666f722060008201527f746869732073616c6520726f756e640000000000000000000000000000000000602082015250565b7f436f6e74726163742062616c616e6365206973203020474c4d52000000000000600082015250565b7f416464726573733a2064656c65676174652063616c6c20746f206e6f6e2d636f60008201527f6e74726163740000000000000000000000000000000000000000000000000000602082015250565b7f596f75206e656564206174206c65617374206f6e65206d696e7420706173732060008201527f746f206d696e74204e4654000000000000000000000000000000000000000000602082015250565b7f57686974656c69737420726f756e64206e6f7420726561647900000000000000600082015250565b7f457863656564656420746865206e756d626572206f66204e46547320666f722060008201527f746869732073616c6520726f756e642e20000000000000000000000000000000602082015250565b7f496e697469616c697a61626c653a20636f6e7472616374206973206e6f74206960008201527f6e697469616c697a696e67000000000000000000000000000000000000000000602082015250565b7f207573656420322f32207475726e206f66204d696e7400000000000000000000600082015250565b7f77616c6c657420697320746865207a65726f2061646472657373000000000000600082015250565b7f42656e656669636961727920697320746865207a65726f206164647265737300600082015250565b7f4e667450657250617373206d7573742062652067726561746572207468616e2060008201527f3000000000000000000000000000000000000000000000000000000000000000602082015250565b7f5265656e7472616e637947756172643a207265656e7472616e742063616c6c00600082015250565b7f206c656674000000000000000000000000000000000000000000000000000000600082015250565b7f5072696365206d7573742062652067726561746572207468616e203000000000600082015250565b614ec781614372565b8114614ed257600080fd5b50565b614ede81614384565b8114614ee957600080fd5b50565b614ef581614396565b8114614f0057600080fd5b50565b614f0c816143a2565b8114614f1757600080fd5b50565b614f23816143ac565b8114614f2e57600080fd5b50565b614f3a816143da565b8114614f4557600080fd5b50565b614f51816143e4565b8114614f5c57600080fd5b5056fe416464726573733a206c6f772d6c6576656c2064656c65676174652063616c6c206661696c6564a2646970667358221220119fe6d2771a5d306ae898fa36ced76864bb73e35f6f4ca24a9b66bc8e0b4b6064736f6c63430008070033",
  "linkReferences": {},
  "deployedLinkReferences": {}
}