{
  "_format": "hh-sol-artifact-1",
  "contractName": "MFNFTSale",
  "sourceName": "contracts/MFNFTSale.sol",
  "abi": [
    {
      "inputs": [],
      "stateMutability": "nonpayable",
      "type": "constructor"
    },
    {
      "anonymous": false,
      "inputs": [
        {
          "indexed": false,
          "internalType": "address",
          "name": "beneficiary",
          "type": "address"
        },
        {
          "indexed": false,
          "internalType": "uint256",
          "name": "mintPassId",
          "type": "uint256"
        }
      ],
      "name": "NFTPurchased",
      "type": "event"
    },
    {
      "anonymous": false,
      "inputs": [
        {
          "indexed": true,
          "internalType": "address",
          "name": "previousOwner",
          "type": "address"
        },
        {
          "indexed": true,
          "internalType": "address",
          "name": "newOwner",
          "type": "address"
        }
      ],
      "name": "OwnershipTransferred",
      "type": "event"
    },
    {
      "inputs": [
        {
          "internalType": "address",
          "name": "",
          "type": "address"
        }
      ],
      "name": "_buyers",
      "outputs": [
        {
          "internalType": "uint8",
          "name": "",
          "type": "uint8"
        }
      ],
      "stateMutability": "view",
      "type": "function"
    },
    {
      "inputs": [],
      "name": "_maxSaleAmount",
      "outputs": [
        {
          "internalType": "uint256",
          "name": "",
          "type": "uint256"
        }
      ],
      "stateMutability": "view",
      "type": "function"
    },
    {
      "inputs": [],
      "name": "_mintPassNFT",
      "outputs": [
        {
          "internalType": "contract IERC721",
          "name": "",
          "type": "address"
        }
      ],
      "stateMutability": "view",
      "type": "function"
    },
    {
      "inputs": [],
      "name": "_moonBeastNFT",
      "outputs": [
        {
          "internalType": "contract MoonBeast",
          "name": "",
          "type": "address"
        }
      ],
      "stateMutability": "view",
      "type": "function"
    },
    {
      "inputs": [],
      "name": "_nftPerPass",
      "outputs": [
        {
          "internalType": "uint256",
          "name": "",
          "type": "uint256"
        }
      ],
      "stateMutability": "view",
      "type": "function"
    },
    {
      "inputs": [],
      "name": "_price",
      "outputs": [
        {
          "internalType": "uint256",
          "name": "",
          "type": "uint256"
        }
      ],
      "stateMutability": "view",
      "type": "function"
    },
    {
      "inputs": [
        {
          "internalType": "uint256",
          "name": "",
          "type": "uint256"
        },
        {
          "internalType": "uint256",
          "name": "",
          "type": "uint256"
        }
      ],
      "name": "_usedMintPass",
      "outputs": [
        {
          "internalType": "uint256",
          "name": "",
          "type": "uint256"
        }
      ],
      "stateMutability": "view",
      "type": "function"
    },
    {
      "inputs": [],
      "name": "_wallet",
      "outputs": [
        {
          "internalType": "address payable",
          "name": "",
          "type": "address"
        }
      ],
      "stateMutability": "view",
      "type": "function"
    },
    {
      "inputs": [
        {
          "internalType": "uint256[]",
          "name": "mintPassIds",
          "type": "uint256[]"
        }
      ],
      "name": "buyNFT",
      "outputs": [],
      "stateMutability": "payable",
      "type": "function"
    },
    {
      "inputs": [
        {
          "internalType": "uint256",
          "name": "mintPassId",
          "type": "uint256"
        },
        {
          "internalType": "uint8",
          "name": "index",
          "type": "uint8"
        }
      ],
      "name": "checkMintPass",
      "outputs": [
        {
          "internalType": "uint256",
          "name": "",
          "type": "uint256"
        }
      ],
      "stateMutability": "view",
      "type": "function"
    },
    {
      "inputs": [],
      "name": "getAvailableSlots",
      "outputs": [
        {
          "internalType": "uint256",
          "name": "",
          "type": "uint256"
        }
      ],
      "stateMutability": "view",
      "type": "function"
    },
    {
      "inputs": [
        {
          "internalType": "address",
          "name": "buyer",
          "type": "address"
        }
      ],
      "name": "getBuyerBalance",
      "outputs": [
        {
          "internalType": "uint256",
          "name": "",
          "type": "uint256"
        }
      ],
      "stateMutability": "view",
      "type": "function"
    },
    {
      "inputs": [],
      "name": "getContractBalance",
      "outputs": [
        {
          "internalType": "uint256",
          "name": "",
          "type": "uint256"
        }
      ],
      "stateMutability": "view",
      "type": "function"
    },
    {
      "inputs": [],
      "name": "owner",
      "outputs": [
        {
          "internalType": "address",
          "name": "",
          "type": "address"
        }
      ],
      "stateMutability": "view",
      "type": "function"
    },
    {
      "inputs": [],
      "name": "renounceOwnership",
      "outputs": [],
      "stateMutability": "nonpayable",
      "type": "function"
    },
    {
      "inputs": [
        {
          "internalType": "uint256",
          "name": "maxSaleAmount",
          "type": "uint256"
        }
      ],
      "name": "setMaxSaleAmount",
      "outputs": [],
      "stateMutability": "nonpayable",
      "type": "function"
    },
    {
      "inputs": [
        {
          "internalType": "address",
          "name": "mintPass",
          "type": "address"
        }
      ],
      "name": "setMintPassNFT",
      "outputs": [],
      "stateMutability": "nonpayable",
      "type": "function"
    },
    {
      "inputs": [
        {
          "internalType": "address",
          "name": "moonBeast",
          "type": "address"
        }
      ],
      "name": "setMoonBeastNFT",
      "outputs": [],
      "stateMutability": "nonpayable",
      "type": "function"
    },
    {
      "inputs": [
        {
          "internalType": "uint256",
          "name": "value",
          "type": "uint256"
        }
      ],
      "name": "setNftPerPass",
      "outputs": [],
      "stateMutability": "nonpayable",
      "type": "function"
    },
    {
      "inputs": [
        {
          "internalType": "uint256",
          "name": "price",
          "type": "uint256"
        }
      ],
      "name": "setPrice",
      "outputs": [],
      "stateMutability": "nonpayable",
      "type": "function"
    },
    {
      "inputs": [
        {
          "internalType": "address payable",
          "name": "wallet",
          "type": "address"
        }
      ],
      "name": "setWallet",
      "outputs": [],
      "stateMutability": "nonpayable",
      "type": "function"
    },
    {
      "inputs": [
        {
          "internalType": "address",
          "name": "newOwner",
          "type": "address"
        }
      ],
      "name": "transferOwnership",
      "outputs": [],
      "stateMutability": "nonpayable",
      "type": "function"
    },
    {
      "inputs": [],
      "name": "withdrawTokenByOwner",
      "outputs": [],
      "stateMutability": "nonpayable",
      "type": "function"
    }
  ],
  "bytecode": "0x60806040523480156200001157600080fd5b5060016000819055506200003a6200002e6200015f60201b60201c565b6200016760201b60201c565b6101f46006819055506706f05b59d3b200006008819055506001600981905550737e7d9fee5c5994aa7fc1daeb231af015e2fdad3e600260006101000a81548173ffffffffffffffffffffffffffffffffffffffff021916908373ffffffffffffffffffffffffffffffffffffffff1602179055507321d95dac89c5665f31777e3f9af2a997dac4ecf7600360006101000a81548173ffffffffffffffffffffffffffffffffffffffff021916908373ffffffffffffffffffffffffffffffffffffffff160217905550739585fd0486c444cc2066710029d5ad61d478e663600a60006101000a81548173ffffffffffffffffffffffffffffffffffffffff021916908373ffffffffffffffffffffffffffffffffffffffff1602179055506200022d565b600033905090565b6000600160009054906101000a900473ffffffffffffffffffffffffffffffffffffffff16905081600160006101000a81548173ffffffffffffffffffffffffffffffffffffffff021916908373ffffffffffffffffffffffffffffffffffffffff1602179055508173ffffffffffffffffffffffffffffffffffffffff168173ffffffffffffffffffffffffffffffffffffffff167f8be0079c531659141344cd1fd0a4f28419497f9722a3daafe3b4186f6b6457e060405160405180910390a35050565b6125c8806200023d6000396000f3fe6080604052600436106101405760003560e01c8063715018a6116100b6578063b9d18eae1161006f578063b9d18eae14610426578063c8435f6314610451578063deaa59df1461048e578063e2bc6250146104b7578063e570cd68146104d3578063f2fde38b146104fc57610140565b8063715018a6146103165780637428edea1461032d57806382b7de28146103585780638da5cb5b1461039557806391b7f5ed146103c0578063974d3d4c146103e957610140565b80632bfccd3c116101085780632bfccd3c146102065780633e823eed1461022f5780634949c90f1461025a5780635d0a8f6d14610297578063610757e4146102c05780636f9fb98a146102eb57610140565b80630b154c471461014557806312c0aeb914610170578063228443d814610187578063235b6ea1146101b05780632725368f146101db575b600080fd5b34801561015157600080fd5b5061015a610525565b6040516101679190611cae565b60405180910390f35b34801561017c57600080fd5b5061018561054b565b005b34801561019357600080fd5b506101ae60048036038101906101a991906117f4565b610632565b005b3480156101bc57600080fd5b506101c5610762565b6040516101d29190611f04565b60405180910390f35b3480156101e757600080fd5b506101f0610768565b6040516101fd9190611cc9565b60405180910390f35b34801561021257600080fd5b5061022d600480360381019061022891906117f4565b61078e565b005b34801561023b57600080fd5b506102446108be565b6040516102519190611f04565b60405180910390f35b34801561026657600080fd5b50610281600480360381019061027c91906117f4565b6108c4565b60405161028e9190611f04565b60405180910390f35b3480156102a357600080fd5b506102be60048036038101906102b991906118c8565b61091d565b005b3480156102cc57600080fd5b506102d5610a31565b6040516102e29190611c6a565b60405180910390f35b3480156102f757600080fd5b50610300610a57565b60405161030d9190611f04565b60405180910390f35b34801561032257600080fd5b5061032b610a64565b005b34801561033957600080fd5b50610342610aec565b60405161034f9190611f04565b60405180910390f35b34801561036457600080fd5b5061037f600480360381019061037a91906117f4565b610af2565b60405161038c9190611f1f565b60405180910390f35b3480156103a157600080fd5b506103aa610b12565b6040516103b79190611c4f565b60405180910390f35b3480156103cc57600080fd5b506103e760048036038101906103e291906118c8565b610b3c565b005b3480156103f557600080fd5b50610410600480360381019061040b9190611962565b610c05565b60405161041d9190611f04565b60405180910390f35b34801561043257600080fd5b5061043b610c9d565b6040516104489190611f04565b60405180910390f35b34801561045d57600080fd5b5061047860048036038101906104739190611922565b610cbb565b6040516104859190611f04565b60405180910390f35b34801561049a57600080fd5b506104b560048036038101906104b0919061184e565b610cec565b005b6104d160048036038101906104cc919061187b565b610e1c565b005b3480156104df57600080fd5b506104fa60048036038101906104f591906118c8565b6110f3565b005b34801561050857600080fd5b50610523600480360381019061051e91906117f4565b6111bc565b005b600260009054906101000a900473ffffffffffffffffffffffffffffffffffffffff1681565b6105536112b4565b73ffffffffffffffffffffffffffffffffffffffff16610571610b12565b73ffffffffffffffffffffffffffffffffffffffff16146105c7576040517f08c379a00000000000000000000000000000000000000000000000000000000081526004016105be90611e44565b60405180910390fd5b600a60009054906101000a900473ffffffffffffffffffffffffffffffffffffffff1673ffffffffffffffffffffffffffffffffffffffff166108fc479081150290604051600060405180830381858888f1935050505015801561062f573d6000803e3d6000fd5b50565b61063a6112b4565b73ffffffffffffffffffffffffffffffffffffffff16610658610b12565b73ffffffffffffffffffffffffffffffffffffffff16146106ae576040517f08c379a00000000000000000000000000000000000000000000000000000000081526004016106a590611e44565b60405180910390fd5b600073ffffffffffffffffffffffffffffffffffffffff168173ffffffffffffffffffffffffffffffffffffffff16141561071e576040517f08c379a000000000000000000000000000000000000000000000000000000000815260040161071590611e24565b60405180910390fd5b80600360006101000a81548173ffffffffffffffffffffffffffffffffffffffff021916908373ffffffffffffffffffffffffffffffffffffffff16021790555050565b60085481565b600360009054906101000a900473ffffffffffffffffffffffffffffffffffffffff1681565b6107966112b4565b73ffffffffffffffffffffffffffffffffffffffff166107b4610b12565b73ffffffffffffffffffffffffffffffffffffffff161461080a576040517f08c379a000000000000000000000000000000000000000000000000000000000815260040161080190611e44565b60405180910390fd5b600073ffffffffffffffffffffffffffffffffffffffff168173ffffffffffffffffffffffffffffffffffffffff16141561087a576040517f08c379a000000000000000000000000000000000000000000000000000000000815260040161087190611d44565b60405180910390fd5b80600260006101000a81548173ffffffffffffffffffffffffffffffffffffffff021916908373ffffffffffffffffffffffffffffffffffffffff16021790555050565b60095481565b6000600460008373ffffffffffffffffffffffffffffffffffffffff1673ffffffffffffffffffffffffffffffffffffffff16815260200190815260200160002060009054906101000a900460ff1660ff169050919050565b6109256112b4565b73ffffffffffffffffffffffffffffffffffffffff16610943610b12565b73ffffffffffffffffffffffffffffffffffffffff1614610999576040517f08c379a000000000000000000000000000000000000000000000000000000000815260040161099090611e44565b60405180910390fd5b600081116109dc576040517f08c379a00000000000000000000000000000000000000000000000000000000081526004016109d390611d64565b60405180910390fd5b6109e660076112bc565b8111610a27576040517f08c379a0000000000000000000000000000000000000000000000000000000008152600401610a1e90611d84565b60405180910390fd5b8060068190555050565b600a60009054906101000a900473ffffffffffffffffffffffffffffffffffffffff1681565b6000804790508091505090565b610a6c6112b4565b73ffffffffffffffffffffffffffffffffffffffff16610a8a610b12565b73ffffffffffffffffffffffffffffffffffffffff1614610ae0576040517f08c379a0000000000000000000000000000000000000000000000000000000008152600401610ad790611e44565b60405180910390fd5b610aea60006112ca565b565b60065481565b60046020528060005260406000206000915054906101000a900460ff1681565b6000600160009054906101000a900473ffffffffffffffffffffffffffffffffffffffff16905090565b610b446112b4565b73ffffffffffffffffffffffffffffffffffffffff16610b62610b12565b73ffffffffffffffffffffffffffffffffffffffff1614610bb8576040517f08c379a0000000000000000000000000000000000000000000000000000000008152600401610baf90611e44565b60405180910390fd5b60008111610bfb576040517f08c379a0000000000000000000000000000000000000000000000000000000008152600401610bf290611ee4565b60405180910390fd5b8060088190555050565b600060056000848152602001908152602001600020805490508260ff1610610c62576040517f08c379a0000000000000000000000000000000000000000000000000000000008152600401610c5990611e04565b60405180910390fd5b600560008481526020019081526020016000208260ff1681548110610c8a57610c8961212b565b5b9060005260206000200154905092915050565b6000610ca960076112bc565b600654610cb69190611fdc565b905090565b60056020528160005260406000208181548110610cd757600080fd5b90600052602060002001600091509150505481565b610cf46112b4565b73ffffffffffffffffffffffffffffffffffffffff16610d12610b12565b73ffffffffffffffffffffffffffffffffffffffff1614610d68576040517f08c379a0000000000000000000000000000000000000000000000000000000008152600401610d5f90611e44565b60405180910390fd5b600073ffffffffffffffffffffffffffffffffffffffff168173ffffffffffffffffffffffffffffffffffffffff161415610dd8576040517f08c379a0000000000000000000000000000000000000000000000000000000008152600401610dcf90611d04565b60405180910390fd5b80600a60006101000a81548173ffffffffffffffffffffffffffffffffffffffff021916908373ffffffffffffffffffffffffffffffffffffffff16021790555050565b60026000541415610e62576040517f08c379a0000000000000000000000000000000000000000000000000000000008152600401610e5990611ec4565b60405180910390fd5b60026000819055506000610e746112b4565b90506000349050610e89848490508383611390565b60005b848490508110156110e4576000858583818110610eac57610eab61212b565b5b905060200201359050610ebf8185611595565b60005b60095481101561109657600654610ed960076112bc565b10610f19576040517f08c379a0000000000000000000000000000000000000000000000000000000008152600401610f1090611e64565b60405180910390fd5b6000600360009054906101000a900473ffffffffffffffffffffffffffffffffffffffff1673ffffffffffffffffffffffffffffffffffffffff166354ba0f27876040518263ffffffff1660e01b8152600401610f769190611c4f565b602060405180830381600087803b158015610f9057600080fd5b505af1158015610fa4573d6000803e3d6000fd5b505050506040513d601f19601f82011682018060405250810190610fc891906118f5565b9050610fd4600761170a565b6001600460008873ffffffffffffffffffffffffffffffffffffffff1673ffffffffffffffffffffffffffffffffffffffff16815260200190815260200160002060008282829054906101000a900460ff166110309190611f4b565b92506101000a81548160ff021916908360ff1602179055506005600084815260200190815260200160002081908060018154018082558091505060019003906000526020600020016000909190919091505550808061108e906120b3565b915050610ec2565b507f7f8aed29394d49180b299699236f142fbd3a78f6d1464929dd17e87b73ebc8d284826040516110c8929190611c85565b60405180910390a15080806110dc906120b3565b915050610e8c565b50505060016000819055505050565b6110fb6112b4565b73ffffffffffffffffffffffffffffffffffffffff16611119610b12565b73ffffffffffffffffffffffffffffffffffffffff161461116f576040517f08c379a000000000000000000000000000000000000000000000000000000000815260040161116690611e44565b60405180910390fd5b600081116111b2576040517f08c379a00000000000000000000000000000000000000000000000000000000081526004016111a990611ea4565b60405180910390fd5b8060098190555050565b6111c46112b4565b73ffffffffffffffffffffffffffffffffffffffff166111e2610b12565b73ffffffffffffffffffffffffffffffffffffffff1614611238576040517f08c379a000000000000000000000000000000000000000000000000000000000815260040161122f90611e44565b60405180910390fd5b600073ffffffffffffffffffffffffffffffffffffffff168173ffffffffffffffffffffffffffffffffffffffff1614156112a8576040517f08c379a000000000000000000000000000000000000000000000000000000000815260040161129f90611da4565b60405180910390fd5b6112b1816112ca565b50565b600033905090565b600081600001549050919050565b6000600160009054906101000a900473ffffffffffffffffffffffffffffffffffffffff16905081600160006101000a81548173ffffffffffffffffffffffffffffffffffffffff021916908373ffffffffffffffffffffffffffffffffffffffff1602179055508173ffffffffffffffffffffffffffffffffffffffff168173ffffffffffffffffffffffffffffffffffffffff167f8be0079c531659141344cd1fd0a4f28419497f9722a3daafe3b4186f6b6457e060405160405180910390a35050565b600073ffffffffffffffffffffffffffffffffffffffff168273ffffffffffffffffffffffffffffffffffffffff161415611400576040517f08c379a00000000000000000000000000000000000000000000000000000000081526004016113f790611e84565b60405180910390fd5b6000600260009054906101000a900473ffffffffffffffffffffffffffffffffffffffff1673ffffffffffffffffffffffffffffffffffffffff166370a08231846040518263ffffffff1660e01b815260040161145d9190611c4f565b60206040518083038186803b15801561147557600080fd5b505afa158015611489573d6000803e3d6000fd5b505050506040513d601f19601f820116820180604052508101906114ad91906118f5565b905080600460008573ffffffffffffffffffffffffffffffffffffffff1673ffffffffffffffffffffffffffffffffffffffff16815260200190815260200160002060009054906101000a900460ff1660ff1610611540576040517f08c379a000000000000000000000000000000000000000000000000000000000815260040161153790611d24565b60405180910390fd5b818460085461154f9190611f82565b1461158f576040517f08c379a000000000000000000000000000000000000000000000000000000000815260040161158690611de4565b60405180910390fd5b50505050565b8073ffffffffffffffffffffffffffffffffffffffff16600260009054906101000a900473ffffffffffffffffffffffffffffffffffffffff1673ffffffffffffffffffffffffffffffffffffffff16636352211e846040518263ffffffff1660e01b81526004016116079190611f04565b60206040518083038186803b15801561161f57600080fd5b505afa158015611633573d6000803e3d6000fd5b505050506040513d601f19601f820116820180604052508101906116579190611821565b73ffffffffffffffffffffffffffffffffffffffff16146116ad576040517f08c379a00000000000000000000000000000000000000000000000000000000081526004016116a490611ce4565b60405180910390fd5b6000600560008481526020019081526020016000208054905014611706576040517f08c379a00000000000000000000000000000000000000000000000000000000081526004016116fd90611dc4565b60405180910390fd5b5050565b6001816000016000828254019250508190555050565b60008135905061172f81612536565b92915050565b60008151905061174481612536565b92915050565b6000813590506117598161254d565b92915050565b60008083601f8401126117755761177461215f565b5b8235905067ffffffffffffffff8111156117925761179161215a565b5b6020830191508360208202830111156117ae576117ad612164565b5b9250929050565b6000813590506117c481612564565b92915050565b6000815190506117d981612564565b92915050565b6000813590506117ee8161257b565b92915050565b60006020828403121561180a5761180961216e565b5b600061181884828501611720565b91505092915050565b6000602082840312156118375761183661216e565b5b600061184584828501611735565b91505092915050565b6000602082840312156118645761186361216e565b5b60006118728482850161174a565b91505092915050565b600080602083850312156118925761189161216e565b5b600083013567ffffffffffffffff8111156118b0576118af612169565b5b6118bc8582860161175f565b92509250509250929050565b6000602082840312156118de576118dd61216e565b5b60006118ec848285016117b5565b91505092915050565b60006020828403121561190b5761190a61216e565b5b6000611919848285016117ca565b91505092915050565b600080604083850312156119395761193861216e565b5b6000611947858286016117b5565b9250506020611958858286016117b5565b9150509250929050565b600080604083850312156119795761197861216e565b5b6000611987858286016117b5565b9250506020611998858286016117df565b9150509250929050565b6119ab81612022565b82525050565b6119ba81612010565b82525050565b6119c98161206b565b82525050565b6119d88161207d565b82525050565b60006119eb602383611f3a565b91506119f682612173565b604082019050919050565b6000611a0e601a83611f3a565b9150611a19826121c2565b602082019050919050565b6000611a31602d83611f3a565b9150611a3c826121eb565b604082019050919050565b6000611a54601f83611f3a565b9150611a5f8261223a565b602082019050919050565b6000611a77602483611f3a565b9150611a8282612263565b604082019050919050565b6000611a9a603583611f3a565b9150611aa5826122b2565b604082019050919050565b6000611abd602683611f3a565b9150611ac882612301565b604082019050919050565b6000611ae0601f83611f3a565b9150611aeb82612350565b602082019050919050565b6000611b03601d83611f3a565b9150611b0e82612379565b602082019050919050565b6000611b26601283611f3a565b9150611b31826123a2565b602082019050919050565b6000611b49602083611f3a565b9150611b54826123cb565b602082019050919050565b6000611b6c602083611f3a565b9150611b77826123f4565b602082019050919050565b6000611b8f602e83611f3a565b9150611b9a8261241d565b604082019050919050565b6000611bb2601f83611f3a565b9150611bbd8261246c565b602082019050919050565b6000611bd5602183611f3a565b9150611be082612495565b604082019050919050565b6000611bf8601f83611f3a565b9150611c03826124e4565b602082019050919050565b6000611c1b601c83611f3a565b9150611c268261250d565b602082019050919050565b611c3a81612054565b82525050565b611c498161205e565b82525050565b6000602082019050611c6460008301846119b1565b92915050565b6000602082019050611c7f60008301846119a2565b92915050565b6000604082019050611c9a60008301856119b1565b611ca76020830184611c31565b9392505050565b6000602082019050611cc360008301846119c0565b92915050565b6000602082019050611cde60008301846119cf565b92915050565b60006020820190508181036000830152611cfd816119de565b9050919050565b60006020820190508181036000830152611d1d81611a01565b9050919050565b60006020820190508181036000830152611d3d81611a24565b9050919050565b60006020820190508181036000830152611d5d81611a47565b9050919050565b60006020820190508181036000830152611d7d81611a6a565b9050919050565b60006020820190508181036000830152611d9d81611a8d565b9050919050565b60006020820190508181036000830152611dbd81611ab0565b9050919050565b60006020820190508181036000830152611ddd81611ad3565b9050919050565b60006020820190508181036000830152611dfd81611af6565b9050919050565b60006020820190508181036000830152611e1d81611b19565b9050919050565b60006020820190508181036000830152611e3d81611b3c565b9050919050565b60006020820190508181036000830152611e5d81611b5f565b9050919050565b60006020820190508181036000830152611e7d81611b82565b9050919050565b60006020820190508181036000830152611e9d81611ba5565b9050919050565b60006020820190508181036000830152611ebd81611bc8565b9050919050565b60006020820190508181036000830152611edd81611beb565b9050919050565b60006020820190508181036000830152611efd81611c0e565b9050919050565b6000602082019050611f196000830184611c31565b92915050565b6000602082019050611f346000830184611c40565b92915050565b600082825260208201905092915050565b6000611f568261205e565b9150611f618361205e565b92508260ff03821115611f7757611f766120fc565b5b828201905092915050565b6000611f8d82612054565b9150611f9883612054565b9250817fffffffffffffffffffffffffffffffffffffffffffffffffffffffffffffffff0483118215151615611fd157611fd06120fc565b5b828202905092915050565b6000611fe782612054565b9150611ff283612054565b925082821015612005576120046120fc565b5b828203905092915050565b600061201b82612034565b9050919050565b600061202d82612034565b9050919050565b600073ffffffffffffffffffffffffffffffffffffffff82169050919050565b6000819050919050565b600060ff82169050919050565b60006120768261208f565b9050919050565b60006120888261208f565b9050919050565b600061209a826120a1565b9050919050565b60006120ac82612034565b9050919050565b60006120be82612054565b91507fffffffffffffffffffffffffffffffffffffffffffffffffffffffffffffffff8214156120f1576120f06120fc565b5b600182019050919050565b7f4e487b7100000000000000000000000000000000000000000000000000000000600052601160045260246000fd5b7f4e487b7100000000000000000000000000000000000000000000000000000000600052603260045260246000fd5b600080fd5b600080fd5b600080fd5b600080fd5b600080fd5b7f596f7520646f6e2774206f776e20616c6c207468657365206d696e742070617360008201527f7365730000000000000000000000000000000000000000000000000000000000602082015250565b7f57616c6c657420697320746865207a65726f2061646472657373000000000000600082015250565b7f596f752068617665207573656420757020616c6c20746865206d696e7420706160008201527f7373657320796f75206861766500000000000000000000000000000000000000602082015250565b7f4d696e74506173734e465420697320746865207a65726f206164647265737300600082015250565b7f4d617853616c65416d6f756e74206d757374206265206772656174657220746860008201527f616e203000000000000000000000000000000000000000000000000000000000602082015250565b7f4d617853616c65416d6f756e74206d757374206265206772656174657220746860008201527f616e205f63757272656e7453616c65416d6f756e740000000000000000000000602082015250565b7f4f776e61626c653a206e6577206f776e657220697320746865207a65726f206160008201527f6464726573730000000000000000000000000000000000000000000000000000602082015250565b7f4f6e65206f6620746865206d696e742070617373657320776173207573656400600082015250565b7f5468652076616c756520796f752073656e7420697320696e76616c6964000000600082015250565b7f4f7574206f662061727261792072616e67650000000000000000000000000000600082015250565b7f4d6f6f6e42656173744e465420697320746865207a65726f2061646472657373600082015250565b7f4f776e61626c653a2063616c6c6572206973206e6f7420746865206f776e6572600082015250565b7f457863656564656420746865206e756d626572206f66204e465473206f66207460008201527f6869732073616c6520726f756e64000000000000000000000000000000000000602082015250565b7f42656e656669636961727920697320746865207a65726f206164647265737300600082015250565b7f4e667450657250617373206d7573742062652067726561746572207468616e2060008201527f3000000000000000000000000000000000000000000000000000000000000000602082015250565b7f5265656e7472616e637947756172643a207265656e7472616e742063616c6c00600082015250565b7f5072696365206d7573742062652067726561746572207468616e203000000000600082015250565b61253f81612010565b811461254a57600080fd5b50565b61255681612022565b811461256157600080fd5b50565b61256d81612054565b811461257857600080fd5b50565b6125848161205e565b811461258f57600080fd5b5056fea2646970667358221220b9c4da0fb71b7d807ce5e0970fd54521cf788205d3d2f54b8fecf36fcb8f9fb164736f6c63430008070033",
  "linkReferences": {},
  "deployedLinkReferences": {}
}