{
  "_format": "hh-sol-artifact-1",
  "contractName": "MoonBeastNFTSaleRound34",
  "sourceName": "contracts/upgradeables/MoonBeastNFTSaleRound34.sol",
  "abi": [
    {
      "inputs": [],
      "stateMutability": "nonpayable",
      "type": "constructor"
    },
    {
      "anonymous": false,
      "inputs": [
        {
          "indexed": false,
          "internalType": "address",
          "name": "previousAdmin",
          "type": "address"
        },
        {
          "indexed": false,
          "internalType": "address",
          "name": "newAdmin",
          "type": "address"
        }
      ],
      "name": "AdminChanged",
      "type": "event"
    },
    {
      "anonymous": false,
      "inputs": [
        {
          "indexed": true,
          "internalType": "address",
          "name": "beacon",
          "type": "address"
        }
      ],
      "name": "BeaconUpgraded",
      "type": "event"
    },
    {
      "anonymous": false,
      "inputs": [
        {
          "indexed": false,
          "internalType": "uint8",
          "name": "version",
          "type": "uint8"
        }
      ],
      "name": "Initialized",
      "type": "event"
    },
    {
      "anonymous": false,
      "inputs": [
        {
          "indexed": false,
          "internalType": "string",
          "name": "transactionKey",
          "type": "string"
        },
        {
          "indexed": false,
          "internalType": "uint256[]",
          "name": "tokenIds",
          "type": "uint256[]"
        }
      ],
      "name": "NFTPurchased",
      "type": "event"
    },
    {
      "anonymous": false,
      "inputs": [
        {
          "indexed": true,
          "internalType": "address",
          "name": "previousOwner",
          "type": "address"
        },
        {
          "indexed": true,
          "internalType": "address",
          "name": "newOwner",
          "type": "address"
        }
      ],
      "name": "OwnershipTransferred",
      "type": "event"
    },
    {
      "anonymous": false,
      "inputs": [
        {
          "indexed": false,
          "internalType": "uint256",
          "name": "soldAmount",
          "type": "uint256"
        },
        {
          "indexed": false,
          "internalType": "uint256",
          "name": "availableSlot",
          "type": "uint256"
        },
        {
          "indexed": false,
          "internalType": "uint256",
          "name": "maxSaleAmount",
          "type": "uint256"
        }
      ],
      "name": "UpdateSaleAmount",
      "type": "event"
    },
    {
      "anonymous": false,
      "inputs": [
        {
          "indexed": true,
          "internalType": "address",
          "name": "implementation",
          "type": "address"
        }
      ],
      "name": "Upgraded",
      "type": "event"
    },
    {
      "inputs": [],
      "name": "_masterContract",
      "outputs": [
        {
          "internalType": "address",
          "name": "",
          "type": "address"
        }
      ],
      "stateMutability": "view",
      "type": "function"
    },
    {
      "inputs": [],
      "name": "_maxSaleAmount",
      "outputs": [
        {
          "internalType": "uint256",
          "name": "",
          "type": "uint256"
        }
      ],
      "stateMutability": "view",
      "type": "function"
    },
    {
      "inputs": [],
      "name": "_mintPassNFT",
      "outputs": [
        {
          "internalType": "contract IMoonFitERC721",
          "name": "",
          "type": "address"
        }
      ],
      "stateMutability": "view",
      "type": "function"
    },
    {
      "inputs": [],
      "name": "_moonBeastNFT",
      "outputs": [
        {
          "internalType": "contract MoonBeast",
          "name": "",
          "type": "address"
        }
      ],
      "stateMutability": "view",
      "type": "function"
    },
    {
      "inputs": [],
      "name": "_wallet",
      "outputs": [
        {
          "internalType": "address payable",
          "name": "",
          "type": "address"
        }
      ],
      "stateMutability": "view",
      "type": "function"
    },
    {
      "inputs": [
        {
          "internalType": "uint256",
          "name": "",
          "type": "uint256"
        }
      ],
      "name": "_withMintPassPricing",
      "outputs": [
        {
          "internalType": "uint256",
          "name": "",
          "type": "uint256"
        }
      ],
      "stateMutability": "view",
      "type": "function"
    },
    {
      "inputs": [
        {
          "internalType": "uint256",
          "name": "",
          "type": "uint256"
        }
      ],
      "name": "_withoutMintPassPricing",
      "outputs": [
        {
          "internalType": "uint256",
          "name": "",
          "type": "uint256"
        }
      ],
      "stateMutability": "view",
      "type": "function"
    },
    {
      "inputs": [
        {
          "internalType": "address",
          "name": "owner",
          "type": "address"
        }
      ],
      "name": "countMintByOwner",
      "outputs": [
        {
          "internalType": "uint256",
          "name": "",
          "type": "uint256"
        }
      ],
      "stateMutability": "view",
      "type": "function"
    },
    {
      "inputs": [
        {
          "internalType": "address",
          "name": "owner",
          "type": "address"
        }
      ],
      "name": "countMintPassLooking",
      "outputs": [
        {
          "internalType": "uint256",
          "name": "",
          "type": "uint256"
        }
      ],
      "stateMutability": "view",
      "type": "function"
    },
    {
      "inputs": [],
      "name": "getAvailableSlots",
      "outputs": [
        {
          "internalType": "uint256",
          "name": "",
          "type": "uint256"
        }
      ],
      "stateMutability": "view",
      "type": "function"
    },
    {
      "inputs": [],
      "name": "getContractBalance",
      "outputs": [
        {
          "internalType": "uint256",
          "name": "",
          "type": "uint256"
        }
      ],
      "stateMutability": "view",
      "type": "function"
    },
    {
      "inputs": [
        {
          "internalType": "address",
          "name": "owner",
          "type": "address"
        },
        {
          "internalType": "uint256",
          "name": "from",
          "type": "uint256"
        },
        {
          "internalType": "uint256",
          "name": "to",
          "type": "uint256"
        }
      ],
      "name": "getMintByOwner",
      "outputs": [
        {
          "components": [
            {
              "internalType": "uint256",
              "name": "tokenId",
              "type": "uint256"
            },
            {
              "internalType": "bool",
              "name": "hold",
              "type": "bool"
            }
          ],
          "internalType": "struct MoonBeastNFTSaleRound34.OwnerMintMapping[]",
          "name": "",
          "type": "tuple[]"
        }
      ],
      "stateMutability": "view",
      "type": "function"
    },
    {
      "inputs": [
        {
          "internalType": "address",
          "name": "owner",
          "type": "address"
        }
      ],
      "name": "getMintPassLooking",
      "outputs": [
        {
          "components": [
            {
              "internalType": "uint256",
              "name": "tokenId",
              "type": "uint256"
            },
            {
              "internalType": "bool",
              "name": "minted",
              "type": "bool"
            },
            {
              "internalType": "uint256[]",
              "name": "moonBeastIds",
              "type": "uint256[]"
            }
          ],
          "internalType": "struct MoonBeastNFTSaleRound34.MintPassLocking[]",
          "name": "",
          "type": "tuple[]"
        }
      ],
      "stateMutability": "view",
      "type": "function"
    },
    {
      "inputs": [
        {
          "internalType": "uint256",
          "name": "mintPassId",
          "type": "uint256"
        }
      ],
      "name": "getMintPassUsage",
      "outputs": [
        {
          "internalType": "uint256[]",
          "name": "",
          "type": "uint256[]"
        }
      ],
      "stateMutability": "view",
      "type": "function"
    },
    {
      "inputs": [
        {
          "internalType": "string",
          "name": "transactionKey",
          "type": "string"
        }
      ],
      "name": "getMoonBeastsByTransactionKey",
      "outputs": [
        {
          "internalType": "uint256[]",
          "name": "",
          "type": "uint256[]"
        }
      ],
      "stateMutability": "view",
      "type": "function"
    },
    {
      "inputs": [],
      "name": "getReadySale",
      "outputs": [
        {
          "internalType": "bool",
          "name": "",
          "type": "bool"
        }
      ],
      "stateMutability": "view",
      "type": "function"
    },
    {
      "inputs": [
        {
          "internalType": "uint256",
          "name": "tokenId",
          "type": "uint256"
        }
      ],
      "name": "getTransactionByMoonBeastId",
      "outputs": [
        {
          "internalType": "string",
          "name": "",
          "type": "string"
        }
      ],
      "stateMutability": "view",
      "type": "function"
    },
    {
      "inputs": [
        {
          "internalType": "uint256",
          "name": "maxSaleAmount",
          "type": "uint256"
        },
        {
          "internalType": "uint16[]",
          "name": "packs",
          "type": "uint16[]"
        },
        {
          "internalType": "uint256[]",
          "name": "withMintPassPricing",
          "type": "uint256[]"
        },
        {
          "internalType": "uint256[]",
          "name": "withoutMintPassPricing",
          "type": "uint256[]"
        },
        {
          "internalType": "address",
          "name": "masterContract",
          "type": "address"
        },
        {
          "internalType": "address",
          "name": "mintPassNFT",
          "type": "address"
        },
        {
          "internalType": "address",
          "name": "moonBeastNFT",
          "type": "address"
        },
        {
          "internalType": "address",
          "name": "wallet",
          "type": "address"
        }
      ],
      "name": "initialize",
      "outputs": [],
      "stateMutability": "nonpayable",
      "type": "function"
    },
    {
      "inputs": [
        {
          "internalType": "uint256[]",
          "name": "mintPassIds",
          "type": "uint256[]"
        }
      ],
      "name": "lockMintPass",
      "outputs": [],
      "stateMutability": "payable",
      "type": "function"
    },
    {
      "inputs": [
        {
          "internalType": "uint16",
          "name": "pack",
          "type": "uint16"
        },
        {
          "internalType": "uint256[]",
          "name": "mintPassIds",
          "type": "uint256[]"
        },
        {
          "internalType": "string",
          "name": "transactionKey",
          "type": "string"
        }
      ],
      "name": "mintNFTWithMintPass",
      "outputs": [],
      "stateMutability": "payable",
      "type": "function"
    },
    {
      "inputs": [
        {
          "internalType": "uint16",
          "name": "pack",
          "type": "uint16"
        }
      ],
      "name": "mintNFTWithMintPassV2",
      "outputs": [],
      "stateMutability": "payable",
      "type": "function"
    },
    {
      "inputs": [
        {
          "internalType": "uint16",
          "name": "pack",
          "type": "uint16"
        },
        {
          "internalType": "string",
          "name": "transactionKey",
          "type": "string"
        }
      ],
      "name": "mintNFTWithoutMintPass",
      "outputs": [],
      "stateMutability": "payable",
      "type": "function"
    },
    {
      "inputs": [
        {
          "internalType": "uint16",
          "name": "pack",
          "type": "uint16"
        }
      ],
      "name": "mintNFTWithoutMintPassV2",
      "outputs": [],
      "stateMutability": "payable",
      "type": "function"
    },
    {
      "inputs": [
        {
          "internalType": "uint256",
          "name": "mintPassId",
          "type": "uint256"
        }
      ],
      "name": "mintPassIsMinted",
      "outputs": [
        {
          "internalType": "bool",
          "name": "",
          "type": "bool"
        }
      ],
      "stateMutability": "view",
      "type": "function"
    },
    {
      "inputs": [
        {
          "internalType": "address",
          "name": "",
          "type": "address"
        },
        {
          "internalType": "address",
          "name": "",
          "type": "address"
        },
        {
          "internalType": "uint256",
          "name": "",
          "type": "uint256"
        },
        {
          "internalType": "bytes",
          "name": "",
          "type": "bytes"
        }
      ],
      "name": "onERC721Received",
      "outputs": [
        {
          "internalType": "bytes4",
          "name": "",
          "type": "bytes4"
        }
      ],
      "stateMutability": "nonpayable",
      "type": "function"
    },
    {
      "inputs": [],
      "name": "owner",
      "outputs": [
        {
          "internalType": "address",
          "name": "",
          "type": "address"
        }
      ],
      "stateMutability": "view",
      "type": "function"
    },
    {
      "inputs": [],
      "name": "proxiableUUID",
      "outputs": [
        {
          "internalType": "bytes32",
          "name": "",
          "type": "bytes32"
        }
      ],
      "stateMutability": "view",
      "type": "function"
    },
    {
      "inputs": [],
      "name": "renounceOwnership",
      "outputs": [],
      "stateMutability": "nonpayable",
      "type": "function"
    },
    {
      "inputs": [],
      "name": "revokeAllApproved",
      "outputs": [],
      "stateMutability": "nonpayable",
      "type": "function"
    },
    {
      "inputs": [
        {
          "internalType": "address",
          "name": "operator",
          "type": "address"
        },
        {
          "internalType": "bool",
          "name": "isApproved",
          "type": "bool"
        }
      ],
      "name": "setApprovedOperator",
      "outputs": [],
      "stateMutability": "nonpayable",
      "type": "function"
    },
    {
      "inputs": [
        {
          "internalType": "address[]",
          "name": "operators",
          "type": "address[]"
        },
        {
          "internalType": "bool",
          "name": "isApproved",
          "type": "bool"
        }
      ],
      "name": "setApprovedOperators",
      "outputs": [],
      "stateMutability": "nonpayable",
      "type": "function"
    },
    {
      "inputs": [
        {
          "internalType": "uint256",
          "name": "maxSaleAmount",
          "type": "uint256"
        }
      ],
      "name": "setMaxSaleAmount",
      "outputs": [],
      "stateMutability": "nonpayable",
      "type": "function"
    },
    {
      "inputs": [
        {
          "internalType": "address",
          "name": "mintPass",
          "type": "address"
        }
      ],
      "name": "setMintPassNFT",
      "outputs": [],
      "stateMutability": "nonpayable",
      "type": "function"
    },
    {
      "inputs": [
        {
          "internalType": "address",
          "name": "moonBeast",
          "type": "address"
        }
      ],
      "name": "setMoonBeastNFT",
      "outputs": [],
      "stateMutability": "nonpayable",
      "type": "function"
    },
    {
      "inputs": [
        {
          "internalType": "bool",
          "name": "value",
          "type": "bool"
        }
      ],
      "name": "setReadySale",
      "outputs": [],
      "stateMutability": "nonpayable",
      "type": "function"
    },
    {
      "inputs": [
        {
          "internalType": "address payable",
          "name": "wallet",
          "type": "address"
        }
      ],
      "name": "setWallet",
      "outputs": [],
      "stateMutability": "nonpayable",
      "type": "function"
    },
    {
      "inputs": [
        {
          "internalType": "address",
          "name": "newOwner",
          "type": "address"
        }
      ],
      "name": "transferOwnership",
      "outputs": [],
      "stateMutability": "nonpayable",
      "type": "function"
    },
    {
      "inputs": [],
      "name": "unlockMintPass",
      "outputs": [],
      "stateMutability": "payable",
      "type": "function"
    },
    {
      "inputs": [],
      "name": "unlockMintPass2",
      "outputs": [],
      "stateMutability": "payable",
      "type": "function"
    },
    {
      "inputs": [
        {
          "internalType": "address",
          "name": "newImplementation",
          "type": "address"
        }
      ],
      "name": "upgradeTo",
      "outputs": [],
      "stateMutability": "nonpayable",
      "type": "function"
    },
    {
      "inputs": [
        {
          "internalType": "address",
          "name": "newImplementation",
          "type": "address"
        },
        {
          "internalType": "bytes",
          "name": "data",
          "type": "bytes"
        }
      ],
      "name": "upgradeToAndCall",
      "outputs": [],
      "stateMutability": "payable",
      "type": "function"
    },
    {
      "inputs": [],
      "name": "withdrawTokenByOwner",
      "outputs": [],
      "stateMutability": "nonpayable",
      "type": "function"
    }
  ],
  "bytecode": "0x60a06040523060601b6080523480156200001857600080fd5b506200002362000029565b620000eb565b600054610100900460ff1615620000965760405162461bcd60e51b815260206004820152602760248201527f496e697469616c697a61626c653a20636f6e747261637420697320696e697469604482015266616c697a696e6760c81b606482015260840160405180910390fd5b60005460ff9081161015620000e9576000805460ff191660ff9081179091556040519081527f7f26b83ff96e1f2b6a682f133852f6798a09c465da95921460cefb38474024989060200160405180910390a15b565b60805160601c61438a6200012660003960008181610d5b01528181610d9b0152818161140c0152818161144c0152611501015261438a6000f3fe6080604052600436106102515760003560e01c8063610757e411610139578063b9d18eae116100b6578063de15ad081161007a578063de15ad08146106b6578063deaa59df146106c9578063deed00f6146106e9578063f122f31614610708578063f2fde38b14610735578063ffd6e51c1461075557600080fd5b8063b9d18eae1461061f578063cc8c0d7e14610634578063d49c78cc14610649578063d693b38e14610669578063d879f3951461069657600080fd5b80637428edea116100fd5780637428edea1461056d5780638da5cb5b1461058457806390ad41d3146105a2578063a0c74730146105cf578063b8bea696146105ff57600080fd5b8063610757e4146104c15780636bd9eb0a146104e25780636d02d94d1461050f5780636f9fb98a14610545578063715018a61461055857600080fd5b80632c70954d116101d25780633c95ed07116101965780633c95ed07146104335780634f1ef28614610446578063514c1ba61461045957806352d1902d146104795780635d0a8f6d1461048e578063603619a7146104ae57600080fd5b80632c70954d146103c25780633659cfe6146103e3578063369840d6146104035780633bc2d10d1461040b5780633c5a61531461041357600080fd5b806318da71221161021957806318da71221461032f578063228443d81461034f578063231b00981461036f5780632725368f146103825780632bfccd3c146103a257600080fd5b8063044205de146102565780630848c6ca146102895780630b154c471461029e57806312c0aeb9146102d6578063150b7a02146102eb575b600080fd5b34801561026257600080fd5b50610276610271366004613bd4565b610775565b6040519081526020015b60405180910390f35b61029c610297366004613bb8565b610797565b005b3480156102aa57600080fd5b5060fb546102be906001600160a01b031681565b6040516001600160a01b039091168152602001610280565b3480156102e257600080fd5b5061029c6108ef565b3480156102f757600080fd5b506103166103063660046138b8565b630a85bd0160e11b949350505050565b6040516001600160e01b03199091168152602001610280565b34801561033b57600080fd5b5061027661034a36600461387e565b610984565b34801561035b57600080fd5b5061029c61036a36600461387e565b610a47565b61029c61037d366004613b45565b610ac7565b34801561038e57600080fd5b5060fc546102be906001600160a01b031681565b3480156103ae57600080fd5b5061029c6103bd36600461387e565b610cd0565b3480156103ce57600080fd5b5061010a546102be906001600160a01b031681565b3480156103ef57600080fd5b5061029c6103fe36600461387e565b610d50565b61029c610e2d565b61029c611071565b34801561041f57600080fd5b5061029c61042e366004613923565b611279565b61029c610441366004613b2a565b61128f565b61029c610454366004613958565b611401565b34801561046557600080fd5b5061029c610474366004613ac2565b6114ce565b34801561048557600080fd5b506102766114f4565b34801561049a57600080fd5b5061029c6104a9366004613bd4565b6115a7565b61029c6104bc366004613b2a565b611681565b3480156104cd57600080fd5b50610109546102be906001600160a01b031681565b3480156104ee57600080fd5b506105026104fd366004613bd4565b611704565b6040516102809190613f32565b34801561051b57600080fd5b5061027661052a36600461387e565b6001600160a01b0316600090815260ff602052604090205490565b34801561055157600080fd5b5047610276565b34801561056457600080fd5b5061029c611766565b34801561057957600080fd5b506102766101055481565b34801561059057600080fd5b506065546001600160a01b03166102be565b3480156105ae57600080fd5b506105c26105bd366004613bd4565b61177a565b6040516102809190613f45565b3480156105db57600080fd5b506105ef6105ea366004613bd4565b611813565b6040519015158152602001610280565b34801561060b57600080fd5b5061029c61061a366004613bed565b611836565b34801561062b57600080fd5b50610276611e29565b34801561064057600080fd5b5061029c611e48565b34801561065557600080fd5b50610502610664366004613af6565b611ede565b34801561067557600080fd5b506106896106843660046139a7565b611f4d565b6040516102809190613ee1565b3480156106a257600080fd5b5061029c6106b13660046139dc565b612176565b61029c6106c4366004613a8e565b6121c4565b3480156106d557600080fd5b5061029c6106e436600461387e565b612237565b3480156106f557600080fd5b5060fc54600160a01b900460ff166105ef565b34801561071457600080fd5b5061072861072336600461387e565b6122b8565b6040516102809190613e60565b34801561074157600080fd5b5061029c61075036600461387e565b612445565b34801561076157600080fd5b50610276610770366004613bd4565b6124bb565b610108818154811061078657600080fd5b600091825260209091200154905081565b600260015414156107c35760405162461bcd60e51b81526004016107ba9061411d565b60405180910390fd5b60026001556065546001600160a01b03163314806107f65750336000908152610104602052604090205460ff1615156001145b6108125760405162461bcd60e51b81526004016107ba90614083565b61081b826124cc565b610824816124e6565b60005b8261ffff1681101561084f5761083c826125ac565b508061084781614251565b915050610827565b507fe66707350710f863090ce00b7e4d71719c22c782f15f8d3f3a8734216b03bedf81610102836040516108839190613d28565b90815260405190819003602001812061089c9291613f58565b60405180910390a160008051602061430e8339815191526108bd6101065490565b6108c5611e29565b610105546040805193845260208401929092529082015260600160405180910390a1505060018055565b6108f76126be565b600047116109475760405162461bcd60e51b815260206004820152601a60248201527f436f6e74726163742062616c616e6365206973203020474c4d5200000000000060448201526064016107ba565b610109546040516001600160a01b03909116904780156108fc02916000818181858888f19350505050158015610981573d6000803e3d6000fd5b50565b6001600160a01b038116600090815260fe60205260408120546109a957506000919050565b6000805b6001600160a01b038416600090815260fe6020526040902054811015610a40576001600160a01b038416600090815260fe602052604081208054839081106109f7576109f76142ac565b90600052602060002001549050610a0d81611813565b158015610a1a5750600081115b15610a2d57610a2a6001846141a7565b92505b5080610a3881614251565b9150506109ad565b5092915050565b610a4f6126be565b6001600160a01b038116610aa55760405162461bcd60e51b815260206004820181905260248201527f4d6f6f6e42656173744e465420697320746865207a65726f206164647265737360448201526064016107ba565b60fc80546001600160a01b0319166001600160a01b0392909216919091179055565b60026001541415610aea5760405162461bcd60e51b81526004016107ba9061411d565b60026001556065546001600160a01b0316331480610b1d5750336000908152610104602052604090205460ff1615156001145b610b395760405162461bcd60e51b81526004016107ba90614083565b610b42836124cc565b610b4b816124e6565b8261ffff16825114610b9f5760405162461bcd60e51b815260206004820152601b60248201527f4d696e74506173732062616c616e636520697320696e76616c6964000000000060448201526064016107ba565b60005b8251811015610c2f57610bcd838281518110610bc057610bc06142ac565b6020026020010151612718565b6000610bd8836125ac565b905060fd6000858481518110610bf057610bf06142ac565b60209081029190910181015182528181019290925260400160009081208054600181018255908252919020015580610c2781614251565b915050610ba2565b507fe66707350710f863090ce00b7e4d71719c22c782f15f8d3f3a8734216b03bedf8161010283604051610c639190613d28565b908152604051908190036020018120610c7c9291613f58565b60405180910390a160008051602061430e833981519152610c9d6101065490565b610ca5611e29565b610105546040805193845260208401929092529082015260600160405180910390a150506001805550565b610cd86126be565b6001600160a01b038116610d2e5760405162461bcd60e51b815260206004820152601f60248201527f4d696e74506173734e465420697320746865207a65726f20616464726573730060448201526064016107ba565b60fb80546001600160a01b0319166001600160a01b0392909216919091179055565b306001600160a01b037f0000000000000000000000000000000000000000000000000000000000000000161415610d995760405162461bcd60e51b81526004016107ba90613feb565b7f00000000000000000000000000000000000000000000000000000000000000006001600160a01b0316610de26000805160206142ee833981519152546001600160a01b031690565b6001600160a01b031614610e085760405162461bcd60e51b81526004016107ba90614037565b610e118161283d565b6040805160008082526020820190925261098191839190612845565b60026001541415610e505760405162461bcd60e51b81526004016107ba9061411d565b600260015533600081815260fe6020526040902054610ead5760405162461bcd60e51b8152602060048201526019602482015278131bd8dad95908135a5b9d14185cdcc81b9bdd08199bdd5b99603a1b60448201526064016107ba565b6000610eb882610984565b6001600160a01b038316600090815260fe6020526040902054610edb91906141d3565b90506000816001600160401b03811115610ef757610ef76142c2565b604051908082528060200260200182016040528015610f20578160200160208202803683370190505b5090506000805b6001600160a01b038516600090815260fe602052604090205481101561103c576001600160a01b038516600090815260fe60205260408120805483908110610f7157610f716142ac565b90600052602060002001549050610f8781611813565b15610fbc5780848481518110610f9f57610f9f6142ac565b6020908102919091010152610fb56001846141a7565b9250611029565b60fb546040516323b872dd60e01b81523060048201526001600160a01b03888116602483015260448201849052909116906323b872dd90606401600060405180830381600087803b15801561101057600080fd5b505af1158015611024573d6000803e3d6000fd5b505050505b508061103481614251565b915050610f27565b506001600160a01b038416600090815260fe60209081526040909120835161106692850190613538565b505060018055505050565b600260015414156110945760405162461bcd60e51b81526004016107ba9061411d565b600260015560fc54600160a01b900460ff16156111015760405162461bcd60e51b815260206004820152602560248201527f53616c652069732072656164792c2063616e277420756e6c6f636b204d696e74604482015264205061737360d81b60648201526084016107ba565b33600081815260fe60205260409020546111595760405162461bcd60e51b8152602060048201526019602482015278131bd8dad95908135a5b9d14185cdcc81b9bdd08199bdd5b99603a1b60448201526064016107ba565b60005b6001600160a01b038216600090815260fe602052604090205481101561123f5760fb546001600160a01b03838116600090815260fe60205260409020805491909216916323b872dd9130918691869081106111b9576111b96142ac565b6000918252602090912001546040516001600160e01b031960e086901b1681526001600160a01b0393841660048201529290911660248301526044820152606401600060405180830381600087803b15801561121457600080fd5b505af1158015611228573d6000803e3d6000fd5b50505050808061123790614251565b91505061115c565b5060408051600080825260208083018085526001600160a01b038616835260fe90915292902090516112719290613538565b505060018055565b6112816126be565b61128b82826129bf565b5050565b600260015414156112b25760405162461bcd60e51b81526004016107ba9061411d565b60026001556112c0816124cc565b6112cc81346001612b5e565b3360006112d882610984565b9050808361ffff1611156113265760405162461bcd60e51b8152602060048201526015602482015274496e73756666696369656e74204d696e745061737360581b60448201526064016107ba565b60005b8361ffff168110156113e757600061134084612c13565b9050806113a55760405162461bcd60e51b815260206004820152602d60248201527f5b4d696e7450617373206c6f636b6564206973206e6f74206d696e7465645d2060448201526c1dd85cc81b9bdd08199bdd5b99609a1b60648201526084016107ba565b60006113b085612c9e565b600092835260fd602090815260408420805460018101825590855293209092019190915550806113df81614251565b915050611329565b5060008051602061430e833981519152610c9d6101065490565b306001600160a01b037f000000000000000000000000000000000000000000000000000000000000000016141561144a5760405162461bcd60e51b81526004016107ba90613feb565b7f00000000000000000000000000000000000000000000000000000000000000006001600160a01b03166114936000805160206142ee833981519152546001600160a01b031690565b6001600160a01b0316146114b95760405162461bcd60e51b81526004016107ba90614037565b6114c28261283d565b61128b82826001612845565b6114d66126be565b60fc8054911515600160a01b0260ff60a01b19909216919091179055565b6000306001600160a01b037f000000000000000000000000000000000000000000000000000000000000000016146115945760405162461bcd60e51b815260206004820152603860248201527f555550535570677261646561626c653a206d757374206e6f742062652063616c60448201527f6c6564207468726f7567682064656c656761746563616c6c000000000000000060648201526084016107ba565b506000805160206142ee83398151915290565b6115af6126be565b6000811161160b5760405162461bcd60e51b8152602060048201526024808201527f4d617853616c65416d6f756e74206d75737420626520677265617465722074686044820152630616e20360e41b60648201526084016107ba565b61010654811161167b5760405162461bcd60e51b815260206004820152603560248201527f4d617853616c65416d6f756e74206d7573742062652067726561746572207468604482015274185b8817d8dd5c9c995b9d14dbdb19105b5bdd5b9d605a1b60648201526084016107ba565b61010555565b600260015414156116a45760405162461bcd60e51b81526004016107ba9061411d565b60026001556116b2816124cc565b6116be81346000612b5e565b3360005b8261ffff168110156116ea576116d782612c9e565b50806116e281614251565b9150506116c2565b5060008051602061430e8339815191526108bd6101065490565b600081815260fd602090815260409182902080548351818402810184019094528084526060939283018282801561175a57602002820191906000526020600020905b815481526020019060010190808311611746575b50505050509050919050565b61176e6126be565b6117786000612d86565b565b60008181526101006020526040902080546060919061179890614216565b80601f01602080910402602001604051908101604052809291908181526020018280546117c490614216565b801561175a5780601f106117e65761010080835404028352916020019161175a565b820191906000526020600020905b8154815290600101906020018083116117f45750939695505050505050565b600081815260fd6020526040812054158015906118305750600082115b92915050565b600054610100900460ff16158080156118565750600054600160ff909116105b806118705750303b158015611870575060005460ff166001145b6118d35760405162461bcd60e51b815260206004820152602e60248201527f496e697469616c697a61626c653a20636f6e747261637420697320616c72656160448201526d191e481a5b9a5d1a585b1a5e995960921b60648201526084016107ba565b6000805460ff1916600117905580156118f6576000805461ff0019166101001790555b600089116119525760405162461bcd60e51b8152602060048201526024808201527f6d617853616c65416d6f756e74206d75737420626520677265617465722074686044820152630616e20360e41b60648201526084016107ba565b6001600160a01b0384166119a85760405162461bcd60e51b815260206004820152601f60248201527f6d696e74506173734e465420697320746865207a65726f20616464726573730060448201526064016107ba565b6001600160a01b0383166119fe5760405162461bcd60e51b815260206004820181905260248201527f6d6f6f6e42656173744e465420697320746865207a65726f206164647265737360448201526064016107ba565b6001600160a01b038216611a545760405162461bcd60e51b815260206004820152601a60248201527f77616c6c657420697320746865207a65726f206164647265737300000000000060448201526064016107ba565b6001600160a01b038516611ab55760405162461bcd60e51b815260206004820152602260248201527f4d6173746572436f6e747261637420697320746865207a65726f206164647265604482015261737360f01b60648201526084016107ba565b6000885111611af95760405162461bcd60e51b815260206004820152601060248201526f141858dadcc81a5cc81a5b9d985b1a5960821b60448201526064016107ba565b8651885114611b4a5760405162461bcd60e51b815260206004820181905260248201527f5061636b7320616e6420707269636573206973206e6f74206d61746368696e6760448201526064016107ba565b8551885114611b9b5760405162461bcd60e51b815260206004820181905260248201527f5061636b7320616e6420707269636573206973206e6f74206d61746368696e6760448201526064016107ba565b611ba3612dd8565b611bab612e07565b61010589905560fb80546001600160a01b038087166001600160a01b03199283161790925560fc80548684169083161790556101098054928516929091169190911790558751611c03906101019060208b0190613583565b508651611c18906101079060208a0190613538565b508551611c2d90610108906020890190613538565b5061010a80546001600160a01b0319166001600160a01b03871617905560fc805460ff60a01b1916905560005b61010154811015611dd75760006101018281548110611c7b57611c7b6142ac565b60009182526020909120601082040154600f9091166002026101000a900461ffff1611611cdd5760405162461bcd60e51b815260206004820152601060248201526f141858dadcc81a5cc81a5b9d985b1a5960821b60448201526064016107ba565b60006101078281548110611cf357611cf36142ac565b906000526020600020015411611d4b5760405162461bcd60e51b815260206004820181905260248201527f50726963696e672077697468204d696e745061737320697320696e76616c696460448201526064016107ba565b60006101088281548110611d6157611d616142ac565b906000526020600020015411611dc55760405162461bcd60e51b815260206004820152602360248201527f50726963696e6720776974686f7574204d696e745061737320697320696e76616044820152621b1a5960ea1b60648201526084016107ba565b80611dcf81614251565b915050611c5a565b508015611e1e576000805461ff0019169055604051600181527f7f26b83ff96e1f2b6a682f133852f6798a09c465da95921460cefb38474024989060200160405180910390a15b505050505050505050565b6000611e356101065490565b61010554611e4391906141d3565b905090565b611e506126be565b60005b61010354811015611ebf57600061010460006101038481548110611e7957611e796142ac565b6000918252602080832091909101546001600160a01b031683528201929092526040019020805460ff191691151591909117905580611eb781614251565b915050611e53565b5060408051600081526020810191829052516109819161010391613627565b606061010282604051611ef19190613d28565b908152604080519182900360209081018320805480830285018301909352828452919083018282801561175a57602002820191906000526020600020908154815260200190600101908083116117465750505050509050919050565b6060818310611f945760405162461bcd60e51b815260206004820152601360248201527214185c985b595d195c9cc81a5b881d985b1a59606a1b60448201526064016107ba565b6001600160a01b038416600090815260ff60205260409020548210611ff15760405162461bcd60e51b815260206004820152601360248201527214185c985b595d195c9cc81a5b881d985b1a59606a1b60448201526064016107ba565b6000611ffd84846141d3565b6001600160401b03811115612014576120146142c2565b60405190808252806020026020018201604052801561205957816020015b60408051808201909152600080825260208201528152602001906001900390816120325790505b509050835b83811161216b576001600160a01b038616600090815260ff6020526040812080548390811061208f5761208f6142ac565b6000918252602091829020015460408051808201825282815260fc5491516331a9108f60e11b815260048101849052929450928301916001600160a01b038b8116921690636352211e9060240160206040518083038186803b1580156120f457600080fd5b505afa158015612108573d6000803e3d6000fd5b505050506040513d601f19601f8201168201806040525081019061212c919061389b565b6001600160a01b0316149052835184908490811061214c5761214c6142ac565b602002602001018190525050808061216390614251565b91505061205e565b5090505b9392505050565b61217e6126be565b60005b82518110156121bf576121ad83828151811061219f5761219f6142ac565b6020026020010151836129bf565b806121b781614251565b915050612181565b505050565b600260015414156121e75760405162461bcd60e51b81526004016107ba9061411d565b60026001553360005b825181101561222e5761221c8284838151811061220f5761220f6142ac565b6020026020010151612e2e565b8061222681614251565b9150506121f0565b50506001805550565b61223f6126be565b6001600160a01b0381166122955760405162461bcd60e51b815260206004820152601a60248201527f57616c6c657420697320746865207a65726f206164647265737300000000000060448201526064016107ba565b61010980546001600160a01b0319166001600160a01b0392909216919091179055565b6001600160a01b038116600090815260fe6020526040812054606091906001600160401b038111156122ec576122ec6142c2565b60405190808252806020026020018201604052801561233957816020015b6040805160608082018352600080835260208301529181019190915281526020019060019003908161230a5790505b50905060005b6001600160a01b038416600090815260fe6020526040902054811015610a40576001600160a01b038416600090815260fe60205260408120805483908110612389576123896142ac565b9060005260206000200154905060405180606001604052808281526020016123b083611813565b15158152600083815260fd6020908152604091829020805483518184028101840190945280845293820193909183018282801561240c57602002820191906000526020600020905b8154815260200190600101908083116123f8575b5050505050815250838381518110612426576124266142ac565b602002602001018190525050808061243d90614251565b91505061233f565b61244d6126be565b6001600160a01b0381166124b25760405162461bcd60e51b815260206004820152602660248201527f4f776e61626c653a206e6577206f776e657220697320746865207a65726f206160448201526564647265737360d01b60648201526084016107ba565b61098181612d86565b610107818154811061078657600080fd5b6124d4612f98565b6124dd81612fe9565b61098181613093565b80516125345760405162461bcd60e51b815260206004820152601b60248201527f5472616e73616374696f6e206b6579206973207265717569726564000000000060448201526064016107ba565b610102816040516125459190613d28565b90815260405190819003602001902054156109815760405162461bcd60e51b815260206004820152602160248201527f546865207472616e73616374696f6e206b657920686173206265656e207573656044820152601960fa1b60648201526084016107ba565b60fc5461010a546040516354ba0f2760e01b81526001600160a01b039182166004820152600092839216906354ba0f2790602401602060405180830381600087803b1580156125fa57600080fd5b505af115801561260e573d6000803e3d6000fd5b505050506040513d601f19601f820116820180604052508101906126329190613add565b61010a546001600160a01b0316600090815260ff6020908152604082208054600181018255908352912001819055905061267161010680546001019055565b610102836040516126829190613d28565b908152604080516020928190038301902080546001810182556000918252838220018490558381526101008352208451610a409286019061367c565b6065546001600160a01b031633146117785760405162461bcd60e51b815260206004820181905260248201527f4f776e61626c653a2063616c6c6572206973206e6f7420746865206f776e657260448201526064016107ba565b61010a5460fb546040516331a9108f60e11b8152600481018490526001600160a01b039283169290911690636352211e9060240160206040518083038186803b15801561276457600080fd5b505afa158015612778573d6000803e3d6000fd5b505050506040513d601f19601f8201168201806040525081019061279c919061389b565b6001600160a01b0316146127af82613147565b6040516020016127bf9190613e16565b604051602081830303815290604052906127ec5760405162461bcd60e51b81526004016107ba9190613f45565b506127f681611813565b1561280082613147565b6040516020016128109190613dba565b6040516020818303038152906040529061128b5760405162461bcd60e51b81526004016107ba9190613f45565b6109816126be565b7f4910fdfa16fed3260ed0e7147f7cc6da11a60208b5b9406d12a635614ffd91435460ff1615612878576121bf8361324c565b826001600160a01b03166352d1902d6040518163ffffffff1660e01b815260040160206040518083038186803b1580156128b157600080fd5b505afa9250505080156128e1575060408051601f3d908101601f191682019092526128de91810190613add565b60015b6129445760405162461bcd60e51b815260206004820152602e60248201527f45524331393637557067726164653a206e657720696d706c656d656e7461746960448201526d6f6e206973206e6f74205555505360901b60648201526084016107ba565b6000805160206142ee83398151915281146129b35760405162461bcd60e51b815260206004820152602960248201527f45524331393637557067726164653a20756e737570706f727465642070726f786044820152681a58589b195555525160ba1b60648201526084016107ba565b506121bf8383836132e8565b6001600160a01b038216612a1f5760405162461bcd60e51b815260206004820152602160248201527f5468656f206f70657261746f7220697320746865207a65726f206164647265736044820152607360f81b60648201526084016107ba565b6001600160a01b038216301415612a865760405162461bcd60e51b815260206004820152602560248201527f546865206f70657261746f72206973207468697320636f6e7472616374206164604482015264647265737360d81b60648201526084016107ba565b610109546001600160a01b0383811691161415612ab55760405162461bcd60e51b81526004016107ba90613fa8565b6001600160a01b038216331415612ade5760405162461bcd60e51b81526004016107ba90613fa8565b6001600160a01b038216600090815261010460205260409020805460ff1916821580159190911790915561128b5761010380546001810182556000919091527f02c297ab74aad0aede3a1895c857b1f2c71e6a203feb727bec95ac752998cb780180546001600160a01b0384166001600160a01b03199091161790555050565b6000612bc98483612b7157610108612b75565b6101075b805480602002602001604051908101604052809291908181526020018280548015612bbf57602002820191906000526020600020905b815481526020019060010190808311612bab575b505050505061330d565b9050808314612c0d5760405162461bcd60e51b815260206004820152601060248201526f141c9a58d9481a5cc81a5b9d985b1a5960821b60448201526064016107ba565b50505050565b6000805b6001600160a01b038316600090815260fe6020526040902054811015612c95576001600160a01b038316600090815260fe60205260408120805483908110612c6157612c616142ac565b90600052602060002001549050612c7781611813565b612c82579392505050565b5080612c8d81614251565b915050612c17565b50600092915050565b60fc546040516354ba0f2760e01b81526001600160a01b03838116600483015260009283929116906354ba0f2790602401602060405180830381600087803b158015612ce957600080fd5b505af1158015612cfd573d6000803e3d6000fd5b505050506040513d601f19601f82011682018060405250810190612d219190613add565b6001600160a01b038416600090815260ff60209081526040822080546001810182559083529120018190559050612d5d61010680546001019055565b60408051602080820180845260008084528581526101009092529290209051610a40929061367c565b606580546001600160a01b038381166001600160a01b0319831681179093556040519116919082907f8be0079c531659141344cd1fd0a4f28419497f9722a3daafe3b4186f6b6457e090600090a35050565b600054610100900460ff16612dff5760405162461bcd60e51b81526004016107ba906140d2565b61177861339b565b600054610100900460ff166117785760405162461bcd60e51b81526004016107ba906140d2565b60fb546040516331a9108f60e11b8152600481018390526001600160a01b03848116921690636352211e9060240160206040518083038186803b158015612e7457600080fd5b505afa158015612e88573d6000803e3d6000fd5b505050506040513d601f19601f82011682018060405250810190612eac919061389b565b6001600160a01b031614612f025760405162461bcd60e51b815260206004820152601960248201527f43616c6c6572206973206e6f7420746f6b656e206f776e65720000000000000060448201526064016107ba565b6001600160a01b03828116600081815260fe602090815260408083208054600181018255908452919092200184905560fb5490516323b872dd60e01b8152600481019290925230602483015260448201849052909116906323b872dd90606401600060405180830381600087803b158015612f7c57600080fd5b505af1158015612f90573d6000803e3d6000fd5b505050505050565b60fc54600160a01b900460ff166117785760405162461bcd60e51b81526020600482015260156024820152744d696e74204e4654206973206e6f7420726561647960581b60448201526064016107ba565b6000805b6101015481101561305657610101818154811061300c5761300c6142ac565b90600052602060002090601091828204019190066002029054906101000a900461ffff1661ffff168361ffff16141561304457600191505b8061304e81614251565b915050612fed565b508061128b5760405162461bcd60e51b815260206004820152600c60248201526b141858dac81a5b9d985b1a5960a21b60448201526064016107ba565b600061309f6101065490565b610105546130ad91906141d3565b90508161ffff168110156130c082613147565b600183116130ea57604051806040016040528060048152602001630813919560e21b815250613109565b60405180604001604052806005815260200164204e46547360d81b8152505b60405160200161311a929190613d44565b604051602081830303815290604052906121bf5760405162461bcd60e51b81526004016107ba9190613f45565b60608161316b5750506040805180820190915260018152600360fc1b602082015290565b8160005b8115613195578061317f81614251565b915061318e9050600a836141bf565b915061316f565b6000816001600160401b038111156131af576131af6142c2565b6040519080825280601f01601f1916602001820160405280156131d9576020820181803683370190505b5090505b8415613244576131ee6001836141d3565b91506131fb600a8661426c565b6132069060306141a7565b60f81b81838151811061321b5761321b6142ac565b60200101906001600160f81b031916908160001a90535061323d600a866141bf565b94506131dd565b949350505050565b6001600160a01b0381163b6132b95760405162461bcd60e51b815260206004820152602d60248201527f455243313936373a206e657720696d706c656d656e746174696f6e206973206e60448201526c1bdd08184818dbdb9d1c9858dd609a1b60648201526084016107ba565b6000805160206142ee83398151915280546001600160a01b0319166001600160a01b0392909216919091179055565b6132f1836133cb565b6000825111806132fe5750805b156121bf57612c0d838361340b565b600080805b61010154811015613393576101018181548110613331576133316142ac565b90600052602060002090601091828204019190066002029054906101000a900461ffff1661ffff168561ffff16141561338157838181518110613376576133766142ac565b602002602001015191505b8061338b81614251565b915050613312565b509392505050565b600054610100900460ff166133c25760405162461bcd60e51b81526004016107ba906140d2565b61177833612d86565b6133d48161324c565b6040516001600160a01b038216907fbc7cd75a20ee27fd9adebab32041f755214dbc6bffa90cc0225b39da2e5c2d3b90600090a250565b60606001600160a01b0383163b6134735760405162461bcd60e51b815260206004820152602660248201527f416464726573733a2064656c65676174652063616c6c20746f206e6f6e2d636f6044820152651b9d1c9858dd60d21b60648201526084016107ba565b600080846001600160a01b03168460405161348e9190613d28565b600060405180830381855af49150503d80600081146134c9576040519150601f19603f3d011682016040523d82523d6000602084013e6134ce565b606091505b50915091506134f6828260405180606001604052806027815260200161432e602791396134ff565b95945050505050565b6060831561350e57508161216f565b82511561351e5782518084602001fd5b8160405162461bcd60e51b81526004016107ba9190613f45565b828054828255906000526020600020908101928215613573579160200282015b82811115613573578251825591602001919060010190613558565b5061357f9291506136ef565b5090565b82805482825590600052602060002090600f016010900481019282156135735791602002820160005b838211156135ec57835183826101000a81548161ffff021916908361ffff16021790555092602001926002016020816001010492830192600103026135ac565b801561361a5782816101000a81549061ffff02191690556002016020816001010492830192600103026135ec565b505061357f9291506136ef565b828054828255906000526020600020908101928215613573579160200282015b8281111561357357825182546001600160a01b0319166001600160a01b03909116178255602090920191600190910190613647565b82805461368890614216565b90600052602060002090601f0160209004810192826136aa5760008555613573565b82601f106136c357805160ff1916838001178555613573565b828001600101855582156135735791820182811115613573578251825591602001919060010190613558565b5b8082111561357f57600081556001016136f0565b803561370f816142d8565b919050565b600082601f83011261372557600080fd5b8135602061373a61373583614184565b614154565b80838252828201915082860187848660051b890101111561375a57600080fd5b60005b858110156137805761376e8261386c565b8452928401929084019060010161375d565b5090979650505050505050565b600082601f83011261379e57600080fd5b813560206137ae61373583614184565b80838252828201915082860187848660051b89010111156137ce57600080fd5b60005b85811015613780578135845292840192908401906001016137d1565b8035801515811461370f57600080fd5b600082601f83011261380e57600080fd5b81356001600160401b03811115613827576138276142c2565b61383a601f8201601f1916602001614154565b81815284602083860101111561384f57600080fd5b816020850160208301376000918101602001919091529392505050565b803561ffff8116811461370f57600080fd5b60006020828403121561389057600080fd5b813561216f816142d8565b6000602082840312156138ad57600080fd5b815161216f816142d8565b600080600080608085870312156138ce57600080fd5b84356138d9816142d8565b935060208501356138e9816142d8565b92506040850135915060608501356001600160401b0381111561390b57600080fd5b613917878288016137fd565b91505092959194509250565b6000806040838503121561393657600080fd5b8235613941816142d8565b915061394f602084016137ed565b90509250929050565b6000806040838503121561396b57600080fd5b8235613976816142d8565b915060208301356001600160401b0381111561399157600080fd5b61399d858286016137fd565b9150509250929050565b6000806000606084860312156139bc57600080fd5b83356139c7816142d8565b95602085013595506040909401359392505050565b600080604083850312156139ef57600080fd5b82356001600160401b03811115613a0557600080fd5b8301601f81018513613a1657600080fd5b80356020613a2661373583614184565b80838252828201915082850189848660051b8801011115613a4657600080fd5b600095505b84861015613a72578035613a5e816142d8565b835260019590950194918301918301613a4b565b509550613a8290508682016137ed565b93505050509250929050565b600060208284031215613aa057600080fd5b81356001600160401b03811115613ab657600080fd5b6132448482850161378d565b600060208284031215613ad457600080fd5b61216f826137ed565b600060208284031215613aef57600080fd5b5051919050565b600060208284031215613b0857600080fd5b81356001600160401b03811115613b1e57600080fd5b613244848285016137fd565b600060208284031215613b3c57600080fd5b61216f8261386c565b600080600060608486031215613b5a57600080fd5b613b638461386c565b925060208401356001600160401b0380821115613b7f57600080fd5b613b8b8783880161378d565b93506040860135915080821115613ba157600080fd5b50613bae868287016137fd565b9150509250925092565b60008060408385031215613bcb57600080fd5b6139768361386c565b600060208284031215613be657600080fd5b5035919050565b600080600080600080600080610100898b031215613c0a57600080fd5b8835975060208901356001600160401b0380821115613c2857600080fd5b613c348c838d01613714565b985060408b0135915080821115613c4a57600080fd5b613c568c838d0161378d565b975060608b0135915080821115613c6c57600080fd5b50613c798b828c0161378d565b955050613c8860808a01613704565b9350613c9660a08a01613704565b9250613ca460c08a01613704565b9150613cb260e08a01613704565b90509295985092959890939650565b600081518084526020808501945080840160005b83811015613cf157815187529582019590820190600101613cd5565b509495945050505050565b60008151808452613d148160208601602086016141ea565b601f01601f19169290920160200192915050565b60008251613d3a8184602087016141ea565b9190910192915050565b7f546865206e756d626572206f66204e465473206973206e6f7420656e6f756768815271016103a3434b9903937bab732103632b33a160751b602082015260008351613d978160328501602088016141ea565b835190830190613dae8160328401602088016141ea565b01603201949350505050565b6c4d696e74506173734e4654202360981b815260008251613de281600d8501602087016141ea565b7f20776173207573656420696e207468697320726f756e64000000000000000000600d939091019283015250602401919050565b6c4d696e74506173734e4654202360981b815260008251613e3e81600d8501602087016141ea565b6a081a5cc81a5b9d985b1a5960aa1b600d939091019283015250601801919050565b60006020808301818452808551808352604092508286019150828160051b87010184880160005b83811015613ed357888303603f19018552815180518452878101511515888501528601516060878501819052613ebf81860183613cc1565b968901969450505090860190600101613e87565b509098975050505050505050565b602080825282518282018190526000919060409081850190868401855b82811015613f25578151805185528601511515868501529284019290850190600101613efe565b5091979650505050505050565b60208152600061216f6020830184613cc1565b60208152600061216f6020830184613cfc565b604081526000613f6b6040830185613cfc565b60208382038185015281855480845282840191508660005282600020935060005b8181101561378057845483526001948501949284019201613f8c565b60208082526023908201527f546865206f70657261746f7220697320746865206f776e65722773206164647260408201526265737360e81b606082015260800190565b6020808252602c908201527f46756e6374696f6e206d7573742062652063616c6c6564207468726f7567682060408201526b19195b1959d85d1958d85b1b60a21b606082015260800190565b6020808252602c908201527f46756e6374696f6e206d7573742062652063616c6c6564207468726f7567682060408201526b6163746976652070726f787960a01b606082015260800190565b6020808252602f908201527f4f776e61626c653a2063616c6c6572206973206e6f7420746865206f776e657260408201526e081bdc881a5cc8185c1c1c9bdd9959608a1b606082015260800190565b6020808252602b908201527f496e697469616c697a61626c653a20636f6e7472616374206973206e6f74206960408201526a6e697469616c697a696e6760a81b606082015260800190565b6020808252601f908201527f5265656e7472616e637947756172643a207265656e7472616e742063616c6c00604082015260600190565b604051601f8201601f191681016001600160401b038111828210171561417c5761417c6142c2565b604052919050565b60006001600160401b0382111561419d5761419d6142c2565b5060051b60200190565b600082198211156141ba576141ba614280565b500190565b6000826141ce576141ce614296565b500490565b6000828210156141e5576141e5614280565b500390565b60005b838110156142055781810151838201526020016141ed565b83811115612c0d5750506000910152565b600181811c9082168061422a57607f821691505b6020821081141561424b57634e487b7160e01b600052602260045260246000fd5b50919050565b600060001982141561426557614265614280565b5060010190565b60008261427b5761427b614296565b500690565b634e487b7160e01b600052601160045260246000fd5b634e487b7160e01b600052601260045260246000fd5b634e487b7160e01b600052603260045260246000fd5b634e487b7160e01b600052604160045260246000fd5b6001600160a01b038116811461098157600080fdfe360894a13ba1a3210667c828492db98dca3e2076cc3735a920a3ca505d382bbc69031b1a7e7913762e884dd55b4b42c47d8a362a2715200304a1e1a0f63ec309416464726573733a206c6f772d6c6576656c2064656c65676174652063616c6c206661696c6564a264697066735822122089cd0219f7220861b2e4f70bc762a36af3061630dab78b3e0878e2caff9ee47b64736f6c63430008070033",
  "linkReferences": {},
  "deployedLinkReferences": {}
}