{
  "_format": "hh-sol-artifact-1",
  "contractName": "MoonBeastNFTSaleRound34",
  "sourceName": "contracts/upgradeables/MoonBeastNFTSaleRound34.sol",
  "abi": [
    {
      "inputs": [],
      "stateMutability": "nonpayable",
      "type": "constructor"
    },
    {
      "anonymous": false,
      "inputs": [
        {
          "indexed": false,
          "internalType": "address",
          "name": "previousAdmin",
          "type": "address"
        },
        {
          "indexed": false,
          "internalType": "address",
          "name": "newAdmin",
          "type": "address"
        }
      ],
      "name": "AdminChanged",
      "type": "event"
    },
    {
      "anonymous": false,
      "inputs": [
        {
          "indexed": true,
          "internalType": "address",
          "name": "beacon",
          "type": "address"
        }
      ],
      "name": "BeaconUpgraded",
      "type": "event"
    },
    {
      "anonymous": false,
      "inputs": [
        {
          "indexed": false,
          "internalType": "uint8",
          "name": "version",
          "type": "uint8"
        }
      ],
      "name": "Initialized",
      "type": "event"
    },
    {
      "anonymous": false,
      "inputs": [
        {
          "indexed": false,
          "internalType": "string",
          "name": "transactionKey",
          "type": "string"
        },
        {
          "indexed": false,
          "internalType": "uint256[]",
          "name": "tokenIds",
          "type": "uint256[]"
        }
      ],
      "name": "NFTPurchased",
      "type": "event"
    },
    {
      "anonymous": false,
      "inputs": [
        {
          "indexed": true,
          "internalType": "address",
          "name": "previousOwner",
          "type": "address"
        },
        {
          "indexed": true,
          "internalType": "address",
          "name": "newOwner",
          "type": "address"
        }
      ],
      "name": "OwnershipTransferred",
      "type": "event"
    },
    {
      "anonymous": false,
      "inputs": [
        {
          "indexed": false,
          "internalType": "uint256",
          "name": "soldAmount",
          "type": "uint256"
        },
        {
          "indexed": false,
          "internalType": "uint256",
          "name": "availableSlot",
          "type": "uint256"
        },
        {
          "indexed": false,
          "internalType": "uint256",
          "name": "maxSaleAmount",
          "type": "uint256"
        }
      ],
      "name": "UpdateSaleAmount",
      "type": "event"
    },
    {
      "anonymous": false,
      "inputs": [
        {
          "indexed": true,
          "internalType": "address",
          "name": "implementation",
          "type": "address"
        }
      ],
      "name": "Upgraded",
      "type": "event"
    },
    {
      "inputs": [],
      "name": "_masterContract",
      "outputs": [
        {
          "internalType": "address",
          "name": "",
          "type": "address"
        }
      ],
      "stateMutability": "view",
      "type": "function"
    },
    {
      "inputs": [],
      "name": "_maxSaleAmount",
      "outputs": [
        {
          "internalType": "uint256",
          "name": "",
          "type": "uint256"
        }
      ],
      "stateMutability": "view",
      "type": "function"
    },
    {
      "inputs": [],
      "name": "_mintPassNFT",
      "outputs": [
        {
          "internalType": "contract IMoonFitERC721",
          "name": "",
          "type": "address"
        }
      ],
      "stateMutability": "view",
      "type": "function"
    },
    {
      "inputs": [],
      "name": "_moonBeastNFT",
      "outputs": [
        {
          "internalType": "contract MoonBeast",
          "name": "",
          "type": "address"
        }
      ],
      "stateMutability": "view",
      "type": "function"
    },
    {
      "inputs": [],
      "name": "_wallet",
      "outputs": [
        {
          "internalType": "address payable",
          "name": "",
          "type": "address"
        }
      ],
      "stateMutability": "view",
      "type": "function"
    },
    {
      "inputs": [
        {
          "internalType": "uint256",
          "name": "",
          "type": "uint256"
        }
      ],
      "name": "_withMintPassPricing",
      "outputs": [
        {
          "internalType": "uint256",
          "name": "",
          "type": "uint256"
        }
      ],
      "stateMutability": "view",
      "type": "function"
    },
    {
      "inputs": [
        {
          "internalType": "uint256",
          "name": "",
          "type": "uint256"
        }
      ],
      "name": "_withoutMintPassPricing",
      "outputs": [
        {
          "internalType": "uint256",
          "name": "",
          "type": "uint256"
        }
      ],
      "stateMutability": "view",
      "type": "function"
    },
    {
      "inputs": [
        {
          "internalType": "address",
          "name": "owner",
          "type": "address"
        }
      ],
      "name": "countMintByOwner",
      "outputs": [
        {
          "internalType": "uint256",
          "name": "",
          "type": "uint256"
        }
      ],
      "stateMutability": "view",
      "type": "function"
    },
    {
      "inputs": [
        {
          "internalType": "address",
          "name": "owner",
          "type": "address"
        }
      ],
      "name": "countMintPassLooking",
      "outputs": [
        {
          "internalType": "uint256",
          "name": "",
          "type": "uint256"
        }
      ],
      "stateMutability": "view",
      "type": "function"
    },
    {
      "inputs": [],
      "name": "getAvailableSlots",
      "outputs": [
        {
          "internalType": "uint256",
          "name": "",
          "type": "uint256"
        }
      ],
      "stateMutability": "view",
      "type": "function"
    },
    {
      "inputs": [],
      "name": "getContractBalance",
      "outputs": [
        {
          "internalType": "uint256",
          "name": "",
          "type": "uint256"
        }
      ],
      "stateMutability": "view",
      "type": "function"
    },
    {
      "inputs": [
        {
          "internalType": "address",
          "name": "owner",
          "type": "address"
        },
        {
          "internalType": "uint256",
          "name": "from",
          "type": "uint256"
        },
        {
          "internalType": "uint256",
          "name": "to",
          "type": "uint256"
        }
      ],
      "name": "getMintByOwner",
      "outputs": [
        {
          "components": [
            {
              "internalType": "uint256",
              "name": "tokenId",
              "type": "uint256"
            },
            {
              "internalType": "bool",
              "name": "hold",
              "type": "bool"
            }
          ],
          "internalType": "struct MoonBeastNFTSaleRound34.OwnerMintMapping[]",
          "name": "",
          "type": "tuple[]"
        }
      ],
      "stateMutability": "view",
      "type": "function"
    },
    {
      "inputs": [
        {
          "internalType": "address",
          "name": "owner",
          "type": "address"
        }
      ],
      "name": "getMintPassLooking",
      "outputs": [
        {
          "components": [
            {
              "internalType": "uint256",
              "name": "tokenId",
              "type": "uint256"
            },
            {
              "internalType": "bool",
              "name": "minted",
              "type": "bool"
            },
            {
              "internalType": "uint256[]",
              "name": "moonBeastIds",
              "type": "uint256[]"
            }
          ],
          "internalType": "struct MoonBeastNFTSaleRound34.MintPassLocking[]",
          "name": "",
          "type": "tuple[]"
        }
      ],
      "stateMutability": "view",
      "type": "function"
    },
    {
      "inputs": [
        {
          "internalType": "uint256",
          "name": "mintPassId",
          "type": "uint256"
        }
      ],
      "name": "getMintPassUsage",
      "outputs": [
        {
          "internalType": "uint256[]",
          "name": "",
          "type": "uint256[]"
        }
      ],
      "stateMutability": "view",
      "type": "function"
    },
    {
      "inputs": [
        {
          "internalType": "address",
          "name": "owner",
          "type": "address"
        },
        {
          "internalType": "uint256",
          "name": "from",
          "type": "uint256"
        },
        {
          "internalType": "uint256",
          "name": "to",
          "type": "uint256"
        }
      ],
      "name": "getMoonBeastByOwner",
      "outputs": [
        {
          "internalType": "uint256[]",
          "name": "",
          "type": "uint256[]"
        },
        {
          "internalType": "uint256",
          "name": "",
          "type": "uint256"
        }
      ],
      "stateMutability": "view",
      "type": "function"
    },
    {
      "inputs": [
        {
          "internalType": "string",
          "name": "transactionKey",
          "type": "string"
        }
      ],
      "name": "getMoonBeastsByTransactionKey",
      "outputs": [
        {
          "internalType": "uint256[]",
          "name": "",
          "type": "uint256[]"
        }
      ],
      "stateMutability": "view",
      "type": "function"
    },
    {
      "inputs": [],
      "name": "getReadySale",
      "outputs": [
        {
          "internalType": "bool",
          "name": "",
          "type": "bool"
        }
      ],
      "stateMutability": "view",
      "type": "function"
    },
    {
      "inputs": [
        {
          "internalType": "uint256",
          "name": "tokenId",
          "type": "uint256"
        }
      ],
      "name": "getTransactionByMoonBeastId",
      "outputs": [
        {
          "internalType": "string",
          "name": "",
          "type": "string"
        }
      ],
      "stateMutability": "view",
      "type": "function"
    },
    {
      "inputs": [
        {
          "internalType": "uint256",
          "name": "maxSaleAmount",
          "type": "uint256"
        },
        {
          "internalType": "uint16[]",
          "name": "packs",
          "type": "uint16[]"
        },
        {
          "internalType": "uint256[]",
          "name": "withMintPassPricing",
          "type": "uint256[]"
        },
        {
          "internalType": "uint256[]",
          "name": "withoutMintPassPricing",
          "type": "uint256[]"
        },
        {
          "internalType": "address",
          "name": "masterContract",
          "type": "address"
        },
        {
          "internalType": "address",
          "name": "mintPassNFT",
          "type": "address"
        },
        {
          "internalType": "address",
          "name": "moonBeastNFT",
          "type": "address"
        },
        {
          "internalType": "address",
          "name": "wallet",
          "type": "address"
        }
      ],
      "name": "initialize",
      "outputs": [],
      "stateMutability": "nonpayable",
      "type": "function"
    },
    {
      "inputs": [
        {
          "internalType": "uint256[]",
          "name": "mintPassIds",
          "type": "uint256[]"
        }
      ],
      "name": "lockMintPass",
      "outputs": [],
      "stateMutability": "payable",
      "type": "function"
    },
    {
      "inputs": [
        {
          "internalType": "uint16",
          "name": "pack",
          "type": "uint16"
        },
        {
          "internalType": "uint256[]",
          "name": "mintPassIds",
          "type": "uint256[]"
        },
        {
          "internalType": "string",
          "name": "transactionKey",
          "type": "string"
        }
      ],
      "name": "mintNFTWithMintPass",
      "outputs": [],
      "stateMutability": "payable",
      "type": "function"
    },
    {
      "inputs": [
        {
          "internalType": "uint16",
          "name": "pack",
          "type": "uint16"
        }
      ],
      "name": "mintNFTWithMintPassV2",
      "outputs": [],
      "stateMutability": "payable",
      "type": "function"
    },
    {
      "inputs": [
        {
          "internalType": "uint16",
          "name": "pack",
          "type": "uint16"
        },
        {
          "internalType": "string",
          "name": "transactionKey",
          "type": "string"
        }
      ],
      "name": "mintNFTWithoutMintPass",
      "outputs": [],
      "stateMutability": "payable",
      "type": "function"
    },
    {
      "inputs": [
        {
          "internalType": "uint16",
          "name": "pack",
          "type": "uint16"
        }
      ],
      "name": "mintNFTWithoutMintPassV2",
      "outputs": [],
      "stateMutability": "payable",
      "type": "function"
    },
    {
      "inputs": [
        {
          "internalType": "uint256",
          "name": "mintPassId",
          "type": "uint256"
        }
      ],
      "name": "mintPassIsMinted",
      "outputs": [
        {
          "internalType": "bool",
          "name": "",
          "type": "bool"
        }
      ],
      "stateMutability": "view",
      "type": "function"
    },
    {
      "inputs": [
        {
          "internalType": "address",
          "name": "",
          "type": "address"
        },
        {
          "internalType": "address",
          "name": "",
          "type": "address"
        },
        {
          "internalType": "uint256",
          "name": "",
          "type": "uint256"
        },
        {
          "internalType": "bytes",
          "name": "",
          "type": "bytes"
        }
      ],
      "name": "onERC721Received",
      "outputs": [
        {
          "internalType": "bytes4",
          "name": "",
          "type": "bytes4"
        }
      ],
      "stateMutability": "nonpayable",
      "type": "function"
    },
    {
      "inputs": [],
      "name": "owner",
      "outputs": [
        {
          "internalType": "address",
          "name": "",
          "type": "address"
        }
      ],
      "stateMutability": "view",
      "type": "function"
    },
    {
      "inputs": [],
      "name": "proxiableUUID",
      "outputs": [
        {
          "internalType": "bytes32",
          "name": "",
          "type": "bytes32"
        }
      ],
      "stateMutability": "view",
      "type": "function"
    },
    {
      "inputs": [],
      "name": "renounceOwnership",
      "outputs": [],
      "stateMutability": "nonpayable",
      "type": "function"
    },
    {
      "inputs": [],
      "name": "revokeAllApproved",
      "outputs": [],
      "stateMutability": "nonpayable",
      "type": "function"
    },
    {
      "inputs": [
        {
          "internalType": "address",
          "name": "operator",
          "type": "address"
        },
        {
          "internalType": "bool",
          "name": "isApproved",
          "type": "bool"
        }
      ],
      "name": "setApprovedOperator",
      "outputs": [],
      "stateMutability": "nonpayable",
      "type": "function"
    },
    {
      "inputs": [
        {
          "internalType": "address[]",
          "name": "operators",
          "type": "address[]"
        },
        {
          "internalType": "bool",
          "name": "isApproved",
          "type": "bool"
        }
      ],
      "name": "setApprovedOperators",
      "outputs": [],
      "stateMutability": "nonpayable",
      "type": "function"
    },
    {
      "inputs": [
        {
          "internalType": "uint256",
          "name": "maxSaleAmount",
          "type": "uint256"
        }
      ],
      "name": "setMaxSaleAmount",
      "outputs": [],
      "stateMutability": "nonpayable",
      "type": "function"
    },
    {
      "inputs": [
        {
          "internalType": "address",
          "name": "mintPass",
          "type": "address"
        }
      ],
      "name": "setMintPassNFT",
      "outputs": [],
      "stateMutability": "nonpayable",
      "type": "function"
    },
    {
      "inputs": [
        {
          "internalType": "address",
          "name": "moonBeast",
          "type": "address"
        }
      ],
      "name": "setMoonBeastNFT",
      "outputs": [],
      "stateMutability": "nonpayable",
      "type": "function"
    },
    {
      "inputs": [
        {
          "internalType": "bool",
          "name": "value",
          "type": "bool"
        }
      ],
      "name": "setReadySale",
      "outputs": [],
      "stateMutability": "nonpayable",
      "type": "function"
    },
    {
      "inputs": [
        {
          "internalType": "address payable",
          "name": "wallet",
          "type": "address"
        }
      ],
      "name": "setWallet",
      "outputs": [],
      "stateMutability": "nonpayable",
      "type": "function"
    },
    {
      "inputs": [
        {
          "internalType": "address",
          "name": "newOwner",
          "type": "address"
        }
      ],
      "name": "transferOwnership",
      "outputs": [],
      "stateMutability": "nonpayable",
      "type": "function"
    },
    {
      "inputs": [],
      "name": "unlockMintPass",
      "outputs": [],
      "stateMutability": "payable",
      "type": "function"
    },
    {
      "inputs": [],
      "name": "unlockMintPass2",
      "outputs": [],
      "stateMutability": "payable",
      "type": "function"
    },
    {
      "inputs": [
        {
          "internalType": "address",
          "name": "newImplementation",
          "type": "address"
        }
      ],
      "name": "upgradeTo",
      "outputs": [],
      "stateMutability": "nonpayable",
      "type": "function"
    },
    {
      "inputs": [
        {
          "internalType": "address",
          "name": "newImplementation",
          "type": "address"
        },
        {
          "internalType": "bytes",
          "name": "data",
          "type": "bytes"
        }
      ],
      "name": "upgradeToAndCall",
      "outputs": [],
      "stateMutability": "payable",
      "type": "function"
    },
    {
      "inputs": [],
      "name": "withdrawTokenByOwner",
      "outputs": [],
      "stateMutability": "nonpayable",
      "type": "function"
    }
  ],
  "bytecode": "0x60a06040523060601b6080523480156200001857600080fd5b506200002362000029565b620000eb565b600054610100900460ff1615620000965760405162461bcd60e51b815260206004820152602760248201527f496e697469616c697a61626c653a20636f6e747261637420697320696e697469604482015266616c697a696e6760c81b606482015260840160405180910390fd5b60005460ff9081161015620000e9576000805460ff191660ff9081179091556040519081527f7f26b83ff96e1f2b6a682f133852f6798a09c465da95921460cefb38474024989060200160405180910390a15b565b60805160601c61459c6200012660003960008181610d9401528181610dd40152818161144501528181611485015261153a015261459c6000f3fe60806040526004361061025c5760003560e01c8063610757e411610144578063cc8c0d7e116100b6578063de15ad081161007a578063de15ad08146106ef578063deaa59df14610702578063deed00f614610722578063f122f31614610741578063f2fde38b1461076e578063ffd6e51c1461078e57600080fd5b8063cc8c0d7e1461063f578063d3f6df6a14610654578063d49c78cc14610682578063d693b38e146106a2578063d879f395146106cf57600080fd5b80637428edea116101085780637428edea146105785780638da5cb5b1461058f57806390ad41d3146105ad578063a0c74730146105da578063b8bea6961461060a578063b9d18eae1461062a57600080fd5b8063610757e4146104cc5780636bd9eb0a146104ed5780636d02d94d1461051a5780636f9fb98a14610550578063715018a61461056357600080fd5b80632c70954d116101dd5780633c95ed07116101a15780633c95ed071461043e5780634f1ef28614610451578063514c1ba61461046457806352d1902d146104845780635d0a8f6d14610499578063603619a7146104b957600080fd5b80632c70954d146103cd5780633659cfe6146103ee578063369840d61461040e5780633bc2d10d146104165780633c5a61531461041e57600080fd5b806318da71221161022457806318da71221461033a578063228443d81461035a578063231b00981461037a5780632725368f1461038d5780632bfccd3c146103ad57600080fd5b8063044205de146102615780630848c6ca146102945780630b154c47146102a957806312c0aeb9146102e1578063150b7a02146102f6575b600080fd5b34801561026d57600080fd5b5061028161027c366004613d97565b6107ae565b6040519081526020015b60405180910390f35b6102a76102a2366004613d7b565b6107d0565b005b3480156102b557600080fd5b5060fb546102c9906001600160a01b031681565b6040516001600160a01b03909116815260200161028b565b3480156102ed57600080fd5b506102a7610928565b34801561030257600080fd5b50610321610311366004613a7b565b630a85bd0160e11b949350505050565b6040516001600160e01b0319909116815260200161028b565b34801561034657600080fd5b50610281610355366004613a41565b6109bd565b34801561036657600080fd5b506102a7610375366004613a41565b610a80565b6102a7610388366004613d08565b610b00565b34801561039957600080fd5b5060fc546102c9906001600160a01b031681565b3480156103b957600080fd5b506102a76103c8366004613a41565b610d09565b3480156103d957600080fd5b5061010a546102c9906001600160a01b031681565b3480156103fa57600080fd5b506102a7610409366004613a41565b610d89565b6102a7610e66565b6102a76110aa565b34801561042a57600080fd5b506102a7610439366004613ae6565b6112b2565b6102a761044c366004613ced565b6112c8565b6102a761045f366004613b1b565b61143a565b34801561047057600080fd5b506102a761047f366004613c85565b611507565b34801561049057600080fd5b5061028161152d565b3480156104a557600080fd5b506102a76104b4366004613d97565b6115e0565b6102a76104c7366004613ced565b6116ba565b3480156104d857600080fd5b50610109546102c9906001600160a01b031681565b3480156104f957600080fd5b5061050d610508366004613d97565b61173d565b60405161028b91906140f5565b34801561052657600080fd5b50610281610535366004613a41565b6001600160a01b0316600090815260ff602052604090205490565b34801561055c57600080fd5b5047610281565b34801561056f57600080fd5b506102a761179f565b34801561058457600080fd5b506102816101055481565b34801561059b57600080fd5b506065546001600160a01b03166102c9565b3480156105b957600080fd5b506105cd6105c8366004613d97565b6117b3565b60405161028b919061412a565b3480156105e657600080fd5b506105fa6105f5366004613d97565b61184c565b604051901515815260200161028b565b34801561061657600080fd5b506102a7610625366004613db0565b61186f565b34801561063657600080fd5b50610281611e62565b34801561064b57600080fd5b506102a7611e81565b34801561066057600080fd5b5061067461066f366004613b6a565b611f17565b60405161028b929190614108565b34801561068e57600080fd5b5061050d61069d366004613cb9565b6120e2565b3480156106ae57600080fd5b506106c26106bd366004613b6a565b612151565b60405161028b91906140a4565b3480156106db57600080fd5b506102a76106ea366004613b9f565b612339565b6102a76106fd366004613c51565b612387565b34801561070e57600080fd5b506102a761071d366004613a41565b6123fa565b34801561072e57600080fd5b5060fc54600160a01b900460ff166105fa565b34801561074d57600080fd5b5061076161075c366004613a41565b61247b565b60405161028b9190614023565b34801561077a57600080fd5b506102a7610789366004613a41565b612608565b34801561079a57600080fd5b506102816107a9366004613d97565b61267e565b61010881815481106107bf57600080fd5b600091825260209091200154905081565b600260015414156107fc5760405162461bcd60e51b81526004016107f39061432f565b60405180910390fd5b60026001556065546001600160a01b031633148061082f5750336000908152610104602052604090205460ff1615156001145b61084b5760405162461bcd60e51b81526004016107f390614268565b6108548261268f565b61085d816126a9565b60005b8261ffff16811015610888576108758261276f565b508061088081614463565b915050610860565b507fe66707350710f863090ce00b7e4d71719c22c782f15f8d3f3a8734216b03bedf81610102836040516108bc9190613eeb565b9081526040519081900360200181206108d5929161413d565b60405180910390a16000805160206145208339815191526108f66101065490565b6108fe611e62565b610105546040805193845260208401929092529082015260600160405180910390a1505060018055565b610930612881565b600047116109805760405162461bcd60e51b815260206004820152601a60248201527f436f6e74726163742062616c616e6365206973203020474c4d5200000000000060448201526064016107f3565b610109546040516001600160a01b03909116904780156108fc02916000818181858888f193505050501580156109ba573d6000803e3d6000fd5b50565b6001600160a01b038116600090815260fe60205260408120546109e257506000919050565b6000805b6001600160a01b038416600090815260fe6020526040902054811015610a79576001600160a01b038416600090815260fe60205260408120805483908110610a3057610a306144be565b90600052602060002001549050610a468161184c565b158015610a535750600081115b15610a6657610a636001846143b9565b92505b5080610a7181614463565b9150506109e6565b5092915050565b610a88612881565b6001600160a01b038116610ade5760405162461bcd60e51b815260206004820181905260248201527f4d6f6f6e42656173744e465420697320746865207a65726f206164647265737360448201526064016107f3565b60fc80546001600160a01b0319166001600160a01b0392909216919091179055565b60026001541415610b235760405162461bcd60e51b81526004016107f39061432f565b60026001556065546001600160a01b0316331480610b565750336000908152610104602052604090205460ff1615156001145b610b725760405162461bcd60e51b81526004016107f390614268565b610b7b8361268f565b610b84816126a9565b8261ffff16825114610bd85760405162461bcd60e51b815260206004820152601b60248201527f4d696e74506173732062616c616e636520697320696e76616c6964000000000060448201526064016107f3565b60005b8251811015610c6857610c06838281518110610bf957610bf96144be565b60200260200101516128db565b6000610c118361276f565b905060fd6000858481518110610c2957610c296144be565b60209081029190910181015182528181019290925260400160009081208054600181018255908252919020015580610c6081614463565b915050610bdb565b507fe66707350710f863090ce00b7e4d71719c22c782f15f8d3f3a8734216b03bedf8161010283604051610c9c9190613eeb565b908152604051908190036020018120610cb5929161413d565b60405180910390a1600080516020614520833981519152610cd66101065490565b610cde611e62565b610105546040805193845260208401929092529082015260600160405180910390a150506001805550565b610d11612881565b6001600160a01b038116610d675760405162461bcd60e51b815260206004820152601f60248201527f4d696e74506173734e465420697320746865207a65726f20616464726573730060448201526064016107f3565b60fb80546001600160a01b0319166001600160a01b0392909216919091179055565b306001600160a01b037f0000000000000000000000000000000000000000000000000000000000000000161415610dd25760405162461bcd60e51b81526004016107f3906141d0565b7f00000000000000000000000000000000000000000000000000000000000000006001600160a01b0316610e1b600080516020614500833981519152546001600160a01b031690565b6001600160a01b031614610e415760405162461bcd60e51b81526004016107f39061421c565b610e4a81612a00565b604080516000808252602082019092526109ba91839190612a08565b60026001541415610e895760405162461bcd60e51b81526004016107f39061432f565b600260015533600081815260fe6020526040902054610ee65760405162461bcd60e51b8152602060048201526019602482015278131bd8dad95908135a5b9d14185cdcc81b9bdd08199bdd5b99603a1b60448201526064016107f3565b6000610ef1826109bd565b6001600160a01b038316600090815260fe6020526040902054610f1491906143e5565b90506000816001600160401b03811115610f3057610f306144d4565b604051908082528060200260200182016040528015610f59578160200160208202803683370190505b5090506000805b6001600160a01b038516600090815260fe6020526040902054811015611075576001600160a01b038516600090815260fe60205260408120805483908110610faa57610faa6144be565b90600052602060002001549050610fc08161184c565b15610ff55780848481518110610fd857610fd86144be565b6020908102919091010152610fee6001846143b9565b9250611062565b60fb546040516323b872dd60e01b81523060048201526001600160a01b03888116602483015260448201849052909116906323b872dd90606401600060405180830381600087803b15801561104957600080fd5b505af115801561105d573d6000803e3d6000fd5b505050505b508061106d81614463565b915050610f60565b506001600160a01b038416600090815260fe60209081526040909120835161109f928501906136fb565b505060018055505050565b600260015414156110cd5760405162461bcd60e51b81526004016107f39061432f565b600260015560fc54600160a01b900460ff161561113a5760405162461bcd60e51b815260206004820152602560248201527f53616c652069732072656164792c2063616e277420756e6c6f636b204d696e74604482015264205061737360d81b60648201526084016107f3565b33600081815260fe60205260409020546111925760405162461bcd60e51b8152602060048201526019602482015278131bd8dad95908135a5b9d14185cdcc81b9bdd08199bdd5b99603a1b60448201526064016107f3565b60005b6001600160a01b038216600090815260fe60205260409020548110156112785760fb546001600160a01b03838116600090815260fe60205260409020805491909216916323b872dd9130918691869081106111f2576111f26144be565b6000918252602090912001546040516001600160e01b031960e086901b1681526001600160a01b0393841660048201529290911660248301526044820152606401600060405180830381600087803b15801561124d57600080fd5b505af1158015611261573d6000803e3d6000fd5b50505050808061127090614463565b915050611195565b5060408051600080825260208083018085526001600160a01b038616835260fe90915292902090516112aa92906136fb565b505060018055565b6112ba612881565b6112c48282612b82565b5050565b600260015414156112eb5760405162461bcd60e51b81526004016107f39061432f565b60026001556112f98161268f565b61130581346001612d21565b336000611311826109bd565b9050808361ffff16111561135f5760405162461bcd60e51b8152602060048201526015602482015274496e73756666696369656e74204d696e745061737360581b60448201526064016107f3565b60005b8361ffff1681101561142057600061137984612dd6565b9050806113de5760405162461bcd60e51b815260206004820152602d60248201527f5b4d696e7450617373206c6f636b6564206973206e6f74206d696e7465645d2060448201526c1dd85cc81b9bdd08199bdd5b99609a1b60648201526084016107f3565b60006113e985612e61565b600092835260fd6020908152604084208054600181018255908552932090920191909155508061141881614463565b915050611362565b50600080516020614520833981519152610cd66101065490565b306001600160a01b037f00000000000000000000000000000000000000000000000000000000000000001614156114835760405162461bcd60e51b81526004016107f3906141d0565b7f00000000000000000000000000000000000000000000000000000000000000006001600160a01b03166114cc600080516020614500833981519152546001600160a01b031690565b6001600160a01b0316146114f25760405162461bcd60e51b81526004016107f39061421c565b6114fb82612a00565b6112c482826001612a08565b61150f612881565b60fc8054911515600160a01b0260ff60a01b19909216919091179055565b6000306001600160a01b037f000000000000000000000000000000000000000000000000000000000000000016146115cd5760405162461bcd60e51b815260206004820152603860248201527f555550535570677261646561626c653a206d757374206e6f742062652063616c60448201527f6c6564207468726f7567682064656c656761746563616c6c000000000000000060648201526084016107f3565b5060008051602061450083398151915290565b6115e8612881565b600081116116445760405162461bcd60e51b8152602060048201526024808201527f4d617853616c65416d6f756e74206d75737420626520677265617465722074686044820152630616e20360e41b60648201526084016107f3565b6101065481116116b45760405162461bcd60e51b815260206004820152603560248201527f4d617853616c65416d6f756e74206d7573742062652067726561746572207468604482015274185b8817d8dd5c9c995b9d14dbdb19105b5bdd5b9d605a1b60648201526084016107f3565b61010555565b600260015414156116dd5760405162461bcd60e51b81526004016107f39061432f565b60026001556116eb8161268f565b6116f781346000612d21565b3360005b8261ffff168110156117235761171082612e61565b508061171b81614463565b9150506116fb565b506000805160206145208339815191526108f66101065490565b600081815260fd602090815260409182902080548351818402810184019094528084526060939283018282801561179357602002820191906000526020600020905b81548152602001906001019080831161177f575b50505050509050919050565b6117a7612881565b6117b16000612f49565b565b6000818152610100602052604090208054606091906117d190614428565b80601f01602080910402602001604051908101604052809291908181526020018280546117fd90614428565b80156117935780601f1061181f57610100808354040283529160200191611793565b820191906000526020600020905b81548152906001019060200180831161182d5750939695505050505050565b600081815260fd6020526040812054158015906118695750600082115b92915050565b600054610100900460ff161580801561188f5750600054600160ff909116105b806118a95750303b1580156118a9575060005460ff166001145b61190c5760405162461bcd60e51b815260206004820152602e60248201527f496e697469616c697a61626c653a20636f6e747261637420697320616c72656160448201526d191e481a5b9a5d1a585b1a5e995960921b60648201526084016107f3565b6000805460ff19166001179055801561192f576000805461ff0019166101001790555b6000891161198b5760405162461bcd60e51b8152602060048201526024808201527f6d617853616c65416d6f756e74206d75737420626520677265617465722074686044820152630616e20360e41b60648201526084016107f3565b6001600160a01b0384166119e15760405162461bcd60e51b815260206004820152601f60248201527f6d696e74506173734e465420697320746865207a65726f20616464726573730060448201526064016107f3565b6001600160a01b038316611a375760405162461bcd60e51b815260206004820181905260248201527f6d6f6f6e42656173744e465420697320746865207a65726f206164647265737360448201526064016107f3565b6001600160a01b038216611a8d5760405162461bcd60e51b815260206004820152601a60248201527f77616c6c657420697320746865207a65726f206164647265737300000000000060448201526064016107f3565b6001600160a01b038516611aee5760405162461bcd60e51b815260206004820152602260248201527f4d6173746572436f6e747261637420697320746865207a65726f206164647265604482015261737360f01b60648201526084016107f3565b6000885111611b325760405162461bcd60e51b815260206004820152601060248201526f141858dadcc81a5cc81a5b9d985b1a5960821b60448201526064016107f3565b8651885114611b835760405162461bcd60e51b815260206004820181905260248201527f5061636b7320616e6420707269636573206973206e6f74206d61746368696e6760448201526064016107f3565b8551885114611bd45760405162461bcd60e51b815260206004820181905260248201527f5061636b7320616e6420707269636573206973206e6f74206d61746368696e6760448201526064016107f3565b611bdc612f9b565b611be4612fca565b61010589905560fb80546001600160a01b038087166001600160a01b03199283161790925560fc80548684169083161790556101098054928516929091169190911790558751611c3c906101019060208b0190613746565b508651611c51906101079060208a01906136fb565b508551611c66906101089060208901906136fb565b5061010a80546001600160a01b0319166001600160a01b03871617905560fc805460ff60a01b1916905560005b61010154811015611e105760006101018281548110611cb457611cb46144be565b60009182526020909120601082040154600f9091166002026101000a900461ffff1611611d165760405162461bcd60e51b815260206004820152601060248201526f141858dadcc81a5cc81a5b9d985b1a5960821b60448201526064016107f3565b60006101078281548110611d2c57611d2c6144be565b906000526020600020015411611d845760405162461bcd60e51b815260206004820181905260248201527f50726963696e672077697468204d696e745061737320697320696e76616c696460448201526064016107f3565b60006101088281548110611d9a57611d9a6144be565b906000526020600020015411611dfe5760405162461bcd60e51b815260206004820152602360248201527f50726963696e6720776974686f7574204d696e745061737320697320696e76616044820152621b1a5960ea1b60648201526084016107f3565b80611e0881614463565b915050611c93565b508015611e57576000805461ff0019169055604051600181527f7f26b83ff96e1f2b6a682f133852f6798a09c465da95921460cefb38474024989060200160405180910390a15b505050505050505050565b6000611e6e6101065490565b61010554611e7c91906143e5565b905090565b611e89612881565b60005b61010354811015611ef857600061010460006101038481548110611eb257611eb26144be565b6000918252602080832091909101546001600160a01b031683528201929092526040019020805460ff191691151591909117905580611ef081614463565b915050611e8c565b5060408051600081526020810191829052516109ba91610103916137ea565b60606000828410611f3a5760405162461bcd60e51b81526004016107f3906142b7565b60fc546040516370a0823160e01b81526001600160a01b03878116600483015260009216906370a082319060240160206040518083038186803b158015611f8057600080fd5b505afa158015611f94573d6000803e3d6000fd5b505050506040513d601f19601f82011682018060405250810190611fb89190613ca0565b9050808410611fd95760405162461bcd60e51b81526004016107f3906142b7565b6000611fe586866143e5565b611ff09060016143b9565b6001600160401b03811115612007576120076144d4565b604051908082528060200260200182016040528015612030578160200160208202803683370190505b509050855b8581116120d65760fc54604051632f745c5960e01b81526001600160a01b038a81166004830152602482018490526000921690632f745c599060440160206040518083038186803b15801561208957600080fd5b505afa15801561209d573d6000803e3d6000fd5b505050506040513d601f19601f820116820180604052508101906120c19190613ca0565b508190506120ce81614463565b915050612035565b50969095509350505050565b6060610102826040516120f59190613eeb565b9081526040805191829003602090810183208054808302850183019093528284529190830182828015611793576020028201919060005260206000209081548152602001906001019080831161177f5750505050509050919050565b60608183106121725760405162461bcd60e51b81526004016107f3906142b7565b6001600160a01b038416600090815260ff602052604090205482106121a95760405162461bcd60e51b81526004016107f3906142b7565b60006121b584846143e5565b6121c09060016143b9565b6001600160401b038111156121d7576121d76144d4565b60405190808252806020026020018201604052801561221c57816020015b60408051808201909152600080825260208201528152602001906001900390816121f55790505b509050835b83811161232e576001600160a01b038616600090815260ff60205260408120805483908110612252576122526144be565b6000918252602091829020015460408051808201825282815260fc5491516331a9108f60e11b815260048101849052929450928301916001600160a01b038b8116921690636352211e9060240160206040518083038186803b1580156122b757600080fd5b505afa1580156122cb573d6000803e3d6000fd5b505050506040513d601f19601f820116820180604052508101906122ef9190613a5e565b6001600160a01b0316149052835184908490811061230f5761230f6144be565b602002602001018190525050808061232690614463565b915050612221565b5090505b9392505050565b612341612881565b60005b825181101561238257612370838281518110612362576123626144be565b602002602001015183612b82565b8061237a81614463565b915050612344565b505050565b600260015414156123aa5760405162461bcd60e51b81526004016107f39061432f565b60026001553360005b82518110156123f1576123df828483815181106123d2576123d26144be565b6020026020010151612ff1565b806123e981614463565b9150506123b3565b50506001805550565b612402612881565b6001600160a01b0381166124585760405162461bcd60e51b815260206004820152601a60248201527f57616c6c657420697320746865207a65726f206164647265737300000000000060448201526064016107f3565b61010980546001600160a01b0319166001600160a01b0392909216919091179055565b6001600160a01b038116600090815260fe6020526040812054606091906001600160401b038111156124af576124af6144d4565b6040519080825280602002602001820160405280156124fc57816020015b604080516060808201835260008083526020830152918101919091528152602001906001900390816124cd5790505b50905060005b6001600160a01b038416600090815260fe6020526040902054811015610a79576001600160a01b038416600090815260fe6020526040812080548390811061254c5761254c6144be565b9060005260206000200154905060405180606001604052808281526020016125738361184c565b15158152600083815260fd602090815260409182902080548351818402810184019094528084529382019390918301828280156125cf57602002820191906000526020600020905b8154815260200190600101908083116125bb575b50505050508152508383815181106125e9576125e96144be565b602002602001018190525050808061260090614463565b915050612502565b612610612881565b6001600160a01b0381166126755760405162461bcd60e51b815260206004820152602660248201527f4f776e61626c653a206e6577206f776e657220697320746865207a65726f206160448201526564647265737360d01b60648201526084016107f3565b6109ba81612f49565b61010781815481106107bf57600080fd5b61269761315b565b6126a0816131ac565b6109ba81613256565b80516126f75760405162461bcd60e51b815260206004820152601b60248201527f5472616e73616374696f6e206b6579206973207265717569726564000000000060448201526064016107f3565b610102816040516127089190613eeb565b90815260405190819003602001902054156109ba5760405162461bcd60e51b815260206004820152602160248201527f546865207472616e73616374696f6e206b657920686173206265656e207573656044820152601960fa1b60648201526084016107f3565b60fc5461010a546040516354ba0f2760e01b81526001600160a01b039182166004820152600092839216906354ba0f2790602401602060405180830381600087803b1580156127bd57600080fd5b505af11580156127d1573d6000803e3d6000fd5b505050506040513d601f19601f820116820180604052508101906127f59190613ca0565b61010a546001600160a01b0316600090815260ff6020908152604082208054600181018255908352912001819055905061283461010680546001019055565b610102836040516128459190613eeb565b908152604080516020928190038301902080546001810182556000918252838220018490558381526101008352208451610a799286019061383f565b6065546001600160a01b031633146117b15760405162461bcd60e51b815260206004820181905260248201527f4f776e61626c653a2063616c6c6572206973206e6f7420746865206f776e657260448201526064016107f3565b61010a5460fb546040516331a9108f60e11b8152600481018490526001600160a01b039283169290911690636352211e9060240160206040518083038186803b15801561292757600080fd5b505afa15801561293b573d6000803e3d6000fd5b505050506040513d601f19601f8201168201806040525081019061295f9190613a5e565b6001600160a01b0316146129728261330a565b6040516020016129829190613fd9565b604051602081830303815290604052906129af5760405162461bcd60e51b81526004016107f3919061412a565b506129b98161184c565b156129c38261330a565b6040516020016129d39190613f7d565b604051602081830303815290604052906112c45760405162461bcd60e51b81526004016107f3919061412a565b6109ba612881565b7f4910fdfa16fed3260ed0e7147f7cc6da11a60208b5b9406d12a635614ffd91435460ff1615612a3b576123828361340f565b826001600160a01b03166352d1902d6040518163ffffffff1660e01b815260040160206040518083038186803b158015612a7457600080fd5b505afa925050508015612aa4575060408051601f3d908101601f19168201909252612aa191810190613ca0565b60015b612b075760405162461bcd60e51b815260206004820152602e60248201527f45524331393637557067726164653a206e657720696d706c656d656e7461746960448201526d6f6e206973206e6f74205555505360901b60648201526084016107f3565b6000805160206145008339815191528114612b765760405162461bcd60e51b815260206004820152602960248201527f45524331393637557067726164653a20756e737570706f727465642070726f786044820152681a58589b195555525160ba1b60648201526084016107f3565b506123828383836134ab565b6001600160a01b038216612be25760405162461bcd60e51b815260206004820152602160248201527f5468656f206f70657261746f7220697320746865207a65726f206164647265736044820152607360f81b60648201526084016107f3565b6001600160a01b038216301415612c495760405162461bcd60e51b815260206004820152602560248201527f546865206f70657261746f72206973207468697320636f6e7472616374206164604482015264647265737360d81b60648201526084016107f3565b610109546001600160a01b0383811691161415612c785760405162461bcd60e51b81526004016107f39061418d565b6001600160a01b038216331415612ca15760405162461bcd60e51b81526004016107f39061418d565b6001600160a01b038216600090815261010460205260409020805460ff191682158015919091179091556112c45761010380546001810182556000919091527f02c297ab74aad0aede3a1895c857b1f2c71e6a203feb727bec95ac752998cb780180546001600160a01b0384166001600160a01b03199091161790555050565b6000612d8c8483612d3457610108612d38565b6101075b805480602002602001604051908101604052809291908181526020018280548015612d8257602002820191906000526020600020905b815481526020019060010190808311612d6e575b50505050506134d0565b9050808314612dd05760405162461bcd60e51b815260206004820152601060248201526f141c9a58d9481a5cc81a5b9d985b1a5960821b60448201526064016107f3565b50505050565b6000805b6001600160a01b038316600090815260fe6020526040902054811015612e58576001600160a01b038316600090815260fe60205260408120805483908110612e2457612e246144be565b90600052602060002001549050612e3a8161184c565b612e45579392505050565b5080612e5081614463565b915050612dda565b50600092915050565b60fc546040516354ba0f2760e01b81526001600160a01b03838116600483015260009283929116906354ba0f2790602401602060405180830381600087803b158015612eac57600080fd5b505af1158015612ec0573d6000803e3d6000fd5b505050506040513d601f19601f82011682018060405250810190612ee49190613ca0565b6001600160a01b038416600090815260ff60209081526040822080546001810182559083529120018190559050612f2061010680546001019055565b60408051602080820180845260008084528581526101009092529290209051610a79929061383f565b606580546001600160a01b038381166001600160a01b0319831681179093556040519116919082907f8be0079c531659141344cd1fd0a4f28419497f9722a3daafe3b4186f6b6457e090600090a35050565b600054610100900460ff16612fc25760405162461bcd60e51b81526004016107f3906142e4565b6117b161355e565b600054610100900460ff166117b15760405162461bcd60e51b81526004016107f3906142e4565b60fb546040516331a9108f60e11b8152600481018390526001600160a01b03848116921690636352211e9060240160206040518083038186803b15801561303757600080fd5b505afa15801561304b573d6000803e3d6000fd5b505050506040513d601f19601f8201168201806040525081019061306f9190613a5e565b6001600160a01b0316146130c55760405162461bcd60e51b815260206004820152601960248201527f43616c6c6572206973206e6f7420746f6b656e206f776e65720000000000000060448201526064016107f3565b6001600160a01b03828116600081815260fe602090815260408083208054600181018255908452919092200184905560fb5490516323b872dd60e01b8152600481019290925230602483015260448201849052909116906323b872dd90606401600060405180830381600087803b15801561313f57600080fd5b505af1158015613153573d6000803e3d6000fd5b505050505050565b60fc54600160a01b900460ff166117b15760405162461bcd60e51b81526020600482015260156024820152744d696e74204e4654206973206e6f7420726561647960581b60448201526064016107f3565b6000805b610101548110156132195761010181815481106131cf576131cf6144be565b90600052602060002090601091828204019190066002029054906101000a900461ffff1661ffff168361ffff16141561320757600191505b8061321181614463565b9150506131b0565b50806112c45760405162461bcd60e51b815260206004820152600c60248201526b141858dac81a5b9d985b1a5960a21b60448201526064016107f3565b60006132626101065490565b6101055461327091906143e5565b90508161ffff168110156132838261330a565b600183116132ad57604051806040016040528060048152602001630813919560e21b8152506132cc565b60405180604001604052806005815260200164204e46547360d81b8152505b6040516020016132dd929190613f07565b604051602081830303815290604052906123825760405162461bcd60e51b81526004016107f3919061412a565b60608161332e5750506040805180820190915260018152600360fc1b602082015290565b8160005b8115613358578061334281614463565b91506133519050600a836143d1565b9150613332565b6000816001600160401b03811115613372576133726144d4565b6040519080825280601f01601f19166020018201604052801561339c576020820181803683370190505b5090505b8415613407576133b16001836143e5565b91506133be600a8661447e565b6133c99060306143b9565b60f81b8183815181106133de576133de6144be565b60200101906001600160f81b031916908160001a905350613400600a866143d1565b94506133a0565b949350505050565b6001600160a01b0381163b61347c5760405162461bcd60e51b815260206004820152602d60248201527f455243313936373a206e657720696d706c656d656e746174696f6e206973206e60448201526c1bdd08184818dbdb9d1c9858dd609a1b60648201526084016107f3565b60008051602061450083398151915280546001600160a01b0319166001600160a01b0392909216919091179055565b6134b48361358e565b6000825111806134c15750805b1561238257612dd083836135ce565b600080805b610101548110156135565761010181815481106134f4576134f46144be565b90600052602060002090601091828204019190066002029054906101000a900461ffff1661ffff168561ffff16141561354457838181518110613539576135396144be565b602002602001015191505b8061354e81614463565b9150506134d5565b509392505050565b600054610100900460ff166135855760405162461bcd60e51b81526004016107f3906142e4565b6117b133612f49565b6135978161340f565b6040516001600160a01b038216907fbc7cd75a20ee27fd9adebab32041f755214dbc6bffa90cc0225b39da2e5c2d3b90600090a250565b60606001600160a01b0383163b6136365760405162461bcd60e51b815260206004820152602660248201527f416464726573733a2064656c65676174652063616c6c20746f206e6f6e2d636f6044820152651b9d1c9858dd60d21b60648201526084016107f3565b600080846001600160a01b0316846040516136519190613eeb565b600060405180830381855af49150503d806000811461368c576040519150601f19603f3d011682016040523d82523d6000602084013e613691565b606091505b50915091506136b98282604051806060016040528060278152602001614540602791396136c2565b95945050505050565b606083156136d1575081612332565b8251156136e15782518084602001fd5b8160405162461bcd60e51b81526004016107f3919061412a565b828054828255906000526020600020908101928215613736579160200282015b8281111561373657825182559160200191906001019061371b565b506137429291506138b2565b5090565b82805482825590600052602060002090600f016010900481019282156137365791602002820160005b838211156137af57835183826101000a81548161ffff021916908361ffff160217905550926020019260020160208160010104928301926001030261376f565b80156137dd5782816101000a81549061ffff02191690556002016020816001010492830192600103026137af565b50506137429291506138b2565b828054828255906000526020600020908101928215613736579160200282015b8281111561373657825182546001600160a01b0319166001600160a01b0390911617825560209092019160019091019061380a565b82805461384b90614428565b90600052602060002090601f01602090048101928261386d5760008555613736565b82601f1061388657805160ff1916838001178555613736565b82800160010185558215613736579182018281111561373657825182559160200191906001019061371b565b5b8082111561374257600081556001016138b3565b80356138d2816144ea565b919050565b600082601f8301126138e857600080fd5b813560206138fd6138f883614396565b614366565b80838252828201915082860187848660051b890101111561391d57600080fd5b60005b858110156139435761393182613a2f565b84529284019290840190600101613920565b5090979650505050505050565b600082601f83011261396157600080fd5b813560206139716138f883614396565b80838252828201915082860187848660051b890101111561399157600080fd5b60005b8581101561394357813584529284019290840190600101613994565b803580151581146138d257600080fd5b600082601f8301126139d157600080fd5b81356001600160401b038111156139ea576139ea6144d4565b6139fd601f8201601f1916602001614366565b818152846020838601011115613a1257600080fd5b816020850160208301376000918101602001919091529392505050565b803561ffff811681146138d257600080fd5b600060208284031215613a5357600080fd5b8135612332816144ea565b600060208284031215613a7057600080fd5b8151612332816144ea565b60008060008060808587031215613a9157600080fd5b8435613a9c816144ea565b93506020850135613aac816144ea565b92506040850135915060608501356001600160401b03811115613ace57600080fd5b613ada878288016139c0565b91505092959194509250565b60008060408385031215613af957600080fd5b8235613b04816144ea565b9150613b12602084016139b0565b90509250929050565b60008060408385031215613b2e57600080fd5b8235613b39816144ea565b915060208301356001600160401b03811115613b5457600080fd5b613b60858286016139c0565b9150509250929050565b600080600060608486031215613b7f57600080fd5b8335613b8a816144ea565b95602085013595506040909401359392505050565b60008060408385031215613bb257600080fd5b82356001600160401b03811115613bc857600080fd5b8301601f81018513613bd957600080fd5b80356020613be96138f883614396565b80838252828201915082850189848660051b8801011115613c0957600080fd5b600095505b84861015613c35578035613c21816144ea565b835260019590950194918301918301613c0e565b509550613c4590508682016139b0565b93505050509250929050565b600060208284031215613c6357600080fd5b81356001600160401b03811115613c7957600080fd5b61340784828501613950565b600060208284031215613c9757600080fd5b612332826139b0565b600060208284031215613cb257600080fd5b5051919050565b600060208284031215613ccb57600080fd5b81356001600160401b03811115613ce157600080fd5b613407848285016139c0565b600060208284031215613cff57600080fd5b61233282613a2f565b600080600060608486031215613d1d57600080fd5b613d2684613a2f565b925060208401356001600160401b0380821115613d4257600080fd5b613d4e87838801613950565b93506040860135915080821115613d6457600080fd5b50613d71868287016139c0565b9150509250925092565b60008060408385031215613d8e57600080fd5b613b3983613a2f565b600060208284031215613da957600080fd5b5035919050565b600080600080600080600080610100898b031215613dcd57600080fd5b8835975060208901356001600160401b0380821115613deb57600080fd5b613df78c838d016138d7565b985060408b0135915080821115613e0d57600080fd5b613e198c838d01613950565b975060608b0135915080821115613e2f57600080fd5b50613e3c8b828c01613950565b955050613e4b60808a016138c7565b9350613e5960a08a016138c7565b9250613e6760c08a016138c7565b9150613e7560e08a016138c7565b90509295985092959890939650565b600081518084526020808501945080840160005b83811015613eb457815187529582019590820190600101613e98565b509495945050505050565b60008151808452613ed78160208601602086016143fc565b601f01601f19169290920160200192915050565b60008251613efd8184602087016143fc565b9190910192915050565b7f546865206e756d626572206f66204e465473206973206e6f7420656e6f756768815271016103a3434b9903937bab732103632b33a160751b602082015260008351613f5a8160328501602088016143fc565b835190830190613f718160328401602088016143fc565b01603201949350505050565b6c4d696e74506173734e4654202360981b815260008251613fa581600d8501602087016143fc565b7f20776173207573656420696e207468697320726f756e64000000000000000000600d939091019283015250602401919050565b6c4d696e74506173734e4654202360981b81526000825161400181600d8501602087016143fc565b6a081a5cc81a5b9d985b1a5960aa1b600d939091019283015250601801919050565b60006020808301818452808551808352604092508286019150828160051b87010184880160005b8381101561409657888303603f1901855281518051845287810151151588850152860151606087850181905261408281860183613e84565b96890196945050509086019060010161404a565b509098975050505050505050565b602080825282518282018190526000919060409081850190868401855b828110156140e85781518051855286015115158685015292840192908501906001016140c1565b5091979650505050505050565b6020815260006123326020830184613e84565b60408152600061411b6040830185613e84565b90508260208301529392505050565b6020815260006123326020830184613ebf565b6040815260006141506040830185613ebf565b60208382038185015281855480845282840191508660005282600020935060005b8181101561394357845483526001948501949284019201614171565b60208082526023908201527f546865206f70657261746f7220697320746865206f776e65722773206164647260408201526265737360e81b606082015260800190565b6020808252602c908201527f46756e6374696f6e206d7573742062652063616c6c6564207468726f7567682060408201526b19195b1959d85d1958d85b1b60a21b606082015260800190565b6020808252602c908201527f46756e6374696f6e206d7573742062652063616c6c6564207468726f7567682060408201526b6163746976652070726f787960a01b606082015260800190565b6020808252602f908201527f4f776e61626c653a2063616c6c6572206973206e6f7420746865206f776e657260408201526e081bdc881a5cc8185c1c1c9bdd9959608a1b606082015260800190565b60208082526013908201527214185c985b595d195c9cc81a5b881d985b1a59606a1b604082015260600190565b6020808252602b908201527f496e697469616c697a61626c653a20636f6e7472616374206973206e6f74206960408201526a6e697469616c697a696e6760a81b606082015260800190565b6020808252601f908201527f5265656e7472616e637947756172643a207265656e7472616e742063616c6c00604082015260600190565b604051601f8201601f191681016001600160401b038111828210171561438e5761438e6144d4565b604052919050565b60006001600160401b038211156143af576143af6144d4565b5060051b60200190565b600082198211156143cc576143cc614492565b500190565b6000826143e0576143e06144a8565b500490565b6000828210156143f7576143f7614492565b500390565b60005b838110156144175781810151838201526020016143ff565b83811115612dd05750506000910152565b600181811c9082168061443c57607f821691505b6020821081141561445d57634e487b7160e01b600052602260045260246000fd5b50919050565b600060001982141561447757614477614492565b5060010190565b60008261448d5761448d6144a8565b500690565b634e487b7160e01b600052601160045260246000fd5b634e487b7160e01b600052601260045260246000fd5b634e487b7160e01b600052603260045260246000fd5b634e487b7160e01b600052604160045260246000fd5b6001600160a01b03811681146109ba57600080fdfe360894a13ba1a3210667c828492db98dca3e2076cc3735a920a3ca505d382bbc69031b1a7e7913762e884dd55b4b42c47d8a362a2715200304a1e1a0f63ec309416464726573733a206c6f772d6c6576656c2064656c65676174652063616c6c206661696c6564a264697066735822122058ee386738bd30cde74a6050d7cf67f8577b3194424986fb5073c752e4f8d6c064736f6c63430008070033",
  "linkReferences": {},
  "deployedLinkReferences": {}
}