{
  "_format": "hh-sol-artifact-1",
  "contractName": "UMoonFitNFTWorldCupSale",
  "sourceName": "contracts/upgradeables/UMoonFitNFTWorldCupSale.sol",
  "abi": [
    {
      "inputs": [],
      "stateMutability": "nonpayable",
      "type": "constructor"
    },
    {
      "anonymous": false,
      "inputs": [
        {
          "indexed": false,
          "internalType": "address",
          "name": "previousAdmin",
          "type": "address"
        },
        {
          "indexed": false,
          "internalType": "address",
          "name": "newAdmin",
          "type": "address"
        }
      ],
      "name": "AdminChanged",
      "type": "event"
    },
    {
      "anonymous": false,
      "inputs": [
        {
          "indexed": true,
          "internalType": "address",
          "name": "beacon",
          "type": "address"
        }
      ],
      "name": "BeaconUpgraded",
      "type": "event"
    },
    {
      "anonymous": false,
      "inputs": [
        {
          "indexed": false,
          "internalType": "uint8",
          "name": "version",
          "type": "uint8"
        }
      ],
      "name": "Initialized",
      "type": "event"
    },
    {
      "anonymous": false,
      "inputs": [
        {
          "indexed": false,
          "internalType": "address",
          "name": "beneficiary",
          "type": "address"
        }
      ],
      "name": "NFTPurchased",
      "type": "event"
    },
    {
      "anonymous": false,
      "inputs": [
        {
          "indexed": true,
          "internalType": "address",
          "name": "previousOwner",
          "type": "address"
        },
        {
          "indexed": true,
          "internalType": "address",
          "name": "newOwner",
          "type": "address"
        }
      ],
      "name": "OwnershipTransferred",
      "type": "event"
    },
    {
      "anonymous": false,
      "inputs": [
        {
          "indexed": false,
          "internalType": "uint256",
          "name": "soldAmount",
          "type": "uint256"
        },
        {
          "indexed": false,
          "internalType": "uint256",
          "name": "availableSlot",
          "type": "uint256"
        },
        {
          "indexed": false,
          "internalType": "uint256",
          "name": "maxSaleAmount",
          "type": "uint256"
        }
      ],
      "name": "UpdateSaleAmount",
      "type": "event"
    },
    {
      "anonymous": false,
      "inputs": [
        {
          "indexed": true,
          "internalType": "address",
          "name": "implementation",
          "type": "address"
        }
      ],
      "name": "Upgraded",
      "type": "event"
    },
    {
      "inputs": [],
      "name": "_maxSaleAmount",
      "outputs": [
        {
          "internalType": "uint256",
          "name": "",
          "type": "uint256"
        }
      ],
      "stateMutability": "view",
      "type": "function"
    },
    {
      "inputs": [],
      "name": "_moonBeastNFT",
      "outputs": [
        {
          "internalType": "contract MoonBeast",
          "name": "",
          "type": "address"
        }
      ],
      "stateMutability": "view",
      "type": "function"
    },
    {
      "inputs": [],
      "name": "_price",
      "outputs": [
        {
          "internalType": "uint256",
          "name": "",
          "type": "uint256"
        }
      ],
      "stateMutability": "view",
      "type": "function"
    },
    {
      "inputs": [
        {
          "internalType": "uint256",
          "name": "",
          "type": "uint256"
        }
      ],
      "name": "_teams",
      "outputs": [
        {
          "internalType": "string",
          "name": "",
          "type": "string"
        }
      ],
      "stateMutability": "view",
      "type": "function"
    },
    {
      "inputs": [],
      "name": "_wallet",
      "outputs": [
        {
          "internalType": "address payable",
          "name": "",
          "type": "address"
        }
      ],
      "stateMutability": "view",
      "type": "function"
    },
    {
      "inputs": [
        {
          "internalType": "uint16",
          "name": "amount",
          "type": "uint16"
        },
        {
          "internalType": "string",
          "name": "team",
          "type": "string"
        }
      ],
      "name": "buyNFT",
      "outputs": [],
      "stateMutability": "payable",
      "type": "function"
    },
    {
      "inputs": [
        {
          "internalType": "uint256",
          "name": "tokenId",
          "type": "uint256"
        }
      ],
      "name": "checkMintByContract",
      "outputs": [
        {
          "internalType": "bool",
          "name": "",
          "type": "bool"
        }
      ],
      "stateMutability": "view",
      "type": "function"
    },
    {
      "inputs": [
        {
          "internalType": "address",
          "name": "owner",
          "type": "address"
        },
        {
          "internalType": "uint256",
          "name": "tokenId",
          "type": "uint256"
        }
      ],
      "name": "checkOwnerMinted",
      "outputs": [
        {
          "internalType": "bool",
          "name": "",
          "type": "bool"
        }
      ],
      "stateMutability": "view",
      "type": "function"
    },
    {
      "inputs": [],
      "name": "getAvailableSlots",
      "outputs": [
        {
          "internalType": "uint256",
          "name": "",
          "type": "uint256"
        }
      ],
      "stateMutability": "view",
      "type": "function"
    },
    {
      "inputs": [],
      "name": "getContractBalance",
      "outputs": [
        {
          "internalType": "uint256",
          "name": "",
          "type": "uint256"
        }
      ],
      "stateMutability": "view",
      "type": "function"
    },
    {
      "inputs": [
        {
          "internalType": "address",
          "name": "owner",
          "type": "address"
        },
        {
          "internalType": "uint256[]",
          "name": "arrIndex",
          "type": "uint256[]"
        }
      ],
      "name": "getMoonBeast",
      "outputs": [
        {
          "components": [
            {
              "internalType": "uint256",
              "name": "tokenId",
              "type": "uint256"
            },
            {
              "internalType": "string",
              "name": "uri",
              "type": "string"
            },
            {
              "internalType": "bool",
              "name": "mintByContract",
              "type": "bool"
            },
            {
              "internalType": "bool",
              "name": "isOwnerMinted",
              "type": "bool"
            }
          ],
          "internalType": "struct MoonBeastNFTSale[]",
          "name": "",
          "type": "tuple[]"
        }
      ],
      "stateMutability": "view",
      "type": "function"
    },
    {
      "inputs": [],
      "name": "getReadySale",
      "outputs": [
        {
          "internalType": "bool",
          "name": "",
          "type": "bool"
        }
      ],
      "stateMutability": "view",
      "type": "function"
    },
    {
      "inputs": [
        {
          "internalType": "uint256",
          "name": "tokenId",
          "type": "uint256"
        }
      ],
      "name": "getTeamByTokenId",
      "outputs": [
        {
          "internalType": "string",
          "name": "",
          "type": "string"
        }
      ],
      "stateMutability": "view",
      "type": "function"
    },
    {
      "inputs": [],
      "name": "getTeams",
      "outputs": [
        {
          "internalType": "string[]",
          "name": "",
          "type": "string[]"
        }
      ],
      "stateMutability": "view",
      "type": "function"
    },
    {
      "inputs": [
        {
          "internalType": "uint256",
          "name": "maxSaleAmount",
          "type": "uint256"
        },
        {
          "internalType": "uint256",
          "name": "price",
          "type": "uint256"
        },
        {
          "internalType": "address",
          "name": "moonBeastNFT",
          "type": "address"
        },
        {
          "internalType": "address",
          "name": "wallet",
          "type": "address"
        },
        {
          "internalType": "string[]",
          "name": "teams",
          "type": "string[]"
        }
      ],
      "name": "initialize",
      "outputs": [],
      "stateMutability": "nonpayable",
      "type": "function"
    },
    {
      "inputs": [],
      "name": "owner",
      "outputs": [
        {
          "internalType": "address",
          "name": "",
          "type": "address"
        }
      ],
      "stateMutability": "view",
      "type": "function"
    },
    {
      "inputs": [],
      "name": "proxiableUUID",
      "outputs": [
        {
          "internalType": "bytes32",
          "name": "",
          "type": "bytes32"
        }
      ],
      "stateMutability": "view",
      "type": "function"
    },
    {
      "inputs": [],
      "name": "renounceOwnership",
      "outputs": [],
      "stateMutability": "nonpayable",
      "type": "function"
    },
    {
      "inputs": [
        {
          "internalType": "uint256",
          "name": "maxSaleAmount",
          "type": "uint256"
        }
      ],
      "name": "setMaxSaleAmount",
      "outputs": [],
      "stateMutability": "nonpayable",
      "type": "function"
    },
    {
      "inputs": [
        {
          "internalType": "address",
          "name": "moonBeast",
          "type": "address"
        }
      ],
      "name": "setMoonBeastNFT",
      "outputs": [],
      "stateMutability": "nonpayable",
      "type": "function"
    },
    {
      "inputs": [
        {
          "internalType": "uint256",
          "name": "price",
          "type": "uint256"
        }
      ],
      "name": "setPrice",
      "outputs": [],
      "stateMutability": "nonpayable",
      "type": "function"
    },
    {
      "inputs": [
        {
          "internalType": "bool",
          "name": "value",
          "type": "bool"
        }
      ],
      "name": "setReadySale",
      "outputs": [],
      "stateMutability": "nonpayable",
      "type": "function"
    },
    {
      "inputs": [
        {
          "internalType": "string[]",
          "name": "teams",
          "type": "string[]"
        }
      ],
      "name": "setTeams",
      "outputs": [],
      "stateMutability": "nonpayable",
      "type": "function"
    },
    {
      "inputs": [
        {
          "internalType": "address payable",
          "name": "wallet",
          "type": "address"
        }
      ],
      "name": "setWallet",
      "outputs": [],
      "stateMutability": "nonpayable",
      "type": "function"
    },
    {
      "inputs": [
        {
          "internalType": "address",
          "name": "newOwner",
          "type": "address"
        }
      ],
      "name": "transferOwnership",
      "outputs": [],
      "stateMutability": "nonpayable",
      "type": "function"
    },
    {
      "inputs": [
        {
          "internalType": "address",
          "name": "newImplementation",
          "type": "address"
        }
      ],
      "name": "upgradeTo",
      "outputs": [],
      "stateMutability": "nonpayable",
      "type": "function"
    },
    {
      "inputs": [
        {
          "internalType": "address",
          "name": "newImplementation",
          "type": "address"
        },
        {
          "internalType": "bytes",
          "name": "data",
          "type": "bytes"
        }
      ],
      "name": "upgradeToAndCall",
      "outputs": [],
      "stateMutability": "payable",
      "type": "function"
    },
    {
      "inputs": [],
      "name": "withdrawTokenByOwner",
      "outputs": [],
      "stateMutability": "nonpayable",
      "type": "function"
    }
  ],
  "bytecode": "0x60a06040523073ffffffffffffffffffffffffffffffffffffffff1660809073ffffffffffffffffffffffffffffffffffffffff1660601b8152503480156200004757600080fd5b50620000586200005e60201b60201c565b62000209565b600060019054906101000a900460ff1615620000b1576040517f08c379a0000000000000000000000000000000000000000000000000000000008152600401620000a8906200015d565b60405180910390fd5b60ff801660008054906101000a900460ff1660ff161015620001235760ff6000806101000a81548160ff021916908360ff1602179055507f7f26b83ff96e1f2b6a682f133852f6798a09c465da95921460cefb384740249860ff6040516200011a91906200017f565b60405180910390a15b565b6000620001346027836200019c565b91506200014182620001ba565b604082019050919050565b6200015781620001ad565b82525050565b60006020820190508181036000830152620001788162000125565b9050919050565b60006020820190506200019660008301846200014c565b92915050565b600082825260208201905092915050565b600060ff82169050919050565b7f496e697469616c697a61626c653a20636f6e747261637420697320696e69746960008201527f616c697a696e6700000000000000000000000000000000000000000000000000602082015250565b60805160601c614a0062000244600039600081816108f40152818161098301528181610a7d01528181610b0c0152610be10152614a006000f3fe6080604052600436106101b75760003560e01c8063715018a6116100ec578063b9d18eae1161008a578063deed00f611610064578063deed00f6146105ca578063f2fde38b146105f5578063f4ec521e1461061e578063f62ff7f514610649576101b7565b8063b9d18eae1461055a578063dbc4a63b14610585578063deaa59df146105a1576101b7565b806375b01d94116100c657806375b01d941461048c5780638da5cb5b146104c957806391b7f5ed146104f4578063a0e429671461051d576101b7565b8063715018a6146104215780637428edea1461043857806375437b9814610463576101b7565b8063514c1ba6116101595780635b3830f3116101335780635b3830f3146103655780635d0a8f6d146103a2578063610757e4146103cb5780636f9fb98a146103f6576101b7565b8063514c1ba6146102d457806352d1902d146102fd5780635afa1a7614610328576101b7565b8063235b6ea111610195578063235b6ea1146102395780632725368f146102645780633659cfe61461028f5780634f1ef286146102b8576101b7565b806312c0aeb9146101bc578063228443d8146101d357806322bc5a3f146101fc575b600080fd5b3480156101c857600080fd5b506101d1610672565b005b3480156101df57600080fd5b506101fa60048036038101906101f59190612c7f565b610729565b005b34801561020857600080fd5b50610223600480360381019061021e9190612d95565b6107e5565b6040516102309190613803565b60405180910390f35b34801561024557600080fd5b5061024e6108c5565b60405161025b9190613c11565b60405180910390f35b34801561027057600080fd5b506102796108cc565b6040516102869190613839565b60405180910390f35b34801561029b57600080fd5b506102b660048036038101906102b19190612c7f565b6108f2565b005b6102d260048036038101906102cd9190612d39565b610a7b565b005b3480156102e057600080fd5b506102fb60048036038101906102f69190612e1e565b610bb8565b005b34801561030957600080fd5b50610312610bdd565b60405161031f919061381e565b60405180910390f35b34801561033457600080fd5b5061034f600480360381019061034a9190612cd9565b610c96565b60405161035c91906137e1565b60405180910390f35b34801561037157600080fd5b5061038c60048036038101906103879190612f1d565b610f0c565b604051610399919061386f565b60405180910390f35b3480156103ae57600080fd5b506103c960048036038101906103c49190612f1d565b610fb8565b005b3480156103d757600080fd5b506103e0611059565b6040516103ed919061377b565b60405180910390f35b34801561040257600080fd5b5061040b611080565b6040516104189190613c11565b60405180910390f35b34801561042d57600080fd5b5061043661108d565b005b34801561044457600080fd5b5061044d6110a1565b60405161045a9190613c11565b60405180910390f35b34801561046f57600080fd5b5061048a60048036038101906104859190612f77565b6110a7565b005b34801561049857600080fd5b506104b360048036038101906104ae9190612f1d565b611461565b6040516104c09190613803565b60405180910390f35b3480156104d557600080fd5b506104de61148c565b6040516104eb9190613760565b60405180910390f35b34801561050057600080fd5b5061051b60048036038101906105169190612f1d565b6114b6565b005b34801561052957600080fd5b50610544600480360381019061053f9190612f1d565b61150c565b604051610551919061386f565b60405180910390f35b34801561056657600080fd5b5061056f6115b1565b60405161057c9190613c11565b60405180910390f35b61059f600480360381019061059a9190612ec1565b6115d0565b005b3480156105ad57600080fd5b506105c860048036038101906105c39190612cac565b611a6a565b005b3480156105d657600080fd5b506105df611b27565b6040516105ec9190613803565b60405180910390f35b34801561060157600080fd5b5061061c60048036038101906106179190612c7f565b611b3e565b005b34801561062a57600080fd5b50610633611bc2565b60405161064091906137bf565b60405180910390f35b34801561065557600080fd5b50610670600480360381019061066b9190612dd5565b611c9b565b005b61067a611d02565b600047116106bd576040517f08c379a00000000000000000000000000000000000000000000000000000000081526004016106b490613ad1565b60405180910390fd5b61010460009054906101000a900473ffffffffffffffffffffffffffffffffffffffff1673ffffffffffffffffffffffffffffffffffffffff166108fc479081150290604051600060405180830381858888f19350505050158015610726573d6000803e3d6000fd5b50565b610731611d02565b600073ffffffffffffffffffffffffffffffffffffffff168173ffffffffffffffffffffffffffffffffffffffff1614156107a1576040517f08c379a000000000000000000000000000000000000000000000000000000000815260040161079890613a31565b60405180910390fd5b8060fb60006101000a81548173ffffffffffffffffffffffffffffffffffffffff021916908373ffffffffffffffffffffffffffffffffffffffff16021790555050565b600080600090505b61010260008573ffffffffffffffffffffffffffffffffffffffff1673ffffffffffffffffffffffffffffffffffffffff168152602001908152602001600020805490508110156108b9578261010260008673ffffffffffffffffffffffffffffffffffffffff1673ffffffffffffffffffffffffffffffffffffffff168152602001908152602001600020828154811061088b5761088a61415e565b5b906000526020600020015414156108a65760019150506108bf565b80806108b190614057565b9150506107ed565b50600090505b92915050565b6101035481565b60fb60009054906101000a900473ffffffffffffffffffffffffffffffffffffffff1681565b7f000000000000000000000000000000000000000000000000000000000000000073ffffffffffffffffffffffffffffffffffffffff163073ffffffffffffffffffffffffffffffffffffffff161415610981576040517f08c379a000000000000000000000000000000000000000000000000000000000815260040161097890613951565b60405180910390fd5b7f000000000000000000000000000000000000000000000000000000000000000073ffffffffffffffffffffffffffffffffffffffff166109c0611d80565b73ffffffffffffffffffffffffffffffffffffffff1614610a16576040517f08c379a0000000000000000000000000000000000000000000000000000000008152600401610a0d90613971565b60405180910390fd5b610a1f81611dd7565b610a7881600067ffffffffffffffff811115610a3e57610a3d61418d565b5b6040519080825280601f01601f191660200182016040528015610a705781602001600182028036833780820191505090505b506000611de2565b50565b7f000000000000000000000000000000000000000000000000000000000000000073ffffffffffffffffffffffffffffffffffffffff163073ffffffffffffffffffffffffffffffffffffffff161415610b0a576040517f08c379a0000000000000000000000000000000000000000000000000000000008152600401610b0190613951565b60405180910390fd5b7f000000000000000000000000000000000000000000000000000000000000000073ffffffffffffffffffffffffffffffffffffffff16610b49611d80565b73ffffffffffffffffffffffffffffffffffffffff1614610b9f576040517f08c379a0000000000000000000000000000000000000000000000000000000008152600401610b9690613971565b60405180910390fd5b610ba882611dd7565b610bb482826001611de2565b5050565b610bc0611d02565b8060fe60006101000a81548160ff02191690831515021790555050565b60007f000000000000000000000000000000000000000000000000000000000000000073ffffffffffffffffffffffffffffffffffffffff163073ffffffffffffffffffffffffffffffffffffffff1614610c6d576040517f08c379a0000000000000000000000000000000000000000000000000000000008152600401610c6490613991565b60405180910390fd5b7f360894a13ba1a3210667c828492db98dca3e2076cc3735a920a3ca505d382bbc60001b905090565b606060008383905067ffffffffffffffff811115610cb757610cb661418d565b5b604051908082528060200260200182016040528015610cf057816020015b610cdd6127f7565b815260200190600190039081610cd55790505b50905060008060005b86869050811015610efe57868682818110610d1757610d1661415e565b5b90506020020135915060fb60009054906101000a900473ffffffffffffffffffffffffffffffffffffffff1673ffffffffffffffffffffffffffffffffffffffff16632f745c5989846040518363ffffffff1660e01b8152600401610d7d929190613796565b60206040518083038186803b158015610d9557600080fd5b505afa158015610da9573d6000803e3d6000fd5b505050506040513d601f19601f82011682018060405250810190610dcd9190612f4a565b9250604051806080016040528084815260200160fb60009054906101000a900473ffffffffffffffffffffffffffffffffffffffff1673ffffffffffffffffffffffffffffffffffffffff1663c87b56dd866040518263ffffffff1660e01b8152600401610e3b9190613c11565b60006040518083038186803b158015610e5357600080fd5b505afa158015610e67573d6000803e3d6000fd5b505050506040513d6000823e3d601f19601f82011682018060405250810190610e909190612e78565b8152602001610100600086815260200190815260200160002060009054906101000a900460ff1615158152602001610ec88a866107e5565b1515815250848281518110610ee057610edf61415e565b5b60200260200101819052508080610ef690614057565b915050610cf9565b508293505050509392505050565b60fc8181548110610f1c57600080fd5b906000526020600020016000915090508054610f3790613ff4565b80601f0160208091040260200160405190810160405280929190818152602001828054610f6390613ff4565b8015610fb05780601f10610f8557610100808354040283529160200191610fb0565b820191906000526020600020905b815481529060010190602001808311610f9357829003601f168201915b505050505081565b610fc0611d02565b60008111611003576040517f08c379a0000000000000000000000000000000000000000000000000000000008152600401610ffa906138d1565b60405180910390fd5b61100e610101611f5f565b811161104f576040517f08c379a000000000000000000000000000000000000000000000000000000000815260040161104690613911565b60405180910390fd5b8060ff8190555050565b61010460009054906101000a900473ffffffffffffffffffffffffffffffffffffffff1681565b6000804790508091505090565b611095611d02565b61109f6000611f6d565b565b60ff5481565b60008060019054906101000a900460ff161590508080156110d85750600160008054906101000a900460ff1660ff16105b8061110557506110e730612033565b1580156111045750600160008054906101000a900460ff1660ff16145b5b611144576040517f08c379a000000000000000000000000000000000000000000000000000000000815260040161113b906139f1565b60405180910390fd5b60016000806101000a81548160ff021916908360ff1602179055508015611181576001600060016101000a81548160ff0219169083151502179055505b600086116111c4576040517f08c379a00000000000000000000000000000000000000000000000000000000081526004016111bb90613891565b60405180910390fd5b60008511611207576040517f08c379a00000000000000000000000000000000000000000000000000000000081526004016111fe90613891565b60405180910390fd5b600073ffffffffffffffffffffffffffffffffffffffff168473ffffffffffffffffffffffffffffffffffffffff161415611277576040517f08c379a000000000000000000000000000000000000000000000000000000000815260040161126e906139b1565b60405180910390fd5b600073ffffffffffffffffffffffffffffffffffffffff168373ffffffffffffffffffffffffffffffffffffffff1614156112e7576040517f08c379a00000000000000000000000000000000000000000000000000000000081526004016112de90613b71565b60405180910390fd5b60008251141561132c576040517f08c379a000000000000000000000000000000000000000000000000000000000815260040161132390613bb1565b60405180910390fd5b611334612056565b61133c6120af565b8560ff8190555084610103819055508360fb60006101000a81548173ffffffffffffffffffffffffffffffffffffffff021916908373ffffffffffffffffffffffffffffffffffffffff1602179055508261010460006101000a81548173ffffffffffffffffffffffffffffffffffffffff021916908373ffffffffffffffffffffffffffffffffffffffff160217905550600060fe60006101000a81548160ff0219169083151502179055508160fc90805190602001906113ff929190612823565b5080156114595760008060016101000a81548160ff0219169083151502179055507f7f26b83ff96e1f2b6a682f133852f6798a09c465da95921460cefb384740249860016040516114509190613854565b60405180910390a15b505050505050565b6000610100600083815260200190815260200160002060009054906101000a900460ff169050919050565b6000606560009054906101000a900473ffffffffffffffffffffffffffffffffffffffff16905090565b6114be611d02565b60008111611501576040517f08c379a00000000000000000000000000000000000000000000000000000000081526004016114f890613bf1565b60405180910390fd5b806101038190555050565b606060fd6000838152602001908152602001600020805461152c90613ff4565b80601f016020809104026020016040519081016040528092919081815260200182805461155890613ff4565b80156115a55780601f1061157a576101008083540402835291602001916115a5565b820191906000526020600020905b81548152906001019060200180831161158857829003601f168201915b50505050509050919050565b60006115be610101611f5f565b60ff546115cb9190613eb7565b905090565b60026001541415611616576040517f08c379a000000000000000000000000000000000000000000000000000000000815260040161160d90613bd1565b60405180910390fd5b600260018190555060fe60009054906101000a900460ff1661166d576040517f08c379a000000000000000000000000000000000000000000000000000000000815260040161166490613b31565b60405180910390fd5b60008261ffff16116116b4576040517f08c379a00000000000000000000000000000000000000000000000000000000081526004016116ab90613891565b60405180910390fd5b60006116c1610101611f5f565b60ff546116ce9190613eb7565b90508261ffff168110156116e182612100565b60018311611724576040518060400160405280600481526020017f204e46540000000000000000000000000000000000000000000000000000000081525061175b565b6040518060400160405280600581526020017f204e4654730000000000000000000000000000000000000000000000000000008152505b60405160200161176c929190613726565b604051602081830303815290604052906117bc576040517f08c379a00000000000000000000000000000000000000000000000000000000081526004016117b3919061386f565b60405180910390fd5b5060006117c7612261565b90506117d88461ffff168234612269565b6117e183612371565b60005b8461ffff16811015611a025760ff546117fe610101611f5f565b111561183f576040517f08c379a000000000000000000000000000000000000000000000000000000000815260040161183690613ab1565b60405180910390fd5b600060fb60009054906101000a900473ffffffffffffffffffffffffffffffffffffffff1673ffffffffffffffffffffffffffffffffffffffff166354ba0f27846040518263ffffffff1660e01b815260040161189c9190613760565b602060405180830381600087803b1580156118b657600080fd5b505af11580156118ca573d6000803e3d6000fd5b505050506040513d601f19601f820116820180604052508101906118ee9190612f4a565b905061010260008473ffffffffffffffffffffffffffffffffffffffff1673ffffffffffffffffffffffffffffffffffffffff1681526020019081526020016000208190806001815401808255809150506001900390600052602060002001600090919091909150556001610100600083815260200190815260200160002060006101000a81548160ff02191690831515021790555061198f610101612494565b8460fd600083815260200190815260200160002090805190602001906119b6929190612883565b507ff403523e17bf2d1fe8af1a00ba36bc463a7d846dbadf11d117400f7694ba3e6c836040516119e69190613760565b60405180910390a15080806119fa90614057565b9150506117e4565b506000611a10610101611f5f565b90507f69031b1a7e7913762e884dd55b4b42c47d8a362a2715200304a1e1a0f63ec309818260ff54611a429190613eb7565b60ff54604051611a5493929190613c2c565b60405180910390a1505050600180819055505050565b611a72611d02565b600073ffffffffffffffffffffffffffffffffffffffff168173ffffffffffffffffffffffffffffffffffffffff161415611ae2576040517f08c379a0000000000000000000000000000000000000000000000000000000008152600401611ad9906138b1565b60405180910390fd5b8061010460006101000a81548173ffffffffffffffffffffffffffffffffffffffff021916908373ffffffffffffffffffffffffffffffffffffffff16021790555050565b600060fe60009054906101000a900460ff16905090565b611b46611d02565b600073ffffffffffffffffffffffffffffffffffffffff168173ffffffffffffffffffffffffffffffffffffffff161415611bb6576040517f08c379a0000000000000000000000000000000000000000000000000000000008152600401611bad90613931565b60405180910390fd5b611bbf81611f6d565b50565b606060fc805480602002602001604051908101604052809291908181526020016000905b82821015611c92578382906000526020600020018054611c0590613ff4565b80601f0160208091040260200160405190810160405280929190818152602001828054611c3190613ff4565b8015611c7e5780601f10611c5357610100808354040283529160200191611c7e565b820191906000526020600020905b815481529060010190602001808311611c6157829003601f168201915b505050505081526020019060010190611be6565b50505050905090565b611ca3611d02565b600081511415611ce8576040517f08c379a0000000000000000000000000000000000000000000000000000000008152600401611cdf90613bb1565b60405180910390fd5b8060fc9080519060200190611cfe929190612823565b5050565b611d0a612261565b73ffffffffffffffffffffffffffffffffffffffff16611d2861148c565b73ffffffffffffffffffffffffffffffffffffffff1614611d7e576040517f08c379a0000000000000000000000000000000000000000000000000000000008152600401611d7590613a91565b60405180910390fd5b565b6000611dae7f360894a13ba1a3210667c828492db98dca3e2076cc3735a920a3ca505d382bbc60001b6124aa565b60000160009054906101000a900473ffffffffffffffffffffffffffffffffffffffff16905090565b611ddf611d02565b50565b611e0e7f4910fdfa16fed3260ed0e7147f7cc6da11a60208b5b9406d12a635614ffd914360001b6124b4565b60000160009054906101000a900460ff1615611e3257611e2d836124be565b611f5a565b8273ffffffffffffffffffffffffffffffffffffffff166352d1902d6040518163ffffffff1660e01b815260040160206040518083038186803b158015611e7857600080fd5b505afa925050508015611ea957506040513d601f19601f82011682018060405250810190611ea69190612e4b565b60015b611ee8576040517f08c379a0000000000000000000000000000000000000000000000000000000008152600401611edf90613a51565b60405180910390fd5b7f360894a13ba1a3210667c828492db98dca3e2076cc3735a920a3ca505d382bbc60001b8114611f4d576040517f08c379a0000000000000000000000000000000000000000000000000000000008152600401611f44906139d1565b60405180910390fd5b50611f59838383612577565b5b505050565b600081600001549050919050565b6000606560009054906101000a900473ffffffffffffffffffffffffffffffffffffffff16905081606560006101000a81548173ffffffffffffffffffffffffffffffffffffffff021916908373ffffffffffffffffffffffffffffffffffffffff1602179055508173ffffffffffffffffffffffffffffffffffffffff168173ffffffffffffffffffffffffffffffffffffffff167f8be0079c531659141344cd1fd0a4f28419497f9722a3daafe3b4186f6b6457e060405160405180910390a35050565b6000808273ffffffffffffffffffffffffffffffffffffffff163b119050919050565b600060019054906101000a900460ff166120a5576040517f08c379a000000000000000000000000000000000000000000000000000000000815260040161209c90613b51565b60405180910390fd5b6120ad6125a3565b565b600060019054906101000a900460ff166120fe576040517f08c379a00000000000000000000000000000000000000000000000000000000081526004016120f590613b51565b60405180910390fd5b565b60606000821415612148576040518060400160405280600181526020017f3000000000000000000000000000000000000000000000000000000000000000815250905061225c565b600082905060005b6000821461217a57808061216390614057565b915050600a826121739190613e2c565b9150612150565b60008167ffffffffffffffff8111156121965761219561418d565b5b6040519080825280601f01601f1916602001820160405280156121c85781602001600182028036833780820191505090505b5090505b60008514612255576001826121e19190613eb7565b9150600a856121f091906140a0565b60306121fc9190613dd6565b60f81b8183815181106122125761221161415e565b5b60200101907effffffffffffffffffffffffffffffffffffffffffffffffffffffffffffff1916908160001a905350600a8561224e9190613e2c565b94506121cc565b8093505050505b919050565b600033905090565b600083116122ac576040517f08c379a00000000000000000000000000000000000000000000000000000000081526004016122a390613b11565b60405180910390fd5b600073ffffffffffffffffffffffffffffffffffffffff168273ffffffffffffffffffffffffffffffffffffffff16141561231c576040517f08c379a000000000000000000000000000000000000000000000000000000000815260040161231390613b91565b60405180910390fd5b80836101035461232c9190613e5d565b1461236c576040517f08c379a000000000000000000000000000000000000000000000000000000000815260040161236390613a11565b60405180910390fd5b505050565b6000805b60fc8054905081101561244f576124328360fc838154811061239a5761239961415e565b5b9060005260206000200180546123af90613ff4565b80601f01602080910402602001604051908101604052809291908181526020018280546123db90613ff4565b80156124285780601f106123fd57610100808354040283529160200191612428565b820191906000526020600020905b81548152906001019060200180831161240b57829003601f168201915b5050505050612604565b1561243c57600191505b808061244790614057565b915050612375565b5080612490576040517f08c379a0000000000000000000000000000000000000000000000000000000008152600401612487906138f1565b60405180910390fd5b5050565b6001816000016000828254019250508190555050565b6000819050919050565b6000819050919050565b6124c781612033565b612506576040517f08c379a00000000000000000000000000000000000000000000000000000000081526004016124fd90613a71565b60405180910390fd5b806125337f360894a13ba1a3210667c828492db98dca3e2076cc3735a920a3ca505d382bbc60001b6124aa565b60000160006101000a81548173ffffffffffffffffffffffffffffffffffffffff021916908373ffffffffffffffffffffffffffffffffffffffff16021790555050565b6125808361265d565b60008251118061258d5750805b1561259e5761259c83836126ac565b505b505050565b600060019054906101000a900460ff166125f2576040517f08c379a00000000000000000000000000000000000000000000000000000000081526004016125e990613b51565b60405180910390fd5b6126026125fd612261565b611f6d565b565b600081604051602001612617919061370f565b604051602081830303815290604052805190602001208360405160200161263e919061370f565b6040516020818303038152906040528051906020012014905092915050565b612666816124be565b8073ffffffffffffffffffffffffffffffffffffffff167fbc7cd75a20ee27fd9adebab32041f755214dbc6bffa90cc0225b39da2e5c2d3b60405160405180910390a250565b60606126b783612033565b6126f6576040517f08c379a00000000000000000000000000000000000000000000000000000000081526004016126ed90613af1565b60405180910390fd5b6000808473ffffffffffffffffffffffffffffffffffffffff168460405161271e91906136f8565b600060405180830381855af49150503d8060008114612759576040519150601f19603f3d011682016040523d82523d6000602084013e61275e565b606091505b509150915061278682826040518060600160405280602781526020016149a460279139612790565b9250505092915050565b606083156127a0578290506127f0565b6000835111156127b35782518084602001fd5b816040517f08c379a00000000000000000000000000000000000000000000000000000000081526004016127e7919061386f565b60405180910390fd5b9392505050565b604051806080016040528060008152602001606081526020016000151581526020016000151581525090565b828054828255906000526020600020908101928215612872579160200282015b82811115612871578251829080519060200190612861929190612883565b5091602001919060010190612843565b5b50905061287f9190612909565b5090565b82805461288f90613ff4565b90600052602060002090601f0160209004810192826128b157600085556128f8565b82601f106128ca57805160ff19168380011785556128f8565b828001600101855582156128f8579182015b828111156128f75782518255916020019190600101906128dc565b5b509050612905919061292d565b5090565b5b808211156129295760008181612920919061294a565b5060010161290a565b5090565b5b8082111561294657600081600090555060010161292e565b5090565b50805461295690613ff4565b6000825580601f106129685750612987565b601f016020900490600052602060002090810190612986919061292d565b5b50565b600061299d61299884613c88565b613c63565b905080838252602082019050828560208602820111156129c0576129bf6141c6565b5b60005b85811015612a0e57813567ffffffffffffffff8111156129e6576129e56141c1565b5b8086016129f38982612be4565b855260208501945060208401935050506001810190506129c3565b5050509392505050565b6000612a2b612a2684613cb4565b613c63565b905082815260208101848484011115612a4757612a466141cb565b5b612a52848285613fb2565b509392505050565b6000612a6d612a6884613ce5565b613c63565b905082815260208101848484011115612a8957612a886141cb565b5b612a94848285613fb2565b509392505050565b6000612aaf612aaa84613ce5565b613c63565b905082815260208101848484011115612acb57612aca6141cb565b5b612ad6848285613fc1565b509392505050565b600081359050612aed81614919565b92915050565b600081359050612b0281614930565b92915050565b600082601f830112612b1d57612b1c6141c1565b5b8135612b2d84826020860161298a565b91505092915050565b60008083601f840112612b4c57612b4b6141c1565b5b8235905067ffffffffffffffff811115612b6957612b686141bc565b5b602083019150836020820283011115612b8557612b846141c6565b5b9250929050565b600081359050612b9b81614947565b92915050565b600081519050612bb08161495e565b92915050565b600082601f830112612bcb57612bca6141c1565b5b8135612bdb848260208601612a18565b91505092915050565b600082601f830112612bf957612bf86141c1565b5b8135612c09848260208601612a5a565b91505092915050565b600082601f830112612c2757612c266141c1565b5b8151612c37848260208601612a9c565b91505092915050565b600081359050612c4f81614975565b92915050565b600081359050612c648161498c565b92915050565b600081519050612c798161498c565b92915050565b600060208284031215612c9557612c946141d5565b5b6000612ca384828501612ade565b91505092915050565b600060208284031215612cc257612cc16141d5565b5b6000612cd084828501612af3565b91505092915050565b600080600060408486031215612cf257612cf16141d5565b5b6000612d0086828701612ade565b935050602084013567ffffffffffffffff811115612d2157612d206141d0565b5b612d2d86828701612b36565b92509250509250925092565b60008060408385031215612d5057612d4f6141d5565b5b6000612d5e85828601612ade565b925050602083013567ffffffffffffffff811115612d7f57612d7e6141d0565b5b612d8b85828601612bb6565b9150509250929050565b60008060408385031215612dac57612dab6141d5565b5b6000612dba85828601612ade565b9250506020612dcb85828601612c55565b9150509250929050565b600060208284031215612deb57612dea6141d5565b5b600082013567ffffffffffffffff811115612e0957612e086141d0565b5b612e1584828501612b08565b91505092915050565b600060208284031215612e3457612e336141d5565b5b6000612e4284828501612b8c565b91505092915050565b600060208284031215612e6157612e606141d5565b5b6000612e6f84828501612ba1565b91505092915050565b600060208284031215612e8e57612e8d6141d5565b5b600082015167ffffffffffffffff811115612eac57612eab6141d0565b5b612eb884828501612c12565b91505092915050565b60008060408385031215612ed857612ed76141d5565b5b6000612ee685828601612c40565b925050602083013567ffffffffffffffff811115612f0757612f066141d0565b5b612f1385828601612be4565b9150509250929050565b600060208284031215612f3357612f326141d5565b5b6000612f4184828501612c55565b91505092915050565b600060208284031215612f6057612f5f6141d5565b5b6000612f6e84828501612c6a565b91505092915050565b600080600080600060a08688031215612f9357612f926141d5565b5b6000612fa188828901612c55565b9550506020612fb288828901612c55565b9450506040612fc388828901612ade565b9350506060612fd488828901612ade565b925050608086013567ffffffffffffffff811115612ff557612ff46141d0565b5b61300188828901612b08565b9150509295509295909350565b600061301a83836131ba565b905092915050565b600061302e8383613677565b905092915050565b61303f81613efd565b82525050565b61304e81613eeb565b82525050565b600061305f82613d36565b6130698185613d7c565b93508360208202850161307b85613d16565b8060005b858110156130b75784840389528151613098858261300e565b94506130a383613d62565b925060208a0199505060018101905061307f565b50829750879550505050505092915050565b60006130d482613d41565b6130de8185613d8d565b9350836020820285016130f085613d26565b8060005b8581101561312c578484038952815161310d8582613022565b945061311883613d6f565b925060208a019950506001810190506130f4565b50829750879550505050505092915050565b61314781613f0f565b82525050565b61315681613f0f565b82525050565b61316581613f1b565b82525050565b600061317682613d4c565b6131808185613d9e565b9350613190818560208601613fc1565b80840191505092915050565b6131a581613f6a565b82525050565b6131b481613f7c565b82525050565b60006131c582613d57565b6131cf8185613da9565b93506131df818560208601613fc1565b6131e8816141da565b840191505092915050565b60006131fe82613d57565b6132088185613dba565b9350613218818560208601613fc1565b613221816141da565b840191505092915050565b600061323782613d57565b6132418185613dcb565b9350613251818560208601613fc1565b80840191505092915050565b600061326a602483613dba565b9150613275826141eb565b604082019050919050565b600061328d601a83613dba565b91506132988261423a565b602082019050919050565b60006132b0602483613dba565b91506132bb82614263565b604082019050919050565b60006132d3601383613dba565b91506132de826142b2565b602082019050919050565b60006132f6603583613dba565b9150613301826142db565b604082019050919050565b6000613319602683613dba565b91506133248261432a565b604082019050919050565b600061333c602c83613dba565b915061334782614379565b604082019050919050565b600061335f603083613dcb565b915061336a826143c8565b603082019050919050565b6000613382602c83613dba565b915061338d82614417565b604082019050919050565b60006133a5603883613dba565b91506133b082614466565b604082019050919050565b60006133c8602083613dba565b91506133d3826144b5565b602082019050919050565b60006133eb602983613dba565b91506133f6826144de565b604082019050919050565b600061340e602e83613dba565b91506134198261452d565b604082019050919050565b6000613431601d83613dba565b915061343c8261457c565b602082019050919050565b6000613454602083613dba565b915061345f826145a5565b602082019050919050565b6000613477602e83613dba565b9150613482826145ce565b604082019050919050565b600061349a602d83613dba565b91506134a58261461d565b604082019050919050565b60006134bd602083613dba565b91506134c88261466c565b602082019050919050565b60006134e0602f83613dba565b91506134eb82614695565b604082019050919050565b6000613503601a83613dba565b915061350e826146e4565b602082019050919050565b6000613526602683613dba565b91506135318261470d565b604082019050919050565b6000613549602b83613dba565b91506135548261475c565b604082019050919050565b600061356c601983613dba565b9150613577826147ab565b602082019050919050565b600061358f602b83613dba565b915061359a826147d4565b604082019050919050565b60006135b2601a83613dba565b91506135bd82614823565b602082019050919050565b60006135d5601f83613dba565b91506135e08261484c565b602082019050919050565b60006135f8601183613dba565b915061360382614875565b602082019050919050565b600061361b601f83613dba565b91506136268261489e565b602082019050919050565b600061363e600583613dcb565b9150613649826148c7565b600582019050919050565b6000613661601c83613dba565b915061366c826148f0565b602082019050919050565b600060808301600083015161368f60008601826136da565b50602083015184820360208601526136a782826131ba565b91505060408301516136bc604086018261313e565b5060608301516136cf606086018261313e565b508091505092915050565b6136e381613f53565b82525050565b6136f281613f53565b82525050565b6000613704828461316b565b915081905092915050565b600061371b828461322c565b915081905092915050565b600061373182613352565b915061373d828561322c565b9150613749828461322c565b915061375482613631565b91508190509392505050565b60006020820190506137756000830184613045565b92915050565b60006020820190506137906000830184613036565b92915050565b60006040820190506137ab6000830185613045565b6137b860208301846136e9565b9392505050565b600060208201905081810360008301526137d98184613054565b905092915050565b600060208201905081810360008301526137fb81846130c9565b905092915050565b6000602082019050613818600083018461314d565b92915050565b6000602082019050613833600083018461315c565b92915050565b600060208201905061384e600083018461319c565b92915050565b600060208201905061386960008301846131ab565b92915050565b6000602082019050818103600083015261388981846131f3565b905092915050565b600060208201905081810360008301526138aa8161325d565b9050919050565b600060208201905081810360008301526138ca81613280565b9050919050565b600060208201905081810360008301526138ea816132a3565b9050919050565b6000602082019050818103600083015261390a816132c6565b9050919050565b6000602082019050818103600083015261392a816132e9565b9050919050565b6000602082019050818103600083015261394a8161330c565b9050919050565b6000602082019050818103600083015261396a8161332f565b9050919050565b6000602082019050818103600083015261398a81613375565b9050919050565b600060208201905081810360008301526139aa81613398565b9050919050565b600060208201905081810360008301526139ca816133bb565b9050919050565b600060208201905081810360008301526139ea816133de565b9050919050565b60006020820190508181036000830152613a0a81613401565b9050919050565b60006020820190508181036000830152613a2a81613424565b9050919050565b60006020820190508181036000830152613a4a81613447565b9050919050565b60006020820190508181036000830152613a6a8161346a565b9050919050565b60006020820190508181036000830152613a8a8161348d565b9050919050565b60006020820190508181036000830152613aaa816134b0565b9050919050565b60006020820190508181036000830152613aca816134d3565b9050919050565b60006020820190508181036000830152613aea816134f6565b9050919050565b60006020820190508181036000830152613b0a81613519565b9050919050565b60006020820190508181036000830152613b2a8161353c565b9050919050565b60006020820190508181036000830152613b4a8161355f565b9050919050565b60006020820190508181036000830152613b6a81613582565b9050919050565b60006020820190508181036000830152613b8a816135a5565b9050919050565b60006020820190508181036000830152613baa816135c8565b9050919050565b60006020820190508181036000830152613bca816135eb565b9050919050565b60006020820190508181036000830152613bea8161360e565b9050919050565b60006020820190508181036000830152613c0a81613654565b9050919050565b6000602082019050613c2660008301846136e9565b92915050565b6000606082019050613c4160008301866136e9565b613c4e60208301856136e9565b613c5b60408301846136e9565b949350505050565b6000613c6d613c7e565b9050613c798282614026565b919050565b6000604051905090565b600067ffffffffffffffff821115613ca357613ca261418d565b5b602082029050602081019050919050565b600067ffffffffffffffff821115613ccf57613cce61418d565b5b613cd8826141da565b9050602081019050919050565b600067ffffffffffffffff821115613d0057613cff61418d565b5b613d09826141da565b9050602081019050919050565b6000819050602082019050919050565b6000819050602082019050919050565b600081519050919050565b600081519050919050565b600081519050919050565b600081519050919050565b6000602082019050919050565b6000602082019050919050565b600082825260208201905092915050565b600082825260208201905092915050565b600081905092915050565b600082825260208201905092915050565b600082825260208201905092915050565b600081905092915050565b6000613de182613f53565b9150613dec83613f53565b9250827fffffffffffffffffffffffffffffffffffffffffffffffffffffffffffffffff03821115613e2157613e206140d1565b5b828201905092915050565b6000613e3782613f53565b9150613e4283613f53565b925082613e5257613e51614100565b5b828204905092915050565b6000613e6882613f53565b9150613e7383613f53565b9250817fffffffffffffffffffffffffffffffffffffffffffffffffffffffffffffffff0483118215151615613eac57613eab6140d1565b5b828202905092915050565b6000613ec282613f53565b9150613ecd83613f53565b925082821015613ee057613edf6140d1565b5b828203905092915050565b6000613ef682613f33565b9050919050565b6000613f0882613f33565b9050919050565b60008115159050919050565b6000819050919050565b600061ffff82169050919050565b600073ffffffffffffffffffffffffffffffffffffffff82169050919050565b6000819050919050565b600060ff82169050919050565b6000613f7582613f8e565b9050919050565b6000613f8782613f5d565b9050919050565b6000613f9982613fa0565b9050919050565b6000613fab82613f33565b9050919050565b82818337600083830152505050565b60005b83811015613fdf578082015181840152602081019050613fc4565b83811115613fee576000848401525b50505050565b6000600282049050600182168061400c57607f821691505b602082108114156140205761401f61412f565b5b50919050565b61402f826141da565b810181811067ffffffffffffffff8211171561404e5761404d61418d565b5b80604052505050565b600061406282613f53565b91507fffffffffffffffffffffffffffffffffffffffffffffffffffffffffffffffff821415614095576140946140d1565b5b600182019050919050565b60006140ab82613f53565b91506140b683613f53565b9250826140c6576140c5614100565b5b828206905092915050565b7f4e487b7100000000000000000000000000000000000000000000000000000000600052601160045260246000fd5b7f4e487b7100000000000000000000000000000000000000000000000000000000600052601260045260246000fd5b7f4e487b7100000000000000000000000000000000000000000000000000000000600052602260045260246000fd5b7f4e487b7100000000000000000000000000000000000000000000000000000000600052603260045260246000fd5b7f4e487b7100000000000000000000000000000000000000000000000000000000600052604160045260246000fd5b600080fd5b600080fd5b600080fd5b600080fd5b600080fd5b600080fd5b6000601f19601f8301169050919050565b7f6d617853616c65416d6f756e74206d757374206265206772656174657220746860008201527f616e203000000000000000000000000000000000000000000000000000000000602082015250565b7f57616c6c657420697320746865207a65726f2061646472657373000000000000600082015250565b7f4d617853616c65416d6f756e74206d757374206265206772656174657220746860008201527f616e203000000000000000000000000000000000000000000000000000000000602082015250565b7f546865207465616d20697320696e76616c696400000000000000000000000000600082015250565b7f4d617853616c65416d6f756e74206d757374206265206772656174657220746860008201527f616e205f63757272656e7453616c65416d6f756e740000000000000000000000602082015250565b7f4f776e61626c653a206e6577206f776e657220697320746865207a65726f206160008201527f6464726573730000000000000000000000000000000000000000000000000000602082015250565b7f46756e6374696f6e206d7573742062652063616c6c6564207468726f7567682060008201527f64656c656761746563616c6c0000000000000000000000000000000000000000602082015250565b7f457863656564656420746865206e756d626572206f66204e46547320666f722060008201527f746869732073616c6520726f756e642e00000000000000000000000000000000602082015250565b7f46756e6374696f6e206d7573742062652063616c6c6564207468726f7567682060008201527f6163746976652070726f78790000000000000000000000000000000000000000602082015250565b7f555550535570677261646561626c653a206d757374206e6f742062652063616c60008201527f6c6564207468726f7567682064656c656761746563616c6c0000000000000000602082015250565b7f6d6f6f6e42656173744e465420697320746865207a65726f2061646472657373600082015250565b7f45524331393637557067726164653a20756e737570706f727465642070726f7860008201527f6961626c65555549440000000000000000000000000000000000000000000000602082015250565b7f496e697469616c697a61626c653a20636f6e747261637420697320616c72656160008201527f647920696e697469616c697a6564000000000000000000000000000000000000602082015250565b7f5468652076616c756520796f752073656e7420697320696e76616c6964000000600082015250565b7f4d6f6f6e42656173744e465420697320746865207a65726f2061646472657373600082015250565b7f45524331393637557067726164653a206e657720696d706c656d656e7461746960008201527f6f6e206973206e6f742055555053000000000000000000000000000000000000602082015250565b7f455243313936373a206e657720696d706c656d656e746174696f6e206973206e60008201527f6f74206120636f6e747261637400000000000000000000000000000000000000602082015250565b7f4f776e61626c653a2063616c6c6572206973206e6f7420746865206f776e6572600082015250565b7f457863656564656420746865206e756d626572206f66204e46547320666f722060008201527f746869732073616c6520726f756e640000000000000000000000000000000000602082015250565b7f436f6e74726163742062616c616e6365206973203020474c4d52000000000000600082015250565b7f416464726573733a2064656c65676174652063616c6c20746f206e6f6e2d636f60008201527f6e74726163740000000000000000000000000000000000000000000000000000602082015250565b7f596f75206e656564206174206c65617374206f6e65206d696e7420706173732060008201527f746f206d696e74204e4654000000000000000000000000000000000000000000602082015250565b7f57686974656c69737420726f756e64206e6f7420726561647900000000000000600082015250565b7f496e697469616c697a61626c653a20636f6e7472616374206973206e6f74206960008201527f6e697469616c697a696e67000000000000000000000000000000000000000000602082015250565b7f77616c6c657420697320746865207a65726f2061646472657373000000000000600082015250565b7f42656e656669636961727920697320746865207a65726f206164647265737300600082015250565b7f546865207465616d7320696e76616c6964000000000000000000000000000000600082015250565b7f5265656e7472616e637947756172643a207265656e7472616e742063616c6c00600082015250565b7f206c656674000000000000000000000000000000000000000000000000000000600082015250565b7f5072696365206d7573742062652067726561746572207468616e203000000000600082015250565b61492281613eeb565b811461492d57600080fd5b50565b61493981613efd565b811461494457600080fd5b50565b61495081613f0f565b811461495b57600080fd5b50565b61496781613f1b565b811461497257600080fd5b50565b61497e81613f25565b811461498957600080fd5b50565b61499581613f53565b81146149a057600080fd5b5056fe416464726573733a206c6f772d6c6576656c2064656c65676174652063616c6c206661696c6564a26469706673582212202f1ff7b40bbd56c5a39bf7ab08e9b2aeade70c7c7bccae2de5ca55941ea5c05c64736f6c63430008070033",
  "linkReferences": {},
  "deployedLinkReferences": {}
}