{
  "_format": "hh-sol-artifact-1",
  "contractName": "MoonBeastNFTSaleRound34",
  "sourceName": "contracts/upgradeables/MoonBeastNFTSaleRound34.sol",
  "abi": [
    {
      "inputs": [],
      "stateMutability": "nonpayable",
      "type": "constructor"
    },
    {
      "anonymous": false,
      "inputs": [
        {
          "indexed": false,
          "internalType": "address",
          "name": "previousAdmin",
          "type": "address"
        },
        {
          "indexed": false,
          "internalType": "address",
          "name": "newAdmin",
          "type": "address"
        }
      ],
      "name": "AdminChanged",
      "type": "event"
    },
    {
      "anonymous": false,
      "inputs": [
        {
          "indexed": true,
          "internalType": "address",
          "name": "beacon",
          "type": "address"
        }
      ],
      "name": "BeaconUpgraded",
      "type": "event"
    },
    {
      "anonymous": false,
      "inputs": [
        {
          "indexed": false,
          "internalType": "uint8",
          "name": "version",
          "type": "uint8"
        }
      ],
      "name": "Initialized",
      "type": "event"
    },
    {
      "anonymous": false,
      "inputs": [
        {
          "indexed": false,
          "internalType": "string",
          "name": "transactionKey",
          "type": "string"
        },
        {
          "indexed": false,
          "internalType": "uint256[]",
          "name": "tokenIds",
          "type": "uint256[]"
        }
      ],
      "name": "NFTPurchased",
      "type": "event"
    },
    {
      "anonymous": false,
      "inputs": [
        {
          "indexed": true,
          "internalType": "address",
          "name": "previousOwner",
          "type": "address"
        },
        {
          "indexed": true,
          "internalType": "address",
          "name": "newOwner",
          "type": "address"
        }
      ],
      "name": "OwnershipTransferred",
      "type": "event"
    },
    {
      "anonymous": false,
      "inputs": [
        {
          "indexed": false,
          "internalType": "uint256",
          "name": "soldAmount",
          "type": "uint256"
        },
        {
          "indexed": false,
          "internalType": "uint256",
          "name": "availableSlot",
          "type": "uint256"
        },
        {
          "indexed": false,
          "internalType": "uint256",
          "name": "maxSaleAmount",
          "type": "uint256"
        }
      ],
      "name": "UpdateSaleAmount",
      "type": "event"
    },
    {
      "anonymous": false,
      "inputs": [
        {
          "indexed": true,
          "internalType": "address",
          "name": "implementation",
          "type": "address"
        }
      ],
      "name": "Upgraded",
      "type": "event"
    },
    {
      "inputs": [],
      "name": "_masterContract",
      "outputs": [
        {
          "internalType": "address",
          "name": "",
          "type": "address"
        }
      ],
      "stateMutability": "view",
      "type": "function"
    },
    {
      "inputs": [],
      "name": "_maxSaleAmount",
      "outputs": [
        {
          "internalType": "uint256",
          "name": "",
          "type": "uint256"
        }
      ],
      "stateMutability": "view",
      "type": "function"
    },
    {
      "inputs": [],
      "name": "_mintPassNFT",
      "outputs": [
        {
          "internalType": "contract IMoonFitERC721",
          "name": "",
          "type": "address"
        }
      ],
      "stateMutability": "view",
      "type": "function"
    },
    {
      "inputs": [],
      "name": "_moonBeastNFT",
      "outputs": [
        {
          "internalType": "contract MoonBeast",
          "name": "",
          "type": "address"
        }
      ],
      "stateMutability": "view",
      "type": "function"
    },
    {
      "inputs": [],
      "name": "_wallet",
      "outputs": [
        {
          "internalType": "address payable",
          "name": "",
          "type": "address"
        }
      ],
      "stateMutability": "view",
      "type": "function"
    },
    {
      "inputs": [
        {
          "internalType": "uint256",
          "name": "",
          "type": "uint256"
        }
      ],
      "name": "_withMintPassPricing",
      "outputs": [
        {
          "internalType": "uint256",
          "name": "",
          "type": "uint256"
        }
      ],
      "stateMutability": "view",
      "type": "function"
    },
    {
      "inputs": [
        {
          "internalType": "uint256",
          "name": "",
          "type": "uint256"
        }
      ],
      "name": "_withoutMintPassPricing",
      "outputs": [
        {
          "internalType": "uint256",
          "name": "",
          "type": "uint256"
        }
      ],
      "stateMutability": "view",
      "type": "function"
    },
    {
      "inputs": [
        {
          "internalType": "address",
          "name": "owner",
          "type": "address"
        }
      ],
      "name": "countMintByOwner",
      "outputs": [
        {
          "internalType": "uint256",
          "name": "",
          "type": "uint256"
        }
      ],
      "stateMutability": "view",
      "type": "function"
    },
    {
      "inputs": [
        {
          "internalType": "address",
          "name": "owner",
          "type": "address"
        }
      ],
      "name": "countMintPassLooking",
      "outputs": [
        {
          "internalType": "uint256",
          "name": "",
          "type": "uint256"
        }
      ],
      "stateMutability": "view",
      "type": "function"
    },
    {
      "inputs": [],
      "name": "getAvailableSlots",
      "outputs": [
        {
          "internalType": "uint256",
          "name": "",
          "type": "uint256"
        }
      ],
      "stateMutability": "view",
      "type": "function"
    },
    {
      "inputs": [],
      "name": "getContractBalance",
      "outputs": [
        {
          "internalType": "uint256",
          "name": "",
          "type": "uint256"
        }
      ],
      "stateMutability": "view",
      "type": "function"
    },
    {
      "inputs": [
        {
          "internalType": "address",
          "name": "owner",
          "type": "address"
        },
        {
          "internalType": "uint256",
          "name": "from",
          "type": "uint256"
        },
        {
          "internalType": "uint256",
          "name": "to",
          "type": "uint256"
        }
      ],
      "name": "getMintByOwner",
      "outputs": [
        {
          "components": [
            {
              "internalType": "uint256",
              "name": "tokenId",
              "type": "uint256"
            },
            {
              "internalType": "bool",
              "name": "hold",
              "type": "bool"
            }
          ],
          "internalType": "struct MoonBeastNFTSaleRound34.OwnerMintMapping[]",
          "name": "",
          "type": "tuple[]"
        }
      ],
      "stateMutability": "view",
      "type": "function"
    },
    {
      "inputs": [
        {
          "internalType": "address",
          "name": "owner",
          "type": "address"
        }
      ],
      "name": "getMintPassLooking",
      "outputs": [
        {
          "components": [
            {
              "internalType": "uint256",
              "name": "tokenId",
              "type": "uint256"
            },
            {
              "internalType": "bool",
              "name": "minted",
              "type": "bool"
            },
            {
              "internalType": "uint256[]",
              "name": "moonBeastIds",
              "type": "uint256[]"
            }
          ],
          "internalType": "struct MoonBeastNFTSaleRound34.MintPassLocking[]",
          "name": "",
          "type": "tuple[]"
        }
      ],
      "stateMutability": "view",
      "type": "function"
    },
    {
      "inputs": [
        {
          "internalType": "uint256",
          "name": "mintPassId",
          "type": "uint256"
        }
      ],
      "name": "getMintPassUsage",
      "outputs": [
        {
          "internalType": "uint256[]",
          "name": "",
          "type": "uint256[]"
        }
      ],
      "stateMutability": "view",
      "type": "function"
    },
    {
      "inputs": [
        {
          "internalType": "address",
          "name": "owner",
          "type": "address"
        },
        {
          "internalType": "uint256",
          "name": "from",
          "type": "uint256"
        },
        {
          "internalType": "uint256",
          "name": "to",
          "type": "uint256"
        }
      ],
      "name": "getMoonBeastByOwner",
      "outputs": [
        {
          "internalType": "uint256[]",
          "name": "",
          "type": "uint256[]"
        },
        {
          "internalType": "uint256",
          "name": "",
          "type": "uint256"
        }
      ],
      "stateMutability": "view",
      "type": "function"
    },
    {
      "inputs": [
        {
          "internalType": "string",
          "name": "transactionKey",
          "type": "string"
        }
      ],
      "name": "getMoonBeastsByTransactionKey",
      "outputs": [
        {
          "internalType": "uint256[]",
          "name": "",
          "type": "uint256[]"
        }
      ],
      "stateMutability": "view",
      "type": "function"
    },
    {
      "inputs": [],
      "name": "getReadySale",
      "outputs": [
        {
          "internalType": "bool",
          "name": "",
          "type": "bool"
        }
      ],
      "stateMutability": "view",
      "type": "function"
    },
    {
      "inputs": [
        {
          "internalType": "uint256",
          "name": "tokenId",
          "type": "uint256"
        }
      ],
      "name": "getTransactionByMoonBeastId",
      "outputs": [
        {
          "internalType": "string",
          "name": "",
          "type": "string"
        }
      ],
      "stateMutability": "view",
      "type": "function"
    },
    {
      "inputs": [
        {
          "internalType": "uint256",
          "name": "maxSaleAmount",
          "type": "uint256"
        },
        {
          "internalType": "uint16[]",
          "name": "packs",
          "type": "uint16[]"
        },
        {
          "internalType": "uint256[]",
          "name": "withMintPassPricing",
          "type": "uint256[]"
        },
        {
          "internalType": "uint256[]",
          "name": "withoutMintPassPricing",
          "type": "uint256[]"
        },
        {
          "internalType": "address",
          "name": "masterContract",
          "type": "address"
        },
        {
          "internalType": "address",
          "name": "mintPassNFT",
          "type": "address"
        },
        {
          "internalType": "address",
          "name": "moonBeastNFT",
          "type": "address"
        },
        {
          "internalType": "address",
          "name": "wallet",
          "type": "address"
        }
      ],
      "name": "initialize",
      "outputs": [],
      "stateMutability": "nonpayable",
      "type": "function"
    },
    {
      "inputs": [
        {
          "internalType": "uint256[]",
          "name": "mintPassIds",
          "type": "uint256[]"
        }
      ],
      "name": "lockMintPass",
      "outputs": [],
      "stateMutability": "payable",
      "type": "function"
    },
    {
      "inputs": [
        {
          "internalType": "uint16",
          "name": "pack",
          "type": "uint16"
        },
        {
          "internalType": "uint256[]",
          "name": "mintPassIds",
          "type": "uint256[]"
        },
        {
          "internalType": "string",
          "name": "transactionKey",
          "type": "string"
        }
      ],
      "name": "mintNFTWithMintPass",
      "outputs": [],
      "stateMutability": "payable",
      "type": "function"
    },
    {
      "inputs": [
        {
          "internalType": "uint16",
          "name": "pack",
          "type": "uint16"
        }
      ],
      "name": "mintNFTWithMintPassV2",
      "outputs": [],
      "stateMutability": "payable",
      "type": "function"
    },
    {
      "inputs": [
        {
          "internalType": "uint16",
          "name": "pack",
          "type": "uint16"
        },
        {
          "internalType": "string",
          "name": "transactionKey",
          "type": "string"
        }
      ],
      "name": "mintNFTWithoutMintPass",
      "outputs": [],
      "stateMutability": "payable",
      "type": "function"
    },
    {
      "inputs": [
        {
          "internalType": "uint16",
          "name": "pack",
          "type": "uint16"
        }
      ],
      "name": "mintNFTWithoutMintPassV2",
      "outputs": [],
      "stateMutability": "payable",
      "type": "function"
    },
    {
      "inputs": [
        {
          "internalType": "uint256",
          "name": "mintPassId",
          "type": "uint256"
        }
      ],
      "name": "mintPassIsMinted",
      "outputs": [
        {
          "internalType": "bool",
          "name": "",
          "type": "bool"
        }
      ],
      "stateMutability": "view",
      "type": "function"
    },
    {
      "inputs": [
        {
          "internalType": "address",
          "name": "",
          "type": "address"
        },
        {
          "internalType": "address",
          "name": "",
          "type": "address"
        },
        {
          "internalType": "uint256",
          "name": "",
          "type": "uint256"
        },
        {
          "internalType": "bytes",
          "name": "",
          "type": "bytes"
        }
      ],
      "name": "onERC721Received",
      "outputs": [
        {
          "internalType": "bytes4",
          "name": "",
          "type": "bytes4"
        }
      ],
      "stateMutability": "nonpayable",
      "type": "function"
    },
    {
      "inputs": [],
      "name": "owner",
      "outputs": [
        {
          "internalType": "address",
          "name": "",
          "type": "address"
        }
      ],
      "stateMutability": "view",
      "type": "function"
    },
    {
      "inputs": [],
      "name": "proxiableUUID",
      "outputs": [
        {
          "internalType": "bytes32",
          "name": "",
          "type": "bytes32"
        }
      ],
      "stateMutability": "view",
      "type": "function"
    },
    {
      "inputs": [],
      "name": "renounceOwnership",
      "outputs": [],
      "stateMutability": "nonpayable",
      "type": "function"
    },
    {
      "inputs": [],
      "name": "revokeAllApproved",
      "outputs": [],
      "stateMutability": "nonpayable",
      "type": "function"
    },
    {
      "inputs": [
        {
          "internalType": "address",
          "name": "operator",
          "type": "address"
        },
        {
          "internalType": "bool",
          "name": "isApproved",
          "type": "bool"
        }
      ],
      "name": "setApprovedOperator",
      "outputs": [],
      "stateMutability": "nonpayable",
      "type": "function"
    },
    {
      "inputs": [
        {
          "internalType": "address[]",
          "name": "operators",
          "type": "address[]"
        },
        {
          "internalType": "bool",
          "name": "isApproved",
          "type": "bool"
        }
      ],
      "name": "setApprovedOperators",
      "outputs": [],
      "stateMutability": "nonpayable",
      "type": "function"
    },
    {
      "inputs": [
        {
          "internalType": "uint256",
          "name": "maxSaleAmount",
          "type": "uint256"
        }
      ],
      "name": "setMaxSaleAmount",
      "outputs": [],
      "stateMutability": "nonpayable",
      "type": "function"
    },
    {
      "inputs": [
        {
          "internalType": "address",
          "name": "mintPass",
          "type": "address"
        }
      ],
      "name": "setMintPassNFT",
      "outputs": [],
      "stateMutability": "nonpayable",
      "type": "function"
    },
    {
      "inputs": [
        {
          "internalType": "address",
          "name": "moonBeast",
          "type": "address"
        }
      ],
      "name": "setMoonBeastNFT",
      "outputs": [],
      "stateMutability": "nonpayable",
      "type": "function"
    },
    {
      "inputs": [
        {
          "internalType": "bool",
          "name": "value",
          "type": "bool"
        }
      ],
      "name": "setReadySale",
      "outputs": [],
      "stateMutability": "nonpayable",
      "type": "function"
    },
    {
      "inputs": [
        {
          "internalType": "address payable",
          "name": "wallet",
          "type": "address"
        }
      ],
      "name": "setWallet",
      "outputs": [],
      "stateMutability": "nonpayable",
      "type": "function"
    },
    {
      "inputs": [
        {
          "internalType": "address",
          "name": "newOwner",
          "type": "address"
        }
      ],
      "name": "transferOwnership",
      "outputs": [],
      "stateMutability": "nonpayable",
      "type": "function"
    },
    {
      "inputs": [],
      "name": "unlockMintPass",
      "outputs": [],
      "stateMutability": "payable",
      "type": "function"
    },
    {
      "inputs": [],
      "name": "unlockMintPass2",
      "outputs": [],
      "stateMutability": "payable",
      "type": "function"
    },
    {
      "inputs": [
        {
          "internalType": "address",
          "name": "newImplementation",
          "type": "address"
        }
      ],
      "name": "upgradeTo",
      "outputs": [],
      "stateMutability": "nonpayable",
      "type": "function"
    },
    {
      "inputs": [
        {
          "internalType": "address",
          "name": "newImplementation",
          "type": "address"
        },
        {
          "internalType": "bytes",
          "name": "data",
          "type": "bytes"
        }
      ],
      "name": "upgradeToAndCall",
      "outputs": [],
      "stateMutability": "payable",
      "type": "function"
    },
    {
      "inputs": [],
      "name": "withdrawTokenByOwner",
      "outputs": [],
      "stateMutability": "nonpayable",
      "type": "function"
    }
  ],
  "bytecode": "0x60a06040523060601b6080523480156200001857600080fd5b506200002362000029565b620000eb565b600054610100900460ff1615620000965760405162461bcd60e51b815260206004820152602760248201527f496e697469616c697a61626c653a20636f6e747261637420697320696e697469604482015266616c697a696e6760c81b606482015260840160405180910390fd5b60005460ff9081161015620000e9576000805460ff191660ff9081179091556040519081527f7f26b83ff96e1f2b6a682f133852f6798a09c465da95921460cefb38474024989060200160405180910390a15b565b60805160601c6145b56200012660003960008181610d9401528181610dd40152818161144501528181611485015261153a01526145b56000f3fe60806040526004361061025c5760003560e01c8063610757e411610144578063cc8c0d7e116100b6578063de15ad081161007a578063de15ad08146106ef578063deaa59df14610702578063deed00f614610722578063f122f31614610741578063f2fde38b1461076e578063ffd6e51c1461078e57600080fd5b8063cc8c0d7e1461063f578063d3f6df6a14610654578063d49c78cc14610682578063d693b38e146106a2578063d879f395146106cf57600080fd5b80637428edea116101085780637428edea146105785780638da5cb5b1461058f57806390ad41d3146105ad578063a0c74730146105da578063b8bea6961461060a578063b9d18eae1461062a57600080fd5b8063610757e4146104cc5780636bd9eb0a146104ed5780636d02d94d1461051a5780636f9fb98a14610550578063715018a61461056357600080fd5b80632c70954d116101dd5780633c95ed07116101a15780633c95ed071461043e5780634f1ef28614610451578063514c1ba61461046457806352d1902d146104845780635d0a8f6d14610499578063603619a7146104b957600080fd5b80632c70954d146103cd5780633659cfe6146103ee578063369840d61461040e5780633bc2d10d146104165780633c5a61531461041e57600080fd5b806318da71221161022457806318da71221461033a578063228443d81461035a578063231b00981461037a5780632725368f1461038d5780632bfccd3c146103ad57600080fd5b8063044205de146102615780630848c6ca146102945780630b154c47146102a957806312c0aeb9146102e1578063150b7a02146102f6575b600080fd5b34801561026d57600080fd5b5061028161027c366004613db0565b6107ae565b6040519081526020015b60405180910390f35b6102a76102a2366004613d94565b6107d0565b005b3480156102b557600080fd5b5060fb546102c9906001600160a01b031681565b6040516001600160a01b03909116815260200161028b565b3480156102ed57600080fd5b506102a7610928565b34801561030257600080fd5b50610321610311366004613a94565b630a85bd0160e11b949350505050565b6040516001600160e01b0319909116815260200161028b565b34801561034657600080fd5b50610281610355366004613a5a565b6109bd565b34801561036657600080fd5b506102a7610375366004613a5a565b610a80565b6102a7610388366004613d21565b610b00565b34801561039957600080fd5b5060fc546102c9906001600160a01b031681565b3480156103b957600080fd5b506102a76103c8366004613a5a565b610d09565b3480156103d957600080fd5b5061010a546102c9906001600160a01b031681565b3480156103fa57600080fd5b506102a7610409366004613a5a565b610d89565b6102a7610e66565b6102a76110aa565b34801561042a57600080fd5b506102a7610439366004613aff565b6112b2565b6102a761044c366004613d06565b6112c8565b6102a761045f366004613b34565b61143a565b34801561047057600080fd5b506102a761047f366004613c9e565b611507565b34801561049057600080fd5b5061028161152d565b3480156104a557600080fd5b506102a76104b4366004613db0565b6115e0565b6102a76104c7366004613d06565b6116ba565b3480156104d857600080fd5b50610109546102c9906001600160a01b031681565b3480156104f957600080fd5b5061050d610508366004613db0565b61173d565b60405161028b919061410e565b34801561052657600080fd5b50610281610535366004613a5a565b6001600160a01b0316600090815260ff602052604090205490565b34801561055c57600080fd5b5047610281565b34801561056f57600080fd5b506102a761179f565b34801561058457600080fd5b506102816101055481565b34801561059b57600080fd5b506065546001600160a01b03166102c9565b3480156105b957600080fd5b506105cd6105c8366004613db0565b6117b3565b60405161028b9190614143565b3480156105e657600080fd5b506105fa6105f5366004613db0565b61184c565b604051901515815260200161028b565b34801561061657600080fd5b506102a7610625366004613dc9565b61186f565b34801561063657600080fd5b50610281611e62565b34801561064b57600080fd5b506102a7611e81565b34801561066057600080fd5b5061067461066f366004613b83565b611f17565b60405161028b929190614121565b34801561068e57600080fd5b5061050d61069d366004613cd2565b6120fb565b3480156106ae57600080fd5b506106c26106bd366004613b83565b61216a565b60405161028b91906140bd565b3480156106db57600080fd5b506102a76106ea366004613bb8565b612352565b6102a76106fd366004613c6a565b6123a0565b34801561070e57600080fd5b506102a761071d366004613a5a565b612413565b34801561072e57600080fd5b5060fc54600160a01b900460ff166105fa565b34801561074d57600080fd5b5061076161075c366004613a5a565b612494565b60405161028b919061403c565b34801561077a57600080fd5b506102a7610789366004613a5a565b612621565b34801561079a57600080fd5b506102816107a9366004613db0565b612697565b61010881815481106107bf57600080fd5b600091825260209091200154905081565b600260015414156107fc5760405162461bcd60e51b81526004016107f390614348565b60405180910390fd5b60026001556065546001600160a01b031633148061082f5750336000908152610104602052604090205460ff1615156001145b61084b5760405162461bcd60e51b81526004016107f390614281565b610854826126a8565b61085d816126c2565b60005b8261ffff168110156108885761087582612788565b50806108808161447c565b915050610860565b507fe66707350710f863090ce00b7e4d71719c22c782f15f8d3f3a8734216b03bedf81610102836040516108bc9190613f04565b9081526040519081900360200181206108d59291614156565b60405180910390a16000805160206145398339815191526108f66101065490565b6108fe611e62565b610105546040805193845260208401929092529082015260600160405180910390a1505060018055565b61093061289a565b600047116109805760405162461bcd60e51b815260206004820152601a60248201527f436f6e74726163742062616c616e6365206973203020474c4d5200000000000060448201526064016107f3565b610109546040516001600160a01b03909116904780156108fc02916000818181858888f193505050501580156109ba573d6000803e3d6000fd5b50565b6001600160a01b038116600090815260fe60205260408120546109e257506000919050565b6000805b6001600160a01b038416600090815260fe6020526040902054811015610a79576001600160a01b038416600090815260fe60205260408120805483908110610a3057610a306144d7565b90600052602060002001549050610a468161184c565b158015610a535750600081115b15610a6657610a636001846143d2565b92505b5080610a718161447c565b9150506109e6565b5092915050565b610a8861289a565b6001600160a01b038116610ade5760405162461bcd60e51b815260206004820181905260248201527f4d6f6f6e42656173744e465420697320746865207a65726f206164647265737360448201526064016107f3565b60fc80546001600160a01b0319166001600160a01b0392909216919091179055565b60026001541415610b235760405162461bcd60e51b81526004016107f390614348565b60026001556065546001600160a01b0316331480610b565750336000908152610104602052604090205460ff1615156001145b610b725760405162461bcd60e51b81526004016107f390614281565b610b7b836126a8565b610b84816126c2565b8261ffff16825114610bd85760405162461bcd60e51b815260206004820152601b60248201527f4d696e74506173732062616c616e636520697320696e76616c6964000000000060448201526064016107f3565b60005b8251811015610c6857610c06838281518110610bf957610bf96144d7565b60200260200101516128f4565b6000610c1183612788565b905060fd6000858481518110610c2957610c296144d7565b60209081029190910181015182528181019290925260400160009081208054600181018255908252919020015580610c608161447c565b915050610bdb565b507fe66707350710f863090ce00b7e4d71719c22c782f15f8d3f3a8734216b03bedf8161010283604051610c9c9190613f04565b908152604051908190036020018120610cb59291614156565b60405180910390a1600080516020614539833981519152610cd66101065490565b610cde611e62565b610105546040805193845260208401929092529082015260600160405180910390a150506001805550565b610d1161289a565b6001600160a01b038116610d675760405162461bcd60e51b815260206004820152601f60248201527f4d696e74506173734e465420697320746865207a65726f20616464726573730060448201526064016107f3565b60fb80546001600160a01b0319166001600160a01b0392909216919091179055565b306001600160a01b037f0000000000000000000000000000000000000000000000000000000000000000161415610dd25760405162461bcd60e51b81526004016107f3906141e9565b7f00000000000000000000000000000000000000000000000000000000000000006001600160a01b0316610e1b600080516020614519833981519152546001600160a01b031690565b6001600160a01b031614610e415760405162461bcd60e51b81526004016107f390614235565b610e4a81612a19565b604080516000808252602082019092526109ba91839190612a21565b60026001541415610e895760405162461bcd60e51b81526004016107f390614348565b600260015533600081815260fe6020526040902054610ee65760405162461bcd60e51b8152602060048201526019602482015278131bd8dad95908135a5b9d14185cdcc81b9bdd08199bdd5b99603a1b60448201526064016107f3565b6000610ef1826109bd565b6001600160a01b038316600090815260fe6020526040902054610f1491906143fe565b90506000816001600160401b03811115610f3057610f306144ed565b604051908082528060200260200182016040528015610f59578160200160208202803683370190505b5090506000805b6001600160a01b038516600090815260fe6020526040902054811015611075576001600160a01b038516600090815260fe60205260408120805483908110610faa57610faa6144d7565b90600052602060002001549050610fc08161184c565b15610ff55780848481518110610fd857610fd86144d7565b6020908102919091010152610fee6001846143d2565b9250611062565b60fb546040516323b872dd60e01b81523060048201526001600160a01b03888116602483015260448201849052909116906323b872dd90606401600060405180830381600087803b15801561104957600080fd5b505af115801561105d573d6000803e3d6000fd5b505050505b508061106d8161447c565b915050610f60565b506001600160a01b038416600090815260fe60209081526040909120835161109f92850190613714565b505060018055505050565b600260015414156110cd5760405162461bcd60e51b81526004016107f390614348565b600260015560fc54600160a01b900460ff161561113a5760405162461bcd60e51b815260206004820152602560248201527f53616c652069732072656164792c2063616e277420756e6c6f636b204d696e74604482015264205061737360d81b60648201526084016107f3565b33600081815260fe60205260409020546111925760405162461bcd60e51b8152602060048201526019602482015278131bd8dad95908135a5b9d14185cdcc81b9bdd08199bdd5b99603a1b60448201526064016107f3565b60005b6001600160a01b038216600090815260fe60205260409020548110156112785760fb546001600160a01b03838116600090815260fe60205260409020805491909216916323b872dd9130918691869081106111f2576111f26144d7565b6000918252602090912001546040516001600160e01b031960e086901b1681526001600160a01b0393841660048201529290911660248301526044820152606401600060405180830381600087803b15801561124d57600080fd5b505af1158015611261573d6000803e3d6000fd5b5050505080806112709061447c565b915050611195565b5060408051600080825260208083018085526001600160a01b038616835260fe90915292902090516112aa9290613714565b505060018055565b6112ba61289a565b6112c48282612b9b565b5050565b600260015414156112eb5760405162461bcd60e51b81526004016107f390614348565b60026001556112f9816126a8565b61130581346001612d3a565b336000611311826109bd565b9050808361ffff16111561135f5760405162461bcd60e51b8152602060048201526015602482015274496e73756666696369656e74204d696e745061737360581b60448201526064016107f3565b60005b8361ffff1681101561142057600061137984612def565b9050806113de5760405162461bcd60e51b815260206004820152602d60248201527f5b4d696e7450617373206c6f636b6564206973206e6f74206d696e7465645d2060448201526c1dd85cc81b9bdd08199bdd5b99609a1b60648201526084016107f3565b60006113e985612e7a565b600092835260fd602090815260408420805460018101825590855293209092019190915550806114188161447c565b915050611362565b50600080516020614539833981519152610cd66101065490565b306001600160a01b037f00000000000000000000000000000000000000000000000000000000000000001614156114835760405162461bcd60e51b81526004016107f3906141e9565b7f00000000000000000000000000000000000000000000000000000000000000006001600160a01b03166114cc600080516020614519833981519152546001600160a01b031690565b6001600160a01b0316146114f25760405162461bcd60e51b81526004016107f390614235565b6114fb82612a19565b6112c482826001612a21565b61150f61289a565b60fc8054911515600160a01b0260ff60a01b19909216919091179055565b6000306001600160a01b037f000000000000000000000000000000000000000000000000000000000000000016146115cd5760405162461bcd60e51b815260206004820152603860248201527f555550535570677261646561626c653a206d757374206e6f742062652063616c60448201527f6c6564207468726f7567682064656c656761746563616c6c000000000000000060648201526084016107f3565b5060008051602061451983398151915290565b6115e861289a565b600081116116445760405162461bcd60e51b8152602060048201526024808201527f4d617853616c65416d6f756e74206d75737420626520677265617465722074686044820152630616e20360e41b60648201526084016107f3565b6101065481116116b45760405162461bcd60e51b815260206004820152603560248201527f4d617853616c65416d6f756e74206d7573742062652067726561746572207468604482015274185b8817d8dd5c9c995b9d14dbdb19105b5bdd5b9d605a1b60648201526084016107f3565b61010555565b600260015414156116dd5760405162461bcd60e51b81526004016107f390614348565b60026001556116eb816126a8565b6116f781346000612d3a565b3360005b8261ffff168110156117235761171082612e7a565b508061171b8161447c565b9150506116fb565b506000805160206145398339815191526108f66101065490565b600081815260fd602090815260409182902080548351818402810184019094528084526060939283018282801561179357602002820191906000526020600020905b81548152602001906001019080831161177f575b50505050509050919050565b6117a761289a565b6117b16000612f62565b565b6000818152610100602052604090208054606091906117d190614441565b80601f01602080910402602001604051908101604052809291908181526020018280546117fd90614441565b80156117935780601f1061181f57610100808354040283529160200191611793565b820191906000526020600020905b81548152906001019060200180831161182d5750939695505050505050565b600081815260fd6020526040812054158015906118695750600082115b92915050565b600054610100900460ff161580801561188f5750600054600160ff909116105b806118a95750303b1580156118a9575060005460ff166001145b61190c5760405162461bcd60e51b815260206004820152602e60248201527f496e697469616c697a61626c653a20636f6e747261637420697320616c72656160448201526d191e481a5b9a5d1a585b1a5e995960921b60648201526084016107f3565b6000805460ff19166001179055801561192f576000805461ff0019166101001790555b6000891161198b5760405162461bcd60e51b8152602060048201526024808201527f6d617853616c65416d6f756e74206d75737420626520677265617465722074686044820152630616e20360e41b60648201526084016107f3565b6001600160a01b0384166119e15760405162461bcd60e51b815260206004820152601f60248201527f6d696e74506173734e465420697320746865207a65726f20616464726573730060448201526064016107f3565b6001600160a01b038316611a375760405162461bcd60e51b815260206004820181905260248201527f6d6f6f6e42656173744e465420697320746865207a65726f206164647265737360448201526064016107f3565b6001600160a01b038216611a8d5760405162461bcd60e51b815260206004820152601a60248201527f77616c6c657420697320746865207a65726f206164647265737300000000000060448201526064016107f3565b6001600160a01b038516611aee5760405162461bcd60e51b815260206004820152602260248201527f4d6173746572436f6e747261637420697320746865207a65726f206164647265604482015261737360f01b60648201526084016107f3565b6000885111611b325760405162461bcd60e51b815260206004820152601060248201526f141858dadcc81a5cc81a5b9d985b1a5960821b60448201526064016107f3565b8651885114611b835760405162461bcd60e51b815260206004820181905260248201527f5061636b7320616e6420707269636573206973206e6f74206d61746368696e6760448201526064016107f3565b8551885114611bd45760405162461bcd60e51b815260206004820181905260248201527f5061636b7320616e6420707269636573206973206e6f74206d61746368696e6760448201526064016107f3565b611bdc612fb4565b611be4612fe3565b61010589905560fb80546001600160a01b038087166001600160a01b03199283161790925560fc80548684169083161790556101098054928516929091169190911790558751611c3c906101019060208b019061375f565b508651611c51906101079060208a0190613714565b508551611c6690610108906020890190613714565b5061010a80546001600160a01b0319166001600160a01b03871617905560fc805460ff60a01b1916905560005b61010154811015611e105760006101018281548110611cb457611cb46144d7565b60009182526020909120601082040154600f9091166002026101000a900461ffff1611611d165760405162461bcd60e51b815260206004820152601060248201526f141858dadcc81a5cc81a5b9d985b1a5960821b60448201526064016107f3565b60006101078281548110611d2c57611d2c6144d7565b906000526020600020015411611d845760405162461bcd60e51b815260206004820181905260248201527f50726963696e672077697468204d696e745061737320697320696e76616c696460448201526064016107f3565b60006101088281548110611d9a57611d9a6144d7565b906000526020600020015411611dfe5760405162461bcd60e51b815260206004820152602360248201527f50726963696e6720776974686f7574204d696e745061737320697320696e76616044820152621b1a5960ea1b60648201526084016107f3565b80611e088161447c565b915050611c93565b508015611e57576000805461ff0019169055604051600181527f7f26b83ff96e1f2b6a682f133852f6798a09c465da95921460cefb38474024989060200160405180910390a15b505050505050505050565b6000611e6e6101065490565b61010554611e7c91906143fe565b905090565b611e8961289a565b60005b61010354811015611ef857600061010460006101038481548110611eb257611eb26144d7565b6000918252602080832091909101546001600160a01b031683528201929092526040019020805460ff191691151591909117905580611ef08161447c565b915050611e8c565b5060408051600081526020810191829052516109ba9161010391613803565b60606000828410611f3a5760405162461bcd60e51b81526004016107f3906142d0565b60fc546040516370a0823160e01b81526001600160a01b03878116600483015260009216906370a082319060240160206040518083038186803b158015611f8057600080fd5b505afa158015611f94573d6000803e3d6000fd5b505050506040513d601f19601f82011682018060405250810190611fb89190613cb9565b9050808410611fd95760405162461bcd60e51b81526004016107f3906142d0565b6000611fe586866143fe565b611ff09060016143d2565b6001600160401b03811115612007576120076144ed565b604051908082528060200260200182016040528015612030578160200160208202803683370190505b509050855b8581116120ef5760fc54604051632f745c5960e01b81526001600160a01b038a811660048301526024820184905290911690632f745c599060440160206040518083038186803b15801561208857600080fd5b505afa15801561209c573d6000803e3d6000fd5b505050506040513d601f19601f820116820180604052508101906120c09190613cb9565b8282815181106120d2576120d26144d7565b6020908102919091010152806120e78161447c565b915050612035565b50969095509350505050565b60606101028260405161210e9190613f04565b9081526040805191829003602090810183208054808302850183019093528284529190830182828015611793576020028201919060005260206000209081548152602001906001019080831161177f5750505050509050919050565b606081831061218b5760405162461bcd60e51b81526004016107f3906142d0565b6001600160a01b038416600090815260ff602052604090205482106121c25760405162461bcd60e51b81526004016107f3906142d0565b60006121ce84846143fe565b6121d99060016143d2565b6001600160401b038111156121f0576121f06144ed565b60405190808252806020026020018201604052801561223557816020015b604080518082019091526000808252602082015281526020019060019003908161220e5790505b509050835b838111612347576001600160a01b038616600090815260ff6020526040812080548390811061226b5761226b6144d7565b6000918252602091829020015460408051808201825282815260fc5491516331a9108f60e11b815260048101849052929450928301916001600160a01b038b8116921690636352211e9060240160206040518083038186803b1580156122d057600080fd5b505afa1580156122e4573d6000803e3d6000fd5b505050506040513d601f19601f820116820180604052508101906123089190613a77565b6001600160a01b03161490528351849084908110612328576123286144d7565b602002602001018190525050808061233f9061447c565b91505061223a565b5090505b9392505050565b61235a61289a565b60005b825181101561239b5761238983828151811061237b5761237b6144d7565b602002602001015183612b9b565b806123938161447c565b91505061235d565b505050565b600260015414156123c35760405162461bcd60e51b81526004016107f390614348565b60026001553360005b825181101561240a576123f8828483815181106123eb576123eb6144d7565b602002602001015161300a565b806124028161447c565b9150506123cc565b50506001805550565b61241b61289a565b6001600160a01b0381166124715760405162461bcd60e51b815260206004820152601a60248201527f57616c6c657420697320746865207a65726f206164647265737300000000000060448201526064016107f3565b61010980546001600160a01b0319166001600160a01b0392909216919091179055565b6001600160a01b038116600090815260fe6020526040812054606091906001600160401b038111156124c8576124c86144ed565b60405190808252806020026020018201604052801561251557816020015b604080516060808201835260008083526020830152918101919091528152602001906001900390816124e65790505b50905060005b6001600160a01b038416600090815260fe6020526040902054811015610a79576001600160a01b038416600090815260fe60205260408120805483908110612565576125656144d7565b90600052602060002001549050604051806060016040528082815260200161258c8361184c565b15158152600083815260fd602090815260409182902080548351818402810184019094528084529382019390918301828280156125e857602002820191906000526020600020905b8154815260200190600101908083116125d4575b5050505050815250838381518110612602576126026144d7565b60200260200101819052505080806126199061447c565b91505061251b565b61262961289a565b6001600160a01b03811661268e5760405162461bcd60e51b815260206004820152602660248201527f4f776e61626c653a206e6577206f776e657220697320746865207a65726f206160448201526564647265737360d01b60648201526084016107f3565b6109ba81612f62565b61010781815481106107bf57600080fd5b6126b0613174565b6126b9816131c5565b6109ba8161326f565b80516127105760405162461bcd60e51b815260206004820152601b60248201527f5472616e73616374696f6e206b6579206973207265717569726564000000000060448201526064016107f3565b610102816040516127219190613f04565b90815260405190819003602001902054156109ba5760405162461bcd60e51b815260206004820152602160248201527f546865207472616e73616374696f6e206b657920686173206265656e207573656044820152601960fa1b60648201526084016107f3565b60fc5461010a546040516354ba0f2760e01b81526001600160a01b039182166004820152600092839216906354ba0f2790602401602060405180830381600087803b1580156127d657600080fd5b505af11580156127ea573d6000803e3d6000fd5b505050506040513d601f19601f8201168201806040525081019061280e9190613cb9565b61010a546001600160a01b0316600090815260ff6020908152604082208054600181018255908352912001819055905061284d61010680546001019055565b6101028360405161285e9190613f04565b908152604080516020928190038301902080546001810182556000918252838220018490558381526101008352208451610a7992860190613858565b6065546001600160a01b031633146117b15760405162461bcd60e51b815260206004820181905260248201527f4f776e61626c653a2063616c6c6572206973206e6f7420746865206f776e657260448201526064016107f3565b61010a5460fb546040516331a9108f60e11b8152600481018490526001600160a01b039283169290911690636352211e9060240160206040518083038186803b15801561294057600080fd5b505afa158015612954573d6000803e3d6000fd5b505050506040513d601f19601f820116820180604052508101906129789190613a77565b6001600160a01b03161461298b82613323565b60405160200161299b9190613ff2565b604051602081830303815290604052906129c85760405162461bcd60e51b81526004016107f39190614143565b506129d28161184c565b156129dc82613323565b6040516020016129ec9190613f96565b604051602081830303815290604052906112c45760405162461bcd60e51b81526004016107f39190614143565b6109ba61289a565b7f4910fdfa16fed3260ed0e7147f7cc6da11a60208b5b9406d12a635614ffd91435460ff1615612a545761239b83613428565b826001600160a01b03166352d1902d6040518163ffffffff1660e01b815260040160206040518083038186803b158015612a8d57600080fd5b505afa925050508015612abd575060408051601f3d908101601f19168201909252612aba91810190613cb9565b60015b612b205760405162461bcd60e51b815260206004820152602e60248201527f45524331393637557067726164653a206e657720696d706c656d656e7461746960448201526d6f6e206973206e6f74205555505360901b60648201526084016107f3565b6000805160206145198339815191528114612b8f5760405162461bcd60e51b815260206004820152602960248201527f45524331393637557067726164653a20756e737570706f727465642070726f786044820152681a58589b195555525160ba1b60648201526084016107f3565b5061239b8383836134c4565b6001600160a01b038216612bfb5760405162461bcd60e51b815260206004820152602160248201527f5468656f206f70657261746f7220697320746865207a65726f206164647265736044820152607360f81b60648201526084016107f3565b6001600160a01b038216301415612c625760405162461bcd60e51b815260206004820152602560248201527f546865206f70657261746f72206973207468697320636f6e7472616374206164604482015264647265737360d81b60648201526084016107f3565b610109546001600160a01b0383811691161415612c915760405162461bcd60e51b81526004016107f3906141a6565b6001600160a01b038216331415612cba5760405162461bcd60e51b81526004016107f3906141a6565b6001600160a01b038216600090815261010460205260409020805460ff191682158015919091179091556112c45761010380546001810182556000919091527f02c297ab74aad0aede3a1895c857b1f2c71e6a203feb727bec95ac752998cb780180546001600160a01b0384166001600160a01b03199091161790555050565b6000612da58483612d4d57610108612d51565b6101075b805480602002602001604051908101604052809291908181526020018280548015612d9b57602002820191906000526020600020905b815481526020019060010190808311612d87575b50505050506134e9565b9050808314612de95760405162461bcd60e51b815260206004820152601060248201526f141c9a58d9481a5cc81a5b9d985b1a5960821b60448201526064016107f3565b50505050565b6000805b6001600160a01b038316600090815260fe6020526040902054811015612e71576001600160a01b038316600090815260fe60205260408120805483908110612e3d57612e3d6144d7565b90600052602060002001549050612e538161184c565b612e5e579392505050565b5080612e698161447c565b915050612df3565b50600092915050565b60fc546040516354ba0f2760e01b81526001600160a01b03838116600483015260009283929116906354ba0f2790602401602060405180830381600087803b158015612ec557600080fd5b505af1158015612ed9573d6000803e3d6000fd5b505050506040513d601f19601f82011682018060405250810190612efd9190613cb9565b6001600160a01b038416600090815260ff60209081526040822080546001810182559083529120018190559050612f3961010680546001019055565b60408051602080820180845260008084528581526101009092529290209051610a799290613858565b606580546001600160a01b038381166001600160a01b0319831681179093556040519116919082907f8be0079c531659141344cd1fd0a4f28419497f9722a3daafe3b4186f6b6457e090600090a35050565b600054610100900460ff16612fdb5760405162461bcd60e51b81526004016107f3906142fd565b6117b1613577565b600054610100900460ff166117b15760405162461bcd60e51b81526004016107f3906142fd565b60fb546040516331a9108f60e11b8152600481018390526001600160a01b03848116921690636352211e9060240160206040518083038186803b15801561305057600080fd5b505afa158015613064573d6000803e3d6000fd5b505050506040513d601f19601f820116820180604052508101906130889190613a77565b6001600160a01b0316146130de5760405162461bcd60e51b815260206004820152601960248201527f43616c6c6572206973206e6f7420746f6b656e206f776e65720000000000000060448201526064016107f3565b6001600160a01b03828116600081815260fe602090815260408083208054600181018255908452919092200184905560fb5490516323b872dd60e01b8152600481019290925230602483015260448201849052909116906323b872dd90606401600060405180830381600087803b15801561315857600080fd5b505af115801561316c573d6000803e3d6000fd5b505050505050565b60fc54600160a01b900460ff166117b15760405162461bcd60e51b81526020600482015260156024820152744d696e74204e4654206973206e6f7420726561647960581b60448201526064016107f3565b6000805b610101548110156132325761010181815481106131e8576131e86144d7565b90600052602060002090601091828204019190066002029054906101000a900461ffff1661ffff168361ffff16141561322057600191505b8061322a8161447c565b9150506131c9565b50806112c45760405162461bcd60e51b815260206004820152600c60248201526b141858dac81a5b9d985b1a5960a21b60448201526064016107f3565b600061327b6101065490565b6101055461328991906143fe565b90508161ffff1681101561329c82613323565b600183116132c657604051806040016040528060048152602001630813919560e21b8152506132e5565b60405180604001604052806005815260200164204e46547360d81b8152505b6040516020016132f6929190613f20565b6040516020818303038152906040529061239b5760405162461bcd60e51b81526004016107f39190614143565b6060816133475750506040805180820190915260018152600360fc1b602082015290565b8160005b8115613371578061335b8161447c565b915061336a9050600a836143ea565b915061334b565b6000816001600160401b0381111561338b5761338b6144ed565b6040519080825280601f01601f1916602001820160405280156133b5576020820181803683370190505b5090505b8415613420576133ca6001836143fe565b91506133d7600a86614497565b6133e29060306143d2565b60f81b8183815181106133f7576133f76144d7565b60200101906001600160f81b031916908160001a905350613419600a866143ea565b94506133b9565b949350505050565b6001600160a01b0381163b6134955760405162461bcd60e51b815260206004820152602d60248201527f455243313936373a206e657720696d706c656d656e746174696f6e206973206e60448201526c1bdd08184818dbdb9d1c9858dd609a1b60648201526084016107f3565b60008051602061451983398151915280546001600160a01b0319166001600160a01b0392909216919091179055565b6134cd836135a7565b6000825111806134da5750805b1561239b57612de983836135e7565b600080805b6101015481101561356f57610101818154811061350d5761350d6144d7565b90600052602060002090601091828204019190066002029054906101000a900461ffff1661ffff168561ffff16141561355d57838181518110613552576135526144d7565b602002602001015191505b806135678161447c565b9150506134ee565b509392505050565b600054610100900460ff1661359e5760405162461bcd60e51b81526004016107f3906142fd565b6117b133612f62565b6135b081613428565b6040516001600160a01b038216907fbc7cd75a20ee27fd9adebab32041f755214dbc6bffa90cc0225b39da2e5c2d3b90600090a250565b60606001600160a01b0383163b61364f5760405162461bcd60e51b815260206004820152602660248201527f416464726573733a2064656c65676174652063616c6c20746f206e6f6e2d636f6044820152651b9d1c9858dd60d21b60648201526084016107f3565b600080846001600160a01b03168460405161366a9190613f04565b600060405180830381855af49150503d80600081146136a5576040519150601f19603f3d011682016040523d82523d6000602084013e6136aa565b606091505b50915091506136d28282604051806060016040528060278152602001614559602791396136db565b95945050505050565b606083156136ea57508161234b565b8251156136fa5782518084602001fd5b8160405162461bcd60e51b81526004016107f39190614143565b82805482825590600052602060002090810192821561374f579160200282015b8281111561374f578251825591602001919060010190613734565b5061375b9291506138cb565b5090565b82805482825590600052602060002090600f0160109004810192821561374f5791602002820160005b838211156137c857835183826101000a81548161ffff021916908361ffff1602179055509260200192600201602081600101049283019260010302613788565b80156137f65782816101000a81549061ffff02191690556002016020816001010492830192600103026137c8565b505061375b9291506138cb565b82805482825590600052602060002090810192821561374f579160200282015b8281111561374f57825182546001600160a01b0319166001600160a01b03909116178255602090920191600190910190613823565b82805461386490614441565b90600052602060002090601f016020900481019282613886576000855561374f565b82601f1061389f57805160ff191683800117855561374f565b8280016001018555821561374f579182018281111561374f578251825591602001919060010190613734565b5b8082111561375b57600081556001016138cc565b80356138eb81614503565b919050565b600082601f83011261390157600080fd5b81356020613916613911836143af565b61437f565b80838252828201915082860187848660051b890101111561393657600080fd5b60005b8581101561395c5761394a82613a48565b84529284019290840190600101613939565b5090979650505050505050565b600082601f83011261397a57600080fd5b8135602061398a613911836143af565b80838252828201915082860187848660051b89010111156139aa57600080fd5b60005b8581101561395c578135845292840192908401906001016139ad565b803580151581146138eb57600080fd5b600082601f8301126139ea57600080fd5b81356001600160401b03811115613a0357613a036144ed565b613a16601f8201601f191660200161437f565b818152846020838601011115613a2b57600080fd5b816020850160208301376000918101602001919091529392505050565b803561ffff811681146138eb57600080fd5b600060208284031215613a6c57600080fd5b813561234b81614503565b600060208284031215613a8957600080fd5b815161234b81614503565b60008060008060808587031215613aaa57600080fd5b8435613ab581614503565b93506020850135613ac581614503565b92506040850135915060608501356001600160401b03811115613ae757600080fd5b613af3878288016139d9565b91505092959194509250565b60008060408385031215613b1257600080fd5b8235613b1d81614503565b9150613b2b602084016139c9565b90509250929050565b60008060408385031215613b4757600080fd5b8235613b5281614503565b915060208301356001600160401b03811115613b6d57600080fd5b613b79858286016139d9565b9150509250929050565b600080600060608486031215613b9857600080fd5b8335613ba381614503565b95602085013595506040909401359392505050565b60008060408385031215613bcb57600080fd5b82356001600160401b03811115613be157600080fd5b8301601f81018513613bf257600080fd5b80356020613c02613911836143af565b80838252828201915082850189848660051b8801011115613c2257600080fd5b600095505b84861015613c4e578035613c3a81614503565b835260019590950194918301918301613c27565b509550613c5e90508682016139c9565b93505050509250929050565b600060208284031215613c7c57600080fd5b81356001600160401b03811115613c9257600080fd5b61342084828501613969565b600060208284031215613cb057600080fd5b61234b826139c9565b600060208284031215613ccb57600080fd5b5051919050565b600060208284031215613ce457600080fd5b81356001600160401b03811115613cfa57600080fd5b613420848285016139d9565b600060208284031215613d1857600080fd5b61234b82613a48565b600080600060608486031215613d3657600080fd5b613d3f84613a48565b925060208401356001600160401b0380821115613d5b57600080fd5b613d6787838801613969565b93506040860135915080821115613d7d57600080fd5b50613d8a868287016139d9565b9150509250925092565b60008060408385031215613da757600080fd5b613b5283613a48565b600060208284031215613dc257600080fd5b5035919050565b600080600080600080600080610100898b031215613de657600080fd5b8835975060208901356001600160401b0380821115613e0457600080fd5b613e108c838d016138f0565b985060408b0135915080821115613e2657600080fd5b613e328c838d01613969565b975060608b0135915080821115613e4857600080fd5b50613e558b828c01613969565b955050613e6460808a016138e0565b9350613e7260a08a016138e0565b9250613e8060c08a016138e0565b9150613e8e60e08a016138e0565b90509295985092959890939650565b600081518084526020808501945080840160005b83811015613ecd57815187529582019590820190600101613eb1565b509495945050505050565b60008151808452613ef0816020860160208601614415565b601f01601f19169290920160200192915050565b60008251613f16818460208701614415565b9190910192915050565b7f546865206e756d626572206f66204e465473206973206e6f7420656e6f756768815271016103a3434b9903937bab732103632b33a160751b602082015260008351613f73816032850160208801614415565b835190830190613f8a816032840160208801614415565b01603201949350505050565b6c4d696e74506173734e4654202360981b815260008251613fbe81600d850160208701614415565b7f20776173207573656420696e207468697320726f756e64000000000000000000600d939091019283015250602401919050565b6c4d696e74506173734e4654202360981b81526000825161401a81600d850160208701614415565b6a081a5cc81a5b9d985b1a5960aa1b600d939091019283015250601801919050565b60006020808301818452808551808352604092508286019150828160051b87010184880160005b838110156140af57888303603f1901855281518051845287810151151588850152860151606087850181905261409b81860183613e9d565b968901969450505090860190600101614063565b509098975050505050505050565b602080825282518282018190526000919060409081850190868401855b828110156141015781518051855286015115158685015292840192908501906001016140da565b5091979650505050505050565b60208152600061234b6020830184613e9d565b6040815260006141346040830185613e9d565b90508260208301529392505050565b60208152600061234b6020830184613ed8565b6040815260006141696040830185613ed8565b60208382038185015281855480845282840191508660005282600020935060005b8181101561395c5784548352600194850194928401920161418a565b60208082526023908201527f546865206f70657261746f7220697320746865206f776e65722773206164647260408201526265737360e81b606082015260800190565b6020808252602c908201527f46756e6374696f6e206d7573742062652063616c6c6564207468726f7567682060408201526b19195b1959d85d1958d85b1b60a21b606082015260800190565b6020808252602c908201527f46756e6374696f6e206d7573742062652063616c6c6564207468726f7567682060408201526b6163746976652070726f787960a01b606082015260800190565b6020808252602f908201527f4f776e61626c653a2063616c6c6572206973206e6f7420746865206f776e657260408201526e081bdc881a5cc8185c1c1c9bdd9959608a1b606082015260800190565b60208082526013908201527214185c985b595d195c9cc81a5b881d985b1a59606a1b604082015260600190565b6020808252602b908201527f496e697469616c697a61626c653a20636f6e7472616374206973206e6f74206960408201526a6e697469616c697a696e6760a81b606082015260800190565b6020808252601f908201527f5265656e7472616e637947756172643a207265656e7472616e742063616c6c00604082015260600190565b604051601f8201601f191681016001600160401b03811182821017156143a7576143a76144ed565b604052919050565b60006001600160401b038211156143c8576143c86144ed565b5060051b60200190565b600082198211156143e5576143e56144ab565b500190565b6000826143f9576143f96144c1565b500490565b600082821015614410576144106144ab565b500390565b60005b83811015614430578181015183820152602001614418565b83811115612de95750506000910152565b600181811c9082168061445557607f821691505b6020821081141561447657634e487b7160e01b600052602260045260246000fd5b50919050565b6000600019821415614490576144906144ab565b5060010190565b6000826144a6576144a66144c1565b500690565b634e487b7160e01b600052601160045260246000fd5b634e487b7160e01b600052601260045260246000fd5b634e487b7160e01b600052603260045260246000fd5b634e487b7160e01b600052604160045260246000fd5b6001600160a01b03811681146109ba57600080fdfe360894a13ba1a3210667c828492db98dca3e2076cc3735a920a3ca505d382bbc69031b1a7e7913762e884dd55b4b42c47d8a362a2715200304a1e1a0f63ec309416464726573733a206c6f772d6c6576656c2064656c65676174652063616c6c206661696c6564a2646970667358221220a3798ef56d720059e30be853aff9151776778bbb655080dcacfa8c82ff0ba23a64736f6c63430008070033",
  "linkReferences": {},
  "deployedLinkReferences": {}
}