{
  "_format": "hh-sol-artifact-1",
  "contractName": "UMoonFitNFTWorldCupSale",
  "sourceName": "contracts/upgradeables/UMoonFitNFTWorldCupSale.sol",
  "abi": [
    {
      "inputs": [],
      "stateMutability": "nonpayable",
      "type": "constructor"
    },
    {
      "anonymous": false,
      "inputs": [
        {
          "indexed": false,
          "internalType": "address",
          "name": "previousAdmin",
          "type": "address"
        },
        {
          "indexed": false,
          "internalType": "address",
          "name": "newAdmin",
          "type": "address"
        }
      ],
      "name": "AdminChanged",
      "type": "event"
    },
    {
      "anonymous": false,
      "inputs": [
        {
          "indexed": true,
          "internalType": "address",
          "name": "beacon",
          "type": "address"
        }
      ],
      "name": "BeaconUpgraded",
      "type": "event"
    },
    {
      "anonymous": false,
      "inputs": [
        {
          "indexed": false,
          "internalType": "uint8",
          "name": "version",
          "type": "uint8"
        }
      ],
      "name": "Initialized",
      "type": "event"
    },
    {
      "anonymous": false,
      "inputs": [
        {
          "indexed": false,
          "internalType": "address",
          "name": "beneficiary",
          "type": "address"
        }
      ],
      "name": "NFTPurchased",
      "type": "event"
    },
    {
      "anonymous": false,
      "inputs": [
        {
          "indexed": true,
          "internalType": "address",
          "name": "previousOwner",
          "type": "address"
        },
        {
          "indexed": true,
          "internalType": "address",
          "name": "newOwner",
          "type": "address"
        }
      ],
      "name": "OwnershipTransferred",
      "type": "event"
    },
    {
      "anonymous": false,
      "inputs": [
        {
          "indexed": false,
          "internalType": "uint256",
          "name": "currentSaleAmount",
          "type": "uint256"
        },
        {
          "indexed": false,
          "internalType": "uint256",
          "name": "maxSaleAmount",
          "type": "uint256"
        }
      ],
      "name": "UpdateSaleAmount",
      "type": "event"
    },
    {
      "anonymous": false,
      "inputs": [
        {
          "indexed": true,
          "internalType": "address",
          "name": "implementation",
          "type": "address"
        }
      ],
      "name": "Upgraded",
      "type": "event"
    },
    {
      "inputs": [],
      "name": "_maxSaleAmount",
      "outputs": [
        {
          "internalType": "uint256",
          "name": "",
          "type": "uint256"
        }
      ],
      "stateMutability": "view",
      "type": "function"
    },
    {
      "inputs": [],
      "name": "_moonBeastNFT",
      "outputs": [
        {
          "internalType": "contract MoonBeast",
          "name": "",
          "type": "address"
        }
      ],
      "stateMutability": "view",
      "type": "function"
    },
    {
      "inputs": [],
      "name": "_price",
      "outputs": [
        {
          "internalType": "uint256",
          "name": "",
          "type": "uint256"
        }
      ],
      "stateMutability": "view",
      "type": "function"
    },
    {
      "inputs": [
        {
          "internalType": "uint256",
          "name": "",
          "type": "uint256"
        }
      ],
      "name": "_teams",
      "outputs": [
        {
          "internalType": "string",
          "name": "",
          "type": "string"
        }
      ],
      "stateMutability": "view",
      "type": "function"
    },
    {
      "inputs": [],
      "name": "_wallet",
      "outputs": [
        {
          "internalType": "address payable",
          "name": "",
          "type": "address"
        }
      ],
      "stateMutability": "view",
      "type": "function"
    },
    {
      "inputs": [
        {
          "internalType": "uint16",
          "name": "amount",
          "type": "uint16"
        },
        {
          "internalType": "string",
          "name": "team",
          "type": "string"
        }
      ],
      "name": "buyNFT",
      "outputs": [],
      "stateMutability": "payable",
      "type": "function"
    },
    {
      "inputs": [
        {
          "internalType": "uint256",
          "name": "tokenId",
          "type": "uint256"
        }
      ],
      "name": "checkMintByContract",
      "outputs": [
        {
          "internalType": "bool",
          "name": "",
          "type": "bool"
        }
      ],
      "stateMutability": "view",
      "type": "function"
    },
    {
      "inputs": [
        {
          "internalType": "address",
          "name": "owner",
          "type": "address"
        },
        {
          "internalType": "uint256",
          "name": "tokenId",
          "type": "uint256"
        }
      ],
      "name": "checkOwnerMinted",
      "outputs": [
        {
          "internalType": "bool",
          "name": "",
          "type": "bool"
        }
      ],
      "stateMutability": "view",
      "type": "function"
    },
    {
      "inputs": [],
      "name": "getAvailableSlots",
      "outputs": [
        {
          "internalType": "uint256",
          "name": "",
          "type": "uint256"
        }
      ],
      "stateMutability": "view",
      "type": "function"
    },
    {
      "inputs": [],
      "name": "getContractBalance",
      "outputs": [
        {
          "internalType": "uint256",
          "name": "",
          "type": "uint256"
        }
      ],
      "stateMutability": "view",
      "type": "function"
    },
    {
      "inputs": [
        {
          "internalType": "address",
          "name": "owner",
          "type": "address"
        },
        {
          "internalType": "uint256[]",
          "name": "arrIndex",
          "type": "uint256[]"
        }
      ],
      "name": "getMoonBeast",
      "outputs": [
        {
          "components": [
            {
              "internalType": "uint256",
              "name": "tokenId",
              "type": "uint256"
            },
            {
              "internalType": "string",
              "name": "uri",
              "type": "string"
            },
            {
              "internalType": "bool",
              "name": "mintByContract",
              "type": "bool"
            },
            {
              "internalType": "bool",
              "name": "isOwnerMinted",
              "type": "bool"
            }
          ],
          "internalType": "struct MoonBeastNFTSale[]",
          "name": "",
          "type": "tuple[]"
        }
      ],
      "stateMutability": "view",
      "type": "function"
    },
    {
      "inputs": [],
      "name": "getReadySale",
      "outputs": [
        {
          "internalType": "bool",
          "name": "",
          "type": "bool"
        }
      ],
      "stateMutability": "view",
      "type": "function"
    },
    {
      "inputs": [
        {
          "internalType": "uint256",
          "name": "tokenId",
          "type": "uint256"
        }
      ],
      "name": "getTeamByTokenId",
      "outputs": [
        {
          "internalType": "string",
          "name": "",
          "type": "string"
        }
      ],
      "stateMutability": "view",
      "type": "function"
    },
    {
      "inputs": [],
      "name": "getTeams",
      "outputs": [
        {
          "internalType": "string[]",
          "name": "",
          "type": "string[]"
        }
      ],
      "stateMutability": "view",
      "type": "function"
    },
    {
      "inputs": [
        {
          "internalType": "uint256",
          "name": "maxSaleAmount",
          "type": "uint256"
        },
        {
          "internalType": "uint256",
          "name": "price",
          "type": "uint256"
        },
        {
          "internalType": "address",
          "name": "moonBeastNFT",
          "type": "address"
        },
        {
          "internalType": "address",
          "name": "wallet",
          "type": "address"
        },
        {
          "internalType": "string[]",
          "name": "teams",
          "type": "string[]"
        }
      ],
      "name": "initialize",
      "outputs": [],
      "stateMutability": "nonpayable",
      "type": "function"
    },
    {
      "inputs": [],
      "name": "owner",
      "outputs": [
        {
          "internalType": "address",
          "name": "",
          "type": "address"
        }
      ],
      "stateMutability": "view",
      "type": "function"
    },
    {
      "inputs": [],
      "name": "proxiableUUID",
      "outputs": [
        {
          "internalType": "bytes32",
          "name": "",
          "type": "bytes32"
        }
      ],
      "stateMutability": "view",
      "type": "function"
    },
    {
      "inputs": [],
      "name": "renounceOwnership",
      "outputs": [],
      "stateMutability": "nonpayable",
      "type": "function"
    },
    {
      "inputs": [
        {
          "internalType": "uint256",
          "name": "maxSaleAmount",
          "type": "uint256"
        }
      ],
      "name": "setMaxSaleAmount",
      "outputs": [],
      "stateMutability": "nonpayable",
      "type": "function"
    },
    {
      "inputs": [
        {
          "internalType": "address",
          "name": "moonBeast",
          "type": "address"
        }
      ],
      "name": "setMoonBeastNFT",
      "outputs": [],
      "stateMutability": "nonpayable",
      "type": "function"
    },
    {
      "inputs": [
        {
          "internalType": "uint256",
          "name": "price",
          "type": "uint256"
        }
      ],
      "name": "setPrice",
      "outputs": [],
      "stateMutability": "nonpayable",
      "type": "function"
    },
    {
      "inputs": [
        {
          "internalType": "bool",
          "name": "value",
          "type": "bool"
        }
      ],
      "name": "setReadySale",
      "outputs": [],
      "stateMutability": "nonpayable",
      "type": "function"
    },
    {
      "inputs": [
        {
          "internalType": "string[]",
          "name": "teams",
          "type": "string[]"
        }
      ],
      "name": "setTeams",
      "outputs": [],
      "stateMutability": "nonpayable",
      "type": "function"
    },
    {
      "inputs": [
        {
          "internalType": "address payable",
          "name": "wallet",
          "type": "address"
        }
      ],
      "name": "setWallet",
      "outputs": [],
      "stateMutability": "nonpayable",
      "type": "function"
    },
    {
      "inputs": [
        {
          "internalType": "address",
          "name": "newOwner",
          "type": "address"
        }
      ],
      "name": "transferOwnership",
      "outputs": [],
      "stateMutability": "nonpayable",
      "type": "function"
    },
    {
      "inputs": [
        {
          "internalType": "address",
          "name": "newImplementation",
          "type": "address"
        }
      ],
      "name": "upgradeTo",
      "outputs": [],
      "stateMutability": "nonpayable",
      "type": "function"
    },
    {
      "inputs": [
        {
          "internalType": "address",
          "name": "newImplementation",
          "type": "address"
        },
        {
          "internalType": "bytes",
          "name": "data",
          "type": "bytes"
        }
      ],
      "name": "upgradeToAndCall",
      "outputs": [],
      "stateMutability": "payable",
      "type": "function"
    },
    {
      "inputs": [],
      "name": "withdrawTokenByOwner",
      "outputs": [],
      "stateMutability": "nonpayable",
      "type": "function"
    }
  ],
  "bytecode": "0x60a06040523073ffffffffffffffffffffffffffffffffffffffff1660809073ffffffffffffffffffffffffffffffffffffffff1660601b8152503480156200004757600080fd5b50620000586200005e60201b60201c565b62000209565b600060019054906101000a900460ff1615620000b1576040517f08c379a0000000000000000000000000000000000000000000000000000000008152600401620000a8906200015d565b60405180910390fd5b60ff801660008054906101000a900460ff1660ff161015620001235760ff6000806101000a81548160ff021916908360ff1602179055507f7f26b83ff96e1f2b6a682f133852f6798a09c465da95921460cefb384740249860ff6040516200011a91906200017f565b60405180910390a15b565b6000620001346027836200019c565b91506200014182620001ba565b604082019050919050565b6200015781620001ad565b82525050565b60006020820190508181036000830152620001788162000125565b9050919050565b60006020820190506200019660008301846200014c565b92915050565b600082825260208201905092915050565b600060ff82169050919050565b7f496e697469616c697a61626c653a20636f6e747261637420697320696e69746960008201527f616c697a696e6700000000000000000000000000000000000000000000000000602082015250565b60805160601c6149dd62000244600039600081816108f40152818161098301528181610a7d01528181610b0c0152610be101526149dd6000f3fe6080604052600436106101b75760003560e01c8063715018a6116100ec578063b9d18eae1161008a578063deed00f611610064578063deed00f6146105ca578063f2fde38b146105f5578063f4ec521e1461061e578063f62ff7f514610649576101b7565b8063b9d18eae1461055a578063dbc4a63b14610585578063deaa59df146105a1576101b7565b806375b01d94116100c657806375b01d941461048c5780638da5cb5b146104c957806391b7f5ed146104f4578063a0e429671461051d576101b7565b8063715018a6146104215780637428edea1461043857806375437b9814610463576101b7565b8063514c1ba6116101595780635b3830f3116101335780635b3830f3146103655780635d0a8f6d146103a2578063610757e4146103cb5780636f9fb98a146103f6576101b7565b8063514c1ba6146102d457806352d1902d146102fd5780635afa1a7614610328576101b7565b8063235b6ea111610195578063235b6ea1146102395780632725368f146102645780633659cfe61461028f5780634f1ef286146102b8576101b7565b806312c0aeb9146101bc578063228443d8146101d357806322bc5a3f146101fc575b600080fd5b3480156101c857600080fd5b506101d1610672565b005b3480156101df57600080fd5b506101fa60048036038101906101f59190612c6a565b610729565b005b34801561020857600080fd5b50610223600480360381019061021e9190612d80565b6107e5565b60405161023091906137ee565b60405180910390f35b34801561024557600080fd5b5061024e6108c5565b60405161025b9190613bfc565b60405180910390f35b34801561027057600080fd5b506102796108cc565b6040516102869190613824565b60405180910390f35b34801561029b57600080fd5b506102b660048036038101906102b19190612c6a565b6108f2565b005b6102d260048036038101906102cd9190612d24565b610a7b565b005b3480156102e057600080fd5b506102fb60048036038101906102f69190612e09565b610bb8565b005b34801561030957600080fd5b50610312610bdd565b60405161031f9190613809565b60405180910390f35b34801561033457600080fd5b5061034f600480360381019061034a9190612cc4565b610c96565b60405161035c91906137cc565b60405180910390f35b34801561037157600080fd5b5061038c60048036038101906103879190612f08565b610f0c565b604051610399919061385a565b60405180910390f35b3480156103ae57600080fd5b506103c960048036038101906103c49190612f08565b610fb8565b005b3480156103d757600080fd5b506103e0611059565b6040516103ed9190613766565b60405180910390f35b34801561040257600080fd5b5061040b611080565b6040516104189190613bfc565b60405180910390f35b34801561042d57600080fd5b5061043661108d565b005b34801561044457600080fd5b5061044d6110a1565b60405161045a9190613bfc565b60405180910390f35b34801561046f57600080fd5b5061048a60048036038101906104859190612f62565b6110a7565b005b34801561049857600080fd5b506104b360048036038101906104ae9190612f08565b611461565b6040516104c091906137ee565b60405180910390f35b3480156104d557600080fd5b506104de61148c565b6040516104eb919061374b565b60405180910390f35b34801561050057600080fd5b5061051b60048036038101906105169190612f08565b6114b6565b005b34801561052957600080fd5b50610544600480360381019061053f9190612f08565b61150c565b604051610551919061385a565b60405180910390f35b34801561056657600080fd5b5061056f6115b1565b60405161057c9190613bfc565b60405180910390f35b61059f600480360381019061059a9190612eac565b6115d0565b005b3480156105ad57600080fd5b506105c860048036038101906105c39190612c97565b611a55565b005b3480156105d657600080fd5b506105df611b12565b6040516105ec91906137ee565b60405180910390f35b34801561060157600080fd5b5061061c60048036038101906106179190612c6a565b611b29565b005b34801561062a57600080fd5b50610633611bad565b60405161064091906137aa565b60405180910390f35b34801561065557600080fd5b50610670600480360381019061066b9190612dc0565b611c86565b005b61067a611ced565b600047116106bd576040517f08c379a00000000000000000000000000000000000000000000000000000000081526004016106b490613abc565b60405180910390fd5b61010460009054906101000a900473ffffffffffffffffffffffffffffffffffffffff1673ffffffffffffffffffffffffffffffffffffffff166108fc479081150290604051600060405180830381858888f19350505050158015610726573d6000803e3d6000fd5b50565b610731611ced565b600073ffffffffffffffffffffffffffffffffffffffff168173ffffffffffffffffffffffffffffffffffffffff1614156107a1576040517f08c379a000000000000000000000000000000000000000000000000000000000815260040161079890613a1c565b60405180910390fd5b8060fb60006101000a81548173ffffffffffffffffffffffffffffffffffffffff021916908373ffffffffffffffffffffffffffffffffffffffff16021790555050565b600080600090505b61010260008573ffffffffffffffffffffffffffffffffffffffff1673ffffffffffffffffffffffffffffffffffffffff168152602001908152602001600020805490508110156108b9578261010260008673ffffffffffffffffffffffffffffffffffffffff1673ffffffffffffffffffffffffffffffffffffffff168152602001908152602001600020828154811061088b5761088a61413b565b5b906000526020600020015414156108a65760019150506108bf565b80806108b190614034565b9150506107ed565b50600090505b92915050565b6101035481565b60fb60009054906101000a900473ffffffffffffffffffffffffffffffffffffffff1681565b7f000000000000000000000000000000000000000000000000000000000000000073ffffffffffffffffffffffffffffffffffffffff163073ffffffffffffffffffffffffffffffffffffffff161415610981576040517f08c379a00000000000000000000000000000000000000000000000000000000081526004016109789061393c565b60405180910390fd5b7f000000000000000000000000000000000000000000000000000000000000000073ffffffffffffffffffffffffffffffffffffffff166109c0611d6b565b73ffffffffffffffffffffffffffffffffffffffff1614610a16576040517f08c379a0000000000000000000000000000000000000000000000000000000008152600401610a0d9061395c565b60405180910390fd5b610a1f81611dc2565b610a7881600067ffffffffffffffff811115610a3e57610a3d61416a565b5b6040519080825280601f01601f191660200182016040528015610a705781602001600182028036833780820191505090505b506000611dcd565b50565b7f000000000000000000000000000000000000000000000000000000000000000073ffffffffffffffffffffffffffffffffffffffff163073ffffffffffffffffffffffffffffffffffffffff161415610b0a576040517f08c379a0000000000000000000000000000000000000000000000000000000008152600401610b019061393c565b60405180910390fd5b7f000000000000000000000000000000000000000000000000000000000000000073ffffffffffffffffffffffffffffffffffffffff16610b49611d6b565b73ffffffffffffffffffffffffffffffffffffffff1614610b9f576040517f08c379a0000000000000000000000000000000000000000000000000000000008152600401610b969061395c565b60405180910390fd5b610ba882611dc2565b610bb482826001611dcd565b5050565b610bc0611ced565b8060fe60006101000a81548160ff02191690831515021790555050565b60007f000000000000000000000000000000000000000000000000000000000000000073ffffffffffffffffffffffffffffffffffffffff163073ffffffffffffffffffffffffffffffffffffffff1614610c6d576040517f08c379a0000000000000000000000000000000000000000000000000000000008152600401610c649061397c565b60405180910390fd5b7f360894a13ba1a3210667c828492db98dca3e2076cc3735a920a3ca505d382bbc60001b905090565b606060008383905067ffffffffffffffff811115610cb757610cb661416a565b5b604051908082528060200260200182016040528015610cf057816020015b610cdd6127e2565b815260200190600190039081610cd55790505b50905060008060005b86869050811015610efe57868682818110610d1757610d1661413b565b5b90506020020135915060fb60009054906101000a900473ffffffffffffffffffffffffffffffffffffffff1673ffffffffffffffffffffffffffffffffffffffff16632f745c5989846040518363ffffffff1660e01b8152600401610d7d929190613781565b60206040518083038186803b158015610d9557600080fd5b505afa158015610da9573d6000803e3d6000fd5b505050506040513d601f19601f82011682018060405250810190610dcd9190612f35565b9250604051806080016040528084815260200160fb60009054906101000a900473ffffffffffffffffffffffffffffffffffffffff1673ffffffffffffffffffffffffffffffffffffffff1663c87b56dd866040518263ffffffff1660e01b8152600401610e3b9190613bfc565b60006040518083038186803b158015610e5357600080fd5b505afa158015610e67573d6000803e3d6000fd5b505050506040513d6000823e3d601f19601f82011682018060405250810190610e909190612e63565b8152602001610100600086815260200190815260200160002060009054906101000a900460ff1615158152602001610ec88a866107e5565b1515815250848281518110610ee057610edf61413b565b5b60200260200101819052508080610ef690614034565b915050610cf9565b508293505050509392505050565b60fc8181548110610f1c57600080fd5b906000526020600020016000915090508054610f3790613fd1565b80601f0160208091040260200160405190810160405280929190818152602001828054610f6390613fd1565b8015610fb05780601f10610f8557610100808354040283529160200191610fb0565b820191906000526020600020905b815481529060010190602001808311610f9357829003601f168201915b505050505081565b610fc0611ced565b60008111611003576040517f08c379a0000000000000000000000000000000000000000000000000000000008152600401610ffa906138bc565b60405180910390fd5b61100e610101611f4a565b811161104f576040517f08c379a0000000000000000000000000000000000000000000000000000000008152600401611046906138fc565b60405180910390fd5b8060ff8190555050565b61010460009054906101000a900473ffffffffffffffffffffffffffffffffffffffff1681565b6000804790508091505090565b611095611ced565b61109f6000611f58565b565b60ff5481565b60008060019054906101000a900460ff161590508080156110d85750600160008054906101000a900460ff1660ff16105b8061110557506110e73061201e565b1580156111045750600160008054906101000a900460ff1660ff16145b5b611144576040517f08c379a000000000000000000000000000000000000000000000000000000000815260040161113b906139dc565b60405180910390fd5b60016000806101000a81548160ff021916908360ff1602179055508015611181576001600060016101000a81548160ff0219169083151502179055505b600086116111c4576040517f08c379a00000000000000000000000000000000000000000000000000000000081526004016111bb9061387c565b60405180910390fd5b60008511611207576040517f08c379a00000000000000000000000000000000000000000000000000000000081526004016111fe9061387c565b60405180910390fd5b600073ffffffffffffffffffffffffffffffffffffffff168473ffffffffffffffffffffffffffffffffffffffff161415611277576040517f08c379a000000000000000000000000000000000000000000000000000000000815260040161126e9061399c565b60405180910390fd5b600073ffffffffffffffffffffffffffffffffffffffff168373ffffffffffffffffffffffffffffffffffffffff1614156112e7576040517f08c379a00000000000000000000000000000000000000000000000000000000081526004016112de90613b5c565b60405180910390fd5b60008251141561132c576040517f08c379a000000000000000000000000000000000000000000000000000000000815260040161132390613b9c565b60405180910390fd5b611334612041565b61133c61209a565b8560ff8190555084610103819055508360fb60006101000a81548173ffffffffffffffffffffffffffffffffffffffff021916908373ffffffffffffffffffffffffffffffffffffffff1602179055508261010460006101000a81548173ffffffffffffffffffffffffffffffffffffffff021916908373ffffffffffffffffffffffffffffffffffffffff160217905550600060fe60006101000a81548160ff0219169083151502179055508160fc90805190602001906113ff92919061280e565b5080156114595760008060016101000a81548160ff0219169083151502179055507f7f26b83ff96e1f2b6a682f133852f6798a09c465da95921460cefb38474024986001604051611450919061383f565b60405180910390a15b505050505050565b6000610100600083815260200190815260200160002060009054906101000a900460ff169050919050565b6000606560009054906101000a900473ffffffffffffffffffffffffffffffffffffffff16905090565b6114be611ced565b60008111611501576040517f08c379a00000000000000000000000000000000000000000000000000000000081526004016114f890613bdc565b60405180910390fd5b806101038190555050565b606060fd6000838152602001908152602001600020805461152c90613fd1565b80601f016020809104026020016040519081016040528092919081815260200182805461155890613fd1565b80156115a55780601f1061157a576101008083540402835291602001916115a5565b820191906000526020600020905b81548152906001019060200180831161158857829003601f168201915b50505050509050919050565b60006115be610101611f4a565b60ff546115cb9190613e94565b905090565b60026001541415611616576040517f08c379a000000000000000000000000000000000000000000000000000000000815260040161160d90613bbc565b60405180910390fd5b600260018190555060fe60009054906101000a900460ff1661166d576040517f08c379a000000000000000000000000000000000000000000000000000000000815260040161166490613b1c565b60405180910390fd5b60008261ffff16116116b4576040517f08c379a00000000000000000000000000000000000000000000000000000000081526004016116ab9061387c565b60405180910390fd5b60006116c1610101611f4a565b60ff546116ce9190613e94565b90508261ffff168110156116e1826120eb565b60018311611724576040518060400160405280600481526020017f204e46540000000000000000000000000000000000000000000000000000000081525061175b565b6040518060400160405280600581526020017f204e4654730000000000000000000000000000000000000000000000000000008152505b60405160200161176c929190613711565b604051602081830303815290604052906117bc576040517f08c379a00000000000000000000000000000000000000000000000000000000081526004016117b3919061385a565b60405180910390fd5b5060006117c761224c565b90506117d88461ffff168234612254565b6117e18361235c565b60005b8461ffff16811015611a025760ff546117fe610101611f4a565b111561183f576040517f08c379a000000000000000000000000000000000000000000000000000000000815260040161183690613a9c565b60405180910390fd5b600060fb60009054906101000a900473ffffffffffffffffffffffffffffffffffffffff1673ffffffffffffffffffffffffffffffffffffffff166354ba0f27846040518263ffffffff1660e01b815260040161189c919061374b565b602060405180830381600087803b1580156118b657600080fd5b505af11580156118ca573d6000803e3d6000fd5b505050506040513d601f19601f820116820180604052508101906118ee9190612f35565b905061010260008473ffffffffffffffffffffffffffffffffffffffff1673ffffffffffffffffffffffffffffffffffffffff1681526020019081526020016000208190806001815401808255809150506001900390600052602060002001600090919091909150556001610100600083815260200190815260200160002060006101000a81548160ff02191690831515021790555061198f61010161247f565b8460fd600083815260200190815260200160002090805190602001906119b692919061286e565b507ff403523e17bf2d1fe8af1a00ba36bc463a7d846dbadf11d117400f7694ba3e6c836040516119e6919061374b565b60405180910390a15080806119fa90614034565b9150506117e4565b507f97bf454f192532251dbd9fbe53f38ecdffa89b2d4f9eb0a6a3ffcd656b4cb329611a2f610101611f4a565b60ff54604051611a40929190613c17565b60405180910390a15050600180819055505050565b611a5d611ced565b600073ffffffffffffffffffffffffffffffffffffffff168173ffffffffffffffffffffffffffffffffffffffff161415611acd576040517f08c379a0000000000000000000000000000000000000000000000000000000008152600401611ac49061389c565b60405180910390fd5b8061010460006101000a81548173ffffffffffffffffffffffffffffffffffffffff021916908373ffffffffffffffffffffffffffffffffffffffff16021790555050565b600060fe60009054906101000a900460ff16905090565b611b31611ced565b600073ffffffffffffffffffffffffffffffffffffffff168173ffffffffffffffffffffffffffffffffffffffff161415611ba1576040517f08c379a0000000000000000000000000000000000000000000000000000000008152600401611b989061391c565b60405180910390fd5b611baa81611f58565b50565b606060fc805480602002602001604051908101604052809291908181526020016000905b82821015611c7d578382906000526020600020018054611bf090613fd1565b80601f0160208091040260200160405190810160405280929190818152602001828054611c1c90613fd1565b8015611c695780601f10611c3e57610100808354040283529160200191611c69565b820191906000526020600020905b815481529060010190602001808311611c4c57829003601f168201915b505050505081526020019060010190611bd1565b50505050905090565b611c8e611ced565b600081511415611cd3576040517f08c379a0000000000000000000000000000000000000000000000000000000008152600401611cca90613b9c565b60405180910390fd5b8060fc9080519060200190611ce992919061280e565b5050565b611cf561224c565b73ffffffffffffffffffffffffffffffffffffffff16611d1361148c565b73ffffffffffffffffffffffffffffffffffffffff1614611d69576040517f08c379a0000000000000000000000000000000000000000000000000000000008152600401611d6090613a7c565b60405180910390fd5b565b6000611d997f360894a13ba1a3210667c828492db98dca3e2076cc3735a920a3ca505d382bbc60001b612495565b60000160009054906101000a900473ffffffffffffffffffffffffffffffffffffffff16905090565b611dca611ced565b50565b611df97f4910fdfa16fed3260ed0e7147f7cc6da11a60208b5b9406d12a635614ffd914360001b61249f565b60000160009054906101000a900460ff1615611e1d57611e18836124a9565b611f45565b8273ffffffffffffffffffffffffffffffffffffffff166352d1902d6040518163ffffffff1660e01b815260040160206040518083038186803b158015611e6357600080fd5b505afa925050508015611e9457506040513d601f19601f82011682018060405250810190611e919190612e36565b60015b611ed3576040517f08c379a0000000000000000000000000000000000000000000000000000000008152600401611eca90613a3c565b60405180910390fd5b7f360894a13ba1a3210667c828492db98dca3e2076cc3735a920a3ca505d382bbc60001b8114611f38576040517f08c379a0000000000000000000000000000000000000000000000000000000008152600401611f2f906139bc565b60405180910390fd5b50611f44838383612562565b5b505050565b600081600001549050919050565b6000606560009054906101000a900473ffffffffffffffffffffffffffffffffffffffff16905081606560006101000a81548173ffffffffffffffffffffffffffffffffffffffff021916908373ffffffffffffffffffffffffffffffffffffffff1602179055508173ffffffffffffffffffffffffffffffffffffffff168173ffffffffffffffffffffffffffffffffffffffff167f8be0079c531659141344cd1fd0a4f28419497f9722a3daafe3b4186f6b6457e060405160405180910390a35050565b6000808273ffffffffffffffffffffffffffffffffffffffff163b119050919050565b600060019054906101000a900460ff16612090576040517f08c379a000000000000000000000000000000000000000000000000000000000815260040161208790613b3c565b60405180910390fd5b61209861258e565b565b600060019054906101000a900460ff166120e9576040517f08c379a00000000000000000000000000000000000000000000000000000000081526004016120e090613b3c565b60405180910390fd5b565b60606000821415612133576040518060400160405280600181526020017f30000000000000000000000000000000000000000000000000000000000000008152509050612247565b600082905060005b6000821461216557808061214e90614034565b915050600a8261215e9190613e09565b915061213b565b60008167ffffffffffffffff8111156121815761218061416a565b5b6040519080825280601f01601f1916602001820160405280156121b35781602001600182028036833780820191505090505b5090505b60008514612240576001826121cc9190613e94565b9150600a856121db919061407d565b60306121e79190613db3565b60f81b8183815181106121fd576121fc61413b565b5b60200101907effffffffffffffffffffffffffffffffffffffffffffffffffffffffffffff1916908160001a905350600a856122399190613e09565b94506121b7565b8093505050505b919050565b600033905090565b60008311612297576040517f08c379a000000000000000000000000000000000000000000000000000000000815260040161228e90613afc565b60405180910390fd5b600073ffffffffffffffffffffffffffffffffffffffff168273ffffffffffffffffffffffffffffffffffffffff161415612307576040517f08c379a00000000000000000000000000000000000000000000000000000000081526004016122fe90613b7c565b60405180910390fd5b8083610103546123179190613e3a565b14612357576040517f08c379a000000000000000000000000000000000000000000000000000000000815260040161234e906139fc565b60405180910390fd5b505050565b6000805b60fc8054905081101561243a5761241d8360fc83815481106123855761238461413b565b5b90600052602060002001805461239a90613fd1565b80601f01602080910402602001604051908101604052809291908181526020018280546123c690613fd1565b80156124135780601f106123e857610100808354040283529160200191612413565b820191906000526020600020905b8154815290600101906020018083116123f657829003601f168201915b50505050506125ef565b1561242757600191505b808061243290614034565b915050612360565b508061247b576040517f08c379a0000000000000000000000000000000000000000000000000000000008152600401612472906138dc565b60405180910390fd5b5050565b6001816000016000828254019250508190555050565b6000819050919050565b6000819050919050565b6124b28161201e565b6124f1576040517f08c379a00000000000000000000000000000000000000000000000000000000081526004016124e890613a5c565b60405180910390fd5b8061251e7f360894a13ba1a3210667c828492db98dca3e2076cc3735a920a3ca505d382bbc60001b612495565b60000160006101000a81548173ffffffffffffffffffffffffffffffffffffffff021916908373ffffffffffffffffffffffffffffffffffffffff16021790555050565b61256b83612648565b6000825111806125785750805b15612589576125878383612697565b505b505050565b600060019054906101000a900460ff166125dd576040517f08c379a00000000000000000000000000000000000000000000000000000000081526004016125d490613b3c565b60405180910390fd5b6125ed6125e861224c565b611f58565b565b60008160405160200161260291906136fa565b604051602081830303815290604052805190602001208360405160200161262991906136fa565b6040516020818303038152906040528051906020012014905092915050565b612651816124a9565b8073ffffffffffffffffffffffffffffffffffffffff167fbc7cd75a20ee27fd9adebab32041f755214dbc6bffa90cc0225b39da2e5c2d3b60405160405180910390a250565b60606126a28361201e565b6126e1576040517f08c379a00000000000000000000000000000000000000000000000000000000081526004016126d890613adc565b60405180910390fd5b6000808473ffffffffffffffffffffffffffffffffffffffff168460405161270991906136e3565b600060405180830381855af49150503d8060008114612744576040519150601f19603f3d011682016040523d82523d6000602084013e612749565b606091505b509150915061277182826040518060600160405280602781526020016149816027913961277b565b9250505092915050565b6060831561278b578290506127db565b60008351111561279e5782518084602001fd5b816040517f08c379a00000000000000000000000000000000000000000000000000000000081526004016127d2919061385a565b60405180910390fd5b9392505050565b604051806080016040528060008152602001606081526020016000151581526020016000151581525090565b82805482825590600052602060002090810192821561285d579160200282015b8281111561285c57825182908051906020019061284c92919061286e565b509160200191906001019061282e565b5b50905061286a91906128f4565b5090565b82805461287a90613fd1565b90600052602060002090601f01602090048101928261289c57600085556128e3565b82601f106128b557805160ff19168380011785556128e3565b828001600101855582156128e3579182015b828111156128e25782518255916020019190600101906128c7565b5b5090506128f09190612918565b5090565b5b80821115612914576000818161290b9190612935565b506001016128f5565b5090565b5b80821115612931576000816000905550600101612919565b5090565b50805461294190613fd1565b6000825580601f106129535750612972565b601f0160209004906000526020600020908101906129719190612918565b5b50565b600061298861298384613c65565b613c40565b905080838252602082019050828560208602820111156129ab576129aa6141a3565b5b60005b858110156129f957813567ffffffffffffffff8111156129d1576129d061419e565b5b8086016129de8982612bcf565b855260208501945060208401935050506001810190506129ae565b5050509392505050565b6000612a16612a1184613c91565b613c40565b905082815260208101848484011115612a3257612a316141a8565b5b612a3d848285613f8f565b509392505050565b6000612a58612a5384613cc2565b613c40565b905082815260208101848484011115612a7457612a736141a8565b5b612a7f848285613f8f565b509392505050565b6000612a9a612a9584613cc2565b613c40565b905082815260208101848484011115612ab657612ab56141a8565b5b612ac1848285613f9e565b509392505050565b600081359050612ad8816148f6565b92915050565b600081359050612aed8161490d565b92915050565b600082601f830112612b0857612b0761419e565b5b8135612b18848260208601612975565b91505092915050565b60008083601f840112612b3757612b3661419e565b5b8235905067ffffffffffffffff811115612b5457612b53614199565b5b602083019150836020820283011115612b7057612b6f6141a3565b5b9250929050565b600081359050612b8681614924565b92915050565b600081519050612b9b8161493b565b92915050565b600082601f830112612bb657612bb561419e565b5b8135612bc6848260208601612a03565b91505092915050565b600082601f830112612be457612be361419e565b5b8135612bf4848260208601612a45565b91505092915050565b600082601f830112612c1257612c1161419e565b5b8151612c22848260208601612a87565b91505092915050565b600081359050612c3a81614952565b92915050565b600081359050612c4f81614969565b92915050565b600081519050612c6481614969565b92915050565b600060208284031215612c8057612c7f6141b2565b5b6000612c8e84828501612ac9565b91505092915050565b600060208284031215612cad57612cac6141b2565b5b6000612cbb84828501612ade565b91505092915050565b600080600060408486031215612cdd57612cdc6141b2565b5b6000612ceb86828701612ac9565b935050602084013567ffffffffffffffff811115612d0c57612d0b6141ad565b5b612d1886828701612b21565b92509250509250925092565b60008060408385031215612d3b57612d3a6141b2565b5b6000612d4985828601612ac9565b925050602083013567ffffffffffffffff811115612d6a57612d696141ad565b5b612d7685828601612ba1565b9150509250929050565b60008060408385031215612d9757612d966141b2565b5b6000612da585828601612ac9565b9250506020612db685828601612c40565b9150509250929050565b600060208284031215612dd657612dd56141b2565b5b600082013567ffffffffffffffff811115612df457612df36141ad565b5b612e0084828501612af3565b91505092915050565b600060208284031215612e1f57612e1e6141b2565b5b6000612e2d84828501612b77565b91505092915050565b600060208284031215612e4c57612e4b6141b2565b5b6000612e5a84828501612b8c565b91505092915050565b600060208284031215612e7957612e786141b2565b5b600082015167ffffffffffffffff811115612e9757612e966141ad565b5b612ea384828501612bfd565b91505092915050565b60008060408385031215612ec357612ec26141b2565b5b6000612ed185828601612c2b565b925050602083013567ffffffffffffffff811115612ef257612ef16141ad565b5b612efe85828601612bcf565b9150509250929050565b600060208284031215612f1e57612f1d6141b2565b5b6000612f2c84828501612c40565b91505092915050565b600060208284031215612f4b57612f4a6141b2565b5b6000612f5984828501612c55565b91505092915050565b600080600080600060a08688031215612f7e57612f7d6141b2565b5b6000612f8c88828901612c40565b9550506020612f9d88828901612c40565b9450506040612fae88828901612ac9565b9350506060612fbf88828901612ac9565b925050608086013567ffffffffffffffff811115612fe057612fdf6141ad565b5b612fec88828901612af3565b9150509295509295909350565b600061300583836131a5565b905092915050565b60006130198383613662565b905092915050565b61302a81613eda565b82525050565b61303981613ec8565b82525050565b600061304a82613d13565b6130548185613d59565b93508360208202850161306685613cf3565b8060005b858110156130a257848403895281516130838582612ff9565b945061308e83613d3f565b925060208a0199505060018101905061306a565b50829750879550505050505092915050565b60006130bf82613d1e565b6130c98185613d6a565b9350836020820285016130db85613d03565b8060005b8581101561311757848403895281516130f8858261300d565b945061310383613d4c565b925060208a019950506001810190506130df565b50829750879550505050505092915050565b61313281613eec565b82525050565b61314181613eec565b82525050565b61315081613ef8565b82525050565b600061316182613d29565b61316b8185613d7b565b935061317b818560208601613f9e565b80840191505092915050565b61319081613f47565b82525050565b61319f81613f59565b82525050565b60006131b082613d34565b6131ba8185613d86565b93506131ca818560208601613f9e565b6131d3816141b7565b840191505092915050565b60006131e982613d34565b6131f38185613d97565b9350613203818560208601613f9e565b61320c816141b7565b840191505092915050565b600061322282613d34565b61322c8185613da8565b935061323c818560208601613f9e565b80840191505092915050565b6000613255602483613d97565b9150613260826141c8565b604082019050919050565b6000613278601a83613d97565b915061328382614217565b602082019050919050565b600061329b602483613d97565b91506132a682614240565b604082019050919050565b60006132be601383613d97565b91506132c98261428f565b602082019050919050565b60006132e1603583613d97565b91506132ec826142b8565b604082019050919050565b6000613304602683613d97565b915061330f82614307565b604082019050919050565b6000613327602c83613d97565b915061333282614356565b604082019050919050565b600061334a603083613da8565b9150613355826143a5565b603082019050919050565b600061336d602c83613d97565b9150613378826143f4565b604082019050919050565b6000613390603883613d97565b915061339b82614443565b604082019050919050565b60006133b3602083613d97565b91506133be82614492565b602082019050919050565b60006133d6602983613d97565b91506133e1826144bb565b604082019050919050565b60006133f9602e83613d97565b91506134048261450a565b604082019050919050565b600061341c601d83613d97565b915061342782614559565b602082019050919050565b600061343f602083613d97565b915061344a82614582565b602082019050919050565b6000613462602e83613d97565b915061346d826145ab565b604082019050919050565b6000613485602d83613d97565b9150613490826145fa565b604082019050919050565b60006134a8602083613d97565b91506134b382614649565b602082019050919050565b60006134cb602f83613d97565b91506134d682614672565b604082019050919050565b60006134ee601a83613d97565b91506134f9826146c1565b602082019050919050565b6000613511602683613d97565b915061351c826146ea565b604082019050919050565b6000613534602b83613d97565b915061353f82614739565b604082019050919050565b6000613557601983613d97565b915061356282614788565b602082019050919050565b600061357a602b83613d97565b9150613585826147b1565b604082019050919050565b600061359d601a83613d97565b91506135a882614800565b602082019050919050565b60006135c0601f83613d97565b91506135cb82614829565b602082019050919050565b60006135e3601183613d97565b91506135ee82614852565b602082019050919050565b6000613606601f83613d97565b91506136118261487b565b602082019050919050565b6000613629600583613da8565b9150613634826148a4565b600582019050919050565b600061364c601c83613d97565b9150613657826148cd565b602082019050919050565b600060808301600083015161367a60008601826136c5565b506020830151848203602086015261369282826131a5565b91505060408301516136a76040860182613129565b5060608301516136ba6060860182613129565b508091505092915050565b6136ce81613f30565b82525050565b6136dd81613f30565b82525050565b60006136ef8284613156565b915081905092915050565b60006137068284613217565b915081905092915050565b600061371c8261333d565b91506137288285613217565b91506137348284613217565b915061373f8261361c565b91508190509392505050565b60006020820190506137606000830184613030565b92915050565b600060208201905061377b6000830184613021565b92915050565b60006040820190506137966000830185613030565b6137a360208301846136d4565b9392505050565b600060208201905081810360008301526137c4818461303f565b905092915050565b600060208201905081810360008301526137e681846130b4565b905092915050565b60006020820190506138036000830184613138565b92915050565b600060208201905061381e6000830184613147565b92915050565b60006020820190506138396000830184613187565b92915050565b60006020820190506138546000830184613196565b92915050565b6000602082019050818103600083015261387481846131de565b905092915050565b6000602082019050818103600083015261389581613248565b9050919050565b600060208201905081810360008301526138b58161326b565b9050919050565b600060208201905081810360008301526138d58161328e565b9050919050565b600060208201905081810360008301526138f5816132b1565b9050919050565b60006020820190508181036000830152613915816132d4565b9050919050565b60006020820190508181036000830152613935816132f7565b9050919050565b600060208201905081810360008301526139558161331a565b9050919050565b6000602082019050818103600083015261397581613360565b9050919050565b6000602082019050818103600083015261399581613383565b9050919050565b600060208201905081810360008301526139b5816133a6565b9050919050565b600060208201905081810360008301526139d5816133c9565b9050919050565b600060208201905081810360008301526139f5816133ec565b9050919050565b60006020820190508181036000830152613a158161340f565b9050919050565b60006020820190508181036000830152613a3581613432565b9050919050565b60006020820190508181036000830152613a5581613455565b9050919050565b60006020820190508181036000830152613a7581613478565b9050919050565b60006020820190508181036000830152613a958161349b565b9050919050565b60006020820190508181036000830152613ab5816134be565b9050919050565b60006020820190508181036000830152613ad5816134e1565b9050919050565b60006020820190508181036000830152613af581613504565b9050919050565b60006020820190508181036000830152613b1581613527565b9050919050565b60006020820190508181036000830152613b358161354a565b9050919050565b60006020820190508181036000830152613b558161356d565b9050919050565b60006020820190508181036000830152613b7581613590565b9050919050565b60006020820190508181036000830152613b95816135b3565b9050919050565b60006020820190508181036000830152613bb5816135d6565b9050919050565b60006020820190508181036000830152613bd5816135f9565b9050919050565b60006020820190508181036000830152613bf58161363f565b9050919050565b6000602082019050613c1160008301846136d4565b92915050565b6000604082019050613c2c60008301856136d4565b613c3960208301846136d4565b9392505050565b6000613c4a613c5b565b9050613c568282614003565b919050565b6000604051905090565b600067ffffffffffffffff821115613c8057613c7f61416a565b5b602082029050602081019050919050565b600067ffffffffffffffff821115613cac57613cab61416a565b5b613cb5826141b7565b9050602081019050919050565b600067ffffffffffffffff821115613cdd57613cdc61416a565b5b613ce6826141b7565b9050602081019050919050565b6000819050602082019050919050565b6000819050602082019050919050565b600081519050919050565b600081519050919050565b600081519050919050565b600081519050919050565b6000602082019050919050565b6000602082019050919050565b600082825260208201905092915050565b600082825260208201905092915050565b600081905092915050565b600082825260208201905092915050565b600082825260208201905092915050565b600081905092915050565b6000613dbe82613f30565b9150613dc983613f30565b9250827fffffffffffffffffffffffffffffffffffffffffffffffffffffffffffffffff03821115613dfe57613dfd6140ae565b5b828201905092915050565b6000613e1482613f30565b9150613e1f83613f30565b925082613e2f57613e2e6140dd565b5b828204905092915050565b6000613e4582613f30565b9150613e5083613f30565b9250817fffffffffffffffffffffffffffffffffffffffffffffffffffffffffffffffff0483118215151615613e8957613e886140ae565b5b828202905092915050565b6000613e9f82613f30565b9150613eaa83613f30565b925082821015613ebd57613ebc6140ae565b5b828203905092915050565b6000613ed382613f10565b9050919050565b6000613ee582613f10565b9050919050565b60008115159050919050565b6000819050919050565b600061ffff82169050919050565b600073ffffffffffffffffffffffffffffffffffffffff82169050919050565b6000819050919050565b600060ff82169050919050565b6000613f5282613f6b565b9050919050565b6000613f6482613f3a565b9050919050565b6000613f7682613f7d565b9050919050565b6000613f8882613f10565b9050919050565b82818337600083830152505050565b60005b83811015613fbc578082015181840152602081019050613fa1565b83811115613fcb576000848401525b50505050565b60006002820490506001821680613fe957607f821691505b60208210811415613ffd57613ffc61410c565b5b50919050565b61400c826141b7565b810181811067ffffffffffffffff8211171561402b5761402a61416a565b5b80604052505050565b600061403f82613f30565b91507fffffffffffffffffffffffffffffffffffffffffffffffffffffffffffffffff821415614072576140716140ae565b5b600182019050919050565b600061408882613f30565b915061409383613f30565b9250826140a3576140a26140dd565b5b828206905092915050565b7f4e487b7100000000000000000000000000000000000000000000000000000000600052601160045260246000fd5b7f4e487b7100000000000000000000000000000000000000000000000000000000600052601260045260246000fd5b7f4e487b7100000000000000000000000000000000000000000000000000000000600052602260045260246000fd5b7f4e487b7100000000000000000000000000000000000000000000000000000000600052603260045260246000fd5b7f4e487b7100000000000000000000000000000000000000000000000000000000600052604160045260246000fd5b600080fd5b600080fd5b600080fd5b600080fd5b600080fd5b600080fd5b6000601f19601f8301169050919050565b7f6d617853616c65416d6f756e74206d757374206265206772656174657220746860008201527f616e203000000000000000000000000000000000000000000000000000000000602082015250565b7f57616c6c657420697320746865207a65726f2061646472657373000000000000600082015250565b7f4d617853616c65416d6f756e74206d757374206265206772656174657220746860008201527f616e203000000000000000000000000000000000000000000000000000000000602082015250565b7f546865207465616d20697320696e76616c696400000000000000000000000000600082015250565b7f4d617853616c65416d6f756e74206d757374206265206772656174657220746860008201527f616e205f63757272656e7453616c65416d6f756e740000000000000000000000602082015250565b7f4f776e61626c653a206e6577206f776e657220697320746865207a65726f206160008201527f6464726573730000000000000000000000000000000000000000000000000000602082015250565b7f46756e6374696f6e206d7573742062652063616c6c6564207468726f7567682060008201527f64656c656761746563616c6c0000000000000000000000000000000000000000602082015250565b7f457863656564656420746865206e756d626572206f66204e46547320666f722060008201527f746869732073616c6520726f756e642e00000000000000000000000000000000602082015250565b7f46756e6374696f6e206d7573742062652063616c6c6564207468726f7567682060008201527f6163746976652070726f78790000000000000000000000000000000000000000602082015250565b7f555550535570677261646561626c653a206d757374206e6f742062652063616c60008201527f6c6564207468726f7567682064656c656761746563616c6c0000000000000000602082015250565b7f6d6f6f6e42656173744e465420697320746865207a65726f2061646472657373600082015250565b7f45524331393637557067726164653a20756e737570706f727465642070726f7860008201527f6961626c65555549440000000000000000000000000000000000000000000000602082015250565b7f496e697469616c697a61626c653a20636f6e747261637420697320616c72656160008201527f647920696e697469616c697a6564000000000000000000000000000000000000602082015250565b7f5468652076616c756520796f752073656e7420697320696e76616c6964000000600082015250565b7f4d6f6f6e42656173744e465420697320746865207a65726f2061646472657373600082015250565b7f45524331393637557067726164653a206e657720696d706c656d656e7461746960008201527f6f6e206973206e6f742055555053000000000000000000000000000000000000602082015250565b7f455243313936373a206e657720696d706c656d656e746174696f6e206973206e60008201527f6f74206120636f6e747261637400000000000000000000000000000000000000602082015250565b7f4f776e61626c653a2063616c6c6572206973206e6f7420746865206f776e6572600082015250565b7f457863656564656420746865206e756d626572206f66204e46547320666f722060008201527f746869732073616c6520726f756e640000000000000000000000000000000000602082015250565b7f436f6e74726163742062616c616e6365206973203020474c4d52000000000000600082015250565b7f416464726573733a2064656c65676174652063616c6c20746f206e6f6e2d636f60008201527f6e74726163740000000000000000000000000000000000000000000000000000602082015250565b7f596f75206e656564206174206c65617374206f6e65206d696e7420706173732060008201527f746f206d696e74204e4654000000000000000000000000000000000000000000602082015250565b7f57686974656c69737420726f756e64206e6f7420726561647900000000000000600082015250565b7f496e697469616c697a61626c653a20636f6e7472616374206973206e6f74206960008201527f6e697469616c697a696e67000000000000000000000000000000000000000000602082015250565b7f77616c6c657420697320746865207a65726f2061646472657373000000000000600082015250565b7f42656e656669636961727920697320746865207a65726f206164647265737300600082015250565b7f546865207465616d7320696e76616c6964000000000000000000000000000000600082015250565b7f5265656e7472616e637947756172643a207265656e7472616e742063616c6c00600082015250565b7f206c656674000000000000000000000000000000000000000000000000000000600082015250565b7f5072696365206d7573742062652067726561746572207468616e203000000000600082015250565b6148ff81613ec8565b811461490a57600080fd5b50565b61491681613eda565b811461492157600080fd5b50565b61492d81613eec565b811461493857600080fd5b50565b61494481613ef8565b811461494f57600080fd5b50565b61495b81613f02565b811461496657600080fd5b50565b61497281613f30565b811461497d57600080fd5b5056fe416464726573733a206c6f772d6c6576656c2064656c65676174652063616c6c206661696c6564a26469706673582212206140ccadb0a28d05b73ef8fe99d60c49b90648e0b175d3b85ab8b2f033c1ba3364736f6c63430008070033",
  "linkReferences": {},
  "deployedLinkReferences": {}
}