{
  "_format": "hh-sol-artifact-1",
  "contractName": "UMoonFitNFTPublicSale",
  "sourceName": "contracts/upgradeables/UMoonFitNFTPublicSale.sol",
  "abi": [
    {
      "inputs": [],
      "stateMutability": "nonpayable",
      "type": "constructor"
    },
    {
      "anonymous": false,
      "inputs": [
        {
          "indexed": false,
          "internalType": "address",
          "name": "previousAdmin",
          "type": "address"
        },
        {
          "indexed": false,
          "internalType": "address",
          "name": "newAdmin",
          "type": "address"
        }
      ],
      "name": "AdminChanged",
      "type": "event"
    },
    {
      "anonymous": false,
      "inputs": [
        {
          "indexed": true,
          "internalType": "address",
          "name": "beacon",
          "type": "address"
        }
      ],
      "name": "BeaconUpgraded",
      "type": "event"
    },
    {
      "anonymous": false,
      "inputs": [
        {
          "indexed": false,
          "internalType": "uint8",
          "name": "version",
          "type": "uint8"
        }
      ],
      "name": "Initialized",
      "type": "event"
    },
    {
      "anonymous": false,
      "inputs": [
        {
          "indexed": false,
          "internalType": "address",
          "name": "beneficiary",
          "type": "address"
        }
      ],
      "name": "NFTPurchased",
      "type": "event"
    },
    {
      "anonymous": false,
      "inputs": [
        {
          "indexed": true,
          "internalType": "address",
          "name": "previousOwner",
          "type": "address"
        },
        {
          "indexed": true,
          "internalType": "address",
          "name": "newOwner",
          "type": "address"
        }
      ],
      "name": "OwnershipTransferred",
      "type": "event"
    },
    {
      "anonymous": false,
      "inputs": [
        {
          "indexed": true,
          "internalType": "address",
          "name": "implementation",
          "type": "address"
        }
      ],
      "name": "Upgraded",
      "type": "event"
    },
    {
      "inputs": [],
      "name": "_maxSaleAmount",
      "outputs": [
        {
          "internalType": "uint256",
          "name": "",
          "type": "uint256"
        }
      ],
      "stateMutability": "view",
      "type": "function"
    },
    {
      "inputs": [],
      "name": "_moonBeastNFT",
      "outputs": [
        {
          "internalType": "contract MoonBeast",
          "name": "",
          "type": "address"
        }
      ],
      "stateMutability": "view",
      "type": "function"
    },
    {
      "inputs": [],
      "name": "_price",
      "outputs": [
        {
          "internalType": "uint256",
          "name": "",
          "type": "uint256"
        }
      ],
      "stateMutability": "view",
      "type": "function"
    },
    {
      "inputs": [],
      "name": "_wallet",
      "outputs": [
        {
          "internalType": "address payable",
          "name": "",
          "type": "address"
        }
      ],
      "stateMutability": "view",
      "type": "function"
    },
    {
      "inputs": [
        {
          "internalType": "uint16",
          "name": "amount",
          "type": "uint16"
        }
      ],
      "name": "buyNFT",
      "outputs": [],
      "stateMutability": "payable",
      "type": "function"
    },
    {
      "inputs": [
        {
          "internalType": "uint256",
          "name": "tokenId",
          "type": "uint256"
        }
      ],
      "name": "checkMintByContract",
      "outputs": [
        {
          "internalType": "bool",
          "name": "",
          "type": "bool"
        }
      ],
      "stateMutability": "view",
      "type": "function"
    },
    {
      "inputs": [
        {
          "internalType": "address",
          "name": "owner",
          "type": "address"
        },
        {
          "internalType": "uint256",
          "name": "tokenId",
          "type": "uint256"
        }
      ],
      "name": "checkOwnerMinted",
      "outputs": [
        {
          "internalType": "bool",
          "name": "",
          "type": "bool"
        }
      ],
      "stateMutability": "view",
      "type": "function"
    },
    {
      "inputs": [],
      "name": "getAvailableSlots",
      "outputs": [
        {
          "internalType": "uint256",
          "name": "",
          "type": "uint256"
        }
      ],
      "stateMutability": "view",
      "type": "function"
    },
    {
      "inputs": [],
      "name": "getContractBalance",
      "outputs": [
        {
          "internalType": "uint256",
          "name": "",
          "type": "uint256"
        }
      ],
      "stateMutability": "view",
      "type": "function"
    },
    {
      "inputs": [
        {
          "internalType": "address",
          "name": "owner",
          "type": "address"
        },
        {
          "internalType": "uint256[]",
          "name": "arrIndex",
          "type": "uint256[]"
        }
      ],
      "name": "getMoonBeast",
      "outputs": [
        {
          "components": [
            {
              "internalType": "uint256",
              "name": "tokenId",
              "type": "uint256"
            },
            {
              "internalType": "string",
              "name": "uri",
              "type": "string"
            },
            {
              "internalType": "bool",
              "name": "mintByContract",
              "type": "bool"
            },
            {
              "internalType": "bool",
              "name": "isOwnerMinted",
              "type": "bool"
            }
          ],
          "internalType": "struct MoonBeastNFTSale[]",
          "name": "",
          "type": "tuple[]"
        }
      ],
      "stateMutability": "view",
      "type": "function"
    },
    {
      "inputs": [],
      "name": "getReadySale",
      "outputs": [
        {
          "internalType": "bool",
          "name": "",
          "type": "bool"
        }
      ],
      "stateMutability": "view",
      "type": "function"
    },
    {
      "inputs": [
        {
          "internalType": "uint256",
          "name": "maxSaleAmount",
          "type": "uint256"
        },
        {
          "internalType": "uint256",
          "name": "price",
          "type": "uint256"
        },
        {
          "internalType": "address",
          "name": "moonBeastNFT",
          "type": "address"
        },
        {
          "internalType": "address",
          "name": "wallet",
          "type": "address"
        }
      ],
      "name": "initialize",
      "outputs": [],
      "stateMutability": "nonpayable",
      "type": "function"
    },
    {
      "inputs": [],
      "name": "owner",
      "outputs": [
        {
          "internalType": "address",
          "name": "",
          "type": "address"
        }
      ],
      "stateMutability": "view",
      "type": "function"
    },
    {
      "inputs": [],
      "name": "proxiableUUID",
      "outputs": [
        {
          "internalType": "bytes32",
          "name": "",
          "type": "bytes32"
        }
      ],
      "stateMutability": "view",
      "type": "function"
    },
    {
      "inputs": [],
      "name": "renounceOwnership",
      "outputs": [],
      "stateMutability": "nonpayable",
      "type": "function"
    },
    {
      "inputs": [
        {
          "internalType": "uint256",
          "name": "maxSaleAmount",
          "type": "uint256"
        }
      ],
      "name": "setMaxSaleAmount",
      "outputs": [],
      "stateMutability": "nonpayable",
      "type": "function"
    },
    {
      "inputs": [
        {
          "internalType": "address",
          "name": "moonBeast",
          "type": "address"
        }
      ],
      "name": "setMoonBeastNFT",
      "outputs": [],
      "stateMutability": "nonpayable",
      "type": "function"
    },
    {
      "inputs": [
        {
          "internalType": "uint256",
          "name": "price",
          "type": "uint256"
        }
      ],
      "name": "setPrice",
      "outputs": [],
      "stateMutability": "nonpayable",
      "type": "function"
    },
    {
      "inputs": [
        {
          "internalType": "bool",
          "name": "value",
          "type": "bool"
        }
      ],
      "name": "setReadySale",
      "outputs": [],
      "stateMutability": "nonpayable",
      "type": "function"
    },
    {
      "inputs": [
        {
          "internalType": "address payable",
          "name": "wallet",
          "type": "address"
        }
      ],
      "name": "setWallet",
      "outputs": [],
      "stateMutability": "nonpayable",
      "type": "function"
    },
    {
      "inputs": [
        {
          "internalType": "address",
          "name": "newOwner",
          "type": "address"
        }
      ],
      "name": "transferOwnership",
      "outputs": [],
      "stateMutability": "nonpayable",
      "type": "function"
    },
    {
      "inputs": [
        {
          "internalType": "address",
          "name": "newImplementation",
          "type": "address"
        }
      ],
      "name": "upgradeTo",
      "outputs": [],
      "stateMutability": "nonpayable",
      "type": "function"
    },
    {
      "inputs": [
        {
          "internalType": "address",
          "name": "newImplementation",
          "type": "address"
        },
        {
          "internalType": "bytes",
          "name": "data",
          "type": "bytes"
        }
      ],
      "name": "upgradeToAndCall",
      "outputs": [],
      "stateMutability": "payable",
      "type": "function"
    },
    {
      "inputs": [],
      "name": "withdrawTokenByOwner",
      "outputs": [],
      "stateMutability": "nonpayable",
      "type": "function"
    }
  ],
  "bytecode": "0x60a06040523073ffffffffffffffffffffffffffffffffffffffff1660809073ffffffffffffffffffffffffffffffffffffffff1660601b8152503480156200004757600080fd5b50620000586200005e60201b60201c565b62000209565b600060019054906101000a900460ff1615620000b1576040517f08c379a0000000000000000000000000000000000000000000000000000000008152600401620000a8906200015d565b60405180910390fd5b60ff801660008054906101000a900460ff1660ff161015620001235760ff6000806101000a81548160ff021916908360ff1602179055507f7f26b83ff96e1f2b6a682f133852f6798a09c465da95921460cefb384740249860ff6040516200011a91906200017f565b60405180910390a15b565b6000620001346027836200019c565b91506200014182620001ba565b604082019050919050565b6200015781620001ad565b82525050565b60006020820190508181036000830152620001788162000125565b9050919050565b60006020820190506200019660008301846200014c565b92915050565b600082825260208201905092915050565b600060ff82169050919050565b7f496e697469616c697a61626c653a20636f6e747261637420697320696e69746960008201527f616c697a696e6700000000000000000000000000000000000000000000000000602082015250565b60805160601c613df36200024460003960008181610b1501528181610ba401528181610c9e01528181610d2d0152610e020152613df36000f3fe60806040526004361061014b5760003560e01c8063610757e4116100b657806391b7f5ed1161006f57806391b7f5ed1461044b578063a00a21ff14610474578063b9d18eae14610490578063deaa59df146104bb578063deed00f6146104e4578063f2fde38b1461050f5761014b565b8063610757e41461034b5780636f9fb98a14610376578063715018a6146103a15780637428edea146103b857806375b01d94146103e35780638da5cb5b146104205761014b565b80633659cfe6116101085780633659cfe61461024c5780634f1ef28614610275578063514c1ba61461029157806352d1902d146102ba5780635afa1a76146102e55780635d0a8f6d146103225761014b565b8063019e27291461015057806312c0aeb914610179578063228443d81461019057806322bc5a3f146101b9578063235b6ea1146101f65780632725368f14610221575b600080fd5b34801561015c57600080fd5b5061017760048036038101906101729190612631565b610538565b005b34801561018557600080fd5b5061018e610895565b005b34801561019c57600080fd5b506101b760048036038101906101b291906123b1565b61094c565b005b3480156101c557600080fd5b506101e060048036038101906101db91906124c7565b610a08565b6040516101ed9190612d85565b60405180910390f35b34801561020257600080fd5b5061020b610ae6565b6040516102189190613153565b60405180910390f35b34801561022d57600080fd5b50610236610aed565b6040516102439190612dbb565b60405180910390f35b34801561025857600080fd5b50610273600480360381019061026e91906123b1565b610b13565b005b61028f600480360381019061028a919061246b565b610c9c565b005b34801561029d57600080fd5b506102b860048036038101906102b39190612507565b610dd9565b005b3480156102c657600080fd5b506102cf610dfe565b6040516102dc9190612da0565b60405180910390f35b3480156102f157600080fd5b5061030c6004803603810190610307919061240b565b610eb7565b6040516103199190612d63565b60405180910390f35b34801561032e57600080fd5b50610349600480360381019061034491906125d7565b61112c565b005b34801561035757600080fd5b506103606111cc565b60405161036d9190612d1f565b60405180910390f35b34801561038257600080fd5b5061038b6111f3565b6040516103989190613153565b60405180910390f35b3480156103ad57600080fd5b506103b6611200565b005b3480156103c457600080fd5b506103cd611214565b6040516103da9190613153565b60405180910390f35b3480156103ef57600080fd5b5061040a600480360381019061040591906125d7565b61121a565b6040516104179190612d85565b60405180910390f35b34801561042c57600080fd5b50610435611244565b6040516104429190612d04565b60405180910390f35b34801561045757600080fd5b50610472600480360381019061046d91906125d7565b61126e565b005b61048e600480360381019061048991906125aa565b6112c4565b005b34801561049c57600080fd5b506104a56116cd565b6040516104b29190613153565b60405180910390f35b3480156104c757600080fd5b506104e260048036038101906104dd91906123de565b6116eb565b005b3480156104f057600080fd5b506104f96117a8565b6040516105069190612d85565b60405180910390f35b34801561051b57600080fd5b50610536600480360381019061053191906123b1565b6117bf565b005b60008060019054906101000a900460ff161590508080156105695750600160008054906101000a900460ff1660ff16105b80610596575061057830611843565b1580156105955750600160008054906101000a900460ff1660ff16145b5b6105d5576040517f08c379a00000000000000000000000000000000000000000000000000000000081526004016105cc90612f53565b60405180910390fd5b60016000806101000a81548160ff021916908360ff1602179055508015610612576001600060016101000a81548160ff0219169083151502179055505b60008511610655576040517f08c379a000000000000000000000000000000000000000000000000000000000815260040161064c90612e13565b60405180910390fd5b60008411610698576040517f08c379a000000000000000000000000000000000000000000000000000000000815260040161068f90612e13565b60405180910390fd5b600073ffffffffffffffffffffffffffffffffffffffff168373ffffffffffffffffffffffffffffffffffffffff161415610708576040517f08c379a00000000000000000000000000000000000000000000000000000000081526004016106ff90612f13565b60405180910390fd5b600073ffffffffffffffffffffffffffffffffffffffff168273ffffffffffffffffffffffffffffffffffffffff161415610778576040517f08c379a000000000000000000000000000000000000000000000000000000000815260040161076f906130d3565b60405180910390fd5b610780611866565b6107886118bf565b8460fc8190555083610100819055508260fb60006101000a81548173ffffffffffffffffffffffffffffffffffffffff021916908373ffffffffffffffffffffffffffffffffffffffff1602179055508161010160006101000a81548173ffffffffffffffffffffffffffffffffffffffff021916908373ffffffffffffffffffffffffffffffffffffffff160217905550600060fb60146101000a81548160ff021916908315150217905550801561088e5760008060016101000a81548160ff0219169083151502179055507f7f26b83ff96e1f2b6a682f133852f6798a09c465da95921460cefb384740249860016040516108859190612dd6565b60405180910390a15b5050505050565b61089d611910565b600047116108e0576040517f08c379a00000000000000000000000000000000000000000000000000000000081526004016108d790613033565b60405180910390fd5b61010160009054906101000a900473ffffffffffffffffffffffffffffffffffffffff1673ffffffffffffffffffffffffffffffffffffffff166108fc479081150290604051600060405180830381858888f19350505050158015610949573d6000803e3d6000fd5b50565b610954611910565b600073ffffffffffffffffffffffffffffffffffffffff168173ffffffffffffffffffffffffffffffffffffffff1614156109c4576040517f08c379a00000000000000000000000000000000000000000000000000000000081526004016109bb90612f93565b60405180910390fd5b8060fb60006101000a81548173ffffffffffffffffffffffffffffffffffffffff021916908373ffffffffffffffffffffffffffffffffffffffff16021790555050565b600080600090505b60ff60008573ffffffffffffffffffffffffffffffffffffffff1673ffffffffffffffffffffffffffffffffffffffff16815260200190815260200160002080549050811015610ada578260ff60008673ffffffffffffffffffffffffffffffffffffffff1673ffffffffffffffffffffffffffffffffffffffff1681526020019081526020016000208281548110610aac57610aab6135a3565b5b90600052602060002001541415610ac7576001915050610ae0565b8080610ad2906134cb565b915050610a10565b50600090505b92915050565b6101005481565b60fb60009054906101000a900473ffffffffffffffffffffffffffffffffffffffff1681565b7f000000000000000000000000000000000000000000000000000000000000000073ffffffffffffffffffffffffffffffffffffffff163073ffffffffffffffffffffffffffffffffffffffff161415610ba2576040517f08c379a0000000000000000000000000000000000000000000000000000000008152600401610b9990612eb3565b60405180910390fd5b7f000000000000000000000000000000000000000000000000000000000000000073ffffffffffffffffffffffffffffffffffffffff16610be161198e565b73ffffffffffffffffffffffffffffffffffffffff1614610c37576040517f08c379a0000000000000000000000000000000000000000000000000000000008152600401610c2e90612ed3565b60405180910390fd5b610c40816119e5565b610c9981600067ffffffffffffffff811115610c5f57610c5e6135d2565b5b6040519080825280601f01601f191660200182016040528015610c915781602001600182028036833780820191505090505b5060006119f0565b50565b7f000000000000000000000000000000000000000000000000000000000000000073ffffffffffffffffffffffffffffffffffffffff163073ffffffffffffffffffffffffffffffffffffffff161415610d2b576040517f08c379a0000000000000000000000000000000000000000000000000000000008152600401610d2290612eb3565b60405180910390fd5b7f000000000000000000000000000000000000000000000000000000000000000073ffffffffffffffffffffffffffffffffffffffff16610d6a61198e565b73ffffffffffffffffffffffffffffffffffffffff1614610dc0576040517f08c379a0000000000000000000000000000000000000000000000000000000008152600401610db790612ed3565b60405180910390fd5b610dc9826119e5565b610dd5828260016119f0565b5050565b610de1611910565b8060fb60146101000a81548160ff02191690831515021790555050565b60007f000000000000000000000000000000000000000000000000000000000000000073ffffffffffffffffffffffffffffffffffffffff163073ffffffffffffffffffffffffffffffffffffffff1614610e8e576040517f08c379a0000000000000000000000000000000000000000000000000000000008152600401610e8590612ef3565b60405180910390fd5b7f360894a13ba1a3210667c828492db98dca3e2076cc3735a920a3ca505d382bbc60001b905090565b606060008383905067ffffffffffffffff811115610ed857610ed76135d2565b5b604051908082528060200260200182016040528015610f1157816020015b610efe6121bc565b815260200190600190039081610ef65790505b50905060008060005b8686905081101561111e57868682818110610f3857610f376135a3565b5b90506020020135915060fb60009054906101000a900473ffffffffffffffffffffffffffffffffffffffff1673ffffffffffffffffffffffffffffffffffffffff16632f745c5989846040518363ffffffff1660e01b8152600401610f9e929190612d3a565b60206040518083038186803b158015610fb657600080fd5b505afa158015610fca573d6000803e3d6000fd5b505050506040513d601f19601f82011682018060405250810190610fee9190612604565b9250604051806080016040528084815260200160fb60009054906101000a900473ffffffffffffffffffffffffffffffffffffffff1673ffffffffffffffffffffffffffffffffffffffff1663c87b56dd866040518263ffffffff1660e01b815260040161105c9190613153565b60006040518083038186803b15801561107457600080fd5b505afa158015611088573d6000803e3d6000fd5b505050506040513d6000823e3d601f19601f820116820180604052508101906110b19190612561565b815260200160fd600086815260200190815260200160002060009054906101000a900460ff16151581526020016110e88a86610a08565b1515815250848281518110611100576110ff6135a3565b5b60200260200101819052508080611116906134cb565b915050610f1a565b508293505050509392505050565b611134611910565b60008111611177576040517f08c379a000000000000000000000000000000000000000000000000000000000815260040161116e90612e53565b60405180910390fd5b61118160fe611b6d565b81116111c2576040517f08c379a00000000000000000000000000000000000000000000000000000000081526004016111b990612e73565b60405180910390fd5b8060fc8190555050565b61010160009054906101000a900473ffffffffffffffffffffffffffffffffffffffff1681565b6000804790508091505090565b611208611910565b6112126000611b7b565b565b60fc5481565b600060fd600083815260200190815260200160002060009054906101000a900460ff169050919050565b6000606560009054906101000a900473ffffffffffffffffffffffffffffffffffffffff16905090565b611276611910565b600081116112b9576040517f08c379a00000000000000000000000000000000000000000000000000000000081526004016112b090613133565b60405180910390fd5b806101008190555050565b6002600154141561130a576040517f08c379a000000000000000000000000000000000000000000000000000000000815260040161130190613113565b60405180910390fd5b600260018190555060fb60149054906101000a900460ff16611361576040517f08c379a000000000000000000000000000000000000000000000000000000000815260040161135890613093565b60405180910390fd5b60008161ffff16116113a8576040517f08c379a000000000000000000000000000000000000000000000000000000000815260040161139f90612e13565b60405180910390fd5b60006113b460fe611b6d565b60fc546113c1919061335d565b90508161ffff168110156113d482611c41565b60018311611417576040518060400160405280600481526020017f204e46540000000000000000000000000000000000000000000000000000000081525061144e565b6040518060400160405280600581526020017f204e4654730000000000000000000000000000000000000000000000000000008152505b60405160200161145f929190612cca565b604051602081830303815290604052906114af576040517f08c379a00000000000000000000000000000000000000000000000000000000081526004016114a69190612df1565b60405180910390fd5b5060006114ba611da2565b90506114cb8361ffff168234611daa565b60005b8361ffff168110156116c05760fc546114e760fe611b6d565b1115611528576040517f08c379a000000000000000000000000000000000000000000000000000000000815260040161151f90613013565b60405180910390fd5b600060fb60009054906101000a900473ffffffffffffffffffffffffffffffffffffffff1673ffffffffffffffffffffffffffffffffffffffff166354ba0f27846040518263ffffffff1660e01b81526004016115859190612d04565b602060405180830381600087803b15801561159f57600080fd5b505af11580156115b3573d6000803e3d6000fd5b505050506040513d601f19601f820116820180604052508101906115d79190612604565b905060ff60008473ffffffffffffffffffffffffffffffffffffffff1673ffffffffffffffffffffffffffffffffffffffff168152602001908152602001600020819080600181540180825580915050600190039060005260206000200160009091909190915055600160fd600083815260200190815260200160002060006101000a81548160ff02191690831515021790555061167560fe611eb2565b7ff403523e17bf2d1fe8af1a00ba36bc463a7d846dbadf11d117400f7694ba3e6c836040516116a49190612d04565b60405180910390a15080806116b8906134cb565b9150506114ce565b5050506001808190555050565b60006116d960fe611b6d565b60fc546116e6919061335d565b905090565b6116f3611910565b600073ffffffffffffffffffffffffffffffffffffffff168173ffffffffffffffffffffffffffffffffffffffff161415611763576040517f08c379a000000000000000000000000000000000000000000000000000000000815260040161175a90612e33565b60405180910390fd5b8061010160006101000a81548173ffffffffffffffffffffffffffffffffffffffff021916908373ffffffffffffffffffffffffffffffffffffffff16021790555050565b600060fb60149054906101000a900460ff16905090565b6117c7611910565b600073ffffffffffffffffffffffffffffffffffffffff168173ffffffffffffffffffffffffffffffffffffffff161415611837576040517f08c379a000000000000000000000000000000000000000000000000000000000815260040161182e90612e93565b60405180910390fd5b61184081611b7b565b50565b6000808273ffffffffffffffffffffffffffffffffffffffff163b119050919050565b600060019054906101000a900460ff166118b5576040517f08c379a00000000000000000000000000000000000000000000000000000000081526004016118ac906130b3565b60405180910390fd5b6118bd611ec8565b565b600060019054906101000a900460ff1661190e576040517f08c379a0000000000000000000000000000000000000000000000000000000008152600401611905906130b3565b60405180910390fd5b565b611918611da2565b73ffffffffffffffffffffffffffffffffffffffff16611936611244565b73ffffffffffffffffffffffffffffffffffffffff161461198c576040517f08c379a000000000000000000000000000000000000000000000000000000000815260040161198390612ff3565b60405180910390fd5b565b60006119bc7f360894a13ba1a3210667c828492db98dca3e2076cc3735a920a3ca505d382bbc60001b611f29565b60000160009054906101000a900473ffffffffffffffffffffffffffffffffffffffff16905090565b6119ed611910565b50565b611a1c7f4910fdfa16fed3260ed0e7147f7cc6da11a60208b5b9406d12a635614ffd914360001b611f33565b60000160009054906101000a900460ff1615611a4057611a3b83611f3d565b611b68565b8273ffffffffffffffffffffffffffffffffffffffff166352d1902d6040518163ffffffff1660e01b815260040160206040518083038186803b158015611a8657600080fd5b505afa925050508015611ab757506040513d601f19601f82011682018060405250810190611ab49190612534565b60015b611af6576040517f08c379a0000000000000000000000000000000000000000000000000000000008152600401611aed90612fb3565b60405180910390fd5b7f360894a13ba1a3210667c828492db98dca3e2076cc3735a920a3ca505d382bbc60001b8114611b5b576040517f08c379a0000000000000000000000000000000000000000000000000000000008152600401611b5290612f33565b60405180910390fd5b50611b67838383611ff6565b5b505050565b600081600001549050919050565b6000606560009054906101000a900473ffffffffffffffffffffffffffffffffffffffff16905081606560006101000a81548173ffffffffffffffffffffffffffffffffffffffff021916908373ffffffffffffffffffffffffffffffffffffffff1602179055508173ffffffffffffffffffffffffffffffffffffffff168173ffffffffffffffffffffffffffffffffffffffff167f8be0079c531659141344cd1fd0a4f28419497f9722a3daafe3b4186f6b6457e060405160405180910390a35050565b60606000821415611c89576040518060400160405280600181526020017f30000000000000000000000000000000000000000000000000000000000000008152509050611d9d565b600082905060005b60008214611cbb578080611ca4906134cb565b915050600a82611cb491906132d2565b9150611c91565b60008167ffffffffffffffff811115611cd757611cd66135d2565b5b6040519080825280601f01601f191660200182016040528015611d095781602001600182028036833780820191505090505b5090505b60008514611d9657600182611d22919061335d565b9150600a85611d319190613514565b6030611d3d919061327c565b60f81b818381518110611d5357611d526135a3565b5b60200101907effffffffffffffffffffffffffffffffffffffffffffffffffffffffffffff1916908160001a905350600a85611d8f91906132d2565b9450611d0d565b8093505050505b919050565b600033905090565b60008311611ded576040517f08c379a0000000000000000000000000000000000000000000000000000000008152600401611de490613073565b60405180910390fd5b600073ffffffffffffffffffffffffffffffffffffffff168273ffffffffffffffffffffffffffffffffffffffff161415611e5d576040517f08c379a0000000000000000000000000000000000000000000000000000000008152600401611e54906130f3565b60405180910390fd5b808361010054611e6d9190613303565b14611ead576040517f08c379a0000000000000000000000000000000000000000000000000000000008152600401611ea490612f73565b60405180910390fd5b505050565b6001816000016000828254019250508190555050565b600060019054906101000a900460ff16611f17576040517f08c379a0000000000000000000000000000000000000000000000000000000008152600401611f0e906130b3565b60405180910390fd5b611f27611f22611da2565b611b7b565b565b6000819050919050565b6000819050919050565b611f4681611843565b611f85576040517f08c379a0000000000000000000000000000000000000000000000000000000008152600401611f7c90612fd3565b60405180910390fd5b80611fb27f360894a13ba1a3210667c828492db98dca3e2076cc3735a920a3ca505d382bbc60001b611f29565b60000160006101000a81548173ffffffffffffffffffffffffffffffffffffffff021916908373ffffffffffffffffffffffffffffffffffffffff16021790555050565b611fff83612022565b60008251118061200c5750805b1561201d5761201b8383612071565b505b505050565b61202b81611f3d565b8073ffffffffffffffffffffffffffffffffffffffff167fbc7cd75a20ee27fd9adebab32041f755214dbc6bffa90cc0225b39da2e5c2d3b60405160405180910390a250565b606061207c83611843565b6120bb576040517f08c379a00000000000000000000000000000000000000000000000000000000081526004016120b290613053565b60405180910390fd5b6000808473ffffffffffffffffffffffffffffffffffffffff16846040516120e39190612cb3565b600060405180830381855af49150503d806000811461211e576040519150601f19603f3d011682016040523d82523d6000602084013e612123565b606091505b509150915061214b8282604051806060016040528060278152602001613d9760279139612155565b9250505092915050565b60608315612165578290506121b5565b6000835111156121785782518084602001fd5b816040517f08c379a00000000000000000000000000000000000000000000000000000000081526004016121ac9190612df1565b60405180910390fd5b9392505050565b604051806080016040528060008152602001606081526020016000151581526020016000151581525090565b60006121fb6121f684613193565b61316e565b90508281526020810184848401111561221757612216613610565b5b612222848285613458565b509392505050565b600061223d612238846131c4565b61316e565b90508281526020810184848401111561225957612258613610565b5b612264848285613467565b509392505050565b60008135905061227b81613d0c565b92915050565b60008135905061229081613d23565b92915050565b60008083601f8401126122ac576122ab613606565b5b8235905067ffffffffffffffff8111156122c9576122c8613601565b5b6020830191508360208202830111156122e5576122e461360b565b5b9250929050565b6000813590506122fb81613d3a565b92915050565b60008151905061231081613d51565b92915050565b600082601f83011261232b5761232a613606565b5b813561233b8482602086016121e8565b91505092915050565b600082601f83011261235957612358613606565b5b815161236984826020860161222a565b91505092915050565b60008135905061238181613d68565b92915050565b60008135905061239681613d7f565b92915050565b6000815190506123ab81613d7f565b92915050565b6000602082840312156123c7576123c661361a565b5b60006123d58482850161226c565b91505092915050565b6000602082840312156123f4576123f361361a565b5b600061240284828501612281565b91505092915050565b6000806000604084860312156124245761242361361a565b5b60006124328682870161226c565b935050602084013567ffffffffffffffff81111561245357612452613615565b5b61245f86828701612296565b92509250509250925092565b600080604083850312156124825761248161361a565b5b60006124908582860161226c565b925050602083013567ffffffffffffffff8111156124b1576124b0613615565b5b6124bd85828601612316565b9150509250929050565b600080604083850312156124de576124dd61361a565b5b60006124ec8582860161226c565b92505060206124fd85828601612387565b9150509250929050565b60006020828403121561251d5761251c61361a565b5b600061252b848285016122ec565b91505092915050565b60006020828403121561254a5761254961361a565b5b600061255884828501612301565b91505092915050565b6000602082840312156125775761257661361a565b5b600082015167ffffffffffffffff81111561259557612594613615565b5b6125a184828501612344565b91505092915050565b6000602082840312156125c0576125bf61361a565b5b60006125ce84828501612372565b91505092915050565b6000602082840312156125ed576125ec61361a565b5b60006125fb84828501612387565b91505092915050565b60006020828403121561261a5761261961361a565b5b60006126288482850161239c565b91505092915050565b6000806000806080858703121561264b5761264a61361a565b5b600061265987828801612387565b945050602061266a87828801612387565b935050604061267b8782880161226c565b925050606061268c8782880161226c565b91505092959194509250565b60006126a48383612c32565b905092915050565b6126b5816133a3565b82525050565b6126c481613391565b82525050565b60006126d582613205565b6126df8185613233565b9350836020820285016126f1856131f5565b8060005b8581101561272d578484038952815161270e8582612698565b945061271983613226565b925060208a019950506001810190506126f5565b50829750879550505050505092915050565b612748816133b5565b82525050565b612757816133b5565b82525050565b612766816133c1565b82525050565b600061277782613210565b6127818185613244565b9350612791818560208601613467565b80840191505092915050565b6127a681613410565b82525050565b6127b581613422565b82525050565b60006127c68261321b565b6127d0818561324f565b93506127e0818560208601613467565b6127e98161361f565b840191505092915050565b60006127ff8261321b565b6128098185613260565b9350612819818560208601613467565b6128228161361f565b840191505092915050565b60006128388261321b565b6128428185613271565b9350612852818560208601613467565b80840191505092915050565b600061286b602483613260565b915061287682613630565b604082019050919050565b600061288e601a83613260565b91506128998261367f565b602082019050919050565b60006128b1602483613260565b91506128bc826136a8565b604082019050919050565b60006128d4603583613260565b91506128df826136f7565b604082019050919050565b60006128f7602683613260565b915061290282613746565b604082019050919050565b600061291a602c83613260565b915061292582613795565b604082019050919050565b600061293d603083613271565b9150612948826137e4565b603082019050919050565b6000612960602c83613260565b915061296b82613833565b604082019050919050565b6000612983603883613260565b915061298e82613882565b604082019050919050565b60006129a6602083613260565b91506129b1826138d1565b602082019050919050565b60006129c9602983613260565b91506129d4826138fa565b604082019050919050565b60006129ec602e83613260565b91506129f782613949565b604082019050919050565b6000612a0f601d83613260565b9150612a1a82613998565b602082019050919050565b6000612a32602083613260565b9150612a3d826139c1565b602082019050919050565b6000612a55602e83613260565b9150612a60826139ea565b604082019050919050565b6000612a78602d83613260565b9150612a8382613a39565b604082019050919050565b6000612a9b602083613260565b9150612aa682613a88565b602082019050919050565b6000612abe602f83613260565b9150612ac982613ab1565b604082019050919050565b6000612ae1601a83613260565b9150612aec82613b00565b602082019050919050565b6000612b04602683613260565b9150612b0f82613b29565b604082019050919050565b6000612b27602b83613260565b9150612b3282613b78565b604082019050919050565b6000612b4a601983613260565b9150612b5582613bc7565b602082019050919050565b6000612b6d602b83613260565b9150612b7882613bf0565b604082019050919050565b6000612b90601a83613260565b9150612b9b82613c3f565b602082019050919050565b6000612bb3601f83613260565b9150612bbe82613c68565b602082019050919050565b6000612bd6601f83613260565b9150612be182613c91565b602082019050919050565b6000612bf9600583613271565b9150612c0482613cba565b600582019050919050565b6000612c1c601c83613260565b9150612c2782613ce3565b602082019050919050565b6000608083016000830151612c4a6000860182612c95565b5060208301518482036020860152612c6282826127bb565b9150506040830151612c77604086018261273f565b506060830151612c8a606086018261273f565b508091505092915050565b612c9e816133f9565b82525050565b612cad816133f9565b82525050565b6000612cbf828461276c565b915081905092915050565b6000612cd582612930565b9150612ce1828561282d565b9150612ced828461282d565b9150612cf882612bec565b91508190509392505050565b6000602082019050612d1960008301846126bb565b92915050565b6000602082019050612d3460008301846126ac565b92915050565b6000604082019050612d4f60008301856126bb565b612d5c6020830184612ca4565b9392505050565b60006020820190508181036000830152612d7d81846126ca565b905092915050565b6000602082019050612d9a600083018461274e565b92915050565b6000602082019050612db5600083018461275d565b92915050565b6000602082019050612dd0600083018461279d565b92915050565b6000602082019050612deb60008301846127ac565b92915050565b60006020820190508181036000830152612e0b81846127f4565b905092915050565b60006020820190508181036000830152612e2c8161285e565b9050919050565b60006020820190508181036000830152612e4c81612881565b9050919050565b60006020820190508181036000830152612e6c816128a4565b9050919050565b60006020820190508181036000830152612e8c816128c7565b9050919050565b60006020820190508181036000830152612eac816128ea565b9050919050565b60006020820190508181036000830152612ecc8161290d565b9050919050565b60006020820190508181036000830152612eec81612953565b9050919050565b60006020820190508181036000830152612f0c81612976565b9050919050565b60006020820190508181036000830152612f2c81612999565b9050919050565b60006020820190508181036000830152612f4c816129bc565b9050919050565b60006020820190508181036000830152612f6c816129df565b9050919050565b60006020820190508181036000830152612f8c81612a02565b9050919050565b60006020820190508181036000830152612fac81612a25565b9050919050565b60006020820190508181036000830152612fcc81612a48565b9050919050565b60006020820190508181036000830152612fec81612a6b565b9050919050565b6000602082019050818103600083015261300c81612a8e565b9050919050565b6000602082019050818103600083015261302c81612ab1565b9050919050565b6000602082019050818103600083015261304c81612ad4565b9050919050565b6000602082019050818103600083015261306c81612af7565b9050919050565b6000602082019050818103600083015261308c81612b1a565b9050919050565b600060208201905081810360008301526130ac81612b3d565b9050919050565b600060208201905081810360008301526130cc81612b60565b9050919050565b600060208201905081810360008301526130ec81612b83565b9050919050565b6000602082019050818103600083015261310c81612ba6565b9050919050565b6000602082019050818103600083015261312c81612bc9565b9050919050565b6000602082019050818103600083015261314c81612c0f565b9050919050565b60006020820190506131686000830184612ca4565b92915050565b6000613178613189565b9050613184828261349a565b919050565b6000604051905090565b600067ffffffffffffffff8211156131ae576131ad6135d2565b5b6131b78261361f565b9050602081019050919050565b600067ffffffffffffffff8211156131df576131de6135d2565b5b6131e88261361f565b9050602081019050919050565b6000819050602082019050919050565b600081519050919050565b600081519050919050565b600081519050919050565b6000602082019050919050565b600082825260208201905092915050565b600081905092915050565b600082825260208201905092915050565b600082825260208201905092915050565b600081905092915050565b6000613287826133f9565b9150613292836133f9565b9250827fffffffffffffffffffffffffffffffffffffffffffffffffffffffffffffffff038211156132c7576132c6613545565b5b828201905092915050565b60006132dd826133f9565b91506132e8836133f9565b9250826132f8576132f7613574565b5b828204905092915050565b600061330e826133f9565b9150613319836133f9565b9250817fffffffffffffffffffffffffffffffffffffffffffffffffffffffffffffffff048311821515161561335257613351613545565b5b828202905092915050565b6000613368826133f9565b9150613373836133f9565b92508282101561338657613385613545565b5b828203905092915050565b600061339c826133d9565b9050919050565b60006133ae826133d9565b9050919050565b60008115159050919050565b6000819050919050565b600061ffff82169050919050565b600073ffffffffffffffffffffffffffffffffffffffff82169050919050565b6000819050919050565b600060ff82169050919050565b600061341b82613434565b9050919050565b600061342d82613403565b9050919050565b600061343f82613446565b9050919050565b6000613451826133d9565b9050919050565b82818337600083830152505050565b60005b8381101561348557808201518184015260208101905061346a565b83811115613494576000848401525b50505050565b6134a38261361f565b810181811067ffffffffffffffff821117156134c2576134c16135d2565b5b80604052505050565b60006134d6826133f9565b91507fffffffffffffffffffffffffffffffffffffffffffffffffffffffffffffffff82141561350957613508613545565b5b600182019050919050565b600061351f826133f9565b915061352a836133f9565b92508261353a57613539613574565b5b828206905092915050565b7f4e487b7100000000000000000000000000000000000000000000000000000000600052601160045260246000fd5b7f4e487b7100000000000000000000000000000000000000000000000000000000600052601260045260246000fd5b7f4e487b7100000000000000000000000000000000000000000000000000000000600052603260045260246000fd5b7f4e487b7100000000000000000000000000000000000000000000000000000000600052604160045260246000fd5b600080fd5b600080fd5b600080fd5b600080fd5b600080fd5b600080fd5b6000601f19601f8301169050919050565b7f6d617853616c65416d6f756e74206d757374206265206772656174657220746860008201527f616e203000000000000000000000000000000000000000000000000000000000602082015250565b7f57616c6c657420697320746865207a65726f2061646472657373000000000000600082015250565b7f4d617853616c65416d6f756e74206d757374206265206772656174657220746860008201527f616e203000000000000000000000000000000000000000000000000000000000602082015250565b7f4d617853616c65416d6f756e74206d757374206265206772656174657220746860008201527f616e205f63757272656e7453616c65416d6f756e740000000000000000000000602082015250565b7f4f776e61626c653a206e6577206f776e657220697320746865207a65726f206160008201527f6464726573730000000000000000000000000000000000000000000000000000602082015250565b7f46756e6374696f6e206d7573742062652063616c6c6564207468726f7567682060008201527f64656c656761746563616c6c0000000000000000000000000000000000000000602082015250565b7f457863656564656420746865206e756d626572206f66204e46547320666f722060008201527f746869732073616c6520726f756e642e00000000000000000000000000000000602082015250565b7f46756e6374696f6e206d7573742062652063616c6c6564207468726f7567682060008201527f6163746976652070726f78790000000000000000000000000000000000000000602082015250565b7f555550535570677261646561626c653a206d757374206e6f742062652063616c60008201527f6c6564207468726f7567682064656c656761746563616c6c0000000000000000602082015250565b7f6d6f6f6e42656173744e465420697320746865207a65726f2061646472657373600082015250565b7f45524331393637557067726164653a20756e737570706f727465642070726f7860008201527f6961626c65555549440000000000000000000000000000000000000000000000602082015250565b7f496e697469616c697a61626c653a20636f6e747261637420697320616c72656160008201527f647920696e697469616c697a6564000000000000000000000000000000000000602082015250565b7f5468652076616c756520796f752073656e7420697320696e76616c6964000000600082015250565b7f4d6f6f6e42656173744e465420697320746865207a65726f2061646472657373600082015250565b7f45524331393637557067726164653a206e657720696d706c656d656e7461746960008201527f6f6e206973206e6f742055555053000000000000000000000000000000000000602082015250565b7f455243313936373a206e657720696d706c656d656e746174696f6e206973206e60008201527f6f74206120636f6e747261637400000000000000000000000000000000000000602082015250565b7f4f776e61626c653a2063616c6c6572206973206e6f7420746865206f776e6572600082015250565b7f457863656564656420746865206e756d626572206f66204e46547320666f722060008201527f746869732073616c6520726f756e640000000000000000000000000000000000602082015250565b7f436f6e74726163742062616c616e6365206973203020474c4d52000000000000600082015250565b7f416464726573733a2064656c65676174652063616c6c20746f206e6f6e2d636f60008201527f6e74726163740000000000000000000000000000000000000000000000000000602082015250565b7f596f75206e656564206174206c65617374206f6e65206d696e7420706173732060008201527f746f206d696e74204e4654000000000000000000000000000000000000000000602082015250565b7f57686974656c69737420726f756e64206e6f7420726561647900000000000000600082015250565b7f496e697469616c697a61626c653a20636f6e7472616374206973206e6f74206960008201527f6e697469616c697a696e67000000000000000000000000000000000000000000602082015250565b7f77616c6c657420697320746865207a65726f2061646472657373000000000000600082015250565b7f42656e656669636961727920697320746865207a65726f206164647265737300600082015250565b7f5265656e7472616e637947756172643a207265656e7472616e742063616c6c00600082015250565b7f206c656674000000000000000000000000000000000000000000000000000000600082015250565b7f5072696365206d7573742062652067726561746572207468616e203000000000600082015250565b613d1581613391565b8114613d2057600080fd5b50565b613d2c816133a3565b8114613d3757600080fd5b50565b613d43816133b5565b8114613d4e57600080fd5b50565b613d5a816133c1565b8114613d6557600080fd5b50565b613d71816133cb565b8114613d7c57600080fd5b50565b613d88816133f9565b8114613d9357600080fd5b5056fe416464726573733a206c6f772d6c6576656c2064656c65676174652063616c6c206661696c6564a26469706673582212204d7829ec4acec7733b3e1dd3c2011acf8fef1bd604325807fab3cbc984abb5a864736f6c63430008070033",
  "linkReferences": {},
  "deployedLinkReferences": {}
}