{
  "_format": "hh-sol-artifact-1",
  "contractName": "UMoonFitNFTPublicSale",
  "sourceName": "contracts/upgradeables/UMoonFitNFTPublicSale.sol",
  "abi": [
    {
      "inputs": [],
      "stateMutability": "nonpayable",
      "type": "constructor"
    },
    {
      "anonymous": false,
      "inputs": [
        {
          "indexed": false,
          "internalType": "address",
          "name": "previousAdmin",
          "type": "address"
        },
        {
          "indexed": false,
          "internalType": "address",
          "name": "newAdmin",
          "type": "address"
        }
      ],
      "name": "AdminChanged",
      "type": "event"
    },
    {
      "anonymous": false,
      "inputs": [
        {
          "indexed": true,
          "internalType": "address",
          "name": "beacon",
          "type": "address"
        }
      ],
      "name": "BeaconUpgraded",
      "type": "event"
    },
    {
      "anonymous": false,
      "inputs": [
        {
          "indexed": false,
          "internalType": "uint8",
          "name": "version",
          "type": "uint8"
        }
      ],
      "name": "Initialized",
      "type": "event"
    },
    {
      "anonymous": false,
      "inputs": [
        {
          "indexed": false,
          "internalType": "address",
          "name": "beneficiary",
          "type": "address"
        }
      ],
      "name": "NFTPurchased",
      "type": "event"
    },
    {
      "anonymous": false,
      "inputs": [
        {
          "indexed": true,
          "internalType": "address",
          "name": "previousOwner",
          "type": "address"
        },
        {
          "indexed": true,
          "internalType": "address",
          "name": "newOwner",
          "type": "address"
        }
      ],
      "name": "OwnershipTransferred",
      "type": "event"
    },
    {
      "anonymous": false,
      "inputs": [
        {
          "indexed": true,
          "internalType": "address",
          "name": "implementation",
          "type": "address"
        }
      ],
      "name": "Upgraded",
      "type": "event"
    },
    {
      "inputs": [],
      "name": "_maxSaleAmount",
      "outputs": [
        {
          "internalType": "uint256",
          "name": "",
          "type": "uint256"
        }
      ],
      "stateMutability": "view",
      "type": "function"
    },
    {
      "inputs": [],
      "name": "_moonBeastNFT",
      "outputs": [
        {
          "internalType": "contract MoonBeast",
          "name": "",
          "type": "address"
        }
      ],
      "stateMutability": "view",
      "type": "function"
    },
    {
      "inputs": [],
      "name": "_price",
      "outputs": [
        {
          "internalType": "uint256",
          "name": "",
          "type": "uint256"
        }
      ],
      "stateMutability": "view",
      "type": "function"
    },
    {
      "inputs": [],
      "name": "_wallet",
      "outputs": [
        {
          "internalType": "address payable",
          "name": "",
          "type": "address"
        }
      ],
      "stateMutability": "view",
      "type": "function"
    },
    {
      "inputs": [
        {
          "internalType": "uint16",
          "name": "amount",
          "type": "uint16"
        }
      ],
      "name": "buyNFT",
      "outputs": [],
      "stateMutability": "payable",
      "type": "function"
    },
    {
      "inputs": [
        {
          "internalType": "uint256",
          "name": "tokenId",
          "type": "uint256"
        }
      ],
      "name": "checkOwnerMinted",
      "outputs": [
        {
          "internalType": "bool",
          "name": "",
          "type": "bool"
        }
      ],
      "stateMutability": "view",
      "type": "function"
    },
    {
      "inputs": [],
      "name": "getAvailableSlots",
      "outputs": [
        {
          "internalType": "uint256",
          "name": "",
          "type": "uint256"
        }
      ],
      "stateMutability": "view",
      "type": "function"
    },
    {
      "inputs": [],
      "name": "getContractBalance",
      "outputs": [
        {
          "internalType": "uint256",
          "name": "",
          "type": "uint256"
        }
      ],
      "stateMutability": "view",
      "type": "function"
    },
    {
      "inputs": [
        {
          "internalType": "address",
          "name": "owner",
          "type": "address"
        }
      ],
      "name": "getMoonBeast",
      "outputs": [
        {
          "components": [
            {
              "internalType": "uint256",
              "name": "tokenId",
              "type": "uint256"
            },
            {
              "internalType": "string",
              "name": "uri",
              "type": "string"
            },
            {
              "internalType": "bool",
              "name": "ownerMinted",
              "type": "bool"
            }
          ],
          "internalType": "struct MoonBeastNFTSale[]",
          "name": "",
          "type": "tuple[]"
        }
      ],
      "stateMutability": "view",
      "type": "function"
    },
    {
      "inputs": [],
      "name": "getReadySale",
      "outputs": [
        {
          "internalType": "bool",
          "name": "",
          "type": "bool"
        }
      ],
      "stateMutability": "view",
      "type": "function"
    },
    {
      "inputs": [
        {
          "internalType": "uint256",
          "name": "maxSaleAmount",
          "type": "uint256"
        },
        {
          "internalType": "uint256",
          "name": "price",
          "type": "uint256"
        },
        {
          "internalType": "address",
          "name": "moonBeastNFT",
          "type": "address"
        },
        {
          "internalType": "address",
          "name": "wallet",
          "type": "address"
        }
      ],
      "name": "initialize",
      "outputs": [],
      "stateMutability": "nonpayable",
      "type": "function"
    },
    {
      "inputs": [],
      "name": "owner",
      "outputs": [
        {
          "internalType": "address",
          "name": "",
          "type": "address"
        }
      ],
      "stateMutability": "view",
      "type": "function"
    },
    {
      "inputs": [],
      "name": "proxiableUUID",
      "outputs": [
        {
          "internalType": "bytes32",
          "name": "",
          "type": "bytes32"
        }
      ],
      "stateMutability": "view",
      "type": "function"
    },
    {
      "inputs": [],
      "name": "renounceOwnership",
      "outputs": [],
      "stateMutability": "nonpayable",
      "type": "function"
    },
    {
      "inputs": [
        {
          "internalType": "uint256",
          "name": "maxSaleAmount",
          "type": "uint256"
        }
      ],
      "name": "setMaxSaleAmount",
      "outputs": [],
      "stateMutability": "nonpayable",
      "type": "function"
    },
    {
      "inputs": [
        {
          "internalType": "address",
          "name": "moonBeast",
          "type": "address"
        }
      ],
      "name": "setMoonBeastNFT",
      "outputs": [],
      "stateMutability": "nonpayable",
      "type": "function"
    },
    {
      "inputs": [
        {
          "internalType": "uint256",
          "name": "price",
          "type": "uint256"
        }
      ],
      "name": "setPrice",
      "outputs": [],
      "stateMutability": "nonpayable",
      "type": "function"
    },
    {
      "inputs": [
        {
          "internalType": "bool",
          "name": "value",
          "type": "bool"
        }
      ],
      "name": "setReadySale",
      "outputs": [],
      "stateMutability": "nonpayable",
      "type": "function"
    },
    {
      "inputs": [
        {
          "internalType": "address payable",
          "name": "wallet",
          "type": "address"
        }
      ],
      "name": "setWallet",
      "outputs": [],
      "stateMutability": "nonpayable",
      "type": "function"
    },
    {
      "inputs": [
        {
          "internalType": "address",
          "name": "newOwner",
          "type": "address"
        }
      ],
      "name": "transferOwnership",
      "outputs": [],
      "stateMutability": "nonpayable",
      "type": "function"
    },
    {
      "inputs": [
        {
          "internalType": "address",
          "name": "newImplementation",
          "type": "address"
        }
      ],
      "name": "upgradeTo",
      "outputs": [],
      "stateMutability": "nonpayable",
      "type": "function"
    },
    {
      "inputs": [
        {
          "internalType": "address",
          "name": "newImplementation",
          "type": "address"
        },
        {
          "internalType": "bytes",
          "name": "data",
          "type": "bytes"
        }
      ],
      "name": "upgradeToAndCall",
      "outputs": [],
      "stateMutability": "payable",
      "type": "function"
    },
    {
      "inputs": [],
      "name": "withdrawTokenByOwner",
      "outputs": [],
      "stateMutability": "nonpayable",
      "type": "function"
    }
  ],
  "bytecode": "0x60a06040523073ffffffffffffffffffffffffffffffffffffffff1660809073ffffffffffffffffffffffffffffffffffffffff1660601b8152503480156200004757600080fd5b50620000586200005e60201b60201c565b62000209565b600060019054906101000a900460ff1615620000b1576040517f08c379a0000000000000000000000000000000000000000000000000000000008152600401620000a8906200015d565b60405180910390fd5b60ff801660008054906101000a900460ff1660ff161015620001235760ff6000806101000a81548160ff021916908360ff1602179055507f7f26b83ff96e1f2b6a682f133852f6798a09c465da95921460cefb384740249860ff6040516200011a91906200017f565b60405180910390a15b565b6000620001346027836200019c565b91506200014182620001ba565b604082019050919050565b6200015781620001ad565b82525050565b60006020820190508181036000830152620001788162000125565b9050919050565b60006020820190506200019660008301846200014c565b92915050565b600082825260208201905092915050565b600060ff82169050919050565b7f496e697469616c697a61626c653a20636f6e747261637420697320696e69746960008201527f616c697a696e6700000000000000000000000000000000000000000000000000602082015250565b60805160601c613bc362000244600039600081816109ed01528181610a7c01528181610b7601528181610c050152610cda0152613bc36000f3fe6080604052600436106101405760003560e01c8063610757e4116100b657806391b7f5ed1161006f57806391b7f5ed14610403578063a00a21ff1461042c578063b9d18eae14610448578063deaa59df14610473578063deed00f61461049c578063f2fde38b146104c757610140565b8063610757e4146103035780636f9fb98a1461032e578063715018a6146103595780637428edea1461037057806381097e321461039b5780638da5cb5b146103d857610140565b80633659cfe6116101085780633659cfe6146102045780634f1ef2861461022d578063514c1ba61461024957806352d1902d1461027257806358f157bd1461029d5780635d0a8f6d146102da57610140565b8063019e27291461014557806312c0aeb91461016e578063228443d814610185578063235b6ea1146101ae5780632725368f146101d9575b600080fd5b34801561015157600080fd5b5061016c6004803603810190610167919061241e565b6104f0565b005b34801561017a57600080fd5b5061018361084c565b005b34801561019157600080fd5b506101ac60048036038101906101a7919061223e565b610903565b005b3480156101ba57600080fd5b506101c36109bf565b6040516101d09190612f2d565b60405180910390f35b3480156101e557600080fd5b506101ee6109c5565b6040516101fb9190612b95565b60405180910390f35b34801561021057600080fd5b5061022b6004803603810190610226919061223e565b6109eb565b005b61024760048036038101906102429190612298565b610b74565b005b34801561025557600080fd5b50610270600480360381019061026b91906122f4565b610cb1565b005b34801561027e57600080fd5b50610287610cd6565b6040516102949190612b7a565b60405180910390f35b3480156102a957600080fd5b506102c460048036038101906102bf91906123c4565b610d8f565b6040516102d19190612b5f565b60405180910390f35b3480156102e657600080fd5b5061030160048036038101906102fc91906123c4565b610db9565b005b34801561030f57600080fd5b50610318610e59565b6040516103259190612af9565b60405180910390f35b34801561033a57600080fd5b50610343610e80565b6040516103509190612f2d565b60405180910390f35b34801561036557600080fd5b5061036e610e8d565b005b34801561037c57600080fd5b50610385610ea1565b6040516103929190612f2d565b60405180910390f35b3480156103a757600080fd5b506103c260048036038101906103bd919061223e565b610ea7565b6040516103cf9190612b3d565b60405180910390f35b3480156103e457600080fd5b506103ed611198565b6040516103fa9190612ade565b60405180910390f35b34801561040f57600080fd5b5061042a600480360381019061042591906123c4565b6111c2565b005b61044660048036038101906104419190612397565b611217565b005b34801561045457600080fd5b5061045d6115ba565b60405161046a9190612f2d565b60405180910390f35b34801561047f57600080fd5b5061049a6004803603810190610495919061226b565b6115d8565b005b3480156104a857600080fd5b506104b1611695565b6040516104be9190612b5f565b60405180910390f35b3480156104d357600080fd5b506104ee60048036038101906104e9919061223e565b6116ac565b005b60008060019054906101000a900460ff161590508080156105215750600160008054906101000a900460ff1660ff16105b8061054e575061053030611730565b15801561054d5750600160008054906101000a900460ff1660ff16145b5b61058d576040517f08c379a000000000000000000000000000000000000000000000000000000000815260040161058490612d2d565b60405180910390fd5b60016000806101000a81548160ff021916908360ff16021790555080156105ca576001600060016101000a81548160ff0219169083151502179055505b6000851161060d576040517f08c379a000000000000000000000000000000000000000000000000000000000815260040161060490612bed565b60405180910390fd5b60008411610650576040517f08c379a000000000000000000000000000000000000000000000000000000000815260040161064790612bed565b60405180910390fd5b600073ffffffffffffffffffffffffffffffffffffffff168373ffffffffffffffffffffffffffffffffffffffff1614156106c0576040517f08c379a00000000000000000000000000000000000000000000000000000000081526004016106b790612ced565b60405180910390fd5b600073ffffffffffffffffffffffffffffffffffffffff168273ffffffffffffffffffffffffffffffffffffffff161415610730576040517f08c379a000000000000000000000000000000000000000000000000000000000815260040161072790612ead565b60405180910390fd5b610738611753565b6107406117ac565b8460fc819055508360ff819055508260fb60006101000a81548173ffffffffffffffffffffffffffffffffffffffff021916908373ffffffffffffffffffffffffffffffffffffffff1602179055508161010060006101000a81548173ffffffffffffffffffffffffffffffffffffffff021916908373ffffffffffffffffffffffffffffffffffffffff160217905550600060fb60146101000a81548160ff02191690831515021790555080156108455760008060016101000a81548160ff0219169083151502179055507f7f26b83ff96e1f2b6a682f133852f6798a09c465da95921460cefb3847402498600160405161083c9190612bb0565b60405180910390a15b5050505050565b6108546117fd565b60004711610897576040517f08c379a000000000000000000000000000000000000000000000000000000000815260040161088e90612e0d565b60405180910390fd5b61010060009054906101000a900473ffffffffffffffffffffffffffffffffffffffff1673ffffffffffffffffffffffffffffffffffffffff166108fc479081150290604051600060405180830381858888f19350505050158015610900573d6000803e3d6000fd5b50565b61090b6117fd565b600073ffffffffffffffffffffffffffffffffffffffff168173ffffffffffffffffffffffffffffffffffffffff16141561097b576040517f08c379a000000000000000000000000000000000000000000000000000000000815260040161097290612d6d565b60405180910390fd5b8060fb60006101000a81548173ffffffffffffffffffffffffffffffffffffffff021916908373ffffffffffffffffffffffffffffffffffffffff16021790555050565b60ff5481565b60fb60009054906101000a900473ffffffffffffffffffffffffffffffffffffffff1681565b7f000000000000000000000000000000000000000000000000000000000000000073ffffffffffffffffffffffffffffffffffffffff163073ffffffffffffffffffffffffffffffffffffffff161415610a7a576040517f08c379a0000000000000000000000000000000000000000000000000000000008152600401610a7190612c8d565b60405180910390fd5b7f000000000000000000000000000000000000000000000000000000000000000073ffffffffffffffffffffffffffffffffffffffff16610ab961187b565b73ffffffffffffffffffffffffffffffffffffffff1614610b0f576040517f08c379a0000000000000000000000000000000000000000000000000000000008152600401610b0690612cad565b60405180910390fd5b610b18816118d2565b610b7181600067ffffffffffffffff811115610b3757610b366133ac565b5b6040519080825280601f01601f191660200182016040528015610b695781602001600182028036833780820191505090505b5060006118dd565b50565b7f000000000000000000000000000000000000000000000000000000000000000073ffffffffffffffffffffffffffffffffffffffff163073ffffffffffffffffffffffffffffffffffffffff161415610c03576040517f08c379a0000000000000000000000000000000000000000000000000000000008152600401610bfa90612c8d565b60405180910390fd5b7f000000000000000000000000000000000000000000000000000000000000000073ffffffffffffffffffffffffffffffffffffffff16610c4261187b565b73ffffffffffffffffffffffffffffffffffffffff1614610c98576040517f08c379a0000000000000000000000000000000000000000000000000000000008152600401610c8f90612cad565b60405180910390fd5b610ca1826118d2565b610cad828260016118dd565b5050565b610cb96117fd565b8060fb60146101000a81548160ff02191690831515021790555050565b60007f000000000000000000000000000000000000000000000000000000000000000073ffffffffffffffffffffffffffffffffffffffff163073ffffffffffffffffffffffffffffffffffffffff1614610d66576040517f08c379a0000000000000000000000000000000000000000000000000000000008152600401610d5d90612ccd565b60405180910390fd5b7f360894a13ba1a3210667c828492db98dca3e2076cc3735a920a3ca505d382bbc60001b905090565b600060fd600083815260200190815260200160002060009054906101000a900460ff169050919050565b610dc16117fd565b60008111610e04576040517f08c379a0000000000000000000000000000000000000000000000000000000008152600401610dfb90612c2d565b60405180910390fd5b610e0e60fe611a5a565b8111610e4f576040517f08c379a0000000000000000000000000000000000000000000000000000000008152600401610e4690612c4d565b60405180910390fd5b8060fc8190555050565b61010060009054906101000a900473ffffffffffffffffffffffffffffffffffffffff1681565b6000804790508091505090565b610e956117fd565b610e9f6000611a68565b565b60fc5481565b6060600060fb60009054906101000a900473ffffffffffffffffffffffffffffffffffffffff1673ffffffffffffffffffffffffffffffffffffffff166370a08231846040518263ffffffff1660e01b8152600401610f069190612ade565b60206040518083038186803b158015610f1e57600080fd5b505afa158015610f32573d6000803e3d6000fd5b505050506040513d601f19601f82011682018060405250810190610f5691906123f1565b905060008167ffffffffffffffff811115610f7457610f736133ac565b5b604051908082528060200260200182016040528015610fad57816020015b610f9a6120a8565b815260200190600190039081610f925790505b509050600080600090505b8381101561118c5760fb60009054906101000a900473ffffffffffffffffffffffffffffffffffffffff1673ffffffffffffffffffffffffffffffffffffffff16632f745c5987836040518363ffffffff1660e01b815260040161101d929190612b14565b60206040518083038186803b15801561103557600080fd5b505afa158015611049573d6000803e3d6000fd5b505050506040513d601f19601f8201168201806040525081019061106d91906123f1565b9150604051806060016040528083815260200160fb60009054906101000a900473ffffffffffffffffffffffffffffffffffffffff1673ffffffffffffffffffffffffffffffffffffffff1663c87b56dd856040518263ffffffff1660e01b81526004016110db9190612f2d565b60006040518083038186803b1580156110f357600080fd5b505afa158015611107573d6000803e3d6000fd5b505050506040513d6000823e3d601f19601f82011682018060405250810190611130919061234e565b815260200160fd600085815260200190815260200160002060009054906101000a900460ff16151581525083828151811061116e5761116d61337d565b5b60200260200101819052508080611184906132a5565b915050610fb8565b50819350505050919050565b6000606560009054906101000a900473ffffffffffffffffffffffffffffffffffffffff16905090565b6111ca6117fd565b6000811161120d576040517f08c379a000000000000000000000000000000000000000000000000000000000815260040161120490612f0d565b60405180910390fd5b8060ff8190555050565b6002600154141561125d576040517f08c379a000000000000000000000000000000000000000000000000000000000815260040161125490612eed565b60405180910390fd5b600260018190555060fb60149054906101000a900460ff166112b4576040517f08c379a00000000000000000000000000000000000000000000000000000000081526004016112ab90612e6d565b60405180910390fd5b60008161ffff16116112fb576040517f08c379a00000000000000000000000000000000000000000000000000000000081526004016112f290612bed565b60405180910390fd5b600061130760fe611a5a565b60fc546113149190613137565b90508161ffff1681101561132782611b2e565b6001831161136a576040518060400160405280600481526020017f204e4654000000000000000000000000000000000000000000000000000000008152506113a1565b6040518060400160405280600581526020017f204e4654730000000000000000000000000000000000000000000000000000008152505b6040516020016113b2929190612aa4565b60405160208183030381529060405290611402576040517f08c379a00000000000000000000000000000000000000000000000000000000081526004016113f99190612bcb565b60405180910390fd5b50600061140d611c8f565b905061141e8361ffff168234611c97565b60005b8361ffff168110156115ad5760fc5461143a60fe611a5a565b111561147b576040517f08c379a000000000000000000000000000000000000000000000000000000000815260040161147290612ded565b60405180910390fd5b600060fb60009054906101000a900473ffffffffffffffffffffffffffffffffffffffff1673ffffffffffffffffffffffffffffffffffffffff166354ba0f27846040518263ffffffff1660e01b81526004016114d89190612ade565b602060405180830381600087803b1580156114f257600080fd5b505af1158015611506573d6000803e3d6000fd5b505050506040513d601f19601f8201168201806040525081019061152a91906123f1565b9050600160fd600083815260200190815260200160002060006101000a81548160ff02191690831515021790555061156260fe611d9e565b7ff403523e17bf2d1fe8af1a00ba36bc463a7d846dbadf11d117400f7694ba3e6c836040516115919190612ade565b60405180910390a15080806115a5906132a5565b915050611421565b5050506001808190555050565b60006115c660fe611a5a565b60fc546115d39190613137565b905090565b6115e06117fd565b600073ffffffffffffffffffffffffffffffffffffffff168173ffffffffffffffffffffffffffffffffffffffff161415611650576040517f08c379a000000000000000000000000000000000000000000000000000000000815260040161164790612c0d565b60405180910390fd5b8061010060006101000a81548173ffffffffffffffffffffffffffffffffffffffff021916908373ffffffffffffffffffffffffffffffffffffffff16021790555050565b600060fb60149054906101000a900460ff16905090565b6116b46117fd565b600073ffffffffffffffffffffffffffffffffffffffff168173ffffffffffffffffffffffffffffffffffffffff161415611724576040517f08c379a000000000000000000000000000000000000000000000000000000000815260040161171b90612c6d565b60405180910390fd5b61172d81611a68565b50565b6000808273ffffffffffffffffffffffffffffffffffffffff163b119050919050565b600060019054906101000a900460ff166117a2576040517f08c379a000000000000000000000000000000000000000000000000000000000815260040161179990612e8d565b60405180910390fd5b6117aa611db4565b565b600060019054906101000a900460ff166117fb576040517f08c379a00000000000000000000000000000000000000000000000000000000081526004016117f290612e8d565b60405180910390fd5b565b611805611c8f565b73ffffffffffffffffffffffffffffffffffffffff16611823611198565b73ffffffffffffffffffffffffffffffffffffffff1614611879576040517f08c379a000000000000000000000000000000000000000000000000000000000815260040161187090612dcd565b60405180910390fd5b565b60006118a97f360894a13ba1a3210667c828492db98dca3e2076cc3735a920a3ca505d382bbc60001b611e15565b60000160009054906101000a900473ffffffffffffffffffffffffffffffffffffffff16905090565b6118da6117fd565b50565b6119097f4910fdfa16fed3260ed0e7147f7cc6da11a60208b5b9406d12a635614ffd914360001b611e1f565b60000160009054906101000a900460ff161561192d5761192883611e29565b611a55565b8273ffffffffffffffffffffffffffffffffffffffff166352d1902d6040518163ffffffff1660e01b815260040160206040518083038186803b15801561197357600080fd5b505afa9250505080156119a457506040513d601f19601f820116820180604052508101906119a19190612321565b60015b6119e3576040517f08c379a00000000000000000000000000000000000000000000000000000000081526004016119da90612d8d565b60405180910390fd5b7f360894a13ba1a3210667c828492db98dca3e2076cc3735a920a3ca505d382bbc60001b8114611a48576040517f08c379a0000000000000000000000000000000000000000000000000000000008152600401611a3f90612d0d565b60405180910390fd5b50611a54838383611ee2565b5b505050565b600081600001549050919050565b6000606560009054906101000a900473ffffffffffffffffffffffffffffffffffffffff16905081606560006101000a81548173ffffffffffffffffffffffffffffffffffffffff021916908373ffffffffffffffffffffffffffffffffffffffff1602179055508173ffffffffffffffffffffffffffffffffffffffff168173ffffffffffffffffffffffffffffffffffffffff167f8be0079c531659141344cd1fd0a4f28419497f9722a3daafe3b4186f6b6457e060405160405180910390a35050565b60606000821415611b76576040518060400160405280600181526020017f30000000000000000000000000000000000000000000000000000000000000008152509050611c8a565b600082905060005b60008214611ba8578080611b91906132a5565b915050600a82611ba191906130ac565b9150611b7e565b60008167ffffffffffffffff811115611bc457611bc36133ac565b5b6040519080825280601f01601f191660200182016040528015611bf65781602001600182028036833780820191505090505b5090505b60008514611c8357600182611c0f9190613137565b9150600a85611c1e91906132ee565b6030611c2a9190613056565b60f81b818381518110611c4057611c3f61337d565b5b60200101907effffffffffffffffffffffffffffffffffffffffffffffffffffffffffffff1916908160001a905350600a85611c7c91906130ac565b9450611bfa565b8093505050505b919050565b600033905090565b60008311611cda576040517f08c379a0000000000000000000000000000000000000000000000000000000008152600401611cd190612e4d565b60405180910390fd5b600073ffffffffffffffffffffffffffffffffffffffff168273ffffffffffffffffffffffffffffffffffffffff161415611d4a576040517f08c379a0000000000000000000000000000000000000000000000000000000008152600401611d4190612ecd565b60405180910390fd5b808360ff54611d5991906130dd565b14611d99576040517f08c379a0000000000000000000000000000000000000000000000000000000008152600401611d9090612d4d565b60405180910390fd5b505050565b6001816000016000828254019250508190555050565b600060019054906101000a900460ff16611e03576040517f08c379a0000000000000000000000000000000000000000000000000000000008152600401611dfa90612e8d565b60405180910390fd5b611e13611e0e611c8f565b611a68565b565b6000819050919050565b6000819050919050565b611e3281611730565b611e71576040517f08c379a0000000000000000000000000000000000000000000000000000000008152600401611e6890612dad565b60405180910390fd5b80611e9e7f360894a13ba1a3210667c828492db98dca3e2076cc3735a920a3ca505d382bbc60001b611e15565b60000160006101000a81548173ffffffffffffffffffffffffffffffffffffffff021916908373ffffffffffffffffffffffffffffffffffffffff16021790555050565b611eeb83611f0e565b600082511180611ef85750805b15611f0957611f078383611f5d565b505b505050565b611f1781611e29565b8073ffffffffffffffffffffffffffffffffffffffff167fbc7cd75a20ee27fd9adebab32041f755214dbc6bffa90cc0225b39da2e5c2d3b60405160405180910390a250565b6060611f6883611730565b611fa7576040517f08c379a0000000000000000000000000000000000000000000000000000000008152600401611f9e90612e2d565b60405180910390fd5b6000808473ffffffffffffffffffffffffffffffffffffffff1684604051611fcf9190612a8d565b600060405180830381855af49150503d806000811461200a576040519150601f19603f3d011682016040523d82523d6000602084013e61200f565b606091505b50915091506120378282604051806060016040528060278152602001613b6760279139612041565b9250505092915050565b60608315612051578290506120a1565b6000835111156120645782518084602001fd5b816040517f08c379a00000000000000000000000000000000000000000000000000000000081526004016120989190612bcb565b60405180910390fd5b9392505050565b604051806060016040528060008152602001606081526020016000151581525090565b60006120de6120d984612f6d565b612f48565b9050828152602081018484840111156120fa576120f96133e0565b5b612105848285613232565b509392505050565b600061212061211b84612f9e565b612f48565b90508281526020810184848401111561213c5761213b6133e0565b5b612147848285613241565b509392505050565b60008135905061215e81613adc565b92915050565b60008135905061217381613af3565b92915050565b60008135905061218881613b0a565b92915050565b60008151905061219d81613b21565b92915050565b600082601f8301126121b8576121b76133db565b5b81356121c88482602086016120cb565b91505092915050565b600082601f8301126121e6576121e56133db565b5b81516121f684826020860161210d565b91505092915050565b60008135905061220e81613b38565b92915050565b60008135905061222381613b4f565b92915050565b60008151905061223881613b4f565b92915050565b600060208284031215612254576122536133ea565b5b60006122628482850161214f565b91505092915050565b600060208284031215612281576122806133ea565b5b600061228f84828501612164565b91505092915050565b600080604083850312156122af576122ae6133ea565b5b60006122bd8582860161214f565b925050602083013567ffffffffffffffff8111156122de576122dd6133e5565b5b6122ea858286016121a3565b9150509250929050565b60006020828403121561230a576123096133ea565b5b600061231884828501612179565b91505092915050565b600060208284031215612337576123366133ea565b5b60006123458482850161218e565b91505092915050565b600060208284031215612364576123636133ea565b5b600082015167ffffffffffffffff811115612382576123816133e5565b5b61238e848285016121d1565b91505092915050565b6000602082840312156123ad576123ac6133ea565b5b60006123bb848285016121ff565b91505092915050565b6000602082840312156123da576123d96133ea565b5b60006123e884828501612214565b91505092915050565b600060208284031215612407576124066133ea565b5b600061241584828501612229565b91505092915050565b60008060008060808587031215612438576124376133ea565b5b600061244687828801612214565b945050602061245787828801612214565b93505060406124688782880161214f565b92505060606124798782880161214f565b91505092959194509250565b60006124918383612a1f565b905092915050565b6124a28161317d565b82525050565b6124b18161316b565b82525050565b60006124c282612fdf565b6124cc818561300d565b9350836020820285016124de85612fcf565b8060005b8581101561251a57848403895281516124fb8582612485565b945061250683613000565b925060208a019950506001810190506124e2565b50829750879550505050505092915050565b6125358161318f565b82525050565b6125448161318f565b82525050565b6125538161319b565b82525050565b600061256482612fea565b61256e818561301e565b935061257e818560208601613241565b80840191505092915050565b612593816131ea565b82525050565b6125a2816131fc565b82525050565b60006125b382612ff5565b6125bd8185613029565b93506125cd818560208601613241565b6125d6816133ef565b840191505092915050565b60006125ec82612ff5565b6125f6818561303a565b9350612606818560208601613241565b61260f816133ef565b840191505092915050565b600061262582612ff5565b61262f818561304b565b935061263f818560208601613241565b80840191505092915050565b600061265860248361303a565b915061266382613400565b604082019050919050565b600061267b601a8361303a565b91506126868261344f565b602082019050919050565b600061269e60248361303a565b91506126a982613478565b604082019050919050565b60006126c160358361303a565b91506126cc826134c7565b604082019050919050565b60006126e460268361303a565b91506126ef82613516565b604082019050919050565b6000612707602c8361303a565b915061271282613565565b604082019050919050565b600061272a60308361304b565b9150612735826135b4565b603082019050919050565b600061274d602c8361303a565b915061275882613603565b604082019050919050565b600061277060388361303a565b915061277b82613652565b604082019050919050565b600061279360208361303a565b915061279e826136a1565b602082019050919050565b60006127b660298361303a565b91506127c1826136ca565b604082019050919050565b60006127d9602e8361303a565b91506127e482613719565b604082019050919050565b60006127fc601d8361303a565b915061280782613768565b602082019050919050565b600061281f60208361303a565b915061282a82613791565b602082019050919050565b6000612842602e8361303a565b915061284d826137ba565b604082019050919050565b6000612865602d8361303a565b915061287082613809565b604082019050919050565b600061288860208361303a565b915061289382613858565b602082019050919050565b60006128ab602f8361303a565b91506128b682613881565b604082019050919050565b60006128ce601a8361303a565b91506128d9826138d0565b602082019050919050565b60006128f160268361303a565b91506128fc826138f9565b604082019050919050565b6000612914602b8361303a565b915061291f82613948565b604082019050919050565b600061293760198361303a565b915061294282613997565b602082019050919050565b600061295a602b8361303a565b9150612965826139c0565b604082019050919050565b600061297d601a8361303a565b915061298882613a0f565b602082019050919050565b60006129a0601f8361303a565b91506129ab82613a38565b602082019050919050565b60006129c3601f8361303a565b91506129ce82613a61565b602082019050919050565b60006129e660058361304b565b91506129f182613a8a565b600582019050919050565b6000612a09601c8361303a565b9150612a1482613ab3565b602082019050919050565b6000606083016000830151612a376000860182612a6f565b5060208301518482036020860152612a4f82826125a8565b9150506040830151612a64604086018261252c565b508091505092915050565b612a78816131d3565b82525050565b612a87816131d3565b82525050565b6000612a998284612559565b915081905092915050565b6000612aaf8261271d565b9150612abb828561261a565b9150612ac7828461261a565b9150612ad2826129d9565b91508190509392505050565b6000602082019050612af360008301846124a8565b92915050565b6000602082019050612b0e6000830184612499565b92915050565b6000604082019050612b2960008301856124a8565b612b366020830184612a7e565b9392505050565b60006020820190508181036000830152612b5781846124b7565b905092915050565b6000602082019050612b74600083018461253b565b92915050565b6000602082019050612b8f600083018461254a565b92915050565b6000602082019050612baa600083018461258a565b92915050565b6000602082019050612bc56000830184612599565b92915050565b60006020820190508181036000830152612be581846125e1565b905092915050565b60006020820190508181036000830152612c068161264b565b9050919050565b60006020820190508181036000830152612c268161266e565b9050919050565b60006020820190508181036000830152612c4681612691565b9050919050565b60006020820190508181036000830152612c66816126b4565b9050919050565b60006020820190508181036000830152612c86816126d7565b9050919050565b60006020820190508181036000830152612ca6816126fa565b9050919050565b60006020820190508181036000830152612cc681612740565b9050919050565b60006020820190508181036000830152612ce681612763565b9050919050565b60006020820190508181036000830152612d0681612786565b9050919050565b60006020820190508181036000830152612d26816127a9565b9050919050565b60006020820190508181036000830152612d46816127cc565b9050919050565b60006020820190508181036000830152612d66816127ef565b9050919050565b60006020820190508181036000830152612d8681612812565b9050919050565b60006020820190508181036000830152612da681612835565b9050919050565b60006020820190508181036000830152612dc681612858565b9050919050565b60006020820190508181036000830152612de68161287b565b9050919050565b60006020820190508181036000830152612e068161289e565b9050919050565b60006020820190508181036000830152612e26816128c1565b9050919050565b60006020820190508181036000830152612e46816128e4565b9050919050565b60006020820190508181036000830152612e6681612907565b9050919050565b60006020820190508181036000830152612e868161292a565b9050919050565b60006020820190508181036000830152612ea68161294d565b9050919050565b60006020820190508181036000830152612ec681612970565b9050919050565b60006020820190508181036000830152612ee681612993565b9050919050565b60006020820190508181036000830152612f06816129b6565b9050919050565b60006020820190508181036000830152612f26816129fc565b9050919050565b6000602082019050612f426000830184612a7e565b92915050565b6000612f52612f63565b9050612f5e8282613274565b919050565b6000604051905090565b600067ffffffffffffffff821115612f8857612f876133ac565b5b612f91826133ef565b9050602081019050919050565b600067ffffffffffffffff821115612fb957612fb86133ac565b5b612fc2826133ef565b9050602081019050919050565b6000819050602082019050919050565b600081519050919050565b600081519050919050565b600081519050919050565b6000602082019050919050565b600082825260208201905092915050565b600081905092915050565b600082825260208201905092915050565b600082825260208201905092915050565b600081905092915050565b6000613061826131d3565b915061306c836131d3565b9250827fffffffffffffffffffffffffffffffffffffffffffffffffffffffffffffffff038211156130a1576130a061331f565b5b828201905092915050565b60006130b7826131d3565b91506130c2836131d3565b9250826130d2576130d161334e565b5b828204905092915050565b60006130e8826131d3565b91506130f3836131d3565b9250817fffffffffffffffffffffffffffffffffffffffffffffffffffffffffffffffff048311821515161561312c5761312b61331f565b5b828202905092915050565b6000613142826131d3565b915061314d836131d3565b9250828210156131605761315f61331f565b5b828203905092915050565b6000613176826131b3565b9050919050565b6000613188826131b3565b9050919050565b60008115159050919050565b6000819050919050565b600061ffff82169050919050565b600073ffffffffffffffffffffffffffffffffffffffff82169050919050565b6000819050919050565b600060ff82169050919050565b60006131f58261320e565b9050919050565b6000613207826131dd565b9050919050565b600061321982613220565b9050919050565b600061322b826131b3565b9050919050565b82818337600083830152505050565b60005b8381101561325f578082015181840152602081019050613244565b8381111561326e576000848401525b50505050565b61327d826133ef565b810181811067ffffffffffffffff8211171561329c5761329b6133ac565b5b80604052505050565b60006132b0826131d3565b91507fffffffffffffffffffffffffffffffffffffffffffffffffffffffffffffffff8214156132e3576132e261331f565b5b600182019050919050565b60006132f9826131d3565b9150613304836131d3565b9250826133145761331361334e565b5b828206905092915050565b7f4e487b7100000000000000000000000000000000000000000000000000000000600052601160045260246000fd5b7f4e487b7100000000000000000000000000000000000000000000000000000000600052601260045260246000fd5b7f4e487b7100000000000000000000000000000000000000000000000000000000600052603260045260246000fd5b7f4e487b7100000000000000000000000000000000000000000000000000000000600052604160045260246000fd5b600080fd5b600080fd5b600080fd5b600080fd5b6000601f19601f8301169050919050565b7f6d617853616c65416d6f756e74206d757374206265206772656174657220746860008201527f616e203000000000000000000000000000000000000000000000000000000000602082015250565b7f57616c6c657420697320746865207a65726f2061646472657373000000000000600082015250565b7f4d617853616c65416d6f756e74206d757374206265206772656174657220746860008201527f616e203000000000000000000000000000000000000000000000000000000000602082015250565b7f4d617853616c65416d6f756e74206d757374206265206772656174657220746860008201527f616e205f63757272656e7453616c65416d6f756e740000000000000000000000602082015250565b7f4f776e61626c653a206e6577206f776e657220697320746865207a65726f206160008201527f6464726573730000000000000000000000000000000000000000000000000000602082015250565b7f46756e6374696f6e206d7573742062652063616c6c6564207468726f7567682060008201527f64656c656761746563616c6c0000000000000000000000000000000000000000602082015250565b7f457863656564656420746865206e756d626572206f66204e46547320666f722060008201527f746869732073616c6520726f756e642e00000000000000000000000000000000602082015250565b7f46756e6374696f6e206d7573742062652063616c6c6564207468726f7567682060008201527f6163746976652070726f78790000000000000000000000000000000000000000602082015250565b7f555550535570677261646561626c653a206d757374206e6f742062652063616c60008201527f6c6564207468726f7567682064656c656761746563616c6c0000000000000000602082015250565b7f6d6f6f6e42656173744e465420697320746865207a65726f2061646472657373600082015250565b7f45524331393637557067726164653a20756e737570706f727465642070726f7860008201527f6961626c65555549440000000000000000000000000000000000000000000000602082015250565b7f496e697469616c697a61626c653a20636f6e747261637420697320616c72656160008201527f647920696e697469616c697a6564000000000000000000000000000000000000602082015250565b7f5468652076616c756520796f752073656e7420697320696e76616c6964000000600082015250565b7f4d6f6f6e42656173744e465420697320746865207a65726f2061646472657373600082015250565b7f45524331393637557067726164653a206e657720696d706c656d656e7461746960008201527f6f6e206973206e6f742055555053000000000000000000000000000000000000602082015250565b7f455243313936373a206e657720696d706c656d656e746174696f6e206973206e60008201527f6f74206120636f6e747261637400000000000000000000000000000000000000602082015250565b7f4f776e61626c653a2063616c6c6572206973206e6f7420746865206f776e6572600082015250565b7f457863656564656420746865206e756d626572206f66204e46547320666f722060008201527f746869732073616c6520726f756e640000000000000000000000000000000000602082015250565b7f436f6e74726163742062616c616e6365206973203020474c4d52000000000000600082015250565b7f416464726573733a2064656c65676174652063616c6c20746f206e6f6e2d636f60008201527f6e74726163740000000000000000000000000000000000000000000000000000602082015250565b7f596f75206e656564206174206c65617374206f6e65206d696e7420706173732060008201527f746f206d696e74204e4654000000000000000000000000000000000000000000602082015250565b7f57686974656c69737420726f756e64206e6f7420726561647900000000000000600082015250565b7f496e697469616c697a61626c653a20636f6e7472616374206973206e6f74206960008201527f6e697469616c697a696e67000000000000000000000000000000000000000000602082015250565b7f77616c6c657420697320746865207a65726f2061646472657373000000000000600082015250565b7f42656e656669636961727920697320746865207a65726f206164647265737300600082015250565b7f5265656e7472616e637947756172643a207265656e7472616e742063616c6c00600082015250565b7f206c656674000000000000000000000000000000000000000000000000000000600082015250565b7f5072696365206d7573742062652067726561746572207468616e203000000000600082015250565b613ae58161316b565b8114613af057600080fd5b50565b613afc8161317d565b8114613b0757600080fd5b50565b613b138161318f565b8114613b1e57600080fd5b50565b613b2a8161319b565b8114613b3557600080fd5b50565b613b41816131a5565b8114613b4c57600080fd5b50565b613b58816131d3565b8114613b6357600080fd5b5056fe416464726573733a206c6f772d6c6576656c2064656c65676174652063616c6c206661696c6564a2646970667358221220606ecfb80d7f176dd79af2416f63855406c1adf5ad4728aeb4c186191045174d64736f6c63430008070033",
  "linkReferences": {},
  "deployedLinkReferences": {}
}