{
  "_format": "hh-sol-artifact-1",
  "contractName": "UMoonFitNFTPublicSale",
  "sourceName": "contracts/upgradeables/UMoonFitNFTPublicSale.sol",
  "abi": [
    {
      "inputs": [],
      "stateMutability": "nonpayable",
      "type": "constructor"
    },
    {
      "anonymous": false,
      "inputs": [
        {
          "indexed": false,
          "internalType": "address",
          "name": "previousAdmin",
          "type": "address"
        },
        {
          "indexed": false,
          "internalType": "address",
          "name": "newAdmin",
          "type": "address"
        }
      ],
      "name": "AdminChanged",
      "type": "event"
    },
    {
      "anonymous": false,
      "inputs": [
        {
          "indexed": true,
          "internalType": "address",
          "name": "beacon",
          "type": "address"
        }
      ],
      "name": "BeaconUpgraded",
      "type": "event"
    },
    {
      "anonymous": false,
      "inputs": [
        {
          "indexed": false,
          "internalType": "uint8",
          "name": "version",
          "type": "uint8"
        }
      ],
      "name": "Initialized",
      "type": "event"
    },
    {
      "anonymous": false,
      "inputs": [
        {
          "indexed": false,
          "internalType": "address",
          "name": "beneficiary",
          "type": "address"
        }
      ],
      "name": "NFTPurchased",
      "type": "event"
    },
    {
      "anonymous": false,
      "inputs": [
        {
          "indexed": true,
          "internalType": "address",
          "name": "previousOwner",
          "type": "address"
        },
        {
          "indexed": true,
          "internalType": "address",
          "name": "newOwner",
          "type": "address"
        }
      ],
      "name": "OwnershipTransferred",
      "type": "event"
    },
    {
      "anonymous": false,
      "inputs": [
        {
          "indexed": true,
          "internalType": "address",
          "name": "implementation",
          "type": "address"
        }
      ],
      "name": "Upgraded",
      "type": "event"
    },
    {
      "inputs": [],
      "name": "_maxSaleAmount",
      "outputs": [
        {
          "internalType": "uint256",
          "name": "",
          "type": "uint256"
        }
      ],
      "stateMutability": "view",
      "type": "function"
    },
    {
      "inputs": [],
      "name": "_moonBeastNFT",
      "outputs": [
        {
          "internalType": "contract MoonBeast",
          "name": "",
          "type": "address"
        }
      ],
      "stateMutability": "view",
      "type": "function"
    },
    {
      "inputs": [],
      "name": "_price",
      "outputs": [
        {
          "internalType": "uint256",
          "name": "",
          "type": "uint256"
        }
      ],
      "stateMutability": "view",
      "type": "function"
    },
    {
      "inputs": [],
      "name": "_wallet",
      "outputs": [
        {
          "internalType": "address payable",
          "name": "",
          "type": "address"
        }
      ],
      "stateMutability": "view",
      "type": "function"
    },
    {
      "inputs": [
        {
          "internalType": "uint16",
          "name": "amount",
          "type": "uint16"
        }
      ],
      "name": "buyNFT",
      "outputs": [],
      "stateMutability": "payable",
      "type": "function"
    },
    {
      "inputs": [],
      "name": "getAvailableSlots",
      "outputs": [
        {
          "internalType": "uint256",
          "name": "",
          "type": "uint256"
        }
      ],
      "stateMutability": "view",
      "type": "function"
    },
    {
      "inputs": [],
      "name": "getContractBalance",
      "outputs": [
        {
          "internalType": "uint256",
          "name": "",
          "type": "uint256"
        }
      ],
      "stateMutability": "view",
      "type": "function"
    },
    {
      "inputs": [
        {
          "internalType": "address",
          "name": "owner",
          "type": "address"
        }
      ],
      "name": "getMoonBeast",
      "outputs": [
        {
          "components": [
            {
              "internalType": "uint256",
              "name": "tokenId",
              "type": "uint256"
            },
            {
              "internalType": "string",
              "name": "uri",
              "type": "string"
            },
            {
              "internalType": "bool",
              "name": "ownerMinted",
              "type": "bool"
            }
          ],
          "internalType": "struct MoonBeastNFTSale[]",
          "name": "",
          "type": "tuple[]"
        }
      ],
      "stateMutability": "view",
      "type": "function"
    },
    {
      "inputs": [],
      "name": "getReadySale",
      "outputs": [
        {
          "internalType": "bool",
          "name": "",
          "type": "bool"
        }
      ],
      "stateMutability": "view",
      "type": "function"
    },
    {
      "inputs": [
        {
          "internalType": "uint256",
          "name": "maxSaleAmount",
          "type": "uint256"
        },
        {
          "internalType": "uint256",
          "name": "price",
          "type": "uint256"
        },
        {
          "internalType": "address",
          "name": "moonBeastNFT",
          "type": "address"
        },
        {
          "internalType": "address",
          "name": "wallet",
          "type": "address"
        }
      ],
      "name": "initialize",
      "outputs": [],
      "stateMutability": "nonpayable",
      "type": "function"
    },
    {
      "inputs": [],
      "name": "owner",
      "outputs": [
        {
          "internalType": "address",
          "name": "",
          "type": "address"
        }
      ],
      "stateMutability": "view",
      "type": "function"
    },
    {
      "inputs": [],
      "name": "proxiableUUID",
      "outputs": [
        {
          "internalType": "bytes32",
          "name": "",
          "type": "bytes32"
        }
      ],
      "stateMutability": "view",
      "type": "function"
    },
    {
      "inputs": [],
      "name": "renounceOwnership",
      "outputs": [],
      "stateMutability": "nonpayable",
      "type": "function"
    },
    {
      "inputs": [
        {
          "internalType": "uint256",
          "name": "maxSaleAmount",
          "type": "uint256"
        }
      ],
      "name": "setMaxSaleAmount",
      "outputs": [],
      "stateMutability": "nonpayable",
      "type": "function"
    },
    {
      "inputs": [
        {
          "internalType": "address",
          "name": "moonBeast",
          "type": "address"
        }
      ],
      "name": "setMoonBeastNFT",
      "outputs": [],
      "stateMutability": "nonpayable",
      "type": "function"
    },
    {
      "inputs": [
        {
          "internalType": "uint256",
          "name": "price",
          "type": "uint256"
        }
      ],
      "name": "setPrice",
      "outputs": [],
      "stateMutability": "nonpayable",
      "type": "function"
    },
    {
      "inputs": [
        {
          "internalType": "bool",
          "name": "value",
          "type": "bool"
        }
      ],
      "name": "setReadySale",
      "outputs": [],
      "stateMutability": "nonpayable",
      "type": "function"
    },
    {
      "inputs": [
        {
          "internalType": "address payable",
          "name": "wallet",
          "type": "address"
        }
      ],
      "name": "setWallet",
      "outputs": [],
      "stateMutability": "nonpayable",
      "type": "function"
    },
    {
      "inputs": [
        {
          "internalType": "address",
          "name": "newOwner",
          "type": "address"
        }
      ],
      "name": "transferOwnership",
      "outputs": [],
      "stateMutability": "nonpayable",
      "type": "function"
    },
    {
      "inputs": [
        {
          "internalType": "address",
          "name": "newImplementation",
          "type": "address"
        }
      ],
      "name": "upgradeTo",
      "outputs": [],
      "stateMutability": "nonpayable",
      "type": "function"
    },
    {
      "inputs": [
        {
          "internalType": "address",
          "name": "newImplementation",
          "type": "address"
        },
        {
          "internalType": "bytes",
          "name": "data",
          "type": "bytes"
        }
      ],
      "name": "upgradeToAndCall",
      "outputs": [],
      "stateMutability": "payable",
      "type": "function"
    },
    {
      "inputs": [],
      "name": "withdrawTokenByOwner",
      "outputs": [],
      "stateMutability": "nonpayable",
      "type": "function"
    }
  ],
  "bytecode": "0x60a06040523073ffffffffffffffffffffffffffffffffffffffff1660809073ffffffffffffffffffffffffffffffffffffffff1660601b8152503480156200004757600080fd5b50620000586200005e60201b60201c565b62000209565b600060019054906101000a900460ff1615620000b1576040517f08c379a0000000000000000000000000000000000000000000000000000000008152600401620000a8906200015d565b60405180910390fd5b60ff801660008054906101000a900460ff1660ff161015620001235760ff6000806101000a81548160ff021916908360ff1602179055507f7f26b83ff96e1f2b6a682f133852f6798a09c465da95921460cefb384740249860ff6040516200011a91906200017f565b60405180910390a15b565b6000620001346027836200019c565b91506200014182620001ba565b604082019050919050565b6200015781620001ad565b82525050565b60006020820190508181036000830152620001788162000125565b9050919050565b60006020820190506200019660008301846200014c565b92915050565b600082825260208201905092915050565b600060ff82169050919050565b7f496e697469616c697a61626c653a20636f6e747261637420697320696e69746960008201527f616c697a696e6700000000000000000000000000000000000000000000000000602082015250565b60805160601c613b5162000244600039600081816109a501528181610a3401528181610b2e01528181610bbd0152610c920152613b516000f3fe6080604052600436106101355760003560e01c80636f9fb98a116100ab57806391b7f5ed1161006f57806391b7f5ed146103bb578063a00a21ff146103e4578063b9d18eae14610400578063deaa59df1461042b578063deed00f614610454578063f2fde38b1461047f57610135565b80636f9fb98a146102e6578063715018a6146103115780637428edea1461032857806381097e32146103535780638da5cb5b1461039057610135565b80633659cfe6116100fd5780633659cfe6146101f95780634f1ef28614610222578063514c1ba61461023e57806352d1902d146102675780635d0a8f6d14610292578063610757e4146102bb57610135565b8063019e27291461013a57806312c0aeb914610163578063228443d81461017a578063235b6ea1146101a35780632725368f146101ce575b600080fd5b34801561014657600080fd5b50610161600480360381019061015c91906123ac565b6104a8565b005b34801561016f57600080fd5b50610178610804565b005b34801561018657600080fd5b506101a1600480360381019061019c91906121cc565b6108bb565b005b3480156101af57600080fd5b506101b8610977565b6040516101c59190612ebb565b60405180910390f35b3480156101da57600080fd5b506101e361097d565b6040516101f09190612b23565b60405180910390f35b34801561020557600080fd5b50610220600480360381019061021b91906121cc565b6109a3565b005b61023c60048036038101906102379190612226565b610b2c565b005b34801561024a57600080fd5b5061026560048036038101906102609190612282565b610c69565b005b34801561027357600080fd5b5061027c610c8e565b6040516102899190612b08565b60405180910390f35b34801561029e57600080fd5b506102b960048036038101906102b49190612352565b610d47565b005b3480156102c757600080fd5b506102d0610de7565b6040516102dd9190612a87565b60405180910390f35b3480156102f257600080fd5b506102fb610e0e565b6040516103089190612ebb565b60405180910390f35b34801561031d57600080fd5b50610326610e1b565b005b34801561033457600080fd5b5061033d610e2f565b60405161034a9190612ebb565b60405180910390f35b34801561035f57600080fd5b5061037a600480360381019061037591906121cc565b610e35565b6040516103879190612acb565b60405180910390f35b34801561039c57600080fd5b506103a5611126565b6040516103b29190612a6c565b60405180910390f35b3480156103c757600080fd5b506103e260048036038101906103dd9190612352565b611150565b005b6103fe60048036038101906103f99190612325565b6111a5565b005b34801561040c57600080fd5b50610415611548565b6040516104229190612ebb565b60405180910390f35b34801561043757600080fd5b50610452600480360381019061044d91906121f9565b611566565b005b34801561046057600080fd5b50610469611623565b6040516104769190612aed565b60405180910390f35b34801561048b57600080fd5b506104a660048036038101906104a191906121cc565b61163a565b005b60008060019054906101000a900460ff161590508080156104d95750600160008054906101000a900460ff1660ff16105b8061050657506104e8306116be565b1580156105055750600160008054906101000a900460ff1660ff16145b5b610545576040517f08c379a000000000000000000000000000000000000000000000000000000000815260040161053c90612cbb565b60405180910390fd5b60016000806101000a81548160ff021916908360ff1602179055508015610582576001600060016101000a81548160ff0219169083151502179055505b600085116105c5576040517f08c379a00000000000000000000000000000000000000000000000000000000081526004016105bc90612b7b565b60405180910390fd5b60008411610608576040517f08c379a00000000000000000000000000000000000000000000000000000000081526004016105ff90612b7b565b60405180910390fd5b600073ffffffffffffffffffffffffffffffffffffffff168373ffffffffffffffffffffffffffffffffffffffff161415610678576040517f08c379a000000000000000000000000000000000000000000000000000000000815260040161066f90612c7b565b60405180910390fd5b600073ffffffffffffffffffffffffffffffffffffffff168273ffffffffffffffffffffffffffffffffffffffff1614156106e8576040517f08c379a00000000000000000000000000000000000000000000000000000000081526004016106df90612e3b565b60405180910390fd5b6106f06116e1565b6106f861173a565b8460fc819055508360ff819055508260fb60006101000a81548173ffffffffffffffffffffffffffffffffffffffff021916908373ffffffffffffffffffffffffffffffffffffffff1602179055508161010060006101000a81548173ffffffffffffffffffffffffffffffffffffffff021916908373ffffffffffffffffffffffffffffffffffffffff160217905550600060fb60146101000a81548160ff02191690831515021790555080156107fd5760008060016101000a81548160ff0219169083151502179055507f7f26b83ff96e1f2b6a682f133852f6798a09c465da95921460cefb384740249860016040516107f49190612b3e565b60405180910390a15b5050505050565b61080c61178b565b6000471161084f576040517f08c379a000000000000000000000000000000000000000000000000000000000815260040161084690612d9b565b60405180910390fd5b61010060009054906101000a900473ffffffffffffffffffffffffffffffffffffffff1673ffffffffffffffffffffffffffffffffffffffff166108fc479081150290604051600060405180830381858888f193505050501580156108b8573d6000803e3d6000fd5b50565b6108c361178b565b600073ffffffffffffffffffffffffffffffffffffffff168173ffffffffffffffffffffffffffffffffffffffff161415610933576040517f08c379a000000000000000000000000000000000000000000000000000000000815260040161092a90612cfb565b60405180910390fd5b8060fb60006101000a81548173ffffffffffffffffffffffffffffffffffffffff021916908373ffffffffffffffffffffffffffffffffffffffff16021790555050565b60ff5481565b60fb60009054906101000a900473ffffffffffffffffffffffffffffffffffffffff1681565b7f000000000000000000000000000000000000000000000000000000000000000073ffffffffffffffffffffffffffffffffffffffff163073ffffffffffffffffffffffffffffffffffffffff161415610a32576040517f08c379a0000000000000000000000000000000000000000000000000000000008152600401610a2990612c1b565b60405180910390fd5b7f000000000000000000000000000000000000000000000000000000000000000073ffffffffffffffffffffffffffffffffffffffff16610a71611809565b73ffffffffffffffffffffffffffffffffffffffff1614610ac7576040517f08c379a0000000000000000000000000000000000000000000000000000000008152600401610abe90612c3b565b60405180910390fd5b610ad081611860565b610b2981600067ffffffffffffffff811115610aef57610aee61333a565b5b6040519080825280601f01601f191660200182016040528015610b215781602001600182028036833780820191505090505b50600061186b565b50565b7f000000000000000000000000000000000000000000000000000000000000000073ffffffffffffffffffffffffffffffffffffffff163073ffffffffffffffffffffffffffffffffffffffff161415610bbb576040517f08c379a0000000000000000000000000000000000000000000000000000000008152600401610bb290612c1b565b60405180910390fd5b7f000000000000000000000000000000000000000000000000000000000000000073ffffffffffffffffffffffffffffffffffffffff16610bfa611809565b73ffffffffffffffffffffffffffffffffffffffff1614610c50576040517f08c379a0000000000000000000000000000000000000000000000000000000008152600401610c4790612c3b565b60405180910390fd5b610c5982611860565b610c658282600161186b565b5050565b610c7161178b565b8060fb60146101000a81548160ff02191690831515021790555050565b60007f000000000000000000000000000000000000000000000000000000000000000073ffffffffffffffffffffffffffffffffffffffff163073ffffffffffffffffffffffffffffffffffffffff1614610d1e576040517f08c379a0000000000000000000000000000000000000000000000000000000008152600401610d1590612c5b565b60405180910390fd5b7f360894a13ba1a3210667c828492db98dca3e2076cc3735a920a3ca505d382bbc60001b905090565b610d4f61178b565b60008111610d92576040517f08c379a0000000000000000000000000000000000000000000000000000000008152600401610d8990612bbb565b60405180910390fd5b610d9c60fe6119e8565b8111610ddd576040517f08c379a0000000000000000000000000000000000000000000000000000000008152600401610dd490612bdb565b60405180910390fd5b8060fc8190555050565b61010060009054906101000a900473ffffffffffffffffffffffffffffffffffffffff1681565b6000804790508091505090565b610e2361178b565b610e2d60006119f6565b565b60fc5481565b6060600060fb60009054906101000a900473ffffffffffffffffffffffffffffffffffffffff1673ffffffffffffffffffffffffffffffffffffffff166370a08231846040518263ffffffff1660e01b8152600401610e949190612a6c565b60206040518083038186803b158015610eac57600080fd5b505afa158015610ec0573d6000803e3d6000fd5b505050506040513d601f19601f82011682018060405250810190610ee4919061237f565b905060008167ffffffffffffffff811115610f0257610f0161333a565b5b604051908082528060200260200182016040528015610f3b57816020015b610f28612036565b815260200190600190039081610f205790505b509050600080600090505b8381101561111a5760fb60009054906101000a900473ffffffffffffffffffffffffffffffffffffffff1673ffffffffffffffffffffffffffffffffffffffff16632f745c5987836040518363ffffffff1660e01b8152600401610fab929190612aa2565b60206040518083038186803b158015610fc357600080fd5b505afa158015610fd7573d6000803e3d6000fd5b505050506040513d601f19601f82011682018060405250810190610ffb919061237f565b9150604051806060016040528083815260200160fb60009054906101000a900473ffffffffffffffffffffffffffffffffffffffff1673ffffffffffffffffffffffffffffffffffffffff1663c87b56dd856040518263ffffffff1660e01b81526004016110699190612ebb565b60006040518083038186803b15801561108157600080fd5b505afa158015611095573d6000803e3d6000fd5b505050506040513d6000823e3d601f19601f820116820180604052508101906110be91906122dc565b815260200160fd600085815260200190815260200160002060009054906101000a900460ff1615158152508382815181106110fc576110fb61330b565b5b6020026020010181905250808061111290613233565b915050610f46565b50819350505050919050565b6000606560009054906101000a900473ffffffffffffffffffffffffffffffffffffffff16905090565b61115861178b565b6000811161119b576040517f08c379a000000000000000000000000000000000000000000000000000000000815260040161119290612e9b565b60405180910390fd5b8060ff8190555050565b600260015414156111eb576040517f08c379a00000000000000000000000000000000000000000000000000000000081526004016111e290612e7b565b60405180910390fd5b600260018190555060fb60149054906101000a900460ff16611242576040517f08c379a000000000000000000000000000000000000000000000000000000000815260040161123990612dfb565b60405180910390fd5b60008161ffff1611611289576040517f08c379a000000000000000000000000000000000000000000000000000000000815260040161128090612b7b565b60405180910390fd5b600061129560fe6119e8565b60fc546112a291906130c5565b90508161ffff168110156112b582611abc565b600183116112f8576040518060400160405280600481526020017f204e46540000000000000000000000000000000000000000000000000000000081525061132f565b6040518060400160405280600581526020017f204e4654730000000000000000000000000000000000000000000000000000008152505b604051602001611340929190612a32565b60405160208183030381529060405290611390576040517f08c379a00000000000000000000000000000000000000000000000000000000081526004016113879190612b59565b60405180910390fd5b50600061139b611c1d565b90506113ac8361ffff168234611c25565b60005b8361ffff1681101561153b5760fc546113c860fe6119e8565b1115611409576040517f08c379a000000000000000000000000000000000000000000000000000000000815260040161140090612d7b565b60405180910390fd5b600060fb60009054906101000a900473ffffffffffffffffffffffffffffffffffffffff1673ffffffffffffffffffffffffffffffffffffffff166354ba0f27846040518263ffffffff1660e01b81526004016114669190612a6c565b602060405180830381600087803b15801561148057600080fd5b505af1158015611494573d6000803e3d6000fd5b505050506040513d601f19601f820116820180604052508101906114b8919061237f565b9050600160fd600083815260200190815260200160002060006101000a81548160ff0219169083151502179055506114f060fe611d2c565b7ff403523e17bf2d1fe8af1a00ba36bc463a7d846dbadf11d117400f7694ba3e6c8360405161151f9190612a6c565b60405180910390a150808061153390613233565b9150506113af565b5050506001808190555050565b600061155460fe6119e8565b60fc5461156191906130c5565b905090565b61156e61178b565b600073ffffffffffffffffffffffffffffffffffffffff168173ffffffffffffffffffffffffffffffffffffffff1614156115de576040517f08c379a00000000000000000000000000000000000000000000000000000000081526004016115d590612b9b565b60405180910390fd5b8061010060006101000a81548173ffffffffffffffffffffffffffffffffffffffff021916908373ffffffffffffffffffffffffffffffffffffffff16021790555050565b600060fb60149054906101000a900460ff16905090565b61164261178b565b600073ffffffffffffffffffffffffffffffffffffffff168173ffffffffffffffffffffffffffffffffffffffff1614156116b2576040517f08c379a00000000000000000000000000000000000000000000000000000000081526004016116a990612bfb565b60405180910390fd5b6116bb816119f6565b50565b6000808273ffffffffffffffffffffffffffffffffffffffff163b119050919050565b600060019054906101000a900460ff16611730576040517f08c379a000000000000000000000000000000000000000000000000000000000815260040161172790612e1b565b60405180910390fd5b611738611d42565b565b600060019054906101000a900460ff16611789576040517f08c379a000000000000000000000000000000000000000000000000000000000815260040161178090612e1b565b60405180910390fd5b565b611793611c1d565b73ffffffffffffffffffffffffffffffffffffffff166117b1611126565b73ffffffffffffffffffffffffffffffffffffffff1614611807576040517f08c379a00000000000000000000000000000000000000000000000000000000081526004016117fe90612d5b565b60405180910390fd5b565b60006118377f360894a13ba1a3210667c828492db98dca3e2076cc3735a920a3ca505d382bbc60001b611da3565b60000160009054906101000a900473ffffffffffffffffffffffffffffffffffffffff16905090565b61186861178b565b50565b6118977f4910fdfa16fed3260ed0e7147f7cc6da11a60208b5b9406d12a635614ffd914360001b611dad565b60000160009054906101000a900460ff16156118bb576118b683611db7565b6119e3565b8273ffffffffffffffffffffffffffffffffffffffff166352d1902d6040518163ffffffff1660e01b815260040160206040518083038186803b15801561190157600080fd5b505afa92505050801561193257506040513d601f19601f8201168201806040525081019061192f91906122af565b60015b611971576040517f08c379a000000000000000000000000000000000000000000000000000000000815260040161196890612d1b565b60405180910390fd5b7f360894a13ba1a3210667c828492db98dca3e2076cc3735a920a3ca505d382bbc60001b81146119d6576040517f08c379a00000000000000000000000000000000000000000000000000000000081526004016119cd90612c9b565b60405180910390fd5b506119e2838383611e70565b5b505050565b600081600001549050919050565b6000606560009054906101000a900473ffffffffffffffffffffffffffffffffffffffff16905081606560006101000a81548173ffffffffffffffffffffffffffffffffffffffff021916908373ffffffffffffffffffffffffffffffffffffffff1602179055508173ffffffffffffffffffffffffffffffffffffffff168173ffffffffffffffffffffffffffffffffffffffff167f8be0079c531659141344cd1fd0a4f28419497f9722a3daafe3b4186f6b6457e060405160405180910390a35050565b60606000821415611b04576040518060400160405280600181526020017f30000000000000000000000000000000000000000000000000000000000000008152509050611c18565b600082905060005b60008214611b36578080611b1f90613233565b915050600a82611b2f919061303a565b9150611b0c565b60008167ffffffffffffffff811115611b5257611b5161333a565b5b6040519080825280601f01601f191660200182016040528015611b845781602001600182028036833780820191505090505b5090505b60008514611c1157600182611b9d91906130c5565b9150600a85611bac919061327c565b6030611bb89190612fe4565b60f81b818381518110611bce57611bcd61330b565b5b60200101907effffffffffffffffffffffffffffffffffffffffffffffffffffffffffffff1916908160001a905350600a85611c0a919061303a565b9450611b88565b8093505050505b919050565b600033905090565b60008311611c68576040517f08c379a0000000000000000000000000000000000000000000000000000000008152600401611c5f90612ddb565b60405180910390fd5b600073ffffffffffffffffffffffffffffffffffffffff168273ffffffffffffffffffffffffffffffffffffffff161415611cd8576040517f08c379a0000000000000000000000000000000000000000000000000000000008152600401611ccf90612e5b565b60405180910390fd5b808360ff54611ce7919061306b565b14611d27576040517f08c379a0000000000000000000000000000000000000000000000000000000008152600401611d1e90612cdb565b60405180910390fd5b505050565b6001816000016000828254019250508190555050565b600060019054906101000a900460ff16611d91576040517f08c379a0000000000000000000000000000000000000000000000000000000008152600401611d8890612e1b565b60405180910390fd5b611da1611d9c611c1d565b6119f6565b565b6000819050919050565b6000819050919050565b611dc0816116be565b611dff576040517f08c379a0000000000000000000000000000000000000000000000000000000008152600401611df690612d3b565b60405180910390fd5b80611e2c7f360894a13ba1a3210667c828492db98dca3e2076cc3735a920a3ca505d382bbc60001b611da3565b60000160006101000a81548173ffffffffffffffffffffffffffffffffffffffff021916908373ffffffffffffffffffffffffffffffffffffffff16021790555050565b611e7983611e9c565b600082511180611e865750805b15611e9757611e958383611eeb565b505b505050565b611ea581611db7565b8073ffffffffffffffffffffffffffffffffffffffff167fbc7cd75a20ee27fd9adebab32041f755214dbc6bffa90cc0225b39da2e5c2d3b60405160405180910390a250565b6060611ef6836116be565b611f35576040517f08c379a0000000000000000000000000000000000000000000000000000000008152600401611f2c90612dbb565b60405180910390fd5b6000808473ffffffffffffffffffffffffffffffffffffffff1684604051611f5d9190612a1b565b600060405180830381855af49150503d8060008114611f98576040519150601f19603f3d011682016040523d82523d6000602084013e611f9d565b606091505b5091509150611fc58282604051806060016040528060278152602001613af560279139611fcf565b9250505092915050565b60608315611fdf5782905061202f565b600083511115611ff25782518084602001fd5b816040517f08c379a00000000000000000000000000000000000000000000000000000000081526004016120269190612b59565b60405180910390fd5b9392505050565b604051806060016040528060008152602001606081526020016000151581525090565b600061206c61206784612efb565b612ed6565b9050828152602081018484840111156120885761208761336e565b5b6120938482856131c0565b509392505050565b60006120ae6120a984612f2c565b612ed6565b9050828152602081018484840111156120ca576120c961336e565b5b6120d58482856131cf565b509392505050565b6000813590506120ec81613a6a565b92915050565b60008135905061210181613a81565b92915050565b60008135905061211681613a98565b92915050565b60008151905061212b81613aaf565b92915050565b600082601f83011261214657612145613369565b5b8135612156848260208601612059565b91505092915050565b600082601f83011261217457612173613369565b5b815161218484826020860161209b565b91505092915050565b60008135905061219c81613ac6565b92915050565b6000813590506121b181613add565b92915050565b6000815190506121c681613add565b92915050565b6000602082840312156121e2576121e1613378565b5b60006121f0848285016120dd565b91505092915050565b60006020828403121561220f5761220e613378565b5b600061221d848285016120f2565b91505092915050565b6000806040838503121561223d5761223c613378565b5b600061224b858286016120dd565b925050602083013567ffffffffffffffff81111561226c5761226b613373565b5b61227885828601612131565b9150509250929050565b60006020828403121561229857612297613378565b5b60006122a684828501612107565b91505092915050565b6000602082840312156122c5576122c4613378565b5b60006122d38482850161211c565b91505092915050565b6000602082840312156122f2576122f1613378565b5b600082015167ffffffffffffffff8111156123105761230f613373565b5b61231c8482850161215f565b91505092915050565b60006020828403121561233b5761233a613378565b5b60006123498482850161218d565b91505092915050565b60006020828403121561236857612367613378565b5b6000612376848285016121a2565b91505092915050565b60006020828403121561239557612394613378565b5b60006123a3848285016121b7565b91505092915050565b600080600080608085870312156123c6576123c5613378565b5b60006123d4878288016121a2565b94505060206123e5878288016121a2565b93505060406123f6878288016120dd565b9250506060612407878288016120dd565b91505092959194509250565b600061241f83836129ad565b905092915050565b6124308161310b565b82525050565b61243f816130f9565b82525050565b600061245082612f6d565b61245a8185612f9b565b93508360208202850161246c85612f5d565b8060005b858110156124a857848403895281516124898582612413565b945061249483612f8e565b925060208a01995050600181019050612470565b50829750879550505050505092915050565b6124c38161311d565b82525050565b6124d28161311d565b82525050565b6124e181613129565b82525050565b60006124f282612f78565b6124fc8185612fac565b935061250c8185602086016131cf565b80840191505092915050565b61252181613178565b82525050565b6125308161318a565b82525050565b600061254182612f83565b61254b8185612fb7565b935061255b8185602086016131cf565b6125648161337d565b840191505092915050565b600061257a82612f83565b6125848185612fc8565b93506125948185602086016131cf565b61259d8161337d565b840191505092915050565b60006125b382612f83565b6125bd8185612fd9565b93506125cd8185602086016131cf565b80840191505092915050565b60006125e6602483612fc8565b91506125f18261338e565b604082019050919050565b6000612609601a83612fc8565b9150612614826133dd565b602082019050919050565b600061262c602483612fc8565b915061263782613406565b604082019050919050565b600061264f603583612fc8565b915061265a82613455565b604082019050919050565b6000612672602683612fc8565b915061267d826134a4565b604082019050919050565b6000612695602c83612fc8565b91506126a0826134f3565b604082019050919050565b60006126b8603083612fd9565b91506126c382613542565b603082019050919050565b60006126db602c83612fc8565b91506126e682613591565b604082019050919050565b60006126fe603883612fc8565b9150612709826135e0565b604082019050919050565b6000612721602083612fc8565b915061272c8261362f565b602082019050919050565b6000612744602983612fc8565b915061274f82613658565b604082019050919050565b6000612767602e83612fc8565b9150612772826136a7565b604082019050919050565b600061278a601d83612fc8565b9150612795826136f6565b602082019050919050565b60006127ad602083612fc8565b91506127b88261371f565b602082019050919050565b60006127d0602e83612fc8565b91506127db82613748565b604082019050919050565b60006127f3602d83612fc8565b91506127fe82613797565b604082019050919050565b6000612816602083612fc8565b9150612821826137e6565b602082019050919050565b6000612839602f83612fc8565b91506128448261380f565b604082019050919050565b600061285c601a83612fc8565b91506128678261385e565b602082019050919050565b600061287f602683612fc8565b915061288a82613887565b604082019050919050565b60006128a2602b83612fc8565b91506128ad826138d6565b604082019050919050565b60006128c5601983612fc8565b91506128d082613925565b602082019050919050565b60006128e8602b83612fc8565b91506128f38261394e565b604082019050919050565b600061290b601a83612fc8565b91506129168261399d565b602082019050919050565b600061292e601f83612fc8565b9150612939826139c6565b602082019050919050565b6000612951601f83612fc8565b915061295c826139ef565b602082019050919050565b6000612974600583612fd9565b915061297f82613a18565b600582019050919050565b6000612997601c83612fc8565b91506129a282613a41565b602082019050919050565b60006060830160008301516129c560008601826129fd565b50602083015184820360208601526129dd8282612536565b91505060408301516129f260408601826124ba565b508091505092915050565b612a0681613161565b82525050565b612a1581613161565b82525050565b6000612a2782846124e7565b915081905092915050565b6000612a3d826126ab565b9150612a4982856125a8565b9150612a5582846125a8565b9150612a6082612967565b91508190509392505050565b6000602082019050612a816000830184612436565b92915050565b6000602082019050612a9c6000830184612427565b92915050565b6000604082019050612ab76000830185612436565b612ac46020830184612a0c565b9392505050565b60006020820190508181036000830152612ae58184612445565b905092915050565b6000602082019050612b0260008301846124c9565b92915050565b6000602082019050612b1d60008301846124d8565b92915050565b6000602082019050612b386000830184612518565b92915050565b6000602082019050612b536000830184612527565b92915050565b60006020820190508181036000830152612b73818461256f565b905092915050565b60006020820190508181036000830152612b94816125d9565b9050919050565b60006020820190508181036000830152612bb4816125fc565b9050919050565b60006020820190508181036000830152612bd48161261f565b9050919050565b60006020820190508181036000830152612bf481612642565b9050919050565b60006020820190508181036000830152612c1481612665565b9050919050565b60006020820190508181036000830152612c3481612688565b9050919050565b60006020820190508181036000830152612c54816126ce565b9050919050565b60006020820190508181036000830152612c74816126f1565b9050919050565b60006020820190508181036000830152612c9481612714565b9050919050565b60006020820190508181036000830152612cb481612737565b9050919050565b60006020820190508181036000830152612cd48161275a565b9050919050565b60006020820190508181036000830152612cf48161277d565b9050919050565b60006020820190508181036000830152612d14816127a0565b9050919050565b60006020820190508181036000830152612d34816127c3565b9050919050565b60006020820190508181036000830152612d54816127e6565b9050919050565b60006020820190508181036000830152612d7481612809565b9050919050565b60006020820190508181036000830152612d948161282c565b9050919050565b60006020820190508181036000830152612db48161284f565b9050919050565b60006020820190508181036000830152612dd481612872565b9050919050565b60006020820190508181036000830152612df481612895565b9050919050565b60006020820190508181036000830152612e14816128b8565b9050919050565b60006020820190508181036000830152612e34816128db565b9050919050565b60006020820190508181036000830152612e54816128fe565b9050919050565b60006020820190508181036000830152612e7481612921565b9050919050565b60006020820190508181036000830152612e9481612944565b9050919050565b60006020820190508181036000830152612eb48161298a565b9050919050565b6000602082019050612ed06000830184612a0c565b92915050565b6000612ee0612ef1565b9050612eec8282613202565b919050565b6000604051905090565b600067ffffffffffffffff821115612f1657612f1561333a565b5b612f1f8261337d565b9050602081019050919050565b600067ffffffffffffffff821115612f4757612f4661333a565b5b612f508261337d565b9050602081019050919050565b6000819050602082019050919050565b600081519050919050565b600081519050919050565b600081519050919050565b6000602082019050919050565b600082825260208201905092915050565b600081905092915050565b600082825260208201905092915050565b600082825260208201905092915050565b600081905092915050565b6000612fef82613161565b9150612ffa83613161565b9250827fffffffffffffffffffffffffffffffffffffffffffffffffffffffffffffffff0382111561302f5761302e6132ad565b5b828201905092915050565b600061304582613161565b915061305083613161565b9250826130605761305f6132dc565b5b828204905092915050565b600061307682613161565b915061308183613161565b9250817fffffffffffffffffffffffffffffffffffffffffffffffffffffffffffffffff04831182151516156130ba576130b96132ad565b5b828202905092915050565b60006130d082613161565b91506130db83613161565b9250828210156130ee576130ed6132ad565b5b828203905092915050565b600061310482613141565b9050919050565b600061311682613141565b9050919050565b60008115159050919050565b6000819050919050565b600061ffff82169050919050565b600073ffffffffffffffffffffffffffffffffffffffff82169050919050565b6000819050919050565b600060ff82169050919050565b60006131838261319c565b9050919050565b60006131958261316b565b9050919050565b60006131a7826131ae565b9050919050565b60006131b982613141565b9050919050565b82818337600083830152505050565b60005b838110156131ed5780820151818401526020810190506131d2565b838111156131fc576000848401525b50505050565b61320b8261337d565b810181811067ffffffffffffffff8211171561322a5761322961333a565b5b80604052505050565b600061323e82613161565b91507fffffffffffffffffffffffffffffffffffffffffffffffffffffffffffffffff821415613271576132706132ad565b5b600182019050919050565b600061328782613161565b915061329283613161565b9250826132a2576132a16132dc565b5b828206905092915050565b7f4e487b7100000000000000000000000000000000000000000000000000000000600052601160045260246000fd5b7f4e487b7100000000000000000000000000000000000000000000000000000000600052601260045260246000fd5b7f4e487b7100000000000000000000000000000000000000000000000000000000600052603260045260246000fd5b7f4e487b7100000000000000000000000000000000000000000000000000000000600052604160045260246000fd5b600080fd5b600080fd5b600080fd5b600080fd5b6000601f19601f8301169050919050565b7f6d617853616c65416d6f756e74206d757374206265206772656174657220746860008201527f616e203000000000000000000000000000000000000000000000000000000000602082015250565b7f57616c6c657420697320746865207a65726f2061646472657373000000000000600082015250565b7f4d617853616c65416d6f756e74206d757374206265206772656174657220746860008201527f616e203000000000000000000000000000000000000000000000000000000000602082015250565b7f4d617853616c65416d6f756e74206d757374206265206772656174657220746860008201527f616e205f63757272656e7453616c65416d6f756e740000000000000000000000602082015250565b7f4f776e61626c653a206e6577206f776e657220697320746865207a65726f206160008201527f6464726573730000000000000000000000000000000000000000000000000000602082015250565b7f46756e6374696f6e206d7573742062652063616c6c6564207468726f7567682060008201527f64656c656761746563616c6c0000000000000000000000000000000000000000602082015250565b7f457863656564656420746865206e756d626572206f66204e46547320666f722060008201527f746869732073616c6520726f756e642e00000000000000000000000000000000602082015250565b7f46756e6374696f6e206d7573742062652063616c6c6564207468726f7567682060008201527f6163746976652070726f78790000000000000000000000000000000000000000602082015250565b7f555550535570677261646561626c653a206d757374206e6f742062652063616c60008201527f6c6564207468726f7567682064656c656761746563616c6c0000000000000000602082015250565b7f6d6f6f6e42656173744e465420697320746865207a65726f2061646472657373600082015250565b7f45524331393637557067726164653a20756e737570706f727465642070726f7860008201527f6961626c65555549440000000000000000000000000000000000000000000000602082015250565b7f496e697469616c697a61626c653a20636f6e747261637420697320616c72656160008201527f647920696e697469616c697a6564000000000000000000000000000000000000602082015250565b7f5468652076616c756520796f752073656e7420697320696e76616c6964000000600082015250565b7f4d6f6f6e42656173744e465420697320746865207a65726f2061646472657373600082015250565b7f45524331393637557067726164653a206e657720696d706c656d656e7461746960008201527f6f6e206973206e6f742055555053000000000000000000000000000000000000602082015250565b7f455243313936373a206e657720696d706c656d656e746174696f6e206973206e60008201527f6f74206120636f6e747261637400000000000000000000000000000000000000602082015250565b7f4f776e61626c653a2063616c6c6572206973206e6f7420746865206f776e6572600082015250565b7f457863656564656420746865206e756d626572206f66204e46547320666f722060008201527f746869732073616c6520726f756e640000000000000000000000000000000000602082015250565b7f436f6e74726163742062616c616e6365206973203020474c4d52000000000000600082015250565b7f416464726573733a2064656c65676174652063616c6c20746f206e6f6e2d636f60008201527f6e74726163740000000000000000000000000000000000000000000000000000602082015250565b7f596f75206e656564206174206c65617374206f6e65206d696e7420706173732060008201527f746f206d696e74204e4654000000000000000000000000000000000000000000602082015250565b7f57686974656c69737420726f756e64206e6f7420726561647900000000000000600082015250565b7f496e697469616c697a61626c653a20636f6e7472616374206973206e6f74206960008201527f6e697469616c697a696e67000000000000000000000000000000000000000000602082015250565b7f77616c6c657420697320746865207a65726f2061646472657373000000000000600082015250565b7f42656e656669636961727920697320746865207a65726f206164647265737300600082015250565b7f5265656e7472616e637947756172643a207265656e7472616e742063616c6c00600082015250565b7f206c656674000000000000000000000000000000000000000000000000000000600082015250565b7f5072696365206d7573742062652067726561746572207468616e203000000000600082015250565b613a73816130f9565b8114613a7e57600080fd5b50565b613a8a8161310b565b8114613a9557600080fd5b50565b613aa18161311d565b8114613aac57600080fd5b50565b613ab881613129565b8114613ac357600080fd5b50565b613acf81613133565b8114613ada57600080fd5b50565b613ae681613161565b8114613af157600080fd5b5056fe416464726573733a206c6f772d6c6576656c2064656c65676174652063616c6c206661696c6564a2646970667358221220a9aaf7bddd102ad701c88970ee73218db271837937fa07b78d7b25907026a8f864736f6c63430008070033",
  "linkReferences": {},
  "deployedLinkReferences": {}
}