{
  "_format": "hh-sol-artifact-1",
  "contractName": "MoonBeastNFT",
  "sourceName": "contracts/MoonBeastNFT.sol",
  "abi": [
    {
      "inputs": [],
      "stateMutability": "nonpayable",
      "type": "constructor"
    },
    {
      "anonymous": false,
      "inputs": [
        {
          "indexed": true,
          "internalType": "address",
          "name": "owner",
          "type": "address"
        },
        {
          "indexed": true,
          "internalType": "address",
          "name": "approved",
          "type": "address"
        },
        {
          "indexed": true,
          "internalType": "uint256",
          "name": "tokenId",
          "type": "uint256"
        }
      ],
      "name": "Approval",
      "type": "event"
    },
    {
      "anonymous": false,
      "inputs": [
        {
          "indexed": true,
          "internalType": "address",
          "name": "owner",
          "type": "address"
        },
        {
          "indexed": true,
          "internalType": "address",
          "name": "operator",
          "type": "address"
        },
        {
          "indexed": false,
          "internalType": "bool",
          "name": "approved",
          "type": "bool"
        }
      ],
      "name": "ApprovalForAll",
      "type": "event"
    },
    {
      "anonymous": false,
      "inputs": [
        {
          "indexed": true,
          "internalType": "address",
          "name": "previousOwner",
          "type": "address"
        },
        {
          "indexed": true,
          "internalType": "address",
          "name": "newOwner",
          "type": "address"
        }
      ],
      "name": "OwnershipTransferred",
      "type": "event"
    },
    {
      "anonymous": false,
      "inputs": [
        {
          "indexed": true,
          "internalType": "address",
          "name": "from",
          "type": "address"
        },
        {
          "indexed": true,
          "internalType": "address",
          "name": "to",
          "type": "address"
        },
        {
          "indexed": true,
          "internalType": "uint256",
          "name": "tokenId",
          "type": "uint256"
        }
      ],
      "name": "Transfer",
      "type": "event"
    },
    {
      "inputs": [
        {
          "internalType": "address",
          "name": "",
          "type": "address"
        }
      ],
      "name": "_approvedOperators",
      "outputs": [
        {
          "internalType": "bool",
          "name": "",
          "type": "bool"
        }
      ],
      "stateMutability": "view",
      "type": "function"
    },
    {
      "inputs": [
        {
          "internalType": "address",
          "name": "to",
          "type": "address"
        },
        {
          "internalType": "uint256",
          "name": "tokenId",
          "type": "uint256"
        }
      ],
      "name": "approve",
      "outputs": [],
      "stateMutability": "nonpayable",
      "type": "function"
    },
    {
      "inputs": [
        {
          "internalType": "address",
          "name": "owner",
          "type": "address"
        }
      ],
      "name": "balanceOf",
      "outputs": [
        {
          "internalType": "uint256",
          "name": "",
          "type": "uint256"
        }
      ],
      "stateMutability": "view",
      "type": "function"
    },
    {
      "inputs": [
        {
          "internalType": "uint256",
          "name": "tokenId",
          "type": "uint256"
        }
      ],
      "name": "burnNFT",
      "outputs": [],
      "stateMutability": "nonpayable",
      "type": "function"
    },
    {
      "inputs": [
        {
          "internalType": "uint256",
          "name": "tokenId",
          "type": "uint256"
        }
      ],
      "name": "getApproved",
      "outputs": [
        {
          "internalType": "address",
          "name": "",
          "type": "address"
        }
      ],
      "stateMutability": "view",
      "type": "function"
    },
    {
      "inputs": [
        {
          "internalType": "address",
          "name": "owner",
          "type": "address"
        },
        {
          "internalType": "address",
          "name": "operator",
          "type": "address"
        }
      ],
      "name": "isApprovedForAll",
      "outputs": [
        {
          "internalType": "bool",
          "name": "",
          "type": "bool"
        }
      ],
      "stateMutability": "view",
      "type": "function"
    },
    {
      "inputs": [],
      "name": "latestTokenId",
      "outputs": [
        {
          "internalType": "uint256",
          "name": "",
          "type": "uint256"
        }
      ],
      "stateMutability": "view",
      "type": "function"
    },
    {
      "inputs": [
        {
          "internalType": "address",
          "name": "recipient",
          "type": "address"
        }
      ],
      "name": "mintNFT",
      "outputs": [
        {
          "internalType": "uint256",
          "name": "",
          "type": "uint256"
        }
      ],
      "stateMutability": "nonpayable",
      "type": "function"
    },
    {
      "inputs": [
        {
          "internalType": "address",
          "name": "recipient",
          "type": "address"
        },
        {
          "internalType": "string",
          "name": "_tokenURI_",
          "type": "string"
        }
      ],
      "name": "mintNFT",
      "outputs": [
        {
          "internalType": "uint256",
          "name": "",
          "type": "uint256"
        }
      ],
      "stateMutability": "nonpayable",
      "type": "function"
    },
    {
      "inputs": [],
      "name": "name",
      "outputs": [
        {
          "internalType": "string",
          "name": "",
          "type": "string"
        }
      ],
      "stateMutability": "view",
      "type": "function"
    },
    {
      "inputs": [],
      "name": "owner",
      "outputs": [
        {
          "internalType": "address",
          "name": "",
          "type": "address"
        }
      ],
      "stateMutability": "view",
      "type": "function"
    },
    {
      "inputs": [
        {
          "internalType": "uint256",
          "name": "tokenId",
          "type": "uint256"
        }
      ],
      "name": "ownerOf",
      "outputs": [
        {
          "internalType": "address",
          "name": "",
          "type": "address"
        }
      ],
      "stateMutability": "view",
      "type": "function"
    },
    {
      "inputs": [],
      "name": "renounceOwnership",
      "outputs": [],
      "stateMutability": "nonpayable",
      "type": "function"
    },
    {
      "inputs": [
        {
          "internalType": "address",
          "name": "from",
          "type": "address"
        },
        {
          "internalType": "address",
          "name": "to",
          "type": "address"
        },
        {
          "internalType": "uint256",
          "name": "tokenId",
          "type": "uint256"
        }
      ],
      "name": "safeTransferFrom",
      "outputs": [],
      "stateMutability": "nonpayable",
      "type": "function"
    },
    {
      "inputs": [
        {
          "internalType": "address",
          "name": "from",
          "type": "address"
        },
        {
          "internalType": "address",
          "name": "to",
          "type": "address"
        },
        {
          "internalType": "uint256",
          "name": "tokenId",
          "type": "uint256"
        },
        {
          "internalType": "bytes",
          "name": "_data",
          "type": "bytes"
        }
      ],
      "name": "safeTransferFrom",
      "outputs": [],
      "stateMutability": "nonpayable",
      "type": "function"
    },
    {
      "inputs": [
        {
          "internalType": "address",
          "name": "operator",
          "type": "address"
        },
        {
          "internalType": "bool",
          "name": "approved",
          "type": "bool"
        }
      ],
      "name": "setApprovalForAll",
      "outputs": [],
      "stateMutability": "nonpayable",
      "type": "function"
    },
    {
      "inputs": [
        {
          "internalType": "address",
          "name": "operator",
          "type": "address"
        },
        {
          "internalType": "bool",
          "name": "isApproved",
          "type": "bool"
        }
      ],
      "name": "setApprovedOperator",
      "outputs": [],
      "stateMutability": "nonpayable",
      "type": "function"
    },
    {
      "inputs": [
        {
          "internalType": "string",
          "name": "baseURI_",
          "type": "string"
        }
      ],
      "name": "setBaseURI",
      "outputs": [],
      "stateMutability": "nonpayable",
      "type": "function"
    },
    {
      "inputs": [
        {
          "internalType": "uint256",
          "name": "tokenId",
          "type": "uint256"
        },
        {
          "internalType": "string",
          "name": "_tokenURI",
          "type": "string"
        }
      ],
      "name": "setTokenURI",
      "outputs": [
        {
          "internalType": "uint256",
          "name": "",
          "type": "uint256"
        }
      ],
      "stateMutability": "nonpayable",
      "type": "function"
    },
    {
      "inputs": [
        {
          "internalType": "uint256",
          "name": "startId",
          "type": "uint256"
        },
        {
          "internalType": "uint256",
          "name": "endId",
          "type": "uint256"
        },
        {
          "internalType": "string",
          "name": "baseURI",
          "type": "string"
        }
      ],
      "name": "setTokenURIByIdRange",
      "outputs": [],
      "stateMutability": "nonpayable",
      "type": "function"
    },
    {
      "inputs": [
        {
          "internalType": "uint256[]",
          "name": "tokenIds",
          "type": "uint256[]"
        },
        {
          "internalType": "string",
          "name": "baseURI",
          "type": "string"
        }
      ],
      "name": "setTokenURIs",
      "outputs": [],
      "stateMutability": "nonpayable",
      "type": "function"
    },
    {
      "inputs": [
        {
          "internalType": "bytes4",
          "name": "interfaceId",
          "type": "bytes4"
        }
      ],
      "name": "supportsInterface",
      "outputs": [
        {
          "internalType": "bool",
          "name": "",
          "type": "bool"
        }
      ],
      "stateMutability": "view",
      "type": "function"
    },
    {
      "inputs": [],
      "name": "symbol",
      "outputs": [
        {
          "internalType": "string",
          "name": "",
          "type": "string"
        }
      ],
      "stateMutability": "view",
      "type": "function"
    },
    {
      "inputs": [
        {
          "internalType": "uint256",
          "name": "index",
          "type": "uint256"
        }
      ],
      "name": "tokenByIndex",
      "outputs": [
        {
          "internalType": "uint256",
          "name": "",
          "type": "uint256"
        }
      ],
      "stateMutability": "view",
      "type": "function"
    },
    {
      "inputs": [
        {
          "internalType": "address",
          "name": "owner",
          "type": "address"
        },
        {
          "internalType": "uint256",
          "name": "index",
          "type": "uint256"
        }
      ],
      "name": "tokenOfOwnerByIndex",
      "outputs": [
        {
          "internalType": "uint256",
          "name": "",
          "type": "uint256"
        }
      ],
      "stateMutability": "view",
      "type": "function"
    },
    {
      "inputs": [
        {
          "internalType": "uint256",
          "name": "tokenId",
          "type": "uint256"
        }
      ],
      "name": "tokenURI",
      "outputs": [
        {
          "internalType": "string",
          "name": "",
          "type": "string"
        }
      ],
      "stateMutability": "view",
      "type": "function"
    },
    {
      "inputs": [],
      "name": "totalSupply",
      "outputs": [
        {
          "internalType": "uint256",
          "name": "",
          "type": "uint256"
        }
      ],
      "stateMutability": "view",
      "type": "function"
    },
    {
      "inputs": [
        {
          "internalType": "address",
          "name": "from",
          "type": "address"
        },
        {
          "internalType": "address",
          "name": "to",
          "type": "address"
        },
        {
          "internalType": "uint256",
          "name": "tokenId",
          "type": "uint256"
        }
      ],
      "name": "transferFrom",
      "outputs": [],
      "stateMutability": "nonpayable",
      "type": "function"
    },
    {
      "inputs": [
        {
          "internalType": "address",
          "name": "newOwner",
          "type": "address"
        }
      ],
      "name": "transferOwnership",
      "outputs": [],
      "stateMutability": "nonpayable",
      "type": "function"
    },
    {
      "inputs": [
        {
          "internalType": "uint256",
          "name": "tokenId",
          "type": "uint256"
        },
        {
          "internalType": "string",
          "name": "_tokenURI",
          "type": "string"
        },
        {
          "internalType": "address",
          "name": "receiver",
          "type": "address"
        }
      ],
      "name": "withdrawNFT",
      "outputs": [
        {
          "internalType": "uint256",
          "name": "",
          "type": "uint256"
        }
      ],
      "stateMutability": "nonpayable",
      "type": "function"
    }
  ],
  "bytecode": "0x60806040523480156200001157600080fd5b506040518060400160405280601181526020017f4d4f4f4e464954204d4f4f4e42454153540000000000000000000000000000008152506040518060400160405280600481526020017f4d46424500000000000000000000000000000000000000000000000000000000815250816000908051906020019062000096929190620001a6565b508060019080519060200190620000af929190620001a6565b505050620000d2620000c6620000d860201b60201c565b620000e060201b60201c565b620002bb565b600033905090565b6000600a60009054906101000a900473ffffffffffffffffffffffffffffffffffffffff16905081600a60006101000a81548173ffffffffffffffffffffffffffffffffffffffff021916908373ffffffffffffffffffffffffffffffffffffffff1602179055508173ffffffffffffffffffffffffffffffffffffffff168173ffffffffffffffffffffffffffffffffffffffff167f8be0079c531659141344cd1fd0a4f28419497f9722a3daafe3b4186f6b6457e060405160405180910390a35050565b828054620001b49062000256565b90600052602060002090601f016020900481019282620001d8576000855562000224565b82601f10620001f357805160ff191683800117855562000224565b8280016001018555821562000224579182015b828111156200022357825182559160200191906001019062000206565b5b50905062000233919062000237565b5090565b5b808211156200025257600081600090555060010162000238565b5090565b600060028204905060018216806200026f57607f821691505b602082108114156200028657620002856200028c565b5b50919050565b7f4e487b7100000000000000000000000000000000000000000000000000000000600052602260045260246000fd5b61474780620002cb6000396000f3fe608060405234801561001057600080fd5b50600436106101da5760003560e01c806355f804b31161010457806395d89b41116100a2578063ce18da1711610071578063ce18da1714610577578063e985e9c5146105a7578063eacabe14146105d7578063f2fde38b14610607576101da565b806395d89b41146104f1578063a22cb4651461050f578063b88d4fde1461052b578063c87b56dd14610547576101da565b806370a08231116100de57806370a082311461047b578063715018a6146104ab5780638c0e8349146104b55780638da5cb5b146104d3576101da565b806355f804b3146103ff5780636352211e1461041b5780636e61036f1461044b576101da565b80632890e0d71161017c57806342842e0e1161014b57806342842e0e146103675780634f6ccce714610383578063523f895c146103b357806354ba0f27146103cf576101da565b80632890e0d7146102e35780632f745c59146102ff5780633c5a61531461032f57806340c4f66f1461034b576101da565b8063095ea7b3116101b8578063095ea7b31461025d578063162094c41461027957806318160ddd146102a957806323b872dd146102c7576101da565b806301ffc9a7146101df57806306fdde031461020f578063081812fc1461022d575b600080fd5b6101f960048036038101906101f49190613128565b610623565b6040516102069190613803565b60405180910390f35b61021761069d565b604051610224919061381e565b60405180910390f35b610247600480360381019061024291906131cb565b61072f565b604051610254919061379c565b60405180910390f35b6102776004803603810190610272919061306c565b6107b4565b005b610293600480360381019061028e91906131f8565b6108cc565b6040516102a09190613b40565b60405180910390f35b6102b161095d565b6040516102be9190613b40565b60405180910390f35b6102e160048036038101906102dc9190612efa565b61096a565b005b6102fd60048036038101906102f891906131cb565b6109ca565b005b6103196004803603810190610314919061306c565b610a26565b6040516103269190613b40565b60405180910390f35b61034960048036038101906103449190612fd0565b610acb565b005b610365600480360381019061036091906130ac565b610c12565b005b610381600480360381019061037c9190612efa565b610d66565b005b61039d600480360381019061039891906131cb565b610d86565b6040516103aa9190613b40565b60405180910390f35b6103cd60048036038101906103c891906132c3565b610df7565b005b6103e960048036038101906103e49190612e8d565b610f15565b6040516103f69190613b40565b60405180910390f35b61041960048036038101906104149190613182565b611020565b005b610435600480360381019061043091906131cb565b6110b6565b604051610442919061379c565b60405180910390f35b61046560048036038101906104609190612e8d565b611168565b6040516104729190613803565b60405180910390f35b61049560048036038101906104909190612e8d565b611188565b6040516104a29190613b40565b60405180910390f35b6104b3611240565b005b6104bd6112c8565b6040516104ca9190613b40565b60405180910390f35b6104db6112d9565b6040516104e8919061379c565b60405180910390f35b6104f9611303565b604051610506919061381e565b60405180910390f35b61052960048036038101906105249190612fd0565b611395565b005b61054560048036038101906105409190612f4d565b6113ab565b005b610561600480360381019061055c91906131cb565b61140d565b60405161056e919061381e565b60405180910390f35b610591600480360381019061058c9190613254565b611558565b60405161059e9190613b40565b60405180910390f35b6105c160048036038101906105bc9190612eba565b6115fc565b6040516105ce9190613803565b60405180910390f35b6105f160048036038101906105ec9190613010565b611690565b6040516105fe9190613b40565b60405180910390f35b610621600480360381019061061c9190612e8d565b6117a6565b005b60007f780e9d63000000000000000000000000000000000000000000000000000000007bffffffffffffffffffffffffffffffffffffffffffffffffffffffff1916827bffffffffffffffffffffffffffffffffffffffffffffffffffffffff1916148061069657506106958261189e565b5b9050919050565b6060600080546106ac90613d96565b80601f01602080910402602001604051908101604052809291908181526020018280546106d890613d96565b80156107255780601f106106fa57610100808354040283529160200191610725565b820191906000526020600020905b81548152906001019060200180831161070857829003601f168201915b5050505050905090565b600061073a82611980565b610779576040517f08c379a0000000000000000000000000000000000000000000000000000000008152600401610770906139c0565b60405180910390fd5b6004600083815260200190815260200160002060009054906101000a900473ffffffffffffffffffffffffffffffffffffffff169050919050565b60006107bf826110b6565b90508073ffffffffffffffffffffffffffffffffffffffff168373ffffffffffffffffffffffffffffffffffffffff161415610830576040517f08c379a000000000000000000000000000000000000000000000000000000000815260040161082790613a60565b60405180910390fd5b8073ffffffffffffffffffffffffffffffffffffffff1661084f6119ec565b73ffffffffffffffffffffffffffffffffffffffff16148061087e575061087d816108786119ec565b6115fc565b5b6108bd576040517f08c379a00000000000000000000000000000000000000000000000000000000081526004016108b490613940565b60405180910390fd5b6108c783836119f4565b505050565b60006108d66119ec565b73ffffffffffffffffffffffffffffffffffffffff166108f46112d9565b73ffffffffffffffffffffffffffffffffffffffff161461094a576040517f08c379a000000000000000000000000000000000000000000000000000000000815260040161094190613a00565b60405180910390fd5b6109548383611aad565b82905092915050565b6000600880549050905090565b61097b6109756119ec565b82611b21565b6109ba576040517f08c379a00000000000000000000000000000000000000000000000000000000081526004016109b190613aa0565b60405180910390fd5b6109c5838383611bff565b505050565b6109db6109d56119ec565b82611b21565b610a1a576040517f08c379a0000000000000000000000000000000000000000000000000000000008152600401610a1190613b20565b60405180910390fd5b610a2381611e66565b50565b6000610a3183611188565b8210610a72576040517f08c379a0000000000000000000000000000000000000000000000000000000008152600401610a6990613840565b60405180910390fd5b600660008473ffffffffffffffffffffffffffffffffffffffff1673ffffffffffffffffffffffffffffffffffffffff168152602001908152602001600020600083815260200190815260200160002054905092915050565b610ad36119ec565b73ffffffffffffffffffffffffffffffffffffffff16610af16112d9565b73ffffffffffffffffffffffffffffffffffffffff1614610b47576040517f08c379a0000000000000000000000000000000000000000000000000000000008152600401610b3e90613a00565b60405180910390fd5b600073ffffffffffffffffffffffffffffffffffffffff168273ffffffffffffffffffffffffffffffffffffffff161415610bb7576040517f08c379a0000000000000000000000000000000000000000000000000000000008152600401610bae90613b00565b60405180910390fd5b80600d60008473ffffffffffffffffffffffffffffffffffffffff1673ffffffffffffffffffffffffffffffffffffffff16815260200190815260200160002060006101000a81548160ff0219169083151502179055505050565b610c1a6119ec565b73ffffffffffffffffffffffffffffffffffffffff16610c386112d9565b73ffffffffffffffffffffffffffffffffffffffff1614610c8e576040517f08c379a0000000000000000000000000000000000000000000000000000000008152600401610c8590613a00565b60405180910390fd5b60008383905011610cd4576040517f08c379a0000000000000000000000000000000000000000000000000000000008152600401610ccb90613a80565b60405180910390fd5b60005b83839050811015610d6057600082610d07868685818110610cfb57610cfa613f2f565b5b90506020020135611f83565b604051602001610d1892919061376d565b6040516020818303038152906040529050610d4c858584818110610d3f57610d3e613f2f565b5b9050602002013582611aad565b508080610d5890613df9565b915050610cd7565b50505050565b610d81838383604051806020016040528060008152506113ab565b505050565b6000610d9061095d565b8210610dd1576040517f08c379a0000000000000000000000000000000000000000000000000000000008152600401610dc890613ac0565b60405180910390fd5b60088281548110610de557610de4613f2f565b5b90600052602060002001549050919050565b610dff6119ec565b73ffffffffffffffffffffffffffffffffffffffff16610e1d6112d9565b73ffffffffffffffffffffffffffffffffffffffff1614610e73576040517f08c379a0000000000000000000000000000000000000000000000000000000008152600401610e6a90613a00565b60405180910390fd5b818310610eb5576040517f08c379a0000000000000000000000000000000000000000000000000000000008152600401610eac90613ae0565b60405180910390fd5b60008390505b82811015610f0f57600082610ecf83611f83565b604051602001610ee092919061376d565b6040516020818303038152906040529050610efb8282611aad565b508080610f0790613df9565b915050610ebb565b50505050565b6000610f1f6119ec565b73ffffffffffffffffffffffffffffffffffffffff16610f3d6112d9565b73ffffffffffffffffffffffffffffffffffffffff161480610fb6575060011515600d6000610f6a6119ec565b73ffffffffffffffffffffffffffffffffffffffff1673ffffffffffffffffffffffffffffffffffffffff16815260200190815260200160002060009054906101000a900460ff161515145b610ff5576040517f08c379a0000000000000000000000000000000000000000000000000000000008152600401610fec90613a40565b60405180910390fd5b610fff600b6120e4565b600061100b600b6120fa565b90506110178382612108565b80915050919050565b6110286119ec565b73ffffffffffffffffffffffffffffffffffffffff166110466112d9565b73ffffffffffffffffffffffffffffffffffffffff161461109c576040517f08c379a000000000000000000000000000000000000000000000000000000000815260040161109390613a00565b60405180910390fd5b80600e90805190602001906110b2929190612c4b565b5050565b6000806002600084815260200190815260200160002060009054906101000a900473ffffffffffffffffffffffffffffffffffffffff169050600073ffffffffffffffffffffffffffffffffffffffff168173ffffffffffffffffffffffffffffffffffffffff16141561115f576040517f08c379a000000000000000000000000000000000000000000000000000000000815260040161115690613980565b60405180910390fd5b80915050919050565b600d6020528060005260406000206000915054906101000a900460ff1681565b60008073ffffffffffffffffffffffffffffffffffffffff168273ffffffffffffffffffffffffffffffffffffffff1614156111f9576040517f08c379a00000000000000000000000000000000000000000000000000000000081526004016111f090613960565b60405180910390fd5b600360008373ffffffffffffffffffffffffffffffffffffffff1673ffffffffffffffffffffffffffffffffffffffff168152602001908152602001600020549050919050565b6112486119ec565b73ffffffffffffffffffffffffffffffffffffffff166112666112d9565b73ffffffffffffffffffffffffffffffffffffffff16146112bc576040517f08c379a00000000000000000000000000000000000000000000000000000000081526004016112b390613a00565b60405180910390fd5b6112c660006122e2565b565b60006112d4600b6120fa565b905090565b6000600a60009054906101000a900473ffffffffffffffffffffffffffffffffffffffff16905090565b60606001805461131290613d96565b80601f016020809104026020016040519081016040528092919081815260200182805461133e90613d96565b801561138b5780601f106113605761010080835404028352916020019161138b565b820191906000526020600020905b81548152906001019060200180831161136e57829003601f168201915b5050505050905090565b6113a76113a06119ec565b83836123a8565b5050565b6113bc6113b66119ec565b83611b21565b6113fb576040517f08c379a00000000000000000000000000000000000000000000000000000000081526004016113f290613aa0565b60405180910390fd5b61140784848484612515565b50505050565b606061141882611980565b611457576040517f08c379a000000000000000000000000000000000000000000000000000000000815260040161144e90613a20565b60405180910390fd5b6000600c6000848152602001908152602001600020805461147790613d96565b80601f01602080910402602001604051908101604052809291908181526020018280546114a390613d96565b80156114f05780601f106114c5576101008083540402835291602001916114f0565b820191906000526020600020905b8154815290600101906020018083116114d357829003601f168201915b505050505090506000611501612571565b905060008151118015611515575060008251145b1561154d578061152485611f83565b60405160200161153592919061376d565b60405160208183030381529060405292505050611553565b81925050505b919050565b60006115626119ec565b73ffffffffffffffffffffffffffffffffffffffff166115806112d9565b73ffffffffffffffffffffffffffffffffffffffff16146115d6576040517f08c379a00000000000000000000000000000000000000000000000000000000081526004016115cd90613a00565b60405180910390fd5b6115e08484611aad565b6115f26115eb6119ec565b8386610d66565b8390509392505050565b6000600560008473ffffffffffffffffffffffffffffffffffffffff1673ffffffffffffffffffffffffffffffffffffffff16815260200190815260200160002060008373ffffffffffffffffffffffffffffffffffffffff1673ffffffffffffffffffffffffffffffffffffffff16815260200190815260200160002060009054906101000a900460ff16905092915050565b600061169a6119ec565b73ffffffffffffffffffffffffffffffffffffffff166116b86112d9565b73ffffffffffffffffffffffffffffffffffffffff161480611731575060011515600d60006116e56119ec565b73ffffffffffffffffffffffffffffffffffffffff1673ffffffffffffffffffffffffffffffffffffffff16815260200190815260200160002060009054906101000a900460ff161515145b611770576040517f08c379a000000000000000000000000000000000000000000000000000000000815260040161176790613a40565b60405180910390fd5b61177a600b6120e4565b6000611786600b6120fa565b90506117928482612108565b61179c8184611aad565b8091505092915050565b6117ae6119ec565b73ffffffffffffffffffffffffffffffffffffffff166117cc6112d9565b73ffffffffffffffffffffffffffffffffffffffff1614611822576040517f08c379a000000000000000000000000000000000000000000000000000000000815260040161181990613a00565b60405180910390fd5b600073ffffffffffffffffffffffffffffffffffffffff168173ffffffffffffffffffffffffffffffffffffffff161415611892576040517f08c379a000000000000000000000000000000000000000000000000000000000815260040161188990613880565b60405180910390fd5b61189b816122e2565b50565b60007f80ac58cd000000000000000000000000000000000000000000000000000000007bffffffffffffffffffffffffffffffffffffffffffffffffffffffff1916827bffffffffffffffffffffffffffffffffffffffffffffffffffffffff1916148061196957507f5b5e139f000000000000000000000000000000000000000000000000000000007bffffffffffffffffffffffffffffffffffffffffffffffffffffffff1916827bffffffffffffffffffffffffffffffffffffffffffffffffffffffff1916145b80611979575061197882612603565b5b9050919050565b60008073ffffffffffffffffffffffffffffffffffffffff166002600084815260200190815260200160002060009054906101000a900473ffffffffffffffffffffffffffffffffffffffff1673ffffffffffffffffffffffffffffffffffffffff1614159050919050565b600033905090565b816004600083815260200190815260200160002060006101000a81548173ffffffffffffffffffffffffffffffffffffffff021916908373ffffffffffffffffffffffffffffffffffffffff160217905550808273ffffffffffffffffffffffffffffffffffffffff16611a67836110b6565b73ffffffffffffffffffffffffffffffffffffffff167f8c5be1e5ebec7d5bd14f71427d1e84f3dd0314c0f7b2291e5b200ac8c7c3b92560405160405180910390a45050565b611ab682611980565b611af5576040517f08c379a0000000000000000000000000000000000000000000000000000000008152600401611aec906139e0565b60405180910390fd5b80600c60008481526020019081526020016000209080519060200190611b1c929190612c4b565b505050565b6000611b2c82611980565b611b6b576040517f08c379a0000000000000000000000000000000000000000000000000000000008152600401611b6290613920565b60405180910390fd5b6000611b76836110b6565b90508073ffffffffffffffffffffffffffffffffffffffff168473ffffffffffffffffffffffffffffffffffffffff161480611bb85750611bb781856115fc565b5b80611bf657508373ffffffffffffffffffffffffffffffffffffffff16611bde8461072f565b73ffffffffffffffffffffffffffffffffffffffff16145b91505092915050565b8273ffffffffffffffffffffffffffffffffffffffff16611c1f826110b6565b73ffffffffffffffffffffffffffffffffffffffff1614611c75576040517f08c379a0000000000000000000000000000000000000000000000000000000008152600401611c6c906138a0565b60405180910390fd5b600073ffffffffffffffffffffffffffffffffffffffff168273ffffffffffffffffffffffffffffffffffffffff161415611ce5576040517f08c379a0000000000000000000000000000000000000000000000000000000008152600401611cdc906138e0565b60405180910390fd5b611cf083838361266d565b611cfb6000826119f4565b6001600360008573ffffffffffffffffffffffffffffffffffffffff1673ffffffffffffffffffffffffffffffffffffffff1681526020019081526020016000206000828254611d4b9190613cac565b925050819055506001600360008473ffffffffffffffffffffffffffffffffffffffff1673ffffffffffffffffffffffffffffffffffffffff1681526020019081526020016000206000828254611da29190613c25565b92505081905550816002600083815260200190815260200160002060006101000a81548173ffffffffffffffffffffffffffffffffffffffff021916908373ffffffffffffffffffffffffffffffffffffffff160217905550808273ffffffffffffffffffffffffffffffffffffffff168473ffffffffffffffffffffffffffffffffffffffff167fddf252ad1be2c89b69c2b068fc378daa952ba7f163c4a11628f55a4df523b3ef60405160405180910390a4611e61838383612781565b505050565b6000611e71826110b6565b9050611e7f8160008461266d565b611e8a6000836119f4565b6001600360008373ffffffffffffffffffffffffffffffffffffffff1673ffffffffffffffffffffffffffffffffffffffff1681526020019081526020016000206000828254611eda9190613cac565b925050819055506002600083815260200190815260200160002060006101000a81549073ffffffffffffffffffffffffffffffffffffffff021916905581600073ffffffffffffffffffffffffffffffffffffffff168273ffffffffffffffffffffffffffffffffffffffff167fddf252ad1be2c89b69c2b068fc378daa952ba7f163c4a11628f55a4df523b3ef60405160405180910390a4611f7f81600084612781565b5050565b60606000821415611fcb576040518060400160405280600181526020017f300000000000000000000000000000000000000000000000000000000000000081525090506120df565b600082905060005b60008214611ffd578080611fe690613df9565b915050600a82611ff69190613c7b565b9150611fd3565b60008167ffffffffffffffff81111561201957612018613f5e565b5b6040519080825280601f01601f19166020018201604052801561204b5781602001600182028036833780820191505090505b5090505b600085146120d8576001826120649190613cac565b9150600a856120739190613e42565b603061207f9190613c25565b60f81b81838151811061209557612094613f2f565b5b60200101907effffffffffffffffffffffffffffffffffffffffffffffffffffffffffffff1916908160001a905350600a856120d19190613c7b565b945061204f565b8093505050505b919050565b6001816000016000828254019250508190555050565b600081600001549050919050565b600073ffffffffffffffffffffffffffffffffffffffff168273ffffffffffffffffffffffffffffffffffffffff161415612178576040517f08c379a000000000000000000000000000000000000000000000000000000000815260040161216f906139a0565b60405180910390fd5b61218181611980565b156121c1576040517f08c379a00000000000000000000000000000000000000000000000000000000081526004016121b8906138c0565b60405180910390fd5b6121cd6000838361266d565b6001600360008473ffffffffffffffffffffffffffffffffffffffff1673ffffffffffffffffffffffffffffffffffffffff168152602001908152602001600020600082825461221d9190613c25565b92505081905550816002600083815260200190815260200160002060006101000a81548173ffffffffffffffffffffffffffffffffffffffff021916908373ffffffffffffffffffffffffffffffffffffffff160217905550808273ffffffffffffffffffffffffffffffffffffffff16600073ffffffffffffffffffffffffffffffffffffffff167fddf252ad1be2c89b69c2b068fc378daa952ba7f163c4a11628f55a4df523b3ef60405160405180910390a46122de60008383612781565b5050565b6000600a60009054906101000a900473ffffffffffffffffffffffffffffffffffffffff16905081600a60006101000a81548173ffffffffffffffffffffffffffffffffffffffff021916908373ffffffffffffffffffffffffffffffffffffffff1602179055508173ffffffffffffffffffffffffffffffffffffffff168173ffffffffffffffffffffffffffffffffffffffff167f8be0079c531659141344cd1fd0a4f28419497f9722a3daafe3b4186f6b6457e060405160405180910390a35050565b8173ffffffffffffffffffffffffffffffffffffffff168373ffffffffffffffffffffffffffffffffffffffff161415612417576040517f08c379a000000000000000000000000000000000000000000000000000000000815260040161240e90613900565b60405180910390fd5b80600560008573ffffffffffffffffffffffffffffffffffffffff1673ffffffffffffffffffffffffffffffffffffffff16815260200190815260200160002060008473ffffffffffffffffffffffffffffffffffffffff1673ffffffffffffffffffffffffffffffffffffffff16815260200190815260200160002060006101000a81548160ff0219169083151502179055508173ffffffffffffffffffffffffffffffffffffffff168373ffffffffffffffffffffffffffffffffffffffff167f17307eab39ab6107e8899845ad3d59bd9653f200f220920489ca2b5937696c31836040516125089190613803565b60405180910390a3505050565b612520848484611bff565b61252c84848484612786565b61256b576040517f08c379a000000000000000000000000000000000000000000000000000000000815260040161256290613860565b60405180910390fd5b50505050565b6060600e805461258090613d96565b80601f01602080910402602001604051908101604052809291908181526020018280546125ac90613d96565b80156125f95780601f106125ce576101008083540402835291602001916125f9565b820191906000526020600020905b8154815290600101906020018083116125dc57829003601f168201915b5050505050905090565b60007f01ffc9a7000000000000000000000000000000000000000000000000000000007bffffffffffffffffffffffffffffffffffffffffffffffffffffffff1916827bffffffffffffffffffffffffffffffffffffffffffffffffffffffff1916149050919050565b61267883838361291d565b600073ffffffffffffffffffffffffffffffffffffffff168373ffffffffffffffffffffffffffffffffffffffff1614156126bb576126b681612922565b6126fa565b8173ffffffffffffffffffffffffffffffffffffffff168373ffffffffffffffffffffffffffffffffffffffff16146126f9576126f8838261296b565b5b5b600073ffffffffffffffffffffffffffffffffffffffff168273ffffffffffffffffffffffffffffffffffffffff16141561273d5761273881612ad8565b61277c565b8273ffffffffffffffffffffffffffffffffffffffff168273ffffffffffffffffffffffffffffffffffffffff161461277b5761277a8282612ba9565b5b5b505050565b505050565b60006127a78473ffffffffffffffffffffffffffffffffffffffff16612c28565b15612910578373ffffffffffffffffffffffffffffffffffffffff1663150b7a026127d06119ec565b8786866040518563ffffffff1660e01b81526004016127f294939291906137b7565b602060405180830381600087803b15801561280c57600080fd5b505af192505050801561283d57506040513d601f19601f8201168201806040525081019061283a9190613155565b60015b6128c0573d806000811461286d576040519150601f19603f3d011682016040523d82523d6000602084013e612872565b606091505b506000815114156128b8576040517f08c379a00000000000000000000000000000000000000000000000000000000081526004016128af90613860565b60405180910390fd5b805181602001fd5b63150b7a0260e01b7bffffffffffffffffffffffffffffffffffffffffffffffffffffffff1916817bffffffffffffffffffffffffffffffffffffffffffffffffffffffff191614915050612915565b600190505b949350505050565b505050565b6008805490506009600083815260200190815260200160002081905550600881908060018154018082558091505060019003906000526020600020016000909190919091505550565b6000600161297884611188565b6129829190613cac565b9050600060076000848152602001908152602001600020549050818114612a67576000600660008673ffffffffffffffffffffffffffffffffffffffff1673ffffffffffffffffffffffffffffffffffffffff168152602001908152602001600020600084815260200190815260200160002054905080600660008773ffffffffffffffffffffffffffffffffffffffff1673ffffffffffffffffffffffffffffffffffffffff168152602001908152602001600020600084815260200190815260200160002081905550816007600083815260200190815260200160002081905550505b6007600084815260200190815260200160002060009055600660008573ffffffffffffffffffffffffffffffffffffffff1673ffffffffffffffffffffffffffffffffffffffff16815260200190815260200160002060008381526020019081526020016000206000905550505050565b60006001600880549050612aec9190613cac565b9050600060096000848152602001908152602001600020549050600060088381548110612b1c57612b1b613f2f565b5b906000526020600020015490508060088381548110612b3e57612b3d613f2f565b5b906000526020600020018190555081600960008381526020019081526020016000208190555060096000858152602001908152602001600020600090556008805480612b8d57612b8c613f00565b5b6001900381819060005260206000200160009055905550505050565b6000612bb483611188565b905081600660008573ffffffffffffffffffffffffffffffffffffffff1673ffffffffffffffffffffffffffffffffffffffff168152602001908152602001600020600083815260200190815260200160002081905550806007600084815260200190815260200160002081905550505050565b6000808273ffffffffffffffffffffffffffffffffffffffff163b119050919050565b828054612c5790613d96565b90600052602060002090601f016020900481019282612c795760008555612cc0565b82601f10612c9257805160ff1916838001178555612cc0565b82800160010185558215612cc0579182015b82811115612cbf578251825591602001919060010190612ca4565b5b509050612ccd9190612cd1565b5090565b5b80821115612cea576000816000905550600101612cd2565b5090565b6000612d01612cfc84613b80565b613b5b565b905082815260208101848484011115612d1d57612d1c613f9c565b5b612d28848285613d54565b509392505050565b6000612d43612d3e84613bb1565b613b5b565b905082815260208101848484011115612d5f57612d5e613f9c565b5b612d6a848285613d54565b509392505050565b600081359050612d81816146b5565b92915050565b60008083601f840112612d9d57612d9c613f92565b5b8235905067ffffffffffffffff811115612dba57612db9613f8d565b5b602083019150836020820283011115612dd657612dd5613f97565b5b9250929050565b600081359050612dec816146cc565b92915050565b600081359050612e01816146e3565b92915050565b600081519050612e16816146e3565b92915050565b600082601f830112612e3157612e30613f92565b5b8135612e41848260208601612cee565b91505092915050565b600082601f830112612e5f57612e5e613f92565b5b8135612e6f848260208601612d30565b91505092915050565b600081359050612e87816146fa565b92915050565b600060208284031215612ea357612ea2613fa6565b5b6000612eb184828501612d72565b91505092915050565b60008060408385031215612ed157612ed0613fa6565b5b6000612edf85828601612d72565b9250506020612ef085828601612d72565b9150509250929050565b600080600060608486031215612f1357612f12613fa6565b5b6000612f2186828701612d72565b9350506020612f3286828701612d72565b9250506040612f4386828701612e78565b9150509250925092565b60008060008060808587031215612f6757612f66613fa6565b5b6000612f7587828801612d72565b9450506020612f8687828801612d72565b9350506040612f9787828801612e78565b925050606085013567ffffffffffffffff811115612fb857612fb7613fa1565b5b612fc487828801612e1c565b91505092959194509250565b60008060408385031215612fe757612fe6613fa6565b5b6000612ff585828601612d72565b925050602061300685828601612ddd565b9150509250929050565b6000806040838503121561302757613026613fa6565b5b600061303585828601612d72565b925050602083013567ffffffffffffffff81111561305657613055613fa1565b5b61306285828601612e4a565b9150509250929050565b6000806040838503121561308357613082613fa6565b5b600061309185828601612d72565b92505060206130a285828601612e78565b9150509250929050565b6000806000604084860312156130c5576130c4613fa6565b5b600084013567ffffffffffffffff8111156130e3576130e2613fa1565b5b6130ef86828701612d87565b9350935050602084013567ffffffffffffffff81111561311257613111613fa1565b5b61311e86828701612e4a565b9150509250925092565b60006020828403121561313e5761313d613fa6565b5b600061314c84828501612df2565b91505092915050565b60006020828403121561316b5761316a613fa6565b5b600061317984828501612e07565b91505092915050565b60006020828403121561319857613197613fa6565b5b600082013567ffffffffffffffff8111156131b6576131b5613fa1565b5b6131c284828501612e4a565b91505092915050565b6000602082840312156131e1576131e0613fa6565b5b60006131ef84828501612e78565b91505092915050565b6000806040838503121561320f5761320e613fa6565b5b600061321d85828601612e78565b925050602083013567ffffffffffffffff81111561323e5761323d613fa1565b5b61324a85828601612e4a565b9150509250929050565b60008060006060848603121561326d5761326c613fa6565b5b600061327b86828701612e78565b935050602084013567ffffffffffffffff81111561329c5761329b613fa1565b5b6132a886828701612e4a565b92505060406132b986828701612d72565b9150509250925092565b6000806000606084860312156132dc576132db613fa6565b5b60006132ea86828701612e78565b93505060206132fb86828701612e78565b925050604084013567ffffffffffffffff81111561331c5761331b613fa1565b5b61332886828701612e4a565b9150509250925092565b61333b81613ce0565b82525050565b61334a81613cf2565b82525050565b600061335b82613be2565b6133658185613bf8565b9350613375818560208601613d63565b61337e81613fab565b840191505092915050565b600061339482613bed565b61339e8185613c09565b93506133ae818560208601613d63565b6133b781613fab565b840191505092915050565b60006133cd82613bed565b6133d78185613c1a565b93506133e7818560208601613d63565b80840191505092915050565b6000613400602b83613c09565b915061340b82613fbc565b604082019050919050565b6000613423603283613c09565b915061342e8261400b565b604082019050919050565b6000613446602683613c09565b91506134518261405a565b604082019050919050565b6000613469602583613c09565b9150613474826140a9565b604082019050919050565b600061348c601c83613c09565b9150613497826140f8565b602082019050919050565b60006134af602483613c09565b91506134ba82614121565b604082019050919050565b60006134d2601983613c09565b91506134dd82614170565b602082019050919050565b60006134f5602c83613c09565b915061350082614199565b604082019050919050565b6000613518603883613c09565b9150613523826141e8565b604082019050919050565b600061353b602a83613c09565b915061354682614237565b604082019050919050565b600061355e602983613c09565b915061356982614286565b604082019050919050565b6000613581602083613c09565b915061358c826142d5565b602082019050919050565b60006135a4602c83613c09565b91506135af826142fe565b604082019050919050565b60006135c7600583613c1a565b91506135d28261434d565b600582019050919050565b60006135ea602c83613c09565b91506135f582614376565b604082019050919050565b600061360d602083613c09565b9150613618826143c5565b602082019050919050565b6000613630602f83613c09565b915061363b826143ee565b604082019050919050565b6000613653602f83613c09565b915061365e8261443d565b604082019050919050565b6000613676602183613c09565b91506136818261448c565b604082019050919050565b6000613699602183613c09565b91506136a4826144db565b604082019050919050565b60006136bc603183613c09565b91506136c78261452a565b604082019050919050565b60006136df602c83613c09565b91506136ea82614579565b604082019050919050565b6000613702602a83613c09565b915061370d826145c8565b604082019050919050565b6000613725602783613c09565b915061373082614617565b604082019050919050565b6000613748603083613c09565b915061375382614666565b604082019050919050565b61376781613d4a565b82525050565b600061377982856133c2565b915061378582846133c2565b9150613790826135ba565b91508190509392505050565b60006020820190506137b16000830184613332565b92915050565b60006080820190506137cc6000830187613332565b6137d96020830186613332565b6137e6604083018561375e565b81810360608301526137f88184613350565b905095945050505050565b60006020820190506138186000830184613341565b92915050565b600060208201905081810360008301526138388184613389565b905092915050565b60006020820190508181036000830152613859816133f3565b9050919050565b6000602082019050818103600083015261387981613416565b9050919050565b6000602082019050818103600083015261389981613439565b9050919050565b600060208201905081810360008301526138b98161345c565b9050919050565b600060208201905081810360008301526138d98161347f565b9050919050565b600060208201905081810360008301526138f9816134a2565b9050919050565b60006020820190508181036000830152613919816134c5565b9050919050565b60006020820190508181036000830152613939816134e8565b9050919050565b600060208201905081810360008301526139598161350b565b9050919050565b600060208201905081810360008301526139798161352e565b9050919050565b6000602082019050818103600083015261399981613551565b9050919050565b600060208201905081810360008301526139b981613574565b9050919050565b600060208201905081810360008301526139d981613597565b9050919050565b600060208201905081810360008301526139f9816135dd565b9050919050565b60006020820190508181036000830152613a1981613600565b9050919050565b60006020820190508181036000830152613a3981613623565b9050919050565b60006020820190508181036000830152613a5981613646565b9050919050565b60006020820190508181036000830152613a7981613669565b9050919050565b60006020820190508181036000830152613a998161368c565b9050919050565b60006020820190508181036000830152613ab9816136af565b9050919050565b60006020820190508181036000830152613ad9816136d2565b9050919050565b60006020820190508181036000830152613af9816136f5565b9050919050565b60006020820190508181036000830152613b1981613718565b9050919050565b60006020820190508181036000830152613b398161373b565b9050919050565b6000602082019050613b55600083018461375e565b92915050565b6000613b65613b76565b9050613b718282613dc8565b919050565b6000604051905090565b600067ffffffffffffffff821115613b9b57613b9a613f5e565b5b613ba482613fab565b9050602081019050919050565b600067ffffffffffffffff821115613bcc57613bcb613f5e565b5b613bd582613fab565b9050602081019050919050565b600081519050919050565b600081519050919050565b600082825260208201905092915050565b600082825260208201905092915050565b600081905092915050565b6000613c3082613d4a565b9150613c3b83613d4a565b9250827fffffffffffffffffffffffffffffffffffffffffffffffffffffffffffffffff03821115613c7057613c6f613e73565b5b828201905092915050565b6000613c8682613d4a565b9150613c9183613d4a565b925082613ca157613ca0613ea2565b5b828204905092915050565b6000613cb782613d4a565b9150613cc283613d4a565b925082821015613cd557613cd4613e73565b5b828203905092915050565b6000613ceb82613d2a565b9050919050565b60008115159050919050565b60007fffffffff0000000000000000000000000000000000000000000000000000000082169050919050565b600073ffffffffffffffffffffffffffffffffffffffff82169050919050565b6000819050919050565b82818337600083830152505050565b60005b83811015613d81578082015181840152602081019050613d66565b83811115613d90576000848401525b50505050565b60006002820490506001821680613dae57607f821691505b60208210811415613dc257613dc1613ed1565b5b50919050565b613dd182613fab565b810181811067ffffffffffffffff82111715613df057613def613f5e565b5b80604052505050565b6000613e0482613d4a565b91507fffffffffffffffffffffffffffffffffffffffffffffffffffffffffffffffff821415613e3757613e36613e73565b5b600182019050919050565b6000613e4d82613d4a565b9150613e5883613d4a565b925082613e6857613e67613ea2565b5b828206905092915050565b7f4e487b7100000000000000000000000000000000000000000000000000000000600052601160045260246000fd5b7f4e487b7100000000000000000000000000000000000000000000000000000000600052601260045260246000fd5b7f4e487b7100000000000000000000000000000000000000000000000000000000600052602260045260246000fd5b7f4e487b7100000000000000000000000000000000000000000000000000000000600052603160045260246000fd5b7f4e487b7100000000000000000000000000000000000000000000000000000000600052603260045260246000fd5b7f4e487b7100000000000000000000000000000000000000000000000000000000600052604160045260246000fd5b600080fd5b600080fd5b600080fd5b600080fd5b600080fd5b600080fd5b6000601f19601f8301169050919050565b7f455243373231456e756d657261626c653a206f776e657220696e646578206f7560008201527f74206f6620626f756e6473000000000000000000000000000000000000000000602082015250565b7f4552433732313a207472616e7366657220746f206e6f6e20455243373231526560008201527f63656976657220696d706c656d656e7465720000000000000000000000000000602082015250565b7f4f776e61626c653a206e6577206f776e657220697320746865207a65726f206160008201527f6464726573730000000000000000000000000000000000000000000000000000602082015250565b7f4552433732313a207472616e736665722066726f6d20696e636f72726563742060008201527f6f776e6572000000000000000000000000000000000000000000000000000000602082015250565b7f4552433732313a20746f6b656e20616c7265616479206d696e74656400000000600082015250565b7f4552433732313a207472616e7366657220746f20746865207a65726f2061646460008201527f7265737300000000000000000000000000000000000000000000000000000000602082015250565b7f4552433732313a20617070726f766520746f2063616c6c657200000000000000600082015250565b7f4552433732313a206f70657261746f7220717565727920666f72206e6f6e657860008201527f697374656e7420746f6b656e0000000000000000000000000000000000000000602082015250565b7f4552433732313a20617070726f76652063616c6c6572206973206e6f74206f7760008201527f6e6572206e6f7220617070726f76656420666f7220616c6c0000000000000000602082015250565b7f4552433732313a2062616c616e636520717565727920666f7220746865207a6560008201527f726f206164647265737300000000000000000000000000000000000000000000602082015250565b7f4552433732313a206f776e657220717565727920666f72206e6f6e657869737460008201527f656e7420746f6b656e0000000000000000000000000000000000000000000000602082015250565b7f4552433732313a206d696e7420746f20746865207a65726f2061646472657373600082015250565b7f4552433732313a20617070726f76656420717565727920666f72206e6f6e657860008201527f697374656e7420746f6b656e0000000000000000000000000000000000000000602082015250565b7f2e6a736f6e000000000000000000000000000000000000000000000000000000600082015250565b7f4552433732314d657461646174613a2055524920736574206f66206e6f6e657860008201527f697374656e7420746f6b656e0000000000000000000000000000000000000000602082015250565b7f4f776e61626c653a2063616c6c6572206973206e6f7420746865206f776e6572600082015250565b7f4552433732314d657461646174613a2055524920717565727920666f72206e6f60008201527f6e6578697374656e7420746f6b656e0000000000000000000000000000000000602082015250565b7f4f776e61626c653a2063616c6c6572206973206e6f7420746865206f776e657260008201527f206f7220697320617070726f7665640000000000000000000000000000000000602082015250565b7f4552433732313a20617070726f76616c20746f2063757272656e74206f776e6560008201527f7200000000000000000000000000000000000000000000000000000000000000602082015250565b7f4d6f6f6e42656173743a20546f6b656e494473206c69737420697320656d707460008201527f7900000000000000000000000000000000000000000000000000000000000000602082015250565b7f4552433732313a207472616e736665722063616c6c6572206973206e6f74206f60008201527f776e6572206e6f7220617070726f766564000000000000000000000000000000602082015250565b7f455243373231456e756d657261626c653a20676c6f62616c20696e646578206f60008201527f7574206f6620626f756e64730000000000000000000000000000000000000000602082015250565b7f4d6f6f6e42656173743a2053746172744944206d757374206265206c6573732060008201527f7468616e20456e64494400000000000000000000000000000000000000000000602082015250565b7f4d6f6f6e42656173743a206f70657261746f7220697320746865207a65726f2060008201527f6164647265737300000000000000000000000000000000000000000000000000602082015250565b7f4552433732314275726e61626c653a2063616c6c6572206973206e6f74206f7760008201527f6e6572206e6f7220617070726f76656400000000000000000000000000000000602082015250565b6146be81613ce0565b81146146c957600080fd5b50565b6146d581613cf2565b81146146e057600080fd5b50565b6146ec81613cfe565b81146146f757600080fd5b50565b61470381613d4a565b811461470e57600080fd5b5056fea264697066735822122026c45de32cf3a704f16b7030214c09ffccf1853ef505c2cc5b507009986800fe64736f6c63430008070033",
  "linkReferences": {},
  "deployedLinkReferences": {}
}