{
  "_format": "hh-sol-artifact-1",
  "contractName": "MoonBeastNFTSaleRound34",
  "sourceName": "contracts/upgradeables/MoonBeastNFTSaleRound34.sol",
  "abi": [
    {
      "inputs": [],
      "stateMutability": "nonpayable",
      "type": "constructor"
    },
    {
      "anonymous": false,
      "inputs": [
        {
          "indexed": false,
          "internalType": "address",
          "name": "previousAdmin",
          "type": "address"
        },
        {
          "indexed": false,
          "internalType": "address",
          "name": "newAdmin",
          "type": "address"
        }
      ],
      "name": "AdminChanged",
      "type": "event"
    },
    {
      "anonymous": false,
      "inputs": [
        {
          "indexed": true,
          "internalType": "address",
          "name": "beacon",
          "type": "address"
        }
      ],
      "name": "BeaconUpgraded",
      "type": "event"
    },
    {
      "anonymous": false,
      "inputs": [
        {
          "indexed": false,
          "internalType": "uint8",
          "name": "version",
          "type": "uint8"
        }
      ],
      "name": "Initialized",
      "type": "event"
    },
    {
      "anonymous": false,
      "inputs": [
        {
          "indexed": false,
          "internalType": "string",
          "name": "transactionKey",
          "type": "string"
        },
        {
          "indexed": false,
          "internalType": "uint256[]",
          "name": "tokenIds",
          "type": "uint256[]"
        }
      ],
      "name": "NFTPurchased",
      "type": "event"
    },
    {
      "anonymous": false,
      "inputs": [
        {
          "indexed": true,
          "internalType": "address",
          "name": "previousOwner",
          "type": "address"
        },
        {
          "indexed": true,
          "internalType": "address",
          "name": "newOwner",
          "type": "address"
        }
      ],
      "name": "OwnershipTransferred",
      "type": "event"
    },
    {
      "anonymous": false,
      "inputs": [
        {
          "indexed": false,
          "internalType": "uint256",
          "name": "soldAmount",
          "type": "uint256"
        },
        {
          "indexed": false,
          "internalType": "uint256",
          "name": "availableSlot",
          "type": "uint256"
        },
        {
          "indexed": false,
          "internalType": "uint256",
          "name": "maxSaleAmount",
          "type": "uint256"
        }
      ],
      "name": "UpdateSaleAmount",
      "type": "event"
    },
    {
      "anonymous": false,
      "inputs": [
        {
          "indexed": true,
          "internalType": "address",
          "name": "implementation",
          "type": "address"
        }
      ],
      "name": "Upgraded",
      "type": "event"
    },
    {
      "inputs": [],
      "name": "_masterContract",
      "outputs": [
        {
          "internalType": "address",
          "name": "",
          "type": "address"
        }
      ],
      "stateMutability": "view",
      "type": "function"
    },
    {
      "inputs": [],
      "name": "_maxSaleAmount",
      "outputs": [
        {
          "internalType": "uint256",
          "name": "",
          "type": "uint256"
        }
      ],
      "stateMutability": "view",
      "type": "function"
    },
    {
      "inputs": [],
      "name": "_mintPassNFT",
      "outputs": [
        {
          "internalType": "contract IMoonFitERC721",
          "name": "",
          "type": "address"
        }
      ],
      "stateMutability": "view",
      "type": "function"
    },
    {
      "inputs": [],
      "name": "_moonBeastNFT",
      "outputs": [
        {
          "internalType": "contract MoonBeast",
          "name": "",
          "type": "address"
        }
      ],
      "stateMutability": "view",
      "type": "function"
    },
    {
      "inputs": [],
      "name": "_wallet",
      "outputs": [
        {
          "internalType": "address payable",
          "name": "",
          "type": "address"
        }
      ],
      "stateMutability": "view",
      "type": "function"
    },
    {
      "inputs": [
        {
          "internalType": "uint256",
          "name": "",
          "type": "uint256"
        }
      ],
      "name": "_withMintPassPricing",
      "outputs": [
        {
          "internalType": "uint256",
          "name": "",
          "type": "uint256"
        }
      ],
      "stateMutability": "view",
      "type": "function"
    },
    {
      "inputs": [
        {
          "internalType": "uint256",
          "name": "",
          "type": "uint256"
        }
      ],
      "name": "_withoutMintPassPricing",
      "outputs": [
        {
          "internalType": "uint256",
          "name": "",
          "type": "uint256"
        }
      ],
      "stateMutability": "view",
      "type": "function"
    },
    {
      "inputs": [
        {
          "internalType": "address",
          "name": "owner",
          "type": "address"
        }
      ],
      "name": "countMintByOwner",
      "outputs": [
        {
          "internalType": "uint256",
          "name": "",
          "type": "uint256"
        }
      ],
      "stateMutability": "view",
      "type": "function"
    },
    {
      "inputs": [
        {
          "internalType": "address",
          "name": "owner",
          "type": "address"
        }
      ],
      "name": "countMintPassLooking",
      "outputs": [
        {
          "internalType": "uint256",
          "name": "",
          "type": "uint256"
        }
      ],
      "stateMutability": "view",
      "type": "function"
    },
    {
      "inputs": [],
      "name": "getAvailableSlots",
      "outputs": [
        {
          "internalType": "uint256",
          "name": "",
          "type": "uint256"
        }
      ],
      "stateMutability": "view",
      "type": "function"
    },
    {
      "inputs": [],
      "name": "getContractBalance",
      "outputs": [
        {
          "internalType": "uint256",
          "name": "",
          "type": "uint256"
        }
      ],
      "stateMutability": "view",
      "type": "function"
    },
    {
      "inputs": [
        {
          "internalType": "address",
          "name": "owner",
          "type": "address"
        },
        {
          "internalType": "uint256",
          "name": "from",
          "type": "uint256"
        },
        {
          "internalType": "uint256",
          "name": "to",
          "type": "uint256"
        }
      ],
      "name": "getMintByOwner",
      "outputs": [
        {
          "components": [
            {
              "internalType": "uint256",
              "name": "tokenId",
              "type": "uint256"
            },
            {
              "internalType": "bool",
              "name": "hold",
              "type": "bool"
            }
          ],
          "internalType": "struct MoonBeastNFTSaleRound34.OwnerMintMapping[]",
          "name": "",
          "type": "tuple[]"
        }
      ],
      "stateMutability": "view",
      "type": "function"
    },
    {
      "inputs": [
        {
          "internalType": "address",
          "name": "owner",
          "type": "address"
        }
      ],
      "name": "getMintPassLooking",
      "outputs": [
        {
          "components": [
            {
              "internalType": "uint256",
              "name": "tokenId",
              "type": "uint256"
            },
            {
              "internalType": "bool",
              "name": "minted",
              "type": "bool"
            },
            {
              "internalType": "uint256[]",
              "name": "moonBeastIds",
              "type": "uint256[]"
            }
          ],
          "internalType": "struct MoonBeastNFTSaleRound34.MintPassLocking[]",
          "name": "",
          "type": "tuple[]"
        }
      ],
      "stateMutability": "view",
      "type": "function"
    },
    {
      "inputs": [
        {
          "internalType": "uint256",
          "name": "mintPassId",
          "type": "uint256"
        }
      ],
      "name": "getMintPassUsage",
      "outputs": [
        {
          "internalType": "uint256[]",
          "name": "",
          "type": "uint256[]"
        }
      ],
      "stateMutability": "view",
      "type": "function"
    },
    {
      "inputs": [
        {
          "internalType": "string",
          "name": "transactionKey",
          "type": "string"
        }
      ],
      "name": "getMoonBeastsByTransactionKey",
      "outputs": [
        {
          "internalType": "uint256[]",
          "name": "",
          "type": "uint256[]"
        }
      ],
      "stateMutability": "view",
      "type": "function"
    },
    {
      "inputs": [],
      "name": "getReadySale",
      "outputs": [
        {
          "internalType": "bool",
          "name": "",
          "type": "bool"
        }
      ],
      "stateMutability": "view",
      "type": "function"
    },
    {
      "inputs": [
        {
          "internalType": "uint256",
          "name": "tokenId",
          "type": "uint256"
        }
      ],
      "name": "getTransactionByMoonBeastId",
      "outputs": [
        {
          "internalType": "string",
          "name": "",
          "type": "string"
        }
      ],
      "stateMutability": "view",
      "type": "function"
    },
    {
      "inputs": [
        {
          "internalType": "uint256",
          "name": "maxSaleAmount",
          "type": "uint256"
        },
        {
          "internalType": "uint16[]",
          "name": "packs",
          "type": "uint16[]"
        },
        {
          "internalType": "uint256[]",
          "name": "withMintPassPricing",
          "type": "uint256[]"
        },
        {
          "internalType": "uint256[]",
          "name": "withoutMintPassPricing",
          "type": "uint256[]"
        },
        {
          "internalType": "address",
          "name": "masterContract",
          "type": "address"
        },
        {
          "internalType": "address",
          "name": "mintPassNFT",
          "type": "address"
        },
        {
          "internalType": "address",
          "name": "moonBeastNFT",
          "type": "address"
        },
        {
          "internalType": "address",
          "name": "wallet",
          "type": "address"
        }
      ],
      "name": "initialize",
      "outputs": [],
      "stateMutability": "nonpayable",
      "type": "function"
    },
    {
      "inputs": [
        {
          "internalType": "uint256[]",
          "name": "mintPassIds",
          "type": "uint256[]"
        }
      ],
      "name": "lockMintPass",
      "outputs": [],
      "stateMutability": "payable",
      "type": "function"
    },
    {
      "inputs": [
        {
          "internalType": "uint16",
          "name": "pack",
          "type": "uint16"
        },
        {
          "internalType": "uint256[]",
          "name": "mintPassIds",
          "type": "uint256[]"
        },
        {
          "internalType": "string",
          "name": "transactionKey",
          "type": "string"
        }
      ],
      "name": "mintNFTWithMintPass",
      "outputs": [],
      "stateMutability": "payable",
      "type": "function"
    },
    {
      "inputs": [
        {
          "internalType": "uint16",
          "name": "pack",
          "type": "uint16"
        }
      ],
      "name": "mintNFTWithMintPassV2",
      "outputs": [],
      "stateMutability": "payable",
      "type": "function"
    },
    {
      "inputs": [
        {
          "internalType": "uint16",
          "name": "pack",
          "type": "uint16"
        },
        {
          "internalType": "string",
          "name": "transactionKey",
          "type": "string"
        }
      ],
      "name": "mintNFTWithoutMintPass",
      "outputs": [],
      "stateMutability": "payable",
      "type": "function"
    },
    {
      "inputs": [
        {
          "internalType": "uint16",
          "name": "pack",
          "type": "uint16"
        }
      ],
      "name": "mintNFTWithoutMintPassV2",
      "outputs": [],
      "stateMutability": "payable",
      "type": "function"
    },
    {
      "inputs": [
        {
          "internalType": "uint256",
          "name": "mintPassId",
          "type": "uint256"
        }
      ],
      "name": "mintPassIsMinted",
      "outputs": [
        {
          "internalType": "bool",
          "name": "",
          "type": "bool"
        }
      ],
      "stateMutability": "view",
      "type": "function"
    },
    {
      "inputs": [
        {
          "internalType": "address",
          "name": "",
          "type": "address"
        },
        {
          "internalType": "address",
          "name": "",
          "type": "address"
        },
        {
          "internalType": "uint256",
          "name": "",
          "type": "uint256"
        },
        {
          "internalType": "bytes",
          "name": "",
          "type": "bytes"
        }
      ],
      "name": "onERC721Received",
      "outputs": [
        {
          "internalType": "bytes4",
          "name": "",
          "type": "bytes4"
        }
      ],
      "stateMutability": "nonpayable",
      "type": "function"
    },
    {
      "inputs": [],
      "name": "owner",
      "outputs": [
        {
          "internalType": "address",
          "name": "",
          "type": "address"
        }
      ],
      "stateMutability": "view",
      "type": "function"
    },
    {
      "inputs": [],
      "name": "proxiableUUID",
      "outputs": [
        {
          "internalType": "bytes32",
          "name": "",
          "type": "bytes32"
        }
      ],
      "stateMutability": "view",
      "type": "function"
    },
    {
      "inputs": [],
      "name": "renounceOwnership",
      "outputs": [],
      "stateMutability": "nonpayable",
      "type": "function"
    },
    {
      "inputs": [],
      "name": "revokeAllApproved",
      "outputs": [],
      "stateMutability": "nonpayable",
      "type": "function"
    },
    {
      "inputs": [
        {
          "internalType": "address",
          "name": "operator",
          "type": "address"
        },
        {
          "internalType": "bool",
          "name": "isApproved",
          "type": "bool"
        }
      ],
      "name": "setApprovedOperator",
      "outputs": [],
      "stateMutability": "nonpayable",
      "type": "function"
    },
    {
      "inputs": [
        {
          "internalType": "address[]",
          "name": "operators",
          "type": "address[]"
        },
        {
          "internalType": "bool",
          "name": "isApproved",
          "type": "bool"
        }
      ],
      "name": "setApprovedOperators",
      "outputs": [],
      "stateMutability": "nonpayable",
      "type": "function"
    },
    {
      "inputs": [
        {
          "internalType": "uint256",
          "name": "maxSaleAmount",
          "type": "uint256"
        }
      ],
      "name": "setMaxSaleAmount",
      "outputs": [],
      "stateMutability": "nonpayable",
      "type": "function"
    },
    {
      "inputs": [
        {
          "internalType": "address",
          "name": "mintPass",
          "type": "address"
        }
      ],
      "name": "setMintPassNFT",
      "outputs": [],
      "stateMutability": "nonpayable",
      "type": "function"
    },
    {
      "inputs": [
        {
          "internalType": "address",
          "name": "moonBeast",
          "type": "address"
        }
      ],
      "name": "setMoonBeastNFT",
      "outputs": [],
      "stateMutability": "nonpayable",
      "type": "function"
    },
    {
      "inputs": [
        {
          "internalType": "bool",
          "name": "value",
          "type": "bool"
        }
      ],
      "name": "setReadySale",
      "outputs": [],
      "stateMutability": "nonpayable",
      "type": "function"
    },
    {
      "inputs": [
        {
          "internalType": "address payable",
          "name": "wallet",
          "type": "address"
        }
      ],
      "name": "setWallet",
      "outputs": [],
      "stateMutability": "nonpayable",
      "type": "function"
    },
    {
      "inputs": [
        {
          "internalType": "address",
          "name": "newOwner",
          "type": "address"
        }
      ],
      "name": "transferOwnership",
      "outputs": [],
      "stateMutability": "nonpayable",
      "type": "function"
    },
    {
      "inputs": [],
      "name": "unlockMintPass",
      "outputs": [],
      "stateMutability": "payable",
      "type": "function"
    },
    {
      "inputs": [],
      "name": "unlockMintPass2",
      "outputs": [],
      "stateMutability": "payable",
      "type": "function"
    },
    {
      "inputs": [
        {
          "internalType": "address",
          "name": "newImplementation",
          "type": "address"
        }
      ],
      "name": "upgradeTo",
      "outputs": [],
      "stateMutability": "nonpayable",
      "type": "function"
    },
    {
      "inputs": [
        {
          "internalType": "address",
          "name": "newImplementation",
          "type": "address"
        },
        {
          "internalType": "bytes",
          "name": "data",
          "type": "bytes"
        }
      ],
      "name": "upgradeToAndCall",
      "outputs": [],
      "stateMutability": "payable",
      "type": "function"
    },
    {
      "inputs": [],
      "name": "withdrawTokenByOwner",
      "outputs": [],
      "stateMutability": "nonpayable",
      "type": "function"
    }
  ],
  "bytecode": "0x60a06040523060601b6080523480156200001857600080fd5b506200002362000029565b620000eb565b600054610100900460ff1615620000965760405162461bcd60e51b815260206004820152602760248201527f496e697469616c697a61626c653a20636f6e747261637420697320696e697469604482015266616c697a696e6760c81b606482015260840160405180910390fd5b60005460ff9081161015620000e9576000805460ff191660ff9081179091556040519081527f7f26b83ff96e1f2b6a682f133852f6798a09c465da95921460cefb38474024989060200160405180910390a15b565b60805160601c6143956200012660003960008181610d5b01528181610d9b0152818161140c0152818161144c015261150101526143956000f3fe6080604052600436106102515760003560e01c8063610757e411610139578063b9d18eae116100b6578063de15ad081161007a578063de15ad08146106b6578063deaa59df146106c9578063deed00f6146106e9578063f122f31614610708578063f2fde38b14610735578063ffd6e51c1461075557600080fd5b8063b9d18eae1461061f578063cc8c0d7e14610634578063d49c78cc14610649578063d693b38e14610669578063d879f3951461069657600080fd5b80637428edea116100fd5780637428edea1461056d5780638da5cb5b1461058457806390ad41d3146105a2578063a0c74730146105cf578063b8bea696146105ff57600080fd5b8063610757e4146104c15780636bd9eb0a146104e25780636d02d94d1461050f5780636f9fb98a14610545578063715018a61461055857600080fd5b80632c70954d116101d25780633c95ed07116101965780633c95ed07146104335780634f1ef28614610446578063514c1ba61461045957806352d1902d146104795780635d0a8f6d1461048e578063603619a7146104ae57600080fd5b80632c70954d146103c25780633659cfe6146103e3578063369840d6146104035780633bc2d10d1461040b5780633c5a61531461041357600080fd5b806318da71221161021957806318da71221461032f578063228443d81461034f578063231b00981461036f5780632725368f146103825780632bfccd3c146103a257600080fd5b8063044205de146102565780630848c6ca146102895780630b154c471461029e57806312c0aeb9146102d6578063150b7a02146102eb575b600080fd5b34801561026257600080fd5b50610276610271366004613bdf565b610775565b6040519081526020015b60405180910390f35b61029c610297366004613bc3565b610797565b005b3480156102aa57600080fd5b5060fb546102be906001600160a01b031681565b6040516001600160a01b039091168152602001610280565b3480156102e257600080fd5b5061029c6108ef565b3480156102f757600080fd5b506103166103063660046138c3565b630a85bd0160e11b949350505050565b6040516001600160e01b03199091168152602001610280565b34801561033b57600080fd5b5061027661034a366004613889565b610984565b34801561035b57600080fd5b5061029c61036a366004613889565b610a47565b61029c61037d366004613b50565b610ac7565b34801561038e57600080fd5b5060fc546102be906001600160a01b031681565b3480156103ae57600080fd5b5061029c6103bd366004613889565b610cd0565b3480156103ce57600080fd5b5061010a546102be906001600160a01b031681565b3480156103ef57600080fd5b5061029c6103fe366004613889565b610d50565b61029c610e2d565b61029c611071565b34801561041f57600080fd5b5061029c61042e36600461392e565b611279565b61029c610441366004613b35565b61128f565b61029c610454366004613963565b611401565b34801561046557600080fd5b5061029c610474366004613acd565b6114ce565b34801561048557600080fd5b506102766114f4565b34801561049a57600080fd5b5061029c6104a9366004613bdf565b6115a7565b61029c6104bc366004613b35565b611681565b3480156104cd57600080fd5b50610109546102be906001600160a01b031681565b3480156104ee57600080fd5b506105026104fd366004613bdf565b611704565b6040516102809190613f3d565b34801561051b57600080fd5b5061027661052a366004613889565b6001600160a01b0316600090815260ff602052604090205490565b34801561055157600080fd5b5047610276565b34801561056457600080fd5b5061029c611766565b34801561057957600080fd5b506102766101055481565b34801561059057600080fd5b506065546001600160a01b03166102be565b3480156105ae57600080fd5b506105c26105bd366004613bdf565b61177a565b6040516102809190613f50565b3480156105db57600080fd5b506105ef6105ea366004613bdf565b611813565b6040519015158152602001610280565b34801561060b57600080fd5b5061029c61061a366004613bf8565b611836565b34801561062b57600080fd5b50610276611e29565b34801561064057600080fd5b5061029c611e48565b34801561065557600080fd5b50610502610664366004613b01565b611ede565b34801561067557600080fd5b506106896106843660046139b2565b611f4d565b6040516102809190613eec565b3480156106a257600080fd5b5061029c6106b13660046139e7565b612181565b61029c6106c4366004613a99565b6121cf565b3480156106d557600080fd5b5061029c6106e4366004613889565b612242565b3480156106f557600080fd5b5060fc54600160a01b900460ff166105ef565b34801561071457600080fd5b50610728610723366004613889565b6122c3565b6040516102809190613e6b565b34801561074157600080fd5b5061029c610750366004613889565b612450565b34801561076157600080fd5b50610276610770366004613bdf565b6124c6565b610108818154811061078657600080fd5b600091825260209091200154905081565b600260015414156107c35760405162461bcd60e51b81526004016107ba90614128565b60405180910390fd5b60026001556065546001600160a01b03163314806107f65750336000908152610104602052604090205460ff1615156001145b6108125760405162461bcd60e51b81526004016107ba9061408e565b61081b826124d7565b610824816124f1565b60005b8261ffff1681101561084f5761083c826125b7565b50806108478161425c565b915050610827565b507fe66707350710f863090ce00b7e4d71719c22c782f15f8d3f3a8734216b03bedf81610102836040516108839190613d33565b90815260405190819003602001812061089c9291613f63565b60405180910390a16000805160206143198339815191526108bd6101065490565b6108c5611e29565b610105546040805193845260208401929092529082015260600160405180910390a1505060018055565b6108f76126c9565b600047116109475760405162461bcd60e51b815260206004820152601a60248201527f436f6e74726163742062616c616e6365206973203020474c4d5200000000000060448201526064016107ba565b610109546040516001600160a01b03909116904780156108fc02916000818181858888f19350505050158015610981573d6000803e3d6000fd5b50565b6001600160a01b038116600090815260fe60205260408120546109a957506000919050565b6000805b6001600160a01b038416600090815260fe6020526040902054811015610a40576001600160a01b038416600090815260fe602052604081208054839081106109f7576109f76142b7565b90600052602060002001549050610a0d81611813565b158015610a1a5750600081115b15610a2d57610a2a6001846141b2565b92505b5080610a388161425c565b9150506109ad565b5092915050565b610a4f6126c9565b6001600160a01b038116610aa55760405162461bcd60e51b815260206004820181905260248201527f4d6f6f6e42656173744e465420697320746865207a65726f206164647265737360448201526064016107ba565b60fc80546001600160a01b0319166001600160a01b0392909216919091179055565b60026001541415610aea5760405162461bcd60e51b81526004016107ba90614128565b60026001556065546001600160a01b0316331480610b1d5750336000908152610104602052604090205460ff1615156001145b610b395760405162461bcd60e51b81526004016107ba9061408e565b610b42836124d7565b610b4b816124f1565b8261ffff16825114610b9f5760405162461bcd60e51b815260206004820152601b60248201527f4d696e74506173732062616c616e636520697320696e76616c6964000000000060448201526064016107ba565b60005b8251811015610c2f57610bcd838281518110610bc057610bc06142b7565b6020026020010151612723565b6000610bd8836125b7565b905060fd6000858481518110610bf057610bf06142b7565b60209081029190910181015182528181019290925260400160009081208054600181018255908252919020015580610c278161425c565b915050610ba2565b507fe66707350710f863090ce00b7e4d71719c22c782f15f8d3f3a8734216b03bedf8161010283604051610c639190613d33565b908152604051908190036020018120610c7c9291613f63565b60405180910390a1600080516020614319833981519152610c9d6101065490565b610ca5611e29565b610105546040805193845260208401929092529082015260600160405180910390a150506001805550565b610cd86126c9565b6001600160a01b038116610d2e5760405162461bcd60e51b815260206004820152601f60248201527f4d696e74506173734e465420697320746865207a65726f20616464726573730060448201526064016107ba565b60fb80546001600160a01b0319166001600160a01b0392909216919091179055565b306001600160a01b037f0000000000000000000000000000000000000000000000000000000000000000161415610d995760405162461bcd60e51b81526004016107ba90613ff6565b7f00000000000000000000000000000000000000000000000000000000000000006001600160a01b0316610de26000805160206142f9833981519152546001600160a01b031690565b6001600160a01b031614610e085760405162461bcd60e51b81526004016107ba90614042565b610e1181612848565b6040805160008082526020820190925261098191839190612850565b60026001541415610e505760405162461bcd60e51b81526004016107ba90614128565b600260015533600081815260fe6020526040902054610ead5760405162461bcd60e51b8152602060048201526019602482015278131bd8dad95908135a5b9d14185cdcc81b9bdd08199bdd5b99603a1b60448201526064016107ba565b6000610eb882610984565b6001600160a01b038316600090815260fe6020526040902054610edb91906141de565b90506000816001600160401b03811115610ef757610ef76142cd565b604051908082528060200260200182016040528015610f20578160200160208202803683370190505b5090506000805b6001600160a01b038516600090815260fe602052604090205481101561103c576001600160a01b038516600090815260fe60205260408120805483908110610f7157610f716142b7565b90600052602060002001549050610f8781611813565b15610fbc5780848481518110610f9f57610f9f6142b7565b6020908102919091010152610fb56001846141b2565b9250611029565b60fb546040516323b872dd60e01b81523060048201526001600160a01b03888116602483015260448201849052909116906323b872dd90606401600060405180830381600087803b15801561101057600080fd5b505af1158015611024573d6000803e3d6000fd5b505050505b50806110348161425c565b915050610f27565b506001600160a01b038416600090815260fe60209081526040909120835161106692850190613543565b505060018055505050565b600260015414156110945760405162461bcd60e51b81526004016107ba90614128565b600260015560fc54600160a01b900460ff16156111015760405162461bcd60e51b815260206004820152602560248201527f53616c652069732072656164792c2063616e277420756e6c6f636b204d696e74604482015264205061737360d81b60648201526084016107ba565b33600081815260fe60205260409020546111595760405162461bcd60e51b8152602060048201526019602482015278131bd8dad95908135a5b9d14185cdcc81b9bdd08199bdd5b99603a1b60448201526064016107ba565b60005b6001600160a01b038216600090815260fe602052604090205481101561123f5760fb546001600160a01b03838116600090815260fe60205260409020805491909216916323b872dd9130918691869081106111b9576111b96142b7565b6000918252602090912001546040516001600160e01b031960e086901b1681526001600160a01b0393841660048201529290911660248301526044820152606401600060405180830381600087803b15801561121457600080fd5b505af1158015611228573d6000803e3d6000fd5b5050505080806112379061425c565b91505061115c565b5060408051600080825260208083018085526001600160a01b038616835260fe90915292902090516112719290613543565b505060018055565b6112816126c9565b61128b82826129ca565b5050565b600260015414156112b25760405162461bcd60e51b81526004016107ba90614128565b60026001556112c0816124d7565b6112cc81346001612b69565b3360006112d882610984565b9050808361ffff1611156113265760405162461bcd60e51b8152602060048201526015602482015274496e73756666696369656e74204d696e745061737360581b60448201526064016107ba565b60005b8361ffff168110156113e757600061134084612c1e565b9050806113a55760405162461bcd60e51b815260206004820152602d60248201527f5b4d696e7450617373206c6f636b6564206973206e6f74206d696e7465645d2060448201526c1dd85cc81b9bdd08199bdd5b99609a1b60648201526084016107ba565b60006113b085612ca9565b600092835260fd602090815260408420805460018101825590855293209092019190915550806113df8161425c565b915050611329565b50600080516020614319833981519152610c9d6101065490565b306001600160a01b037f000000000000000000000000000000000000000000000000000000000000000016141561144a5760405162461bcd60e51b81526004016107ba90613ff6565b7f00000000000000000000000000000000000000000000000000000000000000006001600160a01b03166114936000805160206142f9833981519152546001600160a01b031690565b6001600160a01b0316146114b95760405162461bcd60e51b81526004016107ba90614042565b6114c282612848565b61128b82826001612850565b6114d66126c9565b60fc8054911515600160a01b0260ff60a01b19909216919091179055565b6000306001600160a01b037f000000000000000000000000000000000000000000000000000000000000000016146115945760405162461bcd60e51b815260206004820152603860248201527f555550535570677261646561626c653a206d757374206e6f742062652063616c60448201527f6c6564207468726f7567682064656c656761746563616c6c000000000000000060648201526084016107ba565b506000805160206142f983398151915290565b6115af6126c9565b6000811161160b5760405162461bcd60e51b8152602060048201526024808201527f4d617853616c65416d6f756e74206d75737420626520677265617465722074686044820152630616e20360e41b60648201526084016107ba565b61010654811161167b5760405162461bcd60e51b815260206004820152603560248201527f4d617853616c65416d6f756e74206d7573742062652067726561746572207468604482015274185b8817d8dd5c9c995b9d14dbdb19105b5bdd5b9d605a1b60648201526084016107ba565b61010555565b600260015414156116a45760405162461bcd60e51b81526004016107ba90614128565b60026001556116b2816124d7565b6116be81346000612b69565b3360005b8261ffff168110156116ea576116d782612ca9565b50806116e28161425c565b9150506116c2565b506000805160206143198339815191526108bd6101065490565b600081815260fd602090815260409182902080548351818402810184019094528084526060939283018282801561175a57602002820191906000526020600020905b815481526020019060010190808311611746575b50505050509050919050565b61176e6126c9565b6117786000612d91565b565b60008181526101006020526040902080546060919061179890614221565b80601f01602080910402602001604051908101604052809291908181526020018280546117c490614221565b801561175a5780601f106117e65761010080835404028352916020019161175a565b820191906000526020600020905b8154815290600101906020018083116117f45750939695505050505050565b600081815260fd6020526040812054158015906118305750600082115b92915050565b600054610100900460ff16158080156118565750600054600160ff909116105b806118705750303b158015611870575060005460ff166001145b6118d35760405162461bcd60e51b815260206004820152602e60248201527f496e697469616c697a61626c653a20636f6e747261637420697320616c72656160448201526d191e481a5b9a5d1a585b1a5e995960921b60648201526084016107ba565b6000805460ff1916600117905580156118f6576000805461ff0019166101001790555b600089116119525760405162461bcd60e51b8152602060048201526024808201527f6d617853616c65416d6f756e74206d75737420626520677265617465722074686044820152630616e20360e41b60648201526084016107ba565b6001600160a01b0384166119a85760405162461bcd60e51b815260206004820152601f60248201527f6d696e74506173734e465420697320746865207a65726f20616464726573730060448201526064016107ba565b6001600160a01b0383166119fe5760405162461bcd60e51b815260206004820181905260248201527f6d6f6f6e42656173744e465420697320746865207a65726f206164647265737360448201526064016107ba565b6001600160a01b038216611a545760405162461bcd60e51b815260206004820152601a60248201527f77616c6c657420697320746865207a65726f206164647265737300000000000060448201526064016107ba565b6001600160a01b038516611ab55760405162461bcd60e51b815260206004820152602260248201527f4d6173746572436f6e747261637420697320746865207a65726f206164647265604482015261737360f01b60648201526084016107ba565b6000885111611af95760405162461bcd60e51b815260206004820152601060248201526f141858dadcc81a5cc81a5b9d985b1a5960821b60448201526064016107ba565b8651885114611b4a5760405162461bcd60e51b815260206004820181905260248201527f5061636b7320616e6420707269636573206973206e6f74206d61746368696e6760448201526064016107ba565b8551885114611b9b5760405162461bcd60e51b815260206004820181905260248201527f5061636b7320616e6420707269636573206973206e6f74206d61746368696e6760448201526064016107ba565b611ba3612de3565b611bab612e12565b61010589905560fb80546001600160a01b038087166001600160a01b03199283161790925560fc80548684169083161790556101098054928516929091169190911790558751611c03906101019060208b019061358e565b508651611c18906101079060208a0190613543565b508551611c2d90610108906020890190613543565b5061010a80546001600160a01b0319166001600160a01b03871617905560fc805460ff60a01b1916905560005b61010154811015611dd75760006101018281548110611c7b57611c7b6142b7565b60009182526020909120601082040154600f9091166002026101000a900461ffff1611611cdd5760405162461bcd60e51b815260206004820152601060248201526f141858dadcc81a5cc81a5b9d985b1a5960821b60448201526064016107ba565b60006101078281548110611cf357611cf36142b7565b906000526020600020015411611d4b5760405162461bcd60e51b815260206004820181905260248201527f50726963696e672077697468204d696e745061737320697320696e76616c696460448201526064016107ba565b60006101088281548110611d6157611d616142b7565b906000526020600020015411611dc55760405162461bcd60e51b815260206004820152602360248201527f50726963696e6720776974686f7574204d696e745061737320697320696e76616044820152621b1a5960ea1b60648201526084016107ba565b80611dcf8161425c565b915050611c5a565b508015611e1e576000805461ff0019169055604051600181527f7f26b83ff96e1f2b6a682f133852f6798a09c465da95921460cefb38474024989060200160405180910390a15b505050505050505050565b6000611e356101065490565b61010554611e4391906141de565b905090565b611e506126c9565b60005b61010354811015611ebf57600061010460006101038481548110611e7957611e796142b7565b6000918252602080832091909101546001600160a01b031683528201929092526040019020805460ff191691151591909117905580611eb78161425c565b915050611e53565b5060408051600081526020810191829052516109819161010391613632565b606061010282604051611ef19190613d33565b908152604080519182900360209081018320805480830285018301909352828452919083018282801561175a57602002820191906000526020600020908154815260200190600101908083116117465750505050509050919050565b6060818310611f945760405162461bcd60e51b815260206004820152601360248201527214185c985b595d195c9cc81a5b881d985b1a59606a1b60448201526064016107ba565b6001600160a01b038416600090815260ff60205260409020548210611ff15760405162461bcd60e51b815260206004820152601360248201527214185c985b595d195c9cc81a5b881d985b1a59606a1b60448201526064016107ba565b6000611ffd84846141de565b6120089060016141b2565b6001600160401b0381111561201f5761201f6142cd565b60405190808252806020026020018201604052801561206457816020015b604080518082019091526000808252602082015281526020019060019003908161203d5790505b509050835b838111612176576001600160a01b038616600090815260ff6020526040812080548390811061209a5761209a6142b7565b6000918252602091829020015460408051808201825282815260fc5491516331a9108f60e11b815260048101849052929450928301916001600160a01b038b8116921690636352211e9060240160206040518083038186803b1580156120ff57600080fd5b505afa158015612113573d6000803e3d6000fd5b505050506040513d601f19601f8201168201806040525081019061213791906138a6565b6001600160a01b03161490528351849084908110612157576121576142b7565b602002602001018190525050808061216e9061425c565b915050612069565b5090505b9392505050565b6121896126c9565b60005b82518110156121ca576121b88382815181106121aa576121aa6142b7565b6020026020010151836129ca565b806121c28161425c565b91505061218c565b505050565b600260015414156121f25760405162461bcd60e51b81526004016107ba90614128565b60026001553360005b8251811015612239576122278284838151811061221a5761221a6142b7565b6020026020010151612e39565b806122318161425c565b9150506121fb565b50506001805550565b61224a6126c9565b6001600160a01b0381166122a05760405162461bcd60e51b815260206004820152601a60248201527f57616c6c657420697320746865207a65726f206164647265737300000000000060448201526064016107ba565b61010980546001600160a01b0319166001600160a01b0392909216919091179055565b6001600160a01b038116600090815260fe6020526040812054606091906001600160401b038111156122f7576122f76142cd565b60405190808252806020026020018201604052801561234457816020015b604080516060808201835260008083526020830152918101919091528152602001906001900390816123155790505b50905060005b6001600160a01b038416600090815260fe6020526040902054811015610a40576001600160a01b038416600090815260fe60205260408120805483908110612394576123946142b7565b9060005260206000200154905060405180606001604052808281526020016123bb83611813565b15158152600083815260fd6020908152604091829020805483518184028101840190945280845293820193909183018282801561241757602002820191906000526020600020905b815481526020019060010190808311612403575b5050505050815250838381518110612431576124316142b7565b60200260200101819052505080806124489061425c565b91505061234a565b6124586126c9565b6001600160a01b0381166124bd5760405162461bcd60e51b815260206004820152602660248201527f4f776e61626c653a206e6577206f776e657220697320746865207a65726f206160448201526564647265737360d01b60648201526084016107ba565b61098181612d91565b610107818154811061078657600080fd5b6124df612fa3565b6124e881612ff4565b6109818161309e565b805161253f5760405162461bcd60e51b815260206004820152601b60248201527f5472616e73616374696f6e206b6579206973207265717569726564000000000060448201526064016107ba565b610102816040516125509190613d33565b90815260405190819003602001902054156109815760405162461bcd60e51b815260206004820152602160248201527f546865207472616e73616374696f6e206b657920686173206265656e207573656044820152601960fa1b60648201526084016107ba565b60fc5461010a546040516354ba0f2760e01b81526001600160a01b039182166004820152600092839216906354ba0f2790602401602060405180830381600087803b15801561260557600080fd5b505af1158015612619573d6000803e3d6000fd5b505050506040513d601f19601f8201168201806040525081019061263d9190613ae8565b61010a546001600160a01b0316600090815260ff6020908152604082208054600181018255908352912001819055905061267c61010680546001019055565b6101028360405161268d9190613d33565b908152604080516020928190038301902080546001810182556000918252838220018490558381526101008352208451610a4092860190613687565b6065546001600160a01b031633146117785760405162461bcd60e51b815260206004820181905260248201527f4f776e61626c653a2063616c6c6572206973206e6f7420746865206f776e657260448201526064016107ba565b61010a5460fb546040516331a9108f60e11b8152600481018490526001600160a01b039283169290911690636352211e9060240160206040518083038186803b15801561276f57600080fd5b505afa158015612783573d6000803e3d6000fd5b505050506040513d601f19601f820116820180604052508101906127a791906138a6565b6001600160a01b0316146127ba82613152565b6040516020016127ca9190613e21565b604051602081830303815290604052906127f75760405162461bcd60e51b81526004016107ba9190613f50565b5061280181611813565b1561280b82613152565b60405160200161281b9190613dc5565b6040516020818303038152906040529061128b5760405162461bcd60e51b81526004016107ba9190613f50565b6109816126c9565b7f4910fdfa16fed3260ed0e7147f7cc6da11a60208b5b9406d12a635614ffd91435460ff1615612883576121ca83613257565b826001600160a01b03166352d1902d6040518163ffffffff1660e01b815260040160206040518083038186803b1580156128bc57600080fd5b505afa9250505080156128ec575060408051601f3d908101601f191682019092526128e991810190613ae8565b60015b61294f5760405162461bcd60e51b815260206004820152602e60248201527f45524331393637557067726164653a206e657720696d706c656d656e7461746960448201526d6f6e206973206e6f74205555505360901b60648201526084016107ba565b6000805160206142f983398151915281146129be5760405162461bcd60e51b815260206004820152602960248201527f45524331393637557067726164653a20756e737570706f727465642070726f786044820152681a58589b195555525160ba1b60648201526084016107ba565b506121ca8383836132f3565b6001600160a01b038216612a2a5760405162461bcd60e51b815260206004820152602160248201527f5468656f206f70657261746f7220697320746865207a65726f206164647265736044820152607360f81b60648201526084016107ba565b6001600160a01b038216301415612a915760405162461bcd60e51b815260206004820152602560248201527f546865206f70657261746f72206973207468697320636f6e7472616374206164604482015264647265737360d81b60648201526084016107ba565b610109546001600160a01b0383811691161415612ac05760405162461bcd60e51b81526004016107ba90613fb3565b6001600160a01b038216331415612ae95760405162461bcd60e51b81526004016107ba90613fb3565b6001600160a01b038216600090815261010460205260409020805460ff1916821580159190911790915561128b5761010380546001810182556000919091527f02c297ab74aad0aede3a1895c857b1f2c71e6a203feb727bec95ac752998cb780180546001600160a01b0384166001600160a01b03199091161790555050565b6000612bd48483612b7c57610108612b80565b6101075b805480602002602001604051908101604052809291908181526020018280548015612bca57602002820191906000526020600020905b815481526020019060010190808311612bb6575b5050505050613318565b9050808314612c185760405162461bcd60e51b815260206004820152601060248201526f141c9a58d9481a5cc81a5b9d985b1a5960821b60448201526064016107ba565b50505050565b6000805b6001600160a01b038316600090815260fe6020526040902054811015612ca0576001600160a01b038316600090815260fe60205260408120805483908110612c6c57612c6c6142b7565b90600052602060002001549050612c8281611813565b612c8d579392505050565b5080612c988161425c565b915050612c22565b50600092915050565b60fc546040516354ba0f2760e01b81526001600160a01b03838116600483015260009283929116906354ba0f2790602401602060405180830381600087803b158015612cf457600080fd5b505af1158015612d08573d6000803e3d6000fd5b505050506040513d601f19601f82011682018060405250810190612d2c9190613ae8565b6001600160a01b038416600090815260ff60209081526040822080546001810182559083529120018190559050612d6861010680546001019055565b60408051602080820180845260008084528581526101009092529290209051610a409290613687565b606580546001600160a01b038381166001600160a01b0319831681179093556040519116919082907f8be0079c531659141344cd1fd0a4f28419497f9722a3daafe3b4186f6b6457e090600090a35050565b600054610100900460ff16612e0a5760405162461bcd60e51b81526004016107ba906140dd565b6117786133a6565b600054610100900460ff166117785760405162461bcd60e51b81526004016107ba906140dd565b60fb546040516331a9108f60e11b8152600481018390526001600160a01b03848116921690636352211e9060240160206040518083038186803b158015612e7f57600080fd5b505afa158015612e93573d6000803e3d6000fd5b505050506040513d601f19601f82011682018060405250810190612eb791906138a6565b6001600160a01b031614612f0d5760405162461bcd60e51b815260206004820152601960248201527f43616c6c6572206973206e6f7420746f6b656e206f776e65720000000000000060448201526064016107ba565b6001600160a01b03828116600081815260fe602090815260408083208054600181018255908452919092200184905560fb5490516323b872dd60e01b8152600481019290925230602483015260448201849052909116906323b872dd90606401600060405180830381600087803b158015612f8757600080fd5b505af1158015612f9b573d6000803e3d6000fd5b505050505050565b60fc54600160a01b900460ff166117785760405162461bcd60e51b81526020600482015260156024820152744d696e74204e4654206973206e6f7420726561647960581b60448201526064016107ba565b6000805b61010154811015613061576101018181548110613017576130176142b7565b90600052602060002090601091828204019190066002029054906101000a900461ffff1661ffff168361ffff16141561304f57600191505b806130598161425c565b915050612ff8565b508061128b5760405162461bcd60e51b815260206004820152600c60248201526b141858dac81a5b9d985b1a5960a21b60448201526064016107ba565b60006130aa6101065490565b610105546130b891906141de565b90508161ffff168110156130cb82613152565b600183116130f557604051806040016040528060048152602001630813919560e21b815250613114565b60405180604001604052806005815260200164204e46547360d81b8152505b604051602001613125929190613d4f565b604051602081830303815290604052906121ca5760405162461bcd60e51b81526004016107ba9190613f50565b6060816131765750506040805180820190915260018152600360fc1b602082015290565b8160005b81156131a0578061318a8161425c565b91506131999050600a836141ca565b915061317a565b6000816001600160401b038111156131ba576131ba6142cd565b6040519080825280601f01601f1916602001820160405280156131e4576020820181803683370190505b5090505b841561324f576131f96001836141de565b9150613206600a86614277565b6132119060306141b2565b60f81b818381518110613226576132266142b7565b60200101906001600160f81b031916908160001a905350613248600a866141ca565b94506131e8565b949350505050565b6001600160a01b0381163b6132c45760405162461bcd60e51b815260206004820152602d60248201527f455243313936373a206e657720696d706c656d656e746174696f6e206973206e60448201526c1bdd08184818dbdb9d1c9858dd609a1b60648201526084016107ba565b6000805160206142f983398151915280546001600160a01b0319166001600160a01b0392909216919091179055565b6132fc836133d6565b6000825111806133095750805b156121ca57612c188383613416565b600080805b6101015481101561339e57610101818154811061333c5761333c6142b7565b90600052602060002090601091828204019190066002029054906101000a900461ffff1661ffff168561ffff16141561338c57838181518110613381576133816142b7565b602002602001015191505b806133968161425c565b91505061331d565b509392505050565b600054610100900460ff166133cd5760405162461bcd60e51b81526004016107ba906140dd565b61177833612d91565b6133df81613257565b6040516001600160a01b038216907fbc7cd75a20ee27fd9adebab32041f755214dbc6bffa90cc0225b39da2e5c2d3b90600090a250565b60606001600160a01b0383163b61347e5760405162461bcd60e51b815260206004820152602660248201527f416464726573733a2064656c65676174652063616c6c20746f206e6f6e2d636f6044820152651b9d1c9858dd60d21b60648201526084016107ba565b600080846001600160a01b0316846040516134999190613d33565b600060405180830381855af49150503d80600081146134d4576040519150601f19603f3d011682016040523d82523d6000602084013e6134d9565b606091505b509150915061350182826040518060600160405280602781526020016143396027913961350a565b95945050505050565b6060831561351957508161217a565b8251156135295782518084602001fd5b8160405162461bcd60e51b81526004016107ba9190613f50565b82805482825590600052602060002090810192821561357e579160200282015b8281111561357e578251825591602001919060010190613563565b5061358a9291506136fa565b5090565b82805482825590600052602060002090600f0160109004810192821561357e5791602002820160005b838211156135f757835183826101000a81548161ffff021916908361ffff16021790555092602001926002016020816001010492830192600103026135b7565b80156136255782816101000a81549061ffff02191690556002016020816001010492830192600103026135f7565b505061358a9291506136fa565b82805482825590600052602060002090810192821561357e579160200282015b8281111561357e57825182546001600160a01b0319166001600160a01b03909116178255602090920191600190910190613652565b82805461369390614221565b90600052602060002090601f0160209004810192826136b5576000855561357e565b82601f106136ce57805160ff191683800117855561357e565b8280016001018555821561357e579182018281111561357e578251825591602001919060010190613563565b5b8082111561358a57600081556001016136fb565b803561371a816142e3565b919050565b600082601f83011261373057600080fd5b813560206137456137408361418f565b61415f565b80838252828201915082860187848660051b890101111561376557600080fd5b60005b8581101561378b5761377982613877565b84529284019290840190600101613768565b5090979650505050505050565b600082601f8301126137a957600080fd5b813560206137b96137408361418f565b80838252828201915082860187848660051b89010111156137d957600080fd5b60005b8581101561378b578135845292840192908401906001016137dc565b8035801515811461371a57600080fd5b600082601f83011261381957600080fd5b81356001600160401b03811115613832576138326142cd565b613845601f8201601f191660200161415f565b81815284602083860101111561385a57600080fd5b816020850160208301376000918101602001919091529392505050565b803561ffff8116811461371a57600080fd5b60006020828403121561389b57600080fd5b813561217a816142e3565b6000602082840312156138b857600080fd5b815161217a816142e3565b600080600080608085870312156138d957600080fd5b84356138e4816142e3565b935060208501356138f4816142e3565b92506040850135915060608501356001600160401b0381111561391657600080fd5b61392287828801613808565b91505092959194509250565b6000806040838503121561394157600080fd5b823561394c816142e3565b915061395a602084016137f8565b90509250929050565b6000806040838503121561397657600080fd5b8235613981816142e3565b915060208301356001600160401b0381111561399c57600080fd5b6139a885828601613808565b9150509250929050565b6000806000606084860312156139c757600080fd5b83356139d2816142e3565b95602085013595506040909401359392505050565b600080604083850312156139fa57600080fd5b82356001600160401b03811115613a1057600080fd5b8301601f81018513613a2157600080fd5b80356020613a316137408361418f565b80838252828201915082850189848660051b8801011115613a5157600080fd5b600095505b84861015613a7d578035613a69816142e3565b835260019590950194918301918301613a56565b509550613a8d90508682016137f8565b93505050509250929050565b600060208284031215613aab57600080fd5b81356001600160401b03811115613ac157600080fd5b61324f84828501613798565b600060208284031215613adf57600080fd5b61217a826137f8565b600060208284031215613afa57600080fd5b5051919050565b600060208284031215613b1357600080fd5b81356001600160401b03811115613b2957600080fd5b61324f84828501613808565b600060208284031215613b4757600080fd5b61217a82613877565b600080600060608486031215613b6557600080fd5b613b6e84613877565b925060208401356001600160401b0380821115613b8a57600080fd5b613b9687838801613798565b93506040860135915080821115613bac57600080fd5b50613bb986828701613808565b9150509250925092565b60008060408385031215613bd657600080fd5b61398183613877565b600060208284031215613bf157600080fd5b5035919050565b600080600080600080600080610100898b031215613c1557600080fd5b8835975060208901356001600160401b0380821115613c3357600080fd5b613c3f8c838d0161371f565b985060408b0135915080821115613c5557600080fd5b613c618c838d01613798565b975060608b0135915080821115613c7757600080fd5b50613c848b828c01613798565b955050613c9360808a0161370f565b9350613ca160a08a0161370f565b9250613caf60c08a0161370f565b9150613cbd60e08a0161370f565b90509295985092959890939650565b600081518084526020808501945080840160005b83811015613cfc57815187529582019590820190600101613ce0565b509495945050505050565b60008151808452613d1f8160208601602086016141f5565b601f01601f19169290920160200192915050565b60008251613d458184602087016141f5565b9190910192915050565b7f546865206e756d626572206f66204e465473206973206e6f7420656e6f756768815271016103a3434b9903937bab732103632b33a160751b602082015260008351613da28160328501602088016141f5565b835190830190613db98160328401602088016141f5565b01603201949350505050565b6c4d696e74506173734e4654202360981b815260008251613ded81600d8501602087016141f5565b7f20776173207573656420696e207468697320726f756e64000000000000000000600d939091019283015250602401919050565b6c4d696e74506173734e4654202360981b815260008251613e4981600d8501602087016141f5565b6a081a5cc81a5b9d985b1a5960aa1b600d939091019283015250601801919050565b60006020808301818452808551808352604092508286019150828160051b87010184880160005b83811015613ede57888303603f19018552815180518452878101511515888501528601516060878501819052613eca81860183613ccc565b968901969450505090860190600101613e92565b509098975050505050505050565b602080825282518282018190526000919060409081850190868401855b82811015613f30578151805185528601511515868501529284019290850190600101613f09565b5091979650505050505050565b60208152600061217a6020830184613ccc565b60208152600061217a6020830184613d07565b604081526000613f766040830185613d07565b60208382038185015281855480845282840191508660005282600020935060005b8181101561378b57845483526001948501949284019201613f97565b60208082526023908201527f546865206f70657261746f7220697320746865206f776e65722773206164647260408201526265737360e81b606082015260800190565b6020808252602c908201527f46756e6374696f6e206d7573742062652063616c6c6564207468726f7567682060408201526b19195b1959d85d1958d85b1b60a21b606082015260800190565b6020808252602c908201527f46756e6374696f6e206d7573742062652063616c6c6564207468726f7567682060408201526b6163746976652070726f787960a01b606082015260800190565b6020808252602f908201527f4f776e61626c653a2063616c6c6572206973206e6f7420746865206f776e657260408201526e081bdc881a5cc8185c1c1c9bdd9959608a1b606082015260800190565b6020808252602b908201527f496e697469616c697a61626c653a20636f6e7472616374206973206e6f74206960408201526a6e697469616c697a696e6760a81b606082015260800190565b6020808252601f908201527f5265656e7472616e637947756172643a207265656e7472616e742063616c6c00604082015260600190565b604051601f8201601f191681016001600160401b0381118282101715614187576141876142cd565b604052919050565b60006001600160401b038211156141a8576141a86142cd565b5060051b60200190565b600082198211156141c5576141c561428b565b500190565b6000826141d9576141d96142a1565b500490565b6000828210156141f0576141f061428b565b500390565b60005b838110156142105781810151838201526020016141f8565b83811115612c185750506000910152565b600181811c9082168061423557607f821691505b6020821081141561425657634e487b7160e01b600052602260045260246000fd5b50919050565b60006000198214156142705761427061428b565b5060010190565b600082614286576142866142a1565b500690565b634e487b7160e01b600052601160045260246000fd5b634e487b7160e01b600052601260045260246000fd5b634e487b7160e01b600052603260045260246000fd5b634e487b7160e01b600052604160045260246000fd5b6001600160a01b038116811461098157600080fdfe360894a13ba1a3210667c828492db98dca3e2076cc3735a920a3ca505d382bbc69031b1a7e7913762e884dd55b4b42c47d8a362a2715200304a1e1a0f63ec309416464726573733a206c6f772d6c6576656c2064656c65676174652063616c6c206661696c6564a26469706673582212206cb8a0fa0ad149d947487dc7c0c9ca0c2588e1d342892216bb1833b58e39b5cf64736f6c63430008070033",
  "linkReferences": {},
  "deployedLinkReferences": {}
}