{
  "_format": "hh-sol-artifact-1",
  "contractName": "UMoonFitNFTSale",
  "sourceName": "contracts/upgradeables/UMoonFitNFTSale.sol",
  "abi": [
    {
      "inputs": [],
      "stateMutability": "nonpayable",
      "type": "constructor"
    },
    {
      "anonymous": false,
      "inputs": [
        {
          "indexed": false,
          "internalType": "address",
          "name": "previousAdmin",
          "type": "address"
        },
        {
          "indexed": false,
          "internalType": "address",
          "name": "newAdmin",
          "type": "address"
        }
      ],
      "name": "AdminChanged",
      "type": "event"
    },
    {
      "anonymous": false,
      "inputs": [
        {
          "indexed": true,
          "internalType": "address",
          "name": "beacon",
          "type": "address"
        }
      ],
      "name": "BeaconUpgraded",
      "type": "event"
    },
    {
      "anonymous": false,
      "inputs": [
        {
          "indexed": false,
          "internalType": "uint8",
          "name": "version",
          "type": "uint8"
        }
      ],
      "name": "Initialized",
      "type": "event"
    },
    {
      "anonymous": false,
      "inputs": [
        {
          "indexed": false,
          "internalType": "address",
          "name": "beneficiary",
          "type": "address"
        },
        {
          "indexed": false,
          "internalType": "uint256",
          "name": "mintPassId",
          "type": "uint256"
        }
      ],
      "name": "NFTPurchased",
      "type": "event"
    },
    {
      "anonymous": false,
      "inputs": [
        {
          "indexed": true,
          "internalType": "address",
          "name": "previousOwner",
          "type": "address"
        },
        {
          "indexed": true,
          "internalType": "address",
          "name": "newOwner",
          "type": "address"
        }
      ],
      "name": "OwnershipTransferred",
      "type": "event"
    },
    {
      "anonymous": false,
      "inputs": [
        {
          "indexed": true,
          "internalType": "address",
          "name": "implementation",
          "type": "address"
        }
      ],
      "name": "Upgraded",
      "type": "event"
    },
    {
      "inputs": [],
      "name": "_maxSaleAmount",
      "outputs": [
        {
          "internalType": "uint256",
          "name": "",
          "type": "uint256"
        }
      ],
      "stateMutability": "view",
      "type": "function"
    },
    {
      "inputs": [],
      "name": "_mintPassNFT",
      "outputs": [
        {
          "internalType": "contract IERC721Enumerable",
          "name": "",
          "type": "address"
        }
      ],
      "stateMutability": "view",
      "type": "function"
    },
    {
      "inputs": [],
      "name": "_moonBeastNFT",
      "outputs": [
        {
          "internalType": "contract MoonBeast",
          "name": "",
          "type": "address"
        }
      ],
      "stateMutability": "view",
      "type": "function"
    },
    {
      "inputs": [],
      "name": "_nftPerPass",
      "outputs": [
        {
          "internalType": "uint16",
          "name": "",
          "type": "uint16"
        }
      ],
      "stateMutability": "view",
      "type": "function"
    },
    {
      "inputs": [],
      "name": "_price",
      "outputs": [
        {
          "internalType": "uint256",
          "name": "",
          "type": "uint256"
        }
      ],
      "stateMutability": "view",
      "type": "function"
    },
    {
      "inputs": [],
      "name": "_wallet",
      "outputs": [
        {
          "internalType": "address payable",
          "name": "",
          "type": "address"
        }
      ],
      "stateMutability": "view",
      "type": "function"
    },
    {
      "inputs": [
        {
          "internalType": "uint256[]",
          "name": "mintPassIds",
          "type": "uint256[]"
        },
        {
          "internalType": "uint16",
          "name": "amount",
          "type": "uint16"
        }
      ],
      "name": "buyNFT",
      "outputs": [],
      "stateMutability": "payable",
      "type": "function"
    },
    {
      "inputs": [
        {
          "internalType": "uint256",
          "name": "passId",
          "type": "uint256"
        }
      ],
      "name": "checkMintPass",
      "outputs": [
        {
          "internalType": "bool",
          "name": "",
          "type": "bool"
        }
      ],
      "stateMutability": "view",
      "type": "function"
    },
    {
      "inputs": [
        {
          "internalType": "uint256",
          "name": "tokenId",
          "type": "uint256"
        }
      ],
      "name": "checkOwnerMinted",
      "outputs": [
        {
          "internalType": "bool",
          "name": "",
          "type": "bool"
        }
      ],
      "stateMutability": "view",
      "type": "function"
    },
    {
      "inputs": [],
      "name": "getAvailableSlots",
      "outputs": [
        {
          "internalType": "uint256",
          "name": "",
          "type": "uint256"
        }
      ],
      "stateMutability": "view",
      "type": "function"
    },
    {
      "inputs": [],
      "name": "getContractBalance",
      "outputs": [
        {
          "internalType": "uint256",
          "name": "",
          "type": "uint256"
        }
      ],
      "stateMutability": "view",
      "type": "function"
    },
    {
      "inputs": [
        {
          "internalType": "address",
          "name": "owner",
          "type": "address"
        }
      ],
      "name": "getMintPass",
      "outputs": [
        {
          "components": [
            {
              "internalType": "uint256",
              "name": "tokenId",
              "type": "uint256"
            },
            {
              "internalType": "uint16",
              "name": "bought",
              "type": "uint16"
            },
            {
              "internalType": "uint16",
              "name": "maxAmount",
              "type": "uint16"
            }
          ],
          "internalType": "struct MintPassNFTSale[]",
          "name": "",
          "type": "tuple[]"
        }
      ],
      "stateMutability": "view",
      "type": "function"
    },
    {
      "inputs": [
        {
          "internalType": "uint256",
          "name": "mintPassId",
          "type": "uint256"
        }
      ],
      "name": "getMintPassAvailableSlots",
      "outputs": [
        {
          "internalType": "uint16",
          "name": "",
          "type": "uint16"
        }
      ],
      "stateMutability": "view",
      "type": "function"
    },
    {
      "inputs": [
        {
          "internalType": "uint256",
          "name": "tokenId",
          "type": "uint256"
        }
      ],
      "name": "getMintPassInfo",
      "outputs": [
        {
          "components": [
            {
              "internalType": "uint256",
              "name": "tokenId",
              "type": "uint256"
            },
            {
              "internalType": "uint16",
              "name": "bought",
              "type": "uint16"
            },
            {
              "internalType": "uint16",
              "name": "maxAmount",
              "type": "uint16"
            }
          ],
          "internalType": "struct MintPassNFTSale",
          "name": "",
          "type": "tuple"
        }
      ],
      "stateMutability": "view",
      "type": "function"
    },
    {
      "inputs": [
        {
          "internalType": "uint256",
          "name": "mintPassId",
          "type": "uint256"
        },
        {
          "internalType": "uint8",
          "name": "index",
          "type": "uint8"
        }
      ],
      "name": "getMintPassUsage",
      "outputs": [
        {
          "internalType": "uint256",
          "name": "",
          "type": "uint256"
        }
      ],
      "stateMutability": "view",
      "type": "function"
    },
    {
      "inputs": [
        {
          "internalType": "address",
          "name": "owner",
          "type": "address"
        }
      ],
      "name": "getMoonBeast",
      "outputs": [
        {
          "components": [
            {
              "internalType": "uint256",
              "name": "tokenId",
              "type": "uint256"
            },
            {
              "internalType": "string",
              "name": "uri",
              "type": "string"
            },
            {
              "internalType": "bool",
              "name": "ownerMinted",
              "type": "bool"
            }
          ],
          "internalType": "struct MoonBeastNFTSale[]",
          "name": "",
          "type": "tuple[]"
        }
      ],
      "stateMutability": "view",
      "type": "function"
    },
    {
      "inputs": [],
      "name": "getReadySale",
      "outputs": [
        {
          "internalType": "bool",
          "name": "",
          "type": "bool"
        }
      ],
      "stateMutability": "view",
      "type": "function"
    },
    {
      "inputs": [
        {
          "internalType": "uint256",
          "name": "maxSaleAmount",
          "type": "uint256"
        },
        {
          "internalType": "uint256",
          "name": "price",
          "type": "uint256"
        },
        {
          "internalType": "uint16",
          "name": "nftPerPass",
          "type": "uint16"
        },
        {
          "internalType": "address",
          "name": "mintPassNFT",
          "type": "address"
        },
        {
          "internalType": "address",
          "name": "moonBeastNFT",
          "type": "address"
        },
        {
          "internalType": "address",
          "name": "wallet",
          "type": "address"
        }
      ],
      "name": "initialize",
      "outputs": [],
      "stateMutability": "nonpayable",
      "type": "function"
    },
    {
      "inputs": [],
      "name": "owner",
      "outputs": [
        {
          "internalType": "address",
          "name": "",
          "type": "address"
        }
      ],
      "stateMutability": "view",
      "type": "function"
    },
    {
      "inputs": [],
      "name": "proxiableUUID",
      "outputs": [
        {
          "internalType": "bytes32",
          "name": "",
          "type": "bytes32"
        }
      ],
      "stateMutability": "view",
      "type": "function"
    },
    {
      "inputs": [],
      "name": "renounceOwnership",
      "outputs": [],
      "stateMutability": "nonpayable",
      "type": "function"
    },
    {
      "inputs": [
        {
          "internalType": "uint256",
          "name": "maxSaleAmount",
          "type": "uint256"
        }
      ],
      "name": "setMaxSaleAmount",
      "outputs": [],
      "stateMutability": "nonpayable",
      "type": "function"
    },
    {
      "inputs": [
        {
          "internalType": "address",
          "name": "mintPass",
          "type": "address"
        }
      ],
      "name": "setMintPassNFT",
      "outputs": [],
      "stateMutability": "nonpayable",
      "type": "function"
    },
    {
      "inputs": [
        {
          "internalType": "address",
          "name": "moonBeast",
          "type": "address"
        }
      ],
      "name": "setMoonBeastNFT",
      "outputs": [],
      "stateMutability": "nonpayable",
      "type": "function"
    },
    {
      "inputs": [
        {
          "internalType": "uint16",
          "name": "value",
          "type": "uint16"
        }
      ],
      "name": "setNftPerPass",
      "outputs": [],
      "stateMutability": "nonpayable",
      "type": "function"
    },
    {
      "inputs": [
        {
          "internalType": "uint256",
          "name": "price",
          "type": "uint256"
        }
      ],
      "name": "setPrice",
      "outputs": [],
      "stateMutability": "nonpayable",
      "type": "function"
    },
    {
      "inputs": [
        {
          "internalType": "bool",
          "name": "value",
          "type": "bool"
        }
      ],
      "name": "setReadySale",
      "outputs": [],
      "stateMutability": "nonpayable",
      "type": "function"
    },
    {
      "inputs": [
        {
          "internalType": "address payable",
          "name": "wallet",
          "type": "address"
        }
      ],
      "name": "setWallet",
      "outputs": [],
      "stateMutability": "nonpayable",
      "type": "function"
    },
    {
      "inputs": [
        {
          "internalType": "address",
          "name": "newOwner",
          "type": "address"
        }
      ],
      "name": "transferOwnership",
      "outputs": [],
      "stateMutability": "nonpayable",
      "type": "function"
    },
    {
      "inputs": [
        {
          "internalType": "address",
          "name": "newImplementation",
          "type": "address"
        }
      ],
      "name": "upgradeTo",
      "outputs": [],
      "stateMutability": "nonpayable",
      "type": "function"
    },
    {
      "inputs": [
        {
          "internalType": "address",
          "name": "newImplementation",
          "type": "address"
        },
        {
          "internalType": "bytes",
          "name": "data",
          "type": "bytes"
        }
      ],
      "name": "upgradeToAndCall",
      "outputs": [],
      "stateMutability": "payable",
      "type": "function"
    },
    {
      "inputs": [],
      "name": "withdrawTokenByOwner",
      "outputs": [],
      "stateMutability": "nonpayable",
      "type": "function"
    }
  ],
  "bytecode": "0x60a06040523073ffffffffffffffffffffffffffffffffffffffff1660809073ffffffffffffffffffffffffffffffffffffffff1660601b8152503480156200004757600080fd5b50620000586200005e60201b60201c565b62000209565b600060019054906101000a900460ff1615620000b1576040517f08c379a0000000000000000000000000000000000000000000000000000000008152600401620000a8906200015d565b60405180910390fd5b60ff801660008054906101000a900460ff1660ff161015620001235760ff6000806101000a81548160ff021916908360ff1602179055507f7f26b83ff96e1f2b6a682f133852f6798a09c465da95921460cefb384740249860ff6040516200011a91906200017f565b60405180910390a15b565b6000620001346027836200019c565b91506200014182620001ba565b604082019050919050565b6200015781620001ad565b82525050565b60006020820190508181036000830152620001788162000125565b9050919050565b60006020820190506200019660008301846200014c565b92915050565b600082825260208201905092915050565b600060ff82169050919050565b7f496e697469616c697a61626c653a20636f6e747261637420697320696e69746960008201527f616c697a696e6700000000000000000000000000000000000000000000000000602082015250565b60805160601c61502e6200024460003960008181610eeb01528181610f7a015281816110890152818161111801526111ed015261502e6000f3fe6080604052600436106101e35760003560e01c8063715018a611610102578063d5d753a411610095578063deed00f611610064578063deed00f61461069e578063e22027de146106c9578063f2fde38b14610706578063f89595b51461072f576101e3565b8063d5d753a4146105d2578063d84e575b146105fb578063dd1f3f6914610638578063deaa59df14610675576101e3565b80638c971cd0116100d15780638c971cd0146105165780638da5cb5b1461055357806391b7f5ed1461057e578063b9d18eae146105a7576101e3565b8063715018a61461046e5780637428edea1461048557806381097e32146104b05780638810d276146104ed576101e3565b80633e823eed1161017a57806358f157bd1161014957806358f157bd146103b25780635d0a8f6d146103ef578063610757e4146104185780636f9fb98a14610443576101e3565b80633e823eed146103175780634f1ef28614610342578063514c1ba61461035e57806352d1902d14610387576101e3565b8063235b6ea1116101b6578063235b6ea11461026f5780632725368f1461029a5780632bfccd3c146102c55780633659cfe6146102ee576101e3565b80630b154c47146101e857806312c0aeb91461021357806322298b9c1461022a578063228443d814610246575b600080fd5b3480156101f457600080fd5b506101fd61076c565b60405161020a9190613c58565b60405180910390f35b34801561021f57600080fd5b50610228610792565b005b610244600480360381019061023f9190613063565b610849565b005b34801561025257600080fd5b5061026d60048036038101906102689190612f80565b610d44565b005b34801561027b57600080fd5b50610284610e00565b6040516102919190614101565b60405180910390f35b3480156102a657600080fd5b506102af610e07565b6040516102bc9190613c73565b60405180910390f35b3480156102d157600080fd5b506102ec60048036038101906102e79190612f80565b610e2d565b005b3480156102fa57600080fd5b5061031560048036038101906103109190612f80565b610ee9565b005b34801561032357600080fd5b5061032c611072565b60405161033991906140e6565b60405180910390f35b61035c60048036038101906103579190613007565b611087565b005b34801561036a57600080fd5b50610385600480360381019061038091906130c3565b6111c4565b005b34801561039357600080fd5b5061039c6111e9565b6040516103a99190613c3d565b60405180910390f35b3480156103be57600080fd5b506103d960048036038101906103d49190613193565b6112a2565b6040516103e69190613c22565b60405180910390f35b3480156103fb57600080fd5b5061041660048036038101906104119190613193565b6112cc565b005b34801561042457600080fd5b5061042d61136e565b60405161043a9190613b9a565b60405180910390f35b34801561044f57600080fd5b50610458611395565b6040516104659190614101565b60405180910390f35b34801561047a57600080fd5b506104836113a2565b005b34801561049157600080fd5b5061049a6113b6565b6040516104a79190614101565b60405180910390f35b3480156104bc57600080fd5b506104d760048036038101906104d29190612f80565b6113bd565b6040516104e49190613c00565b60405180910390f35b3480156104f957600080fd5b50610514600480360381019061050f9190613166565b6116ae565b005b34801561052257600080fd5b5061053d6004803603810190610538919061327a565b61171e565b60405161054a9190614101565b60405180910390f35b34801561055f57600080fd5b506105686117b7565b6040516105759190613b7f565b60405180910390f35b34801561058a57600080fd5b506105a560048036038101906105a09190613193565b6117e1565b005b3480156105b357600080fd5b506105bc611837565b6040516105c99190614101565b60405180910390f35b3480156105de57600080fd5b506105f960048036038101906105f491906131ed565b611857565b005b34801561060757600080fd5b50610622600480360381019061061d9190612f80565b611ccd565b60405161062f9190613bde565b60405180910390f35b34801561064457600080fd5b5061065f600480360381019061065a9190613193565b611ed2565b60405161066c91906140cb565b60405180910390f35b34801561068157600080fd5b5061069c60048036038101906106979190612fda565b611f36565b005b3480156106aa57600080fd5b506106b3611ff3565b6040516106c09190613c22565b60405180910390f35b3480156106d557600080fd5b506106f060048036038101906106eb9190613193565b61200a565b6040516106fd91906140e6565b60405180910390f35b34801561071257600080fd5b5061072d60048036038101906107289190612f80565b612051565b005b34801561073b57600080fd5b5061075660048036038101906107519190613193565b6120d5565b6040516107639190613c22565b60405180910390f35b60fb60009054906101000a900473ffffffffffffffffffffffffffffffffffffffff1681565b61079a61211c565b600047116107dd576040517f08c379a00000000000000000000000000000000000000000000000000000000081526004016107d490613f8b565b60405180910390fd5b61010360029054906101000a900473ffffffffffffffffffffffffffffffffffffffff1673ffffffffffffffffffffffffffffffffffffffff166108fc479081150290604051600060405180830381858888f19350505050158015610846573d6000803e3d6000fd5b50565b6002600154141561088f576040517f08c379a00000000000000000000000000000000000000000000000000000000081526004016108869061408b565b60405180910390fd5b600260018190555060fc60149054906101000a900460ff166108e6576040517f08c379a00000000000000000000000000000000000000000000000000000000081526004016108dd90613feb565b60405180910390fd5b60008161ffff161161092d576040517f08c379a000000000000000000000000000000000000000000000000000000000815260040161092490613ceb565b60405180910390fd5b600061093a61010161219a565b6101005461094891906143b0565b90508161ffff1681101561095b826121a8565b6001831161099e576040518060400160405280600481526020017f204e4654000000000000000000000000000000000000000000000000000000008152506109d5565b6040518060400160405280600581526020017f204e4654730000000000000000000000000000000000000000000000000000008152505b6040516020016109e6929190613b45565b60405160208183030381529060405290610a36576040517f08c379a0000000000000000000000000000000000000000000000000000000008152600401610a2d9190613ca9565b60405180910390fd5b506000610a41612309565b90506000610a5182878787612311565b610a608461ffff1683346123fa565b60005b86869050811015610d34576000878783818110610a8357610a82614633565b5b90506020020135905060005b61010360009054906101000a900461ffff1661ffff168161ffff161015610ce65761010054610abf61010161219a565b1115610b00576040517f08c379a0000000000000000000000000000000000000000000000000000000008152600401610af790613f6b565b60405180910390fd5b8661ffff168461ffff16108015610b50575061010360009054906101000a900461ffff1661ffff1660fd600084815260200190815260200160002060009054906101000a900461ffff1661ffff16105b15610cd357600060fc60009054906101000a900473ffffffffffffffffffffffffffffffffffffffff1673ffffffffffffffffffffffffffffffffffffffff166354ba0f27876040518263ffffffff1660e01b8152600401610bb29190613b7f565b602060405180830381600087803b158015610bcc57600080fd5b505af1158015610be0573d6000803e3d6000fd5b505050506040513d601f19601f82011682018060405250810190610c0491906131c0565b9050610c11610101612502565b600185610c1e9190614263565b9450600160fd600085815260200190815260200160002060008282829054906101000a900461ffff16610c519190614263565b92506101000a81548161ffff021916908361ffff16021790555060fe6000848152602001908152602001600020819080600181540180825580915050600190039060005260206000200160009091909190915055600160ff600083815260200190815260200160002060006101000a81548160ff021916908315150217905550505b8080610cde90614530565b915050610a8f565b507f7f8aed29394d49180b299699236f142fbd3a78f6d1464929dd17e87b73ebc8d28482604051610d18929190613bb5565b60405180910390a1508080610d2c9061455b565b915050610a63565b5050505060018081905550505050565b610d4c61211c565b600073ffffffffffffffffffffffffffffffffffffffff168173ffffffffffffffffffffffffffffffffffffffff161415610dbc576040517f08c379a0000000000000000000000000000000000000000000000000000000008152600401610db390613eeb565b60405180910390fd5b8060fc60006101000a81548173ffffffffffffffffffffffffffffffffffffffff021916908373ffffffffffffffffffffffffffffffffffffffff16021790555050565b6101025481565b60fc60009054906101000a900473ffffffffffffffffffffffffffffffffffffffff1681565b610e3561211c565b600073ffffffffffffffffffffffffffffffffffffffff168173ffffffffffffffffffffffffffffffffffffffff161415610ea5576040517f08c379a0000000000000000000000000000000000000000000000000000000008152600401610e9c90613d4b565b60405180910390fd5b8060fb60006101000a81548173ffffffffffffffffffffffffffffffffffffffff021916908373ffffffffffffffffffffffffffffffffffffffff16021790555050565b7f000000000000000000000000000000000000000000000000000000000000000073ffffffffffffffffffffffffffffffffffffffff163073ffffffffffffffffffffffffffffffffffffffff161415610f78576040517f08c379a0000000000000000000000000000000000000000000000000000000008152600401610f6f90613dcb565b60405180910390fd5b7f000000000000000000000000000000000000000000000000000000000000000073ffffffffffffffffffffffffffffffffffffffff16610fb7612518565b73ffffffffffffffffffffffffffffffffffffffff161461100d576040517f08c379a000000000000000000000000000000000000000000000000000000000815260040161100490613deb565b60405180910390fd5b6110168161256f565b61106f81600067ffffffffffffffff81111561103557611034614662565b5b6040519080825280601f01601f1916602001820160405280156110675781602001600182028036833780820191505090505b50600061257a565b50565b61010360009054906101000a900461ffff1681565b7f000000000000000000000000000000000000000000000000000000000000000073ffffffffffffffffffffffffffffffffffffffff163073ffffffffffffffffffffffffffffffffffffffff161415611116576040517f08c379a000000000000000000000000000000000000000000000000000000000815260040161110d90613dcb565b60405180910390fd5b7f000000000000000000000000000000000000000000000000000000000000000073ffffffffffffffffffffffffffffffffffffffff16611155612518565b73ffffffffffffffffffffffffffffffffffffffff16146111ab576040517f08c379a00000000000000000000000000000000000000000000000000000000081526004016111a290613deb565b60405180910390fd5b6111b48261256f565b6111c08282600161257a565b5050565b6111cc61211c565b8060fc60146101000a81548160ff02191690831515021790555050565b60007f000000000000000000000000000000000000000000000000000000000000000073ffffffffffffffffffffffffffffffffffffffff163073ffffffffffffffffffffffffffffffffffffffff1614611279576040517f08c379a000000000000000000000000000000000000000000000000000000000815260040161127090613e0b565b60405180910390fd5b7f360894a13ba1a3210667c828492db98dca3e2076cc3735a920a3ca505d382bbc60001b905090565b600060ff600083815260200190815260200160002060009054906101000a900460ff169050919050565b6112d461211c565b60008111611317576040517f08c379a000000000000000000000000000000000000000000000000000000000815260040161130e90613d6b565b60405180910390fd5b61132261010161219a565b8111611363576040517f08c379a000000000000000000000000000000000000000000000000000000000815260040161135a90613d8b565b60405180910390fd5b806101008190555050565b61010360029054906101000a900473ffffffffffffffffffffffffffffffffffffffff1681565b6000804790508091505090565b6113aa61211c565b6113b460006126f7565b565b6101005481565b6060600060fc60009054906101000a900473ffffffffffffffffffffffffffffffffffffffff1673ffffffffffffffffffffffffffffffffffffffff166370a08231846040518263ffffffff1660e01b815260040161141c9190613b7f565b60206040518083038186803b15801561143457600080fd5b505afa158015611448573d6000803e3d6000fd5b505050506040513d601f19601f8201168201806040525081019061146c91906131c0565b905060008167ffffffffffffffff81111561148a57611489614662565b5b6040519080825280602002602001820160405280156114c357816020015b6114b0612d41565b8152602001906001900390816114a85790505b509050600080600090505b838110156116a25760fc60009054906101000a900473ffffffffffffffffffffffffffffffffffffffff1673ffffffffffffffffffffffffffffffffffffffff16632f745c5987836040518363ffffffff1660e01b8152600401611533929190613bb5565b60206040518083038186803b15801561154b57600080fd5b505afa15801561155f573d6000803e3d6000fd5b505050506040513d601f19601f8201168201806040525081019061158391906131c0565b9150604051806060016040528083815260200160fc60009054906101000a900473ffffffffffffffffffffffffffffffffffffffff1673ffffffffffffffffffffffffffffffffffffffff1663c87b56dd856040518263ffffffff1660e01b81526004016115f19190614101565b60006040518083038186803b15801561160957600080fd5b505afa15801561161d573d6000803e3d6000fd5b505050506040513d6000823e3d601f19601f82011682018060405250810190611646919061311d565b815260200160ff600085815260200190815260200160002060009054906101000a900460ff16151581525083828151811061168457611683614633565b5b6020026020010181905250808061169a9061455b565b9150506114ce565b50819350505050919050565b6116b661211c565b60008161ffff16116116fd576040517f08c379a00000000000000000000000000000000000000000000000000000000081526004016116f49061406b565b60405180910390fd5b8061010360006101000a81548161ffff021916908361ffff16021790555050565b600060fe6000848152602001908152602001600020805490508260ff16111561177c576040517f08c379a000000000000000000000000000000000000000000000000000000000815260040161177390613ecb565b60405180910390fd5b60fe60008481526020019081526020016000208260ff16815481106117a4576117a3614633565b5b9060005260206000200154905092915050565b6000606560009054906101000a900473ffffffffffffffffffffffffffffffffffffffff16905090565b6117e961211c565b6000811161182c576040517f08c379a0000000000000000000000000000000000000000000000000000000008152600401611823906140ab565b60405180910390fd5b806101028190555050565b600061184461010161219a565b6101005461185291906143b0565b905090565b60008060019054906101000a900460ff161590508080156118885750600160008054906101000a900460ff1660ff16105b806118b55750611897306127bd565b1580156118b45750600160008054906101000a900460ff1660ff16145b5b6118f4576040517f08c379a00000000000000000000000000000000000000000000000000000000081526004016118eb90613e8b565b60405180910390fd5b60016000806101000a81548160ff021916908360ff1602179055508015611931576001600060016101000a81548160ff0219169083151502179055505b60008711611974576040517f08c379a000000000000000000000000000000000000000000000000000000000815260040161196b90613ceb565b60405180910390fd5b600086116119b7576040517f08c379a00000000000000000000000000000000000000000000000000000000081526004016119ae90613ceb565b60405180910390fd5b60008561ffff16116119fe576040517f08c379a00000000000000000000000000000000000000000000000000000000081526004016119f590613ceb565b60405180910390fd5b600073ffffffffffffffffffffffffffffffffffffffff168473ffffffffffffffffffffffffffffffffffffffff161415611a6e576040517f08c379a0000000000000000000000000000000000000000000000000000000008152600401611a6590613d0b565b60405180910390fd5b600073ffffffffffffffffffffffffffffffffffffffff168373ffffffffffffffffffffffffffffffffffffffff161415611ade576040517f08c379a0000000000000000000000000000000000000000000000000000000008152600401611ad590613e4b565b60405180910390fd5b600073ffffffffffffffffffffffffffffffffffffffff168273ffffffffffffffffffffffffffffffffffffffff161415611b4e576040517f08c379a0000000000000000000000000000000000000000000000000000000008152600401611b459061402b565b60405180910390fd5b611b566127e0565b611b5e612839565b866101008190555085610102819055508461010360006101000a81548161ffff021916908361ffff1602179055508360fb60006101000a81548173ffffffffffffffffffffffffffffffffffffffff021916908373ffffffffffffffffffffffffffffffffffffffff1602179055508260fc60006101000a81548173ffffffffffffffffffffffffffffffffffffffff021916908373ffffffffffffffffffffffffffffffffffffffff1602179055508161010360026101000a81548173ffffffffffffffffffffffffffffffffffffffff021916908373ffffffffffffffffffffffffffffffffffffffff160217905550600060fc60146101000a81548160ff0219169083151502179055508015611cc45760008060016101000a81548160ff0219169083151502179055507f7f26b83ff96e1f2b6a682f133852f6798a09c465da95921460cefb38474024986001604051611cbb9190613c8e565b60405180910390a15b50505050505050565b6060600060fb60009054906101000a900473ffffffffffffffffffffffffffffffffffffffff1673ffffffffffffffffffffffffffffffffffffffff166370a08231846040518263ffffffff1660e01b8152600401611d2c9190613b7f565b60206040518083038186803b158015611d4457600080fd5b505afa158015611d58573d6000803e3d6000fd5b505050506040513d601f19601f82011682018060405250810190611d7c91906131c0565b905060008167ffffffffffffffff811115611d9a57611d99614662565b5b604051908082528060200260200182016040528015611dd357816020015b611dc0612d64565b815260200190600190039081611db85790505b50905060005b82811015611ec757611e9660fb60009054906101000a900473ffffffffffffffffffffffffffffffffffffffff1673ffffffffffffffffffffffffffffffffffffffff16632f745c5987846040518363ffffffff1660e01b8152600401611e41929190613bb5565b60206040518083038186803b158015611e5957600080fd5b505afa158015611e6d573d6000803e3d6000fd5b505050506040513d601f19601f82011682018060405250810190611e9191906131c0565b611ed2565b828281518110611ea957611ea8614633565b5b60200260200101819052508080611ebf9061455b565b915050611dd9565b508092505050919050565b611eda612d64565b604051806060016040528083815260200160fd600085815260200190815260200160002060009054906101000a900461ffff1661ffff16815260200161010360009054906101000a900461ffff1661ffff168152509050919050565b611f3e61211c565b600073ffffffffffffffffffffffffffffffffffffffff168173ffffffffffffffffffffffffffffffffffffffff161415611fae576040517f08c379a0000000000000000000000000000000000000000000000000000000008152600401611fa590613d2b565b60405180910390fd5b8061010360026101000a81548173ffffffffffffffffffffffffffffffffffffffff021916908373ffffffffffffffffffffffffffffffffffffffff16021790555050565b600060fc60149054906101000a900460ff16905090565b600060fd600083815260200190815260200160002060009054906101000a900461ffff1661010360009054906101000a900461ffff1661204a919061437c565b9050919050565b61205961211c565b600073ffffffffffffffffffffffffffffffffffffffff168173ffffffffffffffffffffffffffffffffffffffff1614156120c9576040517f08c379a00000000000000000000000000000000000000000000000000000000081526004016120c090613dab565b60405180910390fd5b6120d2816126f7565b50565b600061010360009054906101000a900461ffff1661ffff1660fd600084815260200190815260200160002060009054906101000a900461ffff1661ffff1610159050919050565b612124612309565b73ffffffffffffffffffffffffffffffffffffffff166121426117b7565b73ffffffffffffffffffffffffffffffffffffffff1614612198576040517f08c379a000000000000000000000000000000000000000000000000000000000815260040161218f90613f4b565b60405180910390fd5b565b600081600001549050919050565b606060008214156121f0576040518060400160405280600181526020017f30000000000000000000000000000000000000000000000000000000000000008152509050612304565b600082905060005b6000821461222257808061220b9061455b565b915050600a8261221b91906142f1565b91506121f8565b60008167ffffffffffffffff81111561223e5761223d614662565b5b6040519080825280601f01601f1916602001820160405280156122705781602001600182028036833780820191505090505b5090505b600085146122fd5760018261228991906143b0565b9150600a8561229891906145a4565b60306122a4919061429b565b60f81b8183815181106122ba576122b9614633565b5b60200101907effffffffffffffffffffffffffffffffffffffffffffffffffffffffffffff1916908160001a905350600a856122f691906142f1565b9450612274565b8093505050505b919050565b600033905090565b6000805b848490508110156123a757600085858381811061233557612334614633565b5b905060200201359050612348818861288a565b60fd600082815260200190815260200160002060009054906101000a900461ffff1661010360009054906101000a900461ffff16612386919061437c565b836123919190614263565b925050808061239f9061455b565b915050612315565b508161ffff168161ffff1610156123f3576040517f08c379a00000000000000000000000000000000000000000000000000000000081526004016123ea90613e2b565b60405180910390fd5b5050505050565b6000831161243d576040517f08c379a000000000000000000000000000000000000000000000000000000000815260040161243490613fcb565b60405180910390fd5b600073ffffffffffffffffffffffffffffffffffffffff168273ffffffffffffffffffffffffffffffffffffffff1614156124ad576040517f08c379a00000000000000000000000000000000000000000000000000000000081526004016124a49061404b565b60405180910390fd5b8083610102546124bd9190614322565b146124fd576040517f08c379a00000000000000000000000000000000000000000000000000000000081526004016124f490613eab565b60405180910390fd5b505050565b6001816000016000828254019250508190555050565b60006125467f360894a13ba1a3210667c828492db98dca3e2076cc3735a920a3ca505d382bbc60001b612a4d565b60000160009054906101000a900473ffffffffffffffffffffffffffffffffffffffff16905090565b61257761211c565b50565b6125a67f4910fdfa16fed3260ed0e7147f7cc6da11a60208b5b9406d12a635614ffd914360001b612a57565b60000160009054906101000a900460ff16156125ca576125c583612a61565b6126f2565b8273ffffffffffffffffffffffffffffffffffffffff166352d1902d6040518163ffffffff1660e01b815260040160206040518083038186803b15801561261057600080fd5b505afa92505050801561264157506040513d601f19601f8201168201806040525081019061263e91906130f0565b60015b612680576040517f08c379a000000000000000000000000000000000000000000000000000000000815260040161267790613f0b565b60405180910390fd5b7f360894a13ba1a3210667c828492db98dca3e2076cc3735a920a3ca505d382bbc60001b81146126e5576040517f08c379a00000000000000000000000000000000000000000000000000000000081526004016126dc90613e6b565b60405180910390fd5b506126f1838383612b1a565b5b505050565b6000606560009054906101000a900473ffffffffffffffffffffffffffffffffffffffff16905081606560006101000a81548173ffffffffffffffffffffffffffffffffffffffff021916908373ffffffffffffffffffffffffffffffffffffffff1602179055508173ffffffffffffffffffffffffffffffffffffffff168173ffffffffffffffffffffffffffffffffffffffff167f8be0079c531659141344cd1fd0a4f28419497f9722a3daafe3b4186f6b6457e060405160405180910390a35050565b6000808273ffffffffffffffffffffffffffffffffffffffff163b119050919050565b600060019054906101000a900460ff1661282f576040517f08c379a00000000000000000000000000000000000000000000000000000000081526004016128269061400b565b60405180910390fd5b612837612b46565b565b600060019054906101000a900460ff16612888576040517f08c379a000000000000000000000000000000000000000000000000000000000815260040161287f9061400b565b60405180910390fd5b565b8073ffffffffffffffffffffffffffffffffffffffff1660fb60009054906101000a900473ffffffffffffffffffffffffffffffffffffffff1673ffffffffffffffffffffffffffffffffffffffff16636352211e846040518263ffffffff1660e01b81526004016128fc9190614101565b60206040518083038186803b15801561291457600080fd5b505afa158015612928573d6000803e3d6000fd5b505050506040513d601f19601f8201168201806040525081019061294c9190612fad565b73ffffffffffffffffffffffffffffffffffffffff16146129a2576040517f08c379a000000000000000000000000000000000000000000000000000000000815260040161299990613ccb565b60405180910390fd5b61010360009054906101000a900461ffff1661ffff1660fd600084815260200190815260200160002060009054906101000a900461ffff1661ffff16106129e8836121a8565b6040516020016129f89190613b18565b60405160208183030381529060405290612a48576040517f08c379a0000000000000000000000000000000000000000000000000000000008152600401612a3f9190613ca9565b60405180910390fd5b505050565b6000819050919050565b6000819050919050565b612a6a816127bd565b612aa9576040517f08c379a0000000000000000000000000000000000000000000000000000000008152600401612aa090613f2b565b60405180910390fd5b80612ad67f360894a13ba1a3210667c828492db98dca3e2076cc3735a920a3ca505d382bbc60001b612a4d565b60000160006101000a81548173ffffffffffffffffffffffffffffffffffffffff021916908373ffffffffffffffffffffffffffffffffffffffff16021790555050565b612b2383612ba7565b600082511180612b305750805b15612b4157612b3f8383612bf6565b505b505050565b600060019054906101000a900460ff16612b95576040517f08c379a0000000000000000000000000000000000000000000000000000000008152600401612b8c9061400b565b60405180910390fd5b612ba5612ba0612309565b6126f7565b565b612bb081612a61565b8073ffffffffffffffffffffffffffffffffffffffff167fbc7cd75a20ee27fd9adebab32041f755214dbc6bffa90cc0225b39da2e5c2d3b60405160405180910390a250565b6060612c01836127bd565b612c40576040517f08c379a0000000000000000000000000000000000000000000000000000000008152600401612c3790613fab565b60405180910390fd5b6000808473ffffffffffffffffffffffffffffffffffffffff1684604051612c689190613b01565b600060405180830381855af49150503d8060008114612ca3576040519150601f19603f3d011682016040523d82523d6000602084013e612ca8565b606091505b5091509150612cd08282604051806060016040528060278152602001614fd260279139612cda565b9250505092915050565b60608315612cea57829050612d3a565b600083511115612cfd5782518084602001fd5b816040517f08c379a0000000000000000000000000000000000000000000000000000000008152600401612d319190613ca9565b60405180910390fd5b9392505050565b604051806060016040528060008152602001606081526020016000151581525090565b604051806060016040528060008152602001600061ffff168152602001600061ffff1681525090565b6000612da0612d9b84614141565b61411c565b905082815260208101848484011115612dbc57612dbb6146a0565b5b612dc78482856144bd565b509392505050565b6000612de2612ddd84614172565b61411c565b905082815260208101848484011115612dfe57612dfd6146a0565b5b612e098482856144cc565b509392505050565b600081359050612e2081614f30565b92915050565b600081519050612e3581614f30565b92915050565b600081359050612e4a81614f47565b92915050565b60008083601f840112612e6657612e65614696565b5b8235905067ffffffffffffffff811115612e8357612e82614691565b5b602083019150836020820283011115612e9f57612e9e61469b565b5b9250929050565b600081359050612eb581614f5e565b92915050565b600081519050612eca81614f75565b92915050565b600082601f830112612ee557612ee4614696565b5b8135612ef5848260208601612d8d565b91505092915050565b600082601f830112612f1357612f12614696565b5b8151612f23848260208601612dcf565b91505092915050565b600081359050612f3b81614f8c565b92915050565b600081359050612f5081614fa3565b92915050565b600081519050612f6581614fa3565b92915050565b600081359050612f7a81614fba565b92915050565b600060208284031215612f9657612f956146aa565b5b6000612fa484828501612e11565b91505092915050565b600060208284031215612fc357612fc26146aa565b5b6000612fd184828501612e26565b91505092915050565b600060208284031215612ff057612fef6146aa565b5b6000612ffe84828501612e3b565b91505092915050565b6000806040838503121561301e5761301d6146aa565b5b600061302c85828601612e11565b925050602083013567ffffffffffffffff81111561304d5761304c6146a5565b5b61305985828601612ed0565b9150509250929050565b60008060006040848603121561307c5761307b6146aa565b5b600084013567ffffffffffffffff81111561309a576130996146a5565b5b6130a686828701612e50565b935093505060206130b986828701612f2c565b9150509250925092565b6000602082840312156130d9576130d86146aa565b5b60006130e784828501612ea6565b91505092915050565b600060208284031215613106576131056146aa565b5b600061311484828501612ebb565b91505092915050565b600060208284031215613133576131326146aa565b5b600082015167ffffffffffffffff811115613151576131506146a5565b5b61315d84828501612efe565b91505092915050565b60006020828403121561317c5761317b6146aa565b5b600061318a84828501612f2c565b91505092915050565b6000602082840312156131a9576131a86146aa565b5b60006131b784828501612f41565b91505092915050565b6000602082840312156131d6576131d56146aa565b5b60006131e484828501612f56565b91505092915050565b60008060008060008060c0878903121561320a576132096146aa565b5b600061321889828a01612f41565b965050602061322989828a01612f41565b955050604061323a89828a01612f2c565b945050606061324b89828a01612e11565b935050608061325c89828a01612e11565b92505060a061326d89828a01612e11565b9150509295509295509295565b60008060408385031215613291576132906146aa565b5b600061329f85828601612f41565b92505060206132b085828601612f6b565b9150509250929050565b60006132c683836139f1565b60608301905092915050565b60006132de8383613a75565b905092915050565b6132ef816143f6565b82525050565b6132fe816143e4565b82525050565b600061330f826141c3565b6133198185614209565b9350613324836141a3565b8060005b8381101561335557815161333c88826132ba565b9750613347836141ef565b925050600181019050613328565b5085935050505092915050565b600061336d826141ce565b613377818561421a565b935083602082028501613389856141b3565b8060005b858110156133c557848403895281516133a685826132d2565b94506133b1836141fc565b925060208a0199505060018101905061338d565b50829750879550505050505092915050565b6133e081614408565b82525050565b6133ef81614408565b82525050565b6133fe81614414565b82525050565b600061340f826141d9565b613419818561422b565b93506134298185602086016144cc565b80840191505092915050565b61343e81614463565b82525050565b61344d81614475565b82525050565b61345c81614487565b82525050565b600061346d826141e4565b6134778185614236565b93506134878185602086016144cc565b613490816146af565b840191505092915050565b60006134a6826141e4565b6134b08185614247565b93506134c08185602086016144cc565b6134c9816146af565b840191505092915050565b60006134df826141e4565b6134e98185614258565b93506134f98185602086016144cc565b80840191505092915050565b6000613512602383614247565b915061351d826146c0565b604082019050919050565b6000613535602483614247565b91506135408261470f565b604082019050919050565b6000613558601f83614247565b91506135638261475e565b602082019050919050565b600061357b601a83614247565b915061358682614787565b602082019050919050565b600061359e601f83614247565b91506135a9826147b0565b602082019050919050565b60006135c1602483614247565b91506135cc826147d9565b604082019050919050565b60006135e4603583614247565b91506135ef82614828565b604082019050919050565b6000613607602683614247565b915061361282614877565b604082019050919050565b600061362a602c83614247565b9150613635826148c6565b604082019050919050565b600061364d602c83614247565b915061365882614915565b604082019050919050565b6000613670603883614247565b915061367b82614964565b604082019050919050565b6000613693601683614247565b915061369e826149b3565b602082019050919050565b60006136b6602083614247565b91506136c1826149dc565b602082019050919050565b60006136d9602983614247565b91506136e482614a05565b604082019050919050565b60006136fc602e83614247565b915061370782614a54565b604082019050919050565b600061371f601d83614247565b915061372a82614aa3565b602082019050919050565b6000613742601283614247565b915061374d82614acc565b602082019050919050565b6000613765602083614247565b915061377082614af5565b602082019050919050565b6000613788600d83614258565b915061379382614b1e565b600d82019050919050565b60006137ab602e83614247565b91506137b682614b47565b604082019050919050565b60006137ce602d83614247565b91506137d982614b96565b604082019050919050565b60006137f1602083614247565b91506137fc82614be5565b602082019050919050565b6000613814602f83614247565b915061381f82614c0e565b604082019050919050565b6000613837601a83614247565b915061384282614c5d565b602082019050919050565b600061385a602683614247565b915061386582614c86565b604082019050919050565b600061387d602b83614247565b915061388882614cd5565b604082019050919050565b60006138a0601983614247565b91506138ab82614d24565b602082019050919050565b60006138c3603183614258565b91506138ce82614d4d565b603182019050919050565b60006138e6602b83614247565b91506138f182614d9c565b604082019050919050565b6000613909601683614258565b915061391482614deb565b601682019050919050565b600061392c601a83614247565b915061393782614e14565b602082019050919050565b600061394f601f83614247565b915061395a82614e3d565b602082019050919050565b6000613972602183614247565b915061397d82614e66565b604082019050919050565b6000613995601f83614247565b91506139a082614eb5565b602082019050919050565b60006139b8600583614258565b91506139c382614ede565b600582019050919050565b60006139db601c83614247565b91506139e682614f07565b602082019050919050565b606082016000820151613a076000850182613ae3565b506020820151613a1a6020850182613ac5565b506040820151613a2d6040850182613ac5565b50505050565b606082016000820151613a496000850182613ae3565b506020820151613a5c6020850182613ac5565b506040820151613a6f6040850182613ac5565b50505050565b6000606083016000830151613a8d6000860182613ae3565b5060208301518482036020860152613aa58282613462565b9150506040830151613aba60408601826133d7565b508091505092915050565b613ace8161441e565b82525050565b613add8161441e565b82525050565b613aec8161444c565b82525050565b613afb8161444c565b82525050565b6000613b0d8284613404565b915081905092915050565b6000613b238261377b565b9150613b2f82846134d4565b9150613b3a826138fc565b915081905092915050565b6000613b50826138b6565b9150613b5c82856134d4565b9150613b6882846134d4565b9150613b73826139ab565b91508190509392505050565b6000602082019050613b9460008301846132f5565b92915050565b6000602082019050613baf60008301846132e6565b92915050565b6000604082019050613bca60008301856132f5565b613bd76020830184613af2565b9392505050565b60006020820190508181036000830152613bf88184613304565b905092915050565b60006020820190508181036000830152613c1a8184613362565b905092915050565b6000602082019050613c3760008301846133e6565b92915050565b6000602082019050613c5260008301846133f5565b92915050565b6000602082019050613c6d6000830184613435565b92915050565b6000602082019050613c886000830184613444565b92915050565b6000602082019050613ca36000830184613453565b92915050565b60006020820190508181036000830152613cc3818461349b565b905092915050565b60006020820190508181036000830152613ce481613505565b9050919050565b60006020820190508181036000830152613d0481613528565b9050919050565b60006020820190508181036000830152613d248161354b565b9050919050565b60006020820190508181036000830152613d448161356e565b9050919050565b60006020820190508181036000830152613d6481613591565b9050919050565b60006020820190508181036000830152613d84816135b4565b9050919050565b60006020820190508181036000830152613da4816135d7565b9050919050565b60006020820190508181036000830152613dc4816135fa565b9050919050565b60006020820190508181036000830152613de48161361d565b9050919050565b60006020820190508181036000830152613e0481613640565b9050919050565b60006020820190508181036000830152613e2481613663565b9050919050565b60006020820190508181036000830152613e4481613686565b9050919050565b60006020820190508181036000830152613e64816136a9565b9050919050565b60006020820190508181036000830152613e84816136cc565b9050919050565b60006020820190508181036000830152613ea4816136ef565b9050919050565b60006020820190508181036000830152613ec481613712565b9050919050565b60006020820190508181036000830152613ee481613735565b9050919050565b60006020820190508181036000830152613f0481613758565b9050919050565b60006020820190508181036000830152613f248161379e565b9050919050565b60006020820190508181036000830152613f44816137c1565b9050919050565b60006020820190508181036000830152613f64816137e4565b9050919050565b60006020820190508181036000830152613f8481613807565b9050919050565b60006020820190508181036000830152613fa48161382a565b9050919050565b60006020820190508181036000830152613fc48161384d565b9050919050565b60006020820190508181036000830152613fe481613870565b9050919050565b6000602082019050818103600083015261400481613893565b9050919050565b60006020820190508181036000830152614024816138d9565b9050919050565b600060208201905081810360008301526140448161391f565b9050919050565b6000602082019050818103600083015261406481613942565b9050919050565b6000602082019050818103600083015261408481613965565b9050919050565b600060208201905081810360008301526140a481613988565b9050919050565b600060208201905081810360008301526140c4816139ce565b9050919050565b60006060820190506140e06000830184613a33565b92915050565b60006020820190506140fb6000830184613ad4565b92915050565b60006020820190506141166000830184613af2565b92915050565b6000614126614137565b905061413282826144ff565b919050565b6000604051905090565b600067ffffffffffffffff82111561415c5761415b614662565b5b614165826146af565b9050602081019050919050565b600067ffffffffffffffff82111561418d5761418c614662565b5b614196826146af565b9050602081019050919050565b6000819050602082019050919050565b6000819050602082019050919050565b600081519050919050565b600081519050919050565b600081519050919050565b600081519050919050565b6000602082019050919050565b6000602082019050919050565b600082825260208201905092915050565b600082825260208201905092915050565b600081905092915050565b600082825260208201905092915050565b600082825260208201905092915050565b600081905092915050565b600061426e8261441e565b91506142798361441e565b92508261ffff038211156142905761428f6145d5565b5b828201905092915050565b60006142a68261444c565b91506142b18361444c565b9250827fffffffffffffffffffffffffffffffffffffffffffffffffffffffffffffffff038211156142e6576142e56145d5565b5b828201905092915050565b60006142fc8261444c565b91506143078361444c565b92508261431757614316614604565b5b828204905092915050565b600061432d8261444c565b91506143388361444c565b9250817fffffffffffffffffffffffffffffffffffffffffffffffffffffffffffffffff0483118215151615614371576143706145d5565b5b828202905092915050565b60006143878261441e565b91506143928361441e565b9250828210156143a5576143a46145d5565b5b828203905092915050565b60006143bb8261444c565b91506143c68361444c565b9250828210156143d9576143d86145d5565b5b828203905092915050565b60006143ef8261442c565b9050919050565b60006144018261442c565b9050919050565b60008115159050919050565b6000819050919050565b600061ffff82169050919050565b600073ffffffffffffffffffffffffffffffffffffffff82169050919050565b6000819050919050565b600060ff82169050919050565b600061446e82614499565b9050919050565b600061448082614499565b9050919050565b600061449282614456565b9050919050565b60006144a4826144ab565b9050919050565b60006144b68261442c565b9050919050565b82818337600083830152505050565b60005b838110156144ea5780820151818401526020810190506144cf565b838111156144f9576000848401525b50505050565b614508826146af565b810181811067ffffffffffffffff8211171561452757614526614662565b5b80604052505050565b600061453b8261441e565b915061ffff8214156145505761454f6145d5565b5b600182019050919050565b60006145668261444c565b91507fffffffffffffffffffffffffffffffffffffffffffffffffffffffffffffffff821415614599576145986145d5565b5b600182019050919050565b60006145af8261444c565b91506145ba8361444c565b9250826145ca576145c9614604565b5b828206905092915050565b7f4e487b7100000000000000000000000000000000000000000000000000000000600052601160045260246000fd5b7f4e487b7100000000000000000000000000000000000000000000000000000000600052601260045260246000fd5b7f4e487b7100000000000000000000000000000000000000000000000000000000600052603260045260246000fd5b7f4e487b7100000000000000000000000000000000000000000000000000000000600052604160045260246000fd5b600080fd5b600080fd5b600080fd5b600080fd5b600080fd5b600080fd5b6000601f19601f8301169050919050565b7f596f7520646f6e2774206f776e20616c6c207468657365206d696e742070617360008201527f7365730000000000000000000000000000000000000000000000000000000000602082015250565b7f6d617853616c65416d6f756e74206d757374206265206772656174657220746860008201527f616e203000000000000000000000000000000000000000000000000000000000602082015250565b7f6d696e74506173734e465420697320746865207a65726f206164647265737300600082015250565b7f57616c6c657420697320746865207a65726f2061646472657373000000000000600082015250565b7f4d696e74506173734e465420697320746865207a65726f206164647265737300600082015250565b7f4d617853616c65416d6f756e74206d757374206265206772656174657220746860008201527f616e203000000000000000000000000000000000000000000000000000000000602082015250565b7f4d617853616c65416d6f756e74206d757374206265206772656174657220746860008201527f616e205f63757272656e7453616c65416d6f756e740000000000000000000000602082015250565b7f4f776e61626c653a206e6577206f776e657220697320746865207a65726f206160008201527f6464726573730000000000000000000000000000000000000000000000000000602082015250565b7f46756e6374696f6e206d7573742062652063616c6c6564207468726f7567682060008201527f64656c656761746563616c6c0000000000000000000000000000000000000000602082015250565b7f46756e6374696f6e206d7573742062652063616c6c6564207468726f7567682060008201527f6163746976652070726f78790000000000000000000000000000000000000000602082015250565b7f555550535570677261646561626c653a206d757374206e6f742062652063616c60008201527f6c6564207468726f7567682064656c656761746563616c6c0000000000000000602082015250565b7f496e73756666696369656e74204d696e74205061737300000000000000000000600082015250565b7f6d6f6f6e42656173744e465420697320746865207a65726f2061646472657373600082015250565b7f45524331393637557067726164653a20756e737570706f727465642070726f7860008201527f6961626c65555549440000000000000000000000000000000000000000000000602082015250565b7f496e697469616c697a61626c653a20636f6e747261637420697320616c72656160008201527f647920696e697469616c697a6564000000000000000000000000000000000000602082015250565b7f5468652076616c756520796f752073656e7420697320696e76616c6964000000600082015250565b7f4f7574206f662061727261792072616e67650000000000000000000000000000600082015250565b7f4d6f6f6e42656173744e465420697320746865207a65726f2061646472657373600082015250565b7f4d696e74506173734e4654202300000000000000000000000000000000000000600082015250565b7f45524331393637557067726164653a206e657720696d706c656d656e7461746960008201527f6f6e206973206e6f742055555053000000000000000000000000000000000000602082015250565b7f455243313936373a206e657720696d706c656d656e746174696f6e206973206e60008201527f6f74206120636f6e747261637400000000000000000000000000000000000000602082015250565b7f4f776e61626c653a2063616c6c6572206973206e6f7420746865206f776e6572600082015250565b7f457863656564656420746865206e756d626572206f66204e46547320666f722060008201527f746869732073616c6520726f756e640000000000000000000000000000000000602082015250565b7f436f6e74726163742062616c616e6365206973203020474c4d52000000000000600082015250565b7f416464726573733a2064656c65676174652063616c6c20746f206e6f6e2d636f60008201527f6e74726163740000000000000000000000000000000000000000000000000000602082015250565b7f596f75206e656564206174206c65617374206f6e65206d696e7420706173732060008201527f746f206d696e74204e4654000000000000000000000000000000000000000000602082015250565b7f57686974656c69737420726f756e64206e6f7420726561647900000000000000600082015250565b7f457863656564656420746865206e756d626572206f66204e46547320666f722060008201527f746869732073616c6520726f756e642e20000000000000000000000000000000602082015250565b7f496e697469616c697a61626c653a20636f6e7472616374206973206e6f74206960008201527f6e697469616c697a696e67000000000000000000000000000000000000000000602082015250565b7f207573656420322f32207475726e206f66204d696e7400000000000000000000600082015250565b7f77616c6c657420697320746865207a65726f2061646472657373000000000000600082015250565b7f42656e656669636961727920697320746865207a65726f206164647265737300600082015250565b7f4e667450657250617373206d7573742062652067726561746572207468616e2060008201527f3000000000000000000000000000000000000000000000000000000000000000602082015250565b7f5265656e7472616e637947756172643a207265656e7472616e742063616c6c00600082015250565b7f206c656674000000000000000000000000000000000000000000000000000000600082015250565b7f5072696365206d7573742062652067726561746572207468616e203000000000600082015250565b614f39816143e4565b8114614f4457600080fd5b50565b614f50816143f6565b8114614f5b57600080fd5b50565b614f6781614408565b8114614f7257600080fd5b50565b614f7e81614414565b8114614f8957600080fd5b50565b614f958161441e565b8114614fa057600080fd5b50565b614fac8161444c565b8114614fb757600080fd5b50565b614fc381614456565b8114614fce57600080fd5b5056fe416464726573733a206c6f772d6c6576656c2064656c65676174652063616c6c206661696c6564a26469706673582212204c8904593a345d0a527b842d7aeb5701975a95d3363d212a45adf04b0e8d3b6b64736f6c63430008070033",
  "linkReferences": {},
  "deployedLinkReferences": {}
}