{
  "_format": "hh-sol-artifact-1",
  "contractName": "MoonBeastNFTSaleRound34",
  "sourceName": "contracts/upgradeables/MoonBeastNFTSaleRound34.sol",
  "abi": [
    {
      "inputs": [],
      "stateMutability": "nonpayable",
      "type": "constructor"
    },
    {
      "anonymous": false,
      "inputs": [
        {
          "indexed": false,
          "internalType": "address",
          "name": "previousAdmin",
          "type": "address"
        },
        {
          "indexed": false,
          "internalType": "address",
          "name": "newAdmin",
          "type": "address"
        }
      ],
      "name": "AdminChanged",
      "type": "event"
    },
    {
      "anonymous": false,
      "inputs": [
        {
          "indexed": true,
          "internalType": "address",
          "name": "beacon",
          "type": "address"
        }
      ],
      "name": "BeaconUpgraded",
      "type": "event"
    },
    {
      "anonymous": false,
      "inputs": [
        {
          "indexed": false,
          "internalType": "uint8",
          "name": "version",
          "type": "uint8"
        }
      ],
      "name": "Initialized",
      "type": "event"
    },
    {
      "anonymous": false,
      "inputs": [
        {
          "indexed": false,
          "internalType": "string",
          "name": "transactionKey",
          "type": "string"
        },
        {
          "indexed": false,
          "internalType": "uint256[]",
          "name": "tokenIds",
          "type": "uint256[]"
        }
      ],
      "name": "NFTPurchased",
      "type": "event"
    },
    {
      "anonymous": false,
      "inputs": [
        {
          "indexed": true,
          "internalType": "address",
          "name": "previousOwner",
          "type": "address"
        },
        {
          "indexed": true,
          "internalType": "address",
          "name": "newOwner",
          "type": "address"
        }
      ],
      "name": "OwnershipTransferred",
      "type": "event"
    },
    {
      "anonymous": false,
      "inputs": [
        {
          "indexed": false,
          "internalType": "uint256",
          "name": "soldAmount",
          "type": "uint256"
        },
        {
          "indexed": false,
          "internalType": "uint256",
          "name": "availableSlot",
          "type": "uint256"
        },
        {
          "indexed": false,
          "internalType": "uint256",
          "name": "maxSaleAmount",
          "type": "uint256"
        }
      ],
      "name": "UpdateSaleAmount",
      "type": "event"
    },
    {
      "anonymous": false,
      "inputs": [
        {
          "indexed": true,
          "internalType": "address",
          "name": "implementation",
          "type": "address"
        }
      ],
      "name": "Upgraded",
      "type": "event"
    },
    {
      "inputs": [],
      "name": "_masterContract",
      "outputs": [
        {
          "internalType": "address",
          "name": "",
          "type": "address"
        }
      ],
      "stateMutability": "view",
      "type": "function"
    },
    {
      "inputs": [],
      "name": "_maxSaleAmount",
      "outputs": [
        {
          "internalType": "uint256",
          "name": "",
          "type": "uint256"
        }
      ],
      "stateMutability": "view",
      "type": "function"
    },
    {
      "inputs": [],
      "name": "_mintPassNFT",
      "outputs": [
        {
          "internalType": "contract IMoonFitERC721",
          "name": "",
          "type": "address"
        }
      ],
      "stateMutability": "view",
      "type": "function"
    },
    {
      "inputs": [],
      "name": "_moonBeastNFT",
      "outputs": [
        {
          "internalType": "contract MoonBeast",
          "name": "",
          "type": "address"
        }
      ],
      "stateMutability": "view",
      "type": "function"
    },
    {
      "inputs": [
        {
          "internalType": "uint256",
          "name": "",
          "type": "uint256"
        }
      ],
      "name": "_prices",
      "outputs": [
        {
          "internalType": "uint256",
          "name": "",
          "type": "uint256"
        }
      ],
      "stateMutability": "view",
      "type": "function"
    },
    {
      "inputs": [
        {
          "internalType": "uint256",
          "name": "",
          "type": "uint256"
        }
      ],
      "name": "_prices2",
      "outputs": [
        {
          "internalType": "uint256",
          "name": "",
          "type": "uint256"
        }
      ],
      "stateMutability": "view",
      "type": "function"
    },
    {
      "inputs": [],
      "name": "_wallet",
      "outputs": [
        {
          "internalType": "address payable",
          "name": "",
          "type": "address"
        }
      ],
      "stateMutability": "view",
      "type": "function"
    },
    {
      "inputs": [
        {
          "internalType": "uint256",
          "name": "mintPassId",
          "type": "uint256"
        }
      ],
      "name": "checkMintPass",
      "outputs": [
        {
          "internalType": "bool",
          "name": "",
          "type": "bool"
        }
      ],
      "stateMutability": "view",
      "type": "function"
    },
    {
      "inputs": [
        {
          "internalType": "address",
          "name": "owner",
          "type": "address"
        }
      ],
      "name": "countMintPassLooking",
      "outputs": [
        {
          "internalType": "uint256",
          "name": "",
          "type": "uint256"
        }
      ],
      "stateMutability": "view",
      "type": "function"
    },
    {
      "inputs": [],
      "name": "getAvailableSlots",
      "outputs": [
        {
          "internalType": "uint256",
          "name": "",
          "type": "uint256"
        }
      ],
      "stateMutability": "view",
      "type": "function"
    },
    {
      "inputs": [],
      "name": "getContractBalance",
      "outputs": [
        {
          "internalType": "uint256",
          "name": "",
          "type": "uint256"
        }
      ],
      "stateMutability": "view",
      "type": "function"
    },
    {
      "inputs": [
        {
          "internalType": "uint256",
          "name": "mintPassId",
          "type": "uint256"
        }
      ],
      "name": "getMintPassUsage",
      "outputs": [
        {
          "internalType": "uint256[]",
          "name": "",
          "type": "uint256[]"
        }
      ],
      "stateMutability": "view",
      "type": "function"
    },
    {
      "inputs": [
        {
          "internalType": "string",
          "name": "transactionKey",
          "type": "string"
        }
      ],
      "name": "getMoonBeastsByTransactionKey",
      "outputs": [
        {
          "internalType": "uint256[]",
          "name": "",
          "type": "uint256[]"
        }
      ],
      "stateMutability": "view",
      "type": "function"
    },
    {
      "inputs": [],
      "name": "getReadySale",
      "outputs": [
        {
          "internalType": "bool",
          "name": "",
          "type": "bool"
        }
      ],
      "stateMutability": "view",
      "type": "function"
    },
    {
      "inputs": [
        {
          "internalType": "uint256",
          "name": "tokenId",
          "type": "uint256"
        }
      ],
      "name": "getTransactionByMoonBeastId",
      "outputs": [
        {
          "internalType": "string",
          "name": "",
          "type": "string"
        }
      ],
      "stateMutability": "view",
      "type": "function"
    },
    {
      "inputs": [
        {
          "internalType": "uint256",
          "name": "maxSaleAmount",
          "type": "uint256"
        },
        {
          "internalType": "uint16[]",
          "name": "packs",
          "type": "uint16[]"
        },
        {
          "internalType": "uint256[]",
          "name": "prices",
          "type": "uint256[]"
        },
        {
          "internalType": "uint256[]",
          "name": "prices2",
          "type": "uint256[]"
        },
        {
          "internalType": "address",
          "name": "masterContract",
          "type": "address"
        },
        {
          "internalType": "address",
          "name": "mintPassNFT",
          "type": "address"
        },
        {
          "internalType": "address",
          "name": "moonBeastNFT",
          "type": "address"
        },
        {
          "internalType": "address",
          "name": "wallet",
          "type": "address"
        }
      ],
      "name": "initialize",
      "outputs": [],
      "stateMutability": "nonpayable",
      "type": "function"
    },
    {
      "inputs": [
        {
          "internalType": "uint256[]",
          "name": "mintPassIds",
          "type": "uint256[]"
        }
      ],
      "name": "lockMintPass",
      "outputs": [],
      "stateMutability": "payable",
      "type": "function"
    },
    {
      "inputs": [
        {
          "internalType": "uint16",
          "name": "pack",
          "type": "uint16"
        },
        {
          "internalType": "uint256[]",
          "name": "mintPassIds",
          "type": "uint256[]"
        },
        {
          "internalType": "string",
          "name": "transactionKey",
          "type": "string"
        }
      ],
      "name": "mintNFTWithMintPass",
      "outputs": [],
      "stateMutability": "payable",
      "type": "function"
    },
    {
      "inputs": [
        {
          "internalType": "uint16",
          "name": "pack",
          "type": "uint16"
        }
      ],
      "name": "mintNFTWithMintPassV2",
      "outputs": [],
      "stateMutability": "payable",
      "type": "function"
    },
    {
      "inputs": [
        {
          "internalType": "uint16",
          "name": "pack",
          "type": "uint16"
        },
        {
          "internalType": "string",
          "name": "transactionKey",
          "type": "string"
        }
      ],
      "name": "mintNFTWithoutMintPass",
      "outputs": [],
      "stateMutability": "payable",
      "type": "function"
    },
    {
      "inputs": [
        {
          "internalType": "uint16",
          "name": "pack",
          "type": "uint16"
        }
      ],
      "name": "mintNFTWithoutMintPassV2",
      "outputs": [],
      "stateMutability": "payable",
      "type": "function"
    },
    {
      "inputs": [
        {
          "internalType": "address",
          "name": "",
          "type": "address"
        },
        {
          "internalType": "address",
          "name": "",
          "type": "address"
        },
        {
          "internalType": "uint256",
          "name": "",
          "type": "uint256"
        },
        {
          "internalType": "bytes",
          "name": "",
          "type": "bytes"
        }
      ],
      "name": "onERC721Received",
      "outputs": [
        {
          "internalType": "bytes4",
          "name": "",
          "type": "bytes4"
        }
      ],
      "stateMutability": "nonpayable",
      "type": "function"
    },
    {
      "inputs": [],
      "name": "owner",
      "outputs": [
        {
          "internalType": "address",
          "name": "",
          "type": "address"
        }
      ],
      "stateMutability": "view",
      "type": "function"
    },
    {
      "inputs": [],
      "name": "proxiableUUID",
      "outputs": [
        {
          "internalType": "bytes32",
          "name": "",
          "type": "bytes32"
        }
      ],
      "stateMutability": "view",
      "type": "function"
    },
    {
      "inputs": [],
      "name": "renounceOwnership",
      "outputs": [],
      "stateMutability": "nonpayable",
      "type": "function"
    },
    {
      "inputs": [],
      "name": "revokeAllApproved",
      "outputs": [],
      "stateMutability": "nonpayable",
      "type": "function"
    },
    {
      "inputs": [
        {
          "internalType": "address",
          "name": "operator",
          "type": "address"
        },
        {
          "internalType": "bool",
          "name": "isApproved",
          "type": "bool"
        }
      ],
      "name": "setApprovedOperator",
      "outputs": [],
      "stateMutability": "nonpayable",
      "type": "function"
    },
    {
      "inputs": [
        {
          "internalType": "address[]",
          "name": "operators",
          "type": "address[]"
        },
        {
          "internalType": "bool",
          "name": "isApproved",
          "type": "bool"
        }
      ],
      "name": "setApprovedOperators",
      "outputs": [],
      "stateMutability": "nonpayable",
      "type": "function"
    },
    {
      "inputs": [
        {
          "internalType": "uint256",
          "name": "maxSaleAmount",
          "type": "uint256"
        }
      ],
      "name": "setMaxSaleAmount",
      "outputs": [],
      "stateMutability": "nonpayable",
      "type": "function"
    },
    {
      "inputs": [
        {
          "internalType": "bool",
          "name": "value",
          "type": "bool"
        }
      ],
      "name": "setReadySale",
      "outputs": [],
      "stateMutability": "nonpayable",
      "type": "function"
    },
    {
      "inputs": [
        {
          "internalType": "address payable",
          "name": "wallet",
          "type": "address"
        }
      ],
      "name": "setWallet",
      "outputs": [],
      "stateMutability": "nonpayable",
      "type": "function"
    },
    {
      "inputs": [
        {
          "internalType": "address",
          "name": "newOwner",
          "type": "address"
        }
      ],
      "name": "transferOwnership",
      "outputs": [],
      "stateMutability": "nonpayable",
      "type": "function"
    },
    {
      "inputs": [],
      "name": "unlockMintPass",
      "outputs": [],
      "stateMutability": "payable",
      "type": "function"
    },
    {
      "inputs": [],
      "name": "unlockMintPass2",
      "outputs": [],
      "stateMutability": "payable",
      "type": "function"
    },
    {
      "inputs": [
        {
          "internalType": "address",
          "name": "newImplementation",
          "type": "address"
        }
      ],
      "name": "upgradeTo",
      "outputs": [],
      "stateMutability": "nonpayable",
      "type": "function"
    },
    {
      "inputs": [
        {
          "internalType": "address",
          "name": "newImplementation",
          "type": "address"
        },
        {
          "internalType": "bytes",
          "name": "data",
          "type": "bytes"
        }
      ],
      "name": "upgradeToAndCall",
      "outputs": [],
      "stateMutability": "payable",
      "type": "function"
    },
    {
      "inputs": [],
      "name": "withdrawTokenByOwner",
      "outputs": [],
      "stateMutability": "nonpayable",
      "type": "function"
    }
  ],
  "bytecode": "0x60a06040523060601b6080523480156200001857600080fd5b506200002362000029565b620000eb565b600054610100900460ff1615620000965760405162461bcd60e51b815260206004820152602760248201527f496e697469616c697a61626c653a20636f6e747261637420697320696e697469604482015266616c697a696e6760c81b606482015260840160405180910390fd5b60005460ff9081161015620000e9576000805460ff191660ff9081179091556040519081527f7f26b83ff96e1f2b6a682f133852f6798a09c465da95921460cefb38474024989060200160405180910390a15b565b60805160601c613bae6200012660003960008181610b7501528181610bb5015281816112c10152818161130101526113b60152613bae6000f3fe60806040526004361061021a5760003560e01c8063610757e411610123578063b9d18eae116100ab578063deaa59df1161006f578063deaa59df146105bf578063deed00f6146105df578063f2fde38b1461060a578063f89595b51461062a578063fe776dd01461065957600080fd5b8063b9d18eae14610542578063cc8c0d7e14610557578063d49c78cc1461056c578063d879f3951461058c578063de15ad08146105ac57600080fd5b80637428edea116100f25780637428edea146104a05780638b162abc146104b75780638da5cb5b146104d757806390ad41d3146104f5578063b8bea6961461052257600080fd5b8063610757e41461042a5780636bd9eb0a1461044b5780636f9fb98a14610478578063715018a61461048b57600080fd5b8063369840d6116101a65780634f1ef286116101755780634f1ef286146103af578063514c1ba6146103c257806352d1902d146103e25780635d0a8f6d146103f7578063603619a71461041757600080fd5b8063369840d61461036c5780633bc2d10d146103745780633c5a61531461037c5780633c95ed071461039c57600080fd5b806318da7122116101ed57806318da7122146102ca578063231b0098146102f85780632725368f1461030b5780632c70954d1461032b5780633659cfe61461034c57600080fd5b80630848c6ca1461021f5780630b154c471461023457806312c0aeb914610271578063150b7a0214610286575b600080fd5b61023261022d3660046134b5565b610679565b005b34801561024057600080fd5b5060fb54610254906001600160a01b031681565b6040516001600160a01b0390911681526020015b60405180910390f35b34801561027d57600080fd5b506102326107e2565b34801561029257600080fd5b506102b16102a13660046131e4565b630a85bd0160e11b949350505050565b6040516001600160e01b03199091168152602001610268565b3480156102d657600080fd5b506102ea6102e53660046131aa565b610877565b604051908152602001610268565b610232610306366004613441565b610946565b34801561031757600080fd5b5060fc54610254906001600160a01b031681565b34801561033757600080fd5b5061010954610254906001600160a01b031681565b34801561035857600080fd5b506102326103673660046131aa565b610b6a565b610232610c47565b610232610e6c565b34801561038857600080fd5b50610232610397366004613250565b611074565b6102326103aa366004613426565b61108a565b6102326103bd366004613285565b6112b6565b3480156103ce57600080fd5b506102326103dd3660046133bd565b611383565b3480156103ee57600080fd5b506102ea6113a9565b34801561040357600080fd5b506102326104123660046134d1565b61145c565b610232610425366004613426565b611536565b34801561043657600080fd5b5061010854610254906001600160a01b031681565b34801561045757600080fd5b5061046b6104663660046134d1565b61165d565b6040516102689190613723565b34801561048457600080fd5b50476102ea565b34801561049757600080fd5b506102326116bf565b3480156104ac57600080fd5b506102ea6101045481565b3480156104c357600080fd5b506102ea6104d23660046134d1565b6116d3565b3480156104e357600080fd5b506065546001600160a01b0316610254565b34801561050157600080fd5b506105156105103660046134d1565b6116f5565b6040516102689190613767565b34801561052e57600080fd5b5061023261053d3660046134ea565b61178d565b34801561054e57600080fd5b506102ea611bff565b34801561056357600080fd5b50610232611c1e565b34801561057857600080fd5b5061046b6105873660046133f1565b611cb4565b34801561059857600080fd5b506102326105a73660046132d5565b611d23565b6102326105ba366004613388565b611d71565b3480156105cb57600080fd5b506102326105da3660046131aa565b611dda565b3480156105eb57600080fd5b5060fc54600160a01b900460ff165b6040519015158152602001610268565b34801561061657600080fd5b506102326106253660046131aa565b611e5b565b34801561063657600080fd5b506105fa6106453660046134d1565b600090815260fd6020526040902054151590565b34801561066557600080fd5b506102ea6106743660046134d1565b611ed1565b600260015414156106a55760405162461bcd60e51b815260040161069c9061393f565b60405180910390fd5b60026001556065546001600160a01b03163314806106d85750336000908152610103602052604090205460ff1615156001145b6106f45760405162461bcd60e51b815260040161069c906138a5565b6106fc611ee2565b61070582611f33565b61070e82611fdd565b61071781612091565b60005b8261ffff168110156107425761072f82612157565b508061073a81613a75565b91505061071a565b507fe66707350710f863090ce00b7e4d71719c22c782f15f8d3f3a8734216b03bedf816101018360405161077691906135eb565b90815260405190819003602001812061078f929161377a565b60405180910390a1600080516020613b328339815191526107b06101055490565b6107b8611bff565b610104546040805193845260208401929092529082015260600160405180910390a1505060018055565b6107ea612241565b6000471161083a5760405162461bcd60e51b815260206004820152601a60248201527f436f6e74726163742062616c616e6365206973203020474c4d52000000000000604482015260640161069c565b610108546040516001600160a01b03909116904780156108fc02916000818181858888f19350505050158015610874573d6000803e3d6000fd5b50565b6001600160a01b038116600090815260fe602052604081205461089c57506000919050565b60008060005b6001600160a01b038516600090815260fe602052604090205481101561093d576001600160a01b038516600090815260fe602052604090208054829081106108ec576108ec613ad0565b600091825260208083209091015480835260fd9091526040909120549092501580156109185750600082115b1561092b576109286001846139cb565b92505b8061093581613a75565b9150506108a2565b50909392505050565b600260015414156109695760405162461bcd60e51b815260040161069c9061393f565b60026001556065546001600160a01b031633148061099c5750336000908152610103602052604090205460ff1615156001145b6109b85760405162461bcd60e51b815260040161069c906138a5565b6109c0611ee2565b6109c983611f33565b6109d283611fdd565b6109db81612091565b8261ffff16825114610a395760405162461bcd60e51b815260206004820152602160248201527f4d696e7420506173732062616c616e636520697320696e73756666696369656e6044820152601d60fa1b606482015260840161069c565b60005b8251811015610ac957610a67838281518110610a5a57610a5a613ad0565b602002602001015161229b565b6000610a7283612157565b905060fd6000858481518110610a8a57610a8a613ad0565b60209081029190910181015182528181019290925260400160009081208054600181018255908252919020015580610ac181613a75565b915050610a3c565b507fe66707350710f863090ce00b7e4d71719c22c782f15f8d3f3a8734216b03bedf8161010183604051610afd91906135eb565b908152604051908190036020018120610b16929161377a565b60405180910390a1600080516020613b32833981519152610b376101055490565b610b3f611bff565b610104546040805193845260208401929092529082015260600160405180910390a150506001805550565b306001600160a01b037f0000000000000000000000000000000000000000000000000000000000000000161415610bb35760405162461bcd60e51b815260040161069c9061380d565b7f00000000000000000000000000000000000000000000000000000000000000006001600160a01b0316610bfc600080516020613b12833981519152546001600160a01b031690565b6001600160a01b031614610c225760405162461bcd60e51b815260040161069c90613859565b610c2b816123c6565b60408051600080825260208201909252610874918391906123ce565b60026001541415610c6a5760405162461bcd60e51b815260040161069c9061393f565b600260015533600081815260fe6020526040902054610cc75760405162461bcd60e51b8152602060048201526019602482015278131bd8dad95908135a5b9d14185cdcc81b9bdd08199bdd5b99603a1b604482015260640161069c565b600080610cd383610877565b67ffffffffffffffff811115610ceb57610ceb613ae6565b604051908082528060200260200182016040528015610d14578160200160208202803683370190505b5090506000805b6001600160a01b038516600090815260fe6020526040902054811015610e37576001600160a01b038516600090815260fe60205260409020805482908110610d6557610d65613ad0565b600091825260208083209091015480835260fd909152604090912054909450610df95760fb546040516323b872dd60e01b81523060048201526001600160a01b03878116602483015260448201879052909116906323b872dd90606401600060405180830381600087803b158015610ddc57600080fd5b505af1158015610df0573d6000803e3d6000fd5b50505050610e25565b83838381518110610e0c57610e0c613ad0565b6020908102919091010152610e226001836139cb565b91505b80610e2f81613a75565b915050610d1b565b506001600160a01b038416600090815260fe602090815260409091208351610e6192850190612e63565b505060018055505050565b60026001541415610e8f5760405162461bcd60e51b815260040161069c9061393f565b600260015560fc54600160a01b900460ff1615610efc5760405162461bcd60e51b815260206004820152602560248201527f53616c652069732072656164792c2063616e277420756e6c6f636b204d696e74604482015264205061737360d81b606482015260840161069c565b33600081815260fe6020526040902054610f545760405162461bcd60e51b8152602060048201526019602482015278131bd8dad95908135a5b9d14185cdcc81b9bdd08199bdd5b99603a1b604482015260640161069c565b60005b6001600160a01b038216600090815260fe602052604090205481101561103a5760fb546001600160a01b03838116600090815260fe60205260409020805491909216916323b872dd913091869186908110610fb457610fb4613ad0565b6000918252602090912001546040516001600160e01b031960e086901b1681526001600160a01b0393841660048201529290911660248301526044820152606401600060405180830381600087803b15801561100f57600080fd5b505af1158015611023573d6000803e3d6000fd5b50505050808061103290613a75565b915050610f57565b5060408051600080825260208083018085526001600160a01b038616835260fe909152929020905161106c9290612e63565b505060018055565b61107c612241565b6110868282612548565b5050565b600260015414156110ad5760405162461bcd60e51b815260040161069c9061393f565b60026001556110ba611ee2565b6110c381611f33565b6110cc81611fdd565b60006111298261010680548060200260200160405190810160405280929190818152602001828054801561111f57602002820191906000526020600020905b81548152602001906001019080831161110b575b50505050506126e7565b905034811461116d5760405162461bcd60e51b815260206004820152601060248201526f141c9a58d9481a5cc81a5b9d985b1a5960821b604482015260640161069c565b33600061117982610877565b9050808461ffff1611156111c55760405162461bcd60e51b81526020600482015260136024820152724e6f7420656e6f756768204d696e745061737360681b604482015260640161069c565b60005b8461ffff168110156112685760006111df84612775565b905060006111ec85612831565b90508061122e5760405162461bcd60e51b815260206004820152601060248201526f135a5b9d14185cdcc81a5cc81d5cd95960821b604482015260640161069c565b6112378161229b565b600090815260fd6020908152604082208054600181018255908352912001558061126081613a75565b9150506111c8565b50600080516020613b328339815191526112826101055490565b61128a611bff565b610104546040805193845260208401929092529082015260600160405180910390a15050600180555050565b306001600160a01b037f00000000000000000000000000000000000000000000000000000000000000001614156112ff5760405162461bcd60e51b815260040161069c9061380d565b7f00000000000000000000000000000000000000000000000000000000000000006001600160a01b0316611348600080516020613b12833981519152546001600160a01b031690565b6001600160a01b03161461136e5760405162461bcd60e51b815260040161069c90613859565b611377826123c6565b611086828260016123ce565b61138b612241565b60fc8054911515600160a01b0260ff60a01b19909216919091179055565b6000306001600160a01b037f000000000000000000000000000000000000000000000000000000000000000016146114495760405162461bcd60e51b815260206004820152603860248201527f555550535570677261646561626c653a206d757374206e6f742062652063616c60448201527f6c6564207468726f7567682064656c656761746563616c6c0000000000000000606482015260840161069c565b50600080516020613b1283398151915290565b611464612241565b600081116114c05760405162461bcd60e51b8152602060048201526024808201527f4d617853616c65416d6f756e74206d75737420626520677265617465722074686044820152630616e20360e41b606482015260840161069c565b6101055481116115305760405162461bcd60e51b815260206004820152603560248201527f4d617853616c65416d6f756e74206d7573742062652067726561746572207468604482015274185b8817d8dd5c9c995b9d14dbdb19105b5bdd5b9d605a1b606482015260840161069c565b61010455565b600260015414156115595760405162461bcd60e51b815260040161069c9061393f565b6002600155611566611ee2565b61156f81611f33565b61157881611fdd565b60006115d38261010780548060200260200160405190810160405280929190818152602001828054801561111f576020028201919060005260206000209081548152602001906001019080831161110b5750505050506126e7565b90503481146116175760405162461bcd60e51b815260206004820152601060248201526f141c9a58d9481a5cc81a5b9d985b1a5960821b604482015260640161069c565b3360005b8361ffff168110156116435761163082612775565b508061163b81613a75565b91505061161b565b50600080516020613b32833981519152610b376101055490565b600081815260fd60209081526040918290208054835181840281018401909452808452606093928301828280156116b357602002820191906000526020600020905b81548152602001906001019080831161169f575b50505050509050919050565b6116c7612241565b6116d160006128e0565b565b61010781815481106116e457600080fd5b600091825260209091200154905081565b600081815260ff6020526040902080546060919061171290613a3a565b80601f016020809104026020016040519081016040528092919081815260200182805461173e90613a3a565b80156116b35780601f10611760576101008083540402835291602001916116b3565b820191906000526020600020905b81548152906001019060200180831161176e5750939695505050505050565b600054610100900460ff16158080156117ad5750600054600160ff909116105b806117c75750303b1580156117c7575060005460ff166001145b61182a5760405162461bcd60e51b815260206004820152602e60248201527f496e697469616c697a61626c653a20636f6e747261637420697320616c72656160448201526d191e481a5b9a5d1a585b1a5e995960921b606482015260840161069c565b6000805460ff19166001179055801561184d576000805461ff0019166101001790555b600089116118a95760405162461bcd60e51b8152602060048201526024808201527f6d617853616c65416d6f756e74206d75737420626520677265617465722074686044820152630616e20360e41b606482015260840161069c565b6001600160a01b0384166118ff5760405162461bcd60e51b815260206004820152601f60248201527f6d696e74506173734e465420697320746865207a65726f206164647265737300604482015260640161069c565b6001600160a01b0383166119555760405162461bcd60e51b815260206004820181905260248201527f6d6f6f6e42656173744e465420697320746865207a65726f2061646472657373604482015260640161069c565b6001600160a01b0382166119ab5760405162461bcd60e51b815260206004820152601a60248201527f77616c6c657420697320746865207a65726f2061646472657373000000000000604482015260640161069c565b6001600160a01b038516611a0c5760405162461bcd60e51b815260206004820152602260248201527f4d6173746572436f6e747261637420697320746865207a65726f206164647265604482015261737360f01b606482015260840161069c565b6000885111611a505760405162461bcd60e51b815260206004820152601060248201526f141858dadcc81a5cc81a5b9d985b1a5960821b604482015260640161069c565b8651885114611aa15760405162461bcd60e51b815260206004820181905260248201527f5061636b7320616e6420707269636573206973206e6f74206d61746368696e67604482015260640161069c565b8551885114611af25760405162461bcd60e51b815260206004820181905260248201527f5061636b7320616e6420707269636573206973206e6f74206d61746368696e67604482015260640161069c565b611afa612932565b611b02612961565b61010489905560fb80546001600160a01b038087166001600160a01b03199283161790925560fc80548684169083161790556101088054928516929091169190911790558751611b5a906101009060208b0190612eae565b508651611b6f906101069060208a0190612e63565b508551611b8490610107906020890190612e63565b5061010980546001600160a01b0319166001600160a01b03871617905560fc805460ff60a01b191690558015611bf4576000805461ff0019169055604051600181527f7f26b83ff96e1f2b6a682f133852f6798a09c465da95921460cefb38474024989060200160405180910390a15b505050505050505050565b6000611c0b6101055490565b61010454611c1991906139f7565b905090565b611c26612241565b60005b61010254811015611c9557600061010360006101028481548110611c4f57611c4f613ad0565b6000918252602080832091909101546001600160a01b031683528201929092526040019020805460ff191691151591909117905580611c8d81613a75565b915050611c29565b5060408051600081526020810191829052516108749161010291612f52565b606061010182604051611cc791906135eb565b90815260408051918290036020908101832080548083028501830190935282845291908301828280156116b3576020028201919060005260206000209081548152602001906001019080831161169f5750505050509050919050565b611d2b612241565b60005b8251811015611d6c57611d5a838281518110611d4c57611d4c613ad0565b602002602001015183612548565b80611d6481613a75565b915050611d2e565b505050565b60026001541415611d945760405162461bcd60e51b815260040161069c9061393f565b600260015560005b815181101561106c57611dc833838381518110611dbb57611dbb613ad0565b6020026020010151612988565b80611dd281613a75565b915050611d9c565b611de2612241565b6001600160a01b038116611e385760405162461bcd60e51b815260206004820152601a60248201527f57616c6c657420697320746865207a65726f2061646472657373000000000000604482015260640161069c565b61010880546001600160a01b0319166001600160a01b0392909216919091179055565b611e63612241565b6001600160a01b038116611ec85760405162461bcd60e51b815260206004820152602660248201527f4f776e61626c653a206e6577206f776e657220697320746865207a65726f206160448201526564647265737360d01b606482015260840161069c565b610874816128e0565b61010681815481106116e457600080fd5b60fc54600160a01b900460ff166116d15760405162461bcd60e51b81526020600482015260156024820152744d696e74204e4654206973206e6f7420726561647960581b604482015260640161069c565b6000805b61010054811015611fa0576101008181548110611f5657611f56613ad0565b90600052602060002090601091828204019190066002029054906101000a900461ffff1661ffff168361ffff161415611f8e57600191505b80611f9881613a75565b915050611f37565b50806110865760405162461bcd60e51b815260206004820152600c60248201526b141858dac81a5b9d985b1a5960a21b604482015260640161069c565b6000611fe96101055490565b61010454611ff791906139f7565b90508161ffff1681101561200a82612af2565b6001831161203457604051806040016040528060048152602001630813919560e21b815250612053565b60405180604001604052806005815260200164204e46547360d81b8152505b604051602001612064929190613607565b60405160208183030381529060405290611d6c5760405162461bcd60e51b815260040161069c9190613767565b80516120df5760405162461bcd60e51b815260206004820152601b60248201527f5472616e73616374696f6e206b65792069732072657175697265640000000000604482015260640161069c565b610101816040516120f091906135eb565b90815260405190819003602001902054156108745760405162461bcd60e51b815260206004820152602160248201527f546865207472616e73616374696f6e206b657920686173206265656e207573656044820152601960fa1b606482015260840161069c565b60fc54610109546040516354ba0f2760e01b81526001600160a01b039182166004820152600092839216906354ba0f2790602401602060405180830381600087803b1580156121a557600080fd5b505af11580156121b9573d6000803e3d6000fd5b505050506040513d601f19601f820116820180604052508101906121dd91906133d8565b90506121ee61010580546001019055565b610101836040516121ff91906135eb565b9081526040805160209281900383019020805460018101825560009182528382200184905583815260ff835220845161223a92860190612fa7565b5092915050565b6065546001600160a01b031633146116d15760405162461bcd60e51b815260206004820181905260248201527f4f776e61626c653a2063616c6c6572206973206e6f7420746865206f776e6572604482015260640161069c565b6101095460fb546040516331a9108f60e11b8152600481018490526001600160a01b039283169290911690636352211e9060240160206040518083038186803b1580156122e757600080fd5b505afa1580156122fb573d6000803e3d6000fd5b505050506040513d601f19601f8201168201806040525081019061231f91906131c7565b6001600160a01b03161461233282612af2565b60405160200161234291906136d9565b6040516020818303038152906040529061236f5760405162461bcd60e51b815260040161069c9190613767565b50600081815260fd60205260409020541561238982612af2565b604051602001612399919061367d565b604051602081830303815290604052906110865760405162461bcd60e51b815260040161069c9190613767565b610874612241565b7f4910fdfa16fed3260ed0e7147f7cc6da11a60208b5b9406d12a635614ffd91435460ff161561240157611d6c83612bf8565b826001600160a01b03166352d1902d6040518163ffffffff1660e01b815260040160206040518083038186803b15801561243a57600080fd5b505afa92505050801561246a575060408051601f3d908101601f19168201909252612467918101906133d8565b60015b6124cd5760405162461bcd60e51b815260206004820152602e60248201527f45524331393637557067726164653a206e657720696d706c656d656e7461746960448201526d6f6e206973206e6f74205555505360901b606482015260840161069c565b600080516020613b12833981519152811461253c5760405162461bcd60e51b815260206004820152602960248201527f45524331393637557067726164653a20756e737570706f727465642070726f786044820152681a58589b195555525160ba1b606482015260840161069c565b50611d6c838383612c94565b6001600160a01b0382166125a85760405162461bcd60e51b815260206004820152602160248201527f5468656f206f70657261746f7220697320746865207a65726f206164647265736044820152607360f81b606482015260840161069c565b6001600160a01b03821630141561260f5760405162461bcd60e51b815260206004820152602560248201527f546865206f70657261746f72206973207468697320636f6e7472616374206164604482015264647265737360d81b606482015260840161069c565b610108546001600160a01b038381169116141561263e5760405162461bcd60e51b815260040161069c906137ca565b6001600160a01b0382163314156126675760405162461bcd60e51b815260040161069c906137ca565b6001600160a01b038216600090815261010360205260409020805460ff191682158015919091179091556110865761010280546001810182556000919091527f93bdaa6a4190909b7c3fbe8d42169ffe1cab19f51dfc8db24c71abf849eced4a0180546001600160a01b0384166001600160a01b03199091161790555050565b600080805b6101005481101561276d57610100818154811061270b5761270b613ad0565b90600052602060002090601091828204019190066002029054906101000a900461ffff1661ffff168561ffff16141561275b5783818151811061275057612750613ad0565b602002602001015191505b8061276581613a75565b9150506126ec565b509392505050565b60fc546040516354ba0f2760e01b81526001600160a01b03838116600483015260009283929116906354ba0f2790602401602060405180830381600087803b1580156127c057600080fd5b505af11580156127d4573d6000803e3d6000fd5b505050506040513d601f19601f820116820180604052508101906127f891906133d8565b905061280961010580546001019055565b604080516020808201808452600080845285815260ff909252929020905161223a9290612fa7565b6001600160a01b038116600090815260fe602052604081205461285657506000919050565b6000805b6001600160a01b038416600090815260fe602052604090205481101561223a576001600160a01b038416600090815260fe602052604090208054829081106128a4576128a4613ad0565b600091825260208083209091015480835260fd9091526040909120549092506128ce575092915050565b806128d881613a75565b91505061285a565b606580546001600160a01b038381166001600160a01b0319831681179093556040519116919082907f8be0079c531659141344cd1fd0a4f28419497f9722a3daafe3b4186f6b6457e090600090a35050565b600054610100900460ff166129595760405162461bcd60e51b815260040161069c906138f4565b6116d1612cbf565b600054610100900460ff166116d15760405162461bcd60e51b815260040161069c906138f4565b60fb546040516331a9108f60e11b8152600481018390526001600160a01b03848116921690636352211e9060240160206040518083038186803b1580156129ce57600080fd5b505afa1580156129e2573d6000803e3d6000fd5b505050506040513d601f19601f82011682018060405250810190612a0691906131c7565b6001600160a01b031614612a5c5760405162461bcd60e51b815260206004820152601960248201527f43616c6c6572206973206e6f7420746f6b656e206f776e657200000000000000604482015260640161069c565b6001600160a01b03828116600081815260fe602090815260408083208054600181018255908452919092200184905560fb5490516323b872dd60e01b8152600481019290925230602483015260448201849052909116906323b872dd90606401600060405180830381600087803b158015612ad657600080fd5b505af1158015612aea573d6000803e3d6000fd5b505050505050565b606081612b165750506040805180820190915260018152600360fc1b602082015290565b8160005b8115612b405780612b2a81613a75565b9150612b399050600a836139e3565b9150612b1a565b60008167ffffffffffffffff811115612b5b57612b5b613ae6565b6040519080825280601f01601f191660200182016040528015612b85576020820181803683370190505b5090505b8415612bf057612b9a6001836139f7565b9150612ba7600a86613a90565b612bb29060306139cb565b60f81b818381518110612bc757612bc7613ad0565b60200101906001600160f81b031916908160001a905350612be9600a866139e3565b9450612b89565b949350505050565b6001600160a01b0381163b612c655760405162461bcd60e51b815260206004820152602d60248201527f455243313936373a206e657720696d706c656d656e746174696f6e206973206e60448201526c1bdd08184818dbdb9d1c9858dd609a1b606482015260840161069c565b600080516020613b1283398151915280546001600160a01b0319166001600160a01b0392909216919091179055565b612c9d83612cef565b600082511180612caa5750805b15611d6c57612cb98383612d2f565b50505050565b600054610100900460ff16612ce65760405162461bcd60e51b815260040161069c906138f4565b6116d1336128e0565b612cf881612bf8565b6040516001600160a01b038216907fbc7cd75a20ee27fd9adebab32041f755214dbc6bffa90cc0225b39da2e5c2d3b90600090a250565b60606001600160a01b0383163b612d975760405162461bcd60e51b815260206004820152602660248201527f416464726573733a2064656c65676174652063616c6c20746f206e6f6e2d636f6044820152651b9d1c9858dd60d21b606482015260840161069c565b600080846001600160a01b031684604051612db291906135eb565b600060405180830381855af49150503d8060008114612ded576040519150601f19603f3d011682016040523d82523d6000602084013e612df2565b606091505b5091509150612e1a8282604051806060016040528060278152602001613b5260279139612e23565b95945050505050565b60608315612e32575081612e5c565b825115612e425782518084602001fd5b8160405162461bcd60e51b815260040161069c9190613767565b9392505050565b828054828255906000526020600020908101928215612e9e579160200282015b82811115612e9e578251825591602001919060010190612e83565b50612eaa92915061301a565b5090565b82805482825590600052602060002090600f01601090048101928215612e9e5791602002820160005b83821115612f1757835183826101000a81548161ffff021916908361ffff1602179055509260200192600201602081600101049283019260010302612ed7565b8015612f455782816101000a81549061ffff0219169055600201602081600101049283019260010302612f17565b5050612eaa92915061301a565b828054828255906000526020600020908101928215612e9e579160200282015b82811115612e9e57825182546001600160a01b0319166001600160a01b03909116178255602090920191600190910190612f72565b828054612fb390613a3a565b90600052602060002090601f016020900481019282612fd55760008555612e9e565b82601f10612fee57805160ff1916838001178555612e9e565b82800160010185558215612e9e5791820182811115612e9e578251825591602001919060010190612e83565b5b80821115612eaa576000815560010161301b565b803561303a81613afc565b919050565b600082601f83011261305057600080fd5b81356020613065613060836139a7565b613976565b80838252828201915082860187848660051b890101111561308557600080fd5b60005b858110156130ab5761309982613198565b84529284019290840190600101613088565b5090979650505050505050565b600082601f8301126130c957600080fd5b813560206130d9613060836139a7565b80838252828201915082860187848660051b89010111156130f957600080fd5b60005b858110156130ab578135845292840192908401906001016130fc565b8035801515811461303a57600080fd5b600082601f83011261313957600080fd5b813567ffffffffffffffff81111561315357613153613ae6565b613166601f8201601f1916602001613976565b81815284602083860101111561317b57600080fd5b816020850160208301376000918101602001919091529392505050565b803561ffff8116811461303a57600080fd5b6000602082840312156131bc57600080fd5b8135612e5c81613afc565b6000602082840312156131d957600080fd5b8151612e5c81613afc565b600080600080608085870312156131fa57600080fd5b843561320581613afc565b9350602085013561321581613afc565b925060408501359150606085013567ffffffffffffffff81111561323857600080fd5b61324487828801613128565b91505092959194509250565b6000806040838503121561326357600080fd5b823561326e81613afc565b915061327c60208401613118565b90509250929050565b6000806040838503121561329857600080fd5b82356132a381613afc565b9150602083013567ffffffffffffffff8111156132bf57600080fd5b6132cb85828601613128565b9150509250929050565b600080604083850312156132e857600080fd5b823567ffffffffffffffff8111156132ff57600080fd5b8301601f8101851361331057600080fd5b80356020613320613060836139a7565b80838252828201915082850189848660051b880101111561334057600080fd5b600095505b8486101561336c57803561335881613afc565b835260019590950194918301918301613345565b50955061337c9050868201613118565b93505050509250929050565b60006020828403121561339a57600080fd5b813567ffffffffffffffff8111156133b157600080fd5b612bf0848285016130b8565b6000602082840312156133cf57600080fd5b612e5c82613118565b6000602082840312156133ea57600080fd5b5051919050565b60006020828403121561340357600080fd5b813567ffffffffffffffff81111561341a57600080fd5b612bf084828501613128565b60006020828403121561343857600080fd5b612e5c82613198565b60008060006060848603121561345657600080fd5b61345f84613198565b9250602084013567ffffffffffffffff8082111561347c57600080fd5b613488878388016130b8565b9350604086013591508082111561349e57600080fd5b506134ab86828701613128565b9150509250925092565b600080604083850312156134c857600080fd5b6132a383613198565b6000602082840312156134e357600080fd5b5035919050565b600080600080600080600080610100898b03121561350757600080fd5b88359750602089013567ffffffffffffffff8082111561352657600080fd5b6135328c838d0161303f565b985060408b013591508082111561354857600080fd5b6135548c838d016130b8565b975060608b013591508082111561356a57600080fd5b506135778b828c016130b8565b95505061358660808a0161302f565b935061359460a08a0161302f565b92506135a260c08a0161302f565b91506135b060e08a0161302f565b90509295985092959890939650565b600081518084526135d7816020860160208601613a0e565b601f01601f19169290920160200192915050565b600082516135fd818460208701613a0e565b9190910192915050565b7f546865206e756d626572206f66204e465473206973206e6f7420656e6f756768815271016103a3434b9903937bab732103632b33a160751b60208201526000835161365a816032850160208801613a0e565b835190830190613671816032840160208801613a0e565b01603201949350505050565b6c4d696e74506173734e4654202360981b8152600082516136a581600d850160208701613a0e565b7f20776173207573656420696e207468697320726f756e64000000000000000000600d939091019283015250602401919050565b6c4d696e74506173734e4654202360981b81526000825161370181600d850160208701613a0e565b6a081a5cc81a5b9d985b1a5960aa1b600d939091019283015250601801919050565b6020808252825182820181905260009190848201906040850190845b8181101561375b5783518352928401929184019160010161373f565b50909695505050505050565b602081526000612e5c60208301846135bf565b60408152600061378d60408301856135bf565b60208382038185015281855480845282840191508660005282600020935060005b818110156130ab578454835260019485019492840192016137ae565b60208082526023908201527f546865206f70657261746f7220697320746865206f776e65722773206164647260408201526265737360e81b606082015260800190565b6020808252602c908201527f46756e6374696f6e206d7573742062652063616c6c6564207468726f7567682060408201526b19195b1959d85d1958d85b1b60a21b606082015260800190565b6020808252602c908201527f46756e6374696f6e206d7573742062652063616c6c6564207468726f7567682060408201526b6163746976652070726f787960a01b606082015260800190565b6020808252602f908201527f4f776e61626c653a2063616c6c6572206973206e6f7420746865206f776e657260408201526e081bdc881a5cc8185c1c1c9bdd9959608a1b606082015260800190565b6020808252602b908201527f496e697469616c697a61626c653a20636f6e7472616374206973206e6f74206960408201526a6e697469616c697a696e6760a81b606082015260800190565b6020808252601f908201527f5265656e7472616e637947756172643a207265656e7472616e742063616c6c00604082015260600190565b604051601f8201601f1916810167ffffffffffffffff8111828210171561399f5761399f613ae6565b604052919050565b600067ffffffffffffffff8211156139c1576139c1613ae6565b5060051b60200190565b600082198211156139de576139de613aa4565b500190565b6000826139f2576139f2613aba565b500490565b600082821015613a0957613a09613aa4565b500390565b60005b83811015613a29578181015183820152602001613a11565b83811115612cb95750506000910152565b600181811c90821680613a4e57607f821691505b60208210811415613a6f57634e487b7160e01b600052602260045260246000fd5b50919050565b6000600019821415613a8957613a89613aa4565b5060010190565b600082613a9f57613a9f613aba565b500690565b634e487b7160e01b600052601160045260246000fd5b634e487b7160e01b600052601260045260246000fd5b634e487b7160e01b600052603260045260246000fd5b634e487b7160e01b600052604160045260246000fd5b6001600160a01b038116811461087457600080fdfe360894a13ba1a3210667c828492db98dca3e2076cc3735a920a3ca505d382bbc69031b1a7e7913762e884dd55b4b42c47d8a362a2715200304a1e1a0f63ec309416464726573733a206c6f772d6c6576656c2064656c65676174652063616c6c206661696c6564a26469706673582212208f7467036bc4606760a4a0aed07b8e7ab3841cdf59dba818de20568543c963ba64736f6c63430008070033",
  "linkReferences": {},
  "deployedLinkReferences": {}
}