{
  "_format": "hh-sol-artifact-1",
  "contractName": "MoonBeastNFTSaleRound34",
  "sourceName": "contracts/upgradeables/MoonBeastNFTSaleRound34.sol",
  "abi": [
    {
      "inputs": [],
      "stateMutability": "nonpayable",
      "type": "constructor"
    },
    {
      "anonymous": false,
      "inputs": [
        {
          "indexed": false,
          "internalType": "address",
          "name": "previousAdmin",
          "type": "address"
        },
        {
          "indexed": false,
          "internalType": "address",
          "name": "newAdmin",
          "type": "address"
        }
      ],
      "name": "AdminChanged",
      "type": "event"
    },
    {
      "anonymous": false,
      "inputs": [
        {
          "indexed": true,
          "internalType": "address",
          "name": "beacon",
          "type": "address"
        }
      ],
      "name": "BeaconUpgraded",
      "type": "event"
    },
    {
      "anonymous": false,
      "inputs": [
        {
          "indexed": false,
          "internalType": "uint8",
          "name": "version",
          "type": "uint8"
        }
      ],
      "name": "Initialized",
      "type": "event"
    },
    {
      "anonymous": false,
      "inputs": [
        {
          "indexed": false,
          "internalType": "string",
          "name": "transactionKey",
          "type": "string"
        },
        {
          "indexed": false,
          "internalType": "uint256[]",
          "name": "tokenIds",
          "type": "uint256[]"
        }
      ],
      "name": "NFTPurchased",
      "type": "event"
    },
    {
      "anonymous": false,
      "inputs": [
        {
          "indexed": true,
          "internalType": "address",
          "name": "previousOwner",
          "type": "address"
        },
        {
          "indexed": true,
          "internalType": "address",
          "name": "newOwner",
          "type": "address"
        }
      ],
      "name": "OwnershipTransferred",
      "type": "event"
    },
    {
      "anonymous": false,
      "inputs": [
        {
          "indexed": false,
          "internalType": "uint256",
          "name": "soldAmount",
          "type": "uint256"
        },
        {
          "indexed": false,
          "internalType": "uint256",
          "name": "availableSlot",
          "type": "uint256"
        },
        {
          "indexed": false,
          "internalType": "uint256",
          "name": "maxSaleAmount",
          "type": "uint256"
        }
      ],
      "name": "UpdateSaleAmount",
      "type": "event"
    },
    {
      "anonymous": false,
      "inputs": [
        {
          "indexed": true,
          "internalType": "address",
          "name": "implementation",
          "type": "address"
        }
      ],
      "name": "Upgraded",
      "type": "event"
    },
    {
      "inputs": [],
      "name": "_masterContract",
      "outputs": [
        {
          "internalType": "address",
          "name": "",
          "type": "address"
        }
      ],
      "stateMutability": "view",
      "type": "function"
    },
    {
      "inputs": [],
      "name": "_maxSaleAmount",
      "outputs": [
        {
          "internalType": "uint256",
          "name": "",
          "type": "uint256"
        }
      ],
      "stateMutability": "view",
      "type": "function"
    },
    {
      "inputs": [],
      "name": "_mintPassNFT",
      "outputs": [
        {
          "internalType": "contract IMoonFitERC721",
          "name": "",
          "type": "address"
        }
      ],
      "stateMutability": "view",
      "type": "function"
    },
    {
      "inputs": [],
      "name": "_moonBeastNFT",
      "outputs": [
        {
          "internalType": "contract MoonBeast",
          "name": "",
          "type": "address"
        }
      ],
      "stateMutability": "view",
      "type": "function"
    },
    {
      "inputs": [],
      "name": "_wallet",
      "outputs": [
        {
          "internalType": "address payable",
          "name": "",
          "type": "address"
        }
      ],
      "stateMutability": "view",
      "type": "function"
    },
    {
      "inputs": [
        {
          "internalType": "uint256",
          "name": "",
          "type": "uint256"
        }
      ],
      "name": "_withMintPassPricing",
      "outputs": [
        {
          "internalType": "uint256",
          "name": "",
          "type": "uint256"
        }
      ],
      "stateMutability": "view",
      "type": "function"
    },
    {
      "inputs": [
        {
          "internalType": "uint256",
          "name": "",
          "type": "uint256"
        }
      ],
      "name": "_withoutMintPassPricing",
      "outputs": [
        {
          "internalType": "uint256",
          "name": "",
          "type": "uint256"
        }
      ],
      "stateMutability": "view",
      "type": "function"
    },
    {
      "inputs": [
        {
          "internalType": "address",
          "name": "owner",
          "type": "address"
        }
      ],
      "name": "countMintPassLooking",
      "outputs": [
        {
          "internalType": "uint256",
          "name": "",
          "type": "uint256"
        }
      ],
      "stateMutability": "view",
      "type": "function"
    },
    {
      "inputs": [],
      "name": "getAvailableSlots",
      "outputs": [
        {
          "internalType": "uint256",
          "name": "",
          "type": "uint256"
        }
      ],
      "stateMutability": "view",
      "type": "function"
    },
    {
      "inputs": [],
      "name": "getContractBalance",
      "outputs": [
        {
          "internalType": "uint256",
          "name": "",
          "type": "uint256"
        }
      ],
      "stateMutability": "view",
      "type": "function"
    },
    {
      "inputs": [
        {
          "internalType": "address",
          "name": "owner",
          "type": "address"
        }
      ],
      "name": "getMintPassLooking",
      "outputs": [
        {
          "components": [
            {
              "internalType": "uint256",
              "name": "tokenId",
              "type": "uint256"
            },
            {
              "internalType": "bool",
              "name": "minted",
              "type": "bool"
            }
          ],
          "internalType": "struct MoonBeastNFTSaleRound34.MintPassLocking[]",
          "name": "",
          "type": "tuple[]"
        }
      ],
      "stateMutability": "view",
      "type": "function"
    },
    {
      "inputs": [
        {
          "internalType": "uint256",
          "name": "mintPassId",
          "type": "uint256"
        }
      ],
      "name": "getMintPassUsage",
      "outputs": [
        {
          "internalType": "uint256[]",
          "name": "",
          "type": "uint256[]"
        }
      ],
      "stateMutability": "view",
      "type": "function"
    },
    {
      "inputs": [
        {
          "internalType": "string",
          "name": "transactionKey",
          "type": "string"
        }
      ],
      "name": "getMoonBeastsByTransactionKey",
      "outputs": [
        {
          "internalType": "uint256[]",
          "name": "",
          "type": "uint256[]"
        }
      ],
      "stateMutability": "view",
      "type": "function"
    },
    {
      "inputs": [],
      "name": "getReadySale",
      "outputs": [
        {
          "internalType": "bool",
          "name": "",
          "type": "bool"
        }
      ],
      "stateMutability": "view",
      "type": "function"
    },
    {
      "inputs": [
        {
          "internalType": "uint256",
          "name": "tokenId",
          "type": "uint256"
        }
      ],
      "name": "getTransactionByMoonBeastId",
      "outputs": [
        {
          "internalType": "string",
          "name": "",
          "type": "string"
        }
      ],
      "stateMutability": "view",
      "type": "function"
    },
    {
      "inputs": [
        {
          "internalType": "uint256",
          "name": "maxSaleAmount",
          "type": "uint256"
        },
        {
          "internalType": "uint16[]",
          "name": "packs",
          "type": "uint16[]"
        },
        {
          "internalType": "uint256[]",
          "name": "withMintPassPricing",
          "type": "uint256[]"
        },
        {
          "internalType": "uint256[]",
          "name": "withoutMintPassPricing",
          "type": "uint256[]"
        },
        {
          "internalType": "address",
          "name": "masterContract",
          "type": "address"
        },
        {
          "internalType": "address",
          "name": "mintPassNFT",
          "type": "address"
        },
        {
          "internalType": "address",
          "name": "moonBeastNFT",
          "type": "address"
        },
        {
          "internalType": "address",
          "name": "wallet",
          "type": "address"
        }
      ],
      "name": "initialize",
      "outputs": [],
      "stateMutability": "nonpayable",
      "type": "function"
    },
    {
      "inputs": [
        {
          "internalType": "uint256[]",
          "name": "mintPassIds",
          "type": "uint256[]"
        }
      ],
      "name": "lockMintPass",
      "outputs": [],
      "stateMutability": "payable",
      "type": "function"
    },
    {
      "inputs": [
        {
          "internalType": "uint16",
          "name": "pack",
          "type": "uint16"
        },
        {
          "internalType": "uint256[]",
          "name": "mintPassIds",
          "type": "uint256[]"
        },
        {
          "internalType": "string",
          "name": "transactionKey",
          "type": "string"
        }
      ],
      "name": "mintNFTWithMintPass",
      "outputs": [],
      "stateMutability": "payable",
      "type": "function"
    },
    {
      "inputs": [
        {
          "internalType": "uint16",
          "name": "pack",
          "type": "uint16"
        }
      ],
      "name": "mintNFTWithMintPassV2",
      "outputs": [],
      "stateMutability": "payable",
      "type": "function"
    },
    {
      "inputs": [
        {
          "internalType": "uint16",
          "name": "pack",
          "type": "uint16"
        },
        {
          "internalType": "string",
          "name": "transactionKey",
          "type": "string"
        }
      ],
      "name": "mintNFTWithoutMintPass",
      "outputs": [],
      "stateMutability": "payable",
      "type": "function"
    },
    {
      "inputs": [
        {
          "internalType": "uint16",
          "name": "pack",
          "type": "uint16"
        }
      ],
      "name": "mintNFTWithoutMintPassV2",
      "outputs": [],
      "stateMutability": "payable",
      "type": "function"
    },
    {
      "inputs": [
        {
          "internalType": "uint256",
          "name": "mintPassId",
          "type": "uint256"
        }
      ],
      "name": "mintPassIsMinted",
      "outputs": [
        {
          "internalType": "bool",
          "name": "",
          "type": "bool"
        }
      ],
      "stateMutability": "view",
      "type": "function"
    },
    {
      "inputs": [
        {
          "internalType": "address",
          "name": "",
          "type": "address"
        },
        {
          "internalType": "address",
          "name": "",
          "type": "address"
        },
        {
          "internalType": "uint256",
          "name": "",
          "type": "uint256"
        },
        {
          "internalType": "bytes",
          "name": "",
          "type": "bytes"
        }
      ],
      "name": "onERC721Received",
      "outputs": [
        {
          "internalType": "bytes4",
          "name": "",
          "type": "bytes4"
        }
      ],
      "stateMutability": "nonpayable",
      "type": "function"
    },
    {
      "inputs": [],
      "name": "owner",
      "outputs": [
        {
          "internalType": "address",
          "name": "",
          "type": "address"
        }
      ],
      "stateMutability": "view",
      "type": "function"
    },
    {
      "inputs": [],
      "name": "proxiableUUID",
      "outputs": [
        {
          "internalType": "bytes32",
          "name": "",
          "type": "bytes32"
        }
      ],
      "stateMutability": "view",
      "type": "function"
    },
    {
      "inputs": [],
      "name": "renounceOwnership",
      "outputs": [],
      "stateMutability": "nonpayable",
      "type": "function"
    },
    {
      "inputs": [],
      "name": "revokeAllApproved",
      "outputs": [],
      "stateMutability": "nonpayable",
      "type": "function"
    },
    {
      "inputs": [
        {
          "internalType": "address",
          "name": "operator",
          "type": "address"
        },
        {
          "internalType": "bool",
          "name": "isApproved",
          "type": "bool"
        }
      ],
      "name": "setApprovedOperator",
      "outputs": [],
      "stateMutability": "nonpayable",
      "type": "function"
    },
    {
      "inputs": [
        {
          "internalType": "address[]",
          "name": "operators",
          "type": "address[]"
        },
        {
          "internalType": "bool",
          "name": "isApproved",
          "type": "bool"
        }
      ],
      "name": "setApprovedOperators",
      "outputs": [],
      "stateMutability": "nonpayable",
      "type": "function"
    },
    {
      "inputs": [
        {
          "internalType": "uint256",
          "name": "maxSaleAmount",
          "type": "uint256"
        }
      ],
      "name": "setMaxSaleAmount",
      "outputs": [],
      "stateMutability": "nonpayable",
      "type": "function"
    },
    {
      "inputs": [
        {
          "internalType": "address",
          "name": "mintPass",
          "type": "address"
        }
      ],
      "name": "setMintPassNFT",
      "outputs": [],
      "stateMutability": "nonpayable",
      "type": "function"
    },
    {
      "inputs": [
        {
          "internalType": "address",
          "name": "moonBeast",
          "type": "address"
        }
      ],
      "name": "setMoonBeastNFT",
      "outputs": [],
      "stateMutability": "nonpayable",
      "type": "function"
    },
    {
      "inputs": [
        {
          "internalType": "bool",
          "name": "value",
          "type": "bool"
        }
      ],
      "name": "setReadySale",
      "outputs": [],
      "stateMutability": "nonpayable",
      "type": "function"
    },
    {
      "inputs": [
        {
          "internalType": "address payable",
          "name": "wallet",
          "type": "address"
        }
      ],
      "name": "setWallet",
      "outputs": [],
      "stateMutability": "nonpayable",
      "type": "function"
    },
    {
      "inputs": [
        {
          "internalType": "address",
          "name": "newOwner",
          "type": "address"
        }
      ],
      "name": "transferOwnership",
      "outputs": [],
      "stateMutability": "nonpayable",
      "type": "function"
    },
    {
      "inputs": [],
      "name": "unlockMintPass",
      "outputs": [],
      "stateMutability": "payable",
      "type": "function"
    },
    {
      "inputs": [],
      "name": "unlockMintPass2",
      "outputs": [],
      "stateMutability": "payable",
      "type": "function"
    },
    {
      "inputs": [
        {
          "internalType": "address",
          "name": "newImplementation",
          "type": "address"
        }
      ],
      "name": "upgradeTo",
      "outputs": [],
      "stateMutability": "nonpayable",
      "type": "function"
    },
    {
      "inputs": [
        {
          "internalType": "address",
          "name": "newImplementation",
          "type": "address"
        },
        {
          "internalType": "bytes",
          "name": "data",
          "type": "bytes"
        }
      ],
      "name": "upgradeToAndCall",
      "outputs": [],
      "stateMutability": "payable",
      "type": "function"
    },
    {
      "inputs": [],
      "name": "withdrawTokenByOwner",
      "outputs": [],
      "stateMutability": "nonpayable",
      "type": "function"
    }
  ],
  "bytecode": "0x60a06040523060601b6080523480156200001857600080fd5b506200002362000029565b620000eb565b600054610100900460ff1615620000965760405162461bcd60e51b815260206004820152602760248201527f496e697469616c697a61626c653a20636f6e747261637420697320696e697469604482015266616c697a696e6760c81b606482015260840160405180910390fd5b60005460ff9081161015620000e9576000805460ff191660ff9081179091556040519081527f7f26b83ff96e1f2b6a682f133852f6798a09c465da95921460cefb38474024989060200160405180910390a15b565b60805160601c613ef26200012660003960008181610cfc01528181610d3c01528181611395015281816113d5015261148a0152613ef26000f3fe60806040526004361061023b5760003560e01c8063603619a71161012e578063b9d18eae116100ab578063deaa59df1161006f578063deaa59df1461065f578063deed00f61461067f578063f122f3161461069e578063f2fde38b146106cb578063ffd6e51c146106eb57600080fd5b8063b9d18eae146105e2578063cc8c0d7e146105f7578063d49c78cc1461060c578063d879f3951461062c578063de15ad081461064c57600080fd5b80637428edea116100f25780637428edea146105215780638da5cb5b1461053857806390ad41d314610556578063a0c7473014610583578063b8bea696146105c257600080fd5b8063603619a714610498578063610757e4146104ab5780636bd9eb0a146104cc5780636f9fb98a146104f9578063715018a61461050c57600080fd5b80632c70954d116101bc5780633c95ed07116101805780633c95ed071461041d5780634f1ef28614610430578063514c1ba61461044357806352d1902d146104635780635d0a8f6d1461047857600080fd5b80632c70954d146103ac5780633659cfe6146103cd578063369840d6146103ed5780633bc2d10d146103f55780633c5a6153146103fd57600080fd5b806318da71221161020357806318da712214610319578063228443d814610339578063231b0098146103595780632725368f1461036c5780632bfccd3c1461038c57600080fd5b8063044205de146102405780630848c6ca146102735780630b154c471461028857806312c0aeb9146102c0578063150b7a02146102d5575b600080fd5b34801561024c57600080fd5b5061026061025b36600461379d565b61070b565b6040519081526020015b60405180910390f35b610286610281366004613781565b61072d565b005b34801561029457600080fd5b5060fb546102a8906001600160a01b031681565b6040516001600160a01b03909116815260200161026a565b3480156102cc57600080fd5b50610286610885565b3480156102e157600080fd5b506103006102f03660046134b6565b630a85bd0160e11b949350505050565b6040516001600160e01b0319909116815260200161026a565b34801561032557600080fd5b5061026061033436600461347c565b61091a565b34801561034557600080fd5b5061028661035436600461347c565b6109de565b61028661036736600461370e565b610a5e565b34801561037857600080fd5b5060fc546102a8906001600160a01b031681565b34801561039857600080fd5b506102866103a736600461347c565b610c71565b3480156103b857600080fd5b50610109546102a8906001600160a01b031681565b3480156103d957600080fd5b506102866103e836600461347c565b610cf1565b610286610dce565b610286610ff9565b34801561040957600080fd5b50610286610418366004613521565b611201565b61028661042b3660046136f3565b611217565b61028661043e366004613556565b61138a565b34801561044f57600080fd5b5061028661045e36600461368b565b611457565b34801561046f57600080fd5b5061026061147d565b34801561048457600080fd5b5061028661049336600461379d565b611530565b6102866104a63660046136f3565b61160a565b3480156104b757600080fd5b50610108546102a8906001600160a01b031681565b3480156104d857600080fd5b506104ec6104e736600461379d565b61168d565b60405161026a9190613a3f565b34801561050557600080fd5b5047610260565b34801561051857600080fd5b506102866116ef565b34801561052d57600080fd5b506102606101045481565b34801561054457600080fd5b506065546001600160a01b03166102a8565b34801561056257600080fd5b5061057661057136600461379d565b611703565b60405161026a9190613a83565b34801561058f57600080fd5b506105b261059e36600461379d565b600090815260fd6020526040902054151590565b604051901515815260200161026a565b3480156105ce57600080fd5b506102866105dd3660046137b6565b61179b565b3480156105ee57600080fd5b50610260611cdc565b34801561060357600080fd5b50610286611cfb565b34801561061857600080fd5b506104ec6106273660046136bf565b611d91565b34801561063857600080fd5b506102866106473660046135a5565b611e00565b61028661065a366004613657565b611e4e565b34801561066b57600080fd5b5061028661067a36600461347c565b611ec1565b34801561068b57600080fd5b5060fc54600160a01b900460ff166105b2565b3480156106aa57600080fd5b506106be6106b936600461347c565b611f42565b60405161026a91906139ee565b3480156106d757600080fd5b506102866106e636600461347c565b612081565b3480156106f757600080fd5b5061026061070636600461379d565b6120f7565b610107818154811061071c57600080fd5b600091825260209091200154905081565b600260015414156107595760405162461bcd60e51b815260040161075090613c85565b60405180910390fd5b60026001556065546001600160a01b031633148061078c5750336000908152610103602052604090205460ff1615156001145b6107a85760405162461bcd60e51b815260040161075090613bc1565b6107b182612108565b6107ba81612122565b60005b8261ffff168110156107e5576107d2826121e8565b50806107dd81613db9565b9150506107bd565b507fe66707350710f863090ce00b7e4d71719c22c782f15f8d3f3a8734216b03bedf816101018360405161081991906138b6565b9081526040519081900360200181206108329291613a96565b60405180910390a1600080516020613e768339815191526108536101055490565b61085b611cdc565b610104546040805193845260208401929092529082015260600160405180910390a1505060018055565b61088d6122cb565b600047116108dd5760405162461bcd60e51b815260206004820152601a60248201527f436f6e74726163742062616c616e6365206973203020474c4d520000000000006044820152606401610750565b610108546040516001600160a01b03909116904780156108fc02916000818181858888f19350505050158015610917573d6000803e3d6000fd5b50565b6001600160a01b038116600090815260fe602052604081205461093f57506000919050565b6000805b6001600160a01b038416600090815260fe60205260409020548110156109d7576001600160a01b038416600090815260fe6020526040812080548390811061098d5761098d613e14565b906000526020600020015490506109b281600090815260fd6020526040902054151590565b6109c4576109c1600184613d0f565b92505b50806109cf81613db9565b915050610943565b5092915050565b6109e66122cb565b6001600160a01b038116610a3c5760405162461bcd60e51b815260206004820181905260248201527f4d6f6f6e42656173744e465420697320746865207a65726f20616464726573736044820152606401610750565b60fc80546001600160a01b0319166001600160a01b0392909216919091179055565b60026001541415610a815760405162461bcd60e51b815260040161075090613c85565b60026001556065546001600160a01b0316331480610ab45750336000908152610103602052604090205460ff1615156001145b610ad05760405162461bcd60e51b815260040161075090613bc1565b610ad983612108565b610ae281612122565b8261ffff16825114610b405760405162461bcd60e51b815260206004820152602160248201527f4d696e7420506173732062616c616e636520697320696e73756666696369656e6044820152601d60fa1b6064820152608401610750565b60005b8251811015610bd057610b6e838281518110610b6157610b61613e14565b6020026020010151612325565b6000610b79836121e8565b905060fd6000858481518110610b9157610b91613e14565b60209081029190910181015182528181019290925260400160009081208054600181018255908252919020015580610bc881613db9565b915050610b43565b507fe66707350710f863090ce00b7e4d71719c22c782f15f8d3f3a8734216b03bedf8161010183604051610c0491906138b6565b908152604051908190036020018120610c1d9291613a96565b60405180910390a1600080516020613e76833981519152610c3e6101055490565b610c46611cdc565b610104546040805193845260208401929092529082015260600160405180910390a150506001805550565b610c796122cb565b6001600160a01b038116610ccf5760405162461bcd60e51b815260206004820152601f60248201527f4d696e74506173734e465420697320746865207a65726f2061646472657373006044820152606401610750565b60fb80546001600160a01b0319166001600160a01b0392909216919091179055565b306001600160a01b037f0000000000000000000000000000000000000000000000000000000000000000161415610d3a5760405162461bcd60e51b815260040161075090613b29565b7f00000000000000000000000000000000000000000000000000000000000000006001600160a01b0316610d83600080516020613e56833981519152546001600160a01b031690565b6001600160a01b031614610da95760405162461bcd60e51b815260040161075090613b75565b610db281612450565b6040805160008082526020820190925261091791839190612458565b60026001541415610df15760405162461bcd60e51b815260040161075090613c85565b600260015533600081815260fe6020526040902054610e4e5760405162461bcd60e51b8152602060048201526019602482015278131bd8dad95908135a5b9d14185cdcc81b9bdd08199bdd5b99603a1b6044820152606401610750565b600080610e5a8361091a565b6001600160401b03811115610e7157610e71613e2a565b604051908082528060200260200182016040528015610e9a578160200160208202803683370190505b5090506000805b6001600160a01b038516600090815260fe6020526040902054811015610fc4576001600160a01b038516600090815260fe60205260409020805482908110610eeb57610eeb613e14565b90600052602060002001549350610f1084600090815260fd6020526040902054151590565b15610f455783838381518110610f2857610f28613e14565b6020908102919091010152610f3e600183613d0f565b9150610fb2565b60fb546040516323b872dd60e01b81523060048201526001600160a01b03878116602483015260448201879052909116906323b872dd90606401600060405180830381600087803b158015610f9957600080fd5b505af1158015610fad573d6000803e3d6000fd5b505050505b80610fbc81613db9565b915050610ea1565b506001600160a01b038416600090815260fe602090815260409091208351610fee92850190613136565b505060018055505050565b6002600154141561101c5760405162461bcd60e51b815260040161075090613c85565b600260015560fc54600160a01b900460ff16156110895760405162461bcd60e51b815260206004820152602560248201527f53616c652069732072656164792c2063616e277420756e6c6f636b204d696e74604482015264205061737360d81b6064820152608401610750565b33600081815260fe60205260409020546110e15760405162461bcd60e51b8152602060048201526019602482015278131bd8dad95908135a5b9d14185cdcc81b9bdd08199bdd5b99603a1b6044820152606401610750565b60005b6001600160a01b038216600090815260fe60205260409020548110156111c75760fb546001600160a01b03838116600090815260fe60205260409020805491909216916323b872dd91309186918690811061114157611141613e14565b6000918252602090912001546040516001600160e01b031960e086901b1681526001600160a01b0393841660048201529290911660248301526044820152606401600060405180830381600087803b15801561119c57600080fd5b505af11580156111b0573d6000803e3d6000fd5b5050505080806111bf90613db9565b9150506110e4565b5060408051600080825260208083018085526001600160a01b038616835260fe90915292902090516111f99290613136565b505060018055565b6112096122cb565b61121382826125d2565b5050565b6002600154141561123a5760405162461bcd60e51b815260040161075090613c85565b600260015561124881612108565b61125481346001612771565b3360006112608261091a565b9050808361ffff1611156112ae5760405162461bcd60e51b8152602060048201526015602482015274496e73756666696369656e74204d696e745061737360581b6044820152606401610750565b60005b8361ffff168110156113705760006112c884612826565b9050801561132e5760405162461bcd60e51b815260206004820152602d60248201527f5b4d696e7450617373206c6f636b6564206973206e6f74206d696e7465645d2060448201526c1dd85cc81b9bdd08199bdd5b99609a1b6064820152608401610750565b6000611339856128c1565b600092835260fd6020908152604084208054600181018255908552932090920191909155508061136881613db9565b9150506112b1565b50600080516020613e76833981519152610c3e6101055490565b306001600160a01b037f00000000000000000000000000000000000000000000000000000000000000001614156113d35760405162461bcd60e51b815260040161075090613b29565b7f00000000000000000000000000000000000000000000000000000000000000006001600160a01b031661141c600080516020613e56833981519152546001600160a01b031690565b6001600160a01b0316146114425760405162461bcd60e51b815260040161075090613b75565b61144b82612450565b61121382826001612458565b61145f6122cb565b60fc8054911515600160a01b0260ff60a01b19909216919091179055565b6000306001600160a01b037f0000000000000000000000000000000000000000000000000000000000000000161461151d5760405162461bcd60e51b815260206004820152603860248201527f555550535570677261646561626c653a206d757374206e6f742062652063616c60448201527f6c6564207468726f7567682064656c656761746563616c6c00000000000000006064820152608401610750565b50600080516020613e5683398151915290565b6115386122cb565b600081116115945760405162461bcd60e51b8152602060048201526024808201527f4d617853616c65416d6f756e74206d75737420626520677265617465722074686044820152630616e20360e41b6064820152608401610750565b6101055481116116045760405162461bcd60e51b815260206004820152603560248201527f4d617853616c65416d6f756e74206d7573742062652067726561746572207468604482015274185b8817d8dd5c9c995b9d14dbdb19105b5bdd5b9d605a1b6064820152608401610750565b61010455565b6002600154141561162d5760405162461bcd60e51b815260040161075090613c85565b600260015561163b81612108565b61164781346000612771565b3360005b8261ffff1681101561167357611660826128c1565b508061166b81613db9565b91505061164b565b50600080516020613e768339815191526108536101055490565b600081815260fd60209081526040918290208054835181840281018401909452808452606093928301828280156116e357602002820191906000526020600020905b8154815260200190600101908083116116cf575b50505050509050919050565b6116f76122cb565b611701600061297d565b565b600081815260ff6020526040902080546060919061172090613d7e565b80601f016020809104026020016040519081016040528092919081815260200182805461174c90613d7e565b80156116e35780601f1061176e576101008083540402835291602001916116e3565b820191906000526020600020905b81548152906001019060200180831161177c5750939695505050505050565b600054610100900460ff16158080156117bb5750600054600160ff909116105b806117d55750303b1580156117d5575060005460ff166001145b6118385760405162461bcd60e51b815260206004820152602e60248201527f496e697469616c697a61626c653a20636f6e747261637420697320616c72656160448201526d191e481a5b9a5d1a585b1a5e995960921b6064820152608401610750565b6000805460ff19166001179055801561185b576000805461ff0019166101001790555b600089116118b75760405162461bcd60e51b8152602060048201526024808201527f6d617853616c65416d6f756e74206d75737420626520677265617465722074686044820152630616e20360e41b6064820152608401610750565b6001600160a01b03841661190d5760405162461bcd60e51b815260206004820152601f60248201527f6d696e74506173734e465420697320746865207a65726f2061646472657373006044820152606401610750565b6001600160a01b0383166119635760405162461bcd60e51b815260206004820181905260248201527f6d6f6f6e42656173744e465420697320746865207a65726f20616464726573736044820152606401610750565b6001600160a01b0382166119b95760405162461bcd60e51b815260206004820152601a60248201527f77616c6c657420697320746865207a65726f20616464726573730000000000006044820152606401610750565b6001600160a01b038516611a1a5760405162461bcd60e51b815260206004820152602260248201527f4d6173746572436f6e747261637420697320746865207a65726f206164647265604482015261737360f01b6064820152608401610750565b6000885111611a3b5760405162461bcd60e51b815260040161075090613c10565b8651885114611a8c5760405162461bcd60e51b815260206004820181905260248201527f5061636b7320616e6420707269636573206973206e6f74206d61746368696e676044820152606401610750565b8551885114611add5760405162461bcd60e51b815260206004820181905260248201527f5061636b7320616e6420707269636573206973206e6f74206d61746368696e676044820152606401610750565b611ae56129cf565b611aed6129fe565b61010489905560fb80546001600160a01b038087166001600160a01b03199283161790925560fc80548684169083161790556101088054928516929091169190911790558751611b45906101009060208b0190613181565b508651611b5a906101069060208a0190613136565b508551611b6f90610107906020890190613136565b5061010980546001600160a01b0319166001600160a01b03871617905560fc805460ff60a01b1916905560005b61010054811015611c8a5760006101008281548110611bbd57611bbd613e14565b60009182526020909120601082040154600f9091166002026101000a900461ffff1611611bfc5760405162461bcd60e51b815260040161075090613c10565b60006101068281548110611c1257611c12613e14565b906000526020600020015411611c3a5760405162461bcd60e51b815260040161075090613c10565b60006101078281548110611c5057611c50613e14565b906000526020600020015411611c785760405162461bcd60e51b815260040161075090613c10565b80611c8281613db9565b915050611b9c565b508015611cd1576000805461ff0019169055604051600181527f7f26b83ff96e1f2b6a682f133852f6798a09c465da95921460cefb38474024989060200160405180910390a15b505050505050505050565b6000611ce86101055490565b61010454611cf69190613d3b565b905090565b611d036122cb565b60005b61010254811015611d7257600061010360006101028481548110611d2c57611d2c613e14565b6000918252602080832091909101546001600160a01b031683528201929092526040019020805460ff191691151591909117905580611d6a81613db9565b915050611d06565b5060408051600081526020810191829052516109179161010291613225565b606061010182604051611da491906138b6565b90815260408051918290036020908101832080548083028501830190935282845291908301828280156116e357602002820191906000526020600020908154815260200190600101908083116116cf5750505050509050919050565b611e086122cb565b60005b8251811015611e4957611e37838281518110611e2957611e29613e14565b6020026020010151836125d2565b80611e4181613db9565b915050611e0b565b505050565b60026001541415611e715760405162461bcd60e51b815260040161075090613c85565b60026001553360005b8251811015611eb857611ea682848381518110611e9957611e99613e14565b6020026020010151612a25565b80611eb081613db9565b915050611e7a565b50506001805550565b611ec96122cb565b6001600160a01b038116611f1f5760405162461bcd60e51b815260206004820152601a60248201527f57616c6c657420697320746865207a65726f20616464726573730000000000006044820152606401610750565b61010880546001600160a01b0319166001600160a01b0392909216919091179055565b6001600160a01b038116600090815260fe6020526040812054606091906001600160401b03811115611f7657611f76613e2a565b604051908082528060200260200182016040528015611fbb57816020015b6040805180820190915260008082526020820152815260200190600190039081611f945790505b5090506000805b6001600160a01b038516600090815260fe6020526040902054811015612078576001600160a01b038516600090815260fe6020526040812080548390811061200c5761200c613e14565b90600052602060002001549050604051806040016040528082815260200161204283600090815260fd6020526040902054151590565b151581525084838151811061205957612059613e14565b602002602001018190525050808061207090613db9565b915050611fc2565b50909392505050565b6120896122cb565b6001600160a01b0381166120ee5760405162461bcd60e51b815260206004820152602660248201527f4f776e61626c653a206e6577206f776e657220697320746865207a65726f206160448201526564647265737360d01b6064820152608401610750565b6109178161297d565b610106818154811061071c57600080fd5b612110612b8f565b61211981612be0565b61091781612c8a565b80516121705760405162461bcd60e51b815260206004820152601b60248201527f5472616e73616374696f6e206b657920697320726571756972656400000000006044820152606401610750565b6101018160405161218191906138b6565b90815260405190819003602001902054156109175760405162461bcd60e51b815260206004820152602160248201527f546865207472616e73616374696f6e206b657920686173206265656e207573656044820152601960fa1b6064820152608401610750565b60fc54610109546040516354ba0f2760e01b81526001600160a01b039182166004820152600092839216906354ba0f2790602401602060405180830381600087803b15801561223657600080fd5b505af115801561224a573d6000803e3d6000fd5b505050506040513d601f19601f8201168201806040525081019061226e91906136a6565b905061227f61010580546001019055565b6101018360405161229091906138b6565b9081526040805160209281900383019020805460018101825560009182528382200184905583815260ff83522084516109d79286019061327a565b6065546001600160a01b031633146117015760405162461bcd60e51b815260206004820181905260248201527f4f776e61626c653a2063616c6c6572206973206e6f7420746865206f776e65726044820152606401610750565b6101095460fb546040516331a9108f60e11b8152600481018490526001600160a01b039283169290911690636352211e9060240160206040518083038186803b15801561237157600080fd5b505afa158015612385573d6000803e3d6000fd5b505050506040513d601f19601f820116820180604052508101906123a99190613499565b6001600160a01b0316146123bc82612d3e565b6040516020016123cc91906139a4565b604051602081830303815290604052906123f95760405162461bcd60e51b81526004016107509190613a83565b50600081815260fd60205260409020541561241382612d3e565b6040516020016124239190613948565b604051602081830303815290604052906112135760405162461bcd60e51b81526004016107509190613a83565b6109176122cb565b7f4910fdfa16fed3260ed0e7147f7cc6da11a60208b5b9406d12a635614ffd91435460ff161561248b57611e4983612e43565b826001600160a01b03166352d1902d6040518163ffffffff1660e01b815260040160206040518083038186803b1580156124c457600080fd5b505afa9250505080156124f4575060408051601f3d908101601f191682019092526124f1918101906136a6565b60015b6125575760405162461bcd60e51b815260206004820152602e60248201527f45524331393637557067726164653a206e657720696d706c656d656e7461746960448201526d6f6e206973206e6f74205555505360901b6064820152608401610750565b600080516020613e5683398151915281146125c65760405162461bcd60e51b815260206004820152602960248201527f45524331393637557067726164653a20756e737570706f727465642070726f786044820152681a58589b195555525160ba1b6064820152608401610750565b50611e49838383612edf565b6001600160a01b0382166126325760405162461bcd60e51b815260206004820152602160248201527f5468656f206f70657261746f7220697320746865207a65726f206164647265736044820152607360f81b6064820152608401610750565b6001600160a01b0382163014156126995760405162461bcd60e51b815260206004820152602560248201527f546865206f70657261746f72206973207468697320636f6e7472616374206164604482015264647265737360d81b6064820152608401610750565b610108546001600160a01b03838116911614156126c85760405162461bcd60e51b815260040161075090613ae6565b6001600160a01b0382163314156126f15760405162461bcd60e51b815260040161075090613ae6565b6001600160a01b038216600090815261010360205260409020805460ff191682158015919091179091556112135761010280546001810182556000919091527f93bdaa6a4190909b7c3fbe8d42169ffe1cab19f51dfc8db24c71abf849eced4a0180546001600160a01b0384166001600160a01b03199091161790555050565b60006127dc848361278457610107612788565b6101065b8054806020026020016040519081016040528092919081815260200182805480156127d257602002820191906000526020600020905b8154815260200190600101908083116127be575b5050505050612f04565b90508083146128205760405162461bcd60e51b815260206004820152601060248201526f141c9a58d9481a5cc81a5b9d985b1a5960821b6044820152606401610750565b50505050565b600080805b6001600160a01b038416600090815260fe60205260409020548110156128b7576001600160a01b038416600090815260fe6020526040902080548290811061287557612875613e14565b9060005260206000200154915061289a82600090815260fd6020526040902054151590565b6128a5575092915050565b806128af81613db9565b91505061282b565b5060009392505050565b60fc546040516354ba0f2760e01b81526001600160a01b03838116600483015260009283929116906354ba0f2790602401602060405180830381600087803b15801561290c57600080fd5b505af1158015612920573d6000803e3d6000fd5b505050506040513d601f19601f8201168201806040525081019061294491906136a6565b905061295561010580546001019055565b604080516020808201808452600080845285815260ff90925292902090516109d7929061327a565b606580546001600160a01b038381166001600160a01b0319831681179093556040519116919082907f8be0079c531659141344cd1fd0a4f28419497f9722a3daafe3b4186f6b6457e090600090a35050565b600054610100900460ff166129f65760405162461bcd60e51b815260040161075090613c3a565b611701612f92565b600054610100900460ff166117015760405162461bcd60e51b815260040161075090613c3a565b60fb546040516331a9108f60e11b8152600481018390526001600160a01b03848116921690636352211e9060240160206040518083038186803b158015612a6b57600080fd5b505afa158015612a7f573d6000803e3d6000fd5b505050506040513d601f19601f82011682018060405250810190612aa39190613499565b6001600160a01b031614612af95760405162461bcd60e51b815260206004820152601960248201527f43616c6c6572206973206e6f7420746f6b656e206f776e6572000000000000006044820152606401610750565b6001600160a01b03828116600081815260fe602090815260408083208054600181018255908452919092200184905560fb5490516323b872dd60e01b8152600481019290925230602483015260448201849052909116906323b872dd90606401600060405180830381600087803b158015612b7357600080fd5b505af1158015612b87573d6000803e3d6000fd5b505050505050565b60fc54600160a01b900460ff166117015760405162461bcd60e51b81526020600482015260156024820152744d696e74204e4654206973206e6f7420726561647960581b6044820152606401610750565b6000805b61010054811015612c4d576101008181548110612c0357612c03613e14565b90600052602060002090601091828204019190066002029054906101000a900461ffff1661ffff168361ffff161415612c3b57600191505b80612c4581613db9565b915050612be4565b50806112135760405162461bcd60e51b815260206004820152600c60248201526b141858dac81a5b9d985b1a5960a21b6044820152606401610750565b6000612c966101055490565b61010454612ca49190613d3b565b90508161ffff16811015612cb782612d3e565b60018311612ce157604051806040016040528060048152602001630813919560e21b815250612d00565b60405180604001604052806005815260200164204e46547360d81b8152505b604051602001612d119291906138d2565b60405160208183030381529060405290611e495760405162461bcd60e51b81526004016107509190613a83565b606081612d625750506040805180820190915260018152600360fc1b602082015290565b8160005b8115612d8c5780612d7681613db9565b9150612d859050600a83613d27565b9150612d66565b6000816001600160401b03811115612da657612da6613e2a565b6040519080825280601f01601f191660200182016040528015612dd0576020820181803683370190505b5090505b8415612e3b57612de5600183613d3b565b9150612df2600a86613dd4565b612dfd906030613d0f565b60f81b818381518110612e1257612e12613e14565b60200101906001600160f81b031916908160001a905350612e34600a86613d27565b9450612dd4565b949350505050565b6001600160a01b0381163b612eb05760405162461bcd60e51b815260206004820152602d60248201527f455243313936373a206e657720696d706c656d656e746174696f6e206973206e60448201526c1bdd08184818dbdb9d1c9858dd609a1b6064820152608401610750565b600080516020613e5683398151915280546001600160a01b0319166001600160a01b0392909216919091179055565b612ee883612fc2565b600082511180612ef55750805b15611e49576128208383613002565b600080805b61010054811015612f8a576101008181548110612f2857612f28613e14565b90600052602060002090601091828204019190066002029054906101000a900461ffff1661ffff168561ffff161415612f7857838181518110612f6d57612f6d613e14565b602002602001015191505b80612f8281613db9565b915050612f09565b509392505050565b600054610100900460ff16612fb95760405162461bcd60e51b815260040161075090613c3a565b6117013361297d565b612fcb81612e43565b6040516001600160a01b038216907fbc7cd75a20ee27fd9adebab32041f755214dbc6bffa90cc0225b39da2e5c2d3b90600090a250565b60606001600160a01b0383163b61306a5760405162461bcd60e51b815260206004820152602660248201527f416464726573733a2064656c65676174652063616c6c20746f206e6f6e2d636f6044820152651b9d1c9858dd60d21b6064820152608401610750565b600080846001600160a01b03168460405161308591906138b6565b600060405180830381855af49150503d80600081146130c0576040519150601f19603f3d011682016040523d82523d6000602084013e6130c5565b606091505b50915091506130ed8282604051806060016040528060278152602001613e96602791396130f6565b95945050505050565b6060831561310557508161312f565b8251156131155782518084602001fd5b8160405162461bcd60e51b81526004016107509190613a83565b9392505050565b828054828255906000526020600020908101928215613171579160200282015b82811115613171578251825591602001919060010190613156565b5061317d9291506132ed565b5090565b82805482825590600052602060002090600f016010900481019282156131715791602002820160005b838211156131ea57835183826101000a81548161ffff021916908361ffff16021790555092602001926002016020816001010492830192600103026131aa565b80156132185782816101000a81549061ffff02191690556002016020816001010492830192600103026131ea565b505061317d9291506132ed565b828054828255906000526020600020908101928215613171579160200282015b8281111561317157825182546001600160a01b0319166001600160a01b03909116178255602090920191600190910190613245565b82805461328690613d7e565b90600052602060002090601f0160209004810192826132a85760008555613171565b82601f106132c157805160ff1916838001178555613171565b828001600101855582156131715791820182811115613171578251825591602001919060010190613156565b5b8082111561317d57600081556001016132ee565b803561330d81613e40565b919050565b600082601f83011261332357600080fd5b8135602061333861333383613cec565b613cbc565b80838252828201915082860187848660051b890101111561335857600080fd5b60005b8581101561337e5761336c8261346a565b8452928401929084019060010161335b565b5090979650505050505050565b600082601f83011261339c57600080fd5b813560206133ac61333383613cec565b80838252828201915082860187848660051b89010111156133cc57600080fd5b60005b8581101561337e578135845292840192908401906001016133cf565b8035801515811461330d57600080fd5b600082601f83011261340c57600080fd5b81356001600160401b0381111561342557613425613e2a565b613438601f8201601f1916602001613cbc565b81815284602083860101111561344d57600080fd5b816020850160208301376000918101602001919091529392505050565b803561ffff8116811461330d57600080fd5b60006020828403121561348e57600080fd5b813561312f81613e40565b6000602082840312156134ab57600080fd5b815161312f81613e40565b600080600080608085870312156134cc57600080fd5b84356134d781613e40565b935060208501356134e781613e40565b92506040850135915060608501356001600160401b0381111561350957600080fd5b613515878288016133fb565b91505092959194509250565b6000806040838503121561353457600080fd5b823561353f81613e40565b915061354d602084016133eb565b90509250929050565b6000806040838503121561356957600080fd5b823561357481613e40565b915060208301356001600160401b0381111561358f57600080fd5b61359b858286016133fb565b9150509250929050565b600080604083850312156135b857600080fd5b82356001600160401b038111156135ce57600080fd5b8301601f810185136135df57600080fd5b803560206135ef61333383613cec565b80838252828201915082850189848660051b880101111561360f57600080fd5b600095505b8486101561363b57803561362781613e40565b835260019590950194918301918301613614565b50955061364b90508682016133eb565b93505050509250929050565b60006020828403121561366957600080fd5b81356001600160401b0381111561367f57600080fd5b612e3b8482850161338b565b60006020828403121561369d57600080fd5b61312f826133eb565b6000602082840312156136b857600080fd5b5051919050565b6000602082840312156136d157600080fd5b81356001600160401b038111156136e757600080fd5b612e3b848285016133fb565b60006020828403121561370557600080fd5b61312f8261346a565b60008060006060848603121561372357600080fd5b61372c8461346a565b925060208401356001600160401b038082111561374857600080fd5b6137548783880161338b565b9350604086013591508082111561376a57600080fd5b50613777868287016133fb565b9150509250925092565b6000806040838503121561379457600080fd5b6135748361346a565b6000602082840312156137af57600080fd5b5035919050565b600080600080600080600080610100898b0312156137d357600080fd5b8835975060208901356001600160401b03808211156137f157600080fd5b6137fd8c838d01613312565b985060408b013591508082111561381357600080fd5b61381f8c838d0161338b565b975060608b013591508082111561383557600080fd5b506138428b828c0161338b565b95505061385160808a01613302565b935061385f60a08a01613302565b925061386d60c08a01613302565b915061387b60e08a01613302565b90509295985092959890939650565b600081518084526138a2816020860160208601613d52565b601f01601f19169290920160200192915050565b600082516138c8818460208701613d52565b9190910192915050565b7f546865206e756d626572206f66204e465473206973206e6f7420656e6f756768815271016103a3434b9903937bab732103632b33a160751b602082015260008351613925816032850160208801613d52565b83519083019061393c816032840160208801613d52565b01603201949350505050565b6c4d696e74506173734e4654202360981b81526000825161397081600d850160208701613d52565b7f20776173207573656420696e207468697320726f756e64000000000000000000600d939091019283015250602401919050565b6c4d696e74506173734e4654202360981b8152600082516139cc81600d850160208701613d52565b6a081a5cc81a5b9d985b1a5960aa1b600d939091019283015250601801919050565b602080825282518282018190526000919060409081850190868401855b82811015613a32578151805185528601511515868501529284019290850190600101613a0b565b5091979650505050505050565b6020808252825182820181905260009190848201906040850190845b81811015613a7757835183529284019291840191600101613a5b565b50909695505050505050565b60208152600061312f602083018461388a565b604081526000613aa9604083018561388a565b60208382038185015281855480845282840191508660005282600020935060005b8181101561337e57845483526001948501949284019201613aca565b60208082526023908201527f546865206f70657261746f7220697320746865206f776e65722773206164647260408201526265737360e81b606082015260800190565b6020808252602c908201527f46756e6374696f6e206d7573742062652063616c6c6564207468726f7567682060408201526b19195b1959d85d1958d85b1b60a21b606082015260800190565b6020808252602c908201527f46756e6374696f6e206d7573742062652063616c6c6564207468726f7567682060408201526b6163746976652070726f787960a01b606082015260800190565b6020808252602f908201527f4f776e61626c653a2063616c6c6572206973206e6f7420746865206f776e657260408201526e081bdc881a5cc8185c1c1c9bdd9959608a1b606082015260800190565b60208082526010908201526f141858dadcc81a5cc81a5b9d985b1a5960821b604082015260600190565b6020808252602b908201527f496e697469616c697a61626c653a20636f6e7472616374206973206e6f74206960408201526a6e697469616c697a696e6760a81b606082015260800190565b6020808252601f908201527f5265656e7472616e637947756172643a207265656e7472616e742063616c6c00604082015260600190565b604051601f8201601f191681016001600160401b0381118282101715613ce457613ce4613e2a565b604052919050565b60006001600160401b03821115613d0557613d05613e2a565b5060051b60200190565b60008219821115613d2257613d22613de8565b500190565b600082613d3657613d36613dfe565b500490565b600082821015613d4d57613d4d613de8565b500390565b60005b83811015613d6d578181015183820152602001613d55565b838111156128205750506000910152565b600181811c90821680613d9257607f821691505b60208210811415613db357634e487b7160e01b600052602260045260246000fd5b50919050565b6000600019821415613dcd57613dcd613de8565b5060010190565b600082613de357613de3613dfe565b500690565b634e487b7160e01b600052601160045260246000fd5b634e487b7160e01b600052601260045260246000fd5b634e487b7160e01b600052603260045260246000fd5b634e487b7160e01b600052604160045260246000fd5b6001600160a01b038116811461091757600080fdfe360894a13ba1a3210667c828492db98dca3e2076cc3735a920a3ca505d382bbc69031b1a7e7913762e884dd55b4b42c47d8a362a2715200304a1e1a0f63ec309416464726573733a206c6f772d6c6576656c2064656c65676174652063616c6c206661696c6564a264697066735822122092cdf7300ad960010303257ee73e3864b7f7260de8a45a6a7a41a930e8981ec364736f6c63430008070033",
  "linkReferences": {},
  "deployedLinkReferences": {}
}