{
  "_format": "hh-sol-artifact-1",
  "contractName": "UMoonBeastNFT",
  "sourceName": "contracts/upgradeables/UMoonBeastNFT.sol",
  "abi": [
    {
      "inputs": [],
      "stateMutability": "nonpayable",
      "type": "constructor"
    },
    {
      "anonymous": false,
      "inputs": [
        {
          "indexed": false,
          "internalType": "address",
          "name": "previousAdmin",
          "type": "address"
        },
        {
          "indexed": false,
          "internalType": "address",
          "name": "newAdmin",
          "type": "address"
        }
      ],
      "name": "AdminChanged",
      "type": "event"
    },
    {
      "anonymous": false,
      "inputs": [
        {
          "indexed": true,
          "internalType": "address",
          "name": "owner",
          "type": "address"
        },
        {
          "indexed": true,
          "internalType": "address",
          "name": "approved",
          "type": "address"
        },
        {
          "indexed": true,
          "internalType": "uint256",
          "name": "tokenId",
          "type": "uint256"
        }
      ],
      "name": "Approval",
      "type": "event"
    },
    {
      "anonymous": false,
      "inputs": [
        {
          "indexed": true,
          "internalType": "address",
          "name": "owner",
          "type": "address"
        },
        {
          "indexed": true,
          "internalType": "address",
          "name": "operator",
          "type": "address"
        },
        {
          "indexed": false,
          "internalType": "bool",
          "name": "approved",
          "type": "bool"
        }
      ],
      "name": "ApprovalForAll",
      "type": "event"
    },
    {
      "anonymous": false,
      "inputs": [
        {
          "indexed": true,
          "internalType": "address",
          "name": "beacon",
          "type": "address"
        }
      ],
      "name": "BeaconUpgraded",
      "type": "event"
    },
    {
      "anonymous": false,
      "inputs": [
        {
          "indexed": false,
          "internalType": "uint8",
          "name": "version",
          "type": "uint8"
        }
      ],
      "name": "Initialized",
      "type": "event"
    },
    {
      "anonymous": false,
      "inputs": [
        {
          "indexed": true,
          "internalType": "address",
          "name": "previousOwner",
          "type": "address"
        },
        {
          "indexed": true,
          "internalType": "address",
          "name": "newOwner",
          "type": "address"
        }
      ],
      "name": "OwnershipTransferred",
      "type": "event"
    },
    {
      "anonymous": false,
      "inputs": [
        {
          "indexed": true,
          "internalType": "address",
          "name": "from",
          "type": "address"
        },
        {
          "indexed": true,
          "internalType": "address",
          "name": "to",
          "type": "address"
        },
        {
          "indexed": true,
          "internalType": "uint256",
          "name": "tokenId",
          "type": "uint256"
        }
      ],
      "name": "Transfer",
      "type": "event"
    },
    {
      "anonymous": false,
      "inputs": [
        {
          "indexed": true,
          "internalType": "address",
          "name": "implementation",
          "type": "address"
        }
      ],
      "name": "Upgraded",
      "type": "event"
    },
    {
      "inputs": [
        {
          "internalType": "address",
          "name": "",
          "type": "address"
        }
      ],
      "name": "_approvedOperators",
      "outputs": [
        {
          "internalType": "bool",
          "name": "",
          "type": "bool"
        }
      ],
      "stateMutability": "view",
      "type": "function"
    },
    {
      "inputs": [
        {
          "internalType": "address",
          "name": "to",
          "type": "address"
        },
        {
          "internalType": "uint256",
          "name": "tokenId",
          "type": "uint256"
        }
      ],
      "name": "approve",
      "outputs": [],
      "stateMutability": "nonpayable",
      "type": "function"
    },
    {
      "inputs": [
        {
          "internalType": "address",
          "name": "owner",
          "type": "address"
        }
      ],
      "name": "balanceOf",
      "outputs": [
        {
          "internalType": "uint256",
          "name": "",
          "type": "uint256"
        }
      ],
      "stateMutability": "view",
      "type": "function"
    },
    {
      "inputs": [
        {
          "internalType": "uint256",
          "name": "tokenId",
          "type": "uint256"
        }
      ],
      "name": "burnNFT",
      "outputs": [],
      "stateMutability": "nonpayable",
      "type": "function"
    },
    {
      "inputs": [
        {
          "internalType": "uint256",
          "name": "tokenId",
          "type": "uint256"
        }
      ],
      "name": "getApproved",
      "outputs": [
        {
          "internalType": "address",
          "name": "",
          "type": "address"
        }
      ],
      "stateMutability": "view",
      "type": "function"
    },
    {
      "inputs": [
        {
          "internalType": "string",
          "name": "name",
          "type": "string"
        },
        {
          "internalType": "string",
          "name": "symbol",
          "type": "string"
        }
      ],
      "name": "initialize",
      "outputs": [],
      "stateMutability": "nonpayable",
      "type": "function"
    },
    {
      "inputs": [
        {
          "internalType": "address",
          "name": "owner",
          "type": "address"
        },
        {
          "internalType": "address",
          "name": "operator",
          "type": "address"
        }
      ],
      "name": "isApprovedForAll",
      "outputs": [
        {
          "internalType": "bool",
          "name": "",
          "type": "bool"
        }
      ],
      "stateMutability": "view",
      "type": "function"
    },
    {
      "inputs": [],
      "name": "latestTokenId",
      "outputs": [
        {
          "internalType": "uint256",
          "name": "",
          "type": "uint256"
        }
      ],
      "stateMutability": "view",
      "type": "function"
    },
    {
      "inputs": [
        {
          "internalType": "address",
          "name": "recipient",
          "type": "address"
        }
      ],
      "name": "mintNFT",
      "outputs": [
        {
          "internalType": "uint256",
          "name": "",
          "type": "uint256"
        }
      ],
      "stateMutability": "nonpayable",
      "type": "function"
    },
    {
      "inputs": [
        {
          "internalType": "address",
          "name": "recipient",
          "type": "address"
        },
        {
          "internalType": "string",
          "name": "_tokenURI_",
          "type": "string"
        }
      ],
      "name": "mintNFT",
      "outputs": [
        {
          "internalType": "uint256",
          "name": "",
          "type": "uint256"
        }
      ],
      "stateMutability": "nonpayable",
      "type": "function"
    },
    {
      "inputs": [],
      "name": "name",
      "outputs": [
        {
          "internalType": "string",
          "name": "",
          "type": "string"
        }
      ],
      "stateMutability": "view",
      "type": "function"
    },
    {
      "inputs": [],
      "name": "owner",
      "outputs": [
        {
          "internalType": "address",
          "name": "",
          "type": "address"
        }
      ],
      "stateMutability": "view",
      "type": "function"
    },
    {
      "inputs": [
        {
          "internalType": "uint256",
          "name": "tokenId",
          "type": "uint256"
        }
      ],
      "name": "ownerOf",
      "outputs": [
        {
          "internalType": "address",
          "name": "",
          "type": "address"
        }
      ],
      "stateMutability": "view",
      "type": "function"
    },
    {
      "inputs": [],
      "name": "proxiableUUID",
      "outputs": [
        {
          "internalType": "bytes32",
          "name": "",
          "type": "bytes32"
        }
      ],
      "stateMutability": "view",
      "type": "function"
    },
    {
      "inputs": [],
      "name": "renounceOwnership",
      "outputs": [],
      "stateMutability": "nonpayable",
      "type": "function"
    },
    {
      "inputs": [
        {
          "internalType": "address",
          "name": "from",
          "type": "address"
        },
        {
          "internalType": "address",
          "name": "to",
          "type": "address"
        },
        {
          "internalType": "uint256",
          "name": "tokenId",
          "type": "uint256"
        }
      ],
      "name": "safeTransferFrom",
      "outputs": [],
      "stateMutability": "nonpayable",
      "type": "function"
    },
    {
      "inputs": [
        {
          "internalType": "address",
          "name": "from",
          "type": "address"
        },
        {
          "internalType": "address",
          "name": "to",
          "type": "address"
        },
        {
          "internalType": "uint256",
          "name": "tokenId",
          "type": "uint256"
        },
        {
          "internalType": "bytes",
          "name": "data",
          "type": "bytes"
        }
      ],
      "name": "safeTransferFrom",
      "outputs": [],
      "stateMutability": "nonpayable",
      "type": "function"
    },
    {
      "inputs": [
        {
          "internalType": "address",
          "name": "operator",
          "type": "address"
        },
        {
          "internalType": "bool",
          "name": "approved",
          "type": "bool"
        }
      ],
      "name": "setApprovalForAll",
      "outputs": [],
      "stateMutability": "nonpayable",
      "type": "function"
    },
    {
      "inputs": [
        {
          "internalType": "address",
          "name": "operator",
          "type": "address"
        },
        {
          "internalType": "bool",
          "name": "isApproved",
          "type": "bool"
        }
      ],
      "name": "setApprovedOperator",
      "outputs": [],
      "stateMutability": "nonpayable",
      "type": "function"
    },
    {
      "inputs": [
        {
          "internalType": "string",
          "name": "baseURI_",
          "type": "string"
        }
      ],
      "name": "setBaseURI",
      "outputs": [],
      "stateMutability": "nonpayable",
      "type": "function"
    },
    {
      "inputs": [
        {
          "internalType": "uint256",
          "name": "tokenId",
          "type": "uint256"
        },
        {
          "internalType": "string",
          "name": "_tokenURI",
          "type": "string"
        }
      ],
      "name": "setTokenURI",
      "outputs": [
        {
          "internalType": "uint256",
          "name": "",
          "type": "uint256"
        }
      ],
      "stateMutability": "nonpayable",
      "type": "function"
    },
    {
      "inputs": [
        {
          "internalType": "uint256",
          "name": "startId",
          "type": "uint256"
        },
        {
          "internalType": "uint256",
          "name": "endId",
          "type": "uint256"
        },
        {
          "internalType": "string",
          "name": "baseURI",
          "type": "string"
        }
      ],
      "name": "setTokenURIByIdRange",
      "outputs": [],
      "stateMutability": "nonpayable",
      "type": "function"
    },
    {
      "inputs": [
        {
          "internalType": "uint256[]",
          "name": "tokenIds",
          "type": "uint256[]"
        },
        {
          "internalType": "string",
          "name": "baseURI",
          "type": "string"
        }
      ],
      "name": "setTokenURIs",
      "outputs": [],
      "stateMutability": "nonpayable",
      "type": "function"
    },
    {
      "inputs": [
        {
          "internalType": "bytes4",
          "name": "interfaceId",
          "type": "bytes4"
        }
      ],
      "name": "supportsInterface",
      "outputs": [
        {
          "internalType": "bool",
          "name": "",
          "type": "bool"
        }
      ],
      "stateMutability": "view",
      "type": "function"
    },
    {
      "inputs": [],
      "name": "symbol",
      "outputs": [
        {
          "internalType": "string",
          "name": "",
          "type": "string"
        }
      ],
      "stateMutability": "view",
      "type": "function"
    },
    {
      "inputs": [
        {
          "internalType": "uint256",
          "name": "index",
          "type": "uint256"
        }
      ],
      "name": "tokenByIndex",
      "outputs": [
        {
          "internalType": "uint256",
          "name": "",
          "type": "uint256"
        }
      ],
      "stateMutability": "view",
      "type": "function"
    },
    {
      "inputs": [
        {
          "internalType": "address",
          "name": "owner",
          "type": "address"
        },
        {
          "internalType": "uint256",
          "name": "index",
          "type": "uint256"
        }
      ],
      "name": "tokenOfOwnerByIndex",
      "outputs": [
        {
          "internalType": "uint256",
          "name": "",
          "type": "uint256"
        }
      ],
      "stateMutability": "view",
      "type": "function"
    },
    {
      "inputs": [
        {
          "internalType": "uint256",
          "name": "tokenId",
          "type": "uint256"
        }
      ],
      "name": "tokenURI",
      "outputs": [
        {
          "internalType": "string",
          "name": "",
          "type": "string"
        }
      ],
      "stateMutability": "view",
      "type": "function"
    },
    {
      "inputs": [],
      "name": "totalSupply",
      "outputs": [
        {
          "internalType": "uint256",
          "name": "",
          "type": "uint256"
        }
      ],
      "stateMutability": "view",
      "type": "function"
    },
    {
      "inputs": [
        {
          "internalType": "address",
          "name": "from",
          "type": "address"
        },
        {
          "internalType": "address",
          "name": "to",
          "type": "address"
        },
        {
          "internalType": "uint256",
          "name": "tokenId",
          "type": "uint256"
        }
      ],
      "name": "transferFrom",
      "outputs": [],
      "stateMutability": "nonpayable",
      "type": "function"
    },
    {
      "inputs": [
        {
          "internalType": "address",
          "name": "newOwner",
          "type": "address"
        }
      ],
      "name": "transferOwnership",
      "outputs": [],
      "stateMutability": "nonpayable",
      "type": "function"
    },
    {
      "inputs": [
        {
          "internalType": "address",
          "name": "newImplementation",
          "type": "address"
        }
      ],
      "name": "upgradeTo",
      "outputs": [],
      "stateMutability": "nonpayable",
      "type": "function"
    },
    {
      "inputs": [
        {
          "internalType": "address",
          "name": "newImplementation",
          "type": "address"
        },
        {
          "internalType": "bytes",
          "name": "data",
          "type": "bytes"
        }
      ],
      "name": "upgradeToAndCall",
      "outputs": [],
      "stateMutability": "payable",
      "type": "function"
    },
    {
      "inputs": [
        {
          "internalType": "uint256",
          "name": "tokenId",
          "type": "uint256"
        },
        {
          "internalType": "string",
          "name": "_tokenURI",
          "type": "string"
        },
        {
          "internalType": "address",
          "name": "receiver",
          "type": "address"
        }
      ],
      "name": "withdrawNFT",
      "outputs": [
        {
          "internalType": "uint256",
          "name": "",
          "type": "uint256"
        }
      ],
      "stateMutability": "nonpayable",
      "type": "function"
    }
  ],
  "bytecode": "0x60a06040523073ffffffffffffffffffffffffffffffffffffffff1660809073ffffffffffffffffffffffffffffffffffffffff1660601b8152503480156200004757600080fd5b50620000586200005e60201b60201c565b62000209565b600060019054906101000a900460ff1615620000b1576040517f08c379a0000000000000000000000000000000000000000000000000000000008152600401620000a8906200015d565b60405180910390fd5b60ff801660008054906101000a900460ff1660ff161015620001235760ff6000806101000a81548160ff021916908360ff1602179055507f7f26b83ff96e1f2b6a682f133852f6798a09c465da95921460cefb384740249860ff6040516200011a91906200017f565b60405180910390a15b565b6000620001346027836200019c565b91506200014182620001ba565b604082019050919050565b6200015781620001ad565b82525050565b60006020820190508181036000830152620001788162000125565b9050919050565b60006020820190506200019660008301846200014c565b92915050565b600082825260208201905092915050565b600060ff82169050919050565b7f496e697469616c697a61626c653a20636f6e747261637420697320696e69746960008201527f616c697a696e6700000000000000000000000000000000000000000000000000602082015250565b60805160601c6157d66200024460003960008181610bf001528181610c7f015281816110a701528181611136015261130101526157d66000f3fe6080604052600436106101f95760003560e01c806352d1902d1161010d5780638da5cb5b116100a0578063c87b56dd1161006f578063c87b56dd14610744578063ce18da1714610781578063e985e9c5146107be578063eacabe14146107fb578063f2fde38b14610838576101f9565b80638da5cb5b1461069c57806395d89b41146106c7578063a22cb465146106f2578063b88d4fde1461071b576101f9565b80636e61036f116100dc5780636e61036f146105e057806370a082311461061d578063715018a61461065a5780638c0e834914610671576101f9565b806352d1902d1461051257806354ba0f271461053d57806355f804b31461057a5780636352211e146105a3576101f9565b80632f745c591161019057806342842e0e1161015f57806342842e0e1461043e5780634cd88b76146104675780634f1ef286146104905780634f6ccce7146104ac578063523f895c146104e9576101f9565b80632f745c59146103865780633659cfe6146103c35780633c5a6153146103ec57806340c4f66f14610415576101f9565b8063162094c4116101cc578063162094c4146102cc57806318160ddd1461030957806323b872dd146103345780632890e0d71461035d576101f9565b806301ffc9a7146101fe57806306fdde031461023b578063081812fc14610266578063095ea7b3146102a3575b600080fd5b34801561020a57600080fd5b5061022560048036038101906102209190613c59565b610861565b6040516102329190614507565b60405180910390f35b34801561024757600080fd5b50610250610873565b60405161025d9190614558565b60405180910390f35b34801561027257600080fd5b5061028d60048036038101906102889190613d74565b610905565b60405161029a91906144a0565b60405180910390f35b3480156102af57600080fd5b506102ca60048036038101906102c59190613b70565b61094b565b005b3480156102d857600080fd5b506102f360048036038101906102ee9190613da1565b610a63565b604051610300919061495a565b60405180910390f35b34801561031557600080fd5b5061031e610a80565b60405161032b919061495a565b60405180910390f35b34801561034057600080fd5b5061035b600480360381019061035691906139a2565b610a8d565b005b34801561036957600080fd5b50610384600480360381019061037f9190613d74565b610aed565b005b34801561039257600080fd5b506103ad60048036038101906103a89190613b70565b610b49565b6040516103ba919061495a565b60405180910390f35b3480156103cf57600080fd5b506103ea60048036038101906103e59190613935565b610bee565b005b3480156103f857600080fd5b50610413600480360381019061040e9190613a78565b610d77565b005b34801561042157600080fd5b5061043c60048036038101906104379190613bb0565b610e4b565b005b34801561044a57600080fd5b50610465600480360381019061046091906139a2565b610f2b565b005b34801561047357600080fd5b5061048e60048036038101906104899190613cfc565b610f4b565b005b6104aa60048036038101906104a59190613ab8565b6110a5565b005b3480156104b857600080fd5b506104d360048036038101906104ce9190613d74565b6111e2565b6040516104e0919061495a565b60405180910390f35b3480156104f557600080fd5b50610510600480360381019061050b9190613e6c565b611253565b005b34801561051e57600080fd5b506105276112fd565b6040516105349190614522565b60405180910390f35b34801561054957600080fd5b50610564600480360381019061055f9190613935565b6113b6565b604051610571919061495a565b60405180910390f35b34801561058657600080fd5b506105a1600480360381019061059c9190613cb3565b6114c4565b005b3480156105af57600080fd5b506105ca60048036038101906105c59190613d74565b6114e7565b6040516105d791906144a0565b60405180910390f35b3480156105ec57600080fd5b5061060760048036038101906106029190613935565b611599565b6040516106149190614507565b60405180910390f35b34801561062957600080fd5b50610644600480360381019061063f9190613935565b6115ba565b604051610651919061495a565b60405180910390f35b34801561066657600080fd5b5061066f611672565b005b34801561067d57600080fd5b50610686611686565b604051610693919061495a565b60405180910390f35b3480156106a857600080fd5b506106b1611698565b6040516106be91906144a0565b60405180910390f35b3480156106d357600080fd5b506106dc6116c2565b6040516106e99190614558565b60405180910390f35b3480156106fe57600080fd5b5061071960048036038101906107149190613a78565b611754565b005b34801561072757600080fd5b50610742600480360381019061073d91906139f5565b61176a565b005b34801561075057600080fd5b5061076b60048036038101906107669190613d74565b6117cc565b6040516107789190614558565b60405180910390f35b34801561078d57600080fd5b506107a860048036038101906107a39190613dfd565b611918565b6040516107b5919061495a565b60405180910390f35b3480156107ca57600080fd5b506107e560048036038101906107e09190613962565b611948565b6040516107f29190614507565b60405180910390f35b34801561080757600080fd5b50610822600480360381019061081d9190613b14565b6119dc565b60405161082f919061495a565b60405180910390f35b34801561084457600080fd5b5061085f600480360381019061085a9190613935565b611af5565b005b600061086c82611b79565b9050919050565b60606065805461088290614be4565b80601f01602080910402602001604051908101604052809291908181526020018280546108ae90614be4565b80156108fb5780601f106108d0576101008083540402835291602001916108fb565b820191906000526020600020905b8154815290600101906020018083116108de57829003601f168201915b5050505050905090565b600061091082611bf3565b6069600083815260200190815260200160002060009054906101000a900473ffffffffffffffffffffffffffffffffffffffff169050919050565b6000610956826114e7565b90508073ffffffffffffffffffffffffffffffffffffffff168373ffffffffffffffffffffffffffffffffffffffff1614156109c7576040517f08c379a00000000000000000000000000000000000000000000000000000000081526004016109be9061483a565b60405180910390fd5b8073ffffffffffffffffffffffffffffffffffffffff166109e6611c3e565b73ffffffffffffffffffffffffffffffffffffffff161480610a155750610a1481610a0f611c3e565b611948565b5b610a54576040517f08c379a0000000000000000000000000000000000000000000000000000000008152600401610a4b9061471a565b60405180910390fd5b610a5e8383611c46565b505050565b6000610a6d611cff565b610a778383611d7d565b82905092915050565b6000609980549050905090565b610a9e610a98611c3e565b82611df2565b610add576040517f08c379a0000000000000000000000000000000000000000000000000000000008152600401610ad49061491a565b60405180910390fd5b610ae8838383611e87565b505050565b610afe610af8611c3e565b82611df2565b610b3d576040517f08c379a0000000000000000000000000000000000000000000000000000000008152600401610b349061493a565b60405180910390fd5b610b46816120ee565b50565b6000610b54836115ba565b8210610b95576040517f08c379a0000000000000000000000000000000000000000000000000000000008152600401610b8c9061457a565b60405180910390fd5b609760008473ffffffffffffffffffffffffffffffffffffffff1673ffffffffffffffffffffffffffffffffffffffff168152602001908152602001600020600083815260200190815260200160002054905092915050565b7f000000000000000000000000000000000000000000000000000000000000000073ffffffffffffffffffffffffffffffffffffffff163073ffffffffffffffffffffffffffffffffffffffff161415610c7d576040517f08c379a0000000000000000000000000000000000000000000000000000000008152600401610c749061461a565b60405180910390fd5b7f000000000000000000000000000000000000000000000000000000000000000073ffffffffffffffffffffffffffffffffffffffff16610cbc61220b565b73ffffffffffffffffffffffffffffffffffffffff1614610d12576040517f08c379a0000000000000000000000000000000000000000000000000000000008152600401610d099061467a565b60405180910390fd5b610d1b81612262565b610d7481600067ffffffffffffffff811115610d3a57610d39614dac565b5b6040519080825280601f01601f191660200182016040528015610d6c5781602001600182028036833780820191505090505b50600061226d565b50565b610d7f611cff565b600073ffffffffffffffffffffffffffffffffffffffff168273ffffffffffffffffffffffffffffffffffffffff161415610def576040517f08c379a0000000000000000000000000000000000000000000000000000000008152600401610de6906148fa565b60405180910390fd5b8061016160008473ffffffffffffffffffffffffffffffffffffffff1673ffffffffffffffffffffffffffffffffffffffff16815260200190815260200160002060006101000a81548160ff0219169083151502179055505050565b610e53611cff565b60008383905011610e99576040517f08c379a0000000000000000000000000000000000000000000000000000000008152600401610e909061487a565b60405180910390fd5b60005b83839050811015610f2557600082610ecc868685818110610ec057610ebf614d7d565b5b905060200201356123ea565b604051602001610edd929190614471565b6040516020818303038152906040529050610f11858584818110610f0457610f03614d7d565b5b9050602002013582611d7d565b508080610f1d90614c47565b915050610e9c565b50505050565b610f468383836040518060200160405280600081525061176a565b505050565b60008060019054906101000a900460ff16159050808015610f7c5750600160008054906101000a900460ff1660ff16105b80610fa95750610f8b3061254b565b158015610fa85750600160008054906101000a900460ff1660ff16145b5b610fe8576040517f08c379a0000000000000000000000000000000000000000000000000000000008152600401610fdf906146fa565b60405180910390fd5b60016000806101000a81548160ff021916908360ff1602179055508015611025576001600060016101000a81548160ff0219169083151502179055505b61102f838361256e565b6110376125cb565b61103f61261c565b611047612675565b80156110a05760008060016101000a81548160ff0219169083151502179055507f7f26b83ff96e1f2b6a682f133852f6798a09c465da95921460cefb38474024986001604051611097919061453d565b60405180910390a15b505050565b7f000000000000000000000000000000000000000000000000000000000000000073ffffffffffffffffffffffffffffffffffffffff163073ffffffffffffffffffffffffffffffffffffffff161415611134576040517f08c379a000000000000000000000000000000000000000000000000000000000815260040161112b9061461a565b60405180910390fd5b7f000000000000000000000000000000000000000000000000000000000000000073ffffffffffffffffffffffffffffffffffffffff1661117361220b565b73ffffffffffffffffffffffffffffffffffffffff16146111c9576040517f08c379a00000000000000000000000000000000000000000000000000000000081526004016111c09061467a565b60405180910390fd5b6111d282612262565b6111de8282600161226d565b5050565b60006111ec610a80565b821061122d576040517f08c379a00000000000000000000000000000000000000000000000000000000081526004016112249061489a565b60405180910390fd5b6099828154811061124157611240614d7d565b5b90600052602060002001549050919050565b61125b611cff565b81831061129d576040517f08c379a0000000000000000000000000000000000000000000000000000000008152600401611294906148da565b60405180910390fd5b60008390505b828110156112f7576000826112b7836123ea565b6040516020016112c8929190614471565b60405160208183030381529060405290506112e38282611d7d565b5080806112ef90614c47565b9150506112a3565b50505050565b60007f000000000000000000000000000000000000000000000000000000000000000073ffffffffffffffffffffffffffffffffffffffff163073ffffffffffffffffffffffffffffffffffffffff161461138d576040517f08c379a00000000000000000000000000000000000000000000000000000000081526004016113849061469a565b60405180910390fd5b7f360894a13ba1a3210667c828492db98dca3e2076cc3735a920a3ca505d382bbc60001b905090565b60006113c0611c3e565b73ffffffffffffffffffffffffffffffffffffffff166113de611698565b73ffffffffffffffffffffffffffffffffffffffff161480611458575060011515610161600061140c611c3e565b73ffffffffffffffffffffffffffffffffffffffff1673ffffffffffffffffffffffffffffffffffffffff16815260200190815260200160002060009054906101000a900460ff161515145b611497576040517f08c379a000000000000000000000000000000000000000000000000000000000815260040161148e906147fa565b60405180910390fd5b6114a261015f6126c6565b60006114af61015f6126dc565b90506114bb83826126ea565b80915050919050565b6114cc611cff565b8061016290805190602001906114e39291906136de565b5050565b6000806067600084815260200190815260200160002060009054906101000a900473ffffffffffffffffffffffffffffffffffffffff169050600073ffffffffffffffffffffffffffffffffffffffff168173ffffffffffffffffffffffffffffffffffffffff161415611590576040517f08c379a00000000000000000000000000000000000000000000000000000000081526004016115879061481a565b60405180910390fd5b80915050919050565b6101616020528060005260406000206000915054906101000a900460ff1681565b60008073ffffffffffffffffffffffffffffffffffffffff168273ffffffffffffffffffffffffffffffffffffffff16141561162b576040517f08c379a0000000000000000000000000000000000000000000000000000000008152600401611622906146ba565b60405180910390fd5b606860008373ffffffffffffffffffffffffffffffffffffffff1673ffffffffffffffffffffffffffffffffffffffff168152602001908152602001600020549050919050565b61167a611cff565b61168460006128c4565b565b600061169361015f6126dc565b905090565b600060c960009054906101000a900473ffffffffffffffffffffffffffffffffffffffff16905090565b6060606680546116d190614be4565b80601f01602080910402602001604051908101604052809291908181526020018280546116fd90614be4565b801561174a5780601f1061171f5761010080835404028352916020019161174a565b820191906000526020600020905b81548152906001019060200180831161172d57829003601f168201915b5050505050905090565b61176661175f611c3e565b838361298a565b5050565b61177b611775611c3e565b83611df2565b6117ba576040517f08c379a00000000000000000000000000000000000000000000000000000000081526004016117b19061491a565b60405180910390fd5b6117c684848484612af7565b50505050565b60606117d782612b53565b611816576040517f08c379a000000000000000000000000000000000000000000000000000000000815260040161180d906147da565b60405180910390fd5b60006101606000848152602001908152602001600020805461183790614be4565b80601f016020809104026020016040519081016040528092919081815260200182805461186390614be4565b80156118b05780601f10611885576101008083540402835291602001916118b0565b820191906000526020600020905b81548152906001019060200180831161189357829003601f168201915b5050505050905060006118c1612bbf565b9050600081511180156118d5575060008251145b1561190d57806118e4856123ea565b6040516020016118f5929190614471565b60405160208183030381529060405292505050611913565b81925050505b919050565b6000611922611cff565b61192c8484611d7d565b61193e611937611c3e565b8386610f2b565b8390509392505050565b6000606a60008473ffffffffffffffffffffffffffffffffffffffff1673ffffffffffffffffffffffffffffffffffffffff16815260200190815260200160002060008373ffffffffffffffffffffffffffffffffffffffff1673ffffffffffffffffffffffffffffffffffffffff16815260200190815260200160002060009054906101000a900460ff16905092915050565b60006119e6611c3e565b73ffffffffffffffffffffffffffffffffffffffff16611a04611698565b73ffffffffffffffffffffffffffffffffffffffff161480611a7e5750600115156101616000611a32611c3e565b73ffffffffffffffffffffffffffffffffffffffff1673ffffffffffffffffffffffffffffffffffffffff16815260200190815260200160002060009054906101000a900460ff161515145b611abd576040517f08c379a0000000000000000000000000000000000000000000000000000000008152600401611ab4906147fa565b60405180910390fd5b611ac861015f6126c6565b6000611ad561015f6126dc565b9050611ae184826126ea565b611aeb8184611d7d565b8091505092915050565b611afd611cff565b600073ffffffffffffffffffffffffffffffffffffffff168173ffffffffffffffffffffffffffffffffffffffff161415611b6d576040517f08c379a0000000000000000000000000000000000000000000000000000000008152600401611b64906145ba565b60405180910390fd5b611b76816128c4565b50565b60007f780e9d63000000000000000000000000000000000000000000000000000000007bffffffffffffffffffffffffffffffffffffffffffffffffffffffff1916827bffffffffffffffffffffffffffffffffffffffffffffffffffffffff19161480611bec5750611beb82612c52565b5b9050919050565b611bfc81612b53565b611c3b576040517f08c379a0000000000000000000000000000000000000000000000000000000008152600401611c329061481a565b60405180910390fd5b50565b600033905090565b816069600083815260200190815260200160002060006101000a81548173ffffffffffffffffffffffffffffffffffffffff021916908373ffffffffffffffffffffffffffffffffffffffff160217905550808273ffffffffffffffffffffffffffffffffffffffff16611cb9836114e7565b73ffffffffffffffffffffffffffffffffffffffff167f8c5be1e5ebec7d5bd14f71427d1e84f3dd0314c0f7b2291e5b200ac8c7c3b92560405160405180910390a45050565b611d07611c3e565b73ffffffffffffffffffffffffffffffffffffffff16611d25611698565b73ffffffffffffffffffffffffffffffffffffffff1614611d7b576040517f08c379a0000000000000000000000000000000000000000000000000000000008152600401611d72906147ba565b60405180910390fd5b565b611d8682612b53565b611dc5576040517f08c379a0000000000000000000000000000000000000000000000000000000008152600401611dbc9061477a565b60405180910390fd5b8061016060008481526020019081526020016000209080519060200190611ded9291906136de565b505050565b600080611dfe836114e7565b90508073ffffffffffffffffffffffffffffffffffffffff168473ffffffffffffffffffffffffffffffffffffffff161480611e405750611e3f8185611948565b5b80611e7e57508373ffffffffffffffffffffffffffffffffffffffff16611e6684610905565b73ffffffffffffffffffffffffffffffffffffffff16145b91505092915050565b8273ffffffffffffffffffffffffffffffffffffffff16611ea7826114e7565b73ffffffffffffffffffffffffffffffffffffffff1614611efd576040517f08c379a0000000000000000000000000000000000000000000000000000000008152600401611ef4906145da565b60405180910390fd5b600073ffffffffffffffffffffffffffffffffffffffff168273ffffffffffffffffffffffffffffffffffffffff161415611f6d576040517f08c379a0000000000000000000000000000000000000000000000000000000008152600401611f649061463a565b60405180910390fd5b611f78838383612d34565b611f83600082611c46565b6001606860008573ffffffffffffffffffffffffffffffffffffffff1673ffffffffffffffffffffffffffffffffffffffff1681526020019081526020016000206000828254611fd39190614ad1565b925050819055506001606860008473ffffffffffffffffffffffffffffffffffffffff1673ffffffffffffffffffffffffffffffffffffffff168152602001908152602001600020600082825461202a9190614a4a565b92505081905550816067600083815260200190815260200160002060006101000a81548173ffffffffffffffffffffffffffffffffffffffff021916908373ffffffffffffffffffffffffffffffffffffffff160217905550808273ffffffffffffffffffffffffffffffffffffffff168473ffffffffffffffffffffffffffffffffffffffff167fddf252ad1be2c89b69c2b068fc378daa952ba7f163c4a11628f55a4df523b3ef60405160405180910390a46120e9838383612d44565b505050565b60006120f9826114e7565b905061210781600084612d34565b612112600083611c46565b6001606860008373ffffffffffffffffffffffffffffffffffffffff1673ffffffffffffffffffffffffffffffffffffffff16815260200190815260200160002060008282546121629190614ad1565b925050819055506067600083815260200190815260200160002060006101000a81549073ffffffffffffffffffffffffffffffffffffffff021916905581600073ffffffffffffffffffffffffffffffffffffffff168273ffffffffffffffffffffffffffffffffffffffff167fddf252ad1be2c89b69c2b068fc378daa952ba7f163c4a11628f55a4df523b3ef60405160405180910390a461220781600084612d44565b5050565b60006122397f360894a13ba1a3210667c828492db98dca3e2076cc3735a920a3ca505d382bbc60001b612d49565b60000160009054906101000a900473ffffffffffffffffffffffffffffffffffffffff16905090565b61226a611cff565b50565b6122997f4910fdfa16fed3260ed0e7147f7cc6da11a60208b5b9406d12a635614ffd914360001b612d53565b60000160009054906101000a900460ff16156122bd576122b883612d5d565b6123e5565b8273ffffffffffffffffffffffffffffffffffffffff166352d1902d6040518163ffffffff1660e01b815260040160206040518083038186803b15801561230357600080fd5b505afa92505050801561233457506040513d601f19601f820116820180604052508101906123319190613c2c565b60015b612373576040517f08c379a000000000000000000000000000000000000000000000000000000000815260040161236a9061475a565b60405180910390fd5b7f360894a13ba1a3210667c828492db98dca3e2076cc3735a920a3ca505d382bbc60001b81146123d8576040517f08c379a00000000000000000000000000000000000000000000000000000000081526004016123cf906146da565b60405180910390fd5b506123e4838383612e16565b5b505050565b60606000821415612432576040518060400160405280600181526020017f30000000000000000000000000000000000000000000000000000000000000008152509050612546565b600082905060005b6000821461246457808061244d90614c47565b915050600a8261245d9190614aa0565b915061243a565b60008167ffffffffffffffff8111156124805761247f614dac565b5b6040519080825280601f01601f1916602001820160405280156124b25781602001600182028036833780820191505090505b5090505b6000851461253f576001826124cb9190614ad1565b9150600a856124da9190614c90565b60306124e69190614a4a565b60f81b8183815181106124fc576124fb614d7d565b5b60200101907effffffffffffffffffffffffffffffffffffffffffffffffffffffffffffff1916908160001a905350600a856125389190614aa0565b94506124b6565b8093505050505b919050565b6000808273ffffffffffffffffffffffffffffffffffffffff163b119050919050565b600060019054906101000a900460ff166125bd576040517f08c379a00000000000000000000000000000000000000000000000000000000081526004016125b4906148ba565b60405180910390fd5b6125c78282612e42565b5050565b600060019054906101000a900460ff1661261a576040517f08c379a0000000000000000000000000000000000000000000000000000000008152600401612611906148ba565b60405180910390fd5b565b600060019054906101000a900460ff1661266b576040517f08c379a0000000000000000000000000000000000000000000000000000000008152600401612662906148ba565b60405180910390fd5b612673612ec3565b565b600060019054906101000a900460ff166126c4576040517f08c379a00000000000000000000000000000000000000000000000000000000081526004016126bb906148ba565b60405180910390fd5b565b6001816000016000828254019250508190555050565b600081600001549050919050565b600073ffffffffffffffffffffffffffffffffffffffff168273ffffffffffffffffffffffffffffffffffffffff16141561275a576040517f08c379a00000000000000000000000000000000000000000000000000000000081526004016127519061473a565b60405180910390fd5b61276381612b53565b156127a3576040517f08c379a000000000000000000000000000000000000000000000000000000000815260040161279a906145fa565b60405180910390fd5b6127af60008383612d34565b6001606860008473ffffffffffffffffffffffffffffffffffffffff1673ffffffffffffffffffffffffffffffffffffffff16815260200190815260200160002060008282546127ff9190614a4a565b92505081905550816067600083815260200190815260200160002060006101000a81548173ffffffffffffffffffffffffffffffffffffffff021916908373ffffffffffffffffffffffffffffffffffffffff160217905550808273ffffffffffffffffffffffffffffffffffffffff16600073ffffffffffffffffffffffffffffffffffffffff167fddf252ad1be2c89b69c2b068fc378daa952ba7f163c4a11628f55a4df523b3ef60405160405180910390a46128c060008383612d44565b5050565b600060c960009054906101000a900473ffffffffffffffffffffffffffffffffffffffff1690508160c960006101000a81548173ffffffffffffffffffffffffffffffffffffffff021916908373ffffffffffffffffffffffffffffffffffffffff1602179055508173ffffffffffffffffffffffffffffffffffffffff168173ffffffffffffffffffffffffffffffffffffffff167f8be0079c531659141344cd1fd0a4f28419497f9722a3daafe3b4186f6b6457e060405160405180910390a35050565b8173ffffffffffffffffffffffffffffffffffffffff168373ffffffffffffffffffffffffffffffffffffffff1614156129f9576040517f08c379a00000000000000000000000000000000000000000000000000000000081526004016129f09061465a565b60405180910390fd5b80606a60008573ffffffffffffffffffffffffffffffffffffffff1673ffffffffffffffffffffffffffffffffffffffff16815260200190815260200160002060008473ffffffffffffffffffffffffffffffffffffffff1673ffffffffffffffffffffffffffffffffffffffff16815260200190815260200160002060006101000a81548160ff0219169083151502179055508173ffffffffffffffffffffffffffffffffffffffff168373ffffffffffffffffffffffffffffffffffffffff167f17307eab39ab6107e8899845ad3d59bd9653f200f220920489ca2b5937696c3183604051612aea9190614507565b60405180910390a3505050565b612b02848484611e87565b612b0e84848484612f24565b612b4d576040517f08c379a0000000000000000000000000000000000000000000000000000000008152600401612b449061459a565b60405180910390fd5b50505050565b60008073ffffffffffffffffffffffffffffffffffffffff166067600084815260200190815260200160002060009054906101000a900473ffffffffffffffffffffffffffffffffffffffff1673ffffffffffffffffffffffffffffffffffffffff1614159050919050565b60606101628054612bcf90614be4565b80601f0160208091040260200160405190810160405280929190818152602001828054612bfb90614be4565b8015612c485780601f10612c1d57610100808354040283529160200191612c48565b820191906000526020600020905b815481529060010190602001808311612c2b57829003601f168201915b5050505050905090565b60007f80ac58cd000000000000000000000000000000000000000000000000000000007bffffffffffffffffffffffffffffffffffffffffffffffffffffffff1916827bffffffffffffffffffffffffffffffffffffffffffffffffffffffff19161480612d1d57507f5b5e139f000000000000000000000000000000000000000000000000000000007bffffffffffffffffffffffffffffffffffffffffffffffffffffffff1916827bffffffffffffffffffffffffffffffffffffffffffffffffffffffff1916145b80612d2d5750612d2c826130bb565b5b9050919050565b612d3f838383613125565b505050565b505050565b6000819050919050565b6000819050919050565b612d668161254b565b612da5576040517f08c379a0000000000000000000000000000000000000000000000000000000008152600401612d9c9061479a565b60405180910390fd5b80612dd27f360894a13ba1a3210667c828492db98dca3e2076cc3735a920a3ca505d382bbc60001b612d49565b60000160006101000a81548173ffffffffffffffffffffffffffffffffffffffff021916908373ffffffffffffffffffffffffffffffffffffffff16021790555050565b612e1f83613239565b600082511180612e2c5750805b15612e3d57612e3b8383613288565b505b505050565b600060019054906101000a900460ff16612e91576040517f08c379a0000000000000000000000000000000000000000000000000000000008152600401612e88906148ba565b60405180910390fd5b8160659080519060200190612ea79291906136de565b508060669080519060200190612ebe9291906136de565b505050565b600060019054906101000a900460ff16612f12576040517f08c379a0000000000000000000000000000000000000000000000000000000008152600401612f09906148ba565b60405180910390fd5b612f22612f1d611c3e565b6128c4565b565b6000612f458473ffffffffffffffffffffffffffffffffffffffff1661254b565b156130ae578373ffffffffffffffffffffffffffffffffffffffff1663150b7a02612f6e611c3e565b8786866040518563ffffffff1660e01b8152600401612f9094939291906144bb565b602060405180830381600087803b158015612faa57600080fd5b505af1925050508015612fdb57506040513d601f19601f82011682018060405250810190612fd89190613c86565b60015b61305e573d806000811461300b576040519150601f19603f3d011682016040523d82523d6000602084013e613010565b606091505b50600081511415613056576040517f08c379a000000000000000000000000000000000000000000000000000000000815260040161304d9061459a565b60405180910390fd5b805181602001fd5b63150b7a0260e01b7bffffffffffffffffffffffffffffffffffffffffffffffffffffffff1916817bffffffffffffffffffffffffffffffffffffffffffffffffffffffff1916149150506130b3565b600190505b949350505050565b60007f01ffc9a7000000000000000000000000000000000000000000000000000000007bffffffffffffffffffffffffffffffffffffffffffffffffffffffff1916827bffffffffffffffffffffffffffffffffffffffffffffffffffffffff1916149050919050565b61313083838361336c565b600073ffffffffffffffffffffffffffffffffffffffff168373ffffffffffffffffffffffffffffffffffffffff1614156131735761316e81613371565b6131b2565b8173ffffffffffffffffffffffffffffffffffffffff168373ffffffffffffffffffffffffffffffffffffffff16146131b1576131b083826133ba565b5b5b600073ffffffffffffffffffffffffffffffffffffffff168273ffffffffffffffffffffffffffffffffffffffff1614156131f5576131f081613527565b613234565b8273ffffffffffffffffffffffffffffffffffffffff168273ffffffffffffffffffffffffffffffffffffffff16146132335761323282826135f8565b5b5b505050565b61324281612d5d565b8073ffffffffffffffffffffffffffffffffffffffff167fbc7cd75a20ee27fd9adebab32041f755214dbc6bffa90cc0225b39da2e5c2d3b60405160405180910390a250565b60606132938361254b565b6132d2576040517f08c379a00000000000000000000000000000000000000000000000000000000081526004016132c99061485a565b60405180910390fd5b6000808473ffffffffffffffffffffffffffffffffffffffff16846040516132fa919061445a565b600060405180830381855af49150503d8060008114613335576040519150601f19603f3d011682016040523d82523d6000602084013e61333a565b606091505b5091509150613362828260405180606001604052806027815260200161577a60279139613677565b9250505092915050565b505050565b609980549050609a600083815260200190815260200160002081905550609981908060018154018082558091505060019003906000526020600020016000909190919091505550565b600060016133c7846115ba565b6133d19190614ad1565b90506000609860008481526020019081526020016000205490508181146134b6576000609760008673ffffffffffffffffffffffffffffffffffffffff1673ffffffffffffffffffffffffffffffffffffffff168152602001908152602001600020600084815260200190815260200160002054905080609760008773ffffffffffffffffffffffffffffffffffffffff1673ffffffffffffffffffffffffffffffffffffffff168152602001908152602001600020600084815260200190815260200160002081905550816098600083815260200190815260200160002081905550505b6098600084815260200190815260200160002060009055609760008573ffffffffffffffffffffffffffffffffffffffff1673ffffffffffffffffffffffffffffffffffffffff16815260200190815260200160002060008381526020019081526020016000206000905550505050565b6000600160998054905061353b9190614ad1565b90506000609a600084815260200190815260200160002054905060006099838154811061356b5761356a614d7d565b5b90600052602060002001549050806099838154811061358d5761358c614d7d565b5b906000526020600020018190555081609a600083815260200190815260200160002081905550609a60008581526020019081526020016000206000905560998054806135dc576135db614d4e565b5b6001900381819060005260206000200160009055905550505050565b6000613603836115ba565b905081609760008573ffffffffffffffffffffffffffffffffffffffff1673ffffffffffffffffffffffffffffffffffffffff168152602001908152602001600020600083815260200190815260200160002081905550806098600084815260200190815260200160002081905550505050565b60608315613687578290506136d7565b60008351111561369a5782518084602001fd5b816040517f08c379a00000000000000000000000000000000000000000000000000000000081526004016136ce9190614558565b60405180910390fd5b9392505050565b8280546136ea90614be4565b90600052602060002090601f01602090048101928261370c5760008555613753565b82601f1061372557805160ff1916838001178555613753565b82800160010185558215613753579182015b82811115613752578251825591602001919060010190613737565b5b5090506137609190613764565b5090565b5b8082111561377d576000816000905550600101613765565b5090565b600061379461378f8461499a565b614975565b9050828152602081018484840111156137b0576137af614dea565b5b6137bb848285614ba2565b509392505050565b60006137d66137d1846149cb565b614975565b9050828152602081018484840111156137f2576137f1614dea565b5b6137fd848285614ba2565b509392505050565b60008135905061381481615706565b92915050565b60008083601f8401126138305761382f614de0565b5b8235905067ffffffffffffffff81111561384d5761384c614ddb565b5b60208301915083602082028301111561386957613868614de5565b5b9250929050565b60008135905061387f8161571d565b92915050565b60008151905061389481615734565b92915050565b6000813590506138a98161574b565b92915050565b6000815190506138be8161574b565b92915050565b600082601f8301126138d9576138d8614de0565b5b81356138e9848260208601613781565b91505092915050565b600082601f83011261390757613906614de0565b5b81356139178482602086016137c3565b91505092915050565b60008135905061392f81615762565b92915050565b60006020828403121561394b5761394a614df4565b5b600061395984828501613805565b91505092915050565b6000806040838503121561397957613978614df4565b5b600061398785828601613805565b925050602061399885828601613805565b9150509250929050565b6000806000606084860312156139bb576139ba614df4565b5b60006139c986828701613805565b93505060206139da86828701613805565b92505060406139eb86828701613920565b9150509250925092565b60008060008060808587031215613a0f57613a0e614df4565b5b6000613a1d87828801613805565b9450506020613a2e87828801613805565b9350506040613a3f87828801613920565b925050606085013567ffffffffffffffff811115613a6057613a5f614def565b5b613a6c878288016138c4565b91505092959194509250565b60008060408385031215613a8f57613a8e614df4565b5b6000613a9d85828601613805565b9250506020613aae85828601613870565b9150509250929050565b60008060408385031215613acf57613ace614df4565b5b6000613add85828601613805565b925050602083013567ffffffffffffffff811115613afe57613afd614def565b5b613b0a858286016138c4565b9150509250929050565b60008060408385031215613b2b57613b2a614df4565b5b6000613b3985828601613805565b925050602083013567ffffffffffffffff811115613b5a57613b59614def565b5b613b66858286016138f2565b9150509250929050565b60008060408385031215613b8757613b86614df4565b5b6000613b9585828601613805565b9250506020613ba685828601613920565b9150509250929050565b600080600060408486031215613bc957613bc8614df4565b5b600084013567ffffffffffffffff811115613be757613be6614def565b5b613bf38682870161381a565b9350935050602084013567ffffffffffffffff811115613c1657613c15614def565b5b613c22868287016138f2565b9150509250925092565b600060208284031215613c4257613c41614df4565b5b6000613c5084828501613885565b91505092915050565b600060208284031215613c6f57613c6e614df4565b5b6000613c7d8482850161389a565b91505092915050565b600060208284031215613c9c57613c9b614df4565b5b6000613caa848285016138af565b91505092915050565b600060208284031215613cc957613cc8614df4565b5b600082013567ffffffffffffffff811115613ce757613ce6614def565b5b613cf3848285016138f2565b91505092915050565b60008060408385031215613d1357613d12614df4565b5b600083013567ffffffffffffffff811115613d3157613d30614def565b5b613d3d858286016138f2565b925050602083013567ffffffffffffffff811115613d5e57613d5d614def565b5b613d6a858286016138f2565b9150509250929050565b600060208284031215613d8a57613d89614df4565b5b6000613d9884828501613920565b91505092915050565b60008060408385031215613db857613db7614df4565b5b6000613dc685828601613920565b925050602083013567ffffffffffffffff811115613de757613de6614def565b5b613df3858286016138f2565b9150509250929050565b600080600060608486031215613e1657613e15614df4565b5b6000613e2486828701613920565b935050602084013567ffffffffffffffff811115613e4557613e44614def565b5b613e51868287016138f2565b9250506040613e6286828701613805565b9150509250925092565b600080600060608486031215613e8557613e84614df4565b5b6000613e9386828701613920565b9350506020613ea486828701613920565b925050604084013567ffffffffffffffff811115613ec557613ec4614def565b5b613ed1868287016138f2565b9150509250925092565b613ee481614b05565b82525050565b613ef381614b17565b82525050565b613f0281614b23565b82525050565b6000613f13826149fc565b613f1d8185614a12565b9350613f2d818560208601614bb1565b613f3681614df9565b840191505092915050565b6000613f4c826149fc565b613f568185614a23565b9350613f66818560208601614bb1565b80840191505092915050565b613f7b81614b90565b82525050565b6000613f8c82614a07565b613f968185614a2e565b9350613fa6818560208601614bb1565b613faf81614df9565b840191505092915050565b6000613fc582614a07565b613fcf8185614a3f565b9350613fdf818560208601614bb1565b80840191505092915050565b6000613ff8602b83614a2e565b915061400382614e0a565b604082019050919050565b600061401b603283614a2e565b915061402682614e59565b604082019050919050565b600061403e602683614a2e565b915061404982614ea8565b604082019050919050565b6000614061602583614a2e565b915061406c82614ef7565b604082019050919050565b6000614084601c83614a2e565b915061408f82614f46565b602082019050919050565b60006140a7602c83614a2e565b91506140b282614f6f565b604082019050919050565b60006140ca602483614a2e565b91506140d582614fbe565b604082019050919050565b60006140ed601983614a2e565b91506140f88261500d565b602082019050919050565b6000614110602c83614a2e565b915061411b82615036565b604082019050919050565b6000614133603883614a2e565b915061413e82615085565b604082019050919050565b6000614156602983614a2e565b9150614161826150d4565b604082019050919050565b6000614179602983614a2e565b915061418482615123565b604082019050919050565b600061419c602e83614a2e565b91506141a782615172565b604082019050919050565b60006141bf603e83614a2e565b91506141ca826151c1565b604082019050919050565b60006141e2602083614a2e565b91506141ed82615210565b602082019050919050565b6000614205602e83614a2e565b915061421082615239565b604082019050919050565b6000614228600583614a3f565b915061423382615288565b600582019050919050565b600061424b602c83614a2e565b9150614256826152b1565b604082019050919050565b600061426e602d83614a2e565b915061427982615300565b604082019050919050565b6000614291602083614a2e565b915061429c8261534f565b602082019050919050565b60006142b4602f83614a2e565b91506142bf82615378565b604082019050919050565b60006142d7602f83614a2e565b91506142e2826153c7565b604082019050919050565b60006142fa601883614a2e565b915061430582615416565b602082019050919050565b600061431d602183614a2e565b91506143288261543f565b604082019050919050565b6000614340602683614a2e565b915061434b8261548e565b604082019050919050565b6000614363602183614a2e565b915061436e826154dd565b604082019050919050565b6000614386602c83614a2e565b91506143918261552c565b604082019050919050565b60006143a9602b83614a2e565b91506143b48261557b565b604082019050919050565b60006143cc602a83614a2e565b91506143d7826155ca565b604082019050919050565b60006143ef602783614a2e565b91506143fa82615619565b604082019050919050565b6000614412602e83614a2e565b915061441d82615668565b604082019050919050565b6000614435603083614a2e565b9150614440826156b7565b604082019050919050565b61445481614b79565b82525050565b60006144668284613f41565b915081905092915050565b600061447d8285613fba565b91506144898284613fba565b91506144948261421b565b91508190509392505050565b60006020820190506144b56000830184613edb565b92915050565b60006080820190506144d06000830187613edb565b6144dd6020830186613edb565b6144ea604083018561444b565b81810360608301526144fc8184613f08565b905095945050505050565b600060208201905061451c6000830184613eea565b92915050565b60006020820190506145376000830184613ef9565b92915050565b60006020820190506145526000830184613f72565b92915050565b600060208201905081810360008301526145728184613f81565b905092915050565b6000602082019050818103600083015261459381613feb565b9050919050565b600060208201905081810360008301526145b38161400e565b9050919050565b600060208201905081810360008301526145d381614031565b9050919050565b600060208201905081810360008301526145f381614054565b9050919050565b6000602082019050818103600083015261461381614077565b9050919050565b600060208201905081810360008301526146338161409a565b9050919050565b60006020820190508181036000830152614653816140bd565b9050919050565b60006020820190508181036000830152614673816140e0565b9050919050565b6000602082019050818103600083015261469381614103565b9050919050565b600060208201905081810360008301526146b381614126565b9050919050565b600060208201905081810360008301526146d381614149565b9050919050565b600060208201905081810360008301526146f38161416c565b9050919050565b600060208201905081810360008301526147138161418f565b9050919050565b60006020820190508181036000830152614733816141b2565b9050919050565b60006020820190508181036000830152614753816141d5565b9050919050565b60006020820190508181036000830152614773816141f8565b9050919050565b600060208201905081810360008301526147938161423e565b9050919050565b600060208201905081810360008301526147b381614261565b9050919050565b600060208201905081810360008301526147d381614284565b9050919050565b600060208201905081810360008301526147f3816142a7565b9050919050565b60006020820190508181036000830152614813816142ca565b9050919050565b60006020820190508181036000830152614833816142ed565b9050919050565b6000602082019050818103600083015261485381614310565b9050919050565b6000602082019050818103600083015261487381614333565b9050919050565b6000602082019050818103600083015261489381614356565b9050919050565b600060208201905081810360008301526148b381614379565b9050919050565b600060208201905081810360008301526148d38161439c565b9050919050565b600060208201905081810360008301526148f3816143bf565b9050919050565b60006020820190508181036000830152614913816143e2565b9050919050565b6000602082019050818103600083015261493381614405565b9050919050565b6000602082019050818103600083015261495381614428565b9050919050565b600060208201905061496f600083018461444b565b92915050565b600061497f614990565b905061498b8282614c16565b919050565b6000604051905090565b600067ffffffffffffffff8211156149b5576149b4614dac565b5b6149be82614df9565b9050602081019050919050565b600067ffffffffffffffff8211156149e6576149e5614dac565b5b6149ef82614df9565b9050602081019050919050565b600081519050919050565b600081519050919050565b600082825260208201905092915050565b600081905092915050565b600082825260208201905092915050565b600081905092915050565b6000614a5582614b79565b9150614a6083614b79565b9250827fffffffffffffffffffffffffffffffffffffffffffffffffffffffffffffffff03821115614a9557614a94614cc1565b5b828201905092915050565b6000614aab82614b79565b9150614ab683614b79565b925082614ac657614ac5614cf0565b5b828204905092915050565b6000614adc82614b79565b9150614ae783614b79565b925082821015614afa57614af9614cc1565b5b828203905092915050565b6000614b1082614b59565b9050919050565b60008115159050919050565b6000819050919050565b60007fffffffff0000000000000000000000000000000000000000000000000000000082169050919050565b600073ffffffffffffffffffffffffffffffffffffffff82169050919050565b6000819050919050565b600060ff82169050919050565b6000614b9b82614b83565b9050919050565b82818337600083830152505050565b60005b83811015614bcf578082015181840152602081019050614bb4565b83811115614bde576000848401525b50505050565b60006002820490506001821680614bfc57607f821691505b60208210811415614c1057614c0f614d1f565b5b50919050565b614c1f82614df9565b810181811067ffffffffffffffff82111715614c3e57614c3d614dac565b5b80604052505050565b6000614c5282614b79565b91507fffffffffffffffffffffffffffffffffffffffffffffffffffffffffffffffff821415614c8557614c84614cc1565b5b600182019050919050565b6000614c9b82614b79565b9150614ca683614b79565b925082614cb657614cb5614cf0565b5b828206905092915050565b7f4e487b7100000000000000000000000000000000000000000000000000000000600052601160045260246000fd5b7f4e487b7100000000000000000000000000000000000000000000000000000000600052601260045260246000fd5b7f4e487b7100000000000000000000000000000000000000000000000000000000600052602260045260246000fd5b7f4e487b7100000000000000000000000000000000000000000000000000000000600052603160045260246000fd5b7f4e487b7100000000000000000000000000000000000000000000000000000000600052603260045260246000fd5b7f4e487b7100000000000000000000000000000000000000000000000000000000600052604160045260246000fd5b600080fd5b600080fd5b600080fd5b600080fd5b600080fd5b600080fd5b6000601f19601f8301169050919050565b7f455243373231456e756d657261626c653a206f776e657220696e646578206f7560008201527f74206f6620626f756e6473000000000000000000000000000000000000000000602082015250565b7f4552433732313a207472616e7366657220746f206e6f6e20455243373231526560008201527f63656976657220696d706c656d656e7465720000000000000000000000000000602082015250565b7f4f776e61626c653a206e6577206f776e657220697320746865207a65726f206160008201527f6464726573730000000000000000000000000000000000000000000000000000602082015250565b7f4552433732313a207472616e736665722066726f6d20696e636f72726563742060008201527f6f776e6572000000000000000000000000000000000000000000000000000000602082015250565b7f4552433732313a20746f6b656e20616c7265616479206d696e74656400000000600082015250565b7f46756e6374696f6e206d7573742062652063616c6c6564207468726f7567682060008201527f64656c656761746563616c6c0000000000000000000000000000000000000000602082015250565b7f4552433732313a207472616e7366657220746f20746865207a65726f2061646460008201527f7265737300000000000000000000000000000000000000000000000000000000602082015250565b7f4552433732313a20617070726f766520746f2063616c6c657200000000000000600082015250565b7f46756e6374696f6e206d7573742062652063616c6c6564207468726f7567682060008201527f6163746976652070726f78790000000000000000000000000000000000000000602082015250565b7f555550535570677261646561626c653a206d757374206e6f742062652063616c60008201527f6c6564207468726f7567682064656c656761746563616c6c0000000000000000602082015250565b7f4552433732313a2061646472657373207a65726f206973206e6f74206120766160008201527f6c6964206f776e65720000000000000000000000000000000000000000000000602082015250565b7f45524331393637557067726164653a20756e737570706f727465642070726f7860008201527f6961626c65555549440000000000000000000000000000000000000000000000602082015250565b7f496e697469616c697a61626c653a20636f6e747261637420697320616c72656160008201527f647920696e697469616c697a6564000000000000000000000000000000000000602082015250565b7f4552433732313a20617070726f76652063616c6c6572206973206e6f7420746f60008201527f6b656e206f776e6572206e6f7220617070726f76656420666f7220616c6c0000602082015250565b7f4552433732313a206d696e7420746f20746865207a65726f2061646472657373600082015250565b7f45524331393637557067726164653a206e657720696d706c656d656e7461746960008201527f6f6e206973206e6f742055555053000000000000000000000000000000000000602082015250565b7f2e6a736f6e000000000000000000000000000000000000000000000000000000600082015250565b7f4552433732314d657461646174613a2055524920736574206f66206e6f6e657860008201527f697374656e7420746f6b656e0000000000000000000000000000000000000000602082015250565b7f455243313936373a206e657720696d706c656d656e746174696f6e206973206e60008201527f6f74206120636f6e747261637400000000000000000000000000000000000000602082015250565b7f4f776e61626c653a2063616c6c6572206973206e6f7420746865206f776e6572600082015250565b7f4552433732314d657461646174613a2055524920717565727920666f72206e6f60008201527f6e6578697374656e7420746f6b656e0000000000000000000000000000000000602082015250565b7f4f776e61626c653a2063616c6c6572206973206e6f7420746865206f776e657260008201527f206f7220697320617070726f7665640000000000000000000000000000000000602082015250565b7f4552433732313a20696e76616c696420746f6b656e2049440000000000000000600082015250565b7f4552433732313a20617070726f76616c20746f2063757272656e74206f776e6560008201527f7200000000000000000000000000000000000000000000000000000000000000602082015250565b7f416464726573733a2064656c65676174652063616c6c20746f206e6f6e2d636f60008201527f6e74726163740000000000000000000000000000000000000000000000000000602082015250565b7f4d6f6f6e42656173743a20546f6b656e494473206c69737420697320656d707460008201527f7900000000000000000000000000000000000000000000000000000000000000602082015250565b7f455243373231456e756d657261626c653a20676c6f62616c20696e646578206f60008201527f7574206f6620626f756e64730000000000000000000000000000000000000000602082015250565b7f496e697469616c697a61626c653a20636f6e7472616374206973206e6f74206960008201527f6e697469616c697a696e67000000000000000000000000000000000000000000602082015250565b7f4d6f6f6e42656173743a2053746172744944206d757374206265206c6573732060008201527f7468616e20456e64494400000000000000000000000000000000000000000000602082015250565b7f4d6f6f6e42656173743a206f70657261746f7220697320746865207a65726f2060008201527f6164647265737300000000000000000000000000000000000000000000000000602082015250565b7f4552433732313a2063616c6c6572206973206e6f7420746f6b656e206f776e6560008201527f72206e6f7220617070726f766564000000000000000000000000000000000000602082015250565b7f4552433732314275726e61626c653a2063616c6c6572206973206e6f74206f7760008201527f6e6572206e6f7220617070726f76656400000000000000000000000000000000602082015250565b61570f81614b05565b811461571a57600080fd5b50565b61572681614b17565b811461573157600080fd5b50565b61573d81614b23565b811461574857600080fd5b50565b61575481614b2d565b811461575f57600080fd5b50565b61576b81614b79565b811461577657600080fd5b5056fe416464726573733a206c6f772d6c6576656c2064656c65676174652063616c6c206661696c6564a26469706673582212202799a49c565c2e97a238e624797adb9b62947f83e00d8e48bbc3bd97b31ccbbe64736f6c63430008070033",
  "linkReferences": {},
  "deployedLinkReferences": {}
}